{
  "abi": [
    {
      "type": "constructor",
      "inputs": [
        {
          "name": "_initialSupply",
          "type": "uint256",
          "internalType": "uint256"
        }
      ],
      "stateMutability": "nonpayable"
    },
    {
      "type": "fallback",
      "stateMutability": "nonpayable"
    },
    {
      "type": "function",
      "name": "allowance",
      "inputs": [
        {
          "name": "owner",
          "type": "address",
          "internalType": "address"
        },
        {
          "name": "spender",
          "type": "address",
          "internalType": "address"
        }
      ],
      "outputs": [
        {
          "name": "",
          "type": "uint256",
          "internalType": "uint256"
        }
      ],
      "stateMutability": "view"
    },
    {
      "type": "function",
      "name": "allowancesAmounts",
      "inputs": [
        {
          "name": "",
          "type": "uint256",
          "internalType": "uint256"
        }
      ],
      "outputs": [
        {
          "name": "",
          "type": "uint256",
          "internalType": "uint256"
        }
      ],
      "stateMutability": "view"
    },
    {
      "type": "function",
      "name": "allowancesOwners",
      "inputs": [
        {
          "name": "",
          "type": "uint256",
          "internalType": "uint256"
        }
      ],
      "outputs": [
        {
          "name": "",
          "type": "address",
          "internalType": "address"
        }
      ],
      "stateMutability": "view"
    },
    {
      "type": "function",
      "name": "allowancesSpenders",
      "inputs": [
        {
          "name": "",
          "type": "uint256",
          "internalType": "uint256"
        }
      ],
      "outputs": [
        {
          "name": "",
          "type": "address",
          "internalType": "address"
        }
      ],
      "stateMutability": "view"
    },
    {
      "type": "function",
      "name": "approve",
      "inputs": [
        {
          "name": "spender",
          "type": "address",
          "internalType": "address"
        },
        {
          "name": "amount",
          "type": "uint256",
          "internalType": "uint256"
        }
      ],
      "outputs": [
        {
          "name": "",
          "type": "bool",
          "internalType": "bool"
        }
      ],
      "stateMutability": "nonpayable"
    },
    {
      "type": "function",
      "name": "associate",
      "inputs": [],
      "outputs": [],
      "stateMutability": "nonpayable"
    },
    {
      "type": "function",
      "name": "associatedAccounts",
      "inputs": [
        {
          "name": "",
          "type": "uint256",
          "internalType": "uint256"
        }
      ],
      "outputs": [
        {
          "name": "",
          "type": "address",
          "internalType": "address"
        }
      ],
      "stateMutability": "view"
    },
    {
      "type": "function",
      "name": "balanceOf",
      "inputs": [
        {
          "name": "account",
          "type": "address",
          "internalType": "address"
        }
      ],
      "outputs": [
        {
          "name": "",
          "type": "uint256",
          "internalType": "uint256"
        }
      ],
      "stateMutability": "view"
    },
    {
      "type": "function",
      "name": "balances",
      "inputs": [
        {
          "name": "",
          "type": "uint256",
          "internalType": "uint256"
        }
      ],
      "outputs": [
        {
          "name": "",
          "type": "uint256",
          "internalType": "uint256"
        }
      ],
      "stateMutability": "view"
    },
    {
      "type": "function",
      "name": "decimals",
      "inputs": [],
      "outputs": [
        {
          "name": "",
          "type": "uint8",
          "internalType": "uint8"
        }
      ],
      "stateMutability": "view"
    },
    {
      "type": "function",
      "name": "dissociate",
      "inputs": [],
      "outputs": [],
      "stateMutability": "nonpayable"
    },
    {
      "type": "function",
      "name": "holders",
      "inputs": [
        {
          "name": "",
          "type": "uint256",
          "internalType": "uint256"
        }
      ],
      "outputs": [
        {
          "name": "",
          "type": "address",
          "internalType": "address"
        }
      ],
      "stateMutability": "view"
    },
    {
      "type": "function",
      "name": "isAssociated",
      "inputs": [
        {
          "name": "account",
          "type": "address",
          "internalType": "address"
        }
      ],
      "outputs": [
        {
          "name": "",
          "type": "bool",
          "internalType": "bool"
        }
      ],
      "stateMutability": "view"
    },
    {
      "type": "function",
      "name": "name",
      "inputs": [],
      "outputs": [
        {
          "name": "",
          "type": "string",
          "internalType": "string"
        }
      ],
      "stateMutability": "view"
    },
    {
      "type": "function",
      "name": "symbol",
      "inputs": [],
      "outputs": [
        {
          "name": "",
          "type": "string",
          "internalType": "string"
        }
      ],
      "stateMutability": "view"
    },
    {
      "type": "function",
      "name": "totalSupply",
      "inputs": [],
      "outputs": [
        {
          "name": "",
          "type": "uint256",
          "internalType": "uint256"
        }
      ],
      "stateMutability": "view"
    },
    {
      "type": "function",
      "name": "transfer",
      "inputs": [
        {
          "name": "recipient",
          "type": "address",
          "internalType": "address"
        },
        {
          "name": "amount",
          "type": "uint256",
          "internalType": "uint256"
        }
      ],
      "outputs": [
        {
          "name": "",
          "type": "bool",
          "internalType": "bool"
        }
      ],
      "stateMutability": "nonpayable"
    },
    {
      "type": "function",
      "name": "transferFrom",
      "inputs": [
        {
          "name": "sender",
          "type": "address",
          "internalType": "address"
        },
        {
          "name": "recipient",
          "type": "address",
          "internalType": "address"
        },
        {
          "name": "amount",
          "type": "uint256",
          "internalType": "uint256"
        }
      ],
      "outputs": [
        {
          "name": "",
          "type": "bool",
          "internalType": "bool"
        }
      ],
      "stateMutability": "nonpayable"
    },
    {
      "type": "event",
      "name": "Approval",
      "inputs": [
        {
          "name": "owner",
          "type": "address",
          "indexed": true,
          "internalType": "address"
        },
        {
          "name": "spender",
          "type": "address",
          "indexed": true,
          "internalType": "address"
        },
        {
          "name": "value",
          "type": "uint256",
          "indexed": false,
          "internalType": "uint256"
        }
      ],
      "anonymous": false
    },
    {
      "type": "event",
      "name": "Associated",
      "inputs": [
        {
          "name": "account",
          "type": "address",
          "indexed": true,
          "internalType": "address"
        }
      ],
      "anonymous": false
    },
    {
      "type": "event",
      "name": "Dissociated",
      "inputs": [
        {
          "name": "account",
          "type": "address",
          "indexed": true,
          "internalType": "address"
        }
      ],
      "anonymous": false
    },
    {
      "type": "event",
      "name": "Transfer",
      "inputs": [
        {
          "name": "from",
          "type": "address",
          "indexed": true,
          "internalType": "address"
        },
        {
          "name": "to",
          "type": "address",
          "indexed": true,
          "internalType": "address"
        },
        {
          "name": "value",
          "type": "uint256",
          "indexed": false,
          "internalType": "uint256"
        }
      ],
      "anonymous": false
    }
  ],
  "bytecode": {
    "object": "0x60c0604052600a60809081526920b93930bcaa37b5b2b760b11b60a05260009061002990826101c0565b5060408051808201909152600381526210549560ea1b602082015260019061005190826101c0565b506002805460ff1916601217905534801561006b57600080fd5b506040516118d23803806118d283398101604081905261008a9161027e565b60025461009b9060ff16600a610396565b6100a590826103a9565b60039081556004805460018181019092557f8a35acfbc15ff81a39ae7d344fd709f28e8600b4aa8c65c6b64bfe7fe36bd19b0180546001600160a01b0319163317905590546005805492830181556000527f036b6384b5eca791c62761152d0c79bb0604c104a5fb6f4eb0703f3154bb3db090910155506103c0565b634e487b7160e01b600052604160045260246000fd5b600181811c9082168061014b57607f821691505b60208210810361016b57634e487b7160e01b600052602260045260246000fd5b50919050565b601f8211156101bb57806000526020600020601f840160051c810160208510156101985750805b601f840160051c820191505b818110156101b857600081556001016101a4565b50505b505050565b81516001600160401b038111156101d9576101d9610121565b6101ed816101e78454610137565b84610171565b6020601f82116001811461022157600083156102095750848201515b600019600385901b1c1916600184901b1784556101b8565b600084815260208120601f198516915b828110156102515787850151825560209485019460019092019101610231565b508482101561026f5786840151600019600387901b60f8161c191681555b50505050600190811b01905550565b60006020828403121561029057600080fd5b5051919050565b634e487b7160e01b600052601160045260246000fd5b6001815b60018411156102e8578085048111156102cc576102cc610297565b60018416156102da57908102905b60019390931c9280026102b1565b935093915050565b6000826102ff57506001610390565b8161030c57506000610390565b8160018114610322576002811461032c57610348565b6001915050610390565b60ff84111561033d5761033d610297565b50506001821b610390565b5060208310610133831016604e8410600b841016171561036b575081810a610390565b61037860001984846102ad565b806000190482111561038c5761038c610297565b0290505b92915050565b60006103a283836102f0565b9392505050565b808202811582820484141761039057610390610297565b611503806103cf6000396000f3fe608060405234801561001057600080fd5b50600436106101165760003560e01c80634903b0d1116100a257806395d89b411161007157806395d89b41146102dd578063a32cfadf146102e5578063a9059cbb146102f8578063d55fe5821461030b578063dd62ed3e1461031e57610116565b80634903b0d11461029c5780635c9217e0146102af57806370a08231146102b757806381f64633146102ca57610116565b806318160ddd116100e957806318160ddd1461022d57806323b872dd146102445780632a11ced014610257578063313ce5671461026a5780633e9bf4941461028957610116565b806306fdde03146101b7578063095ea7b3146101d55780630a754de6146101f85780631316589a14610202575b600036606082610129600482858161119c565b610132916111c6565b60e01c9050600061014760186004368461119c565b610150916111fe565b60601c90506000610164366018818461119c565b8080601f0160208091040260200160405190810160405280939291908181526020018383808284376000920191909152509293506101a89250849150839050610331565b80519650602001945050505050f35b6101bf6105fc565b6040516101cc919061123e565b60405180910390f35b6101e86101e33660046112a8565b61068a565b60405190151581526020016101cc565b6102006107e4565b005b6102156102103660046112d2565b6108a2565b6040516001600160a01b0390911681526020016101cc565b61023660035481565b6040519081526020016101cc565b6101e86102523660046112eb565b6108cc565b6102156102653660046112d2565b610bf5565b6002546102779060ff1681565b60405160ff90911681526020016101cc565b6102156102973660046112d2565b610c05565b6102366102aa3660046112d2565b610c15565b610200610c36565b6102366102c5366004611328565b610dd6565b6102366102d83660046112d2565b610e52565b6101bf610e62565b6102156102f33660046112d2565b610e6f565b6101e86103063660046112a8565b610e7f565b6101e8610319366004611328565b61106e565b61023661032c36600461134a565b611086565b60606000610343601c6018368461119c565b61034c916111c6565b905063f90221fd60e01b6001600160e01b031982160161038f57600060405160200161037891906113b7565b6040516020818303038152906040529150506105f6565b63cec31a9960e01b6001600160e01b03198216016103be576002546040805160ff909216602083015201610378565b636a2764bf60e01b6001600160e01b03198216016103e857600160405160200161037891906113b7565b638f5f7dcf60e01b6001600160e01b0319821601610451576000610410603c6028368461119c565b610419916111fe565b60601c905061042781610dd6565b60405160200161043991815260200190565b604051602081830303815290604052925050506105f6565b6356fa634560e01b6001600160e01b03198216016104d6576000610479603c6028368461119c565b610482916111fe565b60601c90506000610497605c603c368461119c565b8101906104a491906112d2565b90506104b08282610e7f565b6040805191151560208301520160405160208183030381529060405293505050506105f6565b63f6a1584d60e01b6001600160e01b03198216016105355760006104fe603c6028368461119c565b610507916111fe565b60601c9050600061051c605c603c368461119c565b81019061052991906112d2565b90506104b0828261068a565b63114e896160e11b6001600160e01b031982160161059357600061055d603c6028368461119c565b610566916111fe565b60601c9050600061057b6050603c368461119c565b610584916111fe565b60601c90506104b0828261068a565b6315500d3f60e11b6001600160e01b03198216016105e45760006105bb603c6028368461119c565b6105c4916111fe565b60601c90506105d28161106e565b60408051911515602083015201610439565b50506040805160208101909152600081525b92915050565b600080546106099061137d565b80601f01602080910402602001604051908101604052809291908181526020018280546106359061137d565b80156106825780601f1061065757610100808354040283529160200191610682565b820191906000526020600020905b81548152906001019060200180831161066557829003601f168201915b505050505081565b60008061069833600661113f565b905060006106a785600761113f565b905060001982141580156106bd57506000198114155b156106e75783600883815481106106d6576106d6611465565b600091825260209091200155610798565b6006805460018082019092557ff652222313e28459528d920b65115c16c04f3efc82aaedc97be59f3f377c0d3f018054336001600160a01b031991821617909155600780548084019091557fa66cc928b5edb82af9bd49922954155ab7b0942694bea4ce44661d9a8736c6880180549091166001600160a01b0388161790556008805491820181556000527ff3f7a9fe364faab93b216da50a3214154f22a0a2b415b23a84c8169e8b636ee3018490555b6040518481526001600160a01b0386169033907f8c5be1e5ebec7d5bd14f71427d1e84f3dd0314c0f7b2291e5b200ac8c7c3b925906020015b60405180910390a3506001949350505050565b6107ed3361106e565b156108345760405162461bcd60e51b8152602060048201526012602482015271105b1c9958591e48185cdcdbd8da585d195960721b60448201526064015b60405180910390fd5b6009805460018101825560009182527f6e1540171b6c0c960b71a7020d9f60077f6af931a8bbf590da0223dacf75c7af0180546001600160a01b0319163390811790915560405190917fda6345b38edaa845627162ea9f0d5b76b9cbfc7f140a8629708200f4640cffa791a2565b600681815481106108b257600080fd5b6000918252602090912001546001600160a01b0316905081565b6000806108da85600461113f565b905060006108e933600761113f565b9050600019820361092f5760405162461bcd60e51b815260206004820152601060248201526f14d95b99195c881b9bdd08199bdd5b9960821b604482015260640161082b565b856001600160a01b03166006828154811061094c5761094c611465565b6000918252602090912001546001600160a01b0316146109a65760405162461bcd60e51b815260206004820152601560248201527414d95b99195c881b9bdd08185d5d1a1bdc9a5e9959605a1b604482015260640161082b565b83600583815481106109ba576109ba611465565b90600052602060002001541015610a0a5760405162461bcd60e51b8152602060048201526014602482015273496e73756666696369656e742062616c616e636560601b604482015260640161082b565b8360088281548110610a1e57610a1e611465565b90600052602060002001541015610a6c5760405162461bcd60e51b8152602060048201526012602482015271105b1b1bddd85b98d948195e18d95959195960721b604482015260640161082b565b8360058381548110610a8057610a80611465565b906000526020600020016000828254610a999190611491565b925050819055508360088281548110610ab457610ab4611465565b906000526020600020016000828254610acd9190611491565b9091555060009050610ae086600461113f565b90506000198103610b68576004805460018082019092557f8a35acfbc15ff81a39ae7d344fd709f28e8600b4aa8c65c6b64bfe7fe36bd19b0180546001600160a01b0319166001600160a01b0389161790556005805491820181556000527f036b6384b5eca791c62761152d0c79bb0604c104a5fb6f4eb0703f3154bb3db001859055610b9b565b8460058281548110610b7c57610b7c611465565b906000526020600020016000828254610b9591906114a4565b90915550505b856001600160a01b0316876001600160a01b03167fddf252ad1be2c89b69c2b068fc378daa952ba7f163c4a11628f55a4df523b3ef87604051610be091815260200190565b60405180910390a35060019695505050505050565b600481815481106108b257600080fd5b600981815481106108b257600080fd5b60058181548110610c2557600080fd5b600091825260209091200154905081565b610c3f3361106e565b610c7c5760405162461bcd60e51b815260206004820152600e60248201526d139bdd08185cdcdbd8da585d195960921b604482015260640161082b565b610c8533610dd6565b15610ce25760405162461bcd60e51b815260206004820152602760248201527f43616e6e6f7420646973736f63696174652077697468206e6f6e2d7a65726f2060448201526662616c616e636560c81b606482015260840161082b565b6000610cef33600961113f565b90506000198114610da85760098054610d0a90600190611491565b81548110610d1a57610d1a611465565b600091825260209091200154600980546001600160a01b039092169183908110610d4657610d46611465565b9060005260206000200160006101000a8154816001600160a01b0302191690836001600160a01b031602179055506009805480610d8557610d856114b7565b600082815260209020810160001990810180546001600160a01b03191690550190555b60405133907fa4cb7525a89db51eeba2c222d0023bdf55a07d3e2d2f12e33a35c5d1a94f339e90600090a250565b6000805b600454811015610e4957826001600160a01b031660048281548110610e0157610e01611465565b6000918252602090912001546001600160a01b031603610e415760058181548110610e2e57610e2e611465565b9060005260206000200154915050919050565b600101610dda565b50600092915050565b60088181548110610c2557600080fd5b600180546106099061137d565b600781815481106108b257600080fd5b600080610e8d33600461113f565b90506000198103610ed35760405162461bcd60e51b815260206004820152601060248201526f14d95b99195c881b9bdd08199bdd5b9960821b604482015260640161082b565b8260058281548110610ee757610ee7611465565b90600052602060002001541015610f375760405162461bcd60e51b8152602060048201526014602482015273496e73756666696369656e742062616c616e636560601b604482015260640161082b565b6000610f4485600661113f565b90506000198103610fcc576004805460018082019092557f8a35acfbc15ff81a39ae7d344fd709f28e8600b4aa8c65c6b64bfe7fe36bd19b0180546001600160a01b0319166001600160a01b0388161790556005805491820181556000527f036b6384b5eca791c62761152d0c79bb0604c104a5fb6f4eb0703f3154bb3db001849055610fff565b8360058281548110610fe057610fe0611465565b906000526020600020016000828254610ff991906114a4565b90915550505b836005838154811061101357611013611465565b90600052602060002001600082825461102c9190611491565b90915550506040518481526001600160a01b0386169033907fddf252ad1be2c89b69c2b068fc378daa952ba7f163c4a11628f55a4df523b3ef906020016107d1565b600060001961107e83600961113f565b141592915050565b6000805b60065481101561113557836001600160a01b0316600682815481106110b1576110b1611465565b6000918252602090912001546001600160a01b03161480156111025750826001600160a01b0316600782815481106110eb576110eb611465565b6000918252602090912001546001600160a01b0316145b1561112d576008818154811061111a5761111a611465565b90600052602060002001549150506105f6565b60010161108a565b5060009392505050565b6000805b825481101561119157836001600160a01b031683828154811061116857611168611465565b6000918252602090912001546001600160a01b0316036111895790506105f6565b600101611143565b506000199392505050565b600080858511156111ac57600080fd5b838611156111b957600080fd5b5050820193919092039150565b80356001600160e01b031981169060048410156111f7576001600160e01b0319600485900360031b81901b82161691505b5092915050565b80356bffffffffffffffffffffffff1981169060148410156111f7576bffffffffffffffffffffffff1960149490940360031b84901b1690921692915050565b602081526000825180602084015260005b8181101561126c576020818601810151604086840101520161124f565b506000604082850101526040601f19601f83011684010191505092915050565b80356001600160a01b03811681146112a357600080fd5b919050565b600080604083850312156112bb57600080fd5b6112c48361128c565b946020939093013593505050565b6000602082840312156112e457600080fd5b5035919050565b60008060006060848603121561130057600080fd5b6113098461128c565b92506113176020850161128c565b929592945050506040919091013590565b60006020828403121561133a57600080fd5b6113438261128c565b9392505050565b6000806040838503121561135d57600080fd5b6113668361128c565b91506113746020840161128c565b90509250929050565b600181811c9082168061139157607f821691505b6020821081036113b157634e487b7160e01b600052602260045260246000fd5b50919050565b602081526000808354818160011c905060018216806113d757607f821691505b6020821081036113f557634e487b7160e01b84526022600452602484fd5b6020860182905260408601818015611414576001811461142a57611458565b60ff198516825283151560051b82019550611458565b60008981526020902060005b8581101561145257815484820152600190910190602001611436565b83019650505b5093979650505050505050565b634e487b7160e01b600052603260045260246000fd5b634e487b7160e01b600052601160045260246000fd5b818103818111156105f6576105f661147b565b808201808211156105f6576105f661147b565b634e487b7160e01b600052603160045260246000fdfea26469706673582212202752e2b77797867efe5c42382612eedd0af1047c2957297c54ab91dc5a4a9b2f64736f6c634300081a0033",
    "linkReferences": {}
  },
  "methodIdentifiers": {
    "allowance(address,address)": "dd62ed3e",
    "allowancesAmounts(uint256)": "81f64633",
    "allowancesOwners(uint256)": "1316589a",
    "allowancesSpenders(uint256)": "a32cfadf",
    "approve(address,uint256)": "095ea7b3",
    "associate()": "0a754de6",
    "associatedAccounts(uint256)": "3e9bf494",
    "balanceOf(address)": "70a08231",
    "balances(uint256)": "4903b0d1",
    "decimals()": "313ce567",
    "dissociate()": "5c9217e0",
    "holders(uint256)": "2a11ced0",
    "isAssociated(address)": "d55fe582",
    "name()": "06fdde03",
    "symbol()": "95d89b41",
    "totalSupply()": "18160ddd",
    "transfer(address,uint256)": "a9059cbb",
    "transferFrom(address,address,uint256)": "23b872dd"
  },
  "storageLayout": {
    "storage": [
      {
        "astId": 45361,
        "contract": "src/HtsSystemContract.sol:HtsSystemContract",
        "label": "name",
        "offset": 0,
        "slot": "0",
        "type": "t_string_storage"
      },
      {
        "astId": 45364,
        "contract": "src/HtsSystemContract.sol:HtsSystemContract",
        "label": "symbol",
        "offset": 0,
        "slot": "1",
        "type": "t_string_storage"
      },
      {
        "astId": 45367,
        "contract": "src/HtsSystemContract.sol:HtsSystemContract",
        "label": "decimals",
        "offset": 0,
        "slot": "2",
        "type": "t_uint8"
      },
      {
        "astId": 45370,
        "contract": "src/HtsSystemContract.sol:HtsSystemContract",
        "label": "totalSupply",
        "offset": 0,
        "slot": "3",
        "type": "t_uint256"
      },
      {
        "astId": 45373,
        "contract": "src/HtsSystemContract.sol:HtsSystemContract",
        "label": "holders",
        "offset": 0,
        "slot": "4",
        "type": "t_array(t_address)dyn_storage"
      },
      {
        "astId": 45376,
        "contract": "src/HtsSystemContract.sol:HtsSystemContract",
        "label": "balances",
        "offset": 0,
        "slot": "5",
        "type": "t_array(t_uint256)dyn_storage"
      },
      {
        "astId": 45379,
        "contract": "src/HtsSystemContract.sol:HtsSystemContract",
        "label": "allowancesOwners",
        "offset": 0,
        "slot": "6",
        "type": "t_array(t_address)dyn_storage"
      },
      {
        "astId": 45382,
        "contract": "src/HtsSystemContract.sol:HtsSystemContract",
        "label": "allowancesSpenders",
        "offset": 0,
        "slot": "7",
        "type": "t_array(t_address)dyn_storage"
      },
      {
        "astId": 45385,
        "contract": "src/HtsSystemContract.sol:HtsSystemContract",
        "label": "allowancesAmounts",
        "offset": 0,
        "slot": "8",
        "type": "t_array(t_uint256)dyn_storage"
      },
      {
        "astId": 45388,
        "contract": "src/HtsSystemContract.sol:HtsSystemContract",
        "label": "associatedAccounts",
        "offset": 0,
        "slot": "9",
        "type": "t_array(t_address)dyn_storage"
      }
    ],
    "types": {
      "t_address": {
        "encoding": "inplace",
        "label": "address",
        "numberOfBytes": "20"
      },
      "t_array(t_address)dyn_storage": {
        "encoding": "dynamic_array",
        "label": "address[]",
        "numberOfBytes": "32",
        "base": "t_address"
      },
      "t_array(t_uint256)dyn_storage": {
        "encoding": "dynamic_array",
        "label": "uint256[]",
        "numberOfBytes": "32",
        "base": "t_uint256"
      },
      "t_string_storage": {
        "encoding": "bytes",
        "label": "string",
        "numberOfBytes": "32"
      },
      "t_uint256": {
        "encoding": "inplace",
        "label": "uint256",
        "numberOfBytes": "32"
      },
      "t_uint8": {
        "encoding": "inplace",
        "label": "uint8",
        "numberOfBytes": "1"
      }
    }
  },
  "id": 31
}