{"abi":[{"type":"fallback","stateMutability":"nonpayable"},{"type":"function","name":"decimals","inputs":[],"outputs":[{"name":"","type":"uint8","internalType":"uint8"}],"stateMutability":"view"},{"type":"function","name":"getAccountId","inputs":[{"name":"account","type":"address","internalType":"address"}],"outputs":[{"name":"accountId","type":"uint32","internalType":"uint32"}],"stateMutability":"view"},{"type":"function","name":"name","inputs":[],"outputs":[{"name":"","type":"string","internalType":"string"}],"stateMutability":"view"},{"type":"function","name":"symbol","inputs":[],"outputs":[{"name":"","type":"string","internalType":"string"}],"stateMutability":"view"},{"type":"function","name":"totalSupply","inputs":[],"outputs":[{"name":"","type":"uint256","internalType":"uint256"}],"stateMutability":"view"},{"type":"event","name":"Approval","inputs":[{"name":"owner","type":"address","indexed":true,"internalType":"address"},{"name":"spender","type":"address","indexed":true,"internalType":"address"},{"name":"amount","type":"uint256","indexed":false,"internalType":"uint256"}],"anonymous":false},{"type":"event","name":"Associated","inputs":[{"name":"account","type":"address","indexed":true,"internalType":"address"}],"anonymous":false},{"type":"event","name":"Dissociated","inputs":[{"name":"account","type":"address","indexed":true,"internalType":"address"}],"anonymous":false},{"type":"event","name":"Transfer","inputs":[{"name":"from","type":"address","indexed":true,"internalType":"address"},{"name":"to","type":"address","indexed":true,"internalType":"address"},{"name":"amount","type":"uint256","indexed":false,"internalType":"uint256"}],"anonymous":false}],"bytecode":{"object":"0x6080604052348015600f57600080fd5b50610d8b8061001f6000396000f3fe608060405234801561001057600080fd5b50600436106100575760003560e01c806306fdde031461019b57806318160ddd146101b9578063313ce567146101d057806395d89b41146101ef578063e0b490f7146101f7575b6000366060601c8210156100a85760405162461bcd60e51b81526020600482015260136024820152724e6f7420656e6f7567682063616c6c6461746160681b60448201526064015b60405180910390fd5b60006100b76004823681610acd565b6100c091610af7565b60e01c905063618dc65e81146101185760405162461bcd60e51b815260206004820152601f60248201527f46616c6c6261636b2073656c6563746f72206e6f7420737570706f7274656400604482015260640161009f565b6000610128601860043684610acd565b61013191610b2f565b60601c90503081146101855760405162461bcd60e51b815260206004820152601c60248201527f43616c6c6461746120746f6b656e206973206e6f742063616c6c657200000000604482015260640161009f565b61018d61021f565b805195506020019350505050f35b6101a3610625565b6040516101b09190610b65565b60405180910390f35b6101c260035481565b6040519081526020016101b0565b6002546101dd9060ff1681565b60405160ff90911681526020016101b0565b6101a36106b3565b61020a610205366004610bb3565b6106c0565b60405163ffffffff90911681526020016101b0565b60606000610231601c60183684610acd565b61023a91610af7565b905063f90221fd60e01b6001600160e01b031982160161027b5760006040516020016102669190610c1d565b60405160208183030381529060405291505090565b63cec31a9960e01b6001600160e01b03198216016102aa576002546040805160ff909216602083015201610266565b63e7e9f22360e01b6001600160e01b03198216016102d75760035460405160200161026691815260200190565b636a2764bf60e01b6001600160e01b03198216016103015760016040516020016102669190610c1d565b638f5f7dcf60e01b6001600160e01b03198216016103b957603c36101561036a5760405162461bcd60e51b815260206004820152601e60248201527f62616c616e63654f663a204e6f7420656e6f7567682063616c6c646174610000604482015260640161009f565b600061037a603c60283684610acd565b61038391610b2f565b60601c90506103918161076c565b6040516020016103a391815260200190565b6040516020818303038152906040529250505090565b6356fa634560e01b6001600160e01b031982160161048b57605c3610156104225760405162461bcd60e51b815260206004820152601d60248201527f7472616e736665723a204e6f7420656e6f7567682063616c6c64617461000000604482015260640161009f565b6000610432603c60283684610acd565b61043b91610b2f565b60601c90506000610450605c603c3684610acd565b61045991610ccb565b905033610467818484610780565b60408051600160208201520160405160208183030381529060405294505050505090565b63dc478d2360e01b6001600160e01b031982160161055657607c3610156104f45760405162461bcd60e51b815260206004820152601e60248201527f7472616e73666572463a204e6f7420656e6f7567682063616c6c646174610000604482015260640161009f565b6000610504603c60283684610acd565b61050d91610b2f565b60601c90506000610522605c60483684610acd565b61052b91610b2f565b60601c90506000610540607c605c3684610acd565b61054991610ccb565b9050610467838383610780565b63114e896160e11b6001600160e01b03198216016105dd57600061057e603c60283684610acd565b61058791610b2f565b60601c9050600061059c605c60483684610acd565b6105a591610b2f565b60601c90506105b482826108a7565b6040516020016105c691815260200190565b604051602081830303815290604052935050505090565b60405162461bcd60e51b815260206004820152601f60248201527f7265646972656374466f72546f6b656e3a206e6f7420737570706f7274656400604482015260640161009f565b6000805461063290610be3565b80601f016020809104026020016040519081016040528092919081815260200182805461065e90610be3565b80156106ab5780601f10610680576101008083540402835291602001916106ab565b820191906000526020600020905b81548152906001019060200180831161068e57829003601f168201915b505050505081565b6001805461063290610be3565b600030610167146107135760405162461bcd60e51b815260206004820152601760248201527f68747343616c6c3a2064656c6567617465642063616c6c000000000000000000604482015260640161009f565b6040805163e0b490f760e01b602082018190526000602483018190526001600160601b0319606087901b16602c8401529092909182910160405160208183030381529060405261076290610cea565b5495945050505050565b600080610778836109fb565b549392505050565b6001600160a01b0383166107cc5760405162461bcd60e51b8152602060048201526013602482015272343a399d1034b73b30b634b21039b2b73232b960691b604482015260640161009f565b6001600160a01b03821661081a5760405162461bcd60e51b8152602060048201526015602482015274343a399d1034b73b30b634b2103932b1b2b4bb32b960591b604482015260640161009f565b6000610825846109fb565b80549091508281101561087a5760405162461bcd60e51b815260206004820152601960248201527f6874733a20696e73756666696369656e742062616c616e636500000000000000604482015260640161009f565b8281038255600061088a856109fb565b8054909150600061089b8683610d0e565b90925550505050505050565b60405163e0b490f760e01b81526001600160a01b0383166004820152600090636eb1769f60e11b90829081906101679063e0b490f790602401602060405180830381865afa1580156108fd573d6000803e3d6000fd5b505050506040513d601f19601f820116820180604052508101906109219190610d2f565b60405163e0b490f760e01b81526001600160a01b03871660048201529091506000906101679063e0b490f790602401602060405180830381865afa15801561096d573d6000803e3d6000fd5b505050506040513d601f19601f820116820180604052508101906109919190610d2f565b604080516001600160e01b031980881660208301526001600160601b0319606088901b16602483015260e084811b8216603884015286901b16603c820152919250600091016040516020818303038152906040526109ee90610cea565b5498975050505050505050565b60405163e0b490f760e01b81526001600160a01b03821660048201526000906370a0823160e01b90829081906101679063e0b490f790602401602060405180830381865afa158015610a51573d6000803e3d6000fd5b505050506040513d601f19601f82011682018060405250810190610a759190610d2f565b604080516001600160e01b0319808716602083015267ffffffffffffffff1986841b16602483015260e084901b16603c82015291925001604051602081830303815290604052610ac490610cea565b95945050505050565b60008085851115610add57600080fd5b83861115610aea57600080fd5b5050820193919092039150565b80356001600160e01b03198116906004841015610b28576001600160e01b0319600485900360031b81901b82161691505b5092915050565b80356001600160601b03198116906014841015610b28576001600160601b031960149490940360031b84901b1690921692915050565b602081526000825180602084015260005b81811015610b935760208186018101516040868401015201610b76565b506000604082850101526040601f19601f83011684010191505092915050565b600060208284031215610bc557600080fd5b81356001600160a01b0381168114610bdc57600080fd5b9392505050565b600181811c90821680610bf757607f821691505b602082108103610c1757634e487b7160e01b600052602260045260246000fd5b50919050565b602081526000808354818160011c90506001821680610c3d57607f821691505b602082108103610c5b57634e487b7160e01b84526022600452602484fd5b6020860182905260408601818015610c7a5760018114610c9057610cbe565b60ff198516825283151560051b82019550610cbe565b60008981526020902060005b85811015610cb857815484820152600190910190602001610c9c565b83019650505b5093979650505050505050565b80356020831015610ce457600019602084900360031b1b165b92915050565b80516020808301519190811015610c175760001960209190910360031b1b16919050565b80820180821115610ce457634e487b7160e01b600052601160045260246000fd5b600060208284031215610d4157600080fd5b815163ffffffff81168114610bdc57600080fdfea26469706673582212206394375e914a60cbf0e33881bb8d8b54d0cae1256bc8134d7ac9cc01281def0c64736f6c634300081a0033","linkReferences":{}},"methodIdentifiers":{"decimals()":"313ce567","getAccountId(address)":"e0b490f7","name()":"06fdde03","symbol()":"95d89b41","totalSupply()":"18160ddd"},"storageLayout":{"storage":[{"astId":38995,"contract":"src/HtsSystemContract.sol:HtsSystemContract","label":"name","offset":0,"slot":"0","type":"t_string_storage"},{"astId":38997,"contract":"src/HtsSystemContract.sol:HtsSystemContract","label":"symbol","offset":0,"slot":"1","type":"t_string_storage"},{"astId":38999,"contract":"src/HtsSystemContract.sol:HtsSystemContract","label":"decimals","offset":0,"slot":"2","type":"t_uint8"},{"astId":39001,"contract":"src/HtsSystemContract.sol:HtsSystemContract","label":"totalSupply","offset":0,"slot":"3","type":"t_uint256"}],"types":{"t_string_storage":{"encoding":"bytes","label":"string","numberOfBytes":"32"},"t_uint256":{"encoding":"inplace","label":"uint256","numberOfBytes":"32"},"t_uint8":{"encoding":"inplace","label":"uint8","numberOfBytes":"1"}}},"id":23}