{
    "abi": [
        {
            "type": "fallback",
            "stateMutability": "nonpayable"
        },
        {
            "type": "function",
            "name": "_update",
            "inputs": [
                {
                    "name": "from",
                    "type": "address",
                    "internalType": "address"
                },
                {
                    "name": "to",
                    "type": "address",
                    "internalType": "address"
                },
                {
                    "name": "amount",
                    "type": "uint256",
                    "internalType": "uint256"
                }
            ],
            "outputs": [],
            "stateMutability": "nonpayable"
        },
        {
            "type": "function",
            "name": "associateToken",
            "inputs": [
                {
                    "name": "account",
                    "type": "address",
                    "internalType": "address"
                },
                {
                    "name": "token",
                    "type": "address",
                    "internalType": "address"
                }
            ],
            "outputs": [
                {
                    "name": "responseCode",
                    "type": "int64",
                    "internalType": "int64"
                }
            ],
            "stateMutability": "nonpayable"
        },
        {
            "type": "function",
            "name": "associateTokens",
            "inputs": [
                {
                    "name": "account",
                    "type": "address",
                    "internalType": "address"
                },
                {
                    "name": "tokens",
                    "type": "address[]",
                    "internalType": "address[]"
                }
            ],
            "outputs": [
                {
                    "name": "responseCode",
                    "type": "int64",
                    "internalType": "int64"
                }
            ],
            "stateMutability": "nonpayable"
        },
        {
            "type": "function",
            "name": "burnToken",
            "inputs": [
                {
                    "name": "token",
                    "type": "address",
                    "internalType": "address"
                },
                {
                    "name": "amount",
                    "type": "int64",
                    "internalType": "int64"
                },
                {
                    "name": "",
                    "type": "int64[]",
                    "internalType": "int64[]"
                }
            ],
            "outputs": [
                {
                    "name": "responseCode",
                    "type": "int64",
                    "internalType": "int64"
                },
                {
                    "name": "newTotalSupply",
                    "type": "int64",
                    "internalType": "int64"
                }
            ],
            "stateMutability": "nonpayable"
        },
        {
            "type": "function",
            "name": "dissociateToken",
            "inputs": [
                {
                    "name": "account",
                    "type": "address",
                    "internalType": "address"
                },
                {
                    "name": "token",
                    "type": "address",
                    "internalType": "address"
                }
            ],
            "outputs": [
                {
                    "name": "responseCode",
                    "type": "int64",
                    "internalType": "int64"
                }
            ],
            "stateMutability": "nonpayable"
        },
        {
            "type": "function",
            "name": "dissociateTokens",
            "inputs": [
                {
                    "name": "account",
                    "type": "address",
                    "internalType": "address"
                },
                {
                    "name": "tokens",
                    "type": "address[]",
                    "internalType": "address[]"
                }
            ],
            "outputs": [
                {
                    "name": "responseCode",
                    "type": "int64",
                    "internalType": "int64"
                }
            ],
            "stateMutability": "nonpayable"
        },
        {
            "type": "function",
            "name": "getAccountId",
            "inputs": [
                {
                    "name": "account",
                    "type": "address",
                    "internalType": "address"
                }
            ],
            "outputs": [
                {
                    "name": "accountId",
                    "type": "uint32",
                    "internalType": "uint32"
                }
            ],
            "stateMutability": "view"
        },
        {
            "type": "function",
            "name": "getApproved",
            "inputs": [
                {
                    "name": "token",
                    "type": "address",
                    "internalType": "address"
                },
                {
                    "name": "serialNumber",
                    "type": "uint256",
                    "internalType": "uint256"
                }
            ],
            "outputs": [
                {
                    "name": "responseCode",
                    "type": "int64",
                    "internalType": "int64"
                },
                {
                    "name": "approved",
                    "type": "address",
                    "internalType": "address"
                }
            ],
            "stateMutability": "view"
        },
        {
            "type": "function",
            "name": "getFungibleTokenInfo",
            "inputs": [
                {
                    "name": "token",
                    "type": "address",
                    "internalType": "address"
                }
            ],
            "outputs": [
                {
                    "name": "",
                    "type": "int64",
                    "internalType": "int64"
                },
                {
                    "name": "",
                    "type": "tuple",
                    "internalType": "struct IHederaTokenService.FungibleTokenInfo",
                    "components": [
                        {
                            "name": "tokenInfo",
                            "type": "tuple",
                            "internalType": "struct IHederaTokenService.TokenInfo",
                            "components": [
                                {
                                    "name": "token",
                                    "type": "tuple",
                                    "internalType": "struct IHederaTokenService.HederaToken",
                                    "components": [
                                        {
                                            "name": "name",
                                            "type": "string",
                                            "internalType": "string"
                                        },
                                        {
                                            "name": "symbol",
                                            "type": "string",
                                            "internalType": "string"
                                        },
                                        {
                                            "name": "treasury",
                                            "type": "address",
                                            "internalType": "address"
                                        },
                                        {
                                            "name": "memo",
                                            "type": "string",
                                            "internalType": "string"
                                        },
                                        {
                                            "name": "tokenSupplyType",
                                            "type": "bool",
                                            "internalType": "bool"
                                        },
                                        {
                                            "name": "maxSupply",
                                            "type": "int64",
                                            "internalType": "int64"
                                        },
                                        {
                                            "name": "freezeDefault",
                                            "type": "bool",
                                            "internalType": "bool"
                                        },
                                        {
                                            "name": "tokenKeys",
                                            "type": "tuple[]",
                                            "internalType": "struct IHederaTokenService.TokenKey[]",
                                            "components": [
                                                {
                                                    "name": "keyType",
                                                    "type": "uint256",
                                                    "internalType": "uint256"
                                                },
                                                {
                                                    "name": "key",
                                                    "type": "tuple",
                                                    "internalType": "struct IHederaTokenService.KeyValue",
                                                    "components": [
                                                        {
                                                            "name": "inheritAccountKey",
                                                            "type": "bool",
                                                            "internalType": "bool"
                                                        },
                                                        {
                                                            "name": "contractId",
                                                            "type": "address",
                                                            "internalType": "address"
                                                        },
                                                        {
                                                            "name": "ed25519",
                                                            "type": "bytes",
                                                            "internalType": "bytes"
                                                        },
                                                        {
                                                            "name": "ECDSA_secp256k1",
                                                            "type": "bytes",
                                                            "internalType": "bytes"
                                                        },
                                                        {
                                                            "name": "delegatableContractId",
                                                            "type": "address",
                                                            "internalType": "address"
                                                        }
                                                    ]
                                                }
                                            ]
                                        },
                                        {
                                            "name": "expiry",
                                            "type": "tuple",
                                            "internalType": "struct IHederaTokenService.Expiry",
                                            "components": [
                                                {
                                                    "name": "second",
                                                    "type": "int64",
                                                    "internalType": "int64"
                                                },
                                                {
                                                    "name": "autoRenewAccount",
                                                    "type": "address",
                                                    "internalType": "address"
                                                },
                                                {
                                                    "name": "autoRenewPeriod",
                                                    "type": "int64",
                                                    "internalType": "int64"
                                                }
                                            ]
                                        }
                                    ]
                                },
                                {
                                    "name": "totalSupply",
                                    "type": "int64",
                                    "internalType": "int64"
                                },
                                {
                                    "name": "deleted",
                                    "type": "bool",
                                    "internalType": "bool"
                                },
                                {
                                    "name": "defaultKycStatus",
                                    "type": "bool",
                                    "internalType": "bool"
                                },
                                {
                                    "name": "pauseStatus",
                                    "type": "bool",
                                    "internalType": "bool"
                                },
                                {
                                    "name": "fixedFees",
                                    "type": "tuple[]",
                                    "internalType": "struct IHederaTokenService.FixedFee[]",
                                    "components": [
                                        {
                                            "name": "amount",
                                            "type": "int64",
                                            "internalType": "int64"
                                        },
                                        {
                                            "name": "tokenId",
                                            "type": "address",
                                            "internalType": "address"
                                        },
                                        {
                                            "name": "useHbarsForPayment",
                                            "type": "bool",
                                            "internalType": "bool"
                                        },
                                        {
                                            "name": "useCurrentTokenForPayment",
                                            "type": "bool",
                                            "internalType": "bool"
                                        },
                                        {
                                            "name": "feeCollector",
                                            "type": "address",
                                            "internalType": "address"
                                        }
                                    ]
                                },
                                {
                                    "name": "fractionalFees",
                                    "type": "tuple[]",
                                    "internalType": "struct IHederaTokenService.FractionalFee[]",
                                    "components": [
                                        {
                                            "name": "numerator",
                                            "type": "int64",
                                            "internalType": "int64"
                                        },
                                        {
                                            "name": "denominator",
                                            "type": "int64",
                                            "internalType": "int64"
                                        },
                                        {
                                            "name": "minimumAmount",
                                            "type": "int64",
                                            "internalType": "int64"
                                        },
                                        {
                                            "name": "maximumAmount",
                                            "type": "int64",
                                            "internalType": "int64"
                                        },
                                        {
                                            "name": "netOfTransfers",
                                            "type": "bool",
                                            "internalType": "bool"
                                        },
                                        {
                                            "name": "feeCollector",
                                            "type": "address",
                                            "internalType": "address"
                                        }
                                    ]
                                },
                                {
                                    "name": "royaltyFees",
                                    "type": "tuple[]",
                                    "internalType": "struct IHederaTokenService.RoyaltyFee[]",
                                    "components": [
                                        {
                                            "name": "numerator",
                                            "type": "int64",
                                            "internalType": "int64"
                                        },
                                        {
                                            "name": "denominator",
                                            "type": "int64",
                                            "internalType": "int64"
                                        },
                                        {
                                            "name": "amount",
                                            "type": "int64",
                                            "internalType": "int64"
                                        },
                                        {
                                            "name": "tokenId",
                                            "type": "address",
                                            "internalType": "address"
                                        },
                                        {
                                            "name": "useHbarsForPayment",
                                            "type": "bool",
                                            "internalType": "bool"
                                        },
                                        {
                                            "name": "feeCollector",
                                            "type": "address",
                                            "internalType": "address"
                                        }
                                    ]
                                },
                                {
                                    "name": "ledgerId",
                                    "type": "string",
                                    "internalType": "string"
                                }
                            ]
                        },
                        {
                            "name": "decimals",
                            "type": "int32",
                            "internalType": "int32"
                        }
                    ]
                }
            ],
            "stateMutability": "nonpayable"
        },
        {
            "type": "function",
            "name": "getNonFungibleTokenInfo",
            "inputs": [
                {
                    "name": "token",
                    "type": "address",
                    "internalType": "address"
                },
                {
                    "name": "serialNumber",
                    "type": "int64",
                    "internalType": "int64"
                }
            ],
            "outputs": [
                {
                    "name": "",
                    "type": "int64",
                    "internalType": "int64"
                },
                {
                    "name": "",
                    "type": "tuple",
                    "internalType": "struct IHederaTokenService.NonFungibleTokenInfo",
                    "components": [
                        {
                            "name": "tokenInfo",
                            "type": "tuple",
                            "internalType": "struct IHederaTokenService.TokenInfo",
                            "components": [
                                {
                                    "name": "token",
                                    "type": "tuple",
                                    "internalType": "struct IHederaTokenService.HederaToken",
                                    "components": [
                                        {
                                            "name": "name",
                                            "type": "string",
                                            "internalType": "string"
                                        },
                                        {
                                            "name": "symbol",
                                            "type": "string",
                                            "internalType": "string"
                                        },
                                        {
                                            "name": "treasury",
                                            "type": "address",
                                            "internalType": "address"
                                        },
                                        {
                                            "name": "memo",
                                            "type": "string",
                                            "internalType": "string"
                                        },
                                        {
                                            "name": "tokenSupplyType",
                                            "type": "bool",
                                            "internalType": "bool"
                                        },
                                        {
                                            "name": "maxSupply",
                                            "type": "int64",
                                            "internalType": "int64"
                                        },
                                        {
                                            "name": "freezeDefault",
                                            "type": "bool",
                                            "internalType": "bool"
                                        },
                                        {
                                            "name": "tokenKeys",
                                            "type": "tuple[]",
                                            "internalType": "struct IHederaTokenService.TokenKey[]",
                                            "components": [
                                                {
                                                    "name": "keyType",
                                                    "type": "uint256",
                                                    "internalType": "uint256"
                                                },
                                                {
                                                    "name": "key",
                                                    "type": "tuple",
                                                    "internalType": "struct IHederaTokenService.KeyValue",
                                                    "components": [
                                                        {
                                                            "name": "inheritAccountKey",
                                                            "type": "bool",
                                                            "internalType": "bool"
                                                        },
                                                        {
                                                            "name": "contractId",
                                                            "type": "address",
                                                            "internalType": "address"
                                                        },
                                                        {
                                                            "name": "ed25519",
                                                            "type": "bytes",
                                                            "internalType": "bytes"
                                                        },
                                                        {
                                                            "name": "ECDSA_secp256k1",
                                                            "type": "bytes",
                                                            "internalType": "bytes"
                                                        },
                                                        {
                                                            "name": "delegatableContractId",
                                                            "type": "address",
                                                            "internalType": "address"
                                                        }
                                                    ]
                                                }
                                            ]
                                        },
                                        {
                                            "name": "expiry",
                                            "type": "tuple",
                                            "internalType": "struct IHederaTokenService.Expiry",
                                            "components": [
                                                {
                                                    "name": "second",
                                                    "type": "int64",
                                                    "internalType": "int64"
                                                },
                                                {
                                                    "name": "autoRenewAccount",
                                                    "type": "address",
                                                    "internalType": "address"
                                                },
                                                {
                                                    "name": "autoRenewPeriod",
                                                    "type": "int64",
                                                    "internalType": "int64"
                                                }
                                            ]
                                        }
                                    ]
                                },
                                {
                                    "name": "totalSupply",
                                    "type": "int64",
                                    "internalType": "int64"
                                },
                                {
                                    "name": "deleted",
                                    "type": "bool",
                                    "internalType": "bool"
                                },
                                {
                                    "name": "defaultKycStatus",
                                    "type": "bool",
                                    "internalType": "bool"
                                },
                                {
                                    "name": "pauseStatus",
                                    "type": "bool",
                                    "internalType": "bool"
                                },
                                {
                                    "name": "fixedFees",
                                    "type": "tuple[]",
                                    "internalType": "struct IHederaTokenService.FixedFee[]",
                                    "components": [
                                        {
                                            "name": "amount",
                                            "type": "int64",
                                            "internalType": "int64"
                                        },
                                        {
                                            "name": "tokenId",
                                            "type": "address",
                                            "internalType": "address"
                                        },
                                        {
                                            "name": "useHbarsForPayment",
                                            "type": "bool",
                                            "internalType": "bool"
                                        },
                                        {
                                            "name": "useCurrentTokenForPayment",
                                            "type": "bool",
                                            "internalType": "bool"
                                        },
                                        {
                                            "name": "feeCollector",
                                            "type": "address",
                                            "internalType": "address"
                                        }
                                    ]
                                },
                                {
                                    "name": "fractionalFees",
                                    "type": "tuple[]",
                                    "internalType": "struct IHederaTokenService.FractionalFee[]",
                                    "components": [
                                        {
                                            "name": "numerator",
                                            "type": "int64",
                                            "internalType": "int64"
                                        },
                                        {
                                            "name": "denominator",
                                            "type": "int64",
                                            "internalType": "int64"
                                        },
                                        {
                                            "name": "minimumAmount",
                                            "type": "int64",
                                            "internalType": "int64"
                                        },
                                        {
                                            "name": "maximumAmount",
                                            "type": "int64",
                                            "internalType": "int64"
                                        },
                                        {
                                            "name": "netOfTransfers",
                                            "type": "bool",
                                            "internalType": "bool"
                                        },
                                        {
                                            "name": "feeCollector",
                                            "type": "address",
                                            "internalType": "address"
                                        }
                                    ]
                                },
                                {
                                    "name": "royaltyFees",
                                    "type": "tuple[]",
                                    "internalType": "struct IHederaTokenService.RoyaltyFee[]",
                                    "components": [
                                        {
                                            "name": "numerator",
                                            "type": "int64",
                                            "internalType": "int64"
                                        },
                                        {
                                            "name": "denominator",
                                            "type": "int64",
                                            "internalType": "int64"
                                        },
                                        {
                                            "name": "amount",
                                            "type": "int64",
                                            "internalType": "int64"
                                        },
                                        {
                                            "name": "tokenId",
                                            "type": "address",
                                            "internalType": "address"
                                        },
                                        {
                                            "name": "useHbarsForPayment",
                                            "type": "bool",
                                            "internalType": "bool"
                                        },
                                        {
                                            "name": "feeCollector",
                                            "type": "address",
                                            "internalType": "address"
                                        }
                                    ]
                                },
                                {
                                    "name": "ledgerId",
                                    "type": "string",
                                    "internalType": "string"
                                }
                            ]
                        },
                        {
                            "name": "serialNumber",
                            "type": "int64",
                            "internalType": "int64"
                        },
                        {
                            "name": "ownerId",
                            "type": "address",
                            "internalType": "address"
                        },
                        {
                            "name": "creationTime",
                            "type": "int64",
                            "internalType": "int64"
                        },
                        {
                            "name": "metadata",
                            "type": "bytes",
                            "internalType": "bytes"
                        },
                        {
                            "name": "spenderId",
                            "type": "address",
                            "internalType": "address"
                        }
                    ]
                }
            ],
            "stateMutability": "nonpayable"
        },
        {
            "type": "function",
            "name": "getTokenCustomFees",
            "inputs": [
                {
                    "name": "token",
                    "type": "address",
                    "internalType": "address"
                }
            ],
            "outputs": [
                {
                    "name": "",
                    "type": "int64",
                    "internalType": "int64"
                },
                {
                    "name": "",
                    "type": "tuple[]",
                    "internalType": "struct IHederaTokenService.FixedFee[]",
                    "components": [
                        {
                            "name": "amount",
                            "type": "int64",
                            "internalType": "int64"
                        },
                        {
                            "name": "tokenId",
                            "type": "address",
                            "internalType": "address"
                        },
                        {
                            "name": "useHbarsForPayment",
                            "type": "bool",
                            "internalType": "bool"
                        },
                        {
                            "name": "useCurrentTokenForPayment",
                            "type": "bool",
                            "internalType": "bool"
                        },
                        {
                            "name": "feeCollector",
                            "type": "address",
                            "internalType": "address"
                        }
                    ]
                },
                {
                    "name": "",
                    "type": "tuple[]",
                    "internalType": "struct IHederaTokenService.FractionalFee[]",
                    "components": [
                        {
                            "name": "numerator",
                            "type": "int64",
                            "internalType": "int64"
                        },
                        {
                            "name": "denominator",
                            "type": "int64",
                            "internalType": "int64"
                        },
                        {
                            "name": "minimumAmount",
                            "type": "int64",
                            "internalType": "int64"
                        },
                        {
                            "name": "maximumAmount",
                            "type": "int64",
                            "internalType": "int64"
                        },
                        {
                            "name": "netOfTransfers",
                            "type": "bool",
                            "internalType": "bool"
                        },
                        {
                            "name": "feeCollector",
                            "type": "address",
                            "internalType": "address"
                        }
                    ]
                },
                {
                    "name": "",
                    "type": "tuple[]",
                    "internalType": "struct IHederaTokenService.RoyaltyFee[]",
                    "components": [
                        {
                            "name": "numerator",
                            "type": "int64",
                            "internalType": "int64"
                        },
                        {
                            "name": "denominator",
                            "type": "int64",
                            "internalType": "int64"
                        },
                        {
                            "name": "amount",
                            "type": "int64",
                            "internalType": "int64"
                        },
                        {
                            "name": "tokenId",
                            "type": "address",
                            "internalType": "address"
                        },
                        {
                            "name": "useHbarsForPayment",
                            "type": "bool",
                            "internalType": "bool"
                        },
                        {
                            "name": "feeCollector",
                            "type": "address",
                            "internalType": "address"
                        }
                    ]
                }
            ],
            "stateMutability": "nonpayable"
        },
        {
            "type": "function",
            "name": "getTokenDefaultFreezeStatus",
            "inputs": [
                {
                    "name": "token",
                    "type": "address",
                    "internalType": "address"
                }
            ],
            "outputs": [
                {
                    "name": "",
                    "type": "int64",
                    "internalType": "int64"
                },
                {
                    "name": "",
                    "type": "bool",
                    "internalType": "bool"
                }
            ],
            "stateMutability": "nonpayable"
        },
        {
            "type": "function",
            "name": "getTokenDefaultKycStatus",
            "inputs": [
                {
                    "name": "token",
                    "type": "address",
                    "internalType": "address"
                }
            ],
            "outputs": [
                {
                    "name": "",
                    "type": "int64",
                    "internalType": "int64"
                },
                {
                    "name": "",
                    "type": "bool",
                    "internalType": "bool"
                }
            ],
            "stateMutability": "nonpayable"
        },
        {
            "type": "function",
            "name": "getTokenExpiryInfo",
            "inputs": [
                {
                    "name": "token",
                    "type": "address",
                    "internalType": "address"
                }
            ],
            "outputs": [
                {
                    "name": "responseCode",
                    "type": "int64",
                    "internalType": "int64"
                },
                {
                    "name": "tokenInfo",
                    "type": "tuple",
                    "internalType": "struct IHederaTokenService.Expiry",
                    "components": [
                        {
                            "name": "second",
                            "type": "int64",
                            "internalType": "int64"
                        },
                        {
                            "name": "autoRenewAccount",
                            "type": "address",
                            "internalType": "address"
                        },
                        {
                            "name": "autoRenewPeriod",
                            "type": "int64",
                            "internalType": "int64"
                        }
                    ]
                }
            ],
            "stateMutability": "nonpayable"
        },
        {
            "type": "function",
            "name": "getTokenInfo",
            "inputs": [
                {
                    "name": "token",
                    "type": "address",
                    "internalType": "address"
                }
            ],
            "outputs": [
                {
                    "name": "responseCode",
                    "type": "int64",
                    "internalType": "int64"
                },
                {
                    "name": "tokenInfo",
                    "type": "tuple",
                    "internalType": "struct IHederaTokenService.TokenInfo",
                    "components": [
                        {
                            "name": "token",
                            "type": "tuple",
                            "internalType": "struct IHederaTokenService.HederaToken",
                            "components": [
                                {
                                    "name": "name",
                                    "type": "string",
                                    "internalType": "string"
                                },
                                {
                                    "name": "symbol",
                                    "type": "string",
                                    "internalType": "string"
                                },
                                {
                                    "name": "treasury",
                                    "type": "address",
                                    "internalType": "address"
                                },
                                {
                                    "name": "memo",
                                    "type": "string",
                                    "internalType": "string"
                                },
                                {
                                    "name": "tokenSupplyType",
                                    "type": "bool",
                                    "internalType": "bool"
                                },
                                {
                                    "name": "maxSupply",
                                    "type": "int64",
                                    "internalType": "int64"
                                },
                                {
                                    "name": "freezeDefault",
                                    "type": "bool",
                                    "internalType": "bool"
                                },
                                {
                                    "name": "tokenKeys",
                                    "type": "tuple[]",
                                    "internalType": "struct IHederaTokenService.TokenKey[]",
                                    "components": [
                                        {
                                            "name": "keyType",
                                            "type": "uint256",
                                            "internalType": "uint256"
                                        },
                                        {
                                            "name": "key",
                                            "type": "tuple",
                                            "internalType": "struct IHederaTokenService.KeyValue",
                                            "components": [
                                                {
                                                    "name": "inheritAccountKey",
                                                    "type": "bool",
                                                    "internalType": "bool"
                                                },
                                                {
                                                    "name": "contractId",
                                                    "type": "address",
                                                    "internalType": "address"
                                                },
                                                {
                                                    "name": "ed25519",
                                                    "type": "bytes",
                                                    "internalType": "bytes"
                                                },
                                                {
                                                    "name": "ECDSA_secp256k1",
                                                    "type": "bytes",
                                                    "internalType": "bytes"
                                                },
                                                {
                                                    "name": "delegatableContractId",
                                                    "type": "address",
                                                    "internalType": "address"
                                                }
                                            ]
                                        }
                                    ]
                                },
                                {
                                    "name": "expiry",
                                    "type": "tuple",
                                    "internalType": "struct IHederaTokenService.Expiry",
                                    "components": [
                                        {
                                            "name": "second",
                                            "type": "int64",
                                            "internalType": "int64"
                                        },
                                        {
                                            "name": "autoRenewAccount",
                                            "type": "address",
                                            "internalType": "address"
                                        },
                                        {
                                            "name": "autoRenewPeriod",
                                            "type": "int64",
                                            "internalType": "int64"
                                        }
                                    ]
                                }
                            ]
                        },
                        {
                            "name": "totalSupply",
                            "type": "int64",
                            "internalType": "int64"
                        },
                        {
                            "name": "deleted",
                            "type": "bool",
                            "internalType": "bool"
                        },
                        {
                            "name": "defaultKycStatus",
                            "type": "bool",
                            "internalType": "bool"
                        },
                        {
                            "name": "pauseStatus",
                            "type": "bool",
                            "internalType": "bool"
                        },
                        {
                            "name": "fixedFees",
                            "type": "tuple[]",
                            "internalType": "struct IHederaTokenService.FixedFee[]",
                            "components": [
                                {
                                    "name": "amount",
                                    "type": "int64",
                                    "internalType": "int64"
                                },
                                {
                                    "name": "tokenId",
                                    "type": "address",
                                    "internalType": "address"
                                },
                                {
                                    "name": "useHbarsForPayment",
                                    "type": "bool",
                                    "internalType": "bool"
                                },
                                {
                                    "name": "useCurrentTokenForPayment",
                                    "type": "bool",
                                    "internalType": "bool"
                                },
                                {
                                    "name": "feeCollector",
                                    "type": "address",
                                    "internalType": "address"
                                }
                            ]
                        },
                        {
                            "name": "fractionalFees",
                            "type": "tuple[]",
                            "internalType": "struct IHederaTokenService.FractionalFee[]",
                            "components": [
                                {
                                    "name": "numerator",
                                    "type": "int64",
                                    "internalType": "int64"
                                },
                                {
                                    "name": "denominator",
                                    "type": "int64",
                                    "internalType": "int64"
                                },
                                {
                                    "name": "minimumAmount",
                                    "type": "int64",
                                    "internalType": "int64"
                                },
                                {
                                    "name": "maximumAmount",
                                    "type": "int64",
                                    "internalType": "int64"
                                },
                                {
                                    "name": "netOfTransfers",
                                    "type": "bool",
                                    "internalType": "bool"
                                },
                                {
                                    "name": "feeCollector",
                                    "type": "address",
                                    "internalType": "address"
                                }
                            ]
                        },
                        {
                            "name": "royaltyFees",
                            "type": "tuple[]",
                            "internalType": "struct IHederaTokenService.RoyaltyFee[]",
                            "components": [
                                {
                                    "name": "numerator",
                                    "type": "int64",
                                    "internalType": "int64"
                                },
                                {
                                    "name": "denominator",
                                    "type": "int64",
                                    "internalType": "int64"
                                },
                                {
                                    "name": "amount",
                                    "type": "int64",
                                    "internalType": "int64"
                                },
                                {
                                    "name": "tokenId",
                                    "type": "address",
                                    "internalType": "address"
                                },
                                {
                                    "name": "useHbarsForPayment",
                                    "type": "bool",
                                    "internalType": "bool"
                                },
                                {
                                    "name": "feeCollector",
                                    "type": "address",
                                    "internalType": "address"
                                }
                            ]
                        },
                        {
                            "name": "ledgerId",
                            "type": "string",
                            "internalType": "string"
                        }
                    ]
                }
            ],
            "stateMutability": "nonpayable"
        },
        {
            "type": "function",
            "name": "getTokenKey",
            "inputs": [
                {
                    "name": "token",
                    "type": "address",
                    "internalType": "address"
                },
                {
                    "name": "keyType",
                    "type": "uint256",
                    "internalType": "uint256"
                }
            ],
            "outputs": [
                {
                    "name": "",
                    "type": "int64",
                    "internalType": "int64"
                },
                {
                    "name": "",
                    "type": "tuple",
                    "internalType": "struct IHederaTokenService.KeyValue",
                    "components": [
                        {
                            "name": "inheritAccountKey",
                            "type": "bool",
                            "internalType": "bool"
                        },
                        {
                            "name": "contractId",
                            "type": "address",
                            "internalType": "address"
                        },
                        {
                            "name": "ed25519",
                            "type": "bytes",
                            "internalType": "bytes"
                        },
                        {
                            "name": "ECDSA_secp256k1",
                            "type": "bytes",
                            "internalType": "bytes"
                        },
                        {
                            "name": "delegatableContractId",
                            "type": "address",
                            "internalType": "address"
                        }
                    ]
                }
            ],
            "stateMutability": "nonpayable"
        },
        {
            "type": "function",
            "name": "getTokenType",
            "inputs": [
                {
                    "name": "token",
                    "type": "address",
                    "internalType": "address"
                }
            ],
            "outputs": [
                {
                    "name": "",
                    "type": "int64",
                    "internalType": "int64"
                },
                {
                    "name": "",
                    "type": "int32",
                    "internalType": "int32"
                }
            ],
            "stateMutability": "nonpayable"
        },
        {
            "type": "function",
            "name": "isApprovedForAll",
            "inputs": [
                {
                    "name": "token",
                    "type": "address",
                    "internalType": "address"
                },
                {
                    "name": "owner",
                    "type": "address",
                    "internalType": "address"
                },
                {
                    "name": "operator",
                    "type": "address",
                    "internalType": "address"
                }
            ],
            "outputs": [
                {
                    "name": "",
                    "type": "int64",
                    "internalType": "int64"
                },
                {
                    "name": "",
                    "type": "bool",
                    "internalType": "bool"
                }
            ],
            "stateMutability": "view"
        },
        {
            "type": "function",
            "name": "isToken",
            "inputs": [
                {
                    "name": "token",
                    "type": "address",
                    "internalType": "address"
                }
            ],
            "outputs": [
                {
                    "name": "",
                    "type": "int64",
                    "internalType": "int64"
                },
                {
                    "name": "",
                    "type": "bool",
                    "internalType": "bool"
                }
            ],
            "stateMutability": "nonpayable"
        },
        {
            "type": "function",
            "name": "mintToken",
            "inputs": [
                {
                    "name": "token",
                    "type": "address",
                    "internalType": "address"
                },
                {
                    "name": "amount",
                    "type": "int64",
                    "internalType": "int64"
                },
                {
                    "name": "",
                    "type": "bytes[]",
                    "internalType": "bytes[]"
                }
            ],
            "outputs": [
                {
                    "name": "responseCode",
                    "type": "int64",
                    "internalType": "int64"
                },
                {
                    "name": "newTotalSupply",
                    "type": "int64",
                    "internalType": "int64"
                },
                {
                    "name": "serialNumbers",
                    "type": "int64[]",
                    "internalType": "int64[]"
                }
            ],
            "stateMutability": "nonpayable"
        },
        {
            "type": "event",
            "name": "Approval",
            "inputs": [
                {
                    "name": "owner",
                    "type": "address",
                    "indexed": true,
                    "internalType": "address"
                },
                {
                    "name": "spender",
                    "type": "address",
                    "indexed": true,
                    "internalType": "address"
                },
                {
                    "name": "amount",
                    "type": "uint256",
                    "indexed": false,
                    "internalType": "uint256"
                }
            ],
            "anonymous": false
        },
        {
            "type": "event",
            "name": "ApprovalForAll",
            "inputs": [
                {
                    "name": "owner",
                    "type": "address",
                    "indexed": true,
                    "internalType": "address"
                },
                {
                    "name": "operator",
                    "type": "address",
                    "indexed": true,
                    "internalType": "address"
                },
                {
                    "name": "approved",
                    "type": "bool",
                    "indexed": false,
                    "internalType": "bool"
                }
            ],
            "anonymous": false
        },
        {
            "type": "event",
            "name": "Transfer",
            "inputs": [
                {
                    "name": "from",
                    "type": "address",
                    "indexed": true,
                    "internalType": "address"
                },
                {
                    "name": "to",
                    "type": "address",
                    "indexed": true,
                    "internalType": "address"
                },
                {
                    "name": "amount",
                    "type": "uint256",
                    "indexed": false,
                    "internalType": "uint256"
                }
            ],
            "anonymous": false
        }
    ],
    "bytecode": {
        "object": "0x6080604052348015600e575f80fd5b50615cc68061001c5f395ff3fe608060405234801561000f575f80fd5b506004361061012a575f3560e01c806349146bde116100ab578063d614cdb81161006f578063d614cdb81461044d578063d6910d061461046e578063e0b490f71461049b578063e0f4059a146104c3578063f49f40db146104e55761012a565b806349146bde146103c157806378b63918146103d457806393272baf146103e7578063a7daa18d14610417578063ae7611a01461042a5761012a565b8063287e1da8116100f2578063287e1da8146103385780632e63879b14610359578063335e04c11461036c5780633c4dd32e1461037f5780633f28a19b146103a05761012a565b8063098f236614610275578063099794e8146102af5780630bb3bfa8146102d557806319f37361146102ea5780631f69565f14610317575b5f366060601c8210156101845760405162461bcd60e51b815260206004820152601d60248201527f66616c6c6261636b3a206e6f7420656e6f7567682063616c6c6461746100000060448201526064015b60405180910390fd5b5f6101926004823681614071565b61019b91614098565b60e01c905063618dc65e81146101f35760405162461bcd60e51b815260206004820152601e60248201527f66616c6c6261636b3a20756e737570706f727465642073656c6563746f720000604482015260640161017b565b5f610202601860043684614071565b61020b916140d0565b60601c905030811461025f5760405162461bcd60e51b815260206004820152601d60248201527f66616c6c6261636b3a20746f6b656e206973206e6f742063616c6c6572000000604482015260640161017b565b6102676104f8565b805195506020019350505050f35b61028861028336600461411d565b610c5e565b6040805160079390930b83526001600160a01b039091166020830152015b60405180910390f35b6102c26102bd366004614147565b610d4c565b60405160079190910b81526020016102a6565b6102e86102e336600461417e565b610dd6565b005b6102fd6102f83660046141bc565b610eb4565b6040805160079390930b83529015156020830152016102a6565b61032a6103253660046141bc565b610f75565b6040516102a692919061463e565b61034b610346366004614667565b611069565b6040516102a6929190614693565b6102c2610367366004614819565b6112f1565b6102fd61037a3660046141bc565b611548565b61039261038d36600461411d565b611644565b6040516102a69291906148cc565b6103b36103ae3660046141bc565b611823565b6040516102a69291906148e7565b6102c26103cf366004614147565b611a0f565b6102c26103e2366004614819565b611a8f565b6103fa6103f53660046141bc565b611d24565b6040805160079390930b835260039190910b6020830152016102a6565b6102fd6104253660046141bc565b611e04565b61043d6104383660046141bc565b611ebf565b6040516102a69493929190614924565b61046061045b3660046141bc565b611fbe565b6040516102a6929190614965565b61048161047c3660046149a1565b6120c2565b60408051600793840b81529190920b6020820152016102a6565b6104ae6104a93660046141bc565b6123e9565b60405163ffffffff90911681526020016102a6565b6104d66104d1366004614a86565b612463565b6040516102a693929190614b9b565b6102fd6104f3366004614bf8565b6127a0565b60605f610509601c60183684614071565b61051291614098565b905060408051808201825260098152681393d517d193d5539160ba1b602090910152517f7bafae6429a8b3ef0db181af7c5834a6f2b1af33146a1a9ae02e833d27f2431b90610562905f90614ce6565b6040518091039020036105c15760405162461bcd60e51b815260206004820152602160248201527f7265646972656374466f72546f6b656e3a20746f6b656e206e6f7420666f756e6044820152601960fa1b606482015260840161017b565b610166193301610b255763e096a9a160e01b6001600160e01b031982160161066857601c36101561063e5760405162461bcd60e51b815260206004820152602160248201527f676574546f6b656e496e666f3a204e6f7420656e6f7567682063616c6c6461746044820152606160f81b606482015260840161017b565b601660056040516020016106539291906150a9565b60405160208183030381529060405291505090565b63028c4f7360e51b6001600160e01b03198216016106fc57601c3610156106e15760405162461bcd60e51b815260206004820152602760248201527f676574546f6b656e437573746f6d466565733a204e6f7420656e6f7567682063604482015266616c6c6461746160c81b606482015260840161017b565b60405161065390601690600e90600f90601090602001615186565b63cca1fb3f60e01b6001600160e01b03198216016107a257601c36101561077b5760405162461bcd60e51b815260206004820152602d60248201527f676574546f6b656e44656661756c744b79635374617475733a204e6f7420656e60448201526c6f7567682063616c6c6461746160981b606482015260840161017b565b600d546040805160166020820152600160481b90920460ff16151590820152606001610653565b6358255e7360e01b6001600160e01b031982160161084b57601c3610156108245760405162461bcd60e51b815260206004820152603060248201527f676574546f6b656e44656661756c74467265657a655374617475733a204e6f7460448201526f20656e6f7567682063616c6c6461746160801b606482015260840161017b565b6009546040805160166020820152600160481b90920460ff16151590820152606001610653565b63053d664960e31b6001600160e01b03198216016108d957601c3610156108c45760405162461bcd60e51b815260206004820152602760248201527f676574546f6b656e457870697279496e666f3a204e6f7420656e6f7567682063604482015266616c6c6461746160c81b606482015260840161017b565b60405161065390601690600b906020016151c7565b636cd8d45160e01b6001600160e01b0319821601610a3957601c36101561094c5760405162461bcd60e51b815260206004820152602160248201527f676574546f6b656e547970653a204e6f7420656e6f7567682063616c6c6461746044820152606160f81b606482015260840161017b565b7f20081d23699eb901ca16307080f9b35e7967740755a921f749a9e037b0875c755f60405160200161097e9190614ce6565b60405160208183030381529060405280519060200120036109b45760408051601660208201525f91810191909152606001610653565b7f6c58a12b113a1ee77f554495d8bd48a419af104bca196099cdecc39fcb8989f05f6040516020016109e69190614ce6565b6040516020818303038152906040528051906020012003610a1d576040805160166020820152600191810191909152606001610653565b60408051601660208201525f1991810191909152606001610653565b631e89880b60e31b6001600160e01b0319821601610b2557607c361015610aa25760405162461bcd60e51b815260206004820152601b60248201527f7570646174653a204e6f7420656e6f7567682063616c6c646174610000000000604482015260640161017b565b5f610ab1603c60283684614071565b610aba916140d0565b60601c90505f610ace605c60483684614071565b610ad7916140d0565b60601c90505f610aeb607c605c3684614071565b610af491615203565b9050610b01838383610dd6565b60408051600160208201520160405160208183030381529060405294505050505090565b604080518082018252600f81526e232aa723a4a12622afa1a7a6a6a7a760891b602090910152517f20081d23699eb901ca16307080f9b35e7967740755a921f749a9e037b0875c7590610b79905f90614ce6565b604051809103902003610b9557610b8f81612899565b91505090565b60408051808201825260138152724e4f4e5f46554e4749424c455f554e4951554560681b602090910152517f6c58a12b113a1ee77f554495d8bd48a419af104bca196099cdecc39fcb8989f090610bed905f90614ce6565b604051809103902003610c0357610b8f81612dcf565b60405162461bcd60e51b815260206004820152602a60248201527f7265646972656374466f72546f6b656e3a20746f6b656e2074797065206e6f74604482015269081cdd5c1c1bdc9d195960b21b606482015260840161017b565b5f803061016714610c815760405162461bcd60e51b815260040161017b90615220565b6001600160a01b038416610cd75760405162461bcd60e51b815260206004820152601a60248201527f676574417070726f7665643a20696e76616c696420746f6b656e000000000000604482015260640161017b565b60405163020604bf60e21b8152600481018490526016906001600160a01b0386169063081812fc90602401602060405180830381865afa158015610d1d573d5f803e3d5ffd5b505050506040513d601f19601f82011682018060405250810190610d419190615267565b909590945092505050565b5f3061016714610d6e5760405162461bcd60e51b815260040161017b90615220565b6040805160018082528183019092525f916020808301908036833701905050905082815f81518110610da257610da2615282565b60200260200101906001600160a01b031690816001600160a01b031681525050610dcc8482611a8f565b9150505b92915050565b6001600160a01b038316610e00578060045f828254610df591906152aa565b90915550610e659050565b5f610e0a846133a1565b805490915082811015610e5f5760405162461bcd60e51b815260206004820152601f60248201527f5f7472616e736665723a20696e73756666696369656e742062616c616e636500604482015260640161017b565b82900390555b6001600160a01b038216610e8f578060045f828254610e8491906152bd565b90915550610eaf9050565b5f610e99836133a1565b80549091505f610ea984836152aa565b90925550505b505050565b6040516001600160a01b03821660248201525f908190819060440160408051601f198184030181529181526020820180516001600160e01b03166393272baf60e01b179052519091505f9081906001600160a01b03871690610f179085906152d0565b5f604051808303815f865af19150503d805f8114610f50576040519150601f19603f3d011682016040523d82523d5f602084013e610f55565b606091505b50915091506016828015610f6957505f8251115b94509450505050915091565b5f610f7e613f26565b3061016714610f9f5760405162461bcd60e51b815260040161017b90615220565b6001600160a01b038316610ff55760405162461bcd60e51b815260206004820152601b60248201527f676574546f6b656e496e666f3a20696e76616c696420746f6b656e0000000000604482015260640161017b565b604051631f69565f60e01b81526001600160a01b0384166004820181905290631f69565f906024015f604051808303815f875af1158015611038573d5f803e3d5ffd5b505050506040513d5f823e601f3d908101601f1916820160405261105f91908101906158c3565b9094909350915050565b5f611072613fd8565b30610167146110935760405162461bcd60e51b815260040161017b90615220565b6001600160a01b0384166110f85760405162461bcd60e51b815260206004820152602660248201527f6765744e6f6e46756e6769626c65546f6b656e496e666f3a20696e76616c6964604482015265103a37b5b2b760d11b606482015260840161017b565b604051631f69565f60e01b81526001600160a01b038516600482018190525f91829190631f69565f906024015f604051808303815f875af115801561113f573d5f803e3d5ffd5b505050506040513d5f823e601f3d908101601f1916820160405261116691908101906158c3565b915091508160070b6002146111d75760405162461bcd60e51b815260206004820152603160248201527f6765744e6f6e46756e6769626c65546f6b656e496e666f3a206661696c656420604482015270746f2067657420746f6b656e206461746160781b606482015260840161017b565b6111df613fd8565b818152600786900b602082015260405163020604bf60e21b81526001600160401b03871660048201526001600160a01b0388169063081812fc90602401602060405180830381865afa158015611237573d5f803e3d5ffd5b505050506040513d601f19601f8201168201806040525081019061125b9190615267565b6001600160a01b0390811660a08301526040516331a9108f60e11b81526001600160401b038816600482015290881690636352211e90602401602060405180830381865afa1580156112af573d5f803e3d5ffd5b505050506040513d601f19601f820116820180604052508101906112d39190615267565b6001600160a01b0316604082015260169450925050505b9250929050565b5f30610167146113135760405162461bcd60e51b815260040161017b90615220565b5f8251116113635760405162461bcd60e51b815260206004820152601f60248201527f6173736f6369617465546f6b656e733a206d697373696e6720746f6b656e7300604482015260640161017b565b6001600160a01b03831633146114165760405162461bcd60e51b815260206004820152606660248201527f6173736f6369617465546f6b656e733a204d757374206265207369676e65642060448201527f6279207468652070726f7669646564204163636f756e742773206b6579206f7260648201527f2063616c6c65642066726f6d20746865206163636f756e747320636f6e7472616084820152656374206b657960d01b60a482015260c40161017b565b5f5b825181101561153e575f6001600160a01b031683828151811061143d5761143d615282565b60200260200101516001600160a01b03160361149b5760405162461bcd60e51b815260206004820152601e60248201527f6173736f6369617465546f6b656e733a20696e76616c696420746f6b656e0000604482015260640161017b565b8281815181106114ad576114ad615282565b602090810291909101810151604080516004815260248101825292830180516001600160e01b031663053aa6f360e11b179052516001600160a01b03909116916114f6916152d0565b5f60405180830381855af49150503d805f811461152e576040519150601f19603f3d011682016040523d82523d5f602084013e611533565b606091505b505050600101611418565b5060169392505050565b5f80306101671461156b5760405162461bcd60e51b815260040161017b90615220565b6001600160a01b0383166115d35760405162461bcd60e51b815260206004820152602960248201527f676574546f6b656e44656661756c744b79635374617475733a20696e76616c6960448201526864206164647265737360b81b606482015260840161017b565b60405163335e04c160e01b81526001600160a01b038416600482018190529063335e04c1906024015b60408051808303815f875af1158015611617573d5f803e3d5ffd5b505050506040513d601f19601f8201168201806040525081019061163b9190615a32565b91509150915091565b5f61164d614012565b306101671461166e5760405162461bcd60e51b815260040161017b90615220565b6001600160a01b0384166116c45760405162461bcd60e51b815260206004820152601a60248201527f676574546f6b656e4b65793a20696e76616c696420746f6b656e000000000000604482015260640161017b565b604051631f69565f60e01b81526001600160a01b038516600482018190525f91829190631f69565f906024015f604051808303815f875af115801561170b573d5f803e3d5ffd5b505050506040513d5f823e601f3d908101601f1916820160405261173291908101906158c3565b915091508160070b6016146117975760405162461bcd60e51b815260206004820152602560248201527f676574546f6b656e4b65793a206661696c656420746f2067657420746f6b656e604482015264206461746160d81b606482015260840161017b565b5f5b815160e001515181101561180c5785825f015160e0015182815181106117c1576117c1615282565b60200260200101515f015103611804576016825f015160e0015182815181106117ec576117ec615282565b602002602001015160200151945094505050506112ea565b600101611799565b50611815614012565b601697909650945050505050565b5f61182c614052565b306101671461184d5760405162461bcd60e51b815260040161017b90615220565b6001600160a01b0383166118af5760405162461bcd60e51b815260206004820152602360248201527f67657446756e6769626c65546f6b656e496e666f3a20696e76616c696420746f60448201526235b2b760e91b606482015260840161017b565b604051631f69565f60e01b81526001600160a01b038416600482018190525f91829190631f69565f906024015f604051808303815f875af11580156118f6573d5f803e3d5ffd5b505050506040513d5f823e601f3d908101601f1916820160405261191d91908101906158c3565b915091508160070b60021461198b5760405162461bcd60e51b815260206004820152602e60248201527f67657446756e6769626c65546f6b656e496e666f3a206661696c656420746f2060448201526d67657420746f6b656e206461746160901b606482015260840161017b565b611993614052565b81815f0181905250856001600160a01b031663313ce5676040518163ffffffff1660e01b8152600401602060405180830381865afa1580156119d7573d5f803e3d5ffd5b505050506040513d601f19601f820116820180604052508101906119fb9190615a65565b5f0b60208201526016945092505050915091565b5f3061016714611a315760405162461bcd60e51b815260040161017b90615220565b6040805160018082528183019092525f916020808301908036833701905050905082815f81518110611a6557611a65615282565b60200260200101906001600160a01b031690816001600160a01b031681525050610dcc84826112f1565b5f3061016714611ab15760405162461bcd60e51b815260040161017b90615220565b5f825111611b015760405162461bcd60e51b815260206004820181905260248201527f646973736f6369617465546f6b656e733a206d697373696e6720746f6b656e73604482015260640161017b565b6001600160a01b0383163314611bb55760405162461bcd60e51b815260206004820152606760248201527f646973736f6369617465546f6b656e733a204d757374206265207369676e656460448201527f206279207468652070726f7669646564204163636f756e742773206b6579206f60648201527f722063616c6c65642066726f6d20746865206163636f756e747320636f6e7472608482015266616374206b657960c81b60a482015260c40161017b565b5f5b825181101561153e575f6001600160a01b0316838281518110611bdc57611bdc615282565b60200260200101516001600160a01b031603611c3a5760405162461bcd60e51b815260206004820152601f60248201527f646973736f6369617465546f6b656e733a20696e76616c696420746f6b656e00604482015260640161017b565b5f838281518110611c4d57611c4d615282565b60200260200101516001600160a01b0316635c9217e06040518163ffffffff1660e01b81526004016020604051808303815f875af1158015611c91573d5f803e3d5ffd5b505050506040513d601f19601f82011682018060405250810190611cb59190615a85565b905080600114611d1b5760405162461bcd60e51b815260206004820152602b60248201527f646973736f6369617465546f6b656e733a204661696c656420746f206173736f60448201526a31b4b0ba32903a37b5b2b760a91b606482015260840161017b565b50600101611bb7565b5f803061016714611d475760405162461bcd60e51b815260040161017b90615220565b6001600160a01b038316611d9d5760405162461bcd60e51b815260206004820152601d60248201527f676574546f6b656e547970653a20696e76616c69642061646472657373000000604482015260640161017b565b6040516393272baf60e01b81526001600160a01b03841660048201819052906393272baf9060240160408051808303815f875af1158015611de0573d5f803e3d5ffd5b505050506040513d601f19601f8201168201806040525081019061163b9190615a9c565b5f803061016714611e275760405162461bcd60e51b815260040161017b90615220565b6001600160a01b038316611e925760405162461bcd60e51b815260206004820152602c60248201527f676574546f6b656e44656661756c74467265657a655374617475733a20696e7660448201526b616c6964206164647265737360a01b606482015260840161017b565b60405163a7daa18d60e01b81526001600160a01b038416600482018190529063a7daa18d906024016115fc565b5f606080803061016714611ee55760405162461bcd60e51b815260040161017b90615220565b6001600160a01b038516611f455760405162461bcd60e51b815260206004820152602160248201527f676574546f6b656e437573746f6d466565733a20696e76616c696420746f6b656044820152603760f91b606482015260840161017b565b604051630573b08d60e51b81526001600160a01b038616600482018190529063ae7611a0906024015f604051808303815f875af1158015611f88573d5f803e3d5ffd5b505050506040513d5f823e601f3d908101601f19168201604052611faf9190810190615acf565b93509350935093509193509193565b604080516060810182525f808252602082018190529181018290523061016714611ffa5760405162461bcd60e51b815260040161017b90615220565b6001600160a01b03831661205a5760405162461bcd60e51b815260206004820152602160248201527f676574546f6b656e457870697279496e666f3a20696e76616c696420746f6b656044820152603760f91b606482015260840161017b565b604051631ac299b760e31b81526001600160a01b038416600482018190529063d614cdb8906024016080604051808303815f875af115801561209e573d5f803e3d5ffd5b505050506040513d601f19601f8201168201806040525081019061105f9190615b6e565b5f8030610167146120e55760405162461bcd60e51b815260040161017b90615220565b6001600160a01b03851661213b5760405162461bcd60e51b815260206004820152601860248201527f6275726e546f6b656e3a20696e76616c696420746f6b656e0000000000000000604482015260640161017b565b5f8460070b1361218d5760405162461bcd60e51b815260206004820152601960248201527f6275726e546f6b656e3a20696e76616c696420616d6f756e7400000000000000604482015260640161017b565b604051631f69565f60e01b81526001600160a01b038616600482018190525f91829190631f69565f906024015f604051808303815f875af11580156121d4573d5f803e3d5ffd5b505050506040513d5f823e601f3d908101601f191682016040526121fb91908101906158c3565b915091508160070b60161461225e5760405162461bcd60e51b815260206004820152602360248201527f6275726e546f6b656e3a206661696c656420746f2067657420746f6b656e20696044820152626e666f60e81b606482015260840161017b565b8051604001516001600160a01b0381166122ba5760405162461bcd60e51b815260206004820152601a60248201527f6275726e546f6b656e3a20696e76616c6964206163636f756e74000000000000604482015260640161017b565b60405163017677f560e31b81526001600160a01b0382811660048301525f60248301526001600160401b0389166044830152891690630bb3bfa8906064015f604051808303815f87803b15801561230f575f80fd5b505af1158015612321573d5f803e3d5ffd5b5050505060169450876001600160a01b03166318160ddd6040518163ffffffff1660e01b8152600401602060405180830381865afa158015612365573d5f803e3d5ffd5b505050506040513d601f19601f820116820180604052508101906123899190615a85565b93505f8460070b12156123de5760405162461bcd60e51b815260206004820152601f60248201527f6275726e546f6b656e3a20696e76616c696420746f74616c20737570706c7900604482015260640161017b565b505050935093915050565b5f306101671461240b5760405162461bcd60e51b815260040161017b90615220565b6040805163e0b490f760e01b602082018190525f602483018190526001600160601b0319606087901b16602c8401529092909182910160405160208183030381529060405261245990615b99565b5495945050505050565b5f80606030610167146124885760405162461bcd60e51b815260040161017b90615220565b6001600160a01b0386166124de5760405162461bcd60e51b815260206004820152601860248201527f6d696e74546f6b656e3a20696e76616c696420746f6b656e0000000000000000604482015260640161017b565b5f8560070b136125305760405162461bcd60e51b815260206004820152601960248201527f6d696e74546f6b656e3a20696e76616c696420616d6f756e7400000000000000604482015260640161017b565b604051631f69565f60e01b81526001600160a01b038716600482018190525f91829190631f69565f906024015f604051808303815f875af1158015612577573d5f803e3d5ffd5b505050506040513d5f823e601f3d908101601f1916820160405261259e91908101906158c3565b915091508160070b6016146126015760405162461bcd60e51b815260206004820152602360248201527f6d696e74546f6b656e3a206661696c656420746f2067657420746f6b656e20696044820152626e666f60e81b606482015260840161017b565b8051604001516001600160a01b03811661265d5760405162461bcd60e51b815260206004820152601a60248201527f6d696e74546f6b656e3a20696e76616c6964206163636f756e74000000000000604482015260640161017b565b60405163017677f560e31b81525f60048201526001600160a01b0382811660248301526001600160401b038a1660448301528a1690630bb3bfa8906064015f604051808303815f87803b1580156126b2575f80fd5b505af11580156126c4573d5f803e3d5ffd5b5050505060169550886001600160a01b03166318160ddd6040518163ffffffff1660e01b8152600401602060405180830381865afa158015612708573d5f803e3d5ffd5b505050506040513d601f19601f8201168201806040525081019061272c9190615a85565b604080515f808252602082019092529196505093505f8560070b12156127945760405162461bcd60e51b815260206004820152601f60248201527f6d696e74546f6b656e3a20696e76616c696420746f74616c20737570706c7900604482015260640161017b565b50505093509350939050565b5f8030610167146127c35760405162461bcd60e51b815260040161017b90615220565b6001600160a01b0385166128195760405162461bcd60e51b815260206004820152601f60248201527f6973417070726f766564466f72416c6c3a20696e76616c696420746f6b656e00604482015260640161017b565b60405163e985e9c560e01b81526001600160a01b03858116600483015284811660248301526016919087169063e985e9c590604401602060405180830381865afa158015612869573d5f803e3d5ffd5b505050506040513d601f19601f8201168201806040525081019061288d9190615bbc565b91509150935093915050565b606063f90221fd60e01b6001600160e01b03198316016128db5760016040516020016128c59190615bd5565b6040516020818303038152906040529050919050565b63cec31a9960e01b6001600160e01b031983160161290a576003546040805160ff9092166020830152016128c5565b63e7e9f22360e01b6001600160e01b0319831601612937576004546040516020016128c591815260200190565b636a2764bf60e01b6001600160e01b03198316016129615760026040516020016128c59190615bd5565b638f5f7dcf60e01b6001600160e01b0319831601612a1957603c3610156129ca5760405162461bcd60e51b815260206004820152601e60248201527f62616c616e63654f663a204e6f7420656e6f7567682063616c6c646174610000604482015260640161017b565b5f6129d9603c60283684614071565b6129e2916140d0565b60601c90506129f081613451565b604051602001612a0291815260200190565b604051602081830303815290604052915050919050565b6356fa634560e01b6001600160e01b0319831601612aeb57605c361015612a825760405162461bcd60e51b815260206004820152601d60248201527f7472616e736665723a204e6f7420656e6f7567682063616c6c64617461000000604482015260640161017b565b5f612a91603c60283684614071565b612a9a916140d0565b60601c90505f612aae605c603c3684614071565b612ab791615203565b905033612ac5818484613464565b6040805160016020820152015b6040516020818303038152906040529350505050919050565b63dc478d2360e01b6001600160e01b0319831601612be557607c361015612b545760405162461bcd60e51b815260206004820152601e60248201527f7472616e73666572463a204e6f7420656e6f7567682063616c6c646174610000604482015260640161017b565b5f612b63603c60283684614071565b612b6c916140d0565b60601c90505f612b80605c60483684614071565b612b89916140d0565b60601c90505f612b9d607c605c3684614071565b612ba691615203565b905033612bb484828461355b565b612bbf848484613464565b604080516001602082015201604051602081830303815290604052945050505050919050565b63114e896160e11b6001600160e01b0319831601612cbc57605c361015612c4e5760405162461bcd60e51b815260206004820152601e60248201527f616c6c6f77616e63653a204e6f7420656e6f7567682063616c6c646174610000604482015260640161017b565b5f612c5d603c60283684614071565b612c66916140d0565b60601c90505f612c7a605c60483684614071565b612c83916140d0565b60601c9050612c9282826135d3565b604051602001612ca491815260200190565b60405160208183030381529060405292505050919050565b63f6a1584d60e01b6001600160e01b0319831601612dc657605c361015612d255760405162461bcd60e51b815260206004820152601c60248201527f617070726f76653a204e6f7420656e6f7567682063616c6c6461746100000000604482015260640161017b565b5f612d34603c60283684614071565b612d3d916140d0565b60601c90505f612d51605c603c3684614071565b612d5a91615203565b905033612d688184846135e8565b826001600160a01b0316816001600160a01b03167f8c5be1e5ebec7d5bd14f71427d1e84f3dd0314c0f7b2291e5b200ac8c7c3b92584604051612dad91815260200190565b60405180910390a3604080516001602082015201612ad2565b610dd0826136a8565b606063f90221fd60e01b6001600160e01b0319831601612dfb5760016040516020016128c59190615bd5565b636a2764bf60e01b6001600160e01b0319831601612e255760026040516020016128c59190615bd5565b633784a92360e01b6001600160e01b0319831601612ec157603c361015612e8e5760405162461bcd60e51b815260206004820152601d60248201527f746f6b656e5552493a204e6f7420656e6f7567682063616c6c64617461000000604482015260640161017b565b5f612e9d603c601c3684614071565b612ea691615203565b9050612eb1816137a4565b604051602001612a029190615be7565b63e7e9f22360e01b6001600160e01b0319831601612eee576004546040516020016128c591815260200190565b638f5f7dcf60e01b6001600160e01b0319831601612f5757603c3610156129ca5760405162461bcd60e51b815260206004820152601e60248201527f62616c616e63654f663a204e6f7420656e6f7567682063616c6c646174610000604482015260640161017b565b634e56ef7160e11b6001600160e01b0319831601612ffd57603c361015612fc05760405162461bcd60e51b815260206004820152601c60248201527f6f776e65724f663a204e6f7420656e6f7567682063616c6c6461746100000000604482015260640161017b565b5f612fcf603c601c3684614071565b612fd891615203565b9050612fe381613847565b604080516001600160a01b03909216602083015201612a02565b63dc478d2360e01b6001600160e01b03198316016130cf57607c3610156130705760405162461bcd60e51b815260206004820152602160248201527f7472616e7366657246726f6d3a204e6f7420656e6f7567682063616c6c6461746044820152606160f81b606482015260840161017b565b5f61307f603c60283684614071565b613088916140d0565b60601c90505f61309c605c60483684614071565b6130a5916140d0565b60601c90505f6130b9607c605c3684614071565b6130c291615203565b9050612ac5838383613852565b63f6a1584d60e01b6001600160e01b031983160161318c57605c3610156131385760405162461bcd60e51b815260206004820152601c60248201527f617070726f76653a204e6f7420656e6f7567682063616c6c6461746100000000604482015260640161017b565b5f613147603c60283684614071565b613150916140d0565b60601c90505f613164605c603c3684614071565b61316d91615203565b905061317b82826001613a4b565b604080516001602082015201612ca4565b635dd34b9b60e01b6001600160e01b031983160161324857605c3610156132045760405162461bcd60e51b815260206004820152602660248201527f736574417070726f76616c466f72416c6c3a204e6f7420656e6f7567682063616044820152656c6c6461746160d01b606482015260840161017b565b5f613213603c60283684614071565b61321c916140d0565b60601c90505f613230605c603c3684614071565b61323991615203565b600114905061317b8282613b47565b633df9fb4160e21b6001600160e01b03198316016132d457603c3610156132b15760405162461bcd60e51b815260206004820181905260248201527f676574417070726f7665643a204e6f7420656e6f7567682063616c6c64617461604482015260640161017b565b5f6132c0603c601c3684614071565b6132c991615203565b9050612fe381613c2f565b63167a163b60e01b6001600160e01b0319831601612dc657605c36101561334b5760405162461bcd60e51b815260206004820152602560248201527f6973417070726f766564466f72416c6c3a204e6f7420656e6f7567682063616c6044820152646c6461746160d81b606482015260840161017b565b5f61335a603c60283684614071565b613363916140d0565b60601c90505f613377605c60483684614071565b613380916140d0565b60601c905061338f8282613c3a565b60408051911515602083015201612ca4565b60405163e0b490f760e01b81526001600160a01b03821660048201525f906370a0823160e01b90829081906101679063e0b490f7906024015b602060405180830381865afa1580156133f5573d5f803e3d5ffd5b505050506040513d601f19601f820116820180604052508101906134199190615bf9565b905082828260405160200161343093929190615c1c565b60405160208183030381529060405261344890615b99565b95945050505050565b5f8061345c836133a1565b549392505050565b6001600160a01b0383166134b05760405162461bcd60e51b8152602060048201526013602482015272343a399d1034b73b30b634b21039b2b73232b960691b604482015260640161017b565b6001600160a01b0382166134fe5760405162461bcd60e51b8152602060048201526015602482015274343a399d1034b73b30b634b2103932b1b2b4bb32b960591b604482015260640161017b565b613509838383610dd6565b816001600160a01b0316836001600160a01b03167fddf252ad1be2c89b69c2b068fc378daa952ba7f163c4a11628f55a4df523b3ef8360405161354e91815260200190565b60405180910390a3505050565b5f61356684846135d3565b90505f1981146135cd57818110156135c05760405162461bcd60e51b815260206004820152601d60248201527f5f7370656e64416c6c6f77616e63653a20696e73756666696369656e74000000604482015260640161017b565b6135cd84848484036135e8565b50505050565b5f806135df8484613c46565b54949350505050565b6001600160a01b03831661363e5760405162461bcd60e51b815260206004820152601760248201527f5f617070726f76653a20696e76616c6964206f776e6572000000000000000000604482015260640161017b565b6001600160a01b0382166136945760405162461bcd60e51b815260206004820152601960248201527f5f617070726f76653a20696e76616c6964207370656e64657200000000000000604482015260640161017b565b5f61369f8484613c46565b91909155505050565b6060637ac5590d60e11b6001600160e01b03198316016136e8575f6136cc33613d66565b9050600181556001604051602001612a02911515815260200190565b63051b6f4160e51b6001600160e01b0319831601613721575f61370a33613d66565b5f8155604080516001602082015291925001612a02565b63b270229360e01b6001600160e01b031983160161375c575f61374333613d66565b8054604080518215156020820152929350909101612ca4565b60405162461bcd60e51b815260206004820152601f60248201527f7265646972656374466f72546f6b656e3a206e6f7420737570706f7274656400604482015260640161017b565b60605f6137b083613da3565b90505f8190508080546137c290614c40565b80601f01602080910402602001604051908101604052809291908181526020018280546137ee90614c40565b80156138395780601f1061381057610100808354040283529160200191613839565b820191905f5260205f20905b81548152906001019060200180831161381c57829003601f168201915b505050505092505050919050565b5f8061345c83613de5565b6001600160a01b03831661389e5760405162461bcd60e51b8152602060048201526013602482015272343a399d1034b73b30b634b21039b2b73232b960691b604482015260640161017b565b6001600160a01b0382166138ec5760405162461bcd60e51b8152602060048201526015602482015274343a399d1034b73b30b634b2103932b1b2b4bb32b960591b604482015260640161017b565b5f6138f682613de5565b80549091506001600160a01b03808216908616146139565760405162461bcd60e51b815260206004820152601860248201527f6874733a2073656e646572206973206e6f74206f776e65720000000000000000604482015260640161017b565b336001600160a01b038616146139d35761396f83613c2f565b6001600160a01b0316336001600160a01b0316148061399357506139938533613c3a565b6139d35760405162461bcd60e51b81526020600482015260116024820152701a1d1cce881d5b985d5d1a1bdc9a5e9959607a1b604482015260640161017b565b5f6139dd84613e07565b90505f81555f6139ed8787613e29565b90505f8155858455856001600160a01b0316876001600160a01b03167fddf252ad1be2c89b69c2b068fc378daa952ba7f163c4a11628f55a4df523b3ef87604051613a3a91815260200190565b60405180910390a350505050505050565b5f613a5583613847565b9050336001600160a01b0382161480613a7e575033613a7384613c2f565b6001600160a01b0316145b80613a8e5750613a8e8133613c3a565b613ad35760405162461bcd60e51b815260206004820152601660248201527517d85c1c1c9bdd994e881d5b985d5d1a1bdc9a5e995960521b604482015260640161017b565b5f613add84613e07565b90505f83613aeb575f613aed565b855b9050808255856001600160a01b0316836001600160a01b03167f8c5be1e5ebec7d5bd14f71427d1e84f3dd0314c0f7b2291e5b200ac8c7c3b92587604051613b3791815260200190565b60405180910390a3505050505050565b336001600160a01b03831615801590613b725750806001600160a01b0316836001600160a01b031614155b613bca5760405162461bcd60e51b815260206004820152602360248201527f736574417070726f76616c466f72416c6c3a20696e76616c6964206f706572616044820152623a37b960e91b606482015260840161017b565b5f613bd58285613e29565b9050828155836001600160a01b0316826001600160a01b03167f17307eab39ab6107e8899845ad3d59bd9653f200f220920489ca2b5937696c3185604051613c21911515815260200190565b60405180910390a350505050565b5f8061345c83613e07565b5f806135df8484613e29565b60405163e0b490f760e01b81526001600160a01b03831660048201525f90636eb1769f60e11b90829081906101679063e0b490f790602401602060405180830381865afa158015613c99573d5f803e3d5ffd5b505050506040513d601f19601f82011682018060405250810190613cbd9190615bf9565b60405163e0b490f760e01b81526001600160a01b03871660048201529091505f906101679063e0b490f790602401602060405180830381865afa158015613d06573d5f803e3d5ffd5b505050506040513d601f19601f82011682018060405250810190613d2a9190615bf9565b905083838284604051602001613d439493929190615c51565b604051602081830303815290604052613d5b90615b99565b979650505050505050565b60405163e0b490f760e01b81526001600160a01b03821660048201525f90634d8fdd6d60e01b90829081906101679063e0b490f7906024016133da565b6040515f9063c87b56dd60e01b908290613dc590839083908790602001615c1c565b604051602081830303815290604052613ddd90615b99565b949350505050565b6040515f906331a9108f60e11b908290613dc590839083908790602001615c1c565b6040515f9063020604bf60e21b908290613dc590839083908790602001615c1c565b60405163e0b490f760e01b81526001600160a01b03831660048201525f9063e985e9c560e01b90829081906101679063e0b490f790602401602060405180830381865afa158015613e7c573d5f803e3d5ffd5b505050506040513d601f19601f82011682018060405250810190613ea09190615bf9565b60405163e0b490f760e01b81526001600160a01b03871660048201529091505f906101679063e0b490f790602401602060405180830381865afa158015613ee9573d5f803e3d5ffd5b505050506040513d601f19601f82011682018060405250810190613f0d9190615bf9565b905083838383604051602001613d439493929190615c51565b60408051610240810182526060610120820181815261014083018290525f610160840181905261018084018390526101a084018190526101c084018190526101e08401819052610200840183905284519283018552808352602083018190529382019390935261022082015290819081526020015f60070b81526020015f151581526020015f151581526020015f15158152602001606081526020016060815260200160608152602001606081525090565b6040518060c00160405280613feb613f26565b81525f60208201819052604082018190526060808301829052608083015260a09091015290565b6040518060a001604052805f151581526020015f6001600160a01b0316815260200160608152602001606081526020015f6001600160a01b031681525090565b6040518060400160405280614065613f26565b81525f60209091015290565b5f808585111561407f575f80fd5b8386111561408b575f80fd5b5050820193919092039150565b80356001600160e01b031981169060048410156140c9576001600160e01b0319600485900360031b81901b82161691505b5092915050565b80356001600160601b031981169060148410156140c9576001600160601b031960149490940360031b84901b1690921692915050565b6001600160a01b038116811461411a575f80fd5b50565b5f806040838503121561412e575f80fd5b823561413981614106565b946020939093013593505050565b5f8060408385031215614158575f80fd5b823561416381614106565b9150602083013561417381614106565b809150509250929050565b5f805f60608486031215614190575f80fd5b833561419b81614106565b925060208401356141ab81614106565b929592945050506040919091013590565b5f602082840312156141cc575f80fd5b81356141d781614106565b9392505050565b5f81518084528060208401602086015e5f602082860101526020601f19601f83011685010191505092915050565b80511515825260018060a01b0360208201511660208301525f604082015160a0604085015261423e60a08501826141de565b90506060830151848203606086015261425782826141de565b6080948501516001600160a01b03169590940194909452509092915050565b5f82825180855260208501945060208160051b830101602085015f5b838110156142db57601f1985840301885281518051845260208101519050604060208501526142c4604085018261420c565b6020998a0199909450929092019150600101614292565b50909695505050505050565b5f815161016084526142fd6101608501826141de565b90506020830151848203602086015261431682826141de565b915050604083015161433360408601826001600160a01b03169052565b506060830151848203606086015261434b82826141de565b9150506080830151614361608086018215159052565b5060a083015161437660a086018260070b9052565b5060c083015161438a60c086018215159052565b5060e083015184820360e08601526143a28282614276565b9150506101008301516143dd6101008601828051600790810b83526020808301516001600160a01b031690840152604091820151900b910152565b509392505050565b5f8151808452602084019350602083015f5b82811015614455578151805160070b87526020808201516001600160a01b03908116828a01526040808401511515908a01526060808401511515908a0152608092830151169188019190915260a090960195909101906001016143f7565b5093949350505050565b5f8151808452602084019350602083015f5b828110156144555781515f815160070b8852602082015160070b6020890152604082015160070b6040890152606082015160070b606089015260808201511515608089015260018060a01b0360a08301511660a089015260c0880190508097505050602082019150600181019050614471565b5f8151808452602084019350602083015f5b828110156144555781515f815160070b8852602082015160070b6020890152604082015160070b604089015260018060a01b03606083015116606089015260808201511515608089015260018060a01b0360a08301511660a089015260c08801905080975050506020820191506001810190506144f6565b5f815161012084526145846101208501826142e7565b9050602083015161459a602086018260070b9052565b5060408301516145ae604086018215159052565b5060608301516145c2606086018215159052565b5060808301516145d6608086018215159052565b5060a083015184820360a08601526145ee82826143e5565b91505060c083015184820360c0860152614608828261445f565b91505060e083015184820360e086015261462282826144e4565b91505061010083015184820361010086015261344882826141de565b8260070b8152604060208201525f613ddd604083018461456e565b8060070b811461411a575f80fd5b5f8060408385031215614678575f80fd5b823561468381614106565b9150602083013561417381614659565b8260070b8152604060208201525f825160c060408401526146b861010084018261456e565b9050602084015160070b606084015260018060a01b036040850151166080840152606084015160070b60a08401526080840151603f198483030160c085015261470182826141de565b60a095909501516001600160a01b031660e0949094019390935250919392505050565b634e487b7160e01b5f52604160045260245ffd5b604080519081016001600160401b038111828210171561475a5761475a614724565b60405290565b60405160a081016001600160401b038111828210171561475a5761475a614724565b60405161012081016001600160401b038111828210171561475a5761475a614724565b60405160c081016001600160401b038111828210171561475a5761475a614724565b604051601f8201601f191681016001600160401b03811182821017156147ef576147ef614724565b604052919050565b5f6001600160401b0382111561480f5761480f614724565b5060051b60200190565b5f806040838503121561482a575f80fd5b823561483581614106565b915060208301356001600160401b0381111561484f575f80fd5b8301601f8101851361485f575f80fd5b803561487261486d826147f7565b6147c7565b8082825260208201915060208360051b850101925087831115614893575f80fd5b6020840193505b828410156148be5783356148ad81614106565b82526020938401939091019061489a565b809450505050509250929050565b8260070b8152604060208201525f613ddd604083018461420c565b8260070b8152604060208201525f825160408084015261490a608084018261456e565b9050602084015160030b6060840152809150509392505050565b8460070b8152608060208201525f61493f60808301866143e5565b8281036040840152614951818661445f565b90508281036060840152613d5b81856144e4565b600783900b8152608081016141d760208301848051600790810b83526020808301516001600160a01b031690840152604091820151900b910152565b5f805f606084860312156149b3575f80fd5b83356149be81614106565b925060208401356149ce81614659565b915060408401356001600160401b038111156149e8575f80fd5b8401601f810186136149f8575f80fd5b8035614a0661486d826147f7565b8082825260208201915060208360051b850101925088831115614a27575f80fd5b6020840193505b82841015614a52578335614a4181614659565b825260209384019390910190614a2e565b809450505050509250925092565b5f6001600160401b03821115614a7857614a78614724565b50601f01601f191660200190565b5f805f60608486031215614a98575f80fd5b8335614aa381614106565b92506020840135614ab381614659565b915060408401356001600160401b03811115614acd575f80fd5b8401601f81018613614add575f80fd5b8035614aeb61486d826147f7565b8082825260208201915060208360051b850101925088831115614b0c575f80fd5b602084015b83811015614b8c5780356001600160401b03811115614b2e575f80fd5b8501603f81018b13614b3e575f80fd5b6020810135614b4f61486d82614a60565b8181526040838301018d1015614b63575f80fd5b816040840160208301375f60208383010152808652505050602083019250602081019050614b11565b50809450505050509250925092565b5f606082018560070b83528460070b6020840152606060408401528084518083526080850191506020860192505f5b81811015614beb57835160070b835260209384019390920191600101614bca565b5090979650505050505050565b5f805f60608486031215614c0a575f80fd5b8335614c1581614106565b92506020840135614c2581614106565b91506040840135614c3581614106565b809150509250925092565b600181811c90821680614c5457607f821691505b602082108103614c7257634e487b7160e01b5f52602260045260245ffd5b50919050565b5f8154614c8481614c40565b600182168015614c9b5760018114614cb057614cdd565b60ff1983168652811515820286019350614cdd565b845f5260205f205f5b83811015614cd557815488820152600190910190602001614cb9565b505081860193505b50505092915050565b5f6141d78284614c78565b5f8154614cfd81614c40565b808552600182168015614d175760018114614d3357614cdd565b60ff1983166020870152602082151560051b8701019350614cdd565b845f5260205f205f5b83811015614d5e5781546020828a010152600182019150602081019050614d3c565b870160200194505050505092915050565b5f82825480855260208501945060208160051b830101845f5260205f205f5b838110156142db57848303601f1901885281548352604060208401819052600183015460ff811615159185019190915260081c6001600160a01b0316606084015260a06080840152614de660e0840160028401614cf1565b838103603f190160a0850152614dff8160038501614cf1565b60048401546001600160a01b031660c095909501949094525060209790970196600590910190600101614d8e565b61016082525f614e41610160840183614cf1565b8381036020850152614e568160018501614cf1565b9050614e6c60028401546001600160a01b031690565b6001600160a01b031660408501528381036060850152614e8f8160038501614cf1565b90506004830154614ea76080860160ff831615159052565b600881901c60070b60a0860152614ec860c0860160ff8360481c1615159052565b5083810360e0850152614ede8160058501614d6f565b90506141d76101008501600685018054600781810b8452604091821c6001600160a01b0316602085015260019092015490910b910152565b5f8154808452602084019350825f5260205f205f5b82811015614455578154600781900b8752604081811c6001600160a01b0390811660208a015260e083901c60ff9081161515928a019290925260e89290921c1615156060880152600180840154909116608088015260a09096019560029092019101614f2b565b5f8154808452602084019350825f5260205f205f5b82811015614455575f82548060070b88528060401c60070b60208901528060801c60070b60408901528060c01d60070b6060890152506001830154614ff36080890160ff831615159052565b60081c6001600160a01b031660a08801525060c09095019460029190910190600101614fa7565b5f8154808452602084019350825f5260205f205f5b82811015614455575f82548060070b88528060401c60070b60208901528060801c60070b604089015250600183015460018060a01b03811660608901526150806080890160ff8360a01c1615159052565b505060028201546001600160a01b031660a087015260c09095019460039091019060010161502f565b60ff831681526040602082015261012060408201525f6150cd610160830184614e2d565b6008840154600781900b60608501526150f06080850160ff8360401c1615159052565b61510460a0850160ff8360481c1615159052565b61511860c0850160ff8360501c1615159052565b50828103603f190160e08401526151328160098601614f16565b838103603f1901610100850152905061514e81600a8601614f92565b838103603f1901610120850152905061516a81600b860161501a565b838103603f1901610140850152905061344881600c8601614cf1565b60ff85168152608060208201525f6151a16080830186614f16565b82810360408401526151b38186614f92565b90508281036060840152613d5b818561501a565b60ff83168152608081016141d760208301848054600781810b8452604091821c6001600160a01b0316602085015260019092015490910b910152565b80356020831015610dd0575f19602084900360031b1b1692915050565b60208082526017908201527f68747343616c6c3a2064656c6567617465642063616c6c000000000000000000604082015260600190565b805161526281614106565b919050565b5f60208284031215615277575f80fd5b81516141d781614106565b634e487b7160e01b5f52603260045260245ffd5b634e487b7160e01b5f52601160045260245ffd5b80820180821115610dd057610dd0615296565b81810381811115610dd057610dd0615296565b5f82518060208501845e5f920191825250919050565b805161526281614659565b5f82601f830112615300575f80fd5b8151602083015f61531361486d84614a60565b9050828152858383011115615326575f80fd5b8282602083015e5f92810160200192909252509392505050565b80518015158114615262575f80fd5b5f82601f83011261535e575f80fd5b815161536c61486d826147f7565b8082825260208201915060208360051b86010192508583111561538d575f80fd5b602085015b838110156154aa5780516001600160401b038111156153af575f80fd5b86016040818903601f190112156153c4575f80fd5b6153cc614738565b6020820151815260408201516001600160401b038111156153eb575f80fd5b60208184010192505060a0828a031215615403575f80fd5b61540b614760565b61541483615340565b8152602083015161542481614106565b602082015260408301516001600160401b03811115615441575f80fd5b61544d8b8286016152f1565b60408301525060608301516001600160401b0381111561546b575f80fd5b6154778b8286016152f1565b6060830152506080830151925061548d83614106565b608081019290925260208181019290925284529283019201615392565b5095945050505050565b5f606082840312156154c4575f80fd5b604051606081016001600160401b03811182821017156154e6576154e6614724565b806040525080915082516154f981614659565b8152602083015161550981614106565b6020820152604083015161551c81614659565b6040919091015292915050565b5f610160828403121561553a575f80fd5b615542614782565b905081516001600160401b03811115615559575f80fd5b615565848285016152f1565b82525060208201516001600160401b03811115615580575f80fd5b61558c848285016152f1565b60208301525061559e60408301615257565b604082015260608201516001600160401b038111156155bb575f80fd5b6155c7848285016152f1565b6060830152506155d960808301615340565b60808201526155ea60a083016152e6565b60a08201526155fb60c08301615340565b60c082015260e08201516001600160401b03811115615618575f80fd5b6156248482850161534f565b60e0830152506156388361010084016154b4565b61010082015292915050565b5f82601f830112615653575f80fd5b815161566161486d826147f7565b80828252602082019150602060a08402860101925085831115615682575f80fd5b602085015b838110156154aa5760a0818803121561569e575f80fd5b6156a6614760565b81516156b181614659565b815260208201516156c181614106565b60208201526156d260408301615340565b60408201526156e360608301615340565b606082015260808201516156f681614106565b6080820152835260209092019160a001615687565b5f82601f83011261571a575f80fd5b815161572861486d826147f7565b80828252602082019150602060c08402860101925085831115615749575f80fd5b602085015b838110156154aa5760c08188031215615765575f80fd5b61576d6147a5565b815161577881614659565b8152602082015161578881614659565b6020820152604082015161579b81614659565b604082015260608201516157ae81614659565b60608201526157bf60808301615340565b608082015260a08201516157d281614106565b60a0820152835260209092019160c00161574e565b5f82601f8301126157f6575f80fd5b815161580461486d826147f7565b80828252602082019150602060c08402860101925085831115615825575f80fd5b602085015b838110156154aa5760c08188031215615841575f80fd5b6158496147a5565b815161585481614659565b8152602082015161586481614659565b6020820152604082015161587781614659565b6040820152606082015161588a81614106565b606082015261589b60808301615340565b608082015260a08201516158ae81614106565b60a0820152835260209092019160c00161582a565b5f80604083850312156158d4575f80fd5b82516158df81614659565b60208401519092506001600160401b038111156158fa575f80fd5b8301610120818603121561590c575f80fd5b615914614782565b81516001600160401b03811115615929575f80fd5b61593587828501615529565b825250615944602083016152e6565b602082015261595560408301615340565b604082015261596660608301615340565b606082015261597760808301615340565b608082015260a08201516001600160401b03811115615994575f80fd5b6159a087828501615644565b60a08301525060c08201516001600160401b038111156159be575f80fd5b6159ca8782850161570b565b60c08301525060e08201516001600160401b038111156159e8575f80fd5b6159f4878285016157e7565b60e0830152506101008201516001600160401b03811115615a13575f80fd5b615a1f878285016152f1565b6101008301525080925050509250929050565b5f8060408385031215615a43575f80fd5b8251615a4e81614659565b9150615a5c60208401615340565b90509250929050565b5f60208284031215615a75575f80fd5b815160ff811681146141d7575f80fd5b5f60208284031215615a95575f80fd5b5051919050565b5f8060408385031215615aad575f80fd5b8251615ab881614659565b8092505060208301518060030b8114614173575f80fd5b5f805f8060808587031215615ae2575f80fd5b8451615aed81614659565b60208601519094506001600160401b03811115615b08575f80fd5b615b1487828801615644565b93505060408501516001600160401b03811115615b2f575f80fd5b615b3b8782880161570b565b92505060608501516001600160401b03811115615b56575f80fd5b615b62878288016157e7565b91505092959194509250565b5f8060808385031215615b7f575f80fd5b8251615b8a81614659565b9150615a5c84602085016154b4565b80516020808301519190811015614c72575f1960209190910360031b1b16919050565b5f60208284031215615bcc575f80fd5b6141d782615340565b602081525f6141d76020830184614cf1565b602081525f6141d760208301846141de565b5f60208284031215615c09575f80fd5b815163ffffffff811681146141d7575f80fd5b6001600160e01b0319938416815260409290921b67ffffffffffffffff1916600483015260e01b909116601c82015260200190565b6001600160e01b0319948516815260609390931b6001600160601b031916600484015260e091821b84166018840152901b909116601c8201526020019056fea26469706673582212204c35bee67278b9ec7efaff82face366846c9513abe1bc3a102915eaaf86cf36964736f6c634300081a0033",
        "linkReferences": {}
    },
    "methodIdentifiers": {
        "_update(address,address,uint256)": "0bb3bfa8",
        "associateToken(address,address)": "49146bde",
        "associateTokens(address,address[])": "2e63879b",
        "burnToken(address,int64,int64[])": "d6910d06",
        "dissociateToken(address,address)": "099794e8",
        "dissociateTokens(address,address[])": "78b63918",
        "getAccountId(address)": "e0b490f7",
        "getApproved(address,uint256)": "098f2366",
        "getFungibleTokenInfo(address)": "3f28a19b",
        "getNonFungibleTokenInfo(address,int64)": "287e1da8",
        "getTokenCustomFees(address)": "ae7611a0",
        "getTokenDefaultFreezeStatus(address)": "a7daa18d",
        "getTokenDefaultKycStatus(address)": "335e04c1",
        "getTokenExpiryInfo(address)": "d614cdb8",
        "getTokenInfo(address)": "1f69565f",
        "getTokenKey(address,uint256)": "3c4dd32e",
        "getTokenType(address)": "93272baf",
        "isApprovedForAll(address,address,address)": "f49f40db",
        "isToken(address)": "19f37361",
        "mintToken(address,int64,bytes[])": "e0f4059a"
    },
    "storageLayout": {
        "storage": [
            {
                "astId": 91,
                "contract": "contracts/HtsSystemContract.sol:HtsSystemContract",
                "label": "tokenType",
                "offset": 0,
                "slot": "0",
                "type": "t_string_storage"
            },
            {
                "astId": 93,
                "contract": "contracts/HtsSystemContract.sol:HtsSystemContract",
                "label": "name",
                "offset": 0,
                "slot": "1",
                "type": "t_string_storage"
            },
            {
                "astId": 95,
                "contract": "contracts/HtsSystemContract.sol:HtsSystemContract",
                "label": "symbol",
                "offset": 0,
                "slot": "2",
                "type": "t_string_storage"
            },
            {
                "astId": 97,
                "contract": "contracts/HtsSystemContract.sol:HtsSystemContract",
                "label": "decimals",
                "offset": 0,
                "slot": "3",
                "type": "t_uint8"
            },
            {
                "astId": 99,
                "contract": "contracts/HtsSystemContract.sol:HtsSystemContract",
                "label": "totalSupply",
                "offset": 0,
                "slot": "4",
                "type": "t_uint256"
            },
            {
                "astId": 102,
                "contract": "contracts/HtsSystemContract.sol:HtsSystemContract",
                "label": "_tokenInfo",
                "offset": 0,
                "slot": "5",
                "type": "t_struct(TokenInfo)6374_storage"
            }
        ],
        "types": {
            "t_address": {
                "encoding": "inplace",
                "label": "address",
                "numberOfBytes": "20"
            },
            "t_array(t_struct(FixedFee)6416_storage)dyn_storage": {
                "encoding": "dynamic_array",
                "label": "struct IHederaTokenService.FixedFee[]",
                "numberOfBytes": "32",
                "base": "t_struct(FixedFee)6416_storage"
            },
            "t_array(t_struct(FractionalFee)6430_storage)dyn_storage": {
                "encoding": "dynamic_array",
                "label": "struct IHederaTokenService.FractionalFee[]",
                "numberOfBytes": "32",
                "base": "t_struct(FractionalFee)6430_storage"
            },
            "t_array(t_struct(RoyaltyFee)6444_storage)dyn_storage": {
                "encoding": "dynamic_array",
                "label": "struct IHederaTokenService.RoyaltyFee[]",
                "numberOfBytes": "32",
                "base": "t_struct(RoyaltyFee)6444_storage"
            },
            "t_array(t_struct(TokenKey)6315_storage)dyn_storage": {
                "encoding": "dynamic_array",
                "label": "struct IHederaTokenService.TokenKey[]",
                "numberOfBytes": "32",
                "base": "t_struct(TokenKey)6315_storage"
            },
            "t_bool": {
                "encoding": "inplace",
                "label": "bool",
                "numberOfBytes": "1"
            },
            "t_bytes_storage": {
                "encoding": "bytes",
                "label": "bytes",
                "numberOfBytes": "32"
            },
            "t_int64": {
                "encoding": "inplace",
                "label": "int64",
                "numberOfBytes": "8"
            },
            "t_string_storage": {
                "encoding": "bytes",
                "label": "string",
                "numberOfBytes": "32"
            },
            "t_struct(Expiry)6296_storage": {
                "encoding": "inplace",
                "label": "struct IHederaTokenService.Expiry",
                "numberOfBytes": "64",
                "members": [
                    {
                        "astId": 6291,
                        "contract": "contracts/HtsSystemContract.sol:HtsSystemContract",
                        "label": "second",
                        "offset": 0,
                        "slot": "0",
                        "type": "t_int64"
                    },
                    {
                        "astId": 6293,
                        "contract": "contracts/HtsSystemContract.sol:HtsSystemContract",
                        "label": "autoRenewAccount",
                        "offset": 8,
                        "slot": "0",
                        "type": "t_address"
                    },
                    {
                        "astId": 6295,
                        "contract": "contracts/HtsSystemContract.sol:HtsSystemContract",
                        "label": "autoRenewPeriod",
                        "offset": 0,
                        "slot": "1",
                        "type": "t_int64"
                    }
                ]
            },
            "t_struct(FixedFee)6416_storage": {
                "encoding": "inplace",
                "label": "struct IHederaTokenService.FixedFee",
                "numberOfBytes": "64",
                "members": [
                    {
                        "astId": 6407,
                        "contract": "contracts/HtsSystemContract.sol:HtsSystemContract",
                        "label": "amount",
                        "offset": 0,
                        "slot": "0",
                        "type": "t_int64"
                    },
                    {
                        "astId": 6409,
                        "contract": "contracts/HtsSystemContract.sol:HtsSystemContract",
                        "label": "tokenId",
                        "offset": 8,
                        "slot": "0",
                        "type": "t_address"
                    },
                    {
                        "astId": 6411,
                        "contract": "contracts/HtsSystemContract.sol:HtsSystemContract",
                        "label": "useHbarsForPayment",
                        "offset": 28,
                        "slot": "0",
                        "type": "t_bool"
                    },
                    {
                        "astId": 6413,
                        "contract": "contracts/HtsSystemContract.sol:HtsSystemContract",
                        "label": "useCurrentTokenForPayment",
                        "offset": 29,
                        "slot": "0",
                        "type": "t_bool"
                    },
                    {
                        "astId": 6415,
                        "contract": "contracts/HtsSystemContract.sol:HtsSystemContract",
                        "label": "feeCollector",
                        "offset": 0,
                        "slot": "1",
                        "type": "t_address"
                    }
                ]
            },
            "t_struct(FractionalFee)6430_storage": {
                "encoding": "inplace",
                "label": "struct IHederaTokenService.FractionalFee",
                "numberOfBytes": "64",
                "members": [
                    {
                        "astId": 6419,
                        "contract": "contracts/HtsSystemContract.sol:HtsSystemContract",
                        "label": "numerator",
                        "offset": 0,
                        "slot": "0",
                        "type": "t_int64"
                    },
                    {
                        "astId": 6421,
                        "contract": "contracts/HtsSystemContract.sol:HtsSystemContract",
                        "label": "denominator",
                        "offset": 8,
                        "slot": "0",
                        "type": "t_int64"
                    },
                    {
                        "astId": 6423,
                        "contract": "contracts/HtsSystemContract.sol:HtsSystemContract",
                        "label": "minimumAmount",
                        "offset": 16,
                        "slot": "0",
                        "type": "t_int64"
                    },
                    {
                        "astId": 6425,
                        "contract": "contracts/HtsSystemContract.sol:HtsSystemContract",
                        "label": "maximumAmount",
                        "offset": 24,
                        "slot": "0",
                        "type": "t_int64"
                    },
                    {
                        "astId": 6427,
                        "contract": "contracts/HtsSystemContract.sol:HtsSystemContract",
                        "label": "netOfTransfers",
                        "offset": 0,
                        "slot": "1",
                        "type": "t_bool"
                    },
                    {
                        "astId": 6429,
                        "contract": "contracts/HtsSystemContract.sol:HtsSystemContract",
                        "label": "feeCollector",
                        "offset": 1,
                        "slot": "1",
                        "type": "t_address"
                    }
                ]
            },
            "t_struct(HederaToken)6338_storage": {
                "encoding": "inplace",
                "label": "struct IHederaTokenService.HederaToken",
                "numberOfBytes": "256",
                "members": [
                    {
                        "astId": 6318,
                        "contract": "contracts/HtsSystemContract.sol:HtsSystemContract",
                        "label": "name",
                        "offset": 0,
                        "slot": "0",
                        "type": "t_string_storage"
                    },
                    {
                        "astId": 6320,
                        "contract": "contracts/HtsSystemContract.sol:HtsSystemContract",
                        "label": "symbol",
                        "offset": 0,
                        "slot": "1",
                        "type": "t_string_storage"
                    },
                    {
                        "astId": 6322,
                        "contract": "contracts/HtsSystemContract.sol:HtsSystemContract",
                        "label": "treasury",
                        "offset": 0,
                        "slot": "2",
                        "type": "t_address"
                    },
                    {
                        "astId": 6324,
                        "contract": "contracts/HtsSystemContract.sol:HtsSystemContract",
                        "label": "memo",
                        "offset": 0,
                        "slot": "3",
                        "type": "t_string_storage"
                    },
                    {
                        "astId": 6326,
                        "contract": "contracts/HtsSystemContract.sol:HtsSystemContract",
                        "label": "tokenSupplyType",
                        "offset": 0,
                        "slot": "4",
                        "type": "t_bool"
                    },
                    {
                        "astId": 6328,
                        "contract": "contracts/HtsSystemContract.sol:HtsSystemContract",
                        "label": "maxSupply",
                        "offset": 1,
                        "slot": "4",
                        "type": "t_int64"
                    },
                    {
                        "astId": 6330,
                        "contract": "contracts/HtsSystemContract.sol:HtsSystemContract",
                        "label": "freezeDefault",
                        "offset": 9,
                        "slot": "4",
                        "type": "t_bool"
                    },
                    {
                        "astId": 6334,
                        "contract": "contracts/HtsSystemContract.sol:HtsSystemContract",
                        "label": "tokenKeys",
                        "offset": 0,
                        "slot": "5",
                        "type": "t_array(t_struct(TokenKey)6315_storage)dyn_storage"
                    },
                    {
                        "astId": 6337,
                        "contract": "contracts/HtsSystemContract.sol:HtsSystemContract",
                        "label": "expiry",
                        "offset": 0,
                        "slot": "6",
                        "type": "t_struct(Expiry)6296_storage"
                    }
                ]
            },
            "t_struct(KeyValue)6308_storage": {
                "encoding": "inplace",
                "label": "struct IHederaTokenService.KeyValue",
                "numberOfBytes": "128",
                "members": [
                    {
                        "astId": 6299,
                        "contract": "contracts/HtsSystemContract.sol:HtsSystemContract",
                        "label": "inheritAccountKey",
                        "offset": 0,
                        "slot": "0",
                        "type": "t_bool"
                    },
                    {
                        "astId": 6301,
                        "contract": "contracts/HtsSystemContract.sol:HtsSystemContract",
                        "label": "contractId",
                        "offset": 1,
                        "slot": "0",
                        "type": "t_address"
                    },
                    {
                        "astId": 6303,
                        "contract": "contracts/HtsSystemContract.sol:HtsSystemContract",
                        "label": "ed25519",
                        "offset": 0,
                        "slot": "1",
                        "type": "t_bytes_storage"
                    },
                    {
                        "astId": 6305,
                        "contract": "contracts/HtsSystemContract.sol:HtsSystemContract",
                        "label": "ECDSA_secp256k1",
                        "offset": 0,
                        "slot": "2",
                        "type": "t_bytes_storage"
                    },
                    {
                        "astId": 6307,
                        "contract": "contracts/HtsSystemContract.sol:HtsSystemContract",
                        "label": "delegatableContractId",
                        "offset": 0,
                        "slot": "3",
                        "type": "t_address"
                    }
                ]
            },
            "t_struct(RoyaltyFee)6444_storage": {
                "encoding": "inplace",
                "label": "struct IHederaTokenService.RoyaltyFee",
                "numberOfBytes": "96",
                "members": [
                    {
                        "astId": 6433,
                        "contract": "contracts/HtsSystemContract.sol:HtsSystemContract",
                        "label": "numerator",
                        "offset": 0,
                        "slot": "0",
                        "type": "t_int64"
                    },
                    {
                        "astId": 6435,
                        "contract": "contracts/HtsSystemContract.sol:HtsSystemContract",
                        "label": "denominator",
                        "offset": 8,
                        "slot": "0",
                        "type": "t_int64"
                    },
                    {
                        "astId": 6437,
                        "contract": "contracts/HtsSystemContract.sol:HtsSystemContract",
                        "label": "amount",
                        "offset": 16,
                        "slot": "0",
                        "type": "t_int64"
                    },
                    {
                        "astId": 6439,
                        "contract": "contracts/HtsSystemContract.sol:HtsSystemContract",
                        "label": "tokenId",
                        "offset": 0,
                        "slot": "1",
                        "type": "t_address"
                    },
                    {
                        "astId": 6441,
                        "contract": "contracts/HtsSystemContract.sol:HtsSystemContract",
                        "label": "useHbarsForPayment",
                        "offset": 20,
                        "slot": "1",
                        "type": "t_bool"
                    },
                    {
                        "astId": 6443,
                        "contract": "contracts/HtsSystemContract.sol:HtsSystemContract",
                        "label": "feeCollector",
                        "offset": 0,
                        "slot": "2",
                        "type": "t_address"
                    }
                ]
            },
            "t_struct(TokenInfo)6374_storage": {
                "encoding": "inplace",
                "label": "struct IHederaTokenService.TokenInfo",
                "numberOfBytes": "416",
                "members": [
                    {
                        "astId": 6343,
                        "contract": "contracts/HtsSystemContract.sol:HtsSystemContract",
                        "label": "token",
                        "offset": 0,
                        "slot": "0",
                        "type": "t_struct(HederaToken)6338_storage"
                    },
                    {
                        "astId": 6346,
                        "contract": "contracts/HtsSystemContract.sol:HtsSystemContract",
                        "label": "totalSupply",
                        "offset": 0,
                        "slot": "8",
                        "type": "t_int64"
                    },
                    {
                        "astId": 6349,
                        "contract": "contracts/HtsSystemContract.sol:HtsSystemContract",
                        "label": "deleted",
                        "offset": 8,
                        "slot": "8",
                        "type": "t_bool"
                    },
                    {
                        "astId": 6352,
                        "contract": "contracts/HtsSystemContract.sol:HtsSystemContract",
                        "label": "defaultKycStatus",
                        "offset": 9,
                        "slot": "8",
                        "type": "t_bool"
                    },
                    {
                        "astId": 6355,
                        "contract": "contracts/HtsSystemContract.sol:HtsSystemContract",
                        "label": "pauseStatus",
                        "offset": 10,
                        "slot": "8",
                        "type": "t_bool"
                    },
                    {
                        "astId": 6360,
                        "contract": "contracts/HtsSystemContract.sol:HtsSystemContract",
                        "label": "fixedFees",
                        "offset": 0,
                        "slot": "9",
                        "type": "t_array(t_struct(FixedFee)6416_storage)dyn_storage"
                    },
                    {
                        "astId": 6365,
                        "contract": "contracts/HtsSystemContract.sol:HtsSystemContract",
                        "label": "fractionalFees",
                        "offset": 0,
                        "slot": "10",
                        "type": "t_array(t_struct(FractionalFee)6430_storage)dyn_storage"
                    },
                    {
                        "astId": 6370,
                        "contract": "contracts/HtsSystemContract.sol:HtsSystemContract",
                        "label": "royaltyFees",
                        "offset": 0,
                        "slot": "11",
                        "type": "t_array(t_struct(RoyaltyFee)6444_storage)dyn_storage"
                    },
                    {
                        "astId": 6373,
                        "contract": "contracts/HtsSystemContract.sol:HtsSystemContract",
                        "label": "ledgerId",
                        "offset": 0,
                        "slot": "12",
                        "type": "t_string_storage"
                    }
                ]
            },
            "t_struct(TokenKey)6315_storage": {
                "encoding": "inplace",
                "label": "struct IHederaTokenService.TokenKey",
                "numberOfBytes": "160",
                "members": [
                    {
                        "astId": 6311,
                        "contract": "contracts/HtsSystemContract.sol:HtsSystemContract",
                        "label": "keyType",
                        "offset": 0,
                        "slot": "0",
                        "type": "t_uint256"
                    },
                    {
                        "astId": 6314,
                        "contract": "contracts/HtsSystemContract.sol:HtsSystemContract",
                        "label": "key",
                        "offset": 0,
                        "slot": "1",
                        "type": "t_struct(KeyValue)6308_storage"
                    }
                ]
            },
            "t_uint256": {
                "encoding": "inplace",
                "label": "uint256",
                "numberOfBytes": "32"
            },
            "t_uint8": {
                "encoding": "inplace",
                "label": "uint8",
                "numberOfBytes": "1"
            }
        }
    },
    "userdoc": {
        "version": 1,
        "kind": "user",
        "methods": {
            "associateToken(address,address)": {
                "notice": "Single-token variant of associateTokens. Will be mapped to a single entry array call of associateTokens"
            },
            "associateTokens(address,address[])": {
                "notice": "Associates the provided account with the provided tokens. Must be signed by the provided  Account's key or called from the accounts contract key  If the provided account is not found, the transaction will resolve to INVALID_ACCOUNT_ID.  If the provided account has been deleted, the transaction will resolve to ACCOUNT_DELETED.  If any of the provided tokens is not found, the transaction will resolve to INVALID_TOKEN_REF.  If any of the provided tokens has been deleted, the transaction will resolve to TOKEN_WAS_DELETED.  If an association between the provided account and any of the tokens already exists, the  transaction will resolve to TOKEN_ALREADY_ASSOCIATED_TO_ACCOUNT.  If the provided account's associations count exceed the constraint of maximum token associations    per account, the transaction will resolve to TOKENS_PER_ACCOUNT_LIMIT_EXCEEDED.  On success, associations between the provided account and tokens are made and the account is    ready to interact with the tokens."
            },
            "dissociateToken(address,address)": {
                "notice": "Single-token variant of dissociateTokens. Will be mapped to a single entry array call of dissociateTokens"
            },
            "dissociateTokens(address,address[])": {
                "notice": "Dissociates the provided account with the provided tokens. Must be signed by the provided Account's key. If the provided account is not found, the transaction will resolve to INVALID_ACCOUNT_ID. If the provided account has been deleted, the transaction will resolve to ACCOUNT_DELETED. If any of the provided tokens is not found, the transaction will resolve to INVALID_TOKEN_REF. If any of the provided tokens has been deleted, the transaction will resolve to TOKEN_WAS_DELETED. If an association between the provided account and any of the tokens does not exist, the transaction will resolve to TOKEN_NOT_ASSOCIATED_TO_ACCOUNT. If a token has not been deleted and has not expired, and the user has a nonzero balance, the transaction will resolve to TRANSACTION_REQUIRES_ZERO_TOKEN_BALANCES. If a <b>fungible token</b> has expired, the user can disassociate even if their token balance is not zero. If a <b>non fungible token</b> has expired, the user can <b>not</b> disassociate if their token balance is not zero. The transaction will resolve to TRANSACTION_REQUIRED_ZERO_TOKEN_BALANCES. On success, associations between the provided account and tokens are removed."
            },
            "getApproved(address,uint256)": {
                "notice": "Get the approved address for a single NFT Only Applicable to NFT Tokens"
            },
            "getFungibleTokenInfo(address)": {
                "notice": "Query fungible token info"
            },
            "getNonFungibleTokenInfo(address,int64)": {
                "notice": "Query non fungible token info"
            },
            "getTokenCustomFees(address)": {
                "notice": "Query token custom fees"
            },
            "getTokenDefaultFreezeStatus(address)": {
                "notice": "Query token default freeze status"
            },
            "getTokenDefaultKycStatus(address)": {
                "notice": "Query token default kyc status"
            },
            "getTokenExpiryInfo(address)": {
                "notice": "Query token expiry info"
            },
            "getTokenInfo(address)": {
                "notice": "Query token info"
            },
            "getTokenKey(address,uint256)": {
                "notice": "Query token KeyValue"
            },
            "getTokenType(address)": {
                "notice": "Query to return the token type for a given address"
            },
            "isApprovedForAll(address,address,address)": {
                "notice": "Query if an address is an authorized operator for another address Only Applicable to NFT Tokens"
            },
            "isToken(address)": {
                "notice": "Query if valid token found for the given address"
            }
        }
    },
    "devdoc": {
        "version": 1,
        "kind": "dev",
        "methods": {
            "associateToken(address,address)": {
                "params": {
                    "account": "The account to be associated with the provided token",
                    "token": "The token to be associated with the provided account"
                }
            },
            "associateTokens(address,address[])": {
                "params": {
                    "account": "The account to be associated with the provided tokens",
                    "tokens": "The tokens to be associated with the provided account. In the case of NON_FUNGIBLE_UNIQUE               Type, once an account is associated, it can hold any number of NFTs (serial numbers) of that               token type"
                },
                "returns": {
                    "responseCode": "The response code for the status of the request. SUCCESS is 22."
                }
            },
            "dissociateToken(address,address)": {
                "params": {
                    "account": "The account to be associated with the provided token",
                    "token": "The token to be associated with the provided account"
                }
            },
            "dissociateTokens(address,address[])": {
                "params": {
                    "account": "The account to be dissociated from the provided tokens",
                    "tokens": "The tokens to be dissociated from the provided account."
                },
                "returns": {
                    "responseCode": "The response code for the status of the request. SUCCESS is 22."
                }
            },
            "getAccountId(address)": {
                "details": "Returns the account id (omitting both shard and realm numbers) of the given `address`. The storage adapter, _i.e._, `getHtsStorageAt`, assumes that both shard and realm numbers are zero. Thus, they can be omitted from the account id. See https://docs.hedera.com/hedera/core-concepts/accounts/account-properties for more info on account properties."
            },
            "getApproved(address,uint256)": {
                "params": {
                    "serialNumber": "The NFT to find the approved address for",
                    "token": "The Hedera NFT token address to check approval"
                },
                "returns": {
                    "approved": "The approved address for this NFT, or the zero address if there is none",
                    "responseCode": "The response code for the status of the request. SUCCESS is 22."
                }
            },
            "getFungibleTokenInfo(address)": {
                "params": {
                    "token": "The token address to check"
                },
                "returns": {
                    "_0": "The response code for the status of the request. SUCCESS is 22.",
                    "_1": "FungibleTokenInfo info for `token`"
                }
            },
            "getNonFungibleTokenInfo(address,int64)": {
                "params": {
                    "serialNumber": "The NFT serialNumber to check",
                    "token": "The token address to check"
                },
                "returns": {
                    "_0": "The response code for the status of the request. SUCCESS is 22.",
                    "_1": "NonFungibleTokenInfo info for `token` `serialNumber`"
                }
            },
            "getTokenCustomFees(address)": {
                "params": {
                    "token": "The token address to check"
                },
                "returns": {
                    "_0": "The response code for the status of the request. SUCCESS is 22.",
                    "_1": "Set of fixed fees for `token`",
                    "_2": "Set of fractional fees for `token`",
                    "_3": "Set of royalty fees for `token`"
                }
            },
            "getTokenDefaultFreezeStatus(address)": {
                "params": {
                    "token": "The token address to check"
                },
                "returns": {
                    "_0": "The response code for the status of the request. SUCCESS is 22.",
                    "_1": "True if `token` default freeze status is frozen."
                }
            },
            "getTokenDefaultKycStatus(address)": {
                "params": {
                    "token": "The token address to check"
                },
                "returns": {
                    "_0": "The response code for the status of the request. SUCCESS is 22.",
                    "_1": "True if `token` default kyc status is KycNotApplicable and false if Revoked."
                }
            },
            "getTokenExpiryInfo(address)": {
                "params": {
                    "token": "The token address to check"
                },
                "returns": {
                    "responseCode": "The response code for the status of the request. SUCCESS is 22.",
                    "tokenInfo": "Expiry info for `token`"
                }
            },
            "getTokenInfo(address)": {
                "params": {
                    "token": "The token address to check"
                },
                "returns": {
                    "responseCode": "The response code for the status of the request. SUCCESS is 22.",
                    "tokenInfo": "TokenInfo info for `token`"
                }
            },
            "getTokenKey(address,uint256)": {
                "params": {
                    "keyType": "The keyType of the desired KeyValue",
                    "token": "The token address to check"
                },
                "returns": {
                    "_0": "The response code for the status of the request. SUCCESS is 22.",
                    "_1": "KeyValue info for key of type `keyType`"
                }
            },
            "getTokenType(address)": {
                "params": {
                    "token": "The token address"
                },
                "returns": {
                    "_0": "The response code for the status of the request. SUCCESS is 22.",
                    "_1": "the token type. 0 is FUNGIBLE_COMMON, 1 is NON_FUNGIBLE_UNIQUE, -1 is UNRECOGNIZED"
                }
            },
            "isApprovedForAll(address,address,address)": {
                "params": {
                    "operator": "The address that acts on behalf of the owner",
                    "owner": "The address that owns the NFTs",
                    "token": "The Hedera NFT token address to approve"
                },
                "returns": {
                    "_0": "The response code for the status of the request. SUCCESS is 22.",
                    "_1": "True if `operator` is an approved operator for `owner`, false otherwise"
                }
            },
            "isToken(address)": {
                "params": {
                    "token": "The token address"
                },
                "returns": {
                    "_0": "The response code for the status of the request. SUCCESS is 22.",
                    "_1": "True if valid token found for the given address"
                }
            }
        },
        "events": {
            "Approval(address,address,uint256)": {
                "details": "Emitted when the allowance of a `spender` for an `owner` is set by a call to {approve}. `value` is the new allowance."
            },
            "Transfer(address,address,uint256)": {
                "details": "Emitted when `value` tokens are moved from one account (`from`) to another (`to`). Note that `value` may be zero."
            }
        }
    },
    "id": 1
}