{
  "abi": [
    {
      "type": "fallback",
      "stateMutability": "nonpayable"
    },
    {
      "type": "function",
      "name": "allowance",
      "inputs": [
        {
          "name": "owner",
          "type": "address",
          "internalType": "address"
        },
        {
          "name": "spender",
          "type": "address",
          "internalType": "address"
        }
      ],
      "outputs": [
        {
          "name": "",
          "type": "uint256",
          "internalType": "uint256"
        }
      ],
      "stateMutability": "view"
    },
    {
      "type": "function",
      "name": "allowancesAmounts",
      "inputs": [
        {
          "name": "",
          "type": "uint256",
          "internalType": "uint256"
        }
      ],
      "outputs": [
        {
          "name": "",
          "type": "uint256",
          "internalType": "uint256"
        }
      ],
      "stateMutability": "view"
    },
    {
      "type": "function",
      "name": "allowancesOwners",
      "inputs": [
        {
          "name": "",
          "type": "uint256",
          "internalType": "uint256"
        }
      ],
      "outputs": [
        {
          "name": "",
          "type": "address",
          "internalType": "address"
        }
      ],
      "stateMutability": "view"
    },
    {
      "type": "function",
      "name": "allowancesSpenders",
      "inputs": [
        {
          "name": "",
          "type": "uint256",
          "internalType": "uint256"
        }
      ],
      "outputs": [
        {
          "name": "",
          "type": "address",
          "internalType": "address"
        }
      ],
      "stateMutability": "view"
    },
    {
      "type": "function",
      "name": "approve",
      "inputs": [
        {
          "name": "spender",
          "type": "address",
          "internalType": "address"
        },
        {
          "name": "amount",
          "type": "uint256",
          "internalType": "uint256"
        }
      ],
      "outputs": [
        {
          "name": "",
          "type": "bool",
          "internalType": "bool"
        }
      ],
      "stateMutability": "nonpayable"
    },
    {
      "type": "function",
      "name": "associate",
      "inputs": [],
      "outputs": [],
      "stateMutability": "nonpayable"
    },
    {
      "type": "function",
      "name": "associatedAccounts",
      "inputs": [
        {
          "name": "",
          "type": "uint256",
          "internalType": "uint256"
        }
      ],
      "outputs": [
        {
          "name": "",
          "type": "address",
          "internalType": "address"
        }
      ],
      "stateMutability": "view"
    },
    {
      "type": "function",
      "name": "balances",
      "inputs": [
        {
          "name": "",
          "type": "uint256",
          "internalType": "uint256"
        }
      ],
      "outputs": [
        {
          "name": "",
          "type": "uint256",
          "internalType": "uint256"
        }
      ],
      "stateMutability": "view"
    },
    {
      "type": "function",
      "name": "dissociate",
      "inputs": [],
      "outputs": [],
      "stateMutability": "nonpayable"
    },
    {
      "type": "function",
      "name": "getAccountId",
      "inputs": [
        {
          "name": "account",
          "type": "address",
          "internalType": "address"
        }
      ],
      "outputs": [
        {
          "name": "accountId",
          "type": "uint32",
          "internalType": "uint32"
        }
      ],
      "stateMutability": "view"
    },
    {
      "type": "function",
      "name": "holders",
      "inputs": [
        {
          "name": "",
          "type": "uint256",
          "internalType": "uint256"
        }
      ],
      "outputs": [
        {
          "name": "",
          "type": "address",
          "internalType": "address"
        }
      ],
      "stateMutability": "view"
    },
    {
      "type": "function",
      "name": "isAssociated",
      "inputs": [
        {
          "name": "account",
          "type": "address",
          "internalType": "address"
        }
      ],
      "outputs": [
        {
          "name": "",
          "type": "bool",
          "internalType": "bool"
        }
      ],
      "stateMutability": "view"
    },
    {
      "type": "function",
      "name": "transfer",
      "inputs": [
        {
          "name": "recipient",
          "type": "address",
          "internalType": "address"
        },
        {
          "name": "amount",
          "type": "uint256",
          "internalType": "uint256"
        }
      ],
      "outputs": [
        {
          "name": "",
          "type": "bool",
          "internalType": "bool"
        }
      ],
      "stateMutability": "nonpayable"
    },
    {
      "type": "function",
      "name": "transferFrom",
      "inputs": [
        {
          "name": "sender",
          "type": "address",
          "internalType": "address"
        },
        {
          "name": "recipient",
          "type": "address",
          "internalType": "address"
        },
        {
          "name": "amount",
          "type": "uint256",
          "internalType": "uint256"
        }
      ],
      "outputs": [
        {
          "name": "",
          "type": "bool",
          "internalType": "bool"
        }
      ],
      "stateMutability": "nonpayable"
    },
    {
      "type": "event",
      "name": "Approval",
      "inputs": [
        {
          "name": "owner",
          "type": "address",
          "indexed": true,
          "internalType": "address"
        },
        {
          "name": "spender",
          "type": "address",
          "indexed": true,
          "internalType": "address"
        },
        {
          "name": "value",
          "type": "uint256",
          "indexed": false,
          "internalType": "uint256"
        }
      ],
      "anonymous": false
    },
    {
      "type": "event",
      "name": "Associated",
      "inputs": [
        {
          "name": "account",
          "type": "address",
          "indexed": true,
          "internalType": "address"
        }
      ],
      "anonymous": false
    },
    {
      "type": "event",
      "name": "Dissociated",
      "inputs": [
        {
          "name": "account",
          "type": "address",
          "indexed": true,
          "internalType": "address"
        }
      ],
      "anonymous": false
    },
    {
      "type": "event",
      "name": "Transfer",
      "inputs": [
        {
          "name": "from",
          "type": "address",
          "indexed": true,
          "internalType": "address"
        },
        {
          "name": "to",
          "type": "address",
          "indexed": true,
          "internalType": "address"
        },
        {
          "name": "value",
          "type": "uint256",
          "indexed": false,
          "internalType": "uint256"
        }
      ],
      "anonymous": false
    }
  ],
  "bytecode": {
    "object": "0x6080604052348015600f57600080fd5b506115758061001f6000396000f3fe608060405234801561001057600080fd5b50600436106100ea5760003560e01c80635c9217e01161008c578063a9059cbb11610066578063a9059cbb14610313578063d55fe58214610326578063dd62ed3e14610339578063e0b490f71461034c576100ea565b80635c9217e0146102e557806381f64633146102ed578063a32cfadf14610300576100ea565b806323b872dd116100c857806323b872dd1461028b5780632a11ced01461029e5780633e9bf494146102b15780634903b0d1146102c4576100ea565b8063095ea7b31461022e5780630a754de6146102565780631316589a14610260575b6000366060601c82101561013b5760405162461bcd60e51b81526020600482015260136024820152724e6f7420656e6f7567682063616c6c6461746160681b60448201526064015b60405180910390fd5b600061014a6004823681611253565b6101539161127d565b60e01c905063618dc65e81146101ab5760405162461bcd60e51b815260206004820152601f60248201527f46616c6c6261636b2073656c6563746f72206e6f7420737570706f72746564006044820152606401610132565b60006101bb601860043684611253565b6101c4916112b5565b60601c90503081146102185760405162461bcd60e51b815260206004820152601c60248201527f43616c6c6461746120746f6b656e206973206e6f742063616c6c6572000000006044820152606401610132565b610220610374565b805195506020019350505050f35b61024161023c366004611307565b610662565b60405190151581526020015b60405180910390f35b61025e6107be565b005b61027361026e366004611331565b610877565b6040516001600160a01b03909116815260200161024d565b61024161029936600461134a565b6108a1565b6102736102ac366004611331565b610bca565b6102736102bf366004611331565b610bda565b6102d76102d2366004611331565b610bea565b60405190815260200161024d565b61025e610c0b565b6102d76102fb366004611331565b610dab565b61027361030e366004611331565b610dbb565b610241610321366004611307565b610dcb565b610241610334366004611387565b610fba565b6102d76103473660046113a9565b610fd2565b61035f61035a366004611387565b61108b565b60405163ffffffff909116815260200161024d565b60606000610386601c60183684611253565b61038f9161127d565b905063f90221fd60e01b6001600160e01b03198216016103d05760006040516020016103bb91906113dc565b60405160208183030381529060405291505090565b63cec31a9960e01b6001600160e01b03198216016103ff576002546040805160ff9092166020830152016103bb565b63e7e9f22360e01b6001600160e01b031982160161042c576003546040516020016103bb91815260200190565b636a2764bf60e01b6001600160e01b03198216016104565760016040516020016103bb91906113dc565b638f5f7dcf60e01b6001600160e01b03198216016104bd57600061047e603c60283684611253565b610487916112b5565b60601c905061049581611131565b6040516020016104a791815260200190565b6040516020818303038152906040529250505090565b6356fa634560e01b6001600160e01b03198216016105405760006104e5603c60283684611253565b6104ee916112b5565b60601c90506000610503605c603c3684611253565b8101906105109190611331565b905061051c8282610dcb565b60408051911515602083015201604051602081830303815290604052935050505090565b63f6a1584d60e01b6001600160e01b031982160161059f576000610568603c60283684611253565b610571916112b5565b60601c90506000610586605c603c3684611253565b8101906105939190611331565b905061051c8282610662565b63114e896160e11b6001600160e01b03198216016105fd5760006105c7603c60283684611253565b6105d0916112b5565b60601c905060006105e56050603c3684611253565b6105ee916112b5565b60601c905061051c8282610662565b6315500d3f60e11b6001600160e01b031982160161064e576000610625603c60283684611253565b61062e916112b5565b60601c905061063c81610fba565b604080519115156020830152016104a7565b505060408051602081019091526000815290565b6000806106703360066111f6565b9050600061067f8560076111f6565b9050600019821415801561069557506000198114155b156106bf5783600883815481106106ae576106ae61148a565b600091825260209091200155610770565b6006805460018082019092557ff652222313e28459528d920b65115c16c04f3efc82aaedc97be59f3f377c0d3f018054336001600160a01b031991821617909155600780548084019091557fa66cc928b5edb82af9bd49922954155ab7b0942694bea4ce44661d9a8736c6880180549091166001600160a01b0388161790556008805491820181556000527ff3f7a9fe364faab93b216da50a3214154f22a0a2b415b23a84c8169e8b636ee3018490555b6040518481526001600160a01b0386169033907f8c5be1e5ebec7d5bd14f71427d1e84f3dd0314c0f7b2291e5b200ac8c7c3b925906020015b60405180910390a36001925050505b92915050565b6107c733610fba565b156108095760405162461bcd60e51b8152602060048201526012602482015271105b1c9958591e48185cdcdbd8da585d195960721b6044820152606401610132565b6009805460018101825560009182527f6e1540171b6c0c960b71a7020d9f60077f6af931a8bbf590da0223dacf75c7af0180546001600160a01b0319163390811790915560405190917fda6345b38edaa845627162ea9f0d5b76b9cbfc7f140a8629708200f4640cffa791a2565b6006818154811061088757600080fd5b6000918252602090912001546001600160a01b0316905081565b6000806108af8560046111f6565b905060006108be3360076111f6565b905060001982036109045760405162461bcd60e51b815260206004820152601060248201526f14d95b99195c881b9bdd08199bdd5b9960821b6044820152606401610132565b856001600160a01b0316600682815481106109215761092161148a565b6000918252602090912001546001600160a01b03161461097b5760405162461bcd60e51b815260206004820152601560248201527414d95b99195c881b9bdd08185d5d1a1bdc9a5e9959605a1b6044820152606401610132565b836005838154811061098f5761098f61148a565b906000526020600020015410156109df5760405162461bcd60e51b8152602060048201526014602482015273496e73756666696369656e742062616c616e636560601b6044820152606401610132565b83600882815481106109f3576109f361148a565b90600052602060002001541015610a415760405162461bcd60e51b8152602060048201526012602482015271105b1b1bddd85b98d948195e18d95959195960721b6044820152606401610132565b8360058381548110610a5557610a5561148a565b906000526020600020016000828254610a6e91906114b6565b925050819055508360088281548110610a8957610a8961148a565b906000526020600020016000828254610aa291906114b6565b9091555060009050610ab58660046111f6565b90506000198103610b3d576004805460018082019092557f8a35acfbc15ff81a39ae7d344fd709f28e8600b4aa8c65c6b64bfe7fe36bd19b0180546001600160a01b0319166001600160a01b0389161790556005805491820181556000527f036b6384b5eca791c62761152d0c79bb0604c104a5fb6f4eb0703f3154bb3db001859055610b70565b8460058281548110610b5157610b5161148a565b906000526020600020016000828254610b6a91906114c9565b90915550505b856001600160a01b0316876001600160a01b03167fddf252ad1be2c89b69c2b068fc378daa952ba7f163c4a11628f55a4df523b3ef87604051610bb591815260200190565b60405180910390a35060019695505050505050565b6004818154811061088757600080fd5b6009818154811061088757600080fd5b60058181548110610bfa57600080fd5b600091825260209091200154905081565b610c1433610fba565b610c515760405162461bcd60e51b815260206004820152600e60248201526d139bdd08185cdcdbd8da585d195960921b6044820152606401610132565b610c5a33611131565b15610cb75760405162461bcd60e51b815260206004820152602760248201527f43616e6e6f7420646973736f63696174652077697468206e6f6e2d7a65726f2060448201526662616c616e636560c81b6064820152608401610132565b6000610cc43360096111f6565b90506000198114610d7d5760098054610cdf906001906114b6565b81548110610cef57610cef61148a565b600091825260209091200154600980546001600160a01b039092169183908110610d1b57610d1b61148a565b9060005260206000200160006101000a8154816001600160a01b0302191690836001600160a01b031602179055506009805480610d5a57610d5a6114dc565b600082815260209020810160001990810180546001600160a01b03191690550190555b60405133907fa4cb7525a89db51eeba2c222d0023bdf55a07d3e2d2f12e33a35c5d1a94f339e90600090a250565b60088181548110610bfa57600080fd5b6007818154811061088757600080fd5b600080610dd93360046111f6565b90506000198103610e1f5760405162461bcd60e51b815260206004820152601060248201526f14d95b99195c881b9bdd08199bdd5b9960821b6044820152606401610132565b8260058281548110610e3357610e3361148a565b90600052602060002001541015610e835760405162461bcd60e51b8152602060048201526014602482015273496e73756666696369656e742062616c616e636560601b6044820152606401610132565b6000610e908560066111f6565b90506000198103610f18576004805460018082019092557f8a35acfbc15ff81a39ae7d344fd709f28e8600b4aa8c65c6b64bfe7fe36bd19b0180546001600160a01b0319166001600160a01b0388161790556005805491820181556000527f036b6384b5eca791c62761152d0c79bb0604c104a5fb6f4eb0703f3154bb3db001849055610f4b565b8360058281548110610f2c57610f2c61148a565b906000526020600020016000828254610f4591906114c9565b90915550505b8360058381548110610f5f57610f5f61148a565b906000526020600020016000828254610f7891906114b6565b90915550506040518481526001600160a01b0386169033907fddf252ad1be2c89b69c2b068fc378daa952ba7f163c4a11628f55a4df523b3ef906020016107a9565b6000600019610fca8360096111f6565b141592915050565b6000805b60065481101561108157836001600160a01b031660068281548110610ffd57610ffd61148a565b6000918252602090912001546001600160a01b031614801561104e5750826001600160a01b0316600782815481106110375761103761148a565b6000918252602090912001546001600160a01b0316145b1561107957600881815481106110665761106661148a565b90600052602060002001549150506107b8565b600101610fd6565b5060009392505050565b600030610167146110de5760405162461bcd60e51b815260206004820152601760248201527f68747343616c6c3a2064656c6567617465642063616c6c0000000000000000006044820152606401610132565b6040805163e0b490f760e01b60208201526000602482018190526001600160601b0319606086901b16602c83015291829101604051602081830303815290604052611128906114f2565b54949350505050565b60405163e0b490f760e01b81526001600160a01b038216600482015260009081906101679063e0b490f790602401602060405180830381865afa15801561117c573d6000803e3d6000fd5b505050506040513d601f19601f820116820180604052508101906111a09190611519565b604080516370a0823160e01b602082015260006024820181905260e084901b6001600160e01b031916603c8301529293508291016040516020818303038152906040526111ec906114f2565b5495945050505050565b6000805b825481101561124857836001600160a01b031683828154811061121f5761121f61148a565b6000918252602090912001546001600160a01b0316036112405790506107b8565b6001016111fa565b506000199392505050565b6000808585111561126357600080fd5b8386111561127057600080fd5b5050820193919092039150565b80356001600160e01b031981169060048410156112ae576001600160e01b0319600485900360031b81901b82161691505b5092915050565b80356001600160601b031981169060148410156112ae576001600160601b031960149490940360031b84901b1690921692915050565b80356001600160a01b038116811461130257600080fd5b919050565b6000806040838503121561131a57600080fd5b611323836112eb565b946020939093013593505050565b60006020828403121561134357600080fd5b5035919050565b60008060006060848603121561135f57600080fd5b611368846112eb565b9250611376602085016112eb565b929592945050506040919091013590565b60006020828403121561139957600080fd5b6113a2826112eb565b9392505050565b600080604083850312156113bc57600080fd5b6113c5836112eb565b91506113d3602084016112eb565b90509250929050565b602081526000808354818160011c905060018216806113fc57607f821691505b60208210810361141a57634e487b7160e01b84526022600452602484fd5b6020860182905260408601818015611439576001811461144f5761147d565b60ff198516825283151560051b8201955061147d565b60008981526020902060005b858110156114775781548482015260019091019060200161145b565b83019650505b5093979650505050505050565b634e487b7160e01b600052603260045260246000fd5b634e487b7160e01b600052601160045260246000fd5b818103818111156107b8576107b86114a0565b808201808211156107b8576107b86114a0565b634e487b7160e01b600052603160045260246000fd5b80516020808301519190811015611513576000198160200360031b1b821691505b50919050565b60006020828403121561152b57600080fd5b815163ffffffff811681146113a257600080fdfea26469706673582212202e4b205264f51af230574f0dd1c0f269e9665a15a282a9dc7682dd1b9bd7be7964736f6c634300081a0033",
    "linkReferences": {}
  },
  "methodIdentifiers": {
    "allowance(address,address)": "dd62ed3e",
    "allowancesAmounts(uint256)": "81f64633",
    "allowancesOwners(uint256)": "1316589a",
    "allowancesSpenders(uint256)": "a32cfadf",
    "approve(address,uint256)": "095ea7b3",
    "associate()": "0a754de6",
    "associatedAccounts(uint256)": "3e9bf494",
    "balances(uint256)": "4903b0d1",
    "dissociate()": "5c9217e0",
    "getAccountId(address)": "e0b490f7",
    "holders(uint256)": "2a11ced0",
    "isAssociated(address)": "d55fe582",
    "transfer(address,uint256)": "a9059cbb",
    "transferFrom(address,address,uint256)": "23b872dd"
  },
  "storageLayout": {
    "storage": [
      {
        "astId": 38995,
        "contract": "src/HtsSystemContract.sol:HtsSystemContract",
        "label": "name",
        "offset": 0,
        "slot": "0",
        "type": "t_string_storage"
      },
      {
        "astId": 38997,
        "contract": "src/HtsSystemContract.sol:HtsSystemContract",
        "label": "symbol",
        "offset": 0,
        "slot": "1",
        "type": "t_string_storage"
      },
      {
        "astId": 38999,
        "contract": "src/HtsSystemContract.sol:HtsSystemContract",
        "label": "decimals",
        "offset": 0,
        "slot": "2",
        "type": "t_uint8"
      },
      {
        "astId": 39001,
        "contract": "src/HtsSystemContract.sol:HtsSystemContract",
        "label": "totalSupply",
        "offset": 0,
        "slot": "3",
        "type": "t_uint256"
      },
      {
        "astId": 39004,
        "contract": "src/HtsSystemContract.sol:HtsSystemContract",
        "label": "holders",
        "offset": 0,
        "slot": "4",
        "type": "t_array(t_address)dyn_storage"
      },
      {
        "astId": 39007,
        "contract": "src/HtsSystemContract.sol:HtsSystemContract",
        "label": "balances",
        "offset": 0,
        "slot": "5",
        "type": "t_array(t_uint256)dyn_storage"
      },
      {
        "astId": 39011,
        "contract": "src/HtsSystemContract.sol:HtsSystemContract",
        "label": "allowancesOwners",
        "offset": 0,
        "slot": "6",
        "type": "t_array(t_address)dyn_storage"
      },
      {
        "astId": 39014,
        "contract": "src/HtsSystemContract.sol:HtsSystemContract",
        "label": "allowancesSpenders",
        "offset": 0,
        "slot": "7",
        "type": "t_array(t_address)dyn_storage"
      },
      {
        "astId": 39017,
        "contract": "src/HtsSystemContract.sol:HtsSystemContract",
        "label": "allowancesAmounts",
        "offset": 0,
        "slot": "8",
        "type": "t_array(t_uint256)dyn_storage"
      },
      {
        "astId": 39020,
        "contract": "src/HtsSystemContract.sol:HtsSystemContract",
        "label": "associatedAccounts",
        "offset": 0,
        "slot": "9",
        "type": "t_array(t_address)dyn_storage"
      }
    ],
    "types": {
      "t_address": {
        "encoding": "inplace",
        "label": "address",
        "numberOfBytes": "20"
      },
      "t_array(t_address)dyn_storage": {
        "encoding": "dynamic_array",
        "label": "address[]",
        "numberOfBytes": "32",
        "base": "t_address"
      },
      "t_array(t_uint256)dyn_storage": {
        "encoding": "dynamic_array",
        "label": "uint256[]",
        "numberOfBytes": "32",
        "base": "t_uint256"
      },
      "t_string_storage": {
        "encoding": "bytes",
        "label": "string",
        "numberOfBytes": "32"
      },
      "t_uint256": {
        "encoding": "inplace",
        "label": "uint256",
        "numberOfBytes": "32"
      },
      "t_uint8": {
        "encoding": "inplace",
        "label": "uint8",
        "numberOfBytes": "1"
      }
    }
  },
  "id": 23
}