{
    "abi": [
        {
            "type": "fallback",
            "stateMutability": "nonpayable"
        },
        {
            "type": "function",
            "name": "_update",
            "inputs": [
                {
                    "name": "from",
                    "type": "address",
                    "internalType": "address"
                },
                {
                    "name": "to",
                    "type": "address",
                    "internalType": "address"
                },
                {
                    "name": "amount",
                    "type": "uint256",
                    "internalType": "uint256"
                }
            ],
            "outputs": [],
            "stateMutability": "nonpayable"
        },
        {
            "type": "function",
            "name": "associateToken",
            "inputs": [
                {
                    "name": "account",
                    "type": "address",
                    "internalType": "address"
                },
                {
                    "name": "token",
                    "type": "address",
                    "internalType": "address"
                }
            ],
            "outputs": [
                {
                    "name": "responseCode",
                    "type": "int64",
                    "internalType": "int64"
                }
            ],
            "stateMutability": "nonpayable"
        },
        {
            "type": "function",
            "name": "associateTokens",
            "inputs": [
                {
                    "name": "account",
                    "type": "address",
                    "internalType": "address"
                },
                {
                    "name": "tokens",
                    "type": "address[]",
                    "internalType": "address[]"
                }
            ],
            "outputs": [
                {
                    "name": "responseCode",
                    "type": "int64",
                    "internalType": "int64"
                }
            ],
            "stateMutability": "nonpayable"
        },
        {
            "type": "function",
            "name": "burnToken",
            "inputs": [
                {
                    "name": "token",
                    "type": "address",
                    "internalType": "address"
                },
                {
                    "name": "amount",
                    "type": "int64",
                    "internalType": "int64"
                },
                {
                    "name": "",
                    "type": "int64[]",
                    "internalType": "int64[]"
                }
            ],
            "outputs": [
                {
                    "name": "responseCode",
                    "type": "int64",
                    "internalType": "int64"
                },
                {
                    "name": "newTotalSupply",
                    "type": "int64",
                    "internalType": "int64"
                }
            ],
            "stateMutability": "nonpayable"
        },
        {
            "type": "function",
            "name": "dissociateToken",
            "inputs": [
                {
                    "name": "account",
                    "type": "address",
                    "internalType": "address"
                },
                {
                    "name": "token",
                    "type": "address",
                    "internalType": "address"
                }
            ],
            "outputs": [
                {
                    "name": "responseCode",
                    "type": "int64",
                    "internalType": "int64"
                }
            ],
            "stateMutability": "nonpayable"
        },
        {
            "type": "function",
            "name": "dissociateTokens",
            "inputs": [
                {
                    "name": "account",
                    "type": "address",
                    "internalType": "address"
                },
                {
                    "name": "tokens",
                    "type": "address[]",
                    "internalType": "address[]"
                }
            ],
            "outputs": [
                {
                    "name": "responseCode",
                    "type": "int64",
                    "internalType": "int64"
                }
            ],
            "stateMutability": "nonpayable"
        },
        {
            "type": "function",
            "name": "getAccountId",
            "inputs": [
                {
                    "name": "account",
                    "type": "address",
                    "internalType": "address"
                }
            ],
            "outputs": [
                {
                    "name": "accountId",
                    "type": "uint32",
                    "internalType": "uint32"
                }
            ],
            "stateMutability": "view"
        },
        {
            "type": "function",
            "name": "getApproved",
            "inputs": [
                {
                    "name": "token",
                    "type": "address",
                    "internalType": "address"
                },
                {
                    "name": "serialNumber",
                    "type": "uint256",
                    "internalType": "uint256"
                }
            ],
            "outputs": [
                {
                    "name": "responseCode",
                    "type": "int64",
                    "internalType": "int64"
                },
                {
                    "name": "approved",
                    "type": "address",
                    "internalType": "address"
                }
            ],
            "stateMutability": "view"
        },
        {
            "type": "function",
            "name": "getFungibleTokenInfo",
            "inputs": [
                {
                    "name": "token",
                    "type": "address",
                    "internalType": "address"
                }
            ],
            "outputs": [
                {
                    "name": "",
                    "type": "int64",
                    "internalType": "int64"
                },
                {
                    "name": "",
                    "type": "tuple",
                    "internalType": "struct IHederaTokenService.FungibleTokenInfo",
                    "components": [
                        {
                            "name": "tokenInfo",
                            "type": "tuple",
                            "internalType": "struct IHederaTokenService.TokenInfo",
                            "components": [
                                {
                                    "name": "token",
                                    "type": "tuple",
                                    "internalType": "struct IHederaTokenService.HederaToken",
                                    "components": [
                                        {
                                            "name": "name",
                                            "type": "string",
                                            "internalType": "string"
                                        },
                                        {
                                            "name": "symbol",
                                            "type": "string",
                                            "internalType": "string"
                                        },
                                        {
                                            "name": "treasury",
                                            "type": "address",
                                            "internalType": "address"
                                        },
                                        {
                                            "name": "memo",
                                            "type": "string",
                                            "internalType": "string"
                                        },
                                        {
                                            "name": "tokenSupplyType",
                                            "type": "bool",
                                            "internalType": "bool"
                                        },
                                        {
                                            "name": "maxSupply",
                                            "type": "int64",
                                            "internalType": "int64"
                                        },
                                        {
                                            "name": "freezeDefault",
                                            "type": "bool",
                                            "internalType": "bool"
                                        },
                                        {
                                            "name": "tokenKeys",
                                            "type": "tuple[]",
                                            "internalType": "struct IHederaTokenService.TokenKey[]",
                                            "components": [
                                                {
                                                    "name": "keyType",
                                                    "type": "uint256",
                                                    "internalType": "uint256"
                                                },
                                                {
                                                    "name": "key",
                                                    "type": "tuple",
                                                    "internalType": "struct IHederaTokenService.KeyValue",
                                                    "components": [
                                                        {
                                                            "name": "inheritAccountKey",
                                                            "type": "bool",
                                                            "internalType": "bool"
                                                        },
                                                        {
                                                            "name": "contractId",
                                                            "type": "address",
                                                            "internalType": "address"
                                                        },
                                                        {
                                                            "name": "ed25519",
                                                            "type": "bytes",
                                                            "internalType": "bytes"
                                                        },
                                                        {
                                                            "name": "ECDSA_secp256k1",
                                                            "type": "bytes",
                                                            "internalType": "bytes"
                                                        },
                                                        {
                                                            "name": "delegatableContractId",
                                                            "type": "address",
                                                            "internalType": "address"
                                                        }
                                                    ]
                                                }
                                            ]
                                        },
                                        {
                                            "name": "expiry",
                                            "type": "tuple",
                                            "internalType": "struct IHederaTokenService.Expiry",
                                            "components": [
                                                {
                                                    "name": "second",
                                                    "type": "int64",
                                                    "internalType": "int64"
                                                },
                                                {
                                                    "name": "autoRenewAccount",
                                                    "type": "address",
                                                    "internalType": "address"
                                                },
                                                {
                                                    "name": "autoRenewPeriod",
                                                    "type": "int64",
                                                    "internalType": "int64"
                                                }
                                            ]
                                        }
                                    ]
                                },
                                {
                                    "name": "totalSupply",
                                    "type": "int64",
                                    "internalType": "int64"
                                },
                                {
                                    "name": "deleted",
                                    "type": "bool",
                                    "internalType": "bool"
                                },
                                {
                                    "name": "defaultKycStatus",
                                    "type": "bool",
                                    "internalType": "bool"
                                },
                                {
                                    "name": "pauseStatus",
                                    "type": "bool",
                                    "internalType": "bool"
                                },
                                {
                                    "name": "fixedFees",
                                    "type": "tuple[]",
                                    "internalType": "struct IHederaTokenService.FixedFee[]",
                                    "components": [
                                        {
                                            "name": "amount",
                                            "type": "int64",
                                            "internalType": "int64"
                                        },
                                        {
                                            "name": "tokenId",
                                            "type": "address",
                                            "internalType": "address"
                                        },
                                        {
                                            "name": "useHbarsForPayment",
                                            "type": "bool",
                                            "internalType": "bool"
                                        },
                                        {
                                            "name": "useCurrentTokenForPayment",
                                            "type": "bool",
                                            "internalType": "bool"
                                        },
                                        {
                                            "name": "feeCollector",
                                            "type": "address",
                                            "internalType": "address"
                                        }
                                    ]
                                },
                                {
                                    "name": "fractionalFees",
                                    "type": "tuple[]",
                                    "internalType": "struct IHederaTokenService.FractionalFee[]",
                                    "components": [
                                        {
                                            "name": "numerator",
                                            "type": "int64",
                                            "internalType": "int64"
                                        },
                                        {
                                            "name": "denominator",
                                            "type": "int64",
                                            "internalType": "int64"
                                        },
                                        {
                                            "name": "minimumAmount",
                                            "type": "int64",
                                            "internalType": "int64"
                                        },
                                        {
                                            "name": "maximumAmount",
                                            "type": "int64",
                                            "internalType": "int64"
                                        },
                                        {
                                            "name": "netOfTransfers",
                                            "type": "bool",
                                            "internalType": "bool"
                                        },
                                        {
                                            "name": "feeCollector",
                                            "type": "address",
                                            "internalType": "address"
                                        }
                                    ]
                                },
                                {
                                    "name": "royaltyFees",
                                    "type": "tuple[]",
                                    "internalType": "struct IHederaTokenService.RoyaltyFee[]",
                                    "components": [
                                        {
                                            "name": "numerator",
                                            "type": "int64",
                                            "internalType": "int64"
                                        },
                                        {
                                            "name": "denominator",
                                            "type": "int64",
                                            "internalType": "int64"
                                        },
                                        {
                                            "name": "amount",
                                            "type": "int64",
                                            "internalType": "int64"
                                        },
                                        {
                                            "name": "tokenId",
                                            "type": "address",
                                            "internalType": "address"
                                        },
                                        {
                                            "name": "useHbarsForPayment",
                                            "type": "bool",
                                            "internalType": "bool"
                                        },
                                        {
                                            "name": "feeCollector",
                                            "type": "address",
                                            "internalType": "address"
                                        }
                                    ]
                                },
                                {
                                    "name": "ledgerId",
                                    "type": "string",
                                    "internalType": "string"
                                }
                            ]
                        },
                        {
                            "name": "decimals",
                            "type": "int32",
                            "internalType": "int32"
                        }
                    ]
                }
            ],
            "stateMutability": "nonpayable"
        },
        {
            "type": "function",
            "name": "getNonFungibleTokenInfo",
            "inputs": [
                {
                    "name": "token",
                    "type": "address",
                    "internalType": "address"
                },
                {
                    "name": "serialNumber",
                    "type": "int64",
                    "internalType": "int64"
                }
            ],
            "outputs": [
                {
                    "name": "",
                    "type": "int64",
                    "internalType": "int64"
                },
                {
                    "name": "",
                    "type": "tuple",
                    "internalType": "struct IHederaTokenService.NonFungibleTokenInfo",
                    "components": [
                        {
                            "name": "tokenInfo",
                            "type": "tuple",
                            "internalType": "struct IHederaTokenService.TokenInfo",
                            "components": [
                                {
                                    "name": "token",
                                    "type": "tuple",
                                    "internalType": "struct IHederaTokenService.HederaToken",
                                    "components": [
                                        {
                                            "name": "name",
                                            "type": "string",
                                            "internalType": "string"
                                        },
                                        {
                                            "name": "symbol",
                                            "type": "string",
                                            "internalType": "string"
                                        },
                                        {
                                            "name": "treasury",
                                            "type": "address",
                                            "internalType": "address"
                                        },
                                        {
                                            "name": "memo",
                                            "type": "string",
                                            "internalType": "string"
                                        },
                                        {
                                            "name": "tokenSupplyType",
                                            "type": "bool",
                                            "internalType": "bool"
                                        },
                                        {
                                            "name": "maxSupply",
                                            "type": "int64",
                                            "internalType": "int64"
                                        },
                                        {
                                            "name": "freezeDefault",
                                            "type": "bool",
                                            "internalType": "bool"
                                        },
                                        {
                                            "name": "tokenKeys",
                                            "type": "tuple[]",
                                            "internalType": "struct IHederaTokenService.TokenKey[]",
                                            "components": [
                                                {
                                                    "name": "keyType",
                                                    "type": "uint256",
                                                    "internalType": "uint256"
                                                },
                                                {
                                                    "name": "key",
                                                    "type": "tuple",
                                                    "internalType": "struct IHederaTokenService.KeyValue",
                                                    "components": [
                                                        {
                                                            "name": "inheritAccountKey",
                                                            "type": "bool",
                                                            "internalType": "bool"
                                                        },
                                                        {
                                                            "name": "contractId",
                                                            "type": "address",
                                                            "internalType": "address"
                                                        },
                                                        {
                                                            "name": "ed25519",
                                                            "type": "bytes",
                                                            "internalType": "bytes"
                                                        },
                                                        {
                                                            "name": "ECDSA_secp256k1",
                                                            "type": "bytes",
                                                            "internalType": "bytes"
                                                        },
                                                        {
                                                            "name": "delegatableContractId",
                                                            "type": "address",
                                                            "internalType": "address"
                                                        }
                                                    ]
                                                }
                                            ]
                                        },
                                        {
                                            "name": "expiry",
                                            "type": "tuple",
                                            "internalType": "struct IHederaTokenService.Expiry",
                                            "components": [
                                                {
                                                    "name": "second",
                                                    "type": "int64",
                                                    "internalType": "int64"
                                                },
                                                {
                                                    "name": "autoRenewAccount",
                                                    "type": "address",
                                                    "internalType": "address"
                                                },
                                                {
                                                    "name": "autoRenewPeriod",
                                                    "type": "int64",
                                                    "internalType": "int64"
                                                }
                                            ]
                                        }
                                    ]
                                },
                                {
                                    "name": "totalSupply",
                                    "type": "int64",
                                    "internalType": "int64"
                                },
                                {
                                    "name": "deleted",
                                    "type": "bool",
                                    "internalType": "bool"
                                },
                                {
                                    "name": "defaultKycStatus",
                                    "type": "bool",
                                    "internalType": "bool"
                                },
                                {
                                    "name": "pauseStatus",
                                    "type": "bool",
                                    "internalType": "bool"
                                },
                                {
                                    "name": "fixedFees",
                                    "type": "tuple[]",
                                    "internalType": "struct IHederaTokenService.FixedFee[]",
                                    "components": [
                                        {
                                            "name": "amount",
                                            "type": "int64",
                                            "internalType": "int64"
                                        },
                                        {
                                            "name": "tokenId",
                                            "type": "address",
                                            "internalType": "address"
                                        },
                                        {
                                            "name": "useHbarsForPayment",
                                            "type": "bool",
                                            "internalType": "bool"
                                        },
                                        {
                                            "name": "useCurrentTokenForPayment",
                                            "type": "bool",
                                            "internalType": "bool"
                                        },
                                        {
                                            "name": "feeCollector",
                                            "type": "address",
                                            "internalType": "address"
                                        }
                                    ]
                                },
                                {
                                    "name": "fractionalFees",
                                    "type": "tuple[]",
                                    "internalType": "struct IHederaTokenService.FractionalFee[]",
                                    "components": [
                                        {
                                            "name": "numerator",
                                            "type": "int64",
                                            "internalType": "int64"
                                        },
                                        {
                                            "name": "denominator",
                                            "type": "int64",
                                            "internalType": "int64"
                                        },
                                        {
                                            "name": "minimumAmount",
                                            "type": "int64",
                                            "internalType": "int64"
                                        },
                                        {
                                            "name": "maximumAmount",
                                            "type": "int64",
                                            "internalType": "int64"
                                        },
                                        {
                                            "name": "netOfTransfers",
                                            "type": "bool",
                                            "internalType": "bool"
                                        },
                                        {
                                            "name": "feeCollector",
                                            "type": "address",
                                            "internalType": "address"
                                        }
                                    ]
                                },
                                {
                                    "name": "royaltyFees",
                                    "type": "tuple[]",
                                    "internalType": "struct IHederaTokenService.RoyaltyFee[]",
                                    "components": [
                                        {
                                            "name": "numerator",
                                            "type": "int64",
                                            "internalType": "int64"
                                        },
                                        {
                                            "name": "denominator",
                                            "type": "int64",
                                            "internalType": "int64"
                                        },
                                        {
                                            "name": "amount",
                                            "type": "int64",
                                            "internalType": "int64"
                                        },
                                        {
                                            "name": "tokenId",
                                            "type": "address",
                                            "internalType": "address"
                                        },
                                        {
                                            "name": "useHbarsForPayment",
                                            "type": "bool",
                                            "internalType": "bool"
                                        },
                                        {
                                            "name": "feeCollector",
                                            "type": "address",
                                            "internalType": "address"
                                        }
                                    ]
                                },
                                {
                                    "name": "ledgerId",
                                    "type": "string",
                                    "internalType": "string"
                                }
                            ]
                        },
                        {
                            "name": "serialNumber",
                            "type": "int64",
                            "internalType": "int64"
                        },
                        {
                            "name": "ownerId",
                            "type": "address",
                            "internalType": "address"
                        },
                        {
                            "name": "creationTime",
                            "type": "int64",
                            "internalType": "int64"
                        },
                        {
                            "name": "metadata",
                            "type": "bytes",
                            "internalType": "bytes"
                        },
                        {
                            "name": "spenderId",
                            "type": "address",
                            "internalType": "address"
                        }
                    ]
                }
            ],
            "stateMutability": "nonpayable"
        },
        {
            "type": "function",
            "name": "getTokenCustomFees",
            "inputs": [
                {
                    "name": "token",
                    "type": "address",
                    "internalType": "address"
                }
            ],
            "outputs": [
                {
                    "name": "",
                    "type": "int64",
                    "internalType": "int64"
                },
                {
                    "name": "",
                    "type": "tuple[]",
                    "internalType": "struct IHederaTokenService.FixedFee[]",
                    "components": [
                        {
                            "name": "amount",
                            "type": "int64",
                            "internalType": "int64"
                        },
                        {
                            "name": "tokenId",
                            "type": "address",
                            "internalType": "address"
                        },
                        {
                            "name": "useHbarsForPayment",
                            "type": "bool",
                            "internalType": "bool"
                        },
                        {
                            "name": "useCurrentTokenForPayment",
                            "type": "bool",
                            "internalType": "bool"
                        },
                        {
                            "name": "feeCollector",
                            "type": "address",
                            "internalType": "address"
                        }
                    ]
                },
                {
                    "name": "",
                    "type": "tuple[]",
                    "internalType": "struct IHederaTokenService.FractionalFee[]",
                    "components": [
                        {
                            "name": "numerator",
                            "type": "int64",
                            "internalType": "int64"
                        },
                        {
                            "name": "denominator",
                            "type": "int64",
                            "internalType": "int64"
                        },
                        {
                            "name": "minimumAmount",
                            "type": "int64",
                            "internalType": "int64"
                        },
                        {
                            "name": "maximumAmount",
                            "type": "int64",
                            "internalType": "int64"
                        },
                        {
                            "name": "netOfTransfers",
                            "type": "bool",
                            "internalType": "bool"
                        },
                        {
                            "name": "feeCollector",
                            "type": "address",
                            "internalType": "address"
                        }
                    ]
                },
                {
                    "name": "",
                    "type": "tuple[]",
                    "internalType": "struct IHederaTokenService.RoyaltyFee[]",
                    "components": [
                        {
                            "name": "numerator",
                            "type": "int64",
                            "internalType": "int64"
                        },
                        {
                            "name": "denominator",
                            "type": "int64",
                            "internalType": "int64"
                        },
                        {
                            "name": "amount",
                            "type": "int64",
                            "internalType": "int64"
                        },
                        {
                            "name": "tokenId",
                            "type": "address",
                            "internalType": "address"
                        },
                        {
                            "name": "useHbarsForPayment",
                            "type": "bool",
                            "internalType": "bool"
                        },
                        {
                            "name": "feeCollector",
                            "type": "address",
                            "internalType": "address"
                        }
                    ]
                }
            ],
            "stateMutability": "nonpayable"
        },
        {
            "type": "function",
            "name": "getTokenDefaultFreezeStatus",
            "inputs": [
                {
                    "name": "token",
                    "type": "address",
                    "internalType": "address"
                }
            ],
            "outputs": [
                {
                    "name": "",
                    "type": "int64",
                    "internalType": "int64"
                },
                {
                    "name": "",
                    "type": "bool",
                    "internalType": "bool"
                }
            ],
            "stateMutability": "nonpayable"
        },
        {
            "type": "function",
            "name": "getTokenDefaultKycStatus",
            "inputs": [
                {
                    "name": "token",
                    "type": "address",
                    "internalType": "address"
                }
            ],
            "outputs": [
                {
                    "name": "",
                    "type": "int64",
                    "internalType": "int64"
                },
                {
                    "name": "",
                    "type": "bool",
                    "internalType": "bool"
                }
            ],
            "stateMutability": "nonpayable"
        },
        {
            "type": "function",
            "name": "getTokenExpiryInfo",
            "inputs": [
                {
                    "name": "token",
                    "type": "address",
                    "internalType": "address"
                }
            ],
            "outputs": [
                {
                    "name": "responseCode",
                    "type": "int64",
                    "internalType": "int64"
                },
                {
                    "name": "tokenInfo",
                    "type": "tuple",
                    "internalType": "struct IHederaTokenService.Expiry",
                    "components": [
                        {
                            "name": "second",
                            "type": "int64",
                            "internalType": "int64"
                        },
                        {
                            "name": "autoRenewAccount",
                            "type": "address",
                            "internalType": "address"
                        },
                        {
                            "name": "autoRenewPeriod",
                            "type": "int64",
                            "internalType": "int64"
                        }
                    ]
                }
            ],
            "stateMutability": "nonpayable"
        },
        {
            "type": "function",
            "name": "getTokenInfo",
            "inputs": [
                {
                    "name": "token",
                    "type": "address",
                    "internalType": "address"
                }
            ],
            "outputs": [
                {
                    "name": "responseCode",
                    "type": "int64",
                    "internalType": "int64"
                },
                {
                    "name": "tokenInfo",
                    "type": "tuple",
                    "internalType": "struct IHederaTokenService.TokenInfo",
                    "components": [
                        {
                            "name": "token",
                            "type": "tuple",
                            "internalType": "struct IHederaTokenService.HederaToken",
                            "components": [
                                {
                                    "name": "name",
                                    "type": "string",
                                    "internalType": "string"
                                },
                                {
                                    "name": "symbol",
                                    "type": "string",
                                    "internalType": "string"
                                },
                                {
                                    "name": "treasury",
                                    "type": "address",
                                    "internalType": "address"
                                },
                                {
                                    "name": "memo",
                                    "type": "string",
                                    "internalType": "string"
                                },
                                {
                                    "name": "tokenSupplyType",
                                    "type": "bool",
                                    "internalType": "bool"
                                },
                                {
                                    "name": "maxSupply",
                                    "type": "int64",
                                    "internalType": "int64"
                                },
                                {
                                    "name": "freezeDefault",
                                    "type": "bool",
                                    "internalType": "bool"
                                },
                                {
                                    "name": "tokenKeys",
                                    "type": "tuple[]",
                                    "internalType": "struct IHederaTokenService.TokenKey[]",
                                    "components": [
                                        {
                                            "name": "keyType",
                                            "type": "uint256",
                                            "internalType": "uint256"
                                        },
                                        {
                                            "name": "key",
                                            "type": "tuple",
                                            "internalType": "struct IHederaTokenService.KeyValue",
                                            "components": [
                                                {
                                                    "name": "inheritAccountKey",
                                                    "type": "bool",
                                                    "internalType": "bool"
                                                },
                                                {
                                                    "name": "contractId",
                                                    "type": "address",
                                                    "internalType": "address"
                                                },
                                                {
                                                    "name": "ed25519",
                                                    "type": "bytes",
                                                    "internalType": "bytes"
                                                },
                                                {
                                                    "name": "ECDSA_secp256k1",
                                                    "type": "bytes",
                                                    "internalType": "bytes"
                                                },
                                                {
                                                    "name": "delegatableContractId",
                                                    "type": "address",
                                                    "internalType": "address"
                                                }
                                            ]
                                        }
                                    ]
                                },
                                {
                                    "name": "expiry",
                                    "type": "tuple",
                                    "internalType": "struct IHederaTokenService.Expiry",
                                    "components": [
                                        {
                                            "name": "second",
                                            "type": "int64",
                                            "internalType": "int64"
                                        },
                                        {
                                            "name": "autoRenewAccount",
                                            "type": "address",
                                            "internalType": "address"
                                        },
                                        {
                                            "name": "autoRenewPeriod",
                                            "type": "int64",
                                            "internalType": "int64"
                                        }
                                    ]
                                }
                            ]
                        },
                        {
                            "name": "totalSupply",
                            "type": "int64",
                            "internalType": "int64"
                        },
                        {
                            "name": "deleted",
                            "type": "bool",
                            "internalType": "bool"
                        },
                        {
                            "name": "defaultKycStatus",
                            "type": "bool",
                            "internalType": "bool"
                        },
                        {
                            "name": "pauseStatus",
                            "type": "bool",
                            "internalType": "bool"
                        },
                        {
                            "name": "fixedFees",
                            "type": "tuple[]",
                            "internalType": "struct IHederaTokenService.FixedFee[]",
                            "components": [
                                {
                                    "name": "amount",
                                    "type": "int64",
                                    "internalType": "int64"
                                },
                                {
                                    "name": "tokenId",
                                    "type": "address",
                                    "internalType": "address"
                                },
                                {
                                    "name": "useHbarsForPayment",
                                    "type": "bool",
                                    "internalType": "bool"
                                },
                                {
                                    "name": "useCurrentTokenForPayment",
                                    "type": "bool",
                                    "internalType": "bool"
                                },
                                {
                                    "name": "feeCollector",
                                    "type": "address",
                                    "internalType": "address"
                                }
                            ]
                        },
                        {
                            "name": "fractionalFees",
                            "type": "tuple[]",
                            "internalType": "struct IHederaTokenService.FractionalFee[]",
                            "components": [
                                {
                                    "name": "numerator",
                                    "type": "int64",
                                    "internalType": "int64"
                                },
                                {
                                    "name": "denominator",
                                    "type": "int64",
                                    "internalType": "int64"
                                },
                                {
                                    "name": "minimumAmount",
                                    "type": "int64",
                                    "internalType": "int64"
                                },
                                {
                                    "name": "maximumAmount",
                                    "type": "int64",
                                    "internalType": "int64"
                                },
                                {
                                    "name": "netOfTransfers",
                                    "type": "bool",
                                    "internalType": "bool"
                                },
                                {
                                    "name": "feeCollector",
                                    "type": "address",
                                    "internalType": "address"
                                }
                            ]
                        },
                        {
                            "name": "royaltyFees",
                            "type": "tuple[]",
                            "internalType": "struct IHederaTokenService.RoyaltyFee[]",
                            "components": [
                                {
                                    "name": "numerator",
                                    "type": "int64",
                                    "internalType": "int64"
                                },
                                {
                                    "name": "denominator",
                                    "type": "int64",
                                    "internalType": "int64"
                                },
                                {
                                    "name": "amount",
                                    "type": "int64",
                                    "internalType": "int64"
                                },
                                {
                                    "name": "tokenId",
                                    "type": "address",
                                    "internalType": "address"
                                },
                                {
                                    "name": "useHbarsForPayment",
                                    "type": "bool",
                                    "internalType": "bool"
                                },
                                {
                                    "name": "feeCollector",
                                    "type": "address",
                                    "internalType": "address"
                                }
                            ]
                        },
                        {
                            "name": "ledgerId",
                            "type": "string",
                            "internalType": "string"
                        }
                    ]
                }
            ],
            "stateMutability": "nonpayable"
        },
        {
            "type": "function",
            "name": "getTokenKey",
            "inputs": [
                {
                    "name": "token",
                    "type": "address",
                    "internalType": "address"
                },
                {
                    "name": "keyType",
                    "type": "uint256",
                    "internalType": "uint256"
                }
            ],
            "outputs": [
                {
                    "name": "",
                    "type": "int64",
                    "internalType": "int64"
                },
                {
                    "name": "",
                    "type": "tuple",
                    "internalType": "struct IHederaTokenService.KeyValue",
                    "components": [
                        {
                            "name": "inheritAccountKey",
                            "type": "bool",
                            "internalType": "bool"
                        },
                        {
                            "name": "contractId",
                            "type": "address",
                            "internalType": "address"
                        },
                        {
                            "name": "ed25519",
                            "type": "bytes",
                            "internalType": "bytes"
                        },
                        {
                            "name": "ECDSA_secp256k1",
                            "type": "bytes",
                            "internalType": "bytes"
                        },
                        {
                            "name": "delegatableContractId",
                            "type": "address",
                            "internalType": "address"
                        }
                    ]
                }
            ],
            "stateMutability": "nonpayable"
        },
        {
            "type": "function",
            "name": "getTokenType",
            "inputs": [
                {
                    "name": "token",
                    "type": "address",
                    "internalType": "address"
                }
            ],
            "outputs": [
                {
                    "name": "",
                    "type": "int64",
                    "internalType": "int64"
                },
                {
                    "name": "",
                    "type": "int32",
                    "internalType": "int32"
                }
            ],
            "stateMutability": "nonpayable"
        },
        {
            "type": "function",
            "name": "isApprovedForAll",
            "inputs": [
                {
                    "name": "token",
                    "type": "address",
                    "internalType": "address"
                },
                {
                    "name": "owner",
                    "type": "address",
                    "internalType": "address"
                },
                {
                    "name": "operator",
                    "type": "address",
                    "internalType": "address"
                }
            ],
            "outputs": [
                {
                    "name": "",
                    "type": "int64",
                    "internalType": "int64"
                },
                {
                    "name": "",
                    "type": "bool",
                    "internalType": "bool"
                }
            ],
            "stateMutability": "view"
        },
        {
            "type": "function",
            "name": "isToken",
            "inputs": [
                {
                    "name": "token",
                    "type": "address",
                    "internalType": "address"
                }
            ],
            "outputs": [
                {
                    "name": "",
                    "type": "int64",
                    "internalType": "int64"
                },
                {
                    "name": "",
                    "type": "bool",
                    "internalType": "bool"
                }
            ],
            "stateMutability": "nonpayable"
        },
        {
            "type": "function",
            "name": "mintToken",
            "inputs": [
                {
                    "name": "token",
                    "type": "address",
                    "internalType": "address"
                },
                {
                    "name": "amount",
                    "type": "int64",
                    "internalType": "int64"
                },
                {
                    "name": "",
                    "type": "bytes[]",
                    "internalType": "bytes[]"
                }
            ],
            "outputs": [
                {
                    "name": "responseCode",
                    "type": "int64",
                    "internalType": "int64"
                },
                {
                    "name": "newTotalSupply",
                    "type": "int64",
                    "internalType": "int64"
                },
                {
                    "name": "serialNumbers",
                    "type": "int64[]",
                    "internalType": "int64[]"
                }
            ],
            "stateMutability": "nonpayable"
        },
        {
            "type": "event",
            "name": "Approval",
            "inputs": [
                {
                    "name": "owner",
                    "type": "address",
                    "indexed": true,
                    "internalType": "address"
                },
                {
                    "name": "spender",
                    "type": "address",
                    "indexed": true,
                    "internalType": "address"
                },
                {
                    "name": "amount",
                    "type": "uint256",
                    "indexed": false,
                    "internalType": "uint256"
                }
            ],
            "anonymous": false
        },
        {
            "type": "event",
            "name": "ApprovalForAll",
            "inputs": [
                {
                    "name": "owner",
                    "type": "address",
                    "indexed": true,
                    "internalType": "address"
                },
                {
                    "name": "operator",
                    "type": "address",
                    "indexed": true,
                    "internalType": "address"
                },
                {
                    "name": "approved",
                    "type": "bool",
                    "indexed": false,
                    "internalType": "bool"
                }
            ],
            "anonymous": false
        },
        {
            "type": "event",
            "name": "Transfer",
            "inputs": [
                {
                    "name": "from",
                    "type": "address",
                    "indexed": true,
                    "internalType": "address"
                },
                {
                    "name": "to",
                    "type": "address",
                    "indexed": true,
                    "internalType": "address"
                },
                {
                    "name": "amount",
                    "type": "uint256",
                    "indexed": false,
                    "internalType": "uint256"
                }
            ],
            "anonymous": false
        }
    ],
    "bytecode": {
        "object": "0x6080604052348015600e575f80fd5b50615d468061001c5f395ff3fe608060405234801561000f575f80fd5b506004361061012a575f3560e01c806349146bde116100ab578063d614cdb81161006f578063d614cdb81461044d578063d6910d061461046e578063e0b490f71461049b578063e0f4059a146104c3578063f49f40db146104e55761012a565b806349146bde146103c157806378b63918146103d457806393272baf146103e7578063a7daa18d14610417578063ae7611a01461042a5761012a565b8063287e1da8116100f2578063287e1da8146103385780632e63879b14610359578063335e04c11461036c5780633c4dd32e1461037f5780633f28a19b146103a05761012a565b8063098f236614610275578063099794e8146102af5780630bb3bfa8146102d557806319f37361146102ea5780631f69565f14610317575b5f366060601c8210156101845760405162461bcd60e51b815260206004820152601d60248201527f66616c6c6261636b3a206e6f7420656e6f7567682063616c6c6461746100000060448201526064015b60405180910390fd5b5f61019260048236816140f1565b61019b91614118565b60e01c905063618dc65e81146101f35760405162461bcd60e51b815260206004820152601e60248201527f66616c6c6261636b3a20756e737570706f727465642073656c6563746f720000604482015260640161017b565b5f6102026018600436846140f1565b61020b91614150565b60601c905030811461025f5760405162461bcd60e51b815260206004820152601d60248201527f66616c6c6261636b3a20746f6b656e206973206e6f742063616c6c6572000000604482015260640161017b565b6102676104f8565b805195506020019350505050f35b61028861028336600461419d565b610c5e565b6040805160079390930b83526001600160a01b039091166020830152015b60405180910390f35b6102c26102bd3660046141c7565b610d4c565b60405160079190910b81526020016102a6565b6102e86102e33660046141fe565b610dd6565b005b6102fd6102f836600461423c565b610eb4565b6040805160079390930b83529015156020830152016102a6565b61032a61032536600461423c565b610f75565b6040516102a69291906146be565b61034b6103463660046146e7565b611069565b6040516102a6929190614713565b6102c2610367366004614899565b6112f1565b6102fd61037a36600461423c565b6115ab565b61039261038d36600461419d565b6116a7565b6040516102a692919061494c565b6103b36103ae36600461423c565b611886565b6040516102a6929190614967565b6102c26103cf3660046141c7565b611a72565b6102c26103e2366004614899565b611af2565b6103fa6103f536600461423c565b611da4565b6040805160079390930b835260039190910b6020830152016102a6565b6102fd61042536600461423c565b611e84565b61043d61043836600461423c565b611f3f565b6040516102a694939291906149a4565b61046061045b36600461423c565b61203e565b6040516102a69291906149e5565b61048161047c366004614a21565b612142565b60408051600793840b81529190920b6020820152016102a6565b6104ae6104a936600461423c565b612469565b60405163ffffffff90911681526020016102a6565b6104d66104d1366004614b06565b6124e3565b6040516102a693929190614c1b565b6102fd6104f3366004614c78565b612820565b60605f610509601c601836846140f1565b61051291614118565b905060408051808201825260098152681393d517d193d5539160ba1b602090910152517f7bafae6429a8b3ef0db181af7c5834a6f2b1af33146a1a9ae02e833d27f2431b90610562905f90614d66565b6040518091039020036105c15760405162461bcd60e51b815260206004820152602160248201527f7265646972656374466f72546f6b656e3a20746f6b656e206e6f7420666f756e6044820152601960fa1b606482015260840161017b565b610166193301610b255763e096a9a160e01b6001600160e01b031982160161066857601c36101561063e5760405162461bcd60e51b815260206004820152602160248201527f676574546f6b656e496e666f3a204e6f7420656e6f7567682063616c6c6461746044820152606160f81b606482015260840161017b565b60166005604051602001610653929190615129565b60405160208183030381529060405291505090565b63028c4f7360e51b6001600160e01b03198216016106fc57601c3610156106e15760405162461bcd60e51b815260206004820152602760248201527f676574546f6b656e437573746f6d466565733a204e6f7420656e6f7567682063604482015266616c6c6461746160c81b606482015260840161017b565b60405161065390601690600e90600f90601090602001615206565b63cca1fb3f60e01b6001600160e01b03198216016107a257601c36101561077b5760405162461bcd60e51b815260206004820152602d60248201527f676574546f6b656e44656661756c744b79635374617475733a204e6f7420656e60448201526c6f7567682063616c6c6461746160981b606482015260840161017b565b600d546040805160166020820152600160481b90920460ff16151590820152606001610653565b6358255e7360e01b6001600160e01b031982160161084b57601c3610156108245760405162461bcd60e51b815260206004820152603060248201527f676574546f6b656e44656661756c74467265657a655374617475733a204e6f7460448201526f20656e6f7567682063616c6c6461746160801b606482015260840161017b565b6009546040805160166020820152600160481b90920460ff16151590820152606001610653565b63053d664960e31b6001600160e01b03198216016108d957601c3610156108c45760405162461bcd60e51b815260206004820152602760248201527f676574546f6b656e457870697279496e666f3a204e6f7420656e6f7567682063604482015266616c6c6461746160c81b606482015260840161017b565b60405161065390601690600b90602001615247565b636cd8d45160e01b6001600160e01b0319821601610a3957601c36101561094c5760405162461bcd60e51b815260206004820152602160248201527f676574546f6b656e547970653a204e6f7420656e6f7567682063616c6c6461746044820152606160f81b606482015260840161017b565b7f20081d23699eb901ca16307080f9b35e7967740755a921f749a9e037b0875c755f60405160200161097e9190614d66565b60405160208183030381529060405280519060200120036109b45760408051601660208201525f91810191909152606001610653565b7f6c58a12b113a1ee77f554495d8bd48a419af104bca196099cdecc39fcb8989f05f6040516020016109e69190614d66565b6040516020818303038152906040528051906020012003610a1d576040805160166020820152600191810191909152606001610653565b60408051601660208201525f1991810191909152606001610653565b631e89880b60e31b6001600160e01b0319821601610b2557607c361015610aa25760405162461bcd60e51b815260206004820152601b60248201527f7570646174653a204e6f7420656e6f7567682063616c6c646174610000000000604482015260640161017b565b5f610ab1603c602836846140f1565b610aba91614150565b60601c90505f610ace605c604836846140f1565b610ad791614150565b60601c90505f610aeb607c605c36846140f1565b610af491615283565b9050610b01838383610dd6565b60408051600160208201520160405160208183030381529060405294505050505090565b604080518082018252600f81526e232aa723a4a12622afa1a7a6a6a7a760891b602090910152517f20081d23699eb901ca16307080f9b35e7967740755a921f749a9e037b0875c7590610b79905f90614d66565b604051809103902003610b9557610b8f81612919565b91505090565b60408051808201825260138152724e4f4e5f46554e4749424c455f554e4951554560681b602090910152517f6c58a12b113a1ee77f554495d8bd48a419af104bca196099cdecc39fcb8989f090610bed905f90614d66565b604051809103902003610c0357610b8f81612e4f565b60405162461bcd60e51b815260206004820152602a60248201527f7265646972656374466f72546f6b656e3a20746f6b656e2074797065206e6f74604482015269081cdd5c1c1bdc9d195960b21b606482015260840161017b565b5f803061016714610c815760405162461bcd60e51b815260040161017b906152a0565b6001600160a01b038416610cd75760405162461bcd60e51b815260206004820152601a60248201527f676574417070726f7665643a20696e76616c696420746f6b656e000000000000604482015260640161017b565b60405163020604bf60e21b8152600481018490526016906001600160a01b0386169063081812fc90602401602060405180830381865afa158015610d1d573d5f803e3d5ffd5b505050506040513d601f19601f82011682018060405250810190610d4191906152e7565b909590945092505050565b5f3061016714610d6e5760405162461bcd60e51b815260040161017b906152a0565b6040805160018082528183019092525f916020808301908036833701905050905082815f81518110610da257610da2615302565b60200260200101906001600160a01b031690816001600160a01b031681525050610dcc8482611af2565b9150505b92915050565b6001600160a01b038316610e00578060045f828254610df5919061532a565b90915550610e659050565b5f610e0a84613421565b805490915082811015610e5f5760405162461bcd60e51b815260206004820152601f60248201527f5f7472616e736665723a20696e73756666696369656e742062616c616e636500604482015260640161017b565b82900390555b6001600160a01b038216610e8f578060045f828254610e84919061533d565b90915550610eaf9050565b5f610e9983613421565b80549091505f610ea9848361532a565b90925550505b505050565b6040516001600160a01b03821660248201525f908190819060440160408051601f198184030181529181526020820180516001600160e01b03166393272baf60e01b179052519091505f9081906001600160a01b03871690610f17908590615350565b5f604051808303815f865af19150503d805f8114610f50576040519150601f19603f3d011682016040523d82523d5f602084013e610f55565b606091505b50915091506016828015610f6957505f8251115b94509450505050915091565b5f610f7e613fa6565b3061016714610f9f5760405162461bcd60e51b815260040161017b906152a0565b6001600160a01b038316610ff55760405162461bcd60e51b815260206004820152601b60248201527f676574546f6b656e496e666f3a20696e76616c696420746f6b656e0000000000604482015260640161017b565b604051631f69565f60e01b81526001600160a01b0384166004820181905290631f69565f906024015f604051808303815f875af1158015611038573d5f803e3d5ffd5b505050506040513d5f823e601f3d908101601f1916820160405261105f9190810190615943565b9094909350915050565b5f611072614058565b30610167146110935760405162461bcd60e51b815260040161017b906152a0565b6001600160a01b0384166110f85760405162461bcd60e51b815260206004820152602660248201527f6765744e6f6e46756e6769626c65546f6b656e496e666f3a20696e76616c6964604482015265103a37b5b2b760d11b606482015260840161017b565b604051631f69565f60e01b81526001600160a01b038516600482018190525f91829190631f69565f906024015f604051808303815f875af115801561113f573d5f803e3d5ffd5b505050506040513d5f823e601f3d908101601f191682016040526111669190810190615943565b915091508160070b6002146111d75760405162461bcd60e51b815260206004820152603160248201527f6765744e6f6e46756e6769626c65546f6b656e496e666f3a206661696c656420604482015270746f2067657420746f6b656e206461746160781b606482015260840161017b565b6111df614058565b818152600786900b602082015260405163020604bf60e21b81526001600160401b03871660048201526001600160a01b0388169063081812fc90602401602060405180830381865afa158015611237573d5f803e3d5ffd5b505050506040513d601f19601f8201168201806040525081019061125b91906152e7565b6001600160a01b0390811660a08301526040516331a9108f60e11b81526001600160401b038816600482015290881690636352211e90602401602060405180830381865afa1580156112af573d5f803e3d5ffd5b505050506040513d601f19601f820116820180604052508101906112d391906152e7565b6001600160a01b0316604082015260169450925050505b9250929050565b5f30610167146113135760405162461bcd60e51b815260040161017b906152a0565b5f8251116113635760405162461bcd60e51b815260206004820152601f60248201527f6173736f6369617465546f6b656e733a206d697373696e6720746f6b656e7300604482015260640161017b565b6001600160a01b03831633146114165760405162461bcd60e51b815260206004820152606660248201527f6173736f6369617465546f6b656e733a204d757374206265207369676e65642060448201527f6279207468652070726f7669646564204163636f756e742773206b6579206f7260648201527f2063616c6c65642066726f6d20746865206163636f756e747320636f6e7472616084820152656374206b657960d01b60a482015260c40161017b565b5f5b82518110156115a1575f6001600160a01b031683828151811061143d5761143d615302565b60200260200101516001600160a01b03160361149b5760405162461bcd60e51b815260206004820152601e60248201527f6173736f6369617465546f6b656e733a20696e76616c696420746f6b656e0000604482015260640161017b565b5f8382815181106114ae576114ae615302565b602090810291909101810151604080516004815260248101825292830180516001600160e01b031663053aa6f360e11b179052516001600160a01b03909116916114f791615350565b5f60405180830381855af49150503d805f811461152f576040519150601f19603f3d011682016040523d82523d5f602084013e611534565b606091505b50509050806115985760405162461bcd60e51b815260206004820152602a60248201527f6173736f6369617465546f6b656e733a204661696c656420746f206173736f6360448201526934b0ba32903a37b5b2b760b11b606482015260840161017b565b50600101611418565b5060169392505050565b5f8030610167146115ce5760405162461bcd60e51b815260040161017b906152a0565b6001600160a01b0383166116365760405162461bcd60e51b815260206004820152602960248201527f676574546f6b656e44656661756c744b79635374617475733a20696e76616c6960448201526864206164647265737360b81b606482015260840161017b565b60405163335e04c160e01b81526001600160a01b038416600482018190529063335e04c1906024015b60408051808303815f875af115801561167a573d5f803e3d5ffd5b505050506040513d601f19601f8201168201806040525081019061169e9190615ab2565b91509150915091565b5f6116b0614092565b30610167146116d15760405162461bcd60e51b815260040161017b906152a0565b6001600160a01b0384166117275760405162461bcd60e51b815260206004820152601a60248201527f676574546f6b656e4b65793a20696e76616c696420746f6b656e000000000000604482015260640161017b565b604051631f69565f60e01b81526001600160a01b038516600482018190525f91829190631f69565f906024015f604051808303815f875af115801561176e573d5f803e3d5ffd5b505050506040513d5f823e601f3d908101601f191682016040526117959190810190615943565b915091508160070b6016146117fa5760405162461bcd60e51b815260206004820152602560248201527f676574546f6b656e4b65793a206661696c656420746f2067657420746f6b656e604482015264206461746160d81b606482015260840161017b565b5f5b815160e001515181101561186f5785825f015160e00151828151811061182457611824615302565b60200260200101515f015103611867576016825f015160e00151828151811061184f5761184f615302565b602002602001015160200151945094505050506112ea565b6001016117fc565b50611878614092565b601697909650945050505050565b5f61188f6140d2565b30610167146118b05760405162461bcd60e51b815260040161017b906152a0565b6001600160a01b0383166119125760405162461bcd60e51b815260206004820152602360248201527f67657446756e6769626c65546f6b656e496e666f3a20696e76616c696420746f60448201526235b2b760e91b606482015260840161017b565b604051631f69565f60e01b81526001600160a01b038416600482018190525f91829190631f69565f906024015f604051808303815f875af1158015611959573d5f803e3d5ffd5b505050506040513d5f823e601f3d908101601f191682016040526119809190810190615943565b915091508160070b6002146119ee5760405162461bcd60e51b815260206004820152602e60248201527f67657446756e6769626c65546f6b656e496e666f3a206661696c656420746f2060448201526d67657420746f6b656e206461746160901b606482015260840161017b565b6119f66140d2565b81815f0181905250856001600160a01b031663313ce5676040518163ffffffff1660e01b8152600401602060405180830381865afa158015611a3a573d5f803e3d5ffd5b505050506040513d601f19601f82011682018060405250810190611a5e9190615ae5565b5f0b60208201526016945092505050915091565b5f3061016714611a945760405162461bcd60e51b815260040161017b906152a0565b6040805160018082528183019092525f916020808301908036833701905050905082815f81518110611ac857611ac8615302565b60200260200101906001600160a01b031690816001600160a01b031681525050610dcc84826112f1565b5f3061016714611b145760405162461bcd60e51b815260040161017b906152a0565b5f825111611b645760405162461bcd60e51b815260206004820181905260248201527f646973736f6369617465546f6b656e733a206d697373696e6720746f6b656e73604482015260640161017b565b6001600160a01b0383163314611c185760405162461bcd60e51b815260206004820152606760248201527f646973736f6369617465546f6b656e733a204d757374206265207369676e656460448201527f206279207468652070726f7669646564204163636f756e742773206b6579206f60648201527f722063616c6c65642066726f6d20746865206163636f756e747320636f6e7472608482015266616374206b657960c81b60a482015260c40161017b565b5f5b82518110156115a1575f6001600160a01b0316838281518110611c3f57611c3f615302565b60200260200101516001600160a01b031603611c9d5760405162461bcd60e51b815260206004820152601f60248201527f646973736f6369617465546f6b656e733a20696e76616c696420746f6b656e00604482015260640161017b565b5f838281518110611cb057611cb0615302565b602090810291909101810151604080516004815260248101825292830180516001600160e01b03166302e490bf60e51b179052516001600160a01b0390911691611cf991615350565b5f60405180830381855af49150503d805f8114611d31576040519150601f19603f3d011682016040523d82523d5f602084013e611d36565b606091505b5050905080611d9b5760405162461bcd60e51b815260206004820152602b60248201527f646973736f6369617465546f6b656e733a204661696c656420746f206173736f60448201526a31b4b0ba32903a37b5b2b760a91b606482015260840161017b565b50600101611c1a565b5f803061016714611dc75760405162461bcd60e51b815260040161017b906152a0565b6001600160a01b038316611e1d5760405162461bcd60e51b815260206004820152601d60248201527f676574546f6b656e547970653a20696e76616c69642061646472657373000000604482015260640161017b565b6040516393272baf60e01b81526001600160a01b03841660048201819052906393272baf9060240160408051808303815f875af1158015611e60573d5f803e3d5ffd5b505050506040513d601f19601f8201168201806040525081019061169e9190615b05565b5f803061016714611ea75760405162461bcd60e51b815260040161017b906152a0565b6001600160a01b038316611f125760405162461bcd60e51b815260206004820152602c60248201527f676574546f6b656e44656661756c74467265657a655374617475733a20696e7660448201526b616c6964206164647265737360a01b606482015260840161017b565b60405163a7daa18d60e01b81526001600160a01b038416600482018190529063a7daa18d9060240161165f565b5f606080803061016714611f655760405162461bcd60e51b815260040161017b906152a0565b6001600160a01b038516611fc55760405162461bcd60e51b815260206004820152602160248201527f676574546f6b656e437573746f6d466565733a20696e76616c696420746f6b656044820152603760f91b606482015260840161017b565b604051630573b08d60e51b81526001600160a01b038616600482018190529063ae7611a0906024015f604051808303815f875af1158015612008573d5f803e3d5ffd5b505050506040513d5f823e601f3d908101601f1916820160405261202f9190810190615b38565b93509350935093509193509193565b604080516060810182525f80825260208201819052918101829052306101671461207a5760405162461bcd60e51b815260040161017b906152a0565b6001600160a01b0383166120da5760405162461bcd60e51b815260206004820152602160248201527f676574546f6b656e457870697279496e666f3a20696e76616c696420746f6b656044820152603760f91b606482015260840161017b565b604051631ac299b760e31b81526001600160a01b038416600482018190529063d614cdb8906024016080604051808303815f875af115801561211e573d5f803e3d5ffd5b505050506040513d601f19601f8201168201806040525081019061105f9190615bd7565b5f8030610167146121655760405162461bcd60e51b815260040161017b906152a0565b6001600160a01b0385166121bb5760405162461bcd60e51b815260206004820152601860248201527f6275726e546f6b656e3a20696e76616c696420746f6b656e0000000000000000604482015260640161017b565b5f8460070b1361220d5760405162461bcd60e51b815260206004820152601960248201527f6275726e546f6b656e3a20696e76616c696420616d6f756e7400000000000000604482015260640161017b565b604051631f69565f60e01b81526001600160a01b038616600482018190525f91829190631f69565f906024015f604051808303815f875af1158015612254573d5f803e3d5ffd5b505050506040513d5f823e601f3d908101601f1916820160405261227b9190810190615943565b915091508160070b6016146122de5760405162461bcd60e51b815260206004820152602360248201527f6275726e546f6b656e3a206661696c656420746f2067657420746f6b656e20696044820152626e666f60e81b606482015260840161017b565b8051604001516001600160a01b03811661233a5760405162461bcd60e51b815260206004820152601a60248201527f6275726e546f6b656e3a20696e76616c6964206163636f756e74000000000000604482015260640161017b565b60405163017677f560e31b81526001600160a01b0382811660048301525f60248301526001600160401b0389166044830152891690630bb3bfa8906064015f604051808303815f87803b15801561238f575f80fd5b505af11580156123a1573d5f803e3d5ffd5b5050505060169450876001600160a01b03166318160ddd6040518163ffffffff1660e01b8152600401602060405180830381865afa1580156123e5573d5f803e3d5ffd5b505050506040513d601f19601f820116820180604052508101906124099190615c02565b93505f8460070b121561245e5760405162461bcd60e51b815260206004820152601f60248201527f6275726e546f6b656e3a20696e76616c696420746f74616c20737570706c7900604482015260640161017b565b505050935093915050565b5f306101671461248b5760405162461bcd60e51b815260040161017b906152a0565b6040805163e0b490f760e01b602082018190525f602483018190526001600160601b0319606087901b16602c840152909290918291016040516020818303038152906040526124d990615c19565b5495945050505050565b5f80606030610167146125085760405162461bcd60e51b815260040161017b906152a0565b6001600160a01b03861661255e5760405162461bcd60e51b815260206004820152601860248201527f6d696e74546f6b656e3a20696e76616c696420746f6b656e0000000000000000604482015260640161017b565b5f8560070b136125b05760405162461bcd60e51b815260206004820152601960248201527f6d696e74546f6b656e3a20696e76616c696420616d6f756e7400000000000000604482015260640161017b565b604051631f69565f60e01b81526001600160a01b038716600482018190525f91829190631f69565f906024015f604051808303815f875af11580156125f7573d5f803e3d5ffd5b505050506040513d5f823e601f3d908101601f1916820160405261261e9190810190615943565b915091508160070b6016146126815760405162461bcd60e51b815260206004820152602360248201527f6d696e74546f6b656e3a206661696c656420746f2067657420746f6b656e20696044820152626e666f60e81b606482015260840161017b565b8051604001516001600160a01b0381166126dd5760405162461bcd60e51b815260206004820152601a60248201527f6d696e74546f6b656e3a20696e76616c6964206163636f756e74000000000000604482015260640161017b565b60405163017677f560e31b81525f60048201526001600160a01b0382811660248301526001600160401b038a1660448301528a1690630bb3bfa8906064015f604051808303815f87803b158015612732575f80fd5b505af1158015612744573d5f803e3d5ffd5b5050505060169550886001600160a01b03166318160ddd6040518163ffffffff1660e01b8152600401602060405180830381865afa158015612788573d5f803e3d5ffd5b505050506040513d601f19601f820116820180604052508101906127ac9190615c02565b604080515f808252602082019092529196505093505f8560070b12156128145760405162461bcd60e51b815260206004820152601f60248201527f6d696e74546f6b656e3a20696e76616c696420746f74616c20737570706c7900604482015260640161017b565b50505093509350939050565b5f8030610167146128435760405162461bcd60e51b815260040161017b906152a0565b6001600160a01b0385166128995760405162461bcd60e51b815260206004820152601f60248201527f6973417070726f766564466f72416c6c3a20696e76616c696420746f6b656e00604482015260640161017b565b60405163e985e9c560e01b81526001600160a01b03858116600483015284811660248301526016919087169063e985e9c590604401602060405180830381865afa1580156128e9573d5f803e3d5ffd5b505050506040513d601f19601f8201168201806040525081019061290d9190615c3c565b91509150935093915050565b606063f90221fd60e01b6001600160e01b031983160161295b5760016040516020016129459190615c55565b6040516020818303038152906040529050919050565b63cec31a9960e01b6001600160e01b031983160161298a576003546040805160ff909216602083015201612945565b63e7e9f22360e01b6001600160e01b03198316016129b75760045460405160200161294591815260200190565b636a2764bf60e01b6001600160e01b03198316016129e15760026040516020016129459190615c55565b638f5f7dcf60e01b6001600160e01b0319831601612a9957603c361015612a4a5760405162461bcd60e51b815260206004820152601e60248201527f62616c616e63654f663a204e6f7420656e6f7567682063616c6c646174610000604482015260640161017b565b5f612a59603c602836846140f1565b612a6291614150565b60601c9050612a70816134d1565b604051602001612a8291815260200190565b604051602081830303815290604052915050919050565b6356fa634560e01b6001600160e01b0319831601612b6b57605c361015612b025760405162461bcd60e51b815260206004820152601d60248201527f7472616e736665723a204e6f7420656e6f7567682063616c6c64617461000000604482015260640161017b565b5f612b11603c602836846140f1565b612b1a91614150565b60601c90505f612b2e605c603c36846140f1565b612b3791615283565b905033612b458184846134e4565b6040805160016020820152015b6040516020818303038152906040529350505050919050565b63dc478d2360e01b6001600160e01b0319831601612c6557607c361015612bd45760405162461bcd60e51b815260206004820152601e60248201527f7472616e73666572463a204e6f7420656e6f7567682063616c6c646174610000604482015260640161017b565b5f612be3603c602836846140f1565b612bec91614150565b60601c90505f612c00605c604836846140f1565b612c0991614150565b60601c90505f612c1d607c605c36846140f1565b612c2691615283565b905033612c348482846135db565b612c3f8484846134e4565b604080516001602082015201604051602081830303815290604052945050505050919050565b63114e896160e11b6001600160e01b0319831601612d3c57605c361015612cce5760405162461bcd60e51b815260206004820152601e60248201527f616c6c6f77616e63653a204e6f7420656e6f7567682063616c6c646174610000604482015260640161017b565b5f612cdd603c602836846140f1565b612ce691614150565b60601c90505f612cfa605c604836846140f1565b612d0391614150565b60601c9050612d128282613653565b604051602001612d2491815260200190565b60405160208183030381529060405292505050919050565b63f6a1584d60e01b6001600160e01b0319831601612e4657605c361015612da55760405162461bcd60e51b815260206004820152601c60248201527f617070726f76653a204e6f7420656e6f7567682063616c6c6461746100000000604482015260640161017b565b5f612db4603c602836846140f1565b612dbd91614150565b60601c90505f612dd1605c603c36846140f1565b612dda91615283565b905033612de8818484613668565b826001600160a01b0316816001600160a01b03167f8c5be1e5ebec7d5bd14f71427d1e84f3dd0314c0f7b2291e5b200ac8c7c3b92584604051612e2d91815260200190565b60405180910390a3604080516001602082015201612b52565b610dd082613728565b606063f90221fd60e01b6001600160e01b0319831601612e7b5760016040516020016129459190615c55565b636a2764bf60e01b6001600160e01b0319831601612ea55760026040516020016129459190615c55565b633784a92360e01b6001600160e01b0319831601612f4157603c361015612f0e5760405162461bcd60e51b815260206004820152601d60248201527f746f6b656e5552493a204e6f7420656e6f7567682063616c6c64617461000000604482015260640161017b565b5f612f1d603c601c36846140f1565b612f2691615283565b9050612f3181613824565b604051602001612a829190615c67565b63e7e9f22360e01b6001600160e01b0319831601612f6e5760045460405160200161294591815260200190565b638f5f7dcf60e01b6001600160e01b0319831601612fd757603c361015612a4a5760405162461bcd60e51b815260206004820152601e60248201527f62616c616e63654f663a204e6f7420656e6f7567682063616c6c646174610000604482015260640161017b565b634e56ef7160e11b6001600160e01b031983160161307d57603c3610156130405760405162461bcd60e51b815260206004820152601c60248201527f6f776e65724f663a204e6f7420656e6f7567682063616c6c6461746100000000604482015260640161017b565b5f61304f603c601c36846140f1565b61305891615283565b9050613063816138c7565b604080516001600160a01b03909216602083015201612a82565b63dc478d2360e01b6001600160e01b031983160161314f57607c3610156130f05760405162461bcd60e51b815260206004820152602160248201527f7472616e7366657246726f6d3a204e6f7420656e6f7567682063616c6c6461746044820152606160f81b606482015260840161017b565b5f6130ff603c602836846140f1565b61310891614150565b60601c90505f61311c605c604836846140f1565b61312591614150565b60601c90505f613139607c605c36846140f1565b61314291615283565b9050612b458383836138d2565b63f6a1584d60e01b6001600160e01b031983160161320c57605c3610156131b85760405162461bcd60e51b815260206004820152601c60248201527f617070726f76653a204e6f7420656e6f7567682063616c6c6461746100000000604482015260640161017b565b5f6131c7603c602836846140f1565b6131d091614150565b60601c90505f6131e4605c603c36846140f1565b6131ed91615283565b90506131fb82826001613acb565b604080516001602082015201612d24565b635dd34b9b60e01b6001600160e01b03198316016132c857605c3610156132845760405162461bcd60e51b815260206004820152602660248201527f736574417070726f76616c466f72416c6c3a204e6f7420656e6f7567682063616044820152656c6c6461746160d01b606482015260840161017b565b5f613293603c602836846140f1565b61329c91614150565b60601c90505f6132b0605c603c36846140f1565b6132b991615283565b60011490506131fb8282613bc7565b633df9fb4160e21b6001600160e01b031983160161335457603c3610156133315760405162461bcd60e51b815260206004820181905260248201527f676574417070726f7665643a204e6f7420656e6f7567682063616c6c64617461604482015260640161017b565b5f613340603c601c36846140f1565b61334991615283565b905061306381613caf565b63167a163b60e01b6001600160e01b0319831601612e4657605c3610156133cb5760405162461bcd60e51b815260206004820152602560248201527f6973417070726f766564466f72416c6c3a204e6f7420656e6f7567682063616c6044820152646c6461746160d81b606482015260840161017b565b5f6133da603c602836846140f1565b6133e391614150565b60601c90505f6133f7605c604836846140f1565b61340091614150565b60601c905061340f8282613cba565b60408051911515602083015201612d24565b60405163e0b490f760e01b81526001600160a01b03821660048201525f906370a0823160e01b90829081906101679063e0b490f7906024015b602060405180830381865afa158015613475573d5f803e3d5ffd5b505050506040513d601f19601f820116820180604052508101906134999190615c79565b90508282826040516020016134b093929190615c9c565b6040516020818303038152906040526134c890615c19565b95945050505050565b5f806134dc83613421565b549392505050565b6001600160a01b0383166135305760405162461bcd60e51b8152602060048201526013602482015272343a399d1034b73b30b634b21039b2b73232b960691b604482015260640161017b565b6001600160a01b03821661357e5760405162461bcd60e51b8152602060048201526015602482015274343a399d1034b73b30b634b2103932b1b2b4bb32b960591b604482015260640161017b565b613589838383610dd6565b816001600160a01b0316836001600160a01b03167fddf252ad1be2c89b69c2b068fc378daa952ba7f163c4a11628f55a4df523b3ef836040516135ce91815260200190565b60405180910390a3505050565b5f6135e68484613653565b90505f19811461364d57818110156136405760405162461bcd60e51b815260206004820152601d60248201527f5f7370656e64416c6c6f77616e63653a20696e73756666696369656e74000000604482015260640161017b565b61364d8484848403613668565b50505050565b5f8061365f8484613cc6565b54949350505050565b6001600160a01b0383166136be5760405162461bcd60e51b815260206004820152601760248201527f5f617070726f76653a20696e76616c6964206f776e6572000000000000000000604482015260640161017b565b6001600160a01b0382166137145760405162461bcd60e51b815260206004820152601960248201527f5f617070726f76653a20696e76616c6964207370656e64657200000000000000604482015260640161017b565b5f61371f8484613cc6565b91909155505050565b6060637ac5590d60e11b6001600160e01b0319831601613768575f61374c33613de6565b9050600181556001604051602001612a82911515815260200190565b63051b6f4160e51b6001600160e01b03198316016137a1575f61378a33613de6565b5f8155604080516001602082015291925001612a82565b63b270229360e01b6001600160e01b03198316016137dc575f6137c333613de6565b8054604080518215156020820152929350909101612d24565b60405162461bcd60e51b815260206004820152601f60248201527f7265646972656374466f72546f6b656e3a206e6f7420737570706f7274656400604482015260640161017b565b60605f61383083613e23565b90505f81905080805461384290614cc0565b80601f016020809104026020016040519081016040528092919081815260200182805461386e90614cc0565b80156138b95780601f10613890576101008083540402835291602001916138b9565b820191905f5260205f20905b81548152906001019060200180831161389c57829003601f168201915b505050505092505050919050565b5f806134dc83613e65565b6001600160a01b03831661391e5760405162461bcd60e51b8152602060048201526013602482015272343a399d1034b73b30b634b21039b2b73232b960691b604482015260640161017b565b6001600160a01b03821661396c5760405162461bcd60e51b8152602060048201526015602482015274343a399d1034b73b30b634b2103932b1b2b4bb32b960591b604482015260640161017b565b5f61397682613e65565b80549091506001600160a01b03808216908616146139d65760405162461bcd60e51b815260206004820152601860248201527f6874733a2073656e646572206973206e6f74206f776e65720000000000000000604482015260640161017b565b336001600160a01b03861614613a53576139ef83613caf565b6001600160a01b0316336001600160a01b03161480613a135750613a138533613cba565b613a535760405162461bcd60e51b81526020600482015260116024820152701a1d1cce881d5b985d5d1a1bdc9a5e9959607a1b604482015260640161017b565b5f613a5d84613e87565b90505f81555f613a6d8787613ea9565b90505f8155858455856001600160a01b0316876001600160a01b03167fddf252ad1be2c89b69c2b068fc378daa952ba7f163c4a11628f55a4df523b3ef87604051613aba91815260200190565b60405180910390a350505050505050565b5f613ad5836138c7565b9050336001600160a01b0382161480613afe575033613af384613caf565b6001600160a01b0316145b80613b0e5750613b0e8133613cba565b613b535760405162461bcd60e51b815260206004820152601660248201527517d85c1c1c9bdd994e881d5b985d5d1a1bdc9a5e995960521b604482015260640161017b565b5f613b5d84613e87565b90505f83613b6b575f613b6d565b855b9050808255856001600160a01b0316836001600160a01b03167f8c5be1e5ebec7d5bd14f71427d1e84f3dd0314c0f7b2291e5b200ac8c7c3b92587604051613bb791815260200190565b60405180910390a3505050505050565b336001600160a01b03831615801590613bf25750806001600160a01b0316836001600160a01b031614155b613c4a5760405162461bcd60e51b815260206004820152602360248201527f736574417070726f76616c466f72416c6c3a20696e76616c6964206f706572616044820152623a37b960e91b606482015260840161017b565b5f613c558285613ea9565b9050828155836001600160a01b0316826001600160a01b03167f17307eab39ab6107e8899845ad3d59bd9653f200f220920489ca2b5937696c3185604051613ca1911515815260200190565b60405180910390a350505050565b5f806134dc83613e87565b5f8061365f8484613ea9565b60405163e0b490f760e01b81526001600160a01b03831660048201525f90636eb1769f60e11b90829081906101679063e0b490f790602401602060405180830381865afa158015613d19573d5f803e3d5ffd5b505050506040513d601f19601f82011682018060405250810190613d3d9190615c79565b60405163e0b490f760e01b81526001600160a01b03871660048201529091505f906101679063e0b490f790602401602060405180830381865afa158015613d86573d5f803e3d5ffd5b505050506040513d601f19601f82011682018060405250810190613daa9190615c79565b905083838284604051602001613dc39493929190615cd1565b604051602081830303815290604052613ddb90615c19565b979650505050505050565b60405163e0b490f760e01b81526001600160a01b03821660048201525f90634d8fdd6d60e01b90829081906101679063e0b490f79060240161345a565b6040515f9063c87b56dd60e01b908290613e4590839083908790602001615c9c565b604051602081830303815290604052613e5d90615c19565b949350505050565b6040515f906331a9108f60e11b908290613e4590839083908790602001615c9c565b6040515f9063020604bf60e21b908290613e4590839083908790602001615c9c565b60405163e0b490f760e01b81526001600160a01b03831660048201525f9063e985e9c560e01b90829081906101679063e0b490f790602401602060405180830381865afa158015613efc573d5f803e3d5ffd5b505050506040513d601f19601f82011682018060405250810190613f209190615c79565b60405163e0b490f760e01b81526001600160a01b03871660048201529091505f906101679063e0b490f790602401602060405180830381865afa158015613f69573d5f803e3d5ffd5b505050506040513d601f19601f82011682018060405250810190613f8d9190615c79565b905083838383604051602001613dc39493929190615cd1565b60408051610240810182526060610120820181815261014083018290525f610160840181905261018084018390526101a084018190526101c084018190526101e08401819052610200840183905284519283018552808352602083018190529382019390935261022082015290819081526020015f60070b81526020015f151581526020015f151581526020015f15158152602001606081526020016060815260200160608152602001606081525090565b6040518060c0016040528061406b613fa6565b81525f60208201819052604082018190526060808301829052608083015260a09091015290565b6040518060a001604052805f151581526020015f6001600160a01b0316815260200160608152602001606081526020015f6001600160a01b031681525090565b60405180604001604052806140e5613fa6565b81525f60209091015290565b5f80858511156140ff575f80fd5b8386111561410b575f80fd5b5050820193919092039150565b80356001600160e01b03198116906004841015614149576001600160e01b0319600485900360031b81901b82161691505b5092915050565b80356001600160601b03198116906014841015614149576001600160601b031960149490940360031b84901b1690921692915050565b6001600160a01b038116811461419a575f80fd5b50565b5f80604083850312156141ae575f80fd5b82356141b981614186565b946020939093013593505050565b5f80604083850312156141d8575f80fd5b82356141e381614186565b915060208301356141f381614186565b809150509250929050565b5f805f60608486031215614210575f80fd5b833561421b81614186565b9250602084013561422b81614186565b929592945050506040919091013590565b5f6020828403121561424c575f80fd5b813561425781614186565b9392505050565b5f81518084528060208401602086015e5f602082860101526020601f19601f83011685010191505092915050565b80511515825260018060a01b0360208201511660208301525f604082015160a060408501526142be60a085018261425e565b9050606083015184820360608601526142d7828261425e565b6080948501516001600160a01b03169590940194909452509092915050565b5f82825180855260208501945060208160051b830101602085015f5b8381101561435b57601f198584030188528151805184526020810151905060406020850152614344604085018261428c565b6020998a0199909450929092019150600101614312565b50909695505050505050565b5f8151610160845261437d61016085018261425e565b905060208301518482036020860152614396828261425e565b91505060408301516143b360408601826001600160a01b03169052565b50606083015184820360608601526143cb828261425e565b91505060808301516143e1608086018215159052565b5060a08301516143f660a086018260070b9052565b5060c083015161440a60c086018215159052565b5060e083015184820360e086015261442282826142f6565b91505061010083015161445d6101008601828051600790810b83526020808301516001600160a01b031690840152604091820151900b910152565b509392505050565b5f8151808452602084019350602083015f5b828110156144d5578151805160070b87526020808201516001600160a01b03908116828a01526040808401511515908a01526060808401511515908a0152608092830151169188019190915260a09096019590910190600101614477565b5093949350505050565b5f8151808452602084019350602083015f5b828110156144d55781515f815160070b8852602082015160070b6020890152604082015160070b6040890152606082015160070b606089015260808201511515608089015260018060a01b0360a08301511660a089015260c08801905080975050506020820191506001810190506144f1565b5f8151808452602084019350602083015f5b828110156144d55781515f815160070b8852602082015160070b6020890152604082015160070b604089015260018060a01b03606083015116606089015260808201511515608089015260018060a01b0360a08301511660a089015260c0880190508097505050602082019150600181019050614576565b5f81516101208452614604610120850182614367565b9050602083015161461a602086018260070b9052565b50604083015161462e604086018215159052565b506060830151614642606086018215159052565b506080830151614656608086018215159052565b5060a083015184820360a086015261466e8282614465565b91505060c083015184820360c086015261468882826144df565b91505060e083015184820360e08601526146a28282614564565b9150506101008301518482036101008601526134c8828261425e565b8260070b8152604060208201525f613e5d60408301846145ee565b8060070b811461419a575f80fd5b5f80604083850312156146f8575f80fd5b823561470381614186565b915060208301356141f3816146d9565b8260070b8152604060208201525f825160c060408401526147386101008401826145ee565b9050602084015160070b606084015260018060a01b036040850151166080840152606084015160070b60a08401526080840151603f198483030160c0850152614781828261425e565b60a095909501516001600160a01b031660e0949094019390935250919392505050565b634e487b7160e01b5f52604160045260245ffd5b604080519081016001600160401b03811182821017156147da576147da6147a4565b60405290565b60405160a081016001600160401b03811182821017156147da576147da6147a4565b60405161012081016001600160401b03811182821017156147da576147da6147a4565b60405160c081016001600160401b03811182821017156147da576147da6147a4565b604051601f8201601f191681016001600160401b038111828210171561486f5761486f6147a4565b604052919050565b5f6001600160401b0382111561488f5761488f6147a4565b5060051b60200190565b5f80604083850312156148aa575f80fd5b82356148b581614186565b915060208301356001600160401b038111156148cf575f80fd5b8301601f810185136148df575f80fd5b80356148f26148ed82614877565b614847565b8082825260208201915060208360051b850101925087831115614913575f80fd5b6020840193505b8284101561493e57833561492d81614186565b82526020938401939091019061491a565b809450505050509250929050565b8260070b8152604060208201525f613e5d604083018461428c565b8260070b8152604060208201525f825160408084015261498a60808401826145ee565b9050602084015160030b6060840152809150509392505050565b8460070b8152608060208201525f6149bf6080830186614465565b82810360408401526149d181866144df565b90508281036060840152613ddb8185614564565b600783900b81526080810161425760208301848051600790810b83526020808301516001600160a01b031690840152604091820151900b910152565b5f805f60608486031215614a33575f80fd5b8335614a3e81614186565b92506020840135614a4e816146d9565b915060408401356001600160401b03811115614a68575f80fd5b8401601f81018613614a78575f80fd5b8035614a866148ed82614877565b8082825260208201915060208360051b850101925088831115614aa7575f80fd5b6020840193505b82841015614ad2578335614ac1816146d9565b825260209384019390910190614aae565b809450505050509250925092565b5f6001600160401b03821115614af857614af86147a4565b50601f01601f191660200190565b5f805f60608486031215614b18575f80fd5b8335614b2381614186565b92506020840135614b33816146d9565b915060408401356001600160401b03811115614b4d575f80fd5b8401601f81018613614b5d575f80fd5b8035614b6b6148ed82614877565b8082825260208201915060208360051b850101925088831115614b8c575f80fd5b602084015b83811015614c0c5780356001600160401b03811115614bae575f80fd5b8501603f81018b13614bbe575f80fd5b6020810135614bcf6148ed82614ae0565b8181526040838301018d1015614be3575f80fd5b816040840160208301375f60208383010152808652505050602083019250602081019050614b91565b50809450505050509250925092565b5f606082018560070b83528460070b6020840152606060408401528084518083526080850191506020860192505f5b81811015614c6b57835160070b835260209384019390920191600101614c4a565b5090979650505050505050565b5f805f60608486031215614c8a575f80fd5b8335614c9581614186565b92506020840135614ca581614186565b91506040840135614cb581614186565b809150509250925092565b600181811c90821680614cd457607f821691505b602082108103614cf257634e487b7160e01b5f52602260045260245ffd5b50919050565b5f8154614d0481614cc0565b600182168015614d1b5760018114614d3057614d5d565b60ff1983168652811515820286019350614d5d565b845f5260205f205f5b83811015614d5557815488820152600190910190602001614d39565b505081860193505b50505092915050565b5f6142578284614cf8565b5f8154614d7d81614cc0565b808552600182168015614d975760018114614db357614d5d565b60ff1983166020870152602082151560051b8701019350614d5d565b845f5260205f205f5b83811015614dde5781546020828a010152600182019150602081019050614dbc565b870160200194505050505092915050565b5f82825480855260208501945060208160051b830101845f5260205f205f5b8381101561435b57848303601f1901885281548352604060208401819052600183015460ff811615159185019190915260081c6001600160a01b0316606084015260a06080840152614e6660e0840160028401614d71565b838103603f190160a0850152614e7f8160038501614d71565b60048401546001600160a01b031660c095909501949094525060209790970196600590910190600101614e0e565b61016082525f614ec1610160840183614d71565b8381036020850152614ed68160018501614d71565b9050614eec60028401546001600160a01b031690565b6001600160a01b031660408501528381036060850152614f0f8160038501614d71565b90506004830154614f276080860160ff831615159052565b600881901c60070b60a0860152614f4860c0860160ff8360481c1615159052565b5083810360e0850152614f5e8160058501614def565b90506142576101008501600685018054600781810b8452604091821c6001600160a01b0316602085015260019092015490910b910152565b5f8154808452602084019350825f5260205f205f5b828110156144d5578154600781900b8752604081811c6001600160a01b0390811660208a015260e083901c60ff9081161515928a019290925260e89290921c1615156060880152600180840154909116608088015260a09096019560029092019101614fab565b5f8154808452602084019350825f5260205f205f5b828110156144d5575f82548060070b88528060401c60070b60208901528060801c60070b60408901528060c01d60070b60608901525060018301546150736080890160ff831615159052565b60081c6001600160a01b031660a08801525060c09095019460029190910190600101615027565b5f8154808452602084019350825f5260205f205f5b828110156144d5575f82548060070b88528060401c60070b60208901528060801c60070b604089015250600183015460018060a01b03811660608901526151006080890160ff8360a01c1615159052565b505060028201546001600160a01b031660a087015260c0909501946003909101906001016150af565b60ff831681526040602082015261012060408201525f61514d610160830184614ead565b6008840154600781900b60608501526151706080850160ff8360401c1615159052565b61518460a0850160ff8360481c1615159052565b61519860c0850160ff8360501c1615159052565b50828103603f190160e08401526151b28160098601614f96565b838103603f190161010085015290506151ce81600a8601615012565b838103603f190161012085015290506151ea81600b860161509a565b838103603f190161014085015290506134c881600c8601614d71565b60ff85168152608060208201525f6152216080830186614f96565b82810360408401526152338186615012565b90508281036060840152613ddb818561509a565b60ff831681526080810161425760208301848054600781810b8452604091821c6001600160a01b0316602085015260019092015490910b910152565b80356020831015610dd0575f19602084900360031b1b1692915050565b60208082526017908201527f68747343616c6c3a2064656c6567617465642063616c6c000000000000000000604082015260600190565b80516152e281614186565b919050565b5f602082840312156152f7575f80fd5b815161425781614186565b634e487b7160e01b5f52603260045260245ffd5b634e487b7160e01b5f52601160045260245ffd5b80820180821115610dd057610dd0615316565b81810381811115610dd057610dd0615316565b5f82518060208501845e5f920191825250919050565b80516152e2816146d9565b5f82601f830112615380575f80fd5b8151602083015f6153936148ed84614ae0565b90508281528583830111156153a6575f80fd5b8282602083015e5f92810160200192909252509392505050565b805180151581146152e2575f80fd5b5f82601f8301126153de575f80fd5b81516153ec6148ed82614877565b8082825260208201915060208360051b86010192508583111561540d575f80fd5b602085015b8381101561552a5780516001600160401b0381111561542f575f80fd5b86016040818903601f19011215615444575f80fd5b61544c6147b8565b6020820151815260408201516001600160401b0381111561546b575f80fd5b60208184010192505060a0828a031215615483575f80fd5b61548b6147e0565b615494836153c0565b815260208301516154a481614186565b602082015260408301516001600160401b038111156154c1575f80fd5b6154cd8b828601615371565b60408301525060608301516001600160401b038111156154eb575f80fd5b6154f78b828601615371565b6060830152506080830151925061550d83614186565b608081019290925260208181019290925284529283019201615412565b5095945050505050565b5f60608284031215615544575f80fd5b604051606081016001600160401b0381118282101715615566576155666147a4565b80604052508091508251615579816146d9565b8152602083015161558981614186565b6020820152604083015161559c816146d9565b6040919091015292915050565b5f61016082840312156155ba575f80fd5b6155c2614802565b905081516001600160401b038111156155d9575f80fd5b6155e584828501615371565b82525060208201516001600160401b03811115615600575f80fd5b61560c84828501615371565b60208301525061561e604083016152d7565b604082015260608201516001600160401b0381111561563b575f80fd5b61564784828501615371565b606083015250615659608083016153c0565b608082015261566a60a08301615366565b60a082015261567b60c083016153c0565b60c082015260e08201516001600160401b03811115615698575f80fd5b6156a4848285016153cf565b60e0830152506156b8836101008401615534565b61010082015292915050565b5f82601f8301126156d3575f80fd5b81516156e16148ed82614877565b80828252602082019150602060a08402860101925085831115615702575f80fd5b602085015b8381101561552a5760a0818803121561571e575f80fd5b6157266147e0565b8151615731816146d9565b8152602082015161574181614186565b6020820152615752604083016153c0565b6040820152615763606083016153c0565b6060820152608082015161577681614186565b6080820152835260209092019160a001615707565b5f82601f83011261579a575f80fd5b81516157a86148ed82614877565b80828252602082019150602060c084028601019250858311156157c9575f80fd5b602085015b8381101561552a5760c081880312156157e5575f80fd5b6157ed614825565b81516157f8816146d9565b81526020820151615808816146d9565b6020820152604082015161581b816146d9565b6040820152606082015161582e816146d9565b606082015261583f608083016153c0565b608082015260a082015161585281614186565b60a0820152835260209092019160c0016157ce565b5f82601f830112615876575f80fd5b81516158846148ed82614877565b80828252602082019150602060c084028601019250858311156158a5575f80fd5b602085015b8381101561552a5760c081880312156158c1575f80fd5b6158c9614825565b81516158d4816146d9565b815260208201516158e4816146d9565b602082015260408201516158f7816146d9565b6040820152606082015161590a81614186565b606082015261591b608083016153c0565b608082015260a082015161592e81614186565b60a0820152835260209092019160c0016158aa565b5f8060408385031215615954575f80fd5b825161595f816146d9565b60208401519092506001600160401b0381111561597a575f80fd5b8301610120818603121561598c575f80fd5b615994614802565b81516001600160401b038111156159a9575f80fd5b6159b5878285016155a9565b8252506159c460208301615366565b60208201526159d5604083016153c0565b60408201526159e6606083016153c0565b60608201526159f7608083016153c0565b608082015260a08201516001600160401b03811115615a14575f80fd5b615a20878285016156c4565b60a08301525060c08201516001600160401b03811115615a3e575f80fd5b615a4a8782850161578b565b60c08301525060e08201516001600160401b03811115615a68575f80fd5b615a7487828501615867565b60e0830152506101008201516001600160401b03811115615a93575f80fd5b615a9f87828501615371565b6101008301525080925050509250929050565b5f8060408385031215615ac3575f80fd5b8251615ace816146d9565b9150615adc602084016153c0565b90509250929050565b5f60208284031215615af5575f80fd5b815160ff81168114614257575f80fd5b5f8060408385031215615b16575f80fd5b8251615b21816146d9565b8092505060208301518060030b81146141f3575f80fd5b5f805f8060808587031215615b4b575f80fd5b8451615b56816146d9565b60208601519094506001600160401b03811115615b71575f80fd5b615b7d878288016156c4565b93505060408501516001600160401b03811115615b98575f80fd5b615ba48782880161578b565b92505060608501516001600160401b03811115615bbf575f80fd5b615bcb87828801615867565b91505092959194509250565b5f8060808385031215615be8575f80fd5b8251615bf3816146d9565b9150615adc8460208501615534565b5f60208284031215615c12575f80fd5b5051919050565b80516020808301519190811015614cf2575f1960209190910360031b1b16919050565b5f60208284031215615c4c575f80fd5b614257826153c0565b602081525f6142576020830184614d71565b602081525f614257602083018461425e565b5f60208284031215615c89575f80fd5b815163ffffffff81168114614257575f80fd5b6001600160e01b0319938416815260409290921b67ffffffffffffffff1916600483015260e01b909116601c82015260200190565b6001600160e01b0319948516815260609390931b6001600160601b031916600484015260e091821b84166018840152901b909116601c8201526020019056fea26469706673582212204b0aef3301e89e0ba63d589b181ec67792643dbe214bccbaf682ea6ac1fc44f664736f6c634300081a0033",
        "linkReferences": {}
    },
    "methodIdentifiers": {
        "_update(address,address,uint256)": "0bb3bfa8",
        "associateToken(address,address)": "49146bde",
        "associateTokens(address,address[])": "2e63879b",
        "burnToken(address,int64,int64[])": "d6910d06",
        "dissociateToken(address,address)": "099794e8",
        "dissociateTokens(address,address[])": "78b63918",
        "getAccountId(address)": "e0b490f7",
        "getApproved(address,uint256)": "098f2366",
        "getFungibleTokenInfo(address)": "3f28a19b",
        "getNonFungibleTokenInfo(address,int64)": "287e1da8",
        "getTokenCustomFees(address)": "ae7611a0",
        "getTokenDefaultFreezeStatus(address)": "a7daa18d",
        "getTokenDefaultKycStatus(address)": "335e04c1",
        "getTokenExpiryInfo(address)": "d614cdb8",
        "getTokenInfo(address)": "1f69565f",
        "getTokenKey(address,uint256)": "3c4dd32e",
        "getTokenType(address)": "93272baf",
        "isApprovedForAll(address,address,address)": "f49f40db",
        "isToken(address)": "19f37361",
        "mintToken(address,int64,bytes[])": "e0f4059a"
    },
    "storageLayout": {
        "storage": [
            {
                "astId": 91,
                "contract": "contracts/HtsSystemContract.sol:HtsSystemContract",
                "label": "tokenType",
                "offset": 0,
                "slot": "0",
                "type": "t_string_storage"
            },
            {
                "astId": 93,
                "contract": "contracts/HtsSystemContract.sol:HtsSystemContract",
                "label": "name",
                "offset": 0,
                "slot": "1",
                "type": "t_string_storage"
            },
            {
                "astId": 95,
                "contract": "contracts/HtsSystemContract.sol:HtsSystemContract",
                "label": "symbol",
                "offset": 0,
                "slot": "2",
                "type": "t_string_storage"
            },
            {
                "astId": 97,
                "contract": "contracts/HtsSystemContract.sol:HtsSystemContract",
                "label": "decimals",
                "offset": 0,
                "slot": "3",
                "type": "t_uint8"
            },
            {
                "astId": 99,
                "contract": "contracts/HtsSystemContract.sol:HtsSystemContract",
                "label": "totalSupply",
                "offset": 0,
                "slot": "4",
                "type": "t_uint256"
            },
            {
                "astId": 102,
                "contract": "contracts/HtsSystemContract.sol:HtsSystemContract",
                "label": "_tokenInfo",
                "offset": 0,
                "slot": "5",
                "type": "t_struct(TokenInfo)6381_storage"
            }
        ],
        "types": {
            "t_address": {
                "encoding": "inplace",
                "label": "address",
                "numberOfBytes": "20"
            },
            "t_array(t_struct(FixedFee)6423_storage)dyn_storage": {
                "encoding": "dynamic_array",
                "label": "struct IHederaTokenService.FixedFee[]",
                "numberOfBytes": "32",
                "base": "t_struct(FixedFee)6423_storage"
            },
            "t_array(t_struct(FractionalFee)6437_storage)dyn_storage": {
                "encoding": "dynamic_array",
                "label": "struct IHederaTokenService.FractionalFee[]",
                "numberOfBytes": "32",
                "base": "t_struct(FractionalFee)6437_storage"
            },
            "t_array(t_struct(RoyaltyFee)6451_storage)dyn_storage": {
                "encoding": "dynamic_array",
                "label": "struct IHederaTokenService.RoyaltyFee[]",
                "numberOfBytes": "32",
                "base": "t_struct(RoyaltyFee)6451_storage"
            },
            "t_array(t_struct(TokenKey)6322_storage)dyn_storage": {
                "encoding": "dynamic_array",
                "label": "struct IHederaTokenService.TokenKey[]",
                "numberOfBytes": "32",
                "base": "t_struct(TokenKey)6322_storage"
            },
            "t_bool": {
                "encoding": "inplace",
                "label": "bool",
                "numberOfBytes": "1"
            },
            "t_bytes_storage": {
                "encoding": "bytes",
                "label": "bytes",
                "numberOfBytes": "32"
            },
            "t_int64": {
                "encoding": "inplace",
                "label": "int64",
                "numberOfBytes": "8"
            },
            "t_string_storage": {
                "encoding": "bytes",
                "label": "string",
                "numberOfBytes": "32"
            },
            "t_struct(Expiry)6303_storage": {
                "encoding": "inplace",
                "label": "struct IHederaTokenService.Expiry",
                "numberOfBytes": "64",
                "members": [
                    {
                        "astId": 6298,
                        "contract": "contracts/HtsSystemContract.sol:HtsSystemContract",
                        "label": "second",
                        "offset": 0,
                        "slot": "0",
                        "type": "t_int64"
                    },
                    {
                        "astId": 6300,
                        "contract": "contracts/HtsSystemContract.sol:HtsSystemContract",
                        "label": "autoRenewAccount",
                        "offset": 8,
                        "slot": "0",
                        "type": "t_address"
                    },
                    {
                        "astId": 6302,
                        "contract": "contracts/HtsSystemContract.sol:HtsSystemContract",
                        "label": "autoRenewPeriod",
                        "offset": 0,
                        "slot": "1",
                        "type": "t_int64"
                    }
                ]
            },
            "t_struct(FixedFee)6423_storage": {
                "encoding": "inplace",
                "label": "struct IHederaTokenService.FixedFee",
                "numberOfBytes": "64",
                "members": [
                    {
                        "astId": 6414,
                        "contract": "contracts/HtsSystemContract.sol:HtsSystemContract",
                        "label": "amount",
                        "offset": 0,
                        "slot": "0",
                        "type": "t_int64"
                    },
                    {
                        "astId": 6416,
                        "contract": "contracts/HtsSystemContract.sol:HtsSystemContract",
                        "label": "tokenId",
                        "offset": 8,
                        "slot": "0",
                        "type": "t_address"
                    },
                    {
                        "astId": 6418,
                        "contract": "contracts/HtsSystemContract.sol:HtsSystemContract",
                        "label": "useHbarsForPayment",
                        "offset": 28,
                        "slot": "0",
                        "type": "t_bool"
                    },
                    {
                        "astId": 6420,
                        "contract": "contracts/HtsSystemContract.sol:HtsSystemContract",
                        "label": "useCurrentTokenForPayment",
                        "offset": 29,
                        "slot": "0",
                        "type": "t_bool"
                    },
                    {
                        "astId": 6422,
                        "contract": "contracts/HtsSystemContract.sol:HtsSystemContract",
                        "label": "feeCollector",
                        "offset": 0,
                        "slot": "1",
                        "type": "t_address"
                    }
                ]
            },
            "t_struct(FractionalFee)6437_storage": {
                "encoding": "inplace",
                "label": "struct IHederaTokenService.FractionalFee",
                "numberOfBytes": "64",
                "members": [
                    {
                        "astId": 6426,
                        "contract": "contracts/HtsSystemContract.sol:HtsSystemContract",
                        "label": "numerator",
                        "offset": 0,
                        "slot": "0",
                        "type": "t_int64"
                    },
                    {
                        "astId": 6428,
                        "contract": "contracts/HtsSystemContract.sol:HtsSystemContract",
                        "label": "denominator",
                        "offset": 8,
                        "slot": "0",
                        "type": "t_int64"
                    },
                    {
                        "astId": 6430,
                        "contract": "contracts/HtsSystemContract.sol:HtsSystemContract",
                        "label": "minimumAmount",
                        "offset": 16,
                        "slot": "0",
                        "type": "t_int64"
                    },
                    {
                        "astId": 6432,
                        "contract": "contracts/HtsSystemContract.sol:HtsSystemContract",
                        "label": "maximumAmount",
                        "offset": 24,
                        "slot": "0",
                        "type": "t_int64"
                    },
                    {
                        "astId": 6434,
                        "contract": "contracts/HtsSystemContract.sol:HtsSystemContract",
                        "label": "netOfTransfers",
                        "offset": 0,
                        "slot": "1",
                        "type": "t_bool"
                    },
                    {
                        "astId": 6436,
                        "contract": "contracts/HtsSystemContract.sol:HtsSystemContract",
                        "label": "feeCollector",
                        "offset": 1,
                        "slot": "1",
                        "type": "t_address"
                    }
                ]
            },
            "t_struct(HederaToken)6345_storage": {
                "encoding": "inplace",
                "label": "struct IHederaTokenService.HederaToken",
                "numberOfBytes": "256",
                "members": [
                    {
                        "astId": 6325,
                        "contract": "contracts/HtsSystemContract.sol:HtsSystemContract",
                        "label": "name",
                        "offset": 0,
                        "slot": "0",
                        "type": "t_string_storage"
                    },
                    {
                        "astId": 6327,
                        "contract": "contracts/HtsSystemContract.sol:HtsSystemContract",
                        "label": "symbol",
                        "offset": 0,
                        "slot": "1",
                        "type": "t_string_storage"
                    },
                    {
                        "astId": 6329,
                        "contract": "contracts/HtsSystemContract.sol:HtsSystemContract",
                        "label": "treasury",
                        "offset": 0,
                        "slot": "2",
                        "type": "t_address"
                    },
                    {
                        "astId": 6331,
                        "contract": "contracts/HtsSystemContract.sol:HtsSystemContract",
                        "label": "memo",
                        "offset": 0,
                        "slot": "3",
                        "type": "t_string_storage"
                    },
                    {
                        "astId": 6333,
                        "contract": "contracts/HtsSystemContract.sol:HtsSystemContract",
                        "label": "tokenSupplyType",
                        "offset": 0,
                        "slot": "4",
                        "type": "t_bool"
                    },
                    {
                        "astId": 6335,
                        "contract": "contracts/HtsSystemContract.sol:HtsSystemContract",
                        "label": "maxSupply",
                        "offset": 1,
                        "slot": "4",
                        "type": "t_int64"
                    },
                    {
                        "astId": 6337,
                        "contract": "contracts/HtsSystemContract.sol:HtsSystemContract",
                        "label": "freezeDefault",
                        "offset": 9,
                        "slot": "4",
                        "type": "t_bool"
                    },
                    {
                        "astId": 6341,
                        "contract": "contracts/HtsSystemContract.sol:HtsSystemContract",
                        "label": "tokenKeys",
                        "offset": 0,
                        "slot": "5",
                        "type": "t_array(t_struct(TokenKey)6322_storage)dyn_storage"
                    },
                    {
                        "astId": 6344,
                        "contract": "contracts/HtsSystemContract.sol:HtsSystemContract",
                        "label": "expiry",
                        "offset": 0,
                        "slot": "6",
                        "type": "t_struct(Expiry)6303_storage"
                    }
                ]
            },
            "t_struct(KeyValue)6315_storage": {
                "encoding": "inplace",
                "label": "struct IHederaTokenService.KeyValue",
                "numberOfBytes": "128",
                "members": [
                    {
                        "astId": 6306,
                        "contract": "contracts/HtsSystemContract.sol:HtsSystemContract",
                        "label": "inheritAccountKey",
                        "offset": 0,
                        "slot": "0",
                        "type": "t_bool"
                    },
                    {
                        "astId": 6308,
                        "contract": "contracts/HtsSystemContract.sol:HtsSystemContract",
                        "label": "contractId",
                        "offset": 1,
                        "slot": "0",
                        "type": "t_address"
                    },
                    {
                        "astId": 6310,
                        "contract": "contracts/HtsSystemContract.sol:HtsSystemContract",
                        "label": "ed25519",
                        "offset": 0,
                        "slot": "1",
                        "type": "t_bytes_storage"
                    },
                    {
                        "astId": 6312,
                        "contract": "contracts/HtsSystemContract.sol:HtsSystemContract",
                        "label": "ECDSA_secp256k1",
                        "offset": 0,
                        "slot": "2",
                        "type": "t_bytes_storage"
                    },
                    {
                        "astId": 6314,
                        "contract": "contracts/HtsSystemContract.sol:HtsSystemContract",
                        "label": "delegatableContractId",
                        "offset": 0,
                        "slot": "3",
                        "type": "t_address"
                    }
                ]
            },
            "t_struct(RoyaltyFee)6451_storage": {
                "encoding": "inplace",
                "label": "struct IHederaTokenService.RoyaltyFee",
                "numberOfBytes": "96",
                "members": [
                    {
                        "astId": 6440,
                        "contract": "contracts/HtsSystemContract.sol:HtsSystemContract",
                        "label": "numerator",
                        "offset": 0,
                        "slot": "0",
                        "type": "t_int64"
                    },
                    {
                        "astId": 6442,
                        "contract": "contracts/HtsSystemContract.sol:HtsSystemContract",
                        "label": "denominator",
                        "offset": 8,
                        "slot": "0",
                        "type": "t_int64"
                    },
                    {
                        "astId": 6444,
                        "contract": "contracts/HtsSystemContract.sol:HtsSystemContract",
                        "label": "amount",
                        "offset": 16,
                        "slot": "0",
                        "type": "t_int64"
                    },
                    {
                        "astId": 6446,
                        "contract": "contracts/HtsSystemContract.sol:HtsSystemContract",
                        "label": "tokenId",
                        "offset": 0,
                        "slot": "1",
                        "type": "t_address"
                    },
                    {
                        "astId": 6448,
                        "contract": "contracts/HtsSystemContract.sol:HtsSystemContract",
                        "label": "useHbarsForPayment",
                        "offset": 20,
                        "slot": "1",
                        "type": "t_bool"
                    },
                    {
                        "astId": 6450,
                        "contract": "contracts/HtsSystemContract.sol:HtsSystemContract",
                        "label": "feeCollector",
                        "offset": 0,
                        "slot": "2",
                        "type": "t_address"
                    }
                ]
            },
            "t_struct(TokenInfo)6381_storage": {
                "encoding": "inplace",
                "label": "struct IHederaTokenService.TokenInfo",
                "numberOfBytes": "416",
                "members": [
                    {
                        "astId": 6350,
                        "contract": "contracts/HtsSystemContract.sol:HtsSystemContract",
                        "label": "token",
                        "offset": 0,
                        "slot": "0",
                        "type": "t_struct(HederaToken)6345_storage"
                    },
                    {
                        "astId": 6353,
                        "contract": "contracts/HtsSystemContract.sol:HtsSystemContract",
                        "label": "totalSupply",
                        "offset": 0,
                        "slot": "8",
                        "type": "t_int64"
                    },
                    {
                        "astId": 6356,
                        "contract": "contracts/HtsSystemContract.sol:HtsSystemContract",
                        "label": "deleted",
                        "offset": 8,
                        "slot": "8",
                        "type": "t_bool"
                    },
                    {
                        "astId": 6359,
                        "contract": "contracts/HtsSystemContract.sol:HtsSystemContract",
                        "label": "defaultKycStatus",
                        "offset": 9,
                        "slot": "8",
                        "type": "t_bool"
                    },
                    {
                        "astId": 6362,
                        "contract": "contracts/HtsSystemContract.sol:HtsSystemContract",
                        "label": "pauseStatus",
                        "offset": 10,
                        "slot": "8",
                        "type": "t_bool"
                    },
                    {
                        "astId": 6367,
                        "contract": "contracts/HtsSystemContract.sol:HtsSystemContract",
                        "label": "fixedFees",
                        "offset": 0,
                        "slot": "9",
                        "type": "t_array(t_struct(FixedFee)6423_storage)dyn_storage"
                    },
                    {
                        "astId": 6372,
                        "contract": "contracts/HtsSystemContract.sol:HtsSystemContract",
                        "label": "fractionalFees",
                        "offset": 0,
                        "slot": "10",
                        "type": "t_array(t_struct(FractionalFee)6437_storage)dyn_storage"
                    },
                    {
                        "astId": 6377,
                        "contract": "contracts/HtsSystemContract.sol:HtsSystemContract",
                        "label": "royaltyFees",
                        "offset": 0,
                        "slot": "11",
                        "type": "t_array(t_struct(RoyaltyFee)6451_storage)dyn_storage"
                    },
                    {
                        "astId": 6380,
                        "contract": "contracts/HtsSystemContract.sol:HtsSystemContract",
                        "label": "ledgerId",
                        "offset": 0,
                        "slot": "12",
                        "type": "t_string_storage"
                    }
                ]
            },
            "t_struct(TokenKey)6322_storage": {
                "encoding": "inplace",
                "label": "struct IHederaTokenService.TokenKey",
                "numberOfBytes": "160",
                "members": [
                    {
                        "astId": 6318,
                        "contract": "contracts/HtsSystemContract.sol:HtsSystemContract",
                        "label": "keyType",
                        "offset": 0,
                        "slot": "0",
                        "type": "t_uint256"
                    },
                    {
                        "astId": 6321,
                        "contract": "contracts/HtsSystemContract.sol:HtsSystemContract",
                        "label": "key",
                        "offset": 0,
                        "slot": "1",
                        "type": "t_struct(KeyValue)6315_storage"
                    }
                ]
            },
            "t_uint256": {
                "encoding": "inplace",
                "label": "uint256",
                "numberOfBytes": "32"
            },
            "t_uint8": {
                "encoding": "inplace",
                "label": "uint8",
                "numberOfBytes": "1"
            }
        }
    },
    "userdoc": {
        "version": 1,
        "kind": "user",
        "methods": {
            "associateToken(address,address)": {
                "notice": "Single-token variant of associateTokens. Will be mapped to a single entry array call of associateTokens"
            },
            "associateTokens(address,address[])": {
                "notice": "Associates the provided account with the provided tokens. Must be signed by the provided  Account's key or called from the accounts contract key  If the provided account is not found, the transaction will resolve to INVALID_ACCOUNT_ID.  If the provided account has been deleted, the transaction will resolve to ACCOUNT_DELETED.  If any of the provided tokens is not found, the transaction will resolve to INVALID_TOKEN_REF.  If any of the provided tokens has been deleted, the transaction will resolve to TOKEN_WAS_DELETED.  If an association between the provided account and any of the tokens already exists, the  transaction will resolve to TOKEN_ALREADY_ASSOCIATED_TO_ACCOUNT.  If the provided account's associations count exceed the constraint of maximum token associations    per account, the transaction will resolve to TOKENS_PER_ACCOUNT_LIMIT_EXCEEDED.  On success, associations between the provided account and tokens are made and the account is    ready to interact with the tokens."
            },
            "dissociateToken(address,address)": {
                "notice": "Single-token variant of dissociateTokens. Will be mapped to a single entry array call of dissociateTokens"
            },
            "dissociateTokens(address,address[])": {
                "notice": "Dissociates the provided account with the provided tokens. Must be signed by the provided Account's key. If the provided account is not found, the transaction will resolve to INVALID_ACCOUNT_ID. If the provided account has been deleted, the transaction will resolve to ACCOUNT_DELETED. If any of the provided tokens is not found, the transaction will resolve to INVALID_TOKEN_REF. If any of the provided tokens has been deleted, the transaction will resolve to TOKEN_WAS_DELETED. If an association between the provided account and any of the tokens does not exist, the transaction will resolve to TOKEN_NOT_ASSOCIATED_TO_ACCOUNT. If a token has not been deleted and has not expired, and the user has a nonzero balance, the transaction will resolve to TRANSACTION_REQUIRES_ZERO_TOKEN_BALANCES. If a <b>fungible token</b> has expired, the user can disassociate even if their token balance is not zero. If a <b>non fungible token</b> has expired, the user can <b>not</b> disassociate if their token balance is not zero. The transaction will resolve to TRANSACTION_REQUIRED_ZERO_TOKEN_BALANCES. On success, associations between the provided account and tokens are removed."
            },
            "getApproved(address,uint256)": {
                "notice": "Get the approved address for a single NFT Only Applicable to NFT Tokens"
            },
            "getFungibleTokenInfo(address)": {
                "notice": "Query fungible token info"
            },
            "getNonFungibleTokenInfo(address,int64)": {
                "notice": "Query non fungible token info"
            },
            "getTokenCustomFees(address)": {
                "notice": "Query token custom fees"
            },
            "getTokenDefaultFreezeStatus(address)": {
                "notice": "Query token default freeze status"
            },
            "getTokenDefaultKycStatus(address)": {
                "notice": "Query token default kyc status"
            },
            "getTokenExpiryInfo(address)": {
                "notice": "Query token expiry info"
            },
            "getTokenInfo(address)": {
                "notice": "Query token info"
            },
            "getTokenKey(address,uint256)": {
                "notice": "Query token KeyValue"
            },
            "getTokenType(address)": {
                "notice": "Query to return the token type for a given address"
            },
            "isApprovedForAll(address,address,address)": {
                "notice": "Query if an address is an authorized operator for another address Only Applicable to NFT Tokens"
            },
            "isToken(address)": {
                "notice": "Query if valid token found for the given address"
            }
        }
    },
    "devdoc": {
        "version": 1,
        "kind": "dev",
        "methods": {
            "associateToken(address,address)": {
                "params": {
                    "account": "The account to be associated with the provided token",
                    "token": "The token to be associated with the provided account"
                }
            },
            "associateTokens(address,address[])": {
                "params": {
                    "account": "The account to be associated with the provided tokens",
                    "tokens": "The tokens to be associated with the provided account. In the case of NON_FUNGIBLE_UNIQUE               Type, once an account is associated, it can hold any number of NFTs (serial numbers) of that               token type"
                },
                "returns": {
                    "responseCode": "The response code for the status of the request. SUCCESS is 22."
                }
            },
            "dissociateToken(address,address)": {
                "params": {
                    "account": "The account to be associated with the provided token",
                    "token": "The token to be associated with the provided account"
                }
            },
            "dissociateTokens(address,address[])": {
                "params": {
                    "account": "The account to be dissociated from the provided tokens",
                    "tokens": "The tokens to be dissociated from the provided account."
                },
                "returns": {
                    "responseCode": "The response code for the status of the request. SUCCESS is 22."
                }
            },
            "getAccountId(address)": {
                "details": "Returns the account id (omitting both shard and realm numbers) of the given `address`. The storage adapter, _i.e._, `getHtsStorageAt`, assumes that both shard and realm numbers are zero. Thus, they can be omitted from the account id. See https://docs.hedera.com/hedera/core-concepts/accounts/account-properties for more info on account properties."
            },
            "getApproved(address,uint256)": {
                "params": {
                    "serialNumber": "The NFT to find the approved address for",
                    "token": "The Hedera NFT token address to check approval"
                },
                "returns": {
                    "approved": "The approved address for this NFT, or the zero address if there is none",
                    "responseCode": "The response code for the status of the request. SUCCESS is 22."
                }
            },
            "getFungibleTokenInfo(address)": {
                "params": {
                    "token": "The token address to check"
                },
                "returns": {
                    "_0": "The response code for the status of the request. SUCCESS is 22.",
                    "_1": "FungibleTokenInfo info for `token`"
                }
            },
            "getNonFungibleTokenInfo(address,int64)": {
                "params": {
                    "serialNumber": "The NFT serialNumber to check",
                    "token": "The token address to check"
                },
                "returns": {
                    "_0": "The response code for the status of the request. SUCCESS is 22.",
                    "_1": "NonFungibleTokenInfo info for `token` `serialNumber`"
                }
            },
            "getTokenCustomFees(address)": {
                "params": {
                    "token": "The token address to check"
                },
                "returns": {
                    "_0": "The response code for the status of the request. SUCCESS is 22.",
                    "_1": "Set of fixed fees for `token`",
                    "_2": "Set of fractional fees for `token`",
                    "_3": "Set of royalty fees for `token`"
                }
            },
            "getTokenDefaultFreezeStatus(address)": {
                "params": {
                    "token": "The token address to check"
                },
                "returns": {
                    "_0": "The response code for the status of the request. SUCCESS is 22.",
                    "_1": "True if `token` default freeze status is frozen."
                }
            },
            "getTokenDefaultKycStatus(address)": {
                "params": {
                    "token": "The token address to check"
                },
                "returns": {
                    "_0": "The response code for the status of the request. SUCCESS is 22.",
                    "_1": "True if `token` default kyc status is KycNotApplicable and false if Revoked."
                }
            },
            "getTokenExpiryInfo(address)": {
                "params": {
                    "token": "The token address to check"
                },
                "returns": {
                    "responseCode": "The response code for the status of the request. SUCCESS is 22.",
                    "tokenInfo": "Expiry info for `token`"
                }
            },
            "getTokenInfo(address)": {
                "params": {
                    "token": "The token address to check"
                },
                "returns": {
                    "responseCode": "The response code for the status of the request. SUCCESS is 22.",
                    "tokenInfo": "TokenInfo info for `token`"
                }
            },
            "getTokenKey(address,uint256)": {
                "params": {
                    "keyType": "The keyType of the desired KeyValue",
                    "token": "The token address to check"
                },
                "returns": {
                    "_0": "The response code for the status of the request. SUCCESS is 22.",
                    "_1": "KeyValue info for key of type `keyType`"
                }
            },
            "getTokenType(address)": {
                "params": {
                    "token": "The token address"
                },
                "returns": {
                    "_0": "The response code for the status of the request. SUCCESS is 22.",
                    "_1": "the token type. 0 is FUNGIBLE_COMMON, 1 is NON_FUNGIBLE_UNIQUE, -1 is UNRECOGNIZED"
                }
            },
            "isApprovedForAll(address,address,address)": {
                "params": {
                    "operator": "The address that acts on behalf of the owner",
                    "owner": "The address that owns the NFTs",
                    "token": "The Hedera NFT token address to approve"
                },
                "returns": {
                    "_0": "The response code for the status of the request. SUCCESS is 22.",
                    "_1": "True if `operator` is an approved operator for `owner`, false otherwise"
                }
            },
            "isToken(address)": {
                "params": {
                    "token": "The token address"
                },
                "returns": {
                    "_0": "The response code for the status of the request. SUCCESS is 22.",
                    "_1": "True if valid token found for the given address"
                }
            }
        },
        "events": {
            "Approval(address,address,uint256)": {
                "details": "Emitted when the allowance of a `spender` for an `owner` is set by a call to {approve}. `value` is the new allowance."
            },
            "Transfer(address,address,uint256)": {
                "details": "Emitted when `value` tokens are moved from one account (`from`) to another (`to`). Note that `value` may be zero."
            }
        }
    },
    "id": 1
}