{
  "abi": [
    {
      "type": "fallback",
      "stateMutability": "nonpayable"
    },
    {
      "type": "function",
      "name": "getAccountId",
      "inputs": [
        {
          "name": "account",
          "type": "address",
          "internalType": "address"
        }
      ],
      "outputs": [
        {
          "name": "accountId",
          "type": "uint32",
          "internalType": "uint32"
        }
      ],
      "stateMutability": "view"
    },
    {
      "type": "event",
      "name": "Approval",
      "inputs": [
        {
          "name": "owner",
          "type": "address",
          "indexed": true,
          "internalType": "address"
        },
        {
          "name": "spender",
          "type": "address",
          "indexed": true,
          "internalType": "address"
        },
        {
          "name": "amount",
          "type": "uint256",
          "indexed": false,
          "internalType": "uint256"
        }
      ],
      "anonymous": false
    },
    {
      "type": "event",
      "name": "Associated",
      "inputs": [
        {
          "name": "account",
          "type": "address",
          "indexed": true,
          "internalType": "address"
        }
      ],
      "anonymous": false
    },
    {
      "type": "event",
      "name": "Dissociated",
      "inputs": [
        {
          "name": "account",
          "type": "address",
          "indexed": true,
          "internalType": "address"
        }
      ],
      "anonymous": false
    },
    {
      "type": "event",
      "name": "Transfer",
      "inputs": [
        {
          "name": "from",
          "type": "address",
          "indexed": true,
          "internalType": "address"
        },
        {
          "name": "to",
          "type": "address",
          "indexed": true,
          "internalType": "address"
        },
        {
          "name": "amount",
          "type": "uint256",
          "indexed": false,
          "internalType": "uint256"
        }
      ],
      "anonymous": false
    }
  ],
  "bytecode": {
    "object": "0x6080604052348015600f57600080fd5b506115ec8061001f6000396000f3fe608060405234801561001057600080fd5b506004361061002b5760003560e01c8063e0b490f714610179575b6000366060601c8210156100865760405162461bcd60e51b815260206004820152601d60248201527f66616c6c6261636b3a206e6f7420656e6f7567682063616c6c6461746100000060448201526064015b60405180910390fd5b60006100956004823681611309565b61009e91611333565b60e01c905063618dc65e81146100f65760405162461bcd60e51b815260206004820152601e60248201527f66616c6c6261636b3a20756e737570706f727465642073656c6563746f720000604482015260640161007d565b6000610106601860043684611309565b61010f9161136b565b60601c90503081146101635760405162461bcd60e51b815260206004820152601d60248201527f66616c6c6261636b3a20746f6b656e206973206e6f742063616c6c6572000000604482015260640161007d565b61016b6101a5565b805195506020019350505050f35b61018c6101873660046113a1565b610942565b60405163ffffffff909116815260200160405180910390f35b606060006101b7601c60183684611309565b6101c091611333565b905063f90221fd60e01b6001600160e01b03198216016102015760006040516020016101ec9190611404565b60405160208183030381529060405291505090565b63cec31a9960e01b6001600160e01b0319821601610230576002546040805160ff9092166020830152016101ec565b63e7e9f22360e01b6001600160e01b031982160161025d576003546040516020016101ec91815260200190565b636a2764bf60e01b6001600160e01b03198216016102875760016040516020016101ec9190611404565b638f5f7dcf60e01b6001600160e01b031982160161033f57603c3610156102f05760405162461bcd60e51b815260206004820152601e60248201527f62616c616e63654f663a204e6f7420656e6f7567682063616c6c646174610000604482015260640161007d565b6000610300603c60283684611309565b6103099161136b565b60601c9050610317816109ee565b60405160200161032991815260200190565b6040516020818303038152906040529250505090565b6356fa634560e01b6001600160e01b031982160161041257605c3610156103a85760405162461bcd60e51b815260206004820152601d60248201527f7472616e736665723a204e6f7420656e6f7567682063616c6c64617461000000604482015260640161007d565b60006103b8603c60283684611309565b6103c19161136b565b60601c905060006103d6605c603c3684611309565b6103df916114b2565b9050336103ed818484610a02565b6040805160016020820152015b60405160208183030381529060405294505050505090565b63dc478d2360e01b6001600160e01b031982160161050e57607c36101561047b5760405162461bcd60e51b815260206004820152601e60248201527f7472616e73666572463a204e6f7420656e6f7567682063616c6c646174610000604482015260640161007d565b600061048b603c60283684611309565b6104949161136b565b60601c905060006104a9605c60483684611309565b6104b29161136b565b60601c905060006104c7607c605c3684611309565b6104d0916114b2565b9050336104de848284610b79565b6104e9848484610a02565b6040805160016020820152016040516020818303038152906040529550505050505090565b63114e896160e11b6001600160e01b03198216016105e657605c3610156105775760405162461bcd60e51b815260206004820152601e60248201527f616c6c6f77616e63653a204e6f7420656e6f7567682063616c6c646174610000604482015260640161007d565b6000610587603c60283684611309565b6105909161136b565b60601c905060006105a5605c60483684611309565b6105ae9161136b565b60601c90506105bd8282610bf3565b6040516020016105cf91815260200190565b604051602081830303815290604052935050505090565b63f6a1584d60e01b6001600160e01b03198216016106f257605c36101561064f5760405162461bcd60e51b815260206004820152601c60248201527f617070726f76653a204e6f7420656e6f7567682063616c6c6461746100000000604482015260640161007d565b600061065f603c60283684611309565b6106689161136b565b60601c9050600061067d605c603c3684611309565b610686916114b2565b905033610694818484610c09565b826001600160a01b0316816001600160a01b03167f8c5be1e5ebec7d5bd14f71427d1e84f3dd0314c0f7b2291e5b200ac8c7c3b925846040516106d991815260200190565b60405180910390a36040805160016020820152016103fa565b63bf3ef0e760e01b6001600160e01b03198216016107af57605c36101561075b5760405162461bcd60e51b815260206004820152601d60248201527f6d696e7446726f6d3a204e6f7420656e6f7567682063616c6c64617461000000604482015260640161007d565b600061076b603c60283684611309565b6107749161136b565b60601c90506000610789605c603c3684611309565b610792916114b2565b905061079e8282610cca565b6040805160016020820152016105cf565b6317ad327360e31b6001600160e01b031982160161084e57603c3610156108185760405162461bcd60e51b815260206004820152601960248201527f6275726e3a204e6f7420656e6f7567682063616c6c6461746100000000000000604482015260640161007d565b6000610828603c60283684611309565b610831916114b2565b905061083d3382610e90565b604080516001602082015201610329565b630863398760e41b6001600160e01b03198216016108fa57605c3610156108b75760405162461bcd60e51b815260206004820152601d60248201527f6275726e46726f6d3a204e6f7420656e6f7567682063616c6c64617461000000604482015260640161007d565b60006108c7603c60283684611309565b6108d09161136b565b60601c905060006108e5605c603c3684611309565b6108ee916114b2565b905061079e8282610e90565b60405162461bcd60e51b815260206004820152601f60248201527f7265646972656374466f72546f6b656e3a206e6f7420737570706f7274656400604482015260640161007d565b600030610167146109955760405162461bcd60e51b815260206004820152601760248201527f68747343616c6c3a2064656c6567617465642063616c6c000000000000000000604482015260640161007d565b6040805163e0b490f760e01b602082018190526000602483018190526001600160601b0319606087901b16602c840152909290918291016040516020818303038152906040526109e4906114d1565b5495945050505050565b6000806109fa83610ff7565b549392505050565b6001600160a01b038316610a4e5760405162461bcd60e51b8152602060048201526013602482015272343a399d1034b73b30b634b21039b2b73232b960691b604482015260640161007d565b6001600160a01b038216610a9c5760405162461bcd60e51b8152602060048201526015602482015274343a399d1034b73b30b634b2103932b1b2b4bb32b960591b604482015260640161007d565b6000610aa784610ff7565b805490915082811015610afc5760405162461bcd60e51b815260206004820152601f60248201527f5f7472616e736665723a20696e73756666696369656e742062616c616e636500604482015260640161007d565b82810382556000610b0c85610ff7565b80549091506000610b1d868361150b565b9050808355866001600160a01b0316886001600160a01b03167fddf252ad1be2c89b69c2b068fc378daa952ba7f163c4a11628f55a4df523b3ef88604051610b6791815260200190565b60405180910390a35050505050505050565b6000610b858484610bf3565b90506000198114610bed5781811015610be05760405162461bcd60e51b815260206004820152601d60248201527f5f7370656e64416c6c6f77616e63653a20696e73756666696369656e74000000604482015260640161007d565b610bed8484848403610c09565b50505050565b600080610c0084846110c9565b54949350505050565b6001600160a01b038316610c5f5760405162461bcd60e51b815260206004820152601760248201527f5f617070726f76653a20696e76616c6964206f776e6572000000000000000000604482015260640161007d565b6001600160a01b038216610cb55760405162461bcd60e51b815260206004820152601960248201527f5f617070726f76653a20696e76616c6964207370656e64657200000000000000604482015260640161007d565b6000610cc184846110c9565b91909155505050565b6001600160a01b038216610d195760405162461bcd60e51b815260206004820152601660248201527517db5a5b9d0e881a5b9d985b1a59081858d8dbdd5b9d60521b604482015260640161007d565b60008111610d615760405162461bcd60e51b815260206004820152601560248201527417db5a5b9d0e881a5b9d985b1a5908185b5bdd5b9d605a1b604482015260640161007d565b6000610d6c83610ff7565b80549091506000610d7d848361150b565b90508083558360036000828254610d94919061150b565b925050819055506000610e3060048054610dad906113ca565b80601f0160208091040260200160405190810160405280929190818152602001828054610dd9906113ca565b8015610e265780601f10610dfb57610100808354040283529160200191610e26565b820191906000526020600020905b815481529060010190602001808311610e0957829003601f168201915b5050505050611218565b9050610e3b8161122b565b856001600160a01b0316816001600160a01b03167fddf252ad1be2c89b69c2b068fc378daa952ba7f163c4a11628f55a4df523b3ef87604051610e8091815260200190565b60405180910390a3505050505050565b6001600160a01b038216610edf5760405162461bcd60e51b815260206004820152601660248201527517d89d5c9b8e881a5b9d985b1a59081858d8dbdd5b9d60521b604482015260640161007d565b60008111610f275760405162461bcd60e51b815260206004820152601560248201527417d89d5c9b8e881a5b9d985b1a5908185b5bdd5b9d605a1b604482015260640161007d565b6000610f3283610ff7565b805490915082811015610f875760405162461bcd60e51b815260206004820152601b60248201527f5f6275726e3a20696e73756666696369656e742062616c616e63650000000000604482015260640161007d565b6000610f93848361151e565b90508083558360036000828254610faa919061151e565b90915550506040518481526000906001600160a01b038716907fddf252ad1be2c89b69c2b068fc378daa952ba7f163c4a11628f55a4df523b3ef9060200160405180910390a35050505050565b60405163e0b490f760e01b81526001600160a01b03821660048201526000906370a0823160e01b90829081906101679063e0b490f790602401602060405180830381865afa15801561104d573d6000803e3d6000fd5b505050506040513d601f19601f820116820180604052508101906110719190611531565b604080516001600160e01b0319808716602083015267ffffffffffffffff1986841b16602483015260e084901b16603c820152919250016040516020818303038152906040526110c0906114d1565b95945050505050565b60405163e0b490f760e01b81526001600160a01b0383166004820152600090636eb1769f60e11b90829081906101679063e0b490f790602401602060405180830381865afa15801561111f573d6000803e3d6000fd5b505050506040513d601f19601f820116820180604052508101906111439190611531565b60405163e0b490f760e01b81526001600160a01b03871660048201529091506000906101679063e0b490f790602401602060405180830381865afa15801561118f573d6000803e3d6000fd5b505050506040513d601f19601f820116820180604052508101906111b39190611531565b604080516001600160e01b031980881660208301526001600160601b0319606088901b16602483015260e084811b8216603884015286901b16603c8201529192500160405160208183030381529060405261120d906114d1565b979650505050505050565b60008061122483611276565b9392505050565b6040516001600160a01b03821660248201526112739060440160408051601f198184030181529190526020810180516001600160e01b031663161765e160e11b1790526112e4565b50565b805160009082908260045b828110156112db57603084828151811061129d5761129d611557565b01602001516112af919060f81c61156d565b60ff166112bd83600a611586565b6112c7919061150b565b9150806112d38161159d565b915050611281565b50949350505050565b6112738180516a636f6e736f6c652e6c6f67602083016000808483855afa5050505050565b6000808585111561131957600080fd5b8386111561132657600080fd5b5050820193919092039150565b80356001600160e01b03198116906004841015611364576001600160e01b0319600485900360031b81901b82161691505b5092915050565b80356001600160601b03198116906014841015611364576001600160601b031960149490940360031b84901b1690921692915050565b6000602082840312156113b357600080fd5b81356001600160a01b038116811461122457600080fd5b600181811c908216806113de57607f821691505b6020821081036113fe57634e487b7160e01b600052602260045260246000fd5b50919050565b602081526000808354818160011c9050600182168061142457607f821691505b60208210810361144257634e487b7160e01b84526022600452602484fd5b60208601829052604086018180156114615760018114611477576114a5565b60ff198516825283151560051b820195506114a5565b60008981526020902060005b8581101561149f57815484820152600190910190602001611483565b83019650505b5093979650505050505050565b803560208310156114cb57600019602084900360031b1b165b92915050565b805160208083015191908110156113fe5760001960209190910360031b1b16919050565b634e487b7160e01b600052601160045260246000fd5b808201808211156114cb576114cb6114f5565b818103818111156114cb576114cb6114f5565b60006020828403121561154357600080fd5b815163ffffffff8116811461122457600080fd5b634e487b7160e01b600052603260045260246000fd5b60ff82811682821603908111156114cb576114cb6114f5565b80820281158282048414176114cb576114cb6114f5565b6000600182016115af576115af6114f5565b506001019056fea2646970667358221220f1d71333df3db53e19726f3074fbde434b782f2605ab25d21dcb0d4f23d6cbe664736f6c634300081c0033",
    "linkReferences": {}
  },
  "methodIdentifiers": {
    "getAccountId(address)": "e0b490f7"
  },
  "storageLayout": {
    "storage": [
      {
        "astId": 39077,
        "contract": "src/HtsSystemContract.sol:HtsSystemContract",
        "label": "name",
        "offset": 0,
        "slot": "0",
        "type": "t_string_storage"
      },
      {
        "astId": 39079,
        "contract": "src/HtsSystemContract.sol:HtsSystemContract",
        "label": "symbol",
        "offset": 0,
        "slot": "1",
        "type": "t_string_storage"
      },
      {
        "astId": 39081,
        "contract": "src/HtsSystemContract.sol:HtsSystemContract",
        "label": "decimals",
        "offset": 0,
        "slot": "2",
        "type": "t_uint8"
      },
      {
        "astId": 39083,
        "contract": "src/HtsSystemContract.sol:HtsSystemContract",
        "label": "totalSupply",
        "offset": 0,
        "slot": "3",
        "type": "t_uint256"
      },
      {
        "astId": 39085,
        "contract": "src/HtsSystemContract.sol:HtsSystemContract",
        "label": "treasuryAccountId",
        "offset": 0,
        "slot": "4",
        "type": "t_string_storage"
      }
    ],
    "types": {
      "t_string_storage": {
        "encoding": "bytes",
        "label": "string",
        "numberOfBytes": "32"
      },
      "t_uint256": {
        "encoding": "inplace",
        "label": "uint256",
        "numberOfBytes": "32"
      },
      "t_uint8": {
        "encoding": "inplace",
        "label": "uint8",
        "numberOfBytes": "1"
      }
    }
  },
  "id": 23
}