{
    "abi": [
        {
            "type": "fallback",
            "stateMutability": "nonpayable"
        },
        {
            "type": "function",
            "name": "__setTokenInfo",
            "inputs": [
                {
                    "name": "tokenType_",
                    "type": "string",
                    "internalType": "string"
                },
                {
                    "name": "tokenInfo",
                    "type": "tuple",
                    "internalType": "struct IHederaTokenService.TokenInfo",
                    "components": [
                        {
                            "name": "token",
                            "type": "tuple",
                            "internalType": "struct IHederaTokenService.HederaToken",
                            "components": [
                                {
                                    "name": "name",
                                    "type": "string",
                                    "internalType": "string"
                                },
                                {
                                    "name": "symbol",
                                    "type": "string",
                                    "internalType": "string"
                                },
                                {
                                    "name": "treasury",
                                    "type": "address",
                                    "internalType": "address"
                                },
                                {
                                    "name": "memo",
                                    "type": "string",
                                    "internalType": "string"
                                },
                                {
                                    "name": "tokenSupplyType",
                                    "type": "bool",
                                    "internalType": "bool"
                                },
                                {
                                    "name": "maxSupply",
                                    "type": "int64",
                                    "internalType": "int64"
                                },
                                {
                                    "name": "freezeDefault",
                                    "type": "bool",
                                    "internalType": "bool"
                                },
                                {
                                    "name": "tokenKeys",
                                    "type": "tuple[]",
                                    "internalType": "struct IHederaTokenService.TokenKey[]",
                                    "components": [
                                        {
                                            "name": "keyType",
                                            "type": "uint256",
                                            "internalType": "uint256"
                                        },
                                        {
                                            "name": "key",
                                            "type": "tuple",
                                            "internalType": "struct IHederaTokenService.KeyValue",
                                            "components": [
                                                {
                                                    "name": "inheritAccountKey",
                                                    "type": "bool",
                                                    "internalType": "bool"
                                                },
                                                {
                                                    "name": "contractId",
                                                    "type": "address",
                                                    "internalType": "address"
                                                },
                                                {
                                                    "name": "ed25519",
                                                    "type": "bytes",
                                                    "internalType": "bytes"
                                                },
                                                {
                                                    "name": "ECDSA_secp256k1",
                                                    "type": "bytes",
                                                    "internalType": "bytes"
                                                },
                                                {
                                                    "name": "delegatableContractId",
                                                    "type": "address",
                                                    "internalType": "address"
                                                }
                                            ]
                                        }
                                    ]
                                },
                                {
                                    "name": "expiry",
                                    "type": "tuple",
                                    "internalType": "struct IHederaTokenService.Expiry",
                                    "components": [
                                        {
                                            "name": "second",
                                            "type": "int64",
                                            "internalType": "int64"
                                        },
                                        {
                                            "name": "autoRenewAccount",
                                            "type": "address",
                                            "internalType": "address"
                                        },
                                        {
                                            "name": "autoRenewPeriod",
                                            "type": "int64",
                                            "internalType": "int64"
                                        }
                                    ]
                                }
                            ]
                        },
                        {
                            "name": "totalSupply",
                            "type": "int64",
                            "internalType": "int64"
                        },
                        {
                            "name": "deleted",
                            "type": "bool",
                            "internalType": "bool"
                        },
                        {
                            "name": "defaultKycStatus",
                            "type": "bool",
                            "internalType": "bool"
                        },
                        {
                            "name": "pauseStatus",
                            "type": "bool",
                            "internalType": "bool"
                        },
                        {
                            "name": "fixedFees",
                            "type": "tuple[]",
                            "internalType": "struct IHederaTokenService.FixedFee[]",
                            "components": [
                                {
                                    "name": "amount",
                                    "type": "int64",
                                    "internalType": "int64"
                                },
                                {
                                    "name": "tokenId",
                                    "type": "address",
                                    "internalType": "address"
                                },
                                {
                                    "name": "useHbarsForPayment",
                                    "type": "bool",
                                    "internalType": "bool"
                                },
                                {
                                    "name": "useCurrentTokenForPayment",
                                    "type": "bool",
                                    "internalType": "bool"
                                },
                                {
                                    "name": "feeCollector",
                                    "type": "address",
                                    "internalType": "address"
                                }
                            ]
                        },
                        {
                            "name": "fractionalFees",
                            "type": "tuple[]",
                            "internalType": "struct IHederaTokenService.FractionalFee[]",
                            "components": [
                                {
                                    "name": "numerator",
                                    "type": "int64",
                                    "internalType": "int64"
                                },
                                {
                                    "name": "denominator",
                                    "type": "int64",
                                    "internalType": "int64"
                                },
                                {
                                    "name": "minimumAmount",
                                    "type": "int64",
                                    "internalType": "int64"
                                },
                                {
                                    "name": "maximumAmount",
                                    "type": "int64",
                                    "internalType": "int64"
                                },
                                {
                                    "name": "netOfTransfers",
                                    "type": "bool",
                                    "internalType": "bool"
                                },
                                {
                                    "name": "feeCollector",
                                    "type": "address",
                                    "internalType": "address"
                                }
                            ]
                        },
                        {
                            "name": "royaltyFees",
                            "type": "tuple[]",
                            "internalType": "struct IHederaTokenService.RoyaltyFee[]",
                            "components": [
                                {
                                    "name": "numerator",
                                    "type": "int64",
                                    "internalType": "int64"
                                },
                                {
                                    "name": "denominator",
                                    "type": "int64",
                                    "internalType": "int64"
                                },
                                {
                                    "name": "amount",
                                    "type": "int64",
                                    "internalType": "int64"
                                },
                                {
                                    "name": "tokenId",
                                    "type": "address",
                                    "internalType": "address"
                                },
                                {
                                    "name": "useHbarsForPayment",
                                    "type": "bool",
                                    "internalType": "bool"
                                },
                                {
                                    "name": "feeCollector",
                                    "type": "address",
                                    "internalType": "address"
                                }
                            ]
                        },
                        {
                            "name": "ledgerId",
                            "type": "string",
                            "internalType": "string"
                        }
                    ]
                },
                {
                    "name": "decimals_",
                    "type": "int32",
                    "internalType": "int32"
                }
            ],
            "outputs": [],
            "stateMutability": "nonpayable"
        },
        {
            "type": "function",
            "name": "_update",
            "inputs": [
                {
                    "name": "from",
                    "type": "address",
                    "internalType": "address"
                },
                {
                    "name": "to",
                    "type": "address",
                    "internalType": "address"
                },
                {
                    "name": "amount",
                    "type": "uint256",
                    "internalType": "uint256"
                }
            ],
            "outputs": [],
            "stateMutability": "nonpayable"
        },
        {
            "type": "function",
            "name": "allowance",
            "inputs": [
                {
                    "name": "token",
                    "type": "address",
                    "internalType": "address"
                },
                {
                    "name": "owner",
                    "type": "address",
                    "internalType": "address"
                },
                {
                    "name": "spender",
                    "type": "address",
                    "internalType": "address"
                }
            ],
            "outputs": [
                {
                    "name": "",
                    "type": "int64",
                    "internalType": "int64"
                },
                {
                    "name": "",
                    "type": "uint256",
                    "internalType": "uint256"
                }
            ],
            "stateMutability": "view"
        },
        {
            "type": "function",
            "name": "approve",
            "inputs": [
                {
                    "name": "token",
                    "type": "address",
                    "internalType": "address"
                },
                {
                    "name": "spender",
                    "type": "address",
                    "internalType": "address"
                },
                {
                    "name": "amount",
                    "type": "uint256",
                    "internalType": "uint256"
                }
            ],
            "outputs": [
                {
                    "name": "responseCode",
                    "type": "int64",
                    "internalType": "int64"
                }
            ],
            "stateMutability": "nonpayable"
        },
        {
            "type": "function",
            "name": "approveNFT",
            "inputs": [
                {
                    "name": "token",
                    "type": "address",
                    "internalType": "address"
                },
                {
                    "name": "approved",
                    "type": "address",
                    "internalType": "address"
                },
                {
                    "name": "serialNumber",
                    "type": "uint256",
                    "internalType": "uint256"
                }
            ],
            "outputs": [
                {
                    "name": "responseCode",
                    "type": "int64",
                    "internalType": "int64"
                }
            ],
            "stateMutability": "nonpayable"
        },
        {
            "type": "function",
            "name": "associateToken",
            "inputs": [
                {
                    "name": "account",
                    "type": "address",
                    "internalType": "address"
                },
                {
                    "name": "token",
                    "type": "address",
                    "internalType": "address"
                }
            ],
            "outputs": [
                {
                    "name": "responseCode",
                    "type": "int64",
                    "internalType": "int64"
                }
            ],
            "stateMutability": "nonpayable"
        },
        {
            "type": "function",
            "name": "associateTokens",
            "inputs": [
                {
                    "name": "account",
                    "type": "address",
                    "internalType": "address"
                },
                {
                    "name": "tokens",
                    "type": "address[]",
                    "internalType": "address[]"
                }
            ],
            "outputs": [
                {
                    "name": "responseCode",
                    "type": "int64",
                    "internalType": "int64"
                }
            ],
            "stateMutability": "nonpayable"
        },
        {
            "type": "function",
            "name": "burnToken",
            "inputs": [
                {
                    "name": "token",
                    "type": "address",
                    "internalType": "address"
                },
                {
                    "name": "amount",
                    "type": "int64",
                    "internalType": "int64"
                },
                {
                    "name": "",
                    "type": "int64[]",
                    "internalType": "int64[]"
                }
            ],
            "outputs": [
                {
                    "name": "responseCode",
                    "type": "int64",
                    "internalType": "int64"
                },
                {
                    "name": "newTotalSupply",
                    "type": "int64",
                    "internalType": "int64"
                }
            ],
            "stateMutability": "nonpayable"
        },
        {
            "type": "function",
            "name": "createFungibleToken",
            "inputs": [
                {
                    "name": "token",
                    "type": "tuple",
                    "internalType": "struct IHederaTokenService.HederaToken",
                    "components": [
                        {
                            "name": "name",
                            "type": "string",
                            "internalType": "string"
                        },
                        {
                            "name": "symbol",
                            "type": "string",
                            "internalType": "string"
                        },
                        {
                            "name": "treasury",
                            "type": "address",
                            "internalType": "address"
                        },
                        {
                            "name": "memo",
                            "type": "string",
                            "internalType": "string"
                        },
                        {
                            "name": "tokenSupplyType",
                            "type": "bool",
                            "internalType": "bool"
                        },
                        {
                            "name": "maxSupply",
                            "type": "int64",
                            "internalType": "int64"
                        },
                        {
                            "name": "freezeDefault",
                            "type": "bool",
                            "internalType": "bool"
                        },
                        {
                            "name": "tokenKeys",
                            "type": "tuple[]",
                            "internalType": "struct IHederaTokenService.TokenKey[]",
                            "components": [
                                {
                                    "name": "keyType",
                                    "type": "uint256",
                                    "internalType": "uint256"
                                },
                                {
                                    "name": "key",
                                    "type": "tuple",
                                    "internalType": "struct IHederaTokenService.KeyValue",
                                    "components": [
                                        {
                                            "name": "inheritAccountKey",
                                            "type": "bool",
                                            "internalType": "bool"
                                        },
                                        {
                                            "name": "contractId",
                                            "type": "address",
                                            "internalType": "address"
                                        },
                                        {
                                            "name": "ed25519",
                                            "type": "bytes",
                                            "internalType": "bytes"
                                        },
                                        {
                                            "name": "ECDSA_secp256k1",
                                            "type": "bytes",
                                            "internalType": "bytes"
                                        },
                                        {
                                            "name": "delegatableContractId",
                                            "type": "address",
                                            "internalType": "address"
                                        }
                                    ]
                                }
                            ]
                        },
                        {
                            "name": "expiry",
                            "type": "tuple",
                            "internalType": "struct IHederaTokenService.Expiry",
                            "components": [
                                {
                                    "name": "second",
                                    "type": "int64",
                                    "internalType": "int64"
                                },
                                {
                                    "name": "autoRenewAccount",
                                    "type": "address",
                                    "internalType": "address"
                                },
                                {
                                    "name": "autoRenewPeriod",
                                    "type": "int64",
                                    "internalType": "int64"
                                }
                            ]
                        }
                    ]
                },
                {
                    "name": "initialTotalSupply",
                    "type": "int64",
                    "internalType": "int64"
                },
                {
                    "name": "decimals_",
                    "type": "int32",
                    "internalType": "int32"
                }
            ],
            "outputs": [
                {
                    "name": "responseCode",
                    "type": "int64",
                    "internalType": "int64"
                },
                {
                    "name": "tokenAddress",
                    "type": "address",
                    "internalType": "address"
                }
            ],
            "stateMutability": "payable"
        },
        {
            "type": "function",
            "name": "createFungibleTokenWithCustomFees",
            "inputs": [
                {
                    "name": "token",
                    "type": "tuple",
                    "internalType": "struct IHederaTokenService.HederaToken",
                    "components": [
                        {
                            "name": "name",
                            "type": "string",
                            "internalType": "string"
                        },
                        {
                            "name": "symbol",
                            "type": "string",
                            "internalType": "string"
                        },
                        {
                            "name": "treasury",
                            "type": "address",
                            "internalType": "address"
                        },
                        {
                            "name": "memo",
                            "type": "string",
                            "internalType": "string"
                        },
                        {
                            "name": "tokenSupplyType",
                            "type": "bool",
                            "internalType": "bool"
                        },
                        {
                            "name": "maxSupply",
                            "type": "int64",
                            "internalType": "int64"
                        },
                        {
                            "name": "freezeDefault",
                            "type": "bool",
                            "internalType": "bool"
                        },
                        {
                            "name": "tokenKeys",
                            "type": "tuple[]",
                            "internalType": "struct IHederaTokenService.TokenKey[]",
                            "components": [
                                {
                                    "name": "keyType",
                                    "type": "uint256",
                                    "internalType": "uint256"
                                },
                                {
                                    "name": "key",
                                    "type": "tuple",
                                    "internalType": "struct IHederaTokenService.KeyValue",
                                    "components": [
                                        {
                                            "name": "inheritAccountKey",
                                            "type": "bool",
                                            "internalType": "bool"
                                        },
                                        {
                                            "name": "contractId",
                                            "type": "address",
                                            "internalType": "address"
                                        },
                                        {
                                            "name": "ed25519",
                                            "type": "bytes",
                                            "internalType": "bytes"
                                        },
                                        {
                                            "name": "ECDSA_secp256k1",
                                            "type": "bytes",
                                            "internalType": "bytes"
                                        },
                                        {
                                            "name": "delegatableContractId",
                                            "type": "address",
                                            "internalType": "address"
                                        }
                                    ]
                                }
                            ]
                        },
                        {
                            "name": "expiry",
                            "type": "tuple",
                            "internalType": "struct IHederaTokenService.Expiry",
                            "components": [
                                {
                                    "name": "second",
                                    "type": "int64",
                                    "internalType": "int64"
                                },
                                {
                                    "name": "autoRenewAccount",
                                    "type": "address",
                                    "internalType": "address"
                                },
                                {
                                    "name": "autoRenewPeriod",
                                    "type": "int64",
                                    "internalType": "int64"
                                }
                            ]
                        }
                    ]
                },
                {
                    "name": "initialTotalSupply",
                    "type": "int64",
                    "internalType": "int64"
                },
                {
                    "name": "decimals_",
                    "type": "int32",
                    "internalType": "int32"
                },
                {
                    "name": "fixedFees",
                    "type": "tuple[]",
                    "internalType": "struct IHederaTokenService.FixedFee[]",
                    "components": [
                        {
                            "name": "amount",
                            "type": "int64",
                            "internalType": "int64"
                        },
                        {
                            "name": "tokenId",
                            "type": "address",
                            "internalType": "address"
                        },
                        {
                            "name": "useHbarsForPayment",
                            "type": "bool",
                            "internalType": "bool"
                        },
                        {
                            "name": "useCurrentTokenForPayment",
                            "type": "bool",
                            "internalType": "bool"
                        },
                        {
                            "name": "feeCollector",
                            "type": "address",
                            "internalType": "address"
                        }
                    ]
                },
                {
                    "name": "fractionalFees",
                    "type": "tuple[]",
                    "internalType": "struct IHederaTokenService.FractionalFee[]",
                    "components": [
                        {
                            "name": "numerator",
                            "type": "int64",
                            "internalType": "int64"
                        },
                        {
                            "name": "denominator",
                            "type": "int64",
                            "internalType": "int64"
                        },
                        {
                            "name": "minimumAmount",
                            "type": "int64",
                            "internalType": "int64"
                        },
                        {
                            "name": "maximumAmount",
                            "type": "int64",
                            "internalType": "int64"
                        },
                        {
                            "name": "netOfTransfers",
                            "type": "bool",
                            "internalType": "bool"
                        },
                        {
                            "name": "feeCollector",
                            "type": "address",
                            "internalType": "address"
                        }
                    ]
                }
            ],
            "outputs": [
                {
                    "name": "responseCode",
                    "type": "int64",
                    "internalType": "int64"
                },
                {
                    "name": "tokenAddress",
                    "type": "address",
                    "internalType": "address"
                }
            ],
            "stateMutability": "payable"
        },
        {
            "type": "function",
            "name": "createNonFungibleToken",
            "inputs": [
                {
                    "name": "token",
                    "type": "tuple",
                    "internalType": "struct IHederaTokenService.HederaToken",
                    "components": [
                        {
                            "name": "name",
                            "type": "string",
                            "internalType": "string"
                        },
                        {
                            "name": "symbol",
                            "type": "string",
                            "internalType": "string"
                        },
                        {
                            "name": "treasury",
                            "type": "address",
                            "internalType": "address"
                        },
                        {
                            "name": "memo",
                            "type": "string",
                            "internalType": "string"
                        },
                        {
                            "name": "tokenSupplyType",
                            "type": "bool",
                            "internalType": "bool"
                        },
                        {
                            "name": "maxSupply",
                            "type": "int64",
                            "internalType": "int64"
                        },
                        {
                            "name": "freezeDefault",
                            "type": "bool",
                            "internalType": "bool"
                        },
                        {
                            "name": "tokenKeys",
                            "type": "tuple[]",
                            "internalType": "struct IHederaTokenService.TokenKey[]",
                            "components": [
                                {
                                    "name": "keyType",
                                    "type": "uint256",
                                    "internalType": "uint256"
                                },
                                {
                                    "name": "key",
                                    "type": "tuple",
                                    "internalType": "struct IHederaTokenService.KeyValue",
                                    "components": [
                                        {
                                            "name": "inheritAccountKey",
                                            "type": "bool",
                                            "internalType": "bool"
                                        },
                                        {
                                            "name": "contractId",
                                            "type": "address",
                                            "internalType": "address"
                                        },
                                        {
                                            "name": "ed25519",
                                            "type": "bytes",
                                            "internalType": "bytes"
                                        },
                                        {
                                            "name": "ECDSA_secp256k1",
                                            "type": "bytes",
                                            "internalType": "bytes"
                                        },
                                        {
                                            "name": "delegatableContractId",
                                            "type": "address",
                                            "internalType": "address"
                                        }
                                    ]
                                }
                            ]
                        },
                        {
                            "name": "expiry",
                            "type": "tuple",
                            "internalType": "struct IHederaTokenService.Expiry",
                            "components": [
                                {
                                    "name": "second",
                                    "type": "int64",
                                    "internalType": "int64"
                                },
                                {
                                    "name": "autoRenewAccount",
                                    "type": "address",
                                    "internalType": "address"
                                },
                                {
                                    "name": "autoRenewPeriod",
                                    "type": "int64",
                                    "internalType": "int64"
                                }
                            ]
                        }
                    ]
                }
            ],
            "outputs": [
                {
                    "name": "responseCode",
                    "type": "int64",
                    "internalType": "int64"
                },
                {
                    "name": "tokenAddress",
                    "type": "address",
                    "internalType": "address"
                }
            ],
            "stateMutability": "payable"
        },
        {
            "type": "function",
            "name": "createNonFungibleTokenWithCustomFees",
            "inputs": [
                {
                    "name": "token",
                    "type": "tuple",
                    "internalType": "struct IHederaTokenService.HederaToken",
                    "components": [
                        {
                            "name": "name",
                            "type": "string",
                            "internalType": "string"
                        },
                        {
                            "name": "symbol",
                            "type": "string",
                            "internalType": "string"
                        },
                        {
                            "name": "treasury",
                            "type": "address",
                            "internalType": "address"
                        },
                        {
                            "name": "memo",
                            "type": "string",
                            "internalType": "string"
                        },
                        {
                            "name": "tokenSupplyType",
                            "type": "bool",
                            "internalType": "bool"
                        },
                        {
                            "name": "maxSupply",
                            "type": "int64",
                            "internalType": "int64"
                        },
                        {
                            "name": "freezeDefault",
                            "type": "bool",
                            "internalType": "bool"
                        },
                        {
                            "name": "tokenKeys",
                            "type": "tuple[]",
                            "internalType": "struct IHederaTokenService.TokenKey[]",
                            "components": [
                                {
                                    "name": "keyType",
                                    "type": "uint256",
                                    "internalType": "uint256"
                                },
                                {
                                    "name": "key",
                                    "type": "tuple",
                                    "internalType": "struct IHederaTokenService.KeyValue",
                                    "components": [
                                        {
                                            "name": "inheritAccountKey",
                                            "type": "bool",
                                            "internalType": "bool"
                                        },
                                        {
                                            "name": "contractId",
                                            "type": "address",
                                            "internalType": "address"
                                        },
                                        {
                                            "name": "ed25519",
                                            "type": "bytes",
                                            "internalType": "bytes"
                                        },
                                        {
                                            "name": "ECDSA_secp256k1",
                                            "type": "bytes",
                                            "internalType": "bytes"
                                        },
                                        {
                                            "name": "delegatableContractId",
                                            "type": "address",
                                            "internalType": "address"
                                        }
                                    ]
                                }
                            ]
                        },
                        {
                            "name": "expiry",
                            "type": "tuple",
                            "internalType": "struct IHederaTokenService.Expiry",
                            "components": [
                                {
                                    "name": "second",
                                    "type": "int64",
                                    "internalType": "int64"
                                },
                                {
                                    "name": "autoRenewAccount",
                                    "type": "address",
                                    "internalType": "address"
                                },
                                {
                                    "name": "autoRenewPeriod",
                                    "type": "int64",
                                    "internalType": "int64"
                                }
                            ]
                        }
                    ]
                },
                {
                    "name": "fixedFees",
                    "type": "tuple[]",
                    "internalType": "struct IHederaTokenService.FixedFee[]",
                    "components": [
                        {
                            "name": "amount",
                            "type": "int64",
                            "internalType": "int64"
                        },
                        {
                            "name": "tokenId",
                            "type": "address",
                            "internalType": "address"
                        },
                        {
                            "name": "useHbarsForPayment",
                            "type": "bool",
                            "internalType": "bool"
                        },
                        {
                            "name": "useCurrentTokenForPayment",
                            "type": "bool",
                            "internalType": "bool"
                        },
                        {
                            "name": "feeCollector",
                            "type": "address",
                            "internalType": "address"
                        }
                    ]
                },
                {
                    "name": "royaltyFees",
                    "type": "tuple[]",
                    "internalType": "struct IHederaTokenService.RoyaltyFee[]",
                    "components": [
                        {
                            "name": "numerator",
                            "type": "int64",
                            "internalType": "int64"
                        },
                        {
                            "name": "denominator",
                            "type": "int64",
                            "internalType": "int64"
                        },
                        {
                            "name": "amount",
                            "type": "int64",
                            "internalType": "int64"
                        },
                        {
                            "name": "tokenId",
                            "type": "address",
                            "internalType": "address"
                        },
                        {
                            "name": "useHbarsForPayment",
                            "type": "bool",
                            "internalType": "bool"
                        },
                        {
                            "name": "feeCollector",
                            "type": "address",
                            "internalType": "address"
                        }
                    ]
                }
            ],
            "outputs": [
                {
                    "name": "responseCode",
                    "type": "int64",
                    "internalType": "int64"
                },
                {
                    "name": "tokenAddress",
                    "type": "address",
                    "internalType": "address"
                }
            ],
            "stateMutability": "payable"
        },
        {
            "type": "function",
            "name": "dissociateToken",
            "inputs": [
                {
                    "name": "account",
                    "type": "address",
                    "internalType": "address"
                },
                {
                    "name": "token",
                    "type": "address",
                    "internalType": "address"
                }
            ],
            "outputs": [
                {
                    "name": "responseCode",
                    "type": "int64",
                    "internalType": "int64"
                }
            ],
            "stateMutability": "nonpayable"
        },
        {
            "type": "function",
            "name": "dissociateTokens",
            "inputs": [
                {
                    "name": "account",
                    "type": "address",
                    "internalType": "address"
                },
                {
                    "name": "tokens",
                    "type": "address[]",
                    "internalType": "address[]"
                }
            ],
            "outputs": [
                {
                    "name": "responseCode",
                    "type": "int64",
                    "internalType": "int64"
                }
            ],
            "stateMutability": "nonpayable"
        },
        {
            "type": "function",
            "name": "getAccountId",
            "inputs": [
                {
                    "name": "account",
                    "type": "address",
                    "internalType": "address"
                }
            ],
            "outputs": [
                {
                    "name": "accountId",
                    "type": "uint32",
                    "internalType": "uint32"
                },
                {
                    "name": "exists",
                    "type": "bool",
                    "internalType": "bool"
                }
            ],
            "stateMutability": "view"
        },
        {
            "type": "function",
            "name": "getApproved",
            "inputs": [
                {
                    "name": "token",
                    "type": "address",
                    "internalType": "address"
                },
                {
                    "name": "serialNumber",
                    "type": "uint256",
                    "internalType": "uint256"
                }
            ],
            "outputs": [
                {
                    "name": "responseCode",
                    "type": "int64",
                    "internalType": "int64"
                },
                {
                    "name": "approved",
                    "type": "address",
                    "internalType": "address"
                }
            ],
            "stateMutability": "view"
        },
        {
            "type": "function",
            "name": "getFungibleTokenInfo",
            "inputs": [
                {
                    "name": "token",
                    "type": "address",
                    "internalType": "address"
                }
            ],
            "outputs": [
                {
                    "name": "",
                    "type": "int64",
                    "internalType": "int64"
                },
                {
                    "name": "",
                    "type": "tuple",
                    "internalType": "struct IHederaTokenService.FungibleTokenInfo",
                    "components": [
                        {
                            "name": "tokenInfo",
                            "type": "tuple",
                            "internalType": "struct IHederaTokenService.TokenInfo",
                            "components": [
                                {
                                    "name": "token",
                                    "type": "tuple",
                                    "internalType": "struct IHederaTokenService.HederaToken",
                                    "components": [
                                        {
                                            "name": "name",
                                            "type": "string",
                                            "internalType": "string"
                                        },
                                        {
                                            "name": "symbol",
                                            "type": "string",
                                            "internalType": "string"
                                        },
                                        {
                                            "name": "treasury",
                                            "type": "address",
                                            "internalType": "address"
                                        },
                                        {
                                            "name": "memo",
                                            "type": "string",
                                            "internalType": "string"
                                        },
                                        {
                                            "name": "tokenSupplyType",
                                            "type": "bool",
                                            "internalType": "bool"
                                        },
                                        {
                                            "name": "maxSupply",
                                            "type": "int64",
                                            "internalType": "int64"
                                        },
                                        {
                                            "name": "freezeDefault",
                                            "type": "bool",
                                            "internalType": "bool"
                                        },
                                        {
                                            "name": "tokenKeys",
                                            "type": "tuple[]",
                                            "internalType": "struct IHederaTokenService.TokenKey[]",
                                            "components": [
                                                {
                                                    "name": "keyType",
                                                    "type": "uint256",
                                                    "internalType": "uint256"
                                                },
                                                {
                                                    "name": "key",
                                                    "type": "tuple",
                                                    "internalType": "struct IHederaTokenService.KeyValue",
                                                    "components": [
                                                        {
                                                            "name": "inheritAccountKey",
                                                            "type": "bool",
                                                            "internalType": "bool"
                                                        },
                                                        {
                                                            "name": "contractId",
                                                            "type": "address",
                                                            "internalType": "address"
                                                        },
                                                        {
                                                            "name": "ed25519",
                                                            "type": "bytes",
                                                            "internalType": "bytes"
                                                        },
                                                        {
                                                            "name": "ECDSA_secp256k1",
                                                            "type": "bytes",
                                                            "internalType": "bytes"
                                                        },
                                                        {
                                                            "name": "delegatableContractId",
                                                            "type": "address",
                                                            "internalType": "address"
                                                        }
                                                    ]
                                                }
                                            ]
                                        },
                                        {
                                            "name": "expiry",
                                            "type": "tuple",
                                            "internalType": "struct IHederaTokenService.Expiry",
                                            "components": [
                                                {
                                                    "name": "second",
                                                    "type": "int64",
                                                    "internalType": "int64"
                                                },
                                                {
                                                    "name": "autoRenewAccount",
                                                    "type": "address",
                                                    "internalType": "address"
                                                },
                                                {
                                                    "name": "autoRenewPeriod",
                                                    "type": "int64",
                                                    "internalType": "int64"
                                                }
                                            ]
                                        }
                                    ]
                                },
                                {
                                    "name": "totalSupply",
                                    "type": "int64",
                                    "internalType": "int64"
                                },
                                {
                                    "name": "deleted",
                                    "type": "bool",
                                    "internalType": "bool"
                                },
                                {
                                    "name": "defaultKycStatus",
                                    "type": "bool",
                                    "internalType": "bool"
                                },
                                {
                                    "name": "pauseStatus",
                                    "type": "bool",
                                    "internalType": "bool"
                                },
                                {
                                    "name": "fixedFees",
                                    "type": "tuple[]",
                                    "internalType": "struct IHederaTokenService.FixedFee[]",
                                    "components": [
                                        {
                                            "name": "amount",
                                            "type": "int64",
                                            "internalType": "int64"
                                        },
                                        {
                                            "name": "tokenId",
                                            "type": "address",
                                            "internalType": "address"
                                        },
                                        {
                                            "name": "useHbarsForPayment",
                                            "type": "bool",
                                            "internalType": "bool"
                                        },
                                        {
                                            "name": "useCurrentTokenForPayment",
                                            "type": "bool",
                                            "internalType": "bool"
                                        },
                                        {
                                            "name": "feeCollector",
                                            "type": "address",
                                            "internalType": "address"
                                        }
                                    ]
                                },
                                {
                                    "name": "fractionalFees",
                                    "type": "tuple[]",
                                    "internalType": "struct IHederaTokenService.FractionalFee[]",
                                    "components": [
                                        {
                                            "name": "numerator",
                                            "type": "int64",
                                            "internalType": "int64"
                                        },
                                        {
                                            "name": "denominator",
                                            "type": "int64",
                                            "internalType": "int64"
                                        },
                                        {
                                            "name": "minimumAmount",
                                            "type": "int64",
                                            "internalType": "int64"
                                        },
                                        {
                                            "name": "maximumAmount",
                                            "type": "int64",
                                            "internalType": "int64"
                                        },
                                        {
                                            "name": "netOfTransfers",
                                            "type": "bool",
                                            "internalType": "bool"
                                        },
                                        {
                                            "name": "feeCollector",
                                            "type": "address",
                                            "internalType": "address"
                                        }
                                    ]
                                },
                                {
                                    "name": "royaltyFees",
                                    "type": "tuple[]",
                                    "internalType": "struct IHederaTokenService.RoyaltyFee[]",
                                    "components": [
                                        {
                                            "name": "numerator",
                                            "type": "int64",
                                            "internalType": "int64"
                                        },
                                        {
                                            "name": "denominator",
                                            "type": "int64",
                                            "internalType": "int64"
                                        },
                                        {
                                            "name": "amount",
                                            "type": "int64",
                                            "internalType": "int64"
                                        },
                                        {
                                            "name": "tokenId",
                                            "type": "address",
                                            "internalType": "address"
                                        },
                                        {
                                            "name": "useHbarsForPayment",
                                            "type": "bool",
                                            "internalType": "bool"
                                        },
                                        {
                                            "name": "feeCollector",
                                            "type": "address",
                                            "internalType": "address"
                                        }
                                    ]
                                },
                                {
                                    "name": "ledgerId",
                                    "type": "string",
                                    "internalType": "string"
                                }
                            ]
                        },
                        {
                            "name": "decimals",
                            "type": "int32",
                            "internalType": "int32"
                        }
                    ]
                }
            ],
            "stateMutability": "view"
        },
        {
            "type": "function",
            "name": "getNonFungibleTokenInfo",
            "inputs": [
                {
                    "name": "token",
                    "type": "address",
                    "internalType": "address"
                },
                {
                    "name": "serialNumber",
                    "type": "int64",
                    "internalType": "int64"
                }
            ],
            "outputs": [
                {
                    "name": "",
                    "type": "int64",
                    "internalType": "int64"
                },
                {
                    "name": "",
                    "type": "tuple",
                    "internalType": "struct IHederaTokenService.NonFungibleTokenInfo",
                    "components": [
                        {
                            "name": "tokenInfo",
                            "type": "tuple",
                            "internalType": "struct IHederaTokenService.TokenInfo",
                            "components": [
                                {
                                    "name": "token",
                                    "type": "tuple",
                                    "internalType": "struct IHederaTokenService.HederaToken",
                                    "components": [
                                        {
                                            "name": "name",
                                            "type": "string",
                                            "internalType": "string"
                                        },
                                        {
                                            "name": "symbol",
                                            "type": "string",
                                            "internalType": "string"
                                        },
                                        {
                                            "name": "treasury",
                                            "type": "address",
                                            "internalType": "address"
                                        },
                                        {
                                            "name": "memo",
                                            "type": "string",
                                            "internalType": "string"
                                        },
                                        {
                                            "name": "tokenSupplyType",
                                            "type": "bool",
                                            "internalType": "bool"
                                        },
                                        {
                                            "name": "maxSupply",
                                            "type": "int64",
                                            "internalType": "int64"
                                        },
                                        {
                                            "name": "freezeDefault",
                                            "type": "bool",
                                            "internalType": "bool"
                                        },
                                        {
                                            "name": "tokenKeys",
                                            "type": "tuple[]",
                                            "internalType": "struct IHederaTokenService.TokenKey[]",
                                            "components": [
                                                {
                                                    "name": "keyType",
                                                    "type": "uint256",
                                                    "internalType": "uint256"
                                                },
                                                {
                                                    "name": "key",
                                                    "type": "tuple",
                                                    "internalType": "struct IHederaTokenService.KeyValue",
                                                    "components": [
                                                        {
                                                            "name": "inheritAccountKey",
                                                            "type": "bool",
                                                            "internalType": "bool"
                                                        },
                                                        {
                                                            "name": "contractId",
                                                            "type": "address",
                                                            "internalType": "address"
                                                        },
                                                        {
                                                            "name": "ed25519",
                                                            "type": "bytes",
                                                            "internalType": "bytes"
                                                        },
                                                        {
                                                            "name": "ECDSA_secp256k1",
                                                            "type": "bytes",
                                                            "internalType": "bytes"
                                                        },
                                                        {
                                                            "name": "delegatableContractId",
                                                            "type": "address",
                                                            "internalType": "address"
                                                        }
                                                    ]
                                                }
                                            ]
                                        },
                                        {
                                            "name": "expiry",
                                            "type": "tuple",
                                            "internalType": "struct IHederaTokenService.Expiry",
                                            "components": [
                                                {
                                                    "name": "second",
                                                    "type": "int64",
                                                    "internalType": "int64"
                                                },
                                                {
                                                    "name": "autoRenewAccount",
                                                    "type": "address",
                                                    "internalType": "address"
                                                },
                                                {
                                                    "name": "autoRenewPeriod",
                                                    "type": "int64",
                                                    "internalType": "int64"
                                                }
                                            ]
                                        }
                                    ]
                                },
                                {
                                    "name": "totalSupply",
                                    "type": "int64",
                                    "internalType": "int64"
                                },
                                {
                                    "name": "deleted",
                                    "type": "bool",
                                    "internalType": "bool"
                                },
                                {
                                    "name": "defaultKycStatus",
                                    "type": "bool",
                                    "internalType": "bool"
                                },
                                {
                                    "name": "pauseStatus",
                                    "type": "bool",
                                    "internalType": "bool"
                                },
                                {
                                    "name": "fixedFees",
                                    "type": "tuple[]",
                                    "internalType": "struct IHederaTokenService.FixedFee[]",
                                    "components": [
                                        {
                                            "name": "amount",
                                            "type": "int64",
                                            "internalType": "int64"
                                        },
                                        {
                                            "name": "tokenId",
                                            "type": "address",
                                            "internalType": "address"
                                        },
                                        {
                                            "name": "useHbarsForPayment",
                                            "type": "bool",
                                            "internalType": "bool"
                                        },
                                        {
                                            "name": "useCurrentTokenForPayment",
                                            "type": "bool",
                                            "internalType": "bool"
                                        },
                                        {
                                            "name": "feeCollector",
                                            "type": "address",
                                            "internalType": "address"
                                        }
                                    ]
                                },
                                {
                                    "name": "fractionalFees",
                                    "type": "tuple[]",
                                    "internalType": "struct IHederaTokenService.FractionalFee[]",
                                    "components": [
                                        {
                                            "name": "numerator",
                                            "type": "int64",
                                            "internalType": "int64"
                                        },
                                        {
                                            "name": "denominator",
                                            "type": "int64",
                                            "internalType": "int64"
                                        },
                                        {
                                            "name": "minimumAmount",
                                            "type": "int64",
                                            "internalType": "int64"
                                        },
                                        {
                                            "name": "maximumAmount",
                                            "type": "int64",
                                            "internalType": "int64"
                                        },
                                        {
                                            "name": "netOfTransfers",
                                            "type": "bool",
                                            "internalType": "bool"
                                        },
                                        {
                                            "name": "feeCollector",
                                            "type": "address",
                                            "internalType": "address"
                                        }
                                    ]
                                },
                                {
                                    "name": "royaltyFees",
                                    "type": "tuple[]",
                                    "internalType": "struct IHederaTokenService.RoyaltyFee[]",
                                    "components": [
                                        {
                                            "name": "numerator",
                                            "type": "int64",
                                            "internalType": "int64"
                                        },
                                        {
                                            "name": "denominator",
                                            "type": "int64",
                                            "internalType": "int64"
                                        },
                                        {
                                            "name": "amount",
                                            "type": "int64",
                                            "internalType": "int64"
                                        },
                                        {
                                            "name": "tokenId",
                                            "type": "address",
                                            "internalType": "address"
                                        },
                                        {
                                            "name": "useHbarsForPayment",
                                            "type": "bool",
                                            "internalType": "bool"
                                        },
                                        {
                                            "name": "feeCollector",
                                            "type": "address",
                                            "internalType": "address"
                                        }
                                    ]
                                },
                                {
                                    "name": "ledgerId",
                                    "type": "string",
                                    "internalType": "string"
                                }
                            ]
                        },
                        {
                            "name": "serialNumber",
                            "type": "int64",
                            "internalType": "int64"
                        },
                        {
                            "name": "ownerId",
                            "type": "address",
                            "internalType": "address"
                        },
                        {
                            "name": "creationTime",
                            "type": "int64",
                            "internalType": "int64"
                        },
                        {
                            "name": "metadata",
                            "type": "bytes",
                            "internalType": "bytes"
                        },
                        {
                            "name": "spenderId",
                            "type": "address",
                            "internalType": "address"
                        }
                    ]
                }
            ],
            "stateMutability": "view"
        },
        {
            "type": "function",
            "name": "getTokenCustomFees",
            "inputs": [
                {
                    "name": "token",
                    "type": "address",
                    "internalType": "address"
                }
            ],
            "outputs": [
                {
                    "name": "",
                    "type": "int64",
                    "internalType": "int64"
                },
                {
                    "name": "",
                    "type": "tuple[]",
                    "internalType": "struct IHederaTokenService.FixedFee[]",
                    "components": [
                        {
                            "name": "amount",
                            "type": "int64",
                            "internalType": "int64"
                        },
                        {
                            "name": "tokenId",
                            "type": "address",
                            "internalType": "address"
                        },
                        {
                            "name": "useHbarsForPayment",
                            "type": "bool",
                            "internalType": "bool"
                        },
                        {
                            "name": "useCurrentTokenForPayment",
                            "type": "bool",
                            "internalType": "bool"
                        },
                        {
                            "name": "feeCollector",
                            "type": "address",
                            "internalType": "address"
                        }
                    ]
                },
                {
                    "name": "",
                    "type": "tuple[]",
                    "internalType": "struct IHederaTokenService.FractionalFee[]",
                    "components": [
                        {
                            "name": "numerator",
                            "type": "int64",
                            "internalType": "int64"
                        },
                        {
                            "name": "denominator",
                            "type": "int64",
                            "internalType": "int64"
                        },
                        {
                            "name": "minimumAmount",
                            "type": "int64",
                            "internalType": "int64"
                        },
                        {
                            "name": "maximumAmount",
                            "type": "int64",
                            "internalType": "int64"
                        },
                        {
                            "name": "netOfTransfers",
                            "type": "bool",
                            "internalType": "bool"
                        },
                        {
                            "name": "feeCollector",
                            "type": "address",
                            "internalType": "address"
                        }
                    ]
                },
                {
                    "name": "",
                    "type": "tuple[]",
                    "internalType": "struct IHederaTokenService.RoyaltyFee[]",
                    "components": [
                        {
                            "name": "numerator",
                            "type": "int64",
                            "internalType": "int64"
                        },
                        {
                            "name": "denominator",
                            "type": "int64",
                            "internalType": "int64"
                        },
                        {
                            "name": "amount",
                            "type": "int64",
                            "internalType": "int64"
                        },
                        {
                            "name": "tokenId",
                            "type": "address",
                            "internalType": "address"
                        },
                        {
                            "name": "useHbarsForPayment",
                            "type": "bool",
                            "internalType": "bool"
                        },
                        {
                            "name": "feeCollector",
                            "type": "address",
                            "internalType": "address"
                        }
                    ]
                }
            ],
            "stateMutability": "view"
        },
        {
            "type": "function",
            "name": "getTokenDefaultFreezeStatus",
            "inputs": [
                {
                    "name": "token",
                    "type": "address",
                    "internalType": "address"
                }
            ],
            "outputs": [
                {
                    "name": "",
                    "type": "int64",
                    "internalType": "int64"
                },
                {
                    "name": "",
                    "type": "bool",
                    "internalType": "bool"
                }
            ],
            "stateMutability": "view"
        },
        {
            "type": "function",
            "name": "getTokenDefaultKycStatus",
            "inputs": [
                {
                    "name": "token",
                    "type": "address",
                    "internalType": "address"
                }
            ],
            "outputs": [
                {
                    "name": "",
                    "type": "int64",
                    "internalType": "int64"
                },
                {
                    "name": "",
                    "type": "bool",
                    "internalType": "bool"
                }
            ],
            "stateMutability": "view"
        },
        {
            "type": "function",
            "name": "getTokenExpiryInfo",
            "inputs": [
                {
                    "name": "token",
                    "type": "address",
                    "internalType": "address"
                }
            ],
            "outputs": [
                {
                    "name": "",
                    "type": "int64",
                    "internalType": "int64"
                },
                {
                    "name": "expiry",
                    "type": "tuple",
                    "internalType": "struct IHederaTokenService.Expiry",
                    "components": [
                        {
                            "name": "second",
                            "type": "int64",
                            "internalType": "int64"
                        },
                        {
                            "name": "autoRenewAccount",
                            "type": "address",
                            "internalType": "address"
                        },
                        {
                            "name": "autoRenewPeriod",
                            "type": "int64",
                            "internalType": "int64"
                        }
                    ]
                }
            ],
            "stateMutability": "view"
        },
        {
            "type": "function",
            "name": "getTokenInfo",
            "inputs": [
                {
                    "name": "token",
                    "type": "address",
                    "internalType": "address"
                }
            ],
            "outputs": [
                {
                    "name": "",
                    "type": "int64",
                    "internalType": "int64"
                },
                {
                    "name": "",
                    "type": "tuple",
                    "internalType": "struct IHederaTokenService.TokenInfo",
                    "components": [
                        {
                            "name": "token",
                            "type": "tuple",
                            "internalType": "struct IHederaTokenService.HederaToken",
                            "components": [
                                {
                                    "name": "name",
                                    "type": "string",
                                    "internalType": "string"
                                },
                                {
                                    "name": "symbol",
                                    "type": "string",
                                    "internalType": "string"
                                },
                                {
                                    "name": "treasury",
                                    "type": "address",
                                    "internalType": "address"
                                },
                                {
                                    "name": "memo",
                                    "type": "string",
                                    "internalType": "string"
                                },
                                {
                                    "name": "tokenSupplyType",
                                    "type": "bool",
                                    "internalType": "bool"
                                },
                                {
                                    "name": "maxSupply",
                                    "type": "int64",
                                    "internalType": "int64"
                                },
                                {
                                    "name": "freezeDefault",
                                    "type": "bool",
                                    "internalType": "bool"
                                },
                                {
                                    "name": "tokenKeys",
                                    "type": "tuple[]",
                                    "internalType": "struct IHederaTokenService.TokenKey[]",
                                    "components": [
                                        {
                                            "name": "keyType",
                                            "type": "uint256",
                                            "internalType": "uint256"
                                        },
                                        {
                                            "name": "key",
                                            "type": "tuple",
                                            "internalType": "struct IHederaTokenService.KeyValue",
                                            "components": [
                                                {
                                                    "name": "inheritAccountKey",
                                                    "type": "bool",
                                                    "internalType": "bool"
                                                },
                                                {
                                                    "name": "contractId",
                                                    "type": "address",
                                                    "internalType": "address"
                                                },
                                                {
                                                    "name": "ed25519",
                                                    "type": "bytes",
                                                    "internalType": "bytes"
                                                },
                                                {
                                                    "name": "ECDSA_secp256k1",
                                                    "type": "bytes",
                                                    "internalType": "bytes"
                                                },
                                                {
                                                    "name": "delegatableContractId",
                                                    "type": "address",
                                                    "internalType": "address"
                                                }
                                            ]
                                        }
                                    ]
                                },
                                {
                                    "name": "expiry",
                                    "type": "tuple",
                                    "internalType": "struct IHederaTokenService.Expiry",
                                    "components": [
                                        {
                                            "name": "second",
                                            "type": "int64",
                                            "internalType": "int64"
                                        },
                                        {
                                            "name": "autoRenewAccount",
                                            "type": "address",
                                            "internalType": "address"
                                        },
                                        {
                                            "name": "autoRenewPeriod",
                                            "type": "int64",
                                            "internalType": "int64"
                                        }
                                    ]
                                }
                            ]
                        },
                        {
                            "name": "totalSupply",
                            "type": "int64",
                            "internalType": "int64"
                        },
                        {
                            "name": "deleted",
                            "type": "bool",
                            "internalType": "bool"
                        },
                        {
                            "name": "defaultKycStatus",
                            "type": "bool",
                            "internalType": "bool"
                        },
                        {
                            "name": "pauseStatus",
                            "type": "bool",
                            "internalType": "bool"
                        },
                        {
                            "name": "fixedFees",
                            "type": "tuple[]",
                            "internalType": "struct IHederaTokenService.FixedFee[]",
                            "components": [
                                {
                                    "name": "amount",
                                    "type": "int64",
                                    "internalType": "int64"
                                },
                                {
                                    "name": "tokenId",
                                    "type": "address",
                                    "internalType": "address"
                                },
                                {
                                    "name": "useHbarsForPayment",
                                    "type": "bool",
                                    "internalType": "bool"
                                },
                                {
                                    "name": "useCurrentTokenForPayment",
                                    "type": "bool",
                                    "internalType": "bool"
                                },
                                {
                                    "name": "feeCollector",
                                    "type": "address",
                                    "internalType": "address"
                                }
                            ]
                        },
                        {
                            "name": "fractionalFees",
                            "type": "tuple[]",
                            "internalType": "struct IHederaTokenService.FractionalFee[]",
                            "components": [
                                {
                                    "name": "numerator",
                                    "type": "int64",
                                    "internalType": "int64"
                                },
                                {
                                    "name": "denominator",
                                    "type": "int64",
                                    "internalType": "int64"
                                },
                                {
                                    "name": "minimumAmount",
                                    "type": "int64",
                                    "internalType": "int64"
                                },
                                {
                                    "name": "maximumAmount",
                                    "type": "int64",
                                    "internalType": "int64"
                                },
                                {
                                    "name": "netOfTransfers",
                                    "type": "bool",
                                    "internalType": "bool"
                                },
                                {
                                    "name": "feeCollector",
                                    "type": "address",
                                    "internalType": "address"
                                }
                            ]
                        },
                        {
                            "name": "royaltyFees",
                            "type": "tuple[]",
                            "internalType": "struct IHederaTokenService.RoyaltyFee[]",
                            "components": [
                                {
                                    "name": "numerator",
                                    "type": "int64",
                                    "internalType": "int64"
                                },
                                {
                                    "name": "denominator",
                                    "type": "int64",
                                    "internalType": "int64"
                                },
                                {
                                    "name": "amount",
                                    "type": "int64",
                                    "internalType": "int64"
                                },
                                {
                                    "name": "tokenId",
                                    "type": "address",
                                    "internalType": "address"
                                },
                                {
                                    "name": "useHbarsForPayment",
                                    "type": "bool",
                                    "internalType": "bool"
                                },
                                {
                                    "name": "feeCollector",
                                    "type": "address",
                                    "internalType": "address"
                                }
                            ]
                        },
                        {
                            "name": "ledgerId",
                            "type": "string",
                            "internalType": "string"
                        }
                    ]
                }
            ],
            "stateMutability": "view"
        },
        {
            "type": "function",
            "name": "getTokenKey",
            "inputs": [
                {
                    "name": "token",
                    "type": "address",
                    "internalType": "address"
                },
                {
                    "name": "keyType",
                    "type": "uint256",
                    "internalType": "uint256"
                }
            ],
            "outputs": [
                {
                    "name": "",
                    "type": "int64",
                    "internalType": "int64"
                },
                {
                    "name": "",
                    "type": "tuple",
                    "internalType": "struct IHederaTokenService.KeyValue",
                    "components": [
                        {
                            "name": "inheritAccountKey",
                            "type": "bool",
                            "internalType": "bool"
                        },
                        {
                            "name": "contractId",
                            "type": "address",
                            "internalType": "address"
                        },
                        {
                            "name": "ed25519",
                            "type": "bytes",
                            "internalType": "bytes"
                        },
                        {
                            "name": "ECDSA_secp256k1",
                            "type": "bytes",
                            "internalType": "bytes"
                        },
                        {
                            "name": "delegatableContractId",
                            "type": "address",
                            "internalType": "address"
                        }
                    ]
                }
            ],
            "stateMutability": "view"
        },
        {
            "type": "function",
            "name": "getTokenType",
            "inputs": [
                {
                    "name": "token",
                    "type": "address",
                    "internalType": "address"
                }
            ],
            "outputs": [
                {
                    "name": "",
                    "type": "int64",
                    "internalType": "int64"
                },
                {
                    "name": "",
                    "type": "int32",
                    "internalType": "int32"
                }
            ],
            "stateMutability": "view"
        },
        {
            "type": "function",
            "name": "isApprovedForAll",
            "inputs": [
                {
                    "name": "token",
                    "type": "address",
                    "internalType": "address"
                },
                {
                    "name": "owner",
                    "type": "address",
                    "internalType": "address"
                },
                {
                    "name": "operator",
                    "type": "address",
                    "internalType": "address"
                }
            ],
            "outputs": [
                {
                    "name": "",
                    "type": "int64",
                    "internalType": "int64"
                },
                {
                    "name": "",
                    "type": "bool",
                    "internalType": "bool"
                }
            ],
            "stateMutability": "view"
        },
        {
            "type": "function",
            "name": "isToken",
            "inputs": [
                {
                    "name": "token",
                    "type": "address",
                    "internalType": "address"
                }
            ],
            "outputs": [
                {
                    "name": "",
                    "type": "int64",
                    "internalType": "int64"
                },
                {
                    "name": "",
                    "type": "bool",
                    "internalType": "bool"
                }
            ],
            "stateMutability": "view"
        },
        {
            "type": "function",
            "name": "mintToken",
            "inputs": [
                {
                    "name": "token",
                    "type": "address",
                    "internalType": "address"
                },
                {
                    "name": "amount",
                    "type": "int64",
                    "internalType": "int64"
                },
                {
                    "name": "",
                    "type": "bytes[]",
                    "internalType": "bytes[]"
                }
            ],
            "outputs": [
                {
                    "name": "responseCode",
                    "type": "int64",
                    "internalType": "int64"
                },
                {
                    "name": "newTotalSupply",
                    "type": "int64",
                    "internalType": "int64"
                },
                {
                    "name": "serialNumbers",
                    "type": "int64[]",
                    "internalType": "int64[]"
                }
            ],
            "stateMutability": "nonpayable"
        },
        {
            "type": "function",
            "name": "setApprovalForAll",
            "inputs": [
                {
                    "name": "token",
                    "type": "address",
                    "internalType": "address"
                },
                {
                    "name": "operator",
                    "type": "address",
                    "internalType": "address"
                },
                {
                    "name": "approved",
                    "type": "bool",
                    "internalType": "bool"
                }
            ],
            "outputs": [
                {
                    "name": "responseCode",
                    "type": "int64",
                    "internalType": "int64"
                }
            ],
            "stateMutability": "nonpayable"
        },
        {
            "type": "function",
            "name": "transferFrom",
            "inputs": [
                {
                    "name": "token",
                    "type": "address",
                    "internalType": "address"
                },
                {
                    "name": "sender",
                    "type": "address",
                    "internalType": "address"
                },
                {
                    "name": "recipient",
                    "type": "address",
                    "internalType": "address"
                },
                {
                    "name": "amount",
                    "type": "uint256",
                    "internalType": "uint256"
                }
            ],
            "outputs": [
                {
                    "name": "",
                    "type": "int64",
                    "internalType": "int64"
                }
            ],
            "stateMutability": "nonpayable"
        },
        {
            "type": "function",
            "name": "transferFromNFT",
            "inputs": [
                {
                    "name": "token",
                    "type": "address",
                    "internalType": "address"
                },
                {
                    "name": "from",
                    "type": "address",
                    "internalType": "address"
                },
                {
                    "name": "to",
                    "type": "address",
                    "internalType": "address"
                },
                {
                    "name": "serialNumber",
                    "type": "uint256",
                    "internalType": "uint256"
                }
            ],
            "outputs": [
                {
                    "name": "",
                    "type": "int64",
                    "internalType": "int64"
                }
            ],
            "stateMutability": "nonpayable"
        },
        {
            "type": "function",
            "name": "transferNFT",
            "inputs": [
                {
                    "name": "token",
                    "type": "address",
                    "internalType": "address"
                },
                {
                    "name": "sender",
                    "type": "address",
                    "internalType": "address"
                },
                {
                    "name": "recipient",
                    "type": "address",
                    "internalType": "address"
                },
                {
                    "name": "serialNumber",
                    "type": "int64",
                    "internalType": "int64"
                }
            ],
            "outputs": [
                {
                    "name": "responseCode",
                    "type": "int64",
                    "internalType": "int64"
                }
            ],
            "stateMutability": "nonpayable"
        },
        {
            "type": "function",
            "name": "transferNFTs",
            "inputs": [
                {
                    "name": "token",
                    "type": "address",
                    "internalType": "address"
                },
                {
                    "name": "sender",
                    "type": "address[]",
                    "internalType": "address[]"
                },
                {
                    "name": "receiver",
                    "type": "address[]",
                    "internalType": "address[]"
                },
                {
                    "name": "serialNumber",
                    "type": "int64[]",
                    "internalType": "int64[]"
                }
            ],
            "outputs": [
                {
                    "name": "responseCode",
                    "type": "int64",
                    "internalType": "int64"
                }
            ],
            "stateMutability": "nonpayable"
        },
        {
            "type": "function",
            "name": "transferToken",
            "inputs": [
                {
                    "name": "token",
                    "type": "address",
                    "internalType": "address"
                },
                {
                    "name": "sender",
                    "type": "address",
                    "internalType": "address"
                },
                {
                    "name": "recipient",
                    "type": "address",
                    "internalType": "address"
                },
                {
                    "name": "amount",
                    "type": "int64",
                    "internalType": "int64"
                }
            ],
            "outputs": [
                {
                    "name": "responseCode",
                    "type": "int64",
                    "internalType": "int64"
                }
            ],
            "stateMutability": "nonpayable"
        },
        {
            "type": "function",
            "name": "transferTokens",
            "inputs": [
                {
                    "name": "token",
                    "type": "address",
                    "internalType": "address"
                },
                {
                    "name": "accountId",
                    "type": "address[]",
                    "internalType": "address[]"
                },
                {
                    "name": "amount",
                    "type": "int64[]",
                    "internalType": "int64[]"
                }
            ],
            "outputs": [
                {
                    "name": "responseCode",
                    "type": "int64",
                    "internalType": "int64"
                }
            ],
            "stateMutability": "nonpayable"
        },
        {
            "type": "event",
            "name": "Approval",
            "inputs": [
                {
                    "name": "owner",
                    "type": "address",
                    "indexed": true,
                    "internalType": "address"
                },
                {
                    "name": "spender",
                    "type": "address",
                    "indexed": true,
                    "internalType": "address"
                },
                {
                    "name": "amount",
                    "type": "uint256",
                    "indexed": false,
                    "internalType": "uint256"
                }
            ],
            "anonymous": false
        },
        {
            "type": "event",
            "name": "Approval",
            "inputs": [
                {
                    "name": "owner",
                    "type": "address",
                    "indexed": true,
                    "internalType": "address"
                },
                {
                    "name": "approved",
                    "type": "address",
                    "indexed": true,
                    "internalType": "address"
                },
                {
                    "name": "tokenId",
                    "type": "uint256",
                    "indexed": true,
                    "internalType": "uint256"
                }
            ],
            "anonymous": false
        },
        {
            "type": "event",
            "name": "ApprovalForAll",
            "inputs": [
                {
                    "name": "owner",
                    "type": "address",
                    "indexed": true,
                    "internalType": "address"
                },
                {
                    "name": "operator",
                    "type": "address",
                    "indexed": true,
                    "internalType": "address"
                },
                {
                    "name": "approved",
                    "type": "bool",
                    "indexed": false,
                    "internalType": "bool"
                }
            ],
            "anonymous": false
        },
        {
            "type": "event",
            "name": "Transfer",
            "inputs": [
                {
                    "name": "from",
                    "type": "address",
                    "indexed": true,
                    "internalType": "address"
                },
                {
                    "name": "to",
                    "type": "address",
                    "indexed": true,
                    "internalType": "address"
                },
                {
                    "name": "amount",
                    "type": "uint256",
                    "indexed": false,
                    "internalType": "uint256"
                }
            ],
            "anonymous": false
        },
        {
            "type": "event",
            "name": "Transfer",
            "inputs": [
                {
                    "name": "from",
                    "type": "address",
                    "indexed": true,
                    "internalType": "address"
                },
                {
                    "name": "to",
                    "type": "address",
                    "indexed": true,
                    "internalType": "address"
                },
                {
                    "name": "tokenId",
                    "type": "uint256",
                    "indexed": true,
                    "internalType": "uint256"
                }
            ],
            "anonymous": false
        }
    ],
    "bytecode": {
        "object": "0x6080604052348015600e575f5ffd5b506183428061001c5f395ff3fe608060405260043610610203575f3560e01c80637336aaf011610117578063d614cdb81161009f578063e0f4059a1161006e578063e0f4059a146107f1578063e1f21c671461081f578063ea83f2931461083e578063eca3691714610851578063f49f40db1461087057610203565b8063d614cdb814610731578063d6910d061461075e578063d86fec7214610797578063e0b490f7146107b657610203565b806393272baf116100e657806393272baf146106755780639b23d3d9146106b1578063a7daa18d146106d0578063abb54eb5146106ef578063ae7611a01461070257610203565b80637336aaf0146105df57806378b63918146105fe57806382bba4931461061d578063927da1051461063c57610203565b80632af0c59a1161019a578063367605ca11610169578063367605ca146105285780633c4dd32e146105475780633f28a19b1461057457806349146bde146105a15780635cfc9011146105c057610203565b80632af0c59a146104b85780632c4ba191146104cb5780632e63879b146104ea578063335e04c11461050957610203565b806315dacbea116101d657806315dacbea1461040657806319f37361146104255780631f69565f1461045e578063287e1da81461048b57610203565b8063098f23661461035a578063099794e8146103a05780630bb3bfa8146103d25780630fb65bf3146103f3575b34801561020e575f5ffd5b505f366060601c8210156102695760405162461bcd60e51b815260206004820152601d60248201527f66616c6c6261636b3a206e6f7420656e6f7567682063616c6c6461746100000060448201526064015b60405180910390fd5b5f6102776004823681615a8c565b61028091615ab3565b60e01c905063618dc65e81146102d85760405162461bcd60e51b815260206004820152601e60248201527f66616c6c6261636b3a20756e737570706f727465642073656c6563746f7200006044820152606401610260565b5f6102e7601860043684615a8c565b6102f091615aeb565b60601c90503081146103445760405162461bcd60e51b815260206004820152601d60248201527f66616c6c6261636b3a20746f6b656e206973206e6f742063616c6c65720000006044820152606401610260565b61034c61088f565b805195506020019350505050f35b348015610365575f5ffd5b50610379610374366004615b48565b611398565b6040805160079390930b83526001600160a01b039091166020830152015b60405180910390f35b3480156103ab575f5ffd5b506103bf6103ba366004615b72565b61148b565b60405160079190910b8152602001610397565b3480156103dd575f5ffd5b506103f16103ec366004615ba9565b611515565b005b610379610401366004616098565b611641565b348015610411575f5ffd5b506103bf6104203660046160f7565b611765565b348015610430575f5ffd5b5061044461043f366004616145565b61179c565b6040805160079390930b8352901515602083015201610397565b348015610469575f5ffd5b5061047d610478366004616145565b611881565b6040516103979291906165c7565b348015610496575f5ffd5b506104aa6104a53660046165e2565b611973565b60405161039792919061660e565b6103796104c6366004616848565b611b35565b3480156104d6575f5ffd5b506103bf6104e53660046169c0565b611bd0565b3480156104f5575f5ffd5b506103bf610504366004616a5e565b611db1565b348015610514575f5ffd5b50610444610523366004616145565b61208d565b348015610533575f5ffd5b506103bf610542366004616aaa565b6120cb565b348015610552575f5ffd5b50610566610561366004615b48565b612170565b604051610397929190616ae7565b34801561057f575f5ffd5b5061059361058e366004616145565b61229f565b604051610397929190616b02565b3480156105ac575f5ffd5b506103bf6105bb366004615b72565b6123c8565b3480156105cb575f5ffd5b506103bf6105da366004616b3f565b612448565b3480156105ea575f5ffd5b506103bf6105f9366004615ba9565b612501565b348015610609575f5ffd5b506103bf610618366004616a5e565b612553565b348015610628575f5ffd5b506103bf610637366004616b98565b612828565b348015610647575f5ffd5b5061065b610656366004616c0c565b6129fe565b6040805160079390930b8352602083019190915201610397565b348015610680575f5ffd5b5061069461068f366004616145565b612aa6565b6040805160079390930b835260039190910b602083015201610397565b3480156106bc575f5ffd5b506103bf6106cb3660046160f7565b612b85565b3480156106db575f5ffd5b506104446106ea366004616145565b612bb3565b6103796106fd366004616d27565b612bf2565b34801561070d575f5ffd5b5061072161071c366004616145565b612c8f565b6040516103979493929190616da8565b34801561073c575f5ffd5b5061075061074b366004616145565b612ce2565b604051610397929190616de9565b348015610769575f5ffd5b5061077d610778366004616e25565b612d3b565b60408051600793840b81529190920b602082015201610397565b3480156107a2575f5ffd5b506103f16107b1366004616e6c565b613080565b3480156107c1575f5ffd5b506107d56107d0366004616145565b61361f565b6040805163ffffffff9093168352901515602083015201610397565b3480156107fc575f5ffd5b5061081061080b366004616fff565b61365d565b604051610397939291906170d4565b34801561082a575f5ffd5b506103bf610839366004615ba9565b61369e565b61037961084c366004617131565b6136f0565b34801561085c575f5ffd5b506103bf61086b366004616b3f565b613814565b34801561087b575f5ffd5b5061044461088a366004616c0c565b613a1c565b60605f6108a0601c60183684615a8c565b6108a991615ab3565b9050336101671480156108cc57506001600160e01b03198116636c37f63960e11b145b15610924575f80806108e136601c8184615a8c565b8101906108ee9190616e6c565b9250925092506108ff838383613080565b6040805160016020820152015b60405160208183030381529060405294505050505090565b60408051808201825260098152681393d517d193d5539160ba1b602090910152517f7bafae6429a8b3ef0db181af7c5834a6f2b1af33146a1a9ae02e833d27f2431b90610972905f90617208565b6040518091039020036109d15760405162461bcd60e51b815260206004820152602160248201527f7265646972656374466f72546f6b656e3a20746f6b656e206e6f7420666f756e6044820152601960fa1b6064820152608401610260565b61016619330161125f5763e096a9a160e01b6001600160e01b0319821601610a7857601c361015610a4e5760405162461bcd60e51b815260206004820152602160248201527f676574546f6b656e496e666f3a204e6f7420656e6f7567682063616c6c6461746044820152606160f81b6064820152608401610260565b60166002604051602001610a639291906175c7565b60405160208183030381529060405291505090565b635b75ca1160e11b6001600160e01b0319821601610b3f576030361015610aed5760405162461bcd60e51b815260206004820152602360248201527f6173736f6369617465546f6b656e3a204e6f7420656e6f7567682063616c6c6460448201526261746160e81b6064820152608401610260565b5f610afc603c60283684615a8c565b610b0591615aeb565b60601c90505f610b1482613b09565b600181556040805160166020820152919250015b604051602081830303815290604052935050505090565b631ecd0d6360e31b6001600160e01b0319821601610bf2576030361015610bb45760405162461bcd60e51b8152602060048201526024808201527f646973736f6369617465546f6b656e3a204e6f7420656e6f7567682063616c6c6044820152636461746160e01b6064820152608401610260565b5f610bc3603c60283684615a8c565b610bcc91615aeb565b60601c90505f610bdb82613b09565b5f8155604080516016602082015291925001610b28565b636cd8d45160e01b6001600160e01b0319821601610d5257601c361015610c655760405162461bcd60e51b815260206004820152602160248201527f676574546f6b656e547970653a204e6f7420656e6f7567682063616c6c6461746044820152606160f81b6064820152608401610260565b7f20081d23699eb901ca16307080f9b35e7967740755a921f749a9e037b0875c755f604051602001610c979190617208565b6040516020818303038152906040528051906020012003610ccd5760408051601660208201525f91810191909152606001610a63565b7f6c58a12b113a1ee77f554495d8bd48a419af104bca196099cdecc39fcb8989f05f604051602001610cff9190617208565b6040516020818303038152906040528051906020012003610d36576040805160166020820152600191810191909152606001610a63565b60408051601660208201525f1991810191909152606001610a63565b6375129a0b60e11b6001600160e01b0319821601610e4a57609c361015610d8b5760405162461bcd60e51b8152600401610260906176a4565b5f610d9a603c60283684615a8c565b610da391615aeb565b60601c90505f610db7605c60483684615a8c565b610dc091615aeb565b60601c90505f610dd4607c60683684615a8c565b610ddd91615aeb565b60601c90505f610df1609c607c3684615a8c565b610dfa916176e5565b90506001600160a01b0383811690851614610e1a57610e1a838583613bc5565b610e25838383613c37565b6040805160016020820152016040516020818303038152906040529550505050505090565b6364dc2c2760e01b6001600160e01b0319821601610f3c57609c361015610ebf5760405162461bcd60e51b8152602060048201526024808201527f7472616e7366657246726f6d4e46543a204e6f7420656e6f7567682063616c6c6044820152636461746160e01b6064820152608401610260565b5f610ece603c60283684615a8c565b610ed791615aeb565b60601c90505f610eeb605c60483684615a8c565b610ef491615aeb565b60601c90505f610f08607c60683684615a8c565b610f1191615aeb565b60601c90505f610f25609c607c3684615a8c565b610f2e916176e5565b9050610e2584848484613d2e565b631e0de39960e01b6001600160e01b031982160161103257607c361015610f755760405162461bcd60e51b815260040161026090617702565b5f610f84603c60283684615a8c565b610f8d91615aeb565b60601c90505f610fa1605c60483684615a8c565b610faa91615aeb565b60601c90505f610fbe607c605c3684615a8c565b610fc7916176e5565b9050610fd4838383613f3d565b816001600160a01b0316836001600160a01b03167f8c5be1e5ebec7d5bd14f71427d1e84f3dd0314c0f7b2291e5b200ac8c7c3b9258360405161101991815260200190565b60405180910390a360408051600160208201520161090c565b6308cc955160e41b6001600160e01b03198216016110fc57607c36101561109b5760405162461bcd60e51b815260206004820152601f60248201527f617070726f76654e46543a204e6f7420656e6f7567682063616c6c64617461006044820152606401610260565b5f6110aa603c60283684615a8c565b6110b391615aeb565b60601c90505f6110c7605c60483684615a8c565b6110d091615aeb565b60601c90505f6110e4607c605c3684615a8c565b6110ed916176e5565b90506108ff8383836001613ffd565b6364c4fd1b60e11b6001600160e01b031982160161119757607c3610156111355760405162461bcd60e51b815260040161026090617739565b5f611144603c60283684615a8c565b61114d91615aeb565b60601c90505f611161605c60483684615a8c565b61116a91615aeb565b60601c90505f61117e607c605c3684615a8c565b611187916176e5565b60011490506108ff838383614100565b631e89880b60e31b6001600160e01b031982160161125f57607c3610156112005760405162461bcd60e51b815260206004820152601b60248201527f7570646174653a204e6f7420656e6f7567682063616c6c6461746100000000006044820152606401610260565b5f61120f603c60283684615a8c565b61121891615aeb565b60601c90505f61122c605c60483684615a8c565b61123591615aeb565b60601c90505f611249607c605c3684615a8c565b611252916176e5565b90506108ff838383611515565b604080518082018252600f81526e232aa723a4a12622afa1a7a6a6a7a760891b602090910152517f20081d23699eb901ca16307080f9b35e7967740755a921f749a9e037b0875c75906112b3905f90617208565b6040518091039020036112cf576112c9816141e7565b91505090565b60408051808201825260138152724e4f4e5f46554e4749424c455f554e4951554560681b602090910152517f6c58a12b113a1ee77f554495d8bd48a419af104bca196099cdecc39fcb8989f090611327905f90617208565b60405180910390200361133d576112c9816146f0565b60405162461bcd60e51b815260206004820152602a60248201527f7265646972656374466f72546f6b656e3a20746f6b656e2074797065206e6f74604482015269081cdd5c1c1bdc9d195960b21b6064820152608401610260565b5f8030610167146113bb5760405162461bcd60e51b81526004016102609061777f565b6001600160a01b0384166114115760405162461bcd60e51b815260206004820152601a60248201527f676574417070726f7665643a20696e76616c696420746f6b656e0000000000006044820152606401610260565b60405163020604bf60e21b8152600481018490526016906001600160a01b0386169063081812fc90602401602060405180830381865afa158015611457573d5f5f3e3d5ffd5b505050506040513d601f19601f8201168201806040525081019061147b91906177c1565b60039190910b9590945092505050565b5f30610167146114ad5760405162461bcd60e51b81526004016102609061777f565b6040805160018082528183019092525f916020808301908036833701905050905082815f815181106114e1576114e16177dc565b60200260200101906001600160a01b031690816001600160a01b03168152505061150b8482612553565b9150505b92915050565b6001600160a01b03831661156657600a80548291905f9061153a90849060070b617804565b92506101000a8154816001600160401b03021916908360070b6001600160401b031602179055506115cb565b5f61157084614c1f565b8054909150828110156115c55760405162461bcd60e51b815260206004820152601f60248201527f5f7472616e736665723a20696e73756666696369656e742062616c616e6365006044820152606401610260565b82900390555b6001600160a01b03821661161c57600a80548291905f906115f090849060070b617833565b92506101000a8154816001600160401b03021916908360070b6001600160401b03160217905550505050565b5f61162683614c1f565b80549091505f6116368483617862565b90925550505b505050565b5f8030610167146116645760405162461bcd60e51b81526004016102609061777f565b604080515f80825260208201909252816116b2565b6040805160a0810182525f808252602080830182905292820181905260608201819052608082015282525f199092019101816116795790505b50604080515f8082526020820190925291925090816116e7565b6116d461590d565b8152602001906001900390816116cc5790505b50604080515f80825260208201909252919250908161171c565b61170961590d565b8152602001906001900390816117015790505b5090506117556040518060400160405280600f81526020016e232aa723a4a12622afa1a7a6a6a7a760891b815250898989878787614cc5565b945094505050505b935093915050565b5f30610167146117875760405162461bcd60e51b81526004016102609061777f565b61179385858585613814565b95945050505050565b5f8030610167146117bf5760405162461bcd60e51b81526004016102609061777f565b6040516001600160a01b03841660248201525f9060440160408051601f198184030181529181526020820180516001600160e01b03166393272baf60e01b179052519091505f9081906001600160a01b0387169061181e908590617875565b5f60405180830381855afa9150503d805f8114611856576040519150601f19603f3d011682016040523d82523d5f602084013e61185b565b606091505b5091509150601682801561186f57505f8251115b8160030b915094509450505050915091565b5f61188a615941565b30610167146118ab5760405162461bcd60e51b81526004016102609061777f565b6001600160a01b0383166119015760405162461bcd60e51b815260206004820152601b60248201527f676574546f6b656e496e666f3a20696e76616c696420746f6b656e00000000006044820152606401610260565b604051631f69565f60e01b81526001600160a01b0384166004820181905290631f69565f906024015f60405180830381865afa158015611943573d5f5f3e3d5ffd5b505050506040513d5f823e601f3d908101601f1916820160405261196a9190810190617e2c565b91509150915091565b5f61197c6159f3565b306101671461199d5760405162461bcd60e51b81526004016102609061777f565b5f5f6119a886611881565b91509150601660030b8260070b14611a1c5760405162461bcd60e51b815260206004820152603160248201527f6765744e6f6e46756e6769626c65546f6b656e496e666f3a206661696c656420604482015270746f2067657420746f6b656e206461746160781b6064820152608401610260565b611a246159f3565b818152600786900b602082015260405163020604bf60e21b81526001600160401b03871660048201526001600160a01b0388169063081812fc90602401602060405180830381865afa158015611a7c573d5f5f3e3d5ffd5b505050506040513d601f19601f82011682018060405250810190611aa091906177c1565b6001600160a01b0390811660a08301526040516331a9108f60e11b81526001600160401b038816600482015290881690636352211e90602401602060405180830381865afa158015611af4573d5f5f3e3d5ffd5b505050506040513d601f19601f82011682018060405250810190611b1891906177c1565b6001600160a01b03166040820152919350909150505b9250929050565b5f803061016714611b585760405162461bcd60e51b81526004016102609061777f565b604080515f8082526020820190925281611b88565b611b7561590d565b815260200190600190039081611b6d5790505b509050611bc16040518060400160405280600f81526020016e232aa723a4a12622afa1a7a6a6a7a760891b815250898989898987614cc5565b92509250509550959350505050565b5f3061016714611bf25760405162461bcd60e51b81526004016102609061777f565b6001600160a01b038516611c485760405162461bcd60e51b815260206004820152601b60248201527f7472616e736665724e4654733a20696e76616c696420746f6b656e00000000006044820152606401610260565b5f845111611c985760405162461bcd60e51b815260206004820181905260248201527f7472616e736665724e4654733a206d697373696e6720726563697069656e74736044820152606401610260565b8351835114611ce95760405162461bcd60e51b815260206004820181905260248201527f7472616e736665724e4654733a20696e636f6e73697374656e7420696e7075746044820152606401610260565b8351825114611d3a5760405162461bcd60e51b815260206004820181905260248201527f7472616e736665724e4654733a20696e636f6e73697374656e7420696e7075746044820152606401610260565b5f5b8451811015611da557611d9c86868381518110611d5b57611d5b6177dc565b6020026020010151868481518110611d7557611d756177dc565b6020026020010151868581518110611d8f57611d8f6177dc565b6020026020010151612448565b50600101611d3c565b50601695945050505050565b5f3061016714611dd35760405162461bcd60e51b81526004016102609061777f565b5f825111611e235760405162461bcd60e51b815260206004820152601f60248201527f6173736f6369617465546f6b656e733a206d697373696e6720746f6b656e73006044820152606401610260565b6001600160a01b0383163314611ed65760405162461bcd60e51b815260206004820152606660248201527f6173736f6369617465546f6b656e733a204d757374206265207369676e65642060448201527f6279207468652070726f7669646564204163636f756e742773206b6579206f7260648201527f2063616c6c65642066726f6d20746865206163636f756e747320636f6e7472616084820152656374206b657960d01b60a482015260c401610260565b5f5b8251811015612083575f6001600160a01b0316838281518110611efd57611efd6177dc565b60200260200101516001600160a01b031603611f5b5760405162461bcd60e51b815260206004820152601e60248201527f6173736f6369617465546f6b656e733a20696e76616c696420746f6b656e00006044820152606401610260565b5f838281518110611f6e57611f6e6177dc565b60200260200101516001600160a01b03166349146bde86868581518110611f9757611f976177dc565b60200260200101516040518363ffffffff1660e01b8152600401611fd19291906001600160a01b0392831681529116602082015260400190565b6020604051808303815f875af1158015611fed573d5f5f3e3d5ffd5b505050506040513d601f19601f820116820180604052508101906120119190617f9b565b9050600781900b60161461207a5760405162461bcd60e51b815260206004820152602a60248201527f6173736f6369617465546f6b656e733a204661696c656420746f206173736f6360448201526934b0ba32903a37b5b2b760b11b6064820152608401610260565b50600101611ed8565b5060169392505050565b5f8030610167146120b05760405162461bcd60e51b81526004016102609061777f565b5f5f6120bb85611881565b6060015190945092505050915091565b5f30610167146120ed5760405162461bcd60e51b81526004016102609061777f565b604051631b3b02e560e11b81523360048201526001600160a01b038481166024830152831515604483015285169063367605ca906064015b6020604051808303815f875af1158015612141573d5f5f3e3d5ffd5b505050506040513d601f19601f820116820180604052508101906121659190617f9b565b506016949350505050565b5f612179615a2d565b306101671461219a5760405162461bcd60e51b81526004016102609061777f565b5f5f6121a586611881565b91509150601660030b8260070b1461220d5760405162461bcd60e51b815260206004820152602560248201527f676574546f6b656e4b65793a206661696c656420746f2067657420746f6b656e604482015264206461746160d81b6064820152608401610260565b5f5b815160e00151518110156122885785825f015160e001518281518110612237576122376177dc565b60200260200101515f015103612280576016825f015160e001518281518110612262576122626177dc565b6020026020010151602001518160030b915094509450505050611b2e565b60010161220f565b50612291615a2d565b601697909650945050505050565b5f6122a8615a6d565b30610167146122c95760405162461bcd60e51b81526004016102609061777f565b5f5f6122d485611881565b91509150601660030b8260070b146123455760405162461bcd60e51b815260206004820152602e60248201527f67657446756e6769626c65546f6b656e496e666f3a206661696c656420746f2060448201526d67657420746f6b656e206461746160901b6064820152608401610260565b61234d615a6d565b81815f0181905250856001600160a01b031663313ce5676040518163ffffffff1660e01b8152600401602060405180830381865afa158015612391573d5f5f3e3d5ffd5b505050506040513d601f19601f820116820180604052508101906123b59190617fb6565b5f0b602082015291935090915050915091565b5f30610167146123ea5760405162461bcd60e51b81526004016102609061777f565b6040805160018082528183019092525f916020808301908036833701905050905082815f8151811061241e5761241e6177dc565b60200260200101906001600160a01b031690816001600160a01b03168152505061150b8482611db1565b5f306101671461246a5760405162461bcd60e51b81526004016102609061777f565b604051639b23d3d960e01b81523360048201526001600160a01b03858116602483015284811660448301526001600160401b038416606483018190529190871690639b23d3d9906084016020604051808303815f875af11580156124d0573d5f5f3e3d5ffd5b505050506040513d601f19601f820116820180604052508101906124f49190617f9b565b5060169695505050505050565b5f30610167146125235760405162461bcd60e51b81526004016102609061777f565b6040516307336aaf60e41b81526001600160a01b03851690637336aaf09061212590339087908790600401617fd6565b5f30610167146125755760405162461bcd60e51b81526004016102609061777f565b5f8251116125c55760405162461bcd60e51b815260206004820181905260248201527f646973736f6369617465546f6b656e733a206d697373696e6720746f6b656e736044820152606401610260565b6001600160a01b03831633146126795760405162461bcd60e51b815260206004820152606760248201527f646973736f6369617465546f6b656e733a204d757374206265207369676e656460448201527f206279207468652070726f7669646564204163636f756e742773206b6579206f60648201527f722063616c6c65642066726f6d20746865206163636f756e747320636f6e7472608482015266616374206b657960c81b60a482015260c401610260565b5f5b8251811015612083575f6001600160a01b03168382815181106126a0576126a06177dc565b60200260200101516001600160a01b0316036126fe5760405162461bcd60e51b815260206004820152601f60248201527f646973736f6369617465546f6b656e733a20696e76616c696420746f6b656e006044820152606401610260565b5f838281518110612711576127116177dc565b60200260200101516001600160a01b031663099794e88686858151811061273a5761273a6177dc565b60200260200101516040518363ffffffff1660e01b81526004016127749291906001600160a01b0392831681529116602082015260400190565b6020604051808303815f875af1158015612790573d5f5f3e3d5ffd5b505050506040513d601f19601f820116820180604052508101906127b49190617f9b565b9050600781900b60161461281f5760405162461bcd60e51b815260206004820152602c60248201527f646973736f6369617465546f6b656e733a204661696c656420746f206469737360448201526b37b1b4b0ba32903a37b5b2b760a11b6064820152608401610260565b5060010161267b565b5f306101671461284a5760405162461bcd60e51b81526004016102609061777f565b6001600160a01b0384166128a05760405162461bcd60e51b815260206004820152601d60248201527f7472616e73666572546f6b656e733a20696e76616c696420746f6b656e0000006044820152606401610260565b5f8351116128fb5760405162461bcd60e51b815260206004820152602260248201527f7472616e73666572546f6b656e733a206d697373696e6720726563697069656e604482015261747360f01b6064820152608401610260565b82518251146129575760405162461bcd60e51b815260206004820152602260248201527f7472616e73666572546f6b656e733a20696e636f6e73697374656e7420696e706044820152611d5d60f21b6064820152608401610260565b5f5b8351811015612165576129a08533868481518110612979576129796177dc565b6020026020010151868581518110612993576129936177dc565b6020026020010151613814565b9150600782900b6016146129f65760405162461bcd60e51b815260206004820152601f60248201527f7472616e73666572546f6b656e733a207472616e73666572206661696c6564006044820152606401610260565b600101612959565b5f803061016714612a215760405162461bcd60e51b81526004016102609061777f565b604051636eb1769f60e11b81526001600160a01b03858116600483015284811660248301526016919087169063dd62ed3e90604401602060405180830381865afa158015612a71573d5f5f3e3d5ffd5b505050506040513d601f19601f82011682018060405250810190612a959190617ffa565b60039190910b969095509350505050565b5f803061016714612ac95760405162461bcd60e51b81526004016102609061777f565b6001600160a01b038316612b1f5760405162461bcd60e51b815260206004820152601d60248201527f676574546f6b656e547970653a20696e76616c696420616464726573730000006044820152606401610260565b6040516393272baf60e01b81526001600160a01b03841660048201819052906393272baf906024016040805180830381865afa158015612b61573d5f5f3e3d5ffd5b505050506040513d601f19601f8201168201806040525081019061196a9190618011565b5f3061016714612ba75760405162461bcd60e51b81526004016102609061777f565b61179385858585612448565b5f803061016714612bd65760405162461bcd60e51b81526004016102609061777f565b5f5f612be185611881565b5160c0015190945092505050915091565b5f803061016714612c155760405162461bcd60e51b81526004016102609061777f565b604080515f8082526020820190925281612c45565b612c3261590d565b815260200190600190039081612c2a5790505b509050612c82604051806040016040528060138152602001724e4f4e5f46554e4749424c455f554e4951554560681b815250875f5f89868a614cc5565b9250925050935093915050565b5f606080803061016714612cb55760405162461bcd60e51b81526004016102609061777f565b5f5f612cc087611881565b60a081015160c082015160e09092015192985096509450925050509193509193565b604080516060810182525f808252602082018190529181018290523061016714612d1e5760405162461bcd60e51b81526004016102609061777f565b5f5f612d2985611881565b51610100015190945092505050915091565b5f803061016714612d5e5760405162461bcd60e51b81526004016102609061777f565b6001600160a01b038516612db45760405162461bcd60e51b815260206004820152601860248201527f6275726e546f6b656e3a20696e76616c696420746f6b656e00000000000000006044820152606401610260565b5f8460070b13612e065760405162461bcd60e51b815260206004820152601960248201527f6275726e546f6b656e3a20696e76616c696420616d6f756e74000000000000006044820152606401610260565b604051631f69565f60e01b81526001600160a01b038616600482018190525f91829190631f69565f906024015f60405180830381865afa158015612e4c573d5f5f3e3d5ffd5b505050506040513d5f823e601f3d908101601f19168201604052612e739190810190617e2c565b91509150612e82601082615010565b612e97576020015160b49350915061175d9050565b600782900b601614612ef75760405162461bcd60e51b815260206004820152602360248201527f6275726e546f6b656e3a206661696c656420746f2067657420746f6b656e20696044820152626e666f60e81b6064820152608401610260565b8051604001516001600160a01b038116612f535760405162461bcd60e51b815260206004820152601a60248201527f6275726e546f6b656e3a20696e76616c6964206163636f756e740000000000006044820152606401610260565b60405163017677f560e31b81526001600160a01b03891690630bb3bfa890612f8c9084905f906001600160401b038d1690600401617fd6565b5f604051808303815f87803b158015612fa3575f5ffd5b505af1158015612fb5573d5f5f3e3d5ffd5b50505050601660030b9450876001600160a01b03166318160ddd6040518163ffffffff1660e01b8152600401602060405180830381865afa158015612ffc573d5f5f3e3d5ffd5b505050506040513d601f19601f820116820180604052508101906130209190617ffa565b93505f8460070b12156130755760405162461bcd60e51b815260206004820152601f60248201527f6275726e546f6b656e3a20696e76616c696420746f74616c20737570706c79006044820152606401610260565b505050935093915050565b5f61308b8482618089565b506001805460ff191660ff83161790558151516002906130ab9082618089565b508151602001516003906130bf9082618089565b5081516040810151600480546001600160a01b0319166001600160a01b03909216919091179055606001516005906130f79082618089565b50815160808101516006805460a084015160c0909401511515600160481b0269ff000000000000000000196001600160401b039095166101000268ffffffffffffffff00199415159490941668ffffffffffffffffff199092169190911792909217929092161790555f5b825160e001515181101561325a57825160e001518051600791908390811061318c5761318c6177dc565b6020908102919091018101518254600181810185555f9485529383902082516005909202019081558183015180519482018054948201516001600160a01b031661010002610100600160a81b0319961515969096166001600160a81b031990951694909417949094178355604084015191939092909160028401906132119082618089565b50606082015160028201906132269082618089565b5060809190910151600390910180546001600160a01b0319166001600160a01b039092169190911790555050600101613162565b50815161010001518051600880546020808501516001600160a01b0316600160401b9081026001600160e01b03199093166001600160401b0395861617929092179092556040938401516009805491851667ffffffffffffffff199290921691909117905590850151600a805494870151606088015160808901511515600160501b0260ff60501b19911515600160481b02919091166affff0000000000000000001992151590950268ffffffffffffffffff1990971693909516929092179490941716171790555f5b8260a00151518110156134015760026009018360a00151828151811061334c5761334c6177dc565b6020908102919091018101518254600180820185555f948552938390208251600290920201805493830151604084015160608501516001600160401b039094166001600160e01b031990961695909517600160401b6001600160a01b03928316021761ffff60e01b1916600160e01b9515159590950260ff60e81b191694909417600160e81b9215159290920291909117815560809091015190830180546001600160a01b0319169190921617905501613324565b505f5b8260c001515181101561350b576002600a018360c00151828151811061342c5761342c6177dc565b6020908102919091018101518254600181810185555f948552938390208251600290920201805493830151604084015160608501516001600160401b03908116600160c01b026001600160c01b03928216600160801b02929092166fffffffffffffffffffffffffffffffff938216600160401b026001600160801b031990981691909516179590951716919091179290921782556080810151918301805460a0909201516001600160a01b031661010002610100600160a81b0319931515939093166001600160a81b03199092169190911791909117905501613404565b505f5b8260e0015151811015613605576002600b018360e001518281518110613536576135366177dc565b6020908102919091018101518254600181810185555f94855293839020825160039092020180549383015160408401516001600160401b03908116600160801b0267ffffffffffffffff60801b19928216600160401b026001600160801b0319909716919094161794909417939093161782556060810151828401805460808401511515600160a01b026001600160a81b03199091166001600160a01b039384161717905560a09091015160029092018054929091166001600160a01b0319929092169190911790550161350e565b50610100820151600e906136199082618089565b50505050565b5f8030610167146136425760405162461bcd60e51b81526004016102609061777f565b5f61364c846150c6565b549460015f87901a14945092505050565b5f80606030610167146136825760405162461bcd60e51b81526004016102609061777f565b61368e86866001615108565b9250925092505b93509350939050565b5f30610167146136c05760405162461bcd60e51b81526004016102609061777f565b60405163e1f21c6760e01b81526001600160a01b0385169063e1f21c679061212590339087908790600401617fd6565b5f8030610167146137135760405162461bcd60e51b81526004016102609061777f565b604080515f8082526020820190925281613761565b6040805160a0810182525f808252602080830182905292820181905260608201819052608082015282525f199092019101816137285790505b50604080515f808252602082019092529192509081613796565b61378361590d565b81526020019060019003908161377b5790505b50604080515f8082526020820190925291925090816137cb565b6137b861590d565b8152602001906001900390816137b05790505b509050613808604051806040016040528060138152602001724e4f4e5f46554e4749424c455f554e4951554560681b815250875f5f878787614cc5565b94509450505050915091565b5f30610167146138365760405162461bcd60e51b81526004016102609061777f565b6001600160a01b03851661388c5760405162461bcd60e51b815260206004820152601c60248201527f7472616e73666572546f6b656e3a20696e76616c696420746f6b656e000000006044820152606401610260565b83835f600785900b12156138ad5750839050846138aa5f1985618143565b93505b6001600160a01b03821633148061393c5750604051636eb1769f60e11b81526001600160a01b0383811660048301523360248301526001600160401b038616919089169063dd62ed3e90604401602060405180830381865afa158015613915573d5f5f3e3d5ffd5b505050506040513d601f19601f820116820180604052508101906139399190617ffa565b10155b6139885760405162461bcd60e51b815260206004820152601960248201527f7472616e736665724e46543a20756e617574686f72697a6564000000000000006044820152606401610260565b604051630aed65f560e11b81523360048201526001600160a01b03838116602483015282811660448301526001600160401b03861660648301528816906315dacbea906084016020604051808303815f875af11580156139ea573d5f5f3e3d5ffd5b505050506040513d601f19601f82011682018060405250810190613a0e9190617f9b565b506016979650505050505050565b5f803061016714613a3f5760405162461bcd60e51b81526004016102609061777f565b6001600160a01b038516613a955760405162461bcd60e51b815260206004820152601f60248201527f6973417070726f766564466f72416c6c3a20696e76616c696420746f6b656e006044820152606401610260565b60405163e985e9c560e01b81526001600160a01b03858116600483015284811660248301526016919087169063e985e9c590604401602060405180830381865afa158015613ae5573d5f5f3e3d5ffd5b505050506040513d601f19601f82011682018060405250810190612a959190618162565b60405163e0b490f760e01b81526001600160a01b03821660048201525f90634d8fdd6d60e01b908290819081906101679063e0b490f7906024016040805180830381865afa158015613b5d573d5f5f3e3d5ffd5b505050506040513d601f19601f82011682018060405250810190613b81919061817d565b9150915080613b8e575f5ffd5b838383604051602001613ba3939291906181b2565b604051602081830303815290604052613bbb906181e7565b9695505050505050565b5f613bd0848461545d565b90505f1981146136195781811015613c2a5760405162461bcd60e51b815260206004820152601d60248201527f5f7370656e64416c6c6f77616e63653a20696e73756666696369656e740000006044820152606401610260565b6136198484848403613f3d565b6001600160a01b038316613c835760405162461bcd60e51b8152602060048201526013602482015272343a399d1034b73b30b634b21039b2b73232b960691b6044820152606401610260565b6001600160a01b038216613cd15760405162461bcd60e51b8152602060048201526015602482015274343a399d1034b73b30b634b2103932b1b2b4bb32b960591b6044820152606401610260565b613cdc838383611515565b816001600160a01b0316836001600160a01b03167fddf252ad1be2c89b69c2b068fc378daa952ba7f163c4a11628f55a4df523b3ef83604051613d2191815260200190565b60405180910390a3505050565b6001600160a01b038316613d7a5760405162461bcd60e51b8152602060048201526013602482015272343a399d1034b73b30b634b21039b2b73232b960691b6044820152606401610260565b6001600160a01b038216613dc85760405162461bcd60e51b8152602060048201526015602482015274343a399d1034b73b30b634b2103932b1b2b4bb32b960591b6044820152606401610260565b5f613dd282615472565b80549091506001600160a01b0380821690861614613e325760405162461bcd60e51b815260206004820152601860248201527f6874733a2073656e646572206973206e6f74206f776e657200000000000000006044820152606401610260565b806001600160a01b0316866001600160a01b031614613eb857613e5483615494565b6001600160a01b0316866001600160a01b03161480613e785750613e7881876154a7565b613eb85760405162461bcd60e51b81526020600482015260116024820152701a1d1cce881d5b985d5d1a1bdc9a5e9959607a1b6044820152606401610260565b5f613ec2846154b3565b90505f8155866001600160a01b0316826001600160a01b031614613ef0575f613eeb83896154d5565b5f9055505b84835583856001600160a01b0316876001600160a01b03167fddf252ad1be2c89b69c2b068fc378daa952ba7f163c4a11628f55a4df523b3ef60405160405180910390a450505050505050565b6001600160a01b038316613f935760405162461bcd60e51b815260206004820152601760248201527f5f617070726f76653a20696e76616c6964206f776e65720000000000000000006044820152606401610260565b6001600160a01b038216613fe95760405162461bcd60e51b815260206004820152601960248201527f5f617070726f76653a20696e76616c6964207370656e646572000000000000006044820152606401610260565b5f613ff484846155f5565b91909155505050565b5f614007836156f2565b9050806001600160a01b0316856001600160a01b031614806140425750846001600160a01b031661403784615494565b6001600160a01b0316145b80614052575061405281866154a7565b6140975760405162461bcd60e51b815260206004820152601660248201527517d85c1c1c9bdd994e881d5b985d5d1a1bdc9a5e995960521b6044820152606401610260565b5f6140a1846154b3565b90505f836140af575f6140b1565b855b905080825584866001600160a01b0316846001600160a01b03167f8c5be1e5ebec7d5bd14f71427d1e84f3dd0314c0f7b2291e5b200ac8c7c3b92560405160405180910390a450505050505050565b6001600160a01b0382161580159061412a5750826001600160a01b0316826001600160a01b031614155b6141825760405162461bcd60e51b815260206004820152602360248201527f736574417070726f76616c466f72416c6c3a20696e76616c6964206f706572616044820152623a37b960e91b6064820152608401610260565b5f61418d84846154d5565b9050818155826001600160a01b0316846001600160a01b03167f17307eab39ab6107e8899845ad3d59bd9653f200f220920489ca2b5937696c31846040516141d9911515815260200190565b60405180910390a350505050565b606063f90221fd60e01b6001600160e01b0319831601614229576040516142139060029060200161820a565b6040516020818303038152906040529050919050565b63cec31a9960e01b6001600160e01b0319831601614258576001546040805160ff909216602083015201614213565b63e7e9f22360e01b6001600160e01b031983160161428857600a546040805160079290920b602083015201614213565b636a2764bf60e01b6001600160e01b03198316016142b2576040516142139060039060200161820a565b638f5f7dcf60e01b6001600160e01b031983160161436a57603c36101561431b5760405162461bcd60e51b815260206004820152601e60248201527f62616c616e63654f663a204e6f7420656e6f7567682063616c6c6461746100006044820152606401610260565b5f61432a603c60283684615a8c565b61433391615aeb565b60601c9050614341816156fd565b60405160200161435391815260200190565b604051602081830303815290604052915050919050565b6356fa634560e01b6001600160e01b031983160161443c57605c3610156143d35760405162461bcd60e51b815260206004820152601d60248201527f7472616e736665723a204e6f7420656e6f7567682063616c6c646174610000006044820152606401610260565b5f6143e2603c60283684615a8c565b6143eb91615aeb565b60601c90505f6143ff605c603c3684615a8c565b614408916176e5565b905033614416818484613c37565b6040805160016020820152015b6040516020818303038152906040529350505050919050565b63dc478d2360e01b6001600160e01b031983160161453657607c3610156144a55760405162461bcd60e51b815260206004820152601e60248201527f7472616e73666572463a204e6f7420656e6f7567682063616c6c6461746100006044820152606401610260565b5f6144b4603c60283684615a8c565b6144bd91615aeb565b60601c90505f6144d1605c60483684615a8c565b6144da91615aeb565b60601c90505f6144ee607c605c3684615a8c565b6144f7916176e5565b905033614505848284613bc5565b614510848484613c37565b604080516001602082015201604051602081830303815290604052945050505050919050565b63114e896160e11b6001600160e01b031983160161460d57605c36101561459f5760405162461bcd60e51b815260206004820152601e60248201527f616c6c6f77616e63653a204e6f7420656e6f7567682063616c6c6461746100006044820152606401610260565b5f6145ae603c60283684615a8c565b6145b791615aeb565b60601c90505f6145cb605c60483684615a8c565b6145d491615aeb565b60601c90506145e3828261545d565b6040516020016145f591815260200190565b60405160208183030381529060405292505050919050565b63f6a1584d60e01b6001600160e01b03198316016146e757605c3610156146465760405162461bcd60e51b815260040161026090617702565b5f614655603c60283684615a8c565b61465e91615aeb565b60601c90505f614672605c603c3684615a8c565b61467b916176e5565b905033614689818484613f3d565b826001600160a01b0316816001600160a01b03167f8c5be1e5ebec7d5bd14f71427d1e84f3dd0314c0f7b2291e5b200ac8c7c3b925846040516146ce91815260200190565b60405180910390a3604080516001602082015201614423565b61150f82615708565b606063f90221fd60e01b6001600160e01b031983160161471c576040516142139060029060200161820a565b636a2764bf60e01b6001600160e01b0319831601614746576040516142139060039060200161820a565b633784a92360e01b6001600160e01b03198316016147e257603c3610156147af5760405162461bcd60e51b815260206004820152601d60248201527f746f6b656e5552493a204e6f7420656e6f7567682063616c6c646174610000006044820152606401610260565b5f6147be603c601c3684615a8c565b6147c7916176e5565b90506147d281615804565b604051602001614353919061821c565b63e7e9f22360e01b6001600160e01b031983160161481257600a546040805160079290920b602083015201614213565b638f5f7dcf60e01b6001600160e01b031983160161487b57603c36101561431b5760405162461bcd60e51b815260206004820152601e60248201527f62616c616e63654f663a204e6f7420656e6f7567682063616c6c6461746100006044820152606401610260565b634e56ef7160e11b6001600160e01b031983160161492157603c3610156148e45760405162461bcd60e51b815260206004820152601c60248201527f6f776e65724f663a204e6f7420656e6f7567682063616c6c64617461000000006044820152606401610260565b5f6148f3603c601c3684615a8c565b6148fc916176e5565b9050614907816156f2565b604080516001600160a01b03909216602083015201614353565b63dc478d2360e01b6001600160e01b03198316016149ba57607c36101561495a5760405162461bcd60e51b8152600401610260906176a4565b5f614969603c60283684615a8c565b61497291615aeb565b60601c90505f614986605c60483684615a8c565b61498f91615aeb565b60601c90505f6149a3607c605c3684615a8c565b6149ac916176e5565b905061441633848484613d2e565b63f6a1584d60e01b6001600160e01b0319831601614a4857605c3610156149f35760405162461bcd60e51b815260040161026090617702565b5f614a02603c60283684615a8c565b614a0b91615aeb565b60601c90505f614a1f605c603c3684615a8c565b614a28916176e5565b9050614a373383836001613ffd565b6040805160016020820152016145f5565b635dd34b9b60e01b6001600160e01b0319831601614ac657605c361015614a815760405162461bcd60e51b815260040161026090617739565b5f614a90603c60283684615a8c565b614a9991615aeb565b60601c90505f614aad605c603c3684615a8c565b614ab6916176e5565b6001149050614a37338383614100565b633df9fb4160e21b6001600160e01b0319831601614b5257603c361015614b2f5760405162461bcd60e51b815260206004820181905260248201527f676574417070726f7665643a204e6f7420656e6f7567682063616c6c646174616044820152606401610260565b5f614b3e603c601c3684615a8c565b614b47916176e5565b905061490781615494565b63167a163b60e01b6001600160e01b03198316016146e757605c361015614bc95760405162461bcd60e51b815260206004820152602560248201527f6973417070726f766564466f72416c6c3a204e6f7420656e6f7567682063616c6044820152646c6461746160d81b6064820152608401610260565b5f614bd8603c60283684615a8c565b614be191615aeb565b60601c90505f614bf5605c60483684615a8c565b614bfe91615aeb565b60601c9050614c0d82826154a7565b604080519115156020830152016145f5565b60405163e0b490f760e01b81526001600160a01b03821660048201525f906370a0823160e01b90829081906101679063e0b490f7906024016040805180830381865afa158015614c71573d5f5f3e3d5ffd5b505050506040513d601f19601f82011682018060405250810190614c95919061817d565b509050828282604051602001614cad939291906181b2565b604051602081830303815290604052611793906181e7565b5f5f5f3411614d0d5760405162461bcd60e51b81526020600482015260146024820152734854533a206d7573742073656e6420484241527360601b6044820152606401610260565b875151614d5c5760405162461bcd60e51b815260206004820152601960248201527f4854533a206e616d652063616e6e6f7420626520656d707479000000000000006044820152606401610260565b5f88602001515111614db05760405162461bcd60e51b815260206004820152601b60248201527f4854533a2073796d626f6c2063616e6e6f7420626520656d70747900000000006044820152606401610260565b60408801516001600160a01b0316614e165760405162461bcd60e51b8152602060048201526024808201527f4854533a2074726561737572792063616e6e6f74206265207a65726f2d6164646044820152637265737360e01b6064820152608401610260565b5f8760070b1215614e7c5760405162461bcd60e51b815260206004820152602a60248201527f4854533a20696e697469616c546f74616c537570706c792063616e6e6f74206260448201526965206e6567617469766560b01b6064820152608401610260565b5f8660030b1215614ecf5760405162461bcd60e51b815260206004820181905260248201527f4854533a20646563696d616c732063616e6e6f74206265206e656761746976656044820152606401610260565b614ed7615941565b8881525f60208083018290526040808401839052600160608501526080840183905260a0840189905260c0840188905260e08401879052805180820190915260048152633078303360e01b918101919091526101008301527f750074a6b54fc97bfb9b521eb42c32685e6f4cf74fc2711a2fa04bea02901060805490916001600160a01b0382169003614f6957506104075b80614f738161822e565b915050808255809350614f85846158a7565b604051636c37f63960e11b81526001600160a01b0385169063d86fec7290614fb5908f9087908e90600401618259565b5f604051808303815f87803b158015614fcc575f5ffd5b505af1158015614fde573d5f5f3e3d5ffd5b505050505f8a60070b1315614ffc57614ff8848b5f615108565b5050505b5060169b929a509198505050505050505050565b5f805b825160e00151518110156150bd5783835f015160e00151828151811061503b5761503b6177dc565b60200260200101515f0151036150b5575f835f015160e001518281518110615065576150656177dc565b60200260200101516020015190505f6001600160a01b031681602001516001600160a01b03161415806150ac57505f8160400151518260600151516150aa9190617862565b115b9250505061150f565b600101615013565b505f9392505050565b6040515f9063e0b490f760e01b9082906150e890839083908790602001618291565b604051602081830303815290604052615100906181e7565b949350505050565b5f8060606001600160a01b0386166151625760405162461bcd60e51b815260206004820152601860248201527f6d696e74546f6b656e3a20696e76616c696420746f6b656e00000000000000006044820152606401610260565b5f8560070b136151b45760405162461bcd60e51b815260206004820152601960248201527f6d696e74546f6b656e3a20696e76616c696420616d6f756e74000000000000006044820152606401610260565b604051631f69565f60e01b81526001600160a01b038716600482018190525f91829190631f69565f906024015f60405180830381865afa1580156151fa573d5f5f3e3d5ffd5b505050506040513d5f823e601f3d908101601f191682016040526152219190810190617e2c565b9150915085801561523a5750615238601082615010565b155b1561526057602090810151604080515f8152928301905260b49550935091506136959050565b600782900b6016146152c05760405162461bcd60e51b815260206004820152602360248201527f6d696e74546f6b656e3a206661696c656420746f2067657420746f6b656e20696044820152626e666f60e81b6064820152608401610260565b8051604001516001600160a01b03811661531c5760405162461bcd60e51b815260206004820152601a60248201527f6d696e74546f6b656e3a20696e76616c6964206163636f756e740000000000006044820152606401610260565b60405163017677f560e31b81526001600160a01b038a1690630bb3bfa890615355905f9085906001600160401b038e1690600401617fd6565b5f604051808303815f87803b15801561536c575f5ffd5b505af115801561537e573d5f5f3e3d5ffd5b50505050601660030b9550886001600160a01b03166318160ddd6040518163ffffffff1660e01b8152600401602060405180830381865afa1580156153c5573d5f5f3e3d5ffd5b505050506040513d601f19601f820116820180604052508101906153e99190617ffa565b604080515f808252602082019092529196505093505f8560070b12156154515760405162461bcd60e51b815260206004820152601f60248201527f6d696e74546f6b656e3a20696e76616c696420746f74616c20737570706c79006044820152606401610260565b50505093509350939050565b5f5f61546984846155f5565b54949350505050565b6040515f906331a9108f60e11b9082906150e8908390839087906020016181b2565b5f5f61549f836154b3565b549392505050565b5f5f61546984846154d5565b6040515f9063020604bf60e21b9082906150e8908390839087906020016181b2565b60405163e0b490f760e01b81526001600160a01b03831660048201525f9063e985e9c560e01b90829081906101679063e0b490f7906024016040805180830381865afa158015615527573d5f5f3e3d5ffd5b505050506040513d601f19601f8201168201806040525081019061554b919061817d565b5060405163e0b490f760e01b81526001600160a01b03871660048201529091505f906101679063e0b490f7906024016040805180830381865afa158015615594573d5f5f3e3d5ffd5b505050506040513d601f19601f820116820180604052508101906155b8919061817d565b509050838383836040516020016155d294939291906182cd565b6040516020818303038152906040526155ea906181e7565b979650505050505050565b60405163e0b490f760e01b81526001600160a01b03831660048201525f90636eb1769f60e11b90829081906101679063e0b490f7906024016040805180830381865afa158015615647573d5f5f3e3d5ffd5b505050506040513d601f19601f8201168201806040525081019061566b919061817d565b5060405163e0b490f760e01b81526001600160a01b03871660048201529091505f906101679063e0b490f7906024016040805180830381865afa1580156156b4573d5f5f3e3d5ffd5b505050506040513d601f19601f820116820180604052508101906156d8919061817d565b509050838382846040516020016155d294939291906182cd565b5f5f61549f83615472565b5f5f61549f83614c1f565b6060637ac5590d60e11b6001600160e01b0319831601615748575f61572c33613b09565b9050600181556001604051602001614353911515815260200190565b63051b6f4160e51b6001600160e01b0319831601615781575f61576a33613b09565b5f8155604080516001602082015291925001614353565b63b270229360e01b6001600160e01b03198316016157bc575f6157a333613b09565b80546040805182151560208201529293509091016145f5565b60405162461bcd60e51b815260206004820152601f60248201527f7265646972656374466f72546f6b656e3a206e6f7420737570706f72746564006044820152606401610260565b60605f615810836158eb565b90505f81905080805461582290617162565b80601f016020809104026020016040519081016040528092919081815260200182805461584e90617162565b80156158995780601f1061587057610100808354040283529160200191615899565b820191905f5260205f20905b81548152906001019060200180831161587c57829003601f168201915b505050505092505050919050565b60405163400f4ef360e01b905f906158c790839083908690602001618291565b6040516020818303038152906040526158df906181e7565b80546001019055505050565b6040515f9063c87b56dd60e01b9082906150e8908390839087906020016181b2565b6040805160c0810182525f80825260208201819052918101829052606081018290526080810182905260a081019190915290565b60408051610240810182526060610120820181815261014083018290525f610160840181905261018084018390526101a084018190526101c084018190526101e08401819052610200840183905284519283018552808352602083018190529382019390935261022082015290819081526020015f60070b81526020015f151581526020015f151581526020015f15158152602001606081526020016060815260200160608152602001606081525090565b6040518060c00160405280615a06615941565b81525f60208201819052604082018190526060808301829052608083015260a09091015290565b6040518060a001604052805f151581526020015f6001600160a01b0316815260200160608152602001606081526020015f6001600160a01b031681525090565b6040518060400160405280615a80615941565b81525f60209091015290565b5f5f85851115615a9a575f5ffd5b83861115615aa6575f5ffd5b5050820193919092039150565b80356001600160e01b03198116906004841015615ae4576001600160e01b0319600485900360031b81901b82161691505b5092915050565b80356001600160601b03198116906014841015615ae4576001600160601b031960149490940360031b84901b1690921692915050565b6001600160a01b0381168114615b35575f5ffd5b50565b8035615b4381615b21565b919050565b5f5f60408385031215615b59575f5ffd5b8235615b6481615b21565b946020939093013593505050565b5f5f60408385031215615b83575f5ffd5b8235615b8e81615b21565b91506020830135615b9e81615b21565b809150509250929050565b5f5f5f60608486031215615bbb575f5ffd5b8335615bc681615b21565b92506020840135615bd681615b21565b929592945050506040919091013590565b634e487b7160e01b5f52604160045260245ffd5b604080519081016001600160401b0381118282101715615c1d57615c1d615be7565b60405290565b60405160a081016001600160401b0381118282101715615c1d57615c1d615be7565b604051606081016001600160401b0381118282101715615c1d57615c1d615be7565b60405161012081016001600160401b0381118282101715615c1d57615c1d615be7565b60405160c081016001600160401b0381118282101715615c1d57615c1d615be7565b604051601f8201601f191681016001600160401b0381118282101715615cd457615cd4615be7565b604052919050565b5f6001600160401b03821115615cf457615cf4615be7565b50601f01601f191660200190565b5f82601f830112615d11575f5ffd5b8135602083015f615d29615d2484615cdc565b615cac565b9050828152858383011115615d3c575f5ffd5b828260208301375f92810160200192909252509392505050565b8015158114615b35575f5ffd5b8035615b4381615d56565b8060070b8114615b35575f5ffd5b8035615b4381615d6e565b5f6001600160401b03821115615d9f57615d9f615be7565b5060051b60200190565b5f82601f830112615db8575f5ffd5b8135615dc6615d2482615d87565b8082825260208201915060208360051b860101925085831115615de7575f5ffd5b602085015b83811015615f075780356001600160401b03811115615e09575f5ffd5b86016040818903601f19011215615e1e575f5ffd5b615e26615bfb565b6020820135815260408201356001600160401b03811115615e45575f5ffd5b60208184010192505060a0828a031215615e5d575f5ffd5b615e65615c23565b8235615e7081615d56565b81526020830135615e8081615b21565b602082015260408301356001600160401b03811115615e9d575f5ffd5b615ea98b828601615d02565b60408301525060608301356001600160401b03811115615ec7575f5ffd5b615ed38b828601615d02565b606083015250615ee560808401615b38565b6080820152806020830152508085525050602083019250602081019050615dec565b5095945050505050565b5f60608284031215615f21575f5ffd5b615f29615c45565b90508135615f3681615d6e565b81526020820135615f4681615b21565b60208201526040820135615f5981615d6e565b604082015292915050565b5f6101608284031215615f75575f5ffd5b615f7d615c67565b905081356001600160401b03811115615f94575f5ffd5b615fa084828501615d02565b82525060208201356001600160401b03811115615fbb575f5ffd5b615fc784828501615d02565b602083015250615fd960408301615b38565b604082015260608201356001600160401b03811115615ff6575f5ffd5b61600284828501615d02565b60608301525061601460808301615d63565b608082015261602560a08301615d7c565b60a082015261603660c08301615d63565b60c082015260e08201356001600160401b03811115616053575f5ffd5b61605f84828501615da9565b60e083015250616073836101008401615f11565b61010082015292915050565b8060030b8114615b35575f5ffd5b8035615b438161607f565b5f5f5f606084860312156160aa575f5ffd5b83356001600160401b038111156160bf575f5ffd5b6160cb86828701615f64565b93505060208401356160dc81615d6e565b915060408401356160ec8161607f565b809150509250925092565b5f5f5f5f6080858703121561610a575f5ffd5b843561611581615b21565b9350602085013561612581615b21565b9250604085013561613581615b21565b9396929550929360600135925050565b5f60208284031215616155575f5ffd5b813561616081615b21565b9392505050565b5f81518084528060208401602086015e5f602082860101526020601f19601f83011685010191505092915050565b80511515825260018060a01b0360208201511660208301525f604082015160a060408501526161c760a0850182616167565b9050606083015184820360608601526161e08282616167565b6080948501516001600160a01b03169590940194909452509092915050565b5f82825180855260208501945060208160051b830101602085015f5b8381101561626457601f19858403018852815180518452602081015190506040602085015261624d6040850182616195565b6020998a019990945092909201915060010161621b565b50909695505050505050565b5f81516101608452616286610160850182616167565b90506020830151848203602086015261629f8282616167565b91505060408301516162bc60408601826001600160a01b03169052565b50606083015184820360608601526162d48282616167565b91505060808301516162ea608086018215159052565b5060a08301516162ff60a086018260070b9052565b5060c083015161631360c086018215159052565b5060e083015184820360e086015261632b82826161ff565b9150506101008301516163666101008601828051600790810b83526020808301516001600160a01b031690840152604091820151900b910152565b509392505050565b5f8151808452602084019350602083015f5b828110156163de578151805160070b87526020808201516001600160a01b03908116828a01526040808401511515908a01526060808401511515908a0152608092830151169188019190915260a09096019590910190600101616380565b5093949350505050565b5f8151808452602084019350602083015f5b828110156163de5781515f815160070b8852602082015160070b6020890152604082015160070b6040890152606082015160070b606089015260808201511515608089015260018060a01b0360a08301511660a089015260c08801905080975050506020820191506001810190506163fa565b5f8151808452602084019350602083015f5b828110156163de5781515f815160070b8852602082015160070b6020890152604082015160070b604089015260018060a01b03606083015116606089015260808201511515608089015260018060a01b0360a08301511660a089015260c088019050809750505060208201915060018101905061647f565b5f8151610120845261650d610120850182616270565b90506020830151616523602086018260070b9052565b506040830151616537604086018215159052565b50606083015161654b606086018215159052565b50608083015161655f608086018215159052565b5060a083015184820360a0860152616577828261636e565b91505060c083015184820360c086015261659182826163e8565b91505060e083015184820360e08601526165ab828261646d565b9150506101008301518482036101008601526117938282616167565b8260070b8152604060208201525f61510060408301846164f7565b5f5f604083850312156165f3575f5ffd5b82356165fe81615b21565b91506020830135615b9e81615d6e565b8260070b8152604060208201525f825160c060408401526166336101008401826164f7565b9050602084015160070b606084015260018060a01b036040850151166080840152606084015160070b60a08401526080840151603f198483030160c085015261667c8282616167565b60a095909501516001600160a01b031660e0949094019390935250919392505050565b5f82601f8301126166ae575f5ffd5b81356166bc615d2482615d87565b80828252602082019150602060a084028601019250858311156166dd575f5ffd5b602085015b83811015615f075760a081880312156166f9575f5ffd5b616701615c23565b813561670c81615d6e565b8152602082013561671c81615b21565b6020820152604082013561672f81615d56565b6040820152606082013561674281615d56565b6060820152608082013561675581615b21565b6080820152835260209092019160a0016166e2565b5f82601f830112616779575f5ffd5b8135616787615d2482615d87565b80828252602082019150602060c084028601019250858311156167a8575f5ffd5b602085015b83811015615f075760c081880312156167c4575f5ffd5b6167cc615c8a565b81356167d781615d6e565b815260208201356167e781615d6e565b602082015260408201356167fa81615d6e565b6040820152606082013561680d81615d6e565b6060820152608082013561682081615d56565b608082015260a082013561683381615b21565b60a0820152835260209092019160c0016167ad565b5f5f5f5f5f60a0868803121561685c575f5ffd5b85356001600160401b03811115616871575f5ffd5b61687d88828901615f64565b955050602086013561688e81615d6e565b9350604086013561689e8161607f565b925060608601356001600160401b038111156168b8575f5ffd5b6168c48882890161669f565b92505060808601356001600160401b038111156168df575f5ffd5b6168eb8882890161676a565b9150509295509295909350565b5f82601f830112616907575f5ffd5b8135616915615d2482615d87565b8082825260208201915060208360051b860101925085831115616936575f5ffd5b602085015b83811015615f0757803561694e81615b21565b83526020928301920161693b565b5f82601f83011261696b575f5ffd5b8135616979615d2482615d87565b8082825260208201915060208360051b86010192508583111561699a575f5ffd5b602085015b83811015615f075780356169b281615d6e565b83526020928301920161699f565b5f5f5f5f608085870312156169d3575f5ffd5b84356169de81615b21565b935060208501356001600160401b038111156169f8575f5ffd5b616a04878288016168f8565b93505060408501356001600160401b03811115616a1f575f5ffd5b616a2b878288016168f8565b92505060608501356001600160401b03811115616a46575f5ffd5b616a528782880161695c565b91505092959194509250565b5f5f60408385031215616a6f575f5ffd5b8235616a7a81615b21565b915060208301356001600160401b03811115616a94575f5ffd5b616aa0858286016168f8565b9150509250929050565b5f5f5f60608486031215616abc575f5ffd5b8335616ac781615b21565b92506020840135616ad781615b21565b915060408401356160ec81615d56565b8260070b8152604060208201525f6151006040830184616195565b8260070b8152604060208201525f8251604080840152616b2560808401826164f7565b9050602084015160030b6060840152809150509392505050565b5f5f5f5f60808587031215616b52575f5ffd5b8435616b5d81615b21565b93506020850135616b6d81615b21565b92506040850135616b7d81615b21565b91506060850135616b8d81615d6e565b939692955090935050565b5f5f5f60608486031215616baa575f5ffd5b8335616bb581615b21565b925060208401356001600160401b03811115616bcf575f5ffd5b616bdb868287016168f8565b92505060408401356001600160401b03811115616bf6575f5ffd5b616c028682870161695c565b9150509250925092565b5f5f5f60608486031215616c1e575f5ffd5b8335616c2981615b21565b92506020840135616c3981615b21565b915060408401356160ec81615b21565b5f82601f830112616c58575f5ffd5b8135616c66615d2482615d87565b80828252602082019150602060c08402860101925085831115616c87575f5ffd5b602085015b83811015615f075760c08188031215616ca3575f5ffd5b616cab615c8a565b8135616cb681615d6e565b81526020820135616cc681615d6e565b60208201526040820135616cd981615d6e565b60408201526060820135616cec81615b21565b60608201526080820135616cff81615d56565b608082015260a0820135616d1281615b21565b60a0820152835260209092019160c001616c8c565b5f5f5f60608486031215616d39575f5ffd5b83356001600160401b03811115616d4e575f5ffd5b616d5a86828701615f64565b93505060208401356001600160401b03811115616d75575f5ffd5b616d818682870161669f565b92505060408401356001600160401b03811115616d9c575f5ffd5b616c0286828701616c49565b8460070b8152608060208201525f616dc3608083018661636e565b8281036040840152616dd581866163e8565b905082810360608401526155ea818561646d565b600783900b81526080810161616060208301848051600790810b83526020808301516001600160a01b031690840152604091820151900b910152565b5f5f5f60608486031215616e37575f5ffd5b8335616e4281615b21565b92506020840135616e5281615d6e565b915060408401356001600160401b03811115616bf6575f5ffd5b5f5f5f60608486031215616e7e575f5ffd5b83356001600160401b03811115616e93575f5ffd5b616e9f86828701615d02565b93505060208401356001600160401b03811115616eba575f5ffd5b84016101208187031215616ecc575f5ffd5b616ed4615c67565b81356001600160401b03811115616ee9575f5ffd5b616ef588828501615f64565b825250616f0460208301615d7c565b6020820152616f1560408301615d63565b6040820152616f2660608301615d63565b6060820152616f3760808301615d63565b608082015260a08201356001600160401b03811115616f54575f5ffd5b616f608882850161669f565b60a08301525060c08201356001600160401b03811115616f7e575f5ffd5b616f8a8882850161676a565b60c08301525060e08201356001600160401b03811115616fa8575f5ffd5b616fb488828501616c49565b60e0830152506101008201356001600160401b03811115616fd3575f5ffd5b616fdf88828501615d02565b610100830152509250616ff690506040850161608d565b90509250925092565b5f5f5f60608486031215617011575f5ffd5b833561701c81615b21565b9250602084013561702c81615d6e565b915060408401356001600160401b03811115617046575f5ffd5b8401601f81018613617056575f5ffd5b8035617064615d2482615d87565b8082825260208201915060208360051b850101925088831115617085575f5ffd5b602084015b838110156170c55780356001600160401b038111156170a7575f5ffd5b6170b68b602083890101615d02565b8452506020928301920161708a565b50809450505050509250925092565b5f606082018560070b83528460070b6020840152606060408401528084518083526080850191506020860192505f5b8181101561712457835160070b835260209384019390920191600101617103565b5090979650505050505050565b5f60208284031215617141575f5ffd5b81356001600160401b03811115617156575f5ffd5b61150b84828501615f64565b600181811c9082168061717657607f821691505b60208210810361719457634e487b7160e01b5f52602260045260245ffd5b50919050565b5f81546171a681617162565b6001821680156171bd57600181146171d2576171ff565b60ff19831686528115158202860193506171ff565b845f5260205f205f5b838110156171f7578154888201526001909101906020016171db565b505081860193505b50505092915050565b5f616160828461719a565b5f815461721f81617162565b8085526001821680156172395760018114617255576171ff565b60ff1983166020870152602082151560051b87010193506171ff565b845f5260205f205f5b838110156172805781546020828a01015260018201915060208101905061725e565b870160200194505050505092915050565b5f82825480855260208501945060208160051b830101845f5260205f205f5b8381101561626457848303601f1901885281548352604060208401819052600183015460ff811615159185019190915260081c6001600160a01b0316606084015260a0608084015261730860e0840160028401617213565b838103603f190160a08501526173218160038501617213565b60048401546001600160a01b031660c0959095019490945250602097909701966005909101906001016172b0565b61016082525f617363610160840183617213565b83810360208501526173788160018501617213565b905061738e60028401546001600160a01b031690565b6001600160a01b0316604085015283810360608501526173b18160038501617213565b905060048301546173c96080860160ff831615159052565b600881901c60070b60a08601526173ea60c0860160ff8360481c1615159052565b5083810360e08501526174008160058501617291565b90506161606101008501600685018054600781810b8452604091821c6001600160a01b0316602085015260019092015490910b910152565b5f8154808452602084019350825f5260205f205f5b828110156163de5781548060070b875260018060a01b038160401c16602088015260ff8160e01c161515604088015260ff8160e81c16151560608801525060018060a01b03600183015416608087015260a08601955060028201915060018101905061744d565b5f8154808452602084019350825f5260205f205f5b828110156163de5781548060070b87528060401c60070b60208801528060801c60070b60408801528060c01d60070b60608801525060018201546175146080880160ff831615159052565b60081c6001600160a01b031660a087015260c090950194600291909101906001016174c9565b5f8154808452602084019350825f5260205f205f5b828110156163de5781548060070b87528060401c60070b60208801528060801c60070b604088015250600182015460018060a01b038116606088015261759f6080880160ff8360a01c1615159052565b5060028201546001600160a01b031660a087015260c09095019460039091019060010161754f565b8260030b81526040602082015261012060408201525f6175eb61016083018461734f565b6008840154600781900b606085015261760e6080850160ff8360401c1615159052565b61762260a0850160ff8360481c1615159052565b61763660c0850160ff8360501c1615159052565b50828103603f190160e08401526176508160098601617438565b838103603f1901610100850152905061766c81600a86016174b4565b838103603f1901610120850152905061768881600b860161753a565b838103603f1901610140850152905061179381600c8601617213565b60208082526021908201527f7472616e7366657246726f6d3a204e6f7420656e6f7567682063616c6c6461746040820152606160f81b606082015260800190565b8035602083101561150f575f19602084900360031b1b1692915050565b6020808252601c908201527f617070726f76653a204e6f7420656e6f7567682063616c6c6461746100000000604082015260600190565b60208082526026908201527f736574417070726f76616c466f72416c6c3a204e6f7420656e6f7567682063616040820152656c6c6461746160d01b606082015260800190565b60208082526017908201527f68747343616c6c3a2064656c6567617465642063616c6c000000000000000000604082015260600190565b8051615b4381615b21565b5f602082840312156177d1575f5ffd5b815161616081615b21565b634e487b7160e01b5f52603260045260245ffd5b634e487b7160e01b5f52601160045260245ffd5b600781810b9083900b01677fffffffffffffff8113677fffffffffffffff198212171561150f5761150f6177f0565b600782810b9082900b03677fffffffffffffff198112677fffffffffffffff8213171561150f5761150f6177f0565b8082018082111561150f5761150f6177f0565b5f82518060208501845e5f920191825250919050565b8051615b4381615d6e565b5f82601f8301126178a5575f5ffd5b8151602083015f6178b8615d2484615cdc565b90508281528583830111156178cb575f5ffd5b8282602083015e5f92810160200192909252509392505050565b8051615b4381615d56565b5f82601f8301126178ff575f5ffd5b815161790d615d2482615d87565b8082825260208201915060208360051b86010192508583111561792e575f5ffd5b602085015b83811015615f075780516001600160401b03811115617950575f5ffd5b86016040818903601f19011215617965575f5ffd5b61796d615bfb565b6020820151815260408201516001600160401b0381111561798c575f5ffd5b60208184010192505060a0828a0312156179a4575f5ffd5b6179ac615c23565b82516179b781615d56565b815260208301516179c781615b21565b602082015260408301516001600160401b038111156179e4575f5ffd5b6179f08b828601617896565b60408301525060608301516001600160401b03811115617a0e575f5ffd5b617a1a8b828601617896565b606083015250617a2c608084016177b6565b6080820152806020830152508085525050602083019250602081019050617933565b5f60608284031215617a5e575f5ffd5b617a66615c45565b90508151617a7381615d6e565b81526020820151617a8381615b21565b60208201526040820151615f5981615d6e565b5f6101608284031215617aa7575f5ffd5b617aaf615c67565b905081516001600160401b03811115617ac6575f5ffd5b617ad284828501617896565b82525060208201516001600160401b03811115617aed575f5ffd5b617af984828501617896565b602083015250617b0b604083016177b6565b604082015260608201516001600160401b03811115617b28575f5ffd5b617b3484828501617896565b606083015250617b46608083016178e5565b6080820152617b5760a0830161788b565b60a0820152617b6860c083016178e5565b60c082015260e08201516001600160401b03811115617b85575f5ffd5b617b91848285016178f0565b60e083015250616073836101008401617a4e565b5f82601f830112617bb4575f5ffd5b8151617bc2615d2482615d87565b80828252602082019150602060a08402860101925085831115617be3575f5ffd5b602085015b83811015615f075760a08188031215617bff575f5ffd5b617c07615c23565b8151617c1281615d6e565b81526020820151617c2281615b21565b60208201526040820151617c3581615d56565b60408201526060820151617c4881615d56565b60608201526080820151617c5b81615b21565b6080820152835260209092019160a001617be8565b5f82601f830112617c7f575f5ffd5b8151617c8d615d2482615d87565b80828252602082019150602060c08402860101925085831115617cae575f5ffd5b602085015b83811015615f075760c08188031215617cca575f5ffd5b617cd2615c8a565b8151617cdd81615d6e565b81526020820151617ced81615d6e565b60208201526040820151617d0081615d6e565b60408201526060820151617d1381615d6e565b60608201526080820151617d2681615d56565b608082015260a0820151617d3981615b21565b60a0820152835260209092019160c001617cb3565b5f82601f830112617d5d575f5ffd5b8151617d6b615d2482615d87565b80828252602082019150602060c08402860101925085831115617d8c575f5ffd5b602085015b83811015615f075760c08188031215617da8575f5ffd5b617db0615c8a565b8151617dbb81615d6e565b81526020820151617dcb81615d6e565b60208201526040820151617dde81615d6e565b60408201526060820151617df181615b21565b60608201526080820151617e0481615d56565b608082015260a0820151617e1781615b21565b60a0820152835260209092019160c001617d91565b5f5f60408385031215617e3d575f5ffd5b8251617e4881615d6e565b60208401519092506001600160401b03811115617e63575f5ffd5b83016101208186031215617e75575f5ffd5b617e7d615c67565b81516001600160401b03811115617e92575f5ffd5b617e9e87828501617a96565b825250617ead6020830161788b565b6020820152617ebe604083016178e5565b6040820152617ecf606083016178e5565b6060820152617ee0608083016178e5565b608082015260a08201516001600160401b03811115617efd575f5ffd5b617f0987828501617ba5565b60a08301525060c08201516001600160401b03811115617f27575f5ffd5b617f3387828501617c70565b60c08301525060e08201516001600160401b03811115617f51575f5ffd5b617f5d87828501617d4e565b60e0830152506101008201516001600160401b03811115617f7c575f5ffd5b617f8887828501617896565b6101008301525080925050509250929050565b5f60208284031215617fab575f5ffd5b815161616081615d6e565b5f60208284031215617fc6575f5ffd5b815160ff81168114616160575f5ffd5b6001600160a01b039384168152919092166020820152604081019190915260600190565b5f6020828403121561800a575f5ffd5b5051919050565b5f5f60408385031215618022575f5ffd5b825161802d81615d6e565b6020840151909250615b9e8161607f565b601f82111561163c57805f5260205f20601f840160051c810160208510156180635750805b601f840160051c820191505b81811015618082575f815560010161806f565b5050505050565b81516001600160401b038111156180a2576180a2615be7565b6180b6816180b08454617162565b8461803e565b6020601f8211600181146180e8575f83156180d15750848201515b5f19600385901b1c1916600184901b178455618082565b5f84815260208120601f198516915b8281101561811757878501518255602094850194600190920191016180f7565b508482101561813457868401515f19600387901b60f8161c191681555b50505050600190811b01905550565b5f8260070b8260070b028060070b9150808214615ae457615ae46177f0565b5f60208284031215618172575f5ffd5b815161616081615d56565b5f5f6040838503121561818e575f5ffd5b825163ffffffff811681146181a1575f5ffd5b6020840151909250615b9e81615d56565b6001600160e01b0319938416815260409290921b67ffffffffffffffff1916600483015260e01b909116601c82015260200190565b80516020808301519190811015617194575f1960209190910360031b1b16919050565b602081525f6161606020830184617213565b602081525f6161606020830184616167565b5f6001600160a01b0382166002600160a01b03198101618250576182506177f0565b60010192915050565b606081525f61826b6060830186616167565b828103602084015261827d81866164f7565b9150508260030b6040830152949350505050565b6001600160e01b031993909316835260c09190911b6001600160c01b031916600483015260601b6001600160601b031916600c82015260200190565b6001600160e01b0319948516815260609390931b6001600160601b031916600484015260e091821b84166018840152901b909116601c8201526020019056fea264697066735822122025436c0f041917f25cef824391dbe2a572c976f6581f44a5685e1a4e888c295964736f6c634300081c0033",
        "linkReferences": {}
    },
    "methodIdentifiers": {
        "__setTokenInfo(string,((string,string,address,string,bool,int64,bool,(uint256,(bool,address,bytes,bytes,address))[],(int64,address,int64)),int64,bool,bool,bool,(int64,address,bool,bool,address)[],(int64,int64,int64,int64,bool,address)[],(int64,int64,int64,address,bool,address)[],string),int32)": "d86fec72",
        "_update(address,address,uint256)": "0bb3bfa8",
        "allowance(address,address,address)": "927da105",
        "approve(address,address,uint256)": "e1f21c67",
        "approveNFT(address,address,uint256)": "7336aaf0",
        "associateToken(address,address)": "49146bde",
        "associateTokens(address,address[])": "2e63879b",
        "burnToken(address,int64,int64[])": "d6910d06",
        "createFungibleToken((string,string,address,string,bool,int64,bool,(uint256,(bool,address,bytes,bytes,address))[],(int64,address,int64)),int64,int32)": "0fb65bf3",
        "createFungibleTokenWithCustomFees((string,string,address,string,bool,int64,bool,(uint256,(bool,address,bytes,bytes,address))[],(int64,address,int64)),int64,int32,(int64,address,bool,bool,address)[],(int64,int64,int64,int64,bool,address)[])": "2af0c59a",
        "createNonFungibleToken((string,string,address,string,bool,int64,bool,(uint256,(bool,address,bytes,bytes,address))[],(int64,address,int64)))": "ea83f293",
        "createNonFungibleTokenWithCustomFees((string,string,address,string,bool,int64,bool,(uint256,(bool,address,bytes,bytes,address))[],(int64,address,int64)),(int64,address,bool,bool,address)[],(int64,int64,int64,address,bool,address)[])": "abb54eb5",
        "dissociateToken(address,address)": "099794e8",
        "dissociateTokens(address,address[])": "78b63918",
        "getAccountId(address)": "e0b490f7",
        "getApproved(address,uint256)": "098f2366",
        "getFungibleTokenInfo(address)": "3f28a19b",
        "getNonFungibleTokenInfo(address,int64)": "287e1da8",
        "getTokenCustomFees(address)": "ae7611a0",
        "getTokenDefaultFreezeStatus(address)": "a7daa18d",
        "getTokenDefaultKycStatus(address)": "335e04c1",
        "getTokenExpiryInfo(address)": "d614cdb8",
        "getTokenInfo(address)": "1f69565f",
        "getTokenKey(address,uint256)": "3c4dd32e",
        "getTokenType(address)": "93272baf",
        "isApprovedForAll(address,address,address)": "f49f40db",
        "isToken(address)": "19f37361",
        "mintToken(address,int64,bytes[])": "e0f4059a",
        "setApprovalForAll(address,address,bool)": "367605ca",
        "transferFrom(address,address,address,uint256)": "15dacbea",
        "transferFromNFT(address,address,address,uint256)": "9b23d3d9",
        "transferNFT(address,address,address,int64)": "5cfc9011",
        "transferNFTs(address,address[],address[],int64[])": "2c4ba191",
        "transferToken(address,address,address,int64)": "eca36917",
        "transferTokens(address,address[],int64[])": "82bba493"
    },
    "storageLayout": {
        "storage": [
            {
                "astId": 104,
                "contract": "contracts/HtsSystemContract.sol:HtsSystemContract",
                "label": "tokenType",
                "offset": 0,
                "slot": "0",
                "type": "t_string_storage"
            },
            {
                "astId": 106,
                "contract": "contracts/HtsSystemContract.sol:HtsSystemContract",
                "label": "decimals",
                "offset": 0,
                "slot": "1",
                "type": "t_uint8"
            },
            {
                "astId": 109,
                "contract": "contracts/HtsSystemContract.sol:HtsSystemContract",
                "label": "_tokenInfo",
                "offset": 0,
                "slot": "2",
                "type": "t_struct(TokenInfo)8346_storage"
            }
        ],
        "types": {
            "t_address": {
                "encoding": "inplace",
                "label": "address",
                "numberOfBytes": "20"
            },
            "t_array(t_struct(FixedFee)8388_storage)dyn_storage": {
                "encoding": "dynamic_array",
                "label": "struct IHederaTokenService.FixedFee[]",
                "numberOfBytes": "32",
                "base": "t_struct(FixedFee)8388_storage"
            },
            "t_array(t_struct(FractionalFee)8402_storage)dyn_storage": {
                "encoding": "dynamic_array",
                "label": "struct IHederaTokenService.FractionalFee[]",
                "numberOfBytes": "32",
                "base": "t_struct(FractionalFee)8402_storage"
            },
            "t_array(t_struct(RoyaltyFee)8416_storage)dyn_storage": {
                "encoding": "dynamic_array",
                "label": "struct IHederaTokenService.RoyaltyFee[]",
                "numberOfBytes": "32",
                "base": "t_struct(RoyaltyFee)8416_storage"
            },
            "t_array(t_struct(TokenKey)8287_storage)dyn_storage": {
                "encoding": "dynamic_array",
                "label": "struct IHederaTokenService.TokenKey[]",
                "numberOfBytes": "32",
                "base": "t_struct(TokenKey)8287_storage"
            },
            "t_bool": {
                "encoding": "inplace",
                "label": "bool",
                "numberOfBytes": "1"
            },
            "t_bytes_storage": {
                "encoding": "bytes",
                "label": "bytes",
                "numberOfBytes": "32"
            },
            "t_int64": {
                "encoding": "inplace",
                "label": "int64",
                "numberOfBytes": "8"
            },
            "t_string_storage": {
                "encoding": "bytes",
                "label": "string",
                "numberOfBytes": "32"
            },
            "t_struct(Expiry)8268_storage": {
                "encoding": "inplace",
                "label": "struct IHederaTokenService.Expiry",
                "numberOfBytes": "64",
                "members": [
                    {
                        "astId": 8263,
                        "contract": "contracts/HtsSystemContract.sol:HtsSystemContract",
                        "label": "second",
                        "offset": 0,
                        "slot": "0",
                        "type": "t_int64"
                    },
                    {
                        "astId": 8265,
                        "contract": "contracts/HtsSystemContract.sol:HtsSystemContract",
                        "label": "autoRenewAccount",
                        "offset": 8,
                        "slot": "0",
                        "type": "t_address"
                    },
                    {
                        "astId": 8267,
                        "contract": "contracts/HtsSystemContract.sol:HtsSystemContract",
                        "label": "autoRenewPeriod",
                        "offset": 0,
                        "slot": "1",
                        "type": "t_int64"
                    }
                ]
            },
            "t_struct(FixedFee)8388_storage": {
                "encoding": "inplace",
                "label": "struct IHederaTokenService.FixedFee",
                "numberOfBytes": "64",
                "members": [
                    {
                        "astId": 8379,
                        "contract": "contracts/HtsSystemContract.sol:HtsSystemContract",
                        "label": "amount",
                        "offset": 0,
                        "slot": "0",
                        "type": "t_int64"
                    },
                    {
                        "astId": 8381,
                        "contract": "contracts/HtsSystemContract.sol:HtsSystemContract",
                        "label": "tokenId",
                        "offset": 8,
                        "slot": "0",
                        "type": "t_address"
                    },
                    {
                        "astId": 8383,
                        "contract": "contracts/HtsSystemContract.sol:HtsSystemContract",
                        "label": "useHbarsForPayment",
                        "offset": 28,
                        "slot": "0",
                        "type": "t_bool"
                    },
                    {
                        "astId": 8385,
                        "contract": "contracts/HtsSystemContract.sol:HtsSystemContract",
                        "label": "useCurrentTokenForPayment",
                        "offset": 29,
                        "slot": "0",
                        "type": "t_bool"
                    },
                    {
                        "astId": 8387,
                        "contract": "contracts/HtsSystemContract.sol:HtsSystemContract",
                        "label": "feeCollector",
                        "offset": 0,
                        "slot": "1",
                        "type": "t_address"
                    }
                ]
            },
            "t_struct(FractionalFee)8402_storage": {
                "encoding": "inplace",
                "label": "struct IHederaTokenService.FractionalFee",
                "numberOfBytes": "64",
                "members": [
                    {
                        "astId": 8391,
                        "contract": "contracts/HtsSystemContract.sol:HtsSystemContract",
                        "label": "numerator",
                        "offset": 0,
                        "slot": "0",
                        "type": "t_int64"
                    },
                    {
                        "astId": 8393,
                        "contract": "contracts/HtsSystemContract.sol:HtsSystemContract",
                        "label": "denominator",
                        "offset": 8,
                        "slot": "0",
                        "type": "t_int64"
                    },
                    {
                        "astId": 8395,
                        "contract": "contracts/HtsSystemContract.sol:HtsSystemContract",
                        "label": "minimumAmount",
                        "offset": 16,
                        "slot": "0",
                        "type": "t_int64"
                    },
                    {
                        "astId": 8397,
                        "contract": "contracts/HtsSystemContract.sol:HtsSystemContract",
                        "label": "maximumAmount",
                        "offset": 24,
                        "slot": "0",
                        "type": "t_int64"
                    },
                    {
                        "astId": 8399,
                        "contract": "contracts/HtsSystemContract.sol:HtsSystemContract",
                        "label": "netOfTransfers",
                        "offset": 0,
                        "slot": "1",
                        "type": "t_bool"
                    },
                    {
                        "astId": 8401,
                        "contract": "contracts/HtsSystemContract.sol:HtsSystemContract",
                        "label": "feeCollector",
                        "offset": 1,
                        "slot": "1",
                        "type": "t_address"
                    }
                ]
            },
            "t_struct(HederaToken)8310_storage": {
                "encoding": "inplace",
                "label": "struct IHederaTokenService.HederaToken",
                "numberOfBytes": "256",
                "members": [
                    {
                        "astId": 8290,
                        "contract": "contracts/HtsSystemContract.sol:HtsSystemContract",
                        "label": "name",
                        "offset": 0,
                        "slot": "0",
                        "type": "t_string_storage"
                    },
                    {
                        "astId": 8292,
                        "contract": "contracts/HtsSystemContract.sol:HtsSystemContract",
                        "label": "symbol",
                        "offset": 0,
                        "slot": "1",
                        "type": "t_string_storage"
                    },
                    {
                        "astId": 8294,
                        "contract": "contracts/HtsSystemContract.sol:HtsSystemContract",
                        "label": "treasury",
                        "offset": 0,
                        "slot": "2",
                        "type": "t_address"
                    },
                    {
                        "astId": 8296,
                        "contract": "contracts/HtsSystemContract.sol:HtsSystemContract",
                        "label": "memo",
                        "offset": 0,
                        "slot": "3",
                        "type": "t_string_storage"
                    },
                    {
                        "astId": 8298,
                        "contract": "contracts/HtsSystemContract.sol:HtsSystemContract",
                        "label": "tokenSupplyType",
                        "offset": 0,
                        "slot": "4",
                        "type": "t_bool"
                    },
                    {
                        "astId": 8300,
                        "contract": "contracts/HtsSystemContract.sol:HtsSystemContract",
                        "label": "maxSupply",
                        "offset": 1,
                        "slot": "4",
                        "type": "t_int64"
                    },
                    {
                        "astId": 8302,
                        "contract": "contracts/HtsSystemContract.sol:HtsSystemContract",
                        "label": "freezeDefault",
                        "offset": 9,
                        "slot": "4",
                        "type": "t_bool"
                    },
                    {
                        "astId": 8306,
                        "contract": "contracts/HtsSystemContract.sol:HtsSystemContract",
                        "label": "tokenKeys",
                        "offset": 0,
                        "slot": "5",
                        "type": "t_array(t_struct(TokenKey)8287_storage)dyn_storage"
                    },
                    {
                        "astId": 8309,
                        "contract": "contracts/HtsSystemContract.sol:HtsSystemContract",
                        "label": "expiry",
                        "offset": 0,
                        "slot": "6",
                        "type": "t_struct(Expiry)8268_storage"
                    }
                ]
            },
            "t_struct(KeyValue)8280_storage": {
                "encoding": "inplace",
                "label": "struct IHederaTokenService.KeyValue",
                "numberOfBytes": "128",
                "members": [
                    {
                        "astId": 8271,
                        "contract": "contracts/HtsSystemContract.sol:HtsSystemContract",
                        "label": "inheritAccountKey",
                        "offset": 0,
                        "slot": "0",
                        "type": "t_bool"
                    },
                    {
                        "astId": 8273,
                        "contract": "contracts/HtsSystemContract.sol:HtsSystemContract",
                        "label": "contractId",
                        "offset": 1,
                        "slot": "0",
                        "type": "t_address"
                    },
                    {
                        "astId": 8275,
                        "contract": "contracts/HtsSystemContract.sol:HtsSystemContract",
                        "label": "ed25519",
                        "offset": 0,
                        "slot": "1",
                        "type": "t_bytes_storage"
                    },
                    {
                        "astId": 8277,
                        "contract": "contracts/HtsSystemContract.sol:HtsSystemContract",
                        "label": "ECDSA_secp256k1",
                        "offset": 0,
                        "slot": "2",
                        "type": "t_bytes_storage"
                    },
                    {
                        "astId": 8279,
                        "contract": "contracts/HtsSystemContract.sol:HtsSystemContract",
                        "label": "delegatableContractId",
                        "offset": 0,
                        "slot": "3",
                        "type": "t_address"
                    }
                ]
            },
            "t_struct(RoyaltyFee)8416_storage": {
                "encoding": "inplace",
                "label": "struct IHederaTokenService.RoyaltyFee",
                "numberOfBytes": "96",
                "members": [
                    {
                        "astId": 8405,
                        "contract": "contracts/HtsSystemContract.sol:HtsSystemContract",
                        "label": "numerator",
                        "offset": 0,
                        "slot": "0",
                        "type": "t_int64"
                    },
                    {
                        "astId": 8407,
                        "contract": "contracts/HtsSystemContract.sol:HtsSystemContract",
                        "label": "denominator",
                        "offset": 8,
                        "slot": "0",
                        "type": "t_int64"
                    },
                    {
                        "astId": 8409,
                        "contract": "contracts/HtsSystemContract.sol:HtsSystemContract",
                        "label": "amount",
                        "offset": 16,
                        "slot": "0",
                        "type": "t_int64"
                    },
                    {
                        "astId": 8411,
                        "contract": "contracts/HtsSystemContract.sol:HtsSystemContract",
                        "label": "tokenId",
                        "offset": 0,
                        "slot": "1",
                        "type": "t_address"
                    },
                    {
                        "astId": 8413,
                        "contract": "contracts/HtsSystemContract.sol:HtsSystemContract",
                        "label": "useHbarsForPayment",
                        "offset": 20,
                        "slot": "1",
                        "type": "t_bool"
                    },
                    {
                        "astId": 8415,
                        "contract": "contracts/HtsSystemContract.sol:HtsSystemContract",
                        "label": "feeCollector",
                        "offset": 0,
                        "slot": "2",
                        "type": "t_address"
                    }
                ]
            },
            "t_struct(TokenInfo)8346_storage": {
                "encoding": "inplace",
                "label": "struct IHederaTokenService.TokenInfo",
                "numberOfBytes": "416",
                "members": [
                    {
                        "astId": 8315,
                        "contract": "contracts/HtsSystemContract.sol:HtsSystemContract",
                        "label": "token",
                        "offset": 0,
                        "slot": "0",
                        "type": "t_struct(HederaToken)8310_storage"
                    },
                    {
                        "astId": 8318,
                        "contract": "contracts/HtsSystemContract.sol:HtsSystemContract",
                        "label": "totalSupply",
                        "offset": 0,
                        "slot": "8",
                        "type": "t_int64"
                    },
                    {
                        "astId": 8321,
                        "contract": "contracts/HtsSystemContract.sol:HtsSystemContract",
                        "label": "deleted",
                        "offset": 8,
                        "slot": "8",
                        "type": "t_bool"
                    },
                    {
                        "astId": 8324,
                        "contract": "contracts/HtsSystemContract.sol:HtsSystemContract",
                        "label": "defaultKycStatus",
                        "offset": 9,
                        "slot": "8",
                        "type": "t_bool"
                    },
                    {
                        "astId": 8327,
                        "contract": "contracts/HtsSystemContract.sol:HtsSystemContract",
                        "label": "pauseStatus",
                        "offset": 10,
                        "slot": "8",
                        "type": "t_bool"
                    },
                    {
                        "astId": 8332,
                        "contract": "contracts/HtsSystemContract.sol:HtsSystemContract",
                        "label": "fixedFees",
                        "offset": 0,
                        "slot": "9",
                        "type": "t_array(t_struct(FixedFee)8388_storage)dyn_storage"
                    },
                    {
                        "astId": 8337,
                        "contract": "contracts/HtsSystemContract.sol:HtsSystemContract",
                        "label": "fractionalFees",
                        "offset": 0,
                        "slot": "10",
                        "type": "t_array(t_struct(FractionalFee)8402_storage)dyn_storage"
                    },
                    {
                        "astId": 8342,
                        "contract": "contracts/HtsSystemContract.sol:HtsSystemContract",
                        "label": "royaltyFees",
                        "offset": 0,
                        "slot": "11",
                        "type": "t_array(t_struct(RoyaltyFee)8416_storage)dyn_storage"
                    },
                    {
                        "astId": 8345,
                        "contract": "contracts/HtsSystemContract.sol:HtsSystemContract",
                        "label": "ledgerId",
                        "offset": 0,
                        "slot": "12",
                        "type": "t_string_storage"
                    }
                ]
            },
            "t_struct(TokenKey)8287_storage": {
                "encoding": "inplace",
                "label": "struct IHederaTokenService.TokenKey",
                "numberOfBytes": "160",
                "members": [
                    {
                        "astId": 8283,
                        "contract": "contracts/HtsSystemContract.sol:HtsSystemContract",
                        "label": "keyType",
                        "offset": 0,
                        "slot": "0",
                        "type": "t_uint256"
                    },
                    {
                        "astId": 8286,
                        "contract": "contracts/HtsSystemContract.sol:HtsSystemContract",
                        "label": "key",
                        "offset": 0,
                        "slot": "1",
                        "type": "t_struct(KeyValue)8280_storage"
                    }
                ]
            },
            "t_uint256": {
                "encoding": "inplace",
                "label": "uint256",
                "numberOfBytes": "32"
            },
            "t_uint8": {
                "encoding": "inplace",
                "label": "uint8",
                "numberOfBytes": "1"
            }
        }
    },
    "userdoc": {
        "version": 1,
        "kind": "user",
        "methods": {
            "allowance(address,address,address)": {
                "notice": "Returns the amount which spender is still allowed to withdraw from owner. Only Applicable to Fungible Tokens"
            },
            "approve(address,address,uint256)": {
                "notice": "Allows spender to withdraw from your account multiple times, up to the value amount. If this function is called again it overwrites the current allowance with value. Only Applicable to Fungible Tokens"
            },
            "approveNFT(address,address,uint256)": {
                "notice": "Allow or reaffirm the approved address to transfer an NFT the approved address does not own. Only Applicable to NFT Tokens"
            },
            "associateToken(address,address)": {
                "notice": "Single-token variant of associateTokens. Will be mapped to a single entry array call of associateTokens"
            },
            "associateTokens(address,address[])": {
                "notice": "Associates the provided account with the provided tokens. Must be signed by the provided  Account's key or called from the accounts contract key  If the provided account is not found, the transaction will resolve to INVALID_ACCOUNT_ID.  If the provided account has been deleted, the transaction will resolve to ACCOUNT_DELETED.  If any of the provided tokens is not found, the transaction will resolve to INVALID_TOKEN_REF.  If any of the provided tokens has been deleted, the transaction will resolve to TOKEN_WAS_DELETED.  If an association between the provided account and any of the tokens already exists, the  transaction will resolve to TOKEN_ALREADY_ASSOCIATED_TO_ACCOUNT.  If the provided account's associations count exceed the constraint of maximum token associations    per account, the transaction will resolve to TOKENS_PER_ACCOUNT_LIMIT_EXCEEDED.  On success, associations between the provided account and tokens are made and the account is    ready to interact with the tokens."
            },
            "createNonFungibleToken((string,string,address,string,bool,int64,bool,(uint256,(bool,address,bytes,bytes,address))[],(int64,address,int64)))": {
                "notice": "Creates an Non Fungible Unique Token with the specified properties"
            },
            "createNonFungibleTokenWithCustomFees((string,string,address,string,bool,int64,bool,(uint256,(bool,address,bytes,bytes,address))[],(int64,address,int64)),(int64,address,bool,bool,address)[],(int64,int64,int64,address,bool,address)[])": {
                "notice": "Creates an Non Fungible Unique Token with the specified properties"
            },
            "dissociateToken(address,address)": {
                "notice": "Single-token variant of dissociateTokens. Will be mapped to a single entry array call of dissociateTokens"
            },
            "dissociateTokens(address,address[])": {
                "notice": "Dissociates the provided account with the provided tokens. Must be signed by the provided Account's key. If the provided account is not found, the transaction will resolve to INVALID_ACCOUNT_ID. If the provided account has been deleted, the transaction will resolve to ACCOUNT_DELETED. If any of the provided tokens is not found, the transaction will resolve to INVALID_TOKEN_REF. If any of the provided tokens has been deleted, the transaction will resolve to TOKEN_WAS_DELETED. If an association between the provided account and any of the tokens does not exist, the transaction will resolve to TOKEN_NOT_ASSOCIATED_TO_ACCOUNT. If a token has not been deleted and has not expired, and the user has a nonzero balance, the transaction will resolve to TRANSACTION_REQUIRES_ZERO_TOKEN_BALANCES. If a <b>fungible token</b> has expired, the user can disassociate even if their token balance is not zero. If a <b>non fungible token</b> has expired, the user can <b>not</b> disassociate if their token balance is not zero. The transaction will resolve to TRANSACTION_REQUIRED_ZERO_TOKEN_BALANCES. On success, associations between the provided account and tokens are removed."
            },
            "getApproved(address,uint256)": {
                "notice": "Get the approved address for a single NFT Only Applicable to NFT Tokens"
            },
            "getFungibleTokenInfo(address)": {
                "notice": "Query fungible token info"
            },
            "getNonFungibleTokenInfo(address,int64)": {
                "notice": "Query non fungible token info"
            },
            "getTokenCustomFees(address)": {
                "notice": "Query token custom fees"
            },
            "getTokenDefaultFreezeStatus(address)": {
                "notice": "Query token default freeze status"
            },
            "getTokenDefaultKycStatus(address)": {
                "notice": "Query token default kyc status"
            },
            "getTokenExpiryInfo(address)": {
                "notice": "Query token expiry info"
            },
            "getTokenInfo(address)": {
                "notice": "Query token info"
            },
            "getTokenKey(address,uint256)": {
                "notice": "Query token KeyValue"
            },
            "getTokenType(address)": {
                "notice": "Query to return the token type for a given address"
            },
            "isApprovedForAll(address,address,address)": {
                "notice": "Query if an address is an authorized operator for another address Only Applicable to NFT Tokens"
            },
            "isToken(address)": {
                "notice": "Query if valid token found for the given address"
            },
            "setApprovalForAll(address,address,bool)": {
                "notice": "Enable or disable approval for a third party (\"operator\") to manage  all of `msg.sender`'s assets"
            },
            "transferFromNFT(address,address,address,uint256)": {
                "notice": "Transfers `serialNumber` of `token` from `from` to `to` using the allowance mechanism. Only applicable to NFT tokens"
            },
            "transferNFT(address,address,address,int64)": {
                "notice": "Transfers tokens where the calling account/contract is implicitly the first entry in the token transfer list, where the amount is the value needed to zero balance the transfers. Regular signing rules apply for sending (positive amount) or receiving (negative amount)"
            },
            "transferNFTs(address,address[],address[],int64[])": {
                "notice": "Initiates a Non-Fungable Token Transfer"
            },
            "transferToken(address,address,address,int64)": {
                "notice": "Transfers tokens where the calling account/contract is implicitly the first entry in the token transfer list, where the amount is the value needed to zero balance the transfers. Regular signing rules apply for sending (positive amount) or receiving (negative amount)"
            },
            "transferTokens(address,address[],int64[])": {
                "notice": "Initiates a Fungible Token Transfer"
            }
        }
    },
    "devdoc": {
        "version": 1,
        "kind": "dev",
        "methods": {
            "allowance(address,address,address)": {
                "params": {
                    "owner": "the owner of the tokens to be spent",
                    "spender": "the spender of the tokens",
                    "token": "The Hedera token address to check the allowance of"
                },
                "returns": {
                    "_0": "The response code for the status of the request. SUCCESS is 22.",
                    "_1": "The amount which spender is still allowed to withdraw from owner."
                }
            },
            "approve(address,address,uint256)": {
                "params": {
                    "amount": "the amount of tokens authorized to spend.",
                    "spender": "the account address authorized to spend",
                    "token": "The hedera token address to approve"
                },
                "returns": {
                    "responseCode": "The response code for the status of the request. SUCCESS is 22."
                }
            },
            "approveNFT(address,address,uint256)": {
                "params": {
                    "approved": "The new approved NFT controller.  To revoke approvals pass in the zero address.",
                    "serialNumber": "The NFT serial number  to approve",
                    "token": "The Hedera NFT token address to approve"
                },
                "returns": {
                    "responseCode": "The response code for the status of the request. SUCCESS is 22."
                }
            },
            "associateToken(address,address)": {
                "params": {
                    "account": "The account to be associated with the provided token",
                    "token": "The token to be associated with the provided account"
                }
            },
            "associateTokens(address,address[])": {
                "params": {
                    "account": "The account to be associated with the provided tokens",
                    "tokens": "The tokens to be associated with the provided account. In the case of NON_FUNGIBLE_UNIQUE               Type, once an account is associated, it can hold any number of NFTs (serial numbers) of that               token type"
                },
                "returns": {
                    "responseCode": "The response code for the status of the request. SUCCESS is 22."
                }
            },
            "createNonFungibleToken((string,string,address,string,bool,int64,bool,(uint256,(bool,address,bytes,bytes,address))[],(int64,address,int64)))": {
                "params": {
                    "token": "the basic properties of the token being created"
                },
                "returns": {
                    "responseCode": "The response code for the status of the request. SUCCESS is 22.",
                    "tokenAddress": "the created token's address"
                }
            },
            "createNonFungibleTokenWithCustomFees((string,string,address,string,bool,int64,bool,(uint256,(bool,address,bytes,bytes,address))[],(int64,address,int64)),(int64,address,bool,bool,address)[],(int64,int64,int64,address,bool,address)[])": {
                "params": {
                    "fixedFees": "list of fixed fees to apply to the token",
                    "royaltyFees": "list of royalty fees to apply to the token",
                    "token": "the basic properties of the token being created"
                },
                "returns": {
                    "responseCode": "The response code for the status of the request. SUCCESS is 22.",
                    "tokenAddress": "the created token's address"
                }
            },
            "dissociateToken(address,address)": {
                "params": {
                    "account": "The account to be associated with the provided token",
                    "token": "The token to be associated with the provided account"
                }
            },
            "dissociateTokens(address,address[])": {
                "params": {
                    "account": "The account to be dissociated from the provided tokens",
                    "tokens": "The tokens to be dissociated from the provided account."
                },
                "returns": {
                    "responseCode": "The response code for the status of the request. SUCCESS is 22."
                }
            },
            "getAccountId(address)": {
                "details": "Returns the Account ID and a flag indicating whether the account exists on the forked network (if any). - `accountId` a `uint32` representing the Account ID (excluding both shard and realm numbers) for the given `address`.   The storage adapter, _i.e._, `getHtsStorageAt`, assumes that both shard and realm   numbers are zero, allowing them to be omitted from the Account ID. - `exists` a boolean flag indicating whether the account exists on the forked network. See https://docs.hedera.com/hedera/core-concepts/accounts/account-properties for more info on account properties."
            },
            "getApproved(address,uint256)": {
                "params": {
                    "serialNumber": "The NFT to find the approved address for",
                    "token": "The Hedera NFT token address to check approval"
                },
                "returns": {
                    "approved": "The approved address for this NFT, or the zero address if there is none",
                    "responseCode": "The response code for the status of the request. SUCCESS is 22."
                }
            },
            "getFungibleTokenInfo(address)": {
                "params": {
                    "token": "The token address to check"
                },
                "returns": {
                    "_0": "The response code for the status of the request. SUCCESS is 22.",
                    "_1": "FungibleTokenInfo info for `token`"
                }
            },
            "getNonFungibleTokenInfo(address,int64)": {
                "params": {
                    "serialNumber": "The NFT serialNumber to check",
                    "token": "The token address to check"
                },
                "returns": {
                    "_0": "The response code for the status of the request. SUCCESS is 22.",
                    "_1": "NonFungibleTokenInfo info for `token` `serialNumber`"
                }
            },
            "getTokenCustomFees(address)": {
                "params": {
                    "token": "The token address to check"
                },
                "returns": {
                    "_0": "The response code for the status of the request. SUCCESS is 22.",
                    "_1": "Set of fixed fees for `token`",
                    "_2": "Set of fractional fees for `token`",
                    "_3": "Set of royalty fees for `token`"
                }
            },
            "getTokenDefaultFreezeStatus(address)": {
                "params": {
                    "token": "The token address to check"
                },
                "returns": {
                    "_0": "The response code for the status of the request. SUCCESS is 22.",
                    "_1": "True if `token` default freeze status is frozen."
                }
            },
            "getTokenDefaultKycStatus(address)": {
                "params": {
                    "token": "The token address to check"
                },
                "returns": {
                    "_0": "The response code for the status of the request. SUCCESS is 22.",
                    "_1": "True if `token` default kyc status is KycNotApplicable and false if Revoked."
                }
            },
            "getTokenExpiryInfo(address)": {
                "params": {
                    "token": "The token address to check"
                },
                "returns": {
                    "_0": "The response code for the status of the request. SUCCESS is 22.",
                    "expiry": "Expiry info for `token`"
                }
            },
            "getTokenInfo(address)": {
                "params": {
                    "token": "The token address to check"
                },
                "returns": {
                    "_0": "The response code for the status of the request. SUCCESS is 22.",
                    "_1": "TokenInfo info for `token`"
                }
            },
            "getTokenKey(address,uint256)": {
                "params": {
                    "keyType": "The keyType of the desired KeyValue",
                    "token": "The token address to check"
                },
                "returns": {
                    "_0": "The response code for the status of the request. SUCCESS is 22.",
                    "_1": "KeyValue info for key of type `keyType`"
                }
            },
            "getTokenType(address)": {
                "params": {
                    "token": "The token address"
                },
                "returns": {
                    "_0": "The response code for the status of the request. SUCCESS is 22.",
                    "_1": "the token type. 0 is FUNGIBLE_COMMON, 1 is NON_FUNGIBLE_UNIQUE, -1 is UNRECOGNIZED"
                }
            },
            "isApprovedForAll(address,address,address)": {
                "params": {
                    "operator": "The address that acts on behalf of the owner",
                    "owner": "The address that owns the NFTs",
                    "token": "The Hedera NFT token address to approve"
                },
                "returns": {
                    "_0": "The response code for the status of the request. SUCCESS is 22.",
                    "_1": "True if `operator` is an approved operator for `owner`, false otherwise"
                }
            },
            "isToken(address)": {
                "params": {
                    "token": "The token address"
                },
                "returns": {
                    "_0": "The response code for the status of the request. SUCCESS is 22.",
                    "_1": "True if valid token found for the given address"
                }
            },
            "setApprovalForAll(address,address,bool)": {
                "params": {
                    "approved": "True if the operator is approved, false to revoke approval",
                    "operator": "Address to add to the set of authorized operators",
                    "token": "The Hedera NFT token address to approve"
                },
                "returns": {
                    "responseCode": "The response code for the status of the request. SUCCESS is 22."
                }
            },
            "transferFromNFT(address,address,address,uint256)": {
                "params": {
                    "from": "The account address of the owner of `serialNumber` of `token`",
                    "serialNumber": "The NFT serial number to transfer",
                    "to": "The account address of the receiver of `serialNumber`",
                    "token": "The address of the non-fungible Hedera token to transfer"
                },
                "returns": {
                    "_0": "The response code for the status of the request. SUCCESS is 22."
                }
            },
            "transferNFT(address,address,address,int64)": {
                "params": {
                    "recipient": "The receiver of the transaction",
                    "sender": "The sender for the transaction",
                    "serialNumber": "The serial number of the NFT to transfer.",
                    "token": "The token to transfer to/from"
                }
            },
            "transferNFTs(address,address[],address[],int64[])": {
                "params": {
                    "receiver": "the receiver of the nft sent by the same index at sender",
                    "sender": "the sender of an nft",
                    "serialNumber": "the serial number of the nft sent by the same index at sender",
                    "token": "The ID of the token as a solidity address"
                }
            },
            "transferToken(address,address,address,int64)": {
                "params": {
                    "amount": "Non-negative value to send. a negative value will result in a failure.",
                    "recipient": "The receiver of the transaction",
                    "sender": "The sender for the transaction",
                    "token": "The token to transfer to/from"
                }
            },
            "transferTokens(address,address[],int64[])": {
                "params": {
                    "accountId": "account to do a transfer to/from",
                    "amount": "The amount from the accountId at the same index",
                    "token": "The ID of the token as a solidity address"
                }
            }
        },
        "events": {
            "ApprovalForAll(address,address,bool)": {
                "details": "Emitted when an operator {operator} is enabled or disabled {approved} for an owner {owner}. The operator {operator} can than manage all NFTs of the owner {owner}. This event should be emitted by the `setApprovalForAll` method. See https://ethereum.org/en/developers/docs/standards/tokens/erc-721/#events for more information."
            }
        }
    },
    "id": 2
}