{
    "abi": [
        {
            "type": "fallback",
            "stateMutability": "nonpayable"
        },
        {
            "type": "function",
            "name": "_update",
            "inputs": [
                {
                    "name": "from",
                    "type": "address",
                    "internalType": "address"
                },
                {
                    "name": "to",
                    "type": "address",
                    "internalType": "address"
                },
                {
                    "name": "amount",
                    "type": "uint256",
                    "internalType": "uint256"
                }
            ],
            "outputs": [],
            "stateMutability": "nonpayable"
        },
        {
            "type": "function",
            "name": "associateToken",
            "inputs": [
                {
                    "name": "account",
                    "type": "address",
                    "internalType": "address"
                },
                {
                    "name": "token",
                    "type": "address",
                    "internalType": "address"
                }
            ],
            "outputs": [
                {
                    "name": "responseCode",
                    "type": "int64",
                    "internalType": "int64"
                }
            ],
            "stateMutability": "nonpayable"
        },
        {
            "type": "function",
            "name": "associateTokens",
            "inputs": [
                {
                    "name": "account",
                    "type": "address",
                    "internalType": "address"
                },
                {
                    "name": "tokens",
                    "type": "address[]",
                    "internalType": "address[]"
                }
            ],
            "outputs": [
                {
                    "name": "responseCode",
                    "type": "int64",
                    "internalType": "int64"
                }
            ],
            "stateMutability": "nonpayable"
        },
        {
            "type": "function",
            "name": "burnToken",
            "inputs": [
                {
                    "name": "token",
                    "type": "address",
                    "internalType": "address"
                },
                {
                    "name": "amount",
                    "type": "int64",
                    "internalType": "int64"
                },
                {
                    "name": "",
                    "type": "int64[]",
                    "internalType": "int64[]"
                }
            ],
            "outputs": [
                {
                    "name": "responseCode",
                    "type": "int64",
                    "internalType": "int64"
                },
                {
                    "name": "newTotalSupply",
                    "type": "int64",
                    "internalType": "int64"
                }
            ],
            "stateMutability": "nonpayable"
        },
        {
            "type": "function",
            "name": "dissociateToken",
            "inputs": [
                {
                    "name": "account",
                    "type": "address",
                    "internalType": "address"
                },
                {
                    "name": "token",
                    "type": "address",
                    "internalType": "address"
                }
            ],
            "outputs": [
                {
                    "name": "responseCode",
                    "type": "int64",
                    "internalType": "int64"
                }
            ],
            "stateMutability": "nonpayable"
        },
        {
            "type": "function",
            "name": "dissociateTokens",
            "inputs": [
                {
                    "name": "account",
                    "type": "address",
                    "internalType": "address"
                },
                {
                    "name": "tokens",
                    "type": "address[]",
                    "internalType": "address[]"
                }
            ],
            "outputs": [
                {
                    "name": "responseCode",
                    "type": "int64",
                    "internalType": "int64"
                }
            ],
            "stateMutability": "nonpayable"
        },
        {
            "type": "function",
            "name": "getAccountId",
            "inputs": [
                {
                    "name": "account",
                    "type": "address",
                    "internalType": "address"
                }
            ],
            "outputs": [
                {
                    "name": "accountId",
                    "type": "uint32",
                    "internalType": "uint32"
                }
            ],
            "stateMutability": "view"
        },
        {
            "type": "function",
            "name": "getApproved",
            "inputs": [
                {
                    "name": "token",
                    "type": "address",
                    "internalType": "address"
                },
                {
                    "name": "serialNumber",
                    "type": "uint256",
                    "internalType": "uint256"
                }
            ],
            "outputs": [
                {
                    "name": "responseCode",
                    "type": "int64",
                    "internalType": "int64"
                },
                {
                    "name": "approved",
                    "type": "address",
                    "internalType": "address"
                }
            ],
            "stateMutability": "view"
        },
        {
            "type": "function",
            "name": "getFungibleTokenInfo",
            "inputs": [
                {
                    "name": "token",
                    "type": "address",
                    "internalType": "address"
                }
            ],
            "outputs": [
                {
                    "name": "",
                    "type": "int64",
                    "internalType": "int64"
                },
                {
                    "name": "",
                    "type": "tuple",
                    "internalType": "struct IHederaTokenService.FungibleTokenInfo",
                    "components": [
                        {
                            "name": "tokenInfo",
                            "type": "tuple",
                            "internalType": "struct IHederaTokenService.TokenInfo",
                            "components": [
                                {
                                    "name": "token",
                                    "type": "tuple",
                                    "internalType": "struct IHederaTokenService.HederaToken",
                                    "components": [
                                        {
                                            "name": "name",
                                            "type": "string",
                                            "internalType": "string"
                                        },
                                        {
                                            "name": "symbol",
                                            "type": "string",
                                            "internalType": "string"
                                        },
                                        {
                                            "name": "treasury",
                                            "type": "address",
                                            "internalType": "address"
                                        },
                                        {
                                            "name": "memo",
                                            "type": "string",
                                            "internalType": "string"
                                        },
                                        {
                                            "name": "tokenSupplyType",
                                            "type": "bool",
                                            "internalType": "bool"
                                        },
                                        {
                                            "name": "maxSupply",
                                            "type": "int64",
                                            "internalType": "int64"
                                        },
                                        {
                                            "name": "freezeDefault",
                                            "type": "bool",
                                            "internalType": "bool"
                                        },
                                        {
                                            "name": "tokenKeys",
                                            "type": "tuple[]",
                                            "internalType": "struct IHederaTokenService.TokenKey[]",
                                            "components": [
                                                {
                                                    "name": "keyType",
                                                    "type": "uint256",
                                                    "internalType": "uint256"
                                                },
                                                {
                                                    "name": "key",
                                                    "type": "tuple",
                                                    "internalType": "struct IHederaTokenService.KeyValue",
                                                    "components": [
                                                        {
                                                            "name": "inheritAccountKey",
                                                            "type": "bool",
                                                            "internalType": "bool"
                                                        },
                                                        {
                                                            "name": "contractId",
                                                            "type": "address",
                                                            "internalType": "address"
                                                        },
                                                        {
                                                            "name": "ed25519",
                                                            "type": "bytes",
                                                            "internalType": "bytes"
                                                        },
                                                        {
                                                            "name": "ECDSA_secp256k1",
                                                            "type": "bytes",
                                                            "internalType": "bytes"
                                                        },
                                                        {
                                                            "name": "delegatableContractId",
                                                            "type": "address",
                                                            "internalType": "address"
                                                        }
                                                    ]
                                                }
                                            ]
                                        },
                                        {
                                            "name": "expiry",
                                            "type": "tuple",
                                            "internalType": "struct IHederaTokenService.Expiry",
                                            "components": [
                                                {
                                                    "name": "second",
                                                    "type": "int64",
                                                    "internalType": "int64"
                                                },
                                                {
                                                    "name": "autoRenewAccount",
                                                    "type": "address",
                                                    "internalType": "address"
                                                },
                                                {
                                                    "name": "autoRenewPeriod",
                                                    "type": "int64",
                                                    "internalType": "int64"
                                                }
                                            ]
                                        }
                                    ]
                                },
                                {
                                    "name": "totalSupply",
                                    "type": "int64",
                                    "internalType": "int64"
                                },
                                {
                                    "name": "deleted",
                                    "type": "bool",
                                    "internalType": "bool"
                                },
                                {
                                    "name": "defaultKycStatus",
                                    "type": "bool",
                                    "internalType": "bool"
                                },
                                {
                                    "name": "pauseStatus",
                                    "type": "bool",
                                    "internalType": "bool"
                                },
                                {
                                    "name": "fixedFees",
                                    "type": "tuple[]",
                                    "internalType": "struct IHederaTokenService.FixedFee[]",
                                    "components": [
                                        {
                                            "name": "amount",
                                            "type": "int64",
                                            "internalType": "int64"
                                        },
                                        {
                                            "name": "tokenId",
                                            "type": "address",
                                            "internalType": "address"
                                        },
                                        {
                                            "name": "useHbarsForPayment",
                                            "type": "bool",
                                            "internalType": "bool"
                                        },
                                        {
                                            "name": "useCurrentTokenForPayment",
                                            "type": "bool",
                                            "internalType": "bool"
                                        },
                                        {
                                            "name": "feeCollector",
                                            "type": "address",
                                            "internalType": "address"
                                        }
                                    ]
                                },
                                {
                                    "name": "fractionalFees",
                                    "type": "tuple[]",
                                    "internalType": "struct IHederaTokenService.FractionalFee[]",
                                    "components": [
                                        {
                                            "name": "numerator",
                                            "type": "int64",
                                            "internalType": "int64"
                                        },
                                        {
                                            "name": "denominator",
                                            "type": "int64",
                                            "internalType": "int64"
                                        },
                                        {
                                            "name": "minimumAmount",
                                            "type": "int64",
                                            "internalType": "int64"
                                        },
                                        {
                                            "name": "maximumAmount",
                                            "type": "int64",
                                            "internalType": "int64"
                                        },
                                        {
                                            "name": "netOfTransfers",
                                            "type": "bool",
                                            "internalType": "bool"
                                        },
                                        {
                                            "name": "feeCollector",
                                            "type": "address",
                                            "internalType": "address"
                                        }
                                    ]
                                },
                                {
                                    "name": "royaltyFees",
                                    "type": "tuple[]",
                                    "internalType": "struct IHederaTokenService.RoyaltyFee[]",
                                    "components": [
                                        {
                                            "name": "numerator",
                                            "type": "int64",
                                            "internalType": "int64"
                                        },
                                        {
                                            "name": "denominator",
                                            "type": "int64",
                                            "internalType": "int64"
                                        },
                                        {
                                            "name": "amount",
                                            "type": "int64",
                                            "internalType": "int64"
                                        },
                                        {
                                            "name": "tokenId",
                                            "type": "address",
                                            "internalType": "address"
                                        },
                                        {
                                            "name": "useHbarsForPayment",
                                            "type": "bool",
                                            "internalType": "bool"
                                        },
                                        {
                                            "name": "feeCollector",
                                            "type": "address",
                                            "internalType": "address"
                                        }
                                    ]
                                },
                                {
                                    "name": "ledgerId",
                                    "type": "string",
                                    "internalType": "string"
                                }
                            ]
                        },
                        {
                            "name": "decimals",
                            "type": "int32",
                            "internalType": "int32"
                        }
                    ]
                }
            ],
            "stateMutability": "nonpayable"
        },
        {
            "type": "function",
            "name": "getNonFungibleTokenInfo",
            "inputs": [
                {
                    "name": "token",
                    "type": "address",
                    "internalType": "address"
                },
                {
                    "name": "serialNumber",
                    "type": "int64",
                    "internalType": "int64"
                }
            ],
            "outputs": [
                {
                    "name": "",
                    "type": "int64",
                    "internalType": "int64"
                },
                {
                    "name": "",
                    "type": "tuple",
                    "internalType": "struct IHederaTokenService.NonFungibleTokenInfo",
                    "components": [
                        {
                            "name": "tokenInfo",
                            "type": "tuple",
                            "internalType": "struct IHederaTokenService.TokenInfo",
                            "components": [
                                {
                                    "name": "token",
                                    "type": "tuple",
                                    "internalType": "struct IHederaTokenService.HederaToken",
                                    "components": [
                                        {
                                            "name": "name",
                                            "type": "string",
                                            "internalType": "string"
                                        },
                                        {
                                            "name": "symbol",
                                            "type": "string",
                                            "internalType": "string"
                                        },
                                        {
                                            "name": "treasury",
                                            "type": "address",
                                            "internalType": "address"
                                        },
                                        {
                                            "name": "memo",
                                            "type": "string",
                                            "internalType": "string"
                                        },
                                        {
                                            "name": "tokenSupplyType",
                                            "type": "bool",
                                            "internalType": "bool"
                                        },
                                        {
                                            "name": "maxSupply",
                                            "type": "int64",
                                            "internalType": "int64"
                                        },
                                        {
                                            "name": "freezeDefault",
                                            "type": "bool",
                                            "internalType": "bool"
                                        },
                                        {
                                            "name": "tokenKeys",
                                            "type": "tuple[]",
                                            "internalType": "struct IHederaTokenService.TokenKey[]",
                                            "components": [
                                                {
                                                    "name": "keyType",
                                                    "type": "uint256",
                                                    "internalType": "uint256"
                                                },
                                                {
                                                    "name": "key",
                                                    "type": "tuple",
                                                    "internalType": "struct IHederaTokenService.KeyValue",
                                                    "components": [
                                                        {
                                                            "name": "inheritAccountKey",
                                                            "type": "bool",
                                                            "internalType": "bool"
                                                        },
                                                        {
                                                            "name": "contractId",
                                                            "type": "address",
                                                            "internalType": "address"
                                                        },
                                                        {
                                                            "name": "ed25519",
                                                            "type": "bytes",
                                                            "internalType": "bytes"
                                                        },
                                                        {
                                                            "name": "ECDSA_secp256k1",
                                                            "type": "bytes",
                                                            "internalType": "bytes"
                                                        },
                                                        {
                                                            "name": "delegatableContractId",
                                                            "type": "address",
                                                            "internalType": "address"
                                                        }
                                                    ]
                                                }
                                            ]
                                        },
                                        {
                                            "name": "expiry",
                                            "type": "tuple",
                                            "internalType": "struct IHederaTokenService.Expiry",
                                            "components": [
                                                {
                                                    "name": "second",
                                                    "type": "int64",
                                                    "internalType": "int64"
                                                },
                                                {
                                                    "name": "autoRenewAccount",
                                                    "type": "address",
                                                    "internalType": "address"
                                                },
                                                {
                                                    "name": "autoRenewPeriod",
                                                    "type": "int64",
                                                    "internalType": "int64"
                                                }
                                            ]
                                        }
                                    ]
                                },
                                {
                                    "name": "totalSupply",
                                    "type": "int64",
                                    "internalType": "int64"
                                },
                                {
                                    "name": "deleted",
                                    "type": "bool",
                                    "internalType": "bool"
                                },
                                {
                                    "name": "defaultKycStatus",
                                    "type": "bool",
                                    "internalType": "bool"
                                },
                                {
                                    "name": "pauseStatus",
                                    "type": "bool",
                                    "internalType": "bool"
                                },
                                {
                                    "name": "fixedFees",
                                    "type": "tuple[]",
                                    "internalType": "struct IHederaTokenService.FixedFee[]",
                                    "components": [
                                        {
                                            "name": "amount",
                                            "type": "int64",
                                            "internalType": "int64"
                                        },
                                        {
                                            "name": "tokenId",
                                            "type": "address",
                                            "internalType": "address"
                                        },
                                        {
                                            "name": "useHbarsForPayment",
                                            "type": "bool",
                                            "internalType": "bool"
                                        },
                                        {
                                            "name": "useCurrentTokenForPayment",
                                            "type": "bool",
                                            "internalType": "bool"
                                        },
                                        {
                                            "name": "feeCollector",
                                            "type": "address",
                                            "internalType": "address"
                                        }
                                    ]
                                },
                                {
                                    "name": "fractionalFees",
                                    "type": "tuple[]",
                                    "internalType": "struct IHederaTokenService.FractionalFee[]",
                                    "components": [
                                        {
                                            "name": "numerator",
                                            "type": "int64",
                                            "internalType": "int64"
                                        },
                                        {
                                            "name": "denominator",
                                            "type": "int64",
                                            "internalType": "int64"
                                        },
                                        {
                                            "name": "minimumAmount",
                                            "type": "int64",
                                            "internalType": "int64"
                                        },
                                        {
                                            "name": "maximumAmount",
                                            "type": "int64",
                                            "internalType": "int64"
                                        },
                                        {
                                            "name": "netOfTransfers",
                                            "type": "bool",
                                            "internalType": "bool"
                                        },
                                        {
                                            "name": "feeCollector",
                                            "type": "address",
                                            "internalType": "address"
                                        }
                                    ]
                                },
                                {
                                    "name": "royaltyFees",
                                    "type": "tuple[]",
                                    "internalType": "struct IHederaTokenService.RoyaltyFee[]",
                                    "components": [
                                        {
                                            "name": "numerator",
                                            "type": "int64",
                                            "internalType": "int64"
                                        },
                                        {
                                            "name": "denominator",
                                            "type": "int64",
                                            "internalType": "int64"
                                        },
                                        {
                                            "name": "amount",
                                            "type": "int64",
                                            "internalType": "int64"
                                        },
                                        {
                                            "name": "tokenId",
                                            "type": "address",
                                            "internalType": "address"
                                        },
                                        {
                                            "name": "useHbarsForPayment",
                                            "type": "bool",
                                            "internalType": "bool"
                                        },
                                        {
                                            "name": "feeCollector",
                                            "type": "address",
                                            "internalType": "address"
                                        }
                                    ]
                                },
                                {
                                    "name": "ledgerId",
                                    "type": "string",
                                    "internalType": "string"
                                }
                            ]
                        },
                        {
                            "name": "serialNumber",
                            "type": "int64",
                            "internalType": "int64"
                        },
                        {
                            "name": "ownerId",
                            "type": "address",
                            "internalType": "address"
                        },
                        {
                            "name": "creationTime",
                            "type": "int64",
                            "internalType": "int64"
                        },
                        {
                            "name": "metadata",
                            "type": "bytes",
                            "internalType": "bytes"
                        },
                        {
                            "name": "spenderId",
                            "type": "address",
                            "internalType": "address"
                        }
                    ]
                }
            ],
            "stateMutability": "nonpayable"
        },
        {
            "type": "function",
            "name": "getTokenCustomFees",
            "inputs": [
                {
                    "name": "token",
                    "type": "address",
                    "internalType": "address"
                }
            ],
            "outputs": [
                {
                    "name": "",
                    "type": "int64",
                    "internalType": "int64"
                },
                {
                    "name": "",
                    "type": "tuple[]",
                    "internalType": "struct IHederaTokenService.FixedFee[]",
                    "components": [
                        {
                            "name": "amount",
                            "type": "int64",
                            "internalType": "int64"
                        },
                        {
                            "name": "tokenId",
                            "type": "address",
                            "internalType": "address"
                        },
                        {
                            "name": "useHbarsForPayment",
                            "type": "bool",
                            "internalType": "bool"
                        },
                        {
                            "name": "useCurrentTokenForPayment",
                            "type": "bool",
                            "internalType": "bool"
                        },
                        {
                            "name": "feeCollector",
                            "type": "address",
                            "internalType": "address"
                        }
                    ]
                },
                {
                    "name": "",
                    "type": "tuple[]",
                    "internalType": "struct IHederaTokenService.FractionalFee[]",
                    "components": [
                        {
                            "name": "numerator",
                            "type": "int64",
                            "internalType": "int64"
                        },
                        {
                            "name": "denominator",
                            "type": "int64",
                            "internalType": "int64"
                        },
                        {
                            "name": "minimumAmount",
                            "type": "int64",
                            "internalType": "int64"
                        },
                        {
                            "name": "maximumAmount",
                            "type": "int64",
                            "internalType": "int64"
                        },
                        {
                            "name": "netOfTransfers",
                            "type": "bool",
                            "internalType": "bool"
                        },
                        {
                            "name": "feeCollector",
                            "type": "address",
                            "internalType": "address"
                        }
                    ]
                },
                {
                    "name": "",
                    "type": "tuple[]",
                    "internalType": "struct IHederaTokenService.RoyaltyFee[]",
                    "components": [
                        {
                            "name": "numerator",
                            "type": "int64",
                            "internalType": "int64"
                        },
                        {
                            "name": "denominator",
                            "type": "int64",
                            "internalType": "int64"
                        },
                        {
                            "name": "amount",
                            "type": "int64",
                            "internalType": "int64"
                        },
                        {
                            "name": "tokenId",
                            "type": "address",
                            "internalType": "address"
                        },
                        {
                            "name": "useHbarsForPayment",
                            "type": "bool",
                            "internalType": "bool"
                        },
                        {
                            "name": "feeCollector",
                            "type": "address",
                            "internalType": "address"
                        }
                    ]
                }
            ],
            "stateMutability": "nonpayable"
        },
        {
            "type": "function",
            "name": "getTokenDefaultFreezeStatus",
            "inputs": [
                {
                    "name": "token",
                    "type": "address",
                    "internalType": "address"
                }
            ],
            "outputs": [
                {
                    "name": "",
                    "type": "int64",
                    "internalType": "int64"
                },
                {
                    "name": "",
                    "type": "bool",
                    "internalType": "bool"
                }
            ],
            "stateMutability": "nonpayable"
        },
        {
            "type": "function",
            "name": "getTokenDefaultKycStatus",
            "inputs": [
                {
                    "name": "token",
                    "type": "address",
                    "internalType": "address"
                }
            ],
            "outputs": [
                {
                    "name": "",
                    "type": "int64",
                    "internalType": "int64"
                },
                {
                    "name": "",
                    "type": "bool",
                    "internalType": "bool"
                }
            ],
            "stateMutability": "nonpayable"
        },
        {
            "type": "function",
            "name": "getTokenExpiryInfo",
            "inputs": [
                {
                    "name": "token",
                    "type": "address",
                    "internalType": "address"
                }
            ],
            "outputs": [
                {
                    "name": "responseCode",
                    "type": "int64",
                    "internalType": "int64"
                },
                {
                    "name": "tokenInfo",
                    "type": "tuple",
                    "internalType": "struct IHederaTokenService.Expiry",
                    "components": [
                        {
                            "name": "second",
                            "type": "int64",
                            "internalType": "int64"
                        },
                        {
                            "name": "autoRenewAccount",
                            "type": "address",
                            "internalType": "address"
                        },
                        {
                            "name": "autoRenewPeriod",
                            "type": "int64",
                            "internalType": "int64"
                        }
                    ]
                }
            ],
            "stateMutability": "nonpayable"
        },
        {
            "type": "function",
            "name": "getTokenInfo",
            "inputs": [
                {
                    "name": "token",
                    "type": "address",
                    "internalType": "address"
                }
            ],
            "outputs": [
                {
                    "name": "responseCode",
                    "type": "int64",
                    "internalType": "int64"
                },
                {
                    "name": "tokenInfo",
                    "type": "tuple",
                    "internalType": "struct IHederaTokenService.TokenInfo",
                    "components": [
                        {
                            "name": "token",
                            "type": "tuple",
                            "internalType": "struct IHederaTokenService.HederaToken",
                            "components": [
                                {
                                    "name": "name",
                                    "type": "string",
                                    "internalType": "string"
                                },
                                {
                                    "name": "symbol",
                                    "type": "string",
                                    "internalType": "string"
                                },
                                {
                                    "name": "treasury",
                                    "type": "address",
                                    "internalType": "address"
                                },
                                {
                                    "name": "memo",
                                    "type": "string",
                                    "internalType": "string"
                                },
                                {
                                    "name": "tokenSupplyType",
                                    "type": "bool",
                                    "internalType": "bool"
                                },
                                {
                                    "name": "maxSupply",
                                    "type": "int64",
                                    "internalType": "int64"
                                },
                                {
                                    "name": "freezeDefault",
                                    "type": "bool",
                                    "internalType": "bool"
                                },
                                {
                                    "name": "tokenKeys",
                                    "type": "tuple[]",
                                    "internalType": "struct IHederaTokenService.TokenKey[]",
                                    "components": [
                                        {
                                            "name": "keyType",
                                            "type": "uint256",
                                            "internalType": "uint256"
                                        },
                                        {
                                            "name": "key",
                                            "type": "tuple",
                                            "internalType": "struct IHederaTokenService.KeyValue",
                                            "components": [
                                                {
                                                    "name": "inheritAccountKey",
                                                    "type": "bool",
                                                    "internalType": "bool"
                                                },
                                                {
                                                    "name": "contractId",
                                                    "type": "address",
                                                    "internalType": "address"
                                                },
                                                {
                                                    "name": "ed25519",
                                                    "type": "bytes",
                                                    "internalType": "bytes"
                                                },
                                                {
                                                    "name": "ECDSA_secp256k1",
                                                    "type": "bytes",
                                                    "internalType": "bytes"
                                                },
                                                {
                                                    "name": "delegatableContractId",
                                                    "type": "address",
                                                    "internalType": "address"
                                                }
                                            ]
                                        }
                                    ]
                                },
                                {
                                    "name": "expiry",
                                    "type": "tuple",
                                    "internalType": "struct IHederaTokenService.Expiry",
                                    "components": [
                                        {
                                            "name": "second",
                                            "type": "int64",
                                            "internalType": "int64"
                                        },
                                        {
                                            "name": "autoRenewAccount",
                                            "type": "address",
                                            "internalType": "address"
                                        },
                                        {
                                            "name": "autoRenewPeriod",
                                            "type": "int64",
                                            "internalType": "int64"
                                        }
                                    ]
                                }
                            ]
                        },
                        {
                            "name": "totalSupply",
                            "type": "int64",
                            "internalType": "int64"
                        },
                        {
                            "name": "deleted",
                            "type": "bool",
                            "internalType": "bool"
                        },
                        {
                            "name": "defaultKycStatus",
                            "type": "bool",
                            "internalType": "bool"
                        },
                        {
                            "name": "pauseStatus",
                            "type": "bool",
                            "internalType": "bool"
                        },
                        {
                            "name": "fixedFees",
                            "type": "tuple[]",
                            "internalType": "struct IHederaTokenService.FixedFee[]",
                            "components": [
                                {
                                    "name": "amount",
                                    "type": "int64",
                                    "internalType": "int64"
                                },
                                {
                                    "name": "tokenId",
                                    "type": "address",
                                    "internalType": "address"
                                },
                                {
                                    "name": "useHbarsForPayment",
                                    "type": "bool",
                                    "internalType": "bool"
                                },
                                {
                                    "name": "useCurrentTokenForPayment",
                                    "type": "bool",
                                    "internalType": "bool"
                                },
                                {
                                    "name": "feeCollector",
                                    "type": "address",
                                    "internalType": "address"
                                }
                            ]
                        },
                        {
                            "name": "fractionalFees",
                            "type": "tuple[]",
                            "internalType": "struct IHederaTokenService.FractionalFee[]",
                            "components": [
                                {
                                    "name": "numerator",
                                    "type": "int64",
                                    "internalType": "int64"
                                },
                                {
                                    "name": "denominator",
                                    "type": "int64",
                                    "internalType": "int64"
                                },
                                {
                                    "name": "minimumAmount",
                                    "type": "int64",
                                    "internalType": "int64"
                                },
                                {
                                    "name": "maximumAmount",
                                    "type": "int64",
                                    "internalType": "int64"
                                },
                                {
                                    "name": "netOfTransfers",
                                    "type": "bool",
                                    "internalType": "bool"
                                },
                                {
                                    "name": "feeCollector",
                                    "type": "address",
                                    "internalType": "address"
                                }
                            ]
                        },
                        {
                            "name": "royaltyFees",
                            "type": "tuple[]",
                            "internalType": "struct IHederaTokenService.RoyaltyFee[]",
                            "components": [
                                {
                                    "name": "numerator",
                                    "type": "int64",
                                    "internalType": "int64"
                                },
                                {
                                    "name": "denominator",
                                    "type": "int64",
                                    "internalType": "int64"
                                },
                                {
                                    "name": "amount",
                                    "type": "int64",
                                    "internalType": "int64"
                                },
                                {
                                    "name": "tokenId",
                                    "type": "address",
                                    "internalType": "address"
                                },
                                {
                                    "name": "useHbarsForPayment",
                                    "type": "bool",
                                    "internalType": "bool"
                                },
                                {
                                    "name": "feeCollector",
                                    "type": "address",
                                    "internalType": "address"
                                }
                            ]
                        },
                        {
                            "name": "ledgerId",
                            "type": "string",
                            "internalType": "string"
                        }
                    ]
                }
            ],
            "stateMutability": "nonpayable"
        },
        {
            "type": "function",
            "name": "getTokenKey",
            "inputs": [
                {
                    "name": "token",
                    "type": "address",
                    "internalType": "address"
                },
                {
                    "name": "keyType",
                    "type": "uint256",
                    "internalType": "uint256"
                }
            ],
            "outputs": [
                {
                    "name": "",
                    "type": "int64",
                    "internalType": "int64"
                },
                {
                    "name": "",
                    "type": "tuple",
                    "internalType": "struct IHederaTokenService.KeyValue",
                    "components": [
                        {
                            "name": "inheritAccountKey",
                            "type": "bool",
                            "internalType": "bool"
                        },
                        {
                            "name": "contractId",
                            "type": "address",
                            "internalType": "address"
                        },
                        {
                            "name": "ed25519",
                            "type": "bytes",
                            "internalType": "bytes"
                        },
                        {
                            "name": "ECDSA_secp256k1",
                            "type": "bytes",
                            "internalType": "bytes"
                        },
                        {
                            "name": "delegatableContractId",
                            "type": "address",
                            "internalType": "address"
                        }
                    ]
                }
            ],
            "stateMutability": "nonpayable"
        },
        {
            "type": "function",
            "name": "getTokenType",
            "inputs": [
                {
                    "name": "token",
                    "type": "address",
                    "internalType": "address"
                }
            ],
            "outputs": [
                {
                    "name": "",
                    "type": "int64",
                    "internalType": "int64"
                },
                {
                    "name": "",
                    "type": "int32",
                    "internalType": "int32"
                }
            ],
            "stateMutability": "nonpayable"
        },
        {
            "type": "function",
            "name": "isApprovedForAll",
            "inputs": [
                {
                    "name": "token",
                    "type": "address",
                    "internalType": "address"
                },
                {
                    "name": "owner",
                    "type": "address",
                    "internalType": "address"
                },
                {
                    "name": "operator",
                    "type": "address",
                    "internalType": "address"
                }
            ],
            "outputs": [
                {
                    "name": "",
                    "type": "int64",
                    "internalType": "int64"
                },
                {
                    "name": "",
                    "type": "bool",
                    "internalType": "bool"
                }
            ],
            "stateMutability": "view"
        },
        {
            "type": "function",
            "name": "isToken",
            "inputs": [
                {
                    "name": "token",
                    "type": "address",
                    "internalType": "address"
                }
            ],
            "outputs": [
                {
                    "name": "",
                    "type": "int64",
                    "internalType": "int64"
                },
                {
                    "name": "",
                    "type": "bool",
                    "internalType": "bool"
                }
            ],
            "stateMutability": "nonpayable"
        },
        {
            "type": "function",
            "name": "mintToken",
            "inputs": [
                {
                    "name": "token",
                    "type": "address",
                    "internalType": "address"
                },
                {
                    "name": "amount",
                    "type": "int64",
                    "internalType": "int64"
                },
                {
                    "name": "",
                    "type": "bytes[]",
                    "internalType": "bytes[]"
                }
            ],
            "outputs": [
                {
                    "name": "responseCode",
                    "type": "int64",
                    "internalType": "int64"
                },
                {
                    "name": "newTotalSupply",
                    "type": "int64",
                    "internalType": "int64"
                },
                {
                    "name": "serialNumbers",
                    "type": "int64[]",
                    "internalType": "int64[]"
                }
            ],
            "stateMutability": "nonpayable"
        },
        {
            "type": "function",
            "name": "transferTokens",
            "inputs": [
                {
                    "name": "token",
                    "type": "address",
                    "internalType": "address"
                },
                {
                    "name": "accountId",
                    "type": "address[]",
                    "internalType": "address[]"
                },
                {
                    "name": "amount",
                    "type": "int64[]",
                    "internalType": "int64[]"
                }
            ],
            "outputs": [
                {
                    "name": "responseCode",
                    "type": "int64",
                    "internalType": "int64"
                }
            ],
            "stateMutability": "nonpayable"
        },
        {
            "type": "event",
            "name": "Approval",
            "inputs": [
                {
                    "name": "owner",
                    "type": "address",
                    "indexed": true,
                    "internalType": "address"
                },
                {
                    "name": "spender",
                    "type": "address",
                    "indexed": true,
                    "internalType": "address"
                },
                {
                    "name": "amount",
                    "type": "uint256",
                    "indexed": false,
                    "internalType": "uint256"
                }
            ],
            "anonymous": false
        },
        {
            "type": "event",
            "name": "ApprovalForAll",
            "inputs": [
                {
                    "name": "owner",
                    "type": "address",
                    "indexed": true,
                    "internalType": "address"
                },
                {
                    "name": "operator",
                    "type": "address",
                    "indexed": true,
                    "internalType": "address"
                },
                {
                    "name": "approved",
                    "type": "bool",
                    "indexed": false,
                    "internalType": "bool"
                }
            ],
            "anonymous": false
        },
        {
            "type": "event",
            "name": "Transfer",
            "inputs": [
                {
                    "name": "from",
                    "type": "address",
                    "indexed": true,
                    "internalType": "address"
                },
                {
                    "name": "to",
                    "type": "address",
                    "indexed": true,
                    "internalType": "address"
                },
                {
                    "name": "amount",
                    "type": "uint256",
                    "indexed": false,
                    "internalType": "uint256"
                }
            ],
            "anonymous": false
        }
    ],
    "bytecode": {
        "object": "0x6080604052348015600e575f5ffd5b506162c68061001c5f395ff3fe608060405234801561000f575f5ffd5b5060043610610135575f3560e01c806349146bde116100b6578063ae7611a01161007a578063ae7611a014610448578063d614cdb81461046b578063d6910d061461048c578063e0b490f7146104b9578063e0f4059a146104e1578063f49f40db1461050357610135565b806349146bde146103cc57806378b63918146103df57806382bba493146103f257806393272baf14610405578063a7daa18d1461043557610135565b8063287e1da8116100fd578063287e1da8146103435780632e63879b14610364578063335e04c1146103775780633c4dd32e1461038a5780633f28a19b146103ab57610135565b8063098f236614610280578063099794e8146102ba5780630bb3bfa8146102e057806319f37361146102f55780631f69565f14610322575b5f366060601c82101561018f5760405162461bcd60e51b815260206004820152601d60248201527f66616c6c6261636b3a206e6f7420656e6f7567682063616c6c6461746100000060448201526064015b60405180910390fd5b5f61019d60048236816145f4565b6101a69161461b565b60e01c905063618dc65e81146101fe5760405162461bcd60e51b815260206004820152601e60248201527f66616c6c6261636b3a20756e737570706f727465642073656c6563746f7200006044820152606401610186565b5f61020d6018600436846145f4565b61021691614653565b60601c905030811461026a5760405162461bcd60e51b815260206004820152601d60248201527f66616c6c6261636b3a20746f6b656e206973206e6f742063616c6c65720000006044820152606401610186565b610272610516565b805195506020019350505050f35b61029361028e3660046146a0565b610df6565b6040805160079390930b83526001600160a01b039091166020830152015b60405180910390f35b6102cd6102c83660046146ca565b610ee4565b60405160079190910b81526020016102b1565b6102f36102ee366004614701565b610f6e565b005b61030861030336600461473f565b61104c565b6040805160079390930b83529015156020830152016102b1565b61033561033036600461473f565b61110d565b6040516102b1929190614bc1565b610356610351366004614bea565b611201565b6040516102b1929190614c16565b6102cd610372366004614e0f565b611488565b61030861038536600461473f565b611763565b61039d6103983660046146a0565b61185f565b6040516102b1929190614e5b565b6103be6103b936600461473f565b611a3e565b6040516102b1929190614e76565b6102cd6103da3660046146ca565b611c29565b6102cd6103ed366004614e0f565b611ca9565b6102cd610400366004614f17565b611f7d565b61041861041336600461473f565b6122a7565b6040805160079390930b835260039190910b6020830152016102b1565b61030861044336600461473f565b612387565b61045b61045636600461473f565b612442565b6040516102b19493929190614f8b565b61047e61047936600461473f565b612541565b6040516102b1929190614fcc565b61049f61049a366004615008565b612645565b60408051600793840b81529190920b6020820152016102b1565b6104cc6104c736600461473f565b61296c565b60405163ffffffff90911681526020016102b1565b6104f46104ef366004615075565b6129e6565b6040516102b19392919061518a565b6103086105113660046151e7565b612d23565b60605f610527601c601836846145f4565b6105309161461b565b905060408051808201825260098152681393d517d193d5539160ba1b602090910152517f7bafae6429a8b3ef0db181af7c5834a6f2b1af33146a1a9ae02e833d27f2431b90610580905f906152d5565b6040518091039020036105df5760405162461bcd60e51b815260206004820152602160248201527f7265646972656374466f72546f6b656e3a20746f6b656e206e6f7420666f756e6044820152601960fa1b6064820152608401610186565b610166193301610cbd5763e096a9a160e01b6001600160e01b031982160161068657601c36101561065c5760405162461bcd60e51b815260206004820152602160248201527f676574546f6b656e496e666f3a204e6f7420656e6f7567682063616c6c6461746044820152606160f81b6064820152608401610186565b60166005604051602001610671929190615698565b60405160208183030381529060405291505090565b63028c4f7360e51b6001600160e01b031982160161071a57601c3610156106ff5760405162461bcd60e51b815260206004820152602760248201527f676574546f6b656e437573746f6d466565733a204e6f7420656e6f7567682063604482015266616c6c6461746160c81b6064820152608401610186565b60405161067190601690600e90600f90601090602001615775565b63cca1fb3f60e01b6001600160e01b03198216016107c057601c3610156107995760405162461bcd60e51b815260206004820152602d60248201527f676574546f6b656e44656661756c744b79635374617475733a204e6f7420656e60448201526c6f7567682063616c6c6461746160981b6064820152608401610186565b600d546040805160166020820152600160481b90920460ff16151590820152606001610671565b6358255e7360e01b6001600160e01b031982160161086957601c3610156108425760405162461bcd60e51b815260206004820152603060248201527f676574546f6b656e44656661756c74467265657a655374617475733a204e6f7460448201526f20656e6f7567682063616c6c6461746160801b6064820152608401610186565b6009546040805160166020820152600160481b90920460ff16151590820152606001610671565b63053d664960e31b6001600160e01b03198216016108f757601c3610156108e25760405162461bcd60e51b815260206004820152602760248201527f676574546f6b656e457870697279496e666f3a204e6f7420656e6f7567682063604482015266616c6c6461746160c81b6064820152608401610186565b60405161067190601690600b906020016157b6565b635b75ca1160e11b6001600160e01b03198216016109be57603036101561096c5760405162461bcd60e51b815260206004820152602360248201527f6173736f6369617465546f6b656e3a204e6f7420656e6f7567682063616c6c6460448201526261746160e81b6064820152608401610186565b5f61097b603c602836846145f4565b61098491614653565b60601c90505f61099382612e1c565b600181556040805160166020820152919250015b604051602081830303815290604052935050505090565b631ecd0d6360e31b6001600160e01b0319821601610a71576030361015610a335760405162461bcd60e51b8152602060048201526024808201527f646973736f6369617465546f6b656e3a204e6f7420656e6f7567682063616c6c6044820152636461746160e01b6064820152608401610186565b5f610a42603c602836846145f4565b610a4b91614653565b60601c90505f610a5a82612e1c565b5f81556040805160166020820152919250016109a7565b636cd8d45160e01b6001600160e01b0319821601610bd157601c361015610ae45760405162461bcd60e51b815260206004820152602160248201527f676574546f6b656e547970653a204e6f7420656e6f7567682063616c6c6461746044820152606160f81b6064820152608401610186565b7f20081d23699eb901ca16307080f9b35e7967740755a921f749a9e037b0875c755f604051602001610b1691906152d5565b6040516020818303038152906040528051906020012003610b4c5760408051601660208201525f91810191909152606001610671565b7f6c58a12b113a1ee77f554495d8bd48a419af104bca196099cdecc39fcb8989f05f604051602001610b7e91906152d5565b6040516020818303038152906040528051906020012003610bb5576040805160166020820152600191810191909152606001610671565b60408051601660208201525f1991810191909152606001610671565b631e89880b60e31b6001600160e01b0319821601610cbd57607c361015610c3a5760405162461bcd60e51b815260206004820152601b60248201527f7570646174653a204e6f7420656e6f7567682063616c6c6461746100000000006044820152606401610186565b5f610c49603c602836846145f4565b610c5291614653565b60601c90505f610c66605c604836846145f4565b610c6f91614653565b60601c90505f610c83607c605c36846145f4565b610c8c916157f2565b9050610c99838383610f6e565b60408051600160208201520160405160208183030381529060405294505050505090565b604080518082018252600f81526e232aa723a4a12622afa1a7a6a6a7a760891b602090910152517f20081d23699eb901ca16307080f9b35e7967740755a921f749a9e037b0875c7590610d11905f906152d5565b604051809103902003610d2d57610d2781612ecc565b91505090565b60408051808201825260138152724e4f4e5f46554e4749424c455f554e4951554560681b602090910152517f6c58a12b113a1ee77f554495d8bd48a419af104bca196099cdecc39fcb8989f090610d85905f906152d5565b604051809103902003610d9b57610d2781613402565b60405162461bcd60e51b815260206004820152602a60248201527f7265646972656374466f72546f6b656e3a20746f6b656e2074797065206e6f74604482015269081cdd5c1c1bdc9d195960b21b6064820152608401610186565b5f803061016714610e195760405162461bcd60e51b81526004016101869061580f565b6001600160a01b038416610e6f5760405162461bcd60e51b815260206004820152601a60248201527f676574417070726f7665643a20696e76616c696420746f6b656e0000000000006044820152606401610186565b60405163020604bf60e21b8152600481018490526016906001600160a01b0386169063081812fc90602401602060405180830381865afa158015610eb5573d5f5f3e3d5ffd5b505050506040513d601f19601f82011682018060405250810190610ed99190615856565b909590945092505050565b5f3061016714610f065760405162461bcd60e51b81526004016101869061580f565b6040805160018082528183019092525f916020808301908036833701905050905082815f81518110610f3a57610f3a615871565b60200260200101906001600160a01b031690816001600160a01b031681525050610f648482611ca9565b9150505b92915050565b6001600160a01b038316610f98578060045f828254610f8d9190615899565b90915550610ffd9050565b5f610fa2846139d4565b805490915082811015610ff75760405162461bcd60e51b815260206004820152601f60248201527f5f7472616e736665723a20696e73756666696369656e742062616c616e6365006044820152606401610186565b82900390555b6001600160a01b038216611027578060045f82825461101c91906158ac565b909155506110479050565b5f611031836139d4565b80549091505f6110418483615899565b90925550505b505050565b6040516001600160a01b03821660248201525f908190819060440160408051601f198184030181529181526020820180516001600160e01b03166393272baf60e01b179052519091505f9081906001600160a01b038716906110af9085906158bf565b5f604051808303815f865af19150503d805f81146110e8576040519150601f19603f3d011682016040523d82523d5f602084013e6110ed565b606091505b5091509150601682801561110157505f8251115b94509450505050915091565b5f6111166144a9565b30610167146111375760405162461bcd60e51b81526004016101869061580f565b6001600160a01b03831661118d5760405162461bcd60e51b815260206004820152601b60248201527f676574546f6b656e496e666f3a20696e76616c696420746f6b656e00000000006044820152606401610186565b604051631f69565f60e01b81526001600160a01b0384166004820181905290631f69565f906024015f604051808303815f875af11580156111d0573d5f5f3e3d5ffd5b505050506040513d5f823e601f3d908101601f191682016040526111f79190810190615ea8565b9094909350915050565b5f61120a61455b565b306101671461122b5760405162461bcd60e51b81526004016101869061580f565b6001600160a01b0384166112905760405162461bcd60e51b815260206004820152602660248201527f6765744e6f6e46756e6769626c65546f6b656e496e666f3a20696e76616c6964604482015265103a37b5b2b760d11b6064820152608401610186565b604051631f69565f60e01b81526001600160a01b038516600482018190525f91829190631f69565f906024015f604051808303815f875af11580156112d7573d5f5f3e3d5ffd5b505050506040513d5f823e601f3d908101601f191682016040526112fe9190810190615ea8565b915091508160070b60161461136f5760405162461bcd60e51b815260206004820152603160248201527f6765744e6f6e46756e6769626c65546f6b656e496e666f3a206661696c656420604482015270746f2067657420746f6b656e206461746160781b6064820152608401610186565b61137761455b565b818152600786900b602082015260405163020604bf60e21b81526001600160401b03871660048201526001600160a01b0388169063081812fc90602401602060405180830381865afa1580156113cf573d5f5f3e3d5ffd5b505050506040513d601f19601f820116820180604052508101906113f39190615856565b6001600160a01b0390811660a08301526040516331a9108f60e11b81526001600160401b038816600482015290881690636352211e90602401602060405180830381865afa158015611447573d5f5f3e3d5ffd5b505050506040513d601f19601f8201168201806040525081019061146b9190615856565b6001600160a01b03166040820152919350909150505b9250929050565b5f30610167146114aa5760405162461bcd60e51b81526004016101869061580f565b5f8251116114fa5760405162461bcd60e51b815260206004820152601f60248201527f6173736f6369617465546f6b656e733a206d697373696e6720746f6b656e73006044820152606401610186565b6001600160a01b03831633146115ad5760405162461bcd60e51b815260206004820152606660248201527f6173736f6369617465546f6b656e733a204d757374206265207369676e65642060448201527f6279207468652070726f7669646564204163636f756e742773206b6579206f7260648201527f2063616c6c65642066726f6d20746865206163636f756e747320636f6e7472616084820152656374206b657960d01b60a482015260c401610186565b5f5b8251811015611759575f6001600160a01b03168382815181106115d4576115d4615871565b60200260200101516001600160a01b0316036116325760405162461bcd60e51b815260206004820152601e60248201527f6173736f6369617465546f6b656e733a20696e76616c696420746f6b656e00006044820152606401610186565b5f83828151811061164557611645615871565b60200260200101516001600160a01b03166349146bde8686858151811061166e5761166e615871565b60200260200101516040518363ffffffff1660e01b81526004016116a89291906001600160a01b0392831681529116602082015260400190565b6020604051808303815f875af11580156116c4573d5f5f3e3d5ffd5b505050506040513d601f19601f820116820180604052508101906116e89190616017565b90508060070b6016146117505760405162461bcd60e51b815260206004820152602a60248201527f6173736f6369617465546f6b656e733a204661696c656420746f206173736f6360448201526934b0ba32903a37b5b2b760b11b6064820152608401610186565b506001016115af565b5060169392505050565b5f8030610167146117865760405162461bcd60e51b81526004016101869061580f565b6001600160a01b0383166117ee5760405162461bcd60e51b815260206004820152602960248201527f676574546f6b656e44656661756c744b79635374617475733a20696e76616c6960448201526864206164647265737360b81b6064820152608401610186565b60405163335e04c160e01b81526001600160a01b038416600482018190529063335e04c1906024015b60408051808303815f875af1158015611832573d5f5f3e3d5ffd5b505050506040513d601f19601f820116820180604052508101906118569190616032565b91509150915091565b5f611868614595565b30610167146118895760405162461bcd60e51b81526004016101869061580f565b6001600160a01b0384166118df5760405162461bcd60e51b815260206004820152601a60248201527f676574546f6b656e4b65793a20696e76616c696420746f6b656e0000000000006044820152606401610186565b604051631f69565f60e01b81526001600160a01b038516600482018190525f91829190631f69565f906024015f604051808303815f875af1158015611926573d5f5f3e3d5ffd5b505050506040513d5f823e601f3d908101601f1916820160405261194d9190810190615ea8565b915091508160070b6016146119b25760405162461bcd60e51b815260206004820152602560248201527f676574546f6b656e4b65793a206661696c656420746f2067657420746f6b656e604482015264206461746160d81b6064820152608401610186565b5f5b815160e0015151811015611a275785825f015160e0015182815181106119dc576119dc615871565b60200260200101515f015103611a1f576016825f015160e001518281518110611a0757611a07615871565b60200260200101516020015194509450505050611481565b6001016119b4565b50611a30614595565b601697909650945050505050565b5f611a476145d5565b3061016714611a685760405162461bcd60e51b81526004016101869061580f565b6001600160a01b038316611aca5760405162461bcd60e51b815260206004820152602360248201527f67657446756e6769626c65546f6b656e496e666f3a20696e76616c696420746f60448201526235b2b760e91b6064820152608401610186565b604051631f69565f60e01b81526001600160a01b038416600482018190525f91829190631f69565f906024015f604051808303815f875af1158015611b11573d5f5f3e3d5ffd5b505050506040513d5f823e601f3d908101601f19168201604052611b389190810190615ea8565b915091508160070b601614611ba65760405162461bcd60e51b815260206004820152602e60248201527f67657446756e6769626c65546f6b656e496e666f3a206661696c656420746f2060448201526d67657420746f6b656e206461746160901b6064820152608401610186565b611bae6145d5565b81815f0181905250856001600160a01b031663313ce5676040518163ffffffff1660e01b8152600401602060405180830381865afa158015611bf2573d5f5f3e3d5ffd5b505050506040513d601f19601f82011682018060405250810190611c169190616065565b5f0b602082015291935090915050915091565b5f3061016714611c4b5760405162461bcd60e51b81526004016101869061580f565b6040805160018082528183019092525f916020808301908036833701905050905082815f81518110611c7f57611c7f615871565b60200260200101906001600160a01b031690816001600160a01b031681525050610f648482611488565b5f3061016714611ccb5760405162461bcd60e51b81526004016101869061580f565b5f825111611d1b5760405162461bcd60e51b815260206004820181905260248201527f646973736f6369617465546f6b656e733a206d697373696e6720746f6b656e736044820152606401610186565b6001600160a01b0383163314611dcf5760405162461bcd60e51b815260206004820152606760248201527f646973736f6369617465546f6b656e733a204d757374206265207369676e656460448201527f206279207468652070726f7669646564204163636f756e742773206b6579206f60648201527f722063616c6c65642066726f6d20746865206163636f756e747320636f6e7472608482015266616374206b657960c81b60a482015260c401610186565b5f5b8251811015611759575f6001600160a01b0316838281518110611df657611df6615871565b60200260200101516001600160a01b031603611e545760405162461bcd60e51b815260206004820152601f60248201527f646973736f6369617465546f6b656e733a20696e76616c696420746f6b656e006044820152606401610186565b5f838281518110611e6757611e67615871565b60200260200101516001600160a01b031663099794e886868581518110611e9057611e90615871565b60200260200101516040518363ffffffff1660e01b8152600401611eca9291906001600160a01b0392831681529116602082015260400190565b6020604051808303815f875af1158015611ee6573d5f5f3e3d5ffd5b505050506040513d601f19601f82011682018060405250810190611f0a9190616017565b90508060070b601614611f745760405162461bcd60e51b815260206004820152602c60248201527f646973736f6369617465546f6b656e733a204661696c656420746f206469737360448201526b37b1b4b0ba32903a37b5b2b760a11b6064820152608401610186565b50600101611dd1565b5f3061016714611f9f5760405162461bcd60e51b81526004016101869061580f565b6001600160a01b038416611ff55760405162461bcd60e51b815260206004820152601d60248201527f7472616e73666572546f6b656e733a20696e76616c696420746f6b656e0000006044820152606401610186565b5f8351116120505760405162461bcd60e51b815260206004820152602260248201527f7472616e73666572546f6b656e733a206d697373696e6720726563697069656e604482015261747360f01b6064820152608401610186565b82518251146120ac5760405162461bcd60e51b815260206004820152602260248201527f7472616e73666572546f6b656e733a20696e636f6e73697374656e7420696e706044820152611d5d60f21b6064820152608401610186565b5f5b835181101561229c575f8382815181106120ca576120ca615871565b602002602001015160070b136121225760405162461bcd60e51b815260206004820152601e60248201527f7472616e73666572546f6b656e733a20696e76616c696420616d6f756e7400006044820152606401610186565b5f6001600160a01b031684828151811061213e5761213e615871565b60200260200101516001600160a01b0316141580156121885750336001600160a01b031684828151811061217457612174615871565b60200260200101516001600160a01b031614155b6121de5760405162461bcd60e51b815260206004820152602160248201527f7472616e73666572546f6b656e733a20496e76616c6964206163636f756e74496044820152601960fa1b6064820152608401610186565b846001600160a01b0316630bb3bfa83386848151811061220057612200615871565b602002602001015186858151811061221a5761221a615871565b60209081029190910101516040516001600160e01b031960e086901b1681526001600160a01b0393841660048201529290911660248301526001600160401b031660448201526064015f604051808303815f87803b15801561227a575f5ffd5b505af115801561228c573d5f5f3e3d5ffd5b5050600190920191506120ae9050565b506016949350505050565b5f8030610167146122ca5760405162461bcd60e51b81526004016101869061580f565b6001600160a01b0383166123205760405162461bcd60e51b815260206004820152601d60248201527f676574546f6b656e547970653a20696e76616c696420616464726573730000006044820152606401610186565b6040516393272baf60e01b81526001600160a01b03841660048201819052906393272baf9060240160408051808303815f875af1158015612363573d5f5f3e3d5ffd5b505050506040513d601f19601f820116820180604052508101906118569190616085565b5f8030610167146123aa5760405162461bcd60e51b81526004016101869061580f565b6001600160a01b0383166124155760405162461bcd60e51b815260206004820152602c60248201527f676574546f6b656e44656661756c74467265657a655374617475733a20696e7660448201526b616c6964206164647265737360a01b6064820152608401610186565b60405163a7daa18d60e01b81526001600160a01b038416600482018190529063a7daa18d90602401611817565b5f6060808030610167146124685760405162461bcd60e51b81526004016101869061580f565b6001600160a01b0385166124c85760405162461bcd60e51b815260206004820152602160248201527f676574546f6b656e437573746f6d466565733a20696e76616c696420746f6b656044820152603760f91b6064820152608401610186565b604051630573b08d60e51b81526001600160a01b038616600482018190529063ae7611a0906024015f604051808303815f875af115801561250b573d5f5f3e3d5ffd5b505050506040513d5f823e601f3d908101601f1916820160405261253291908101906160b8565b93509350935093509193509193565b604080516060810182525f80825260208201819052918101829052306101671461257d5760405162461bcd60e51b81526004016101869061580f565b6001600160a01b0383166125dd5760405162461bcd60e51b815260206004820152602160248201527f676574546f6b656e457870697279496e666f3a20696e76616c696420746f6b656044820152603760f91b6064820152608401610186565b604051631ac299b760e31b81526001600160a01b038416600482018190529063d614cdb8906024016080604051808303815f875af1158015612621573d5f5f3e3d5ffd5b505050506040513d601f19601f820116820180604052508101906111f79190616157565b5f8030610167146126685760405162461bcd60e51b81526004016101869061580f565b6001600160a01b0385166126be5760405162461bcd60e51b815260206004820152601860248201527f6275726e546f6b656e3a20696e76616c696420746f6b656e00000000000000006044820152606401610186565b5f8460070b136127105760405162461bcd60e51b815260206004820152601960248201527f6275726e546f6b656e3a20696e76616c696420616d6f756e74000000000000006044820152606401610186565b604051631f69565f60e01b81526001600160a01b038616600482018190525f91829190631f69565f906024015f604051808303815f875af1158015612757573d5f5f3e3d5ffd5b505050506040513d5f823e601f3d908101601f1916820160405261277e9190810190615ea8565b915091508160070b6016146127e15760405162461bcd60e51b815260206004820152602360248201527f6275726e546f6b656e3a206661696c656420746f2067657420746f6b656e20696044820152626e666f60e81b6064820152608401610186565b8051604001516001600160a01b03811661283d5760405162461bcd60e51b815260206004820152601a60248201527f6275726e546f6b656e3a20696e76616c6964206163636f756e740000000000006044820152606401610186565b60405163017677f560e31b81526001600160a01b0382811660048301525f60248301526001600160401b0389166044830152891690630bb3bfa8906064015f604051808303815f87803b158015612892575f5ffd5b505af11580156128a4573d5f5f3e3d5ffd5b5050505060169450876001600160a01b03166318160ddd6040518163ffffffff1660e01b8152600401602060405180830381865afa1580156128e8573d5f5f3e3d5ffd5b505050506040513d601f19601f8201168201806040525081019061290c9190616182565b93505f8460070b12156129615760405162461bcd60e51b815260206004820152601f60248201527f6275726e546f6b656e3a20696e76616c696420746f74616c20737570706c79006044820152606401610186565b505050935093915050565b5f306101671461298e5760405162461bcd60e51b81526004016101869061580f565b6040805163e0b490f760e01b602082018190525f602483018190526001600160601b0319606087901b16602c840152909290918291016040516020818303038152906040526129dc90616199565b5495945050505050565b5f8060603061016714612a0b5760405162461bcd60e51b81526004016101869061580f565b6001600160a01b038616612a615760405162461bcd60e51b815260206004820152601860248201527f6d696e74546f6b656e3a20696e76616c696420746f6b656e00000000000000006044820152606401610186565b5f8560070b13612ab35760405162461bcd60e51b815260206004820152601960248201527f6d696e74546f6b656e3a20696e76616c696420616d6f756e74000000000000006044820152606401610186565b604051631f69565f60e01b81526001600160a01b038716600482018190525f91829190631f69565f906024015f604051808303815f875af1158015612afa573d5f5f3e3d5ffd5b505050506040513d5f823e601f3d908101601f19168201604052612b219190810190615ea8565b915091508160070b601614612b845760405162461bcd60e51b815260206004820152602360248201527f6d696e74546f6b656e3a206661696c656420746f2067657420746f6b656e20696044820152626e666f60e81b6064820152608401610186565b8051604001516001600160a01b038116612be05760405162461bcd60e51b815260206004820152601a60248201527f6d696e74546f6b656e3a20696e76616c6964206163636f756e740000000000006044820152606401610186565b60405163017677f560e31b81525f60048201526001600160a01b0382811660248301526001600160401b038a1660448301528a1690630bb3bfa8906064015f604051808303815f87803b158015612c35575f5ffd5b505af1158015612c47573d5f5f3e3d5ffd5b5050505060169550886001600160a01b03166318160ddd6040518163ffffffff1660e01b8152600401602060405180830381865afa158015612c8b573d5f5f3e3d5ffd5b505050506040513d601f19601f82011682018060405250810190612caf9190616182565b604080515f808252602082019092529196505093505f8560070b1215612d175760405162461bcd60e51b815260206004820152601f60248201527f6d696e74546f6b656e3a20696e76616c696420746f74616c20737570706c79006044820152606401610186565b50505093509350939050565b5f803061016714612d465760405162461bcd60e51b81526004016101869061580f565b6001600160a01b038516612d9c5760405162461bcd60e51b815260206004820152601f60248201527f6973417070726f766564466f72416c6c3a20696e76616c696420746f6b656e006044820152606401610186565b60405163e985e9c560e01b81526001600160a01b03858116600483015284811660248301526016919087169063e985e9c590604401602060405180830381865afa158015612dec573d5f5f3e3d5ffd5b505050506040513d601f19601f82011682018060405250810190612e1091906161bc565b91509150935093915050565b60405163e0b490f760e01b81526001600160a01b03821660048201525f90634d8fdd6d60e01b90829081906101679063e0b490f7906024015b602060405180830381865afa158015612e70573d5f5f3e3d5ffd5b505050506040513d601f19601f82011682018060405250810190612e9491906161d5565b9050828282604051602001612eab939291906161f8565b604051602081830303815290604052612ec390616199565b95945050505050565b606063f90221fd60e01b6001600160e01b0319831601612f0e576001604051602001612ef8919061622d565b6040516020818303038152906040529050919050565b63cec31a9960e01b6001600160e01b0319831601612f3d576003546040805160ff909216602083015201612ef8565b63e7e9f22360e01b6001600160e01b0319831601612f6a57600454604051602001612ef891815260200190565b636a2764bf60e01b6001600160e01b0319831601612f94576002604051602001612ef8919061622d565b638f5f7dcf60e01b6001600160e01b031983160161304c57603c361015612ffd5760405162461bcd60e51b815260206004820152601e60248201527f62616c616e63654f663a204e6f7420656e6f7567682063616c6c6461746100006044820152606401610186565b5f61300c603c602836846145f4565b61301591614653565b60601c905061302381613a11565b60405160200161303591815260200190565b604051602081830303815290604052915050919050565b6356fa634560e01b6001600160e01b031983160161311e57605c3610156130b55760405162461bcd60e51b815260206004820152601d60248201527f7472616e736665723a204e6f7420656e6f7567682063616c6c646174610000006044820152606401610186565b5f6130c4603c602836846145f4565b6130cd91614653565b60601c90505f6130e1605c603c36846145f4565b6130ea916157f2565b9050336130f8818484613a24565b6040805160016020820152015b6040516020818303038152906040529350505050919050565b63dc478d2360e01b6001600160e01b031983160161321857607c3610156131875760405162461bcd60e51b815260206004820152601e60248201527f7472616e73666572463a204e6f7420656e6f7567682063616c6c6461746100006044820152606401610186565b5f613196603c602836846145f4565b61319f91614653565b60601c90505f6131b3605c604836846145f4565b6131bc91614653565b60601c90505f6131d0607c605c36846145f4565b6131d9916157f2565b9050336131e7848284613b1b565b6131f2848484613a24565b604080516001602082015201604051602081830303815290604052945050505050919050565b63114e896160e11b6001600160e01b03198316016132ef57605c3610156132815760405162461bcd60e51b815260206004820152601e60248201527f616c6c6f77616e63653a204e6f7420656e6f7567682063616c6c6461746100006044820152606401610186565b5f613290603c602836846145f4565b61329991614653565b60601c90505f6132ad605c604836846145f4565b6132b691614653565b60601c90506132c58282613b93565b6040516020016132d791815260200190565b60405160208183030381529060405292505050919050565b63f6a1584d60e01b6001600160e01b03198316016133f957605c3610156133585760405162461bcd60e51b815260206004820152601c60248201527f617070726f76653a204e6f7420656e6f7567682063616c6c64617461000000006044820152606401610186565b5f613367603c602836846145f4565b61337091614653565b60601c90505f613384605c603c36846145f4565b61338d916157f2565b90503361339b818484613ba8565b826001600160a01b0316816001600160a01b03167f8c5be1e5ebec7d5bd14f71427d1e84f3dd0314c0f7b2291e5b200ac8c7c3b925846040516133e091815260200190565b60405180910390a3604080516001602082015201613105565b610f6882613c68565b606063f90221fd60e01b6001600160e01b031983160161342e576001604051602001612ef8919061622d565b636a2764bf60e01b6001600160e01b0319831601613458576002604051602001612ef8919061622d565b633784a92360e01b6001600160e01b03198316016134f457603c3610156134c15760405162461bcd60e51b815260206004820152601d60248201527f746f6b656e5552493a204e6f7420656e6f7567682063616c6c646174610000006044820152606401610186565b5f6134d0603c601c36846145f4565b6134d9916157f2565b90506134e481613d64565b604051602001613035919061623f565b63e7e9f22360e01b6001600160e01b031983160161352157600454604051602001612ef891815260200190565b638f5f7dcf60e01b6001600160e01b031983160161358a57603c361015612ffd5760405162461bcd60e51b815260206004820152601e60248201527f62616c616e63654f663a204e6f7420656e6f7567682063616c6c6461746100006044820152606401610186565b634e56ef7160e11b6001600160e01b031983160161363057603c3610156135f35760405162461bcd60e51b815260206004820152601c60248201527f6f776e65724f663a204e6f7420656e6f7567682063616c6c64617461000000006044820152606401610186565b5f613602603c601c36846145f4565b61360b916157f2565b905061361681613e07565b604080516001600160a01b03909216602083015201613035565b63dc478d2360e01b6001600160e01b031983160161370257607c3610156136a35760405162461bcd60e51b815260206004820152602160248201527f7472616e7366657246726f6d3a204e6f7420656e6f7567682063616c6c6461746044820152606160f81b6064820152608401610186565b5f6136b2603c602836846145f4565b6136bb91614653565b60601c90505f6136cf605c604836846145f4565b6136d891614653565b60601c90505f6136ec607c605c36846145f4565b6136f5916157f2565b90506130f8838383613e12565b63f6a1584d60e01b6001600160e01b03198316016137bf57605c36101561376b5760405162461bcd60e51b815260206004820152601c60248201527f617070726f76653a204e6f7420656e6f7567682063616c6c64617461000000006044820152606401610186565b5f61377a603c602836846145f4565b61378391614653565b60601c90505f613797605c603c36846145f4565b6137a0916157f2565b90506137ae8282600161400b565b6040805160016020820152016132d7565b635dd34b9b60e01b6001600160e01b031983160161387b57605c3610156138375760405162461bcd60e51b815260206004820152602660248201527f736574417070726f76616c466f72416c6c3a204e6f7420656e6f7567682063616044820152656c6c6461746160d01b6064820152608401610186565b5f613846603c602836846145f4565b61384f91614653565b60601c90505f613863605c603c36846145f4565b61386c916157f2565b60011490506137ae8282614107565b633df9fb4160e21b6001600160e01b031983160161390757603c3610156138e45760405162461bcd60e51b815260206004820181905260248201527f676574417070726f7665643a204e6f7420656e6f7567682063616c6c646174616044820152606401610186565b5f6138f3603c601c36846145f4565b6138fc916157f2565b9050613616816141ef565b63167a163b60e01b6001600160e01b03198316016133f957605c36101561397e5760405162461bcd60e51b815260206004820152602560248201527f6973417070726f766564466f72416c6c3a204e6f7420656e6f7567682063616c6044820152646c6461746160d81b6064820152608401610186565b5f61398d603c602836846145f4565b61399691614653565b60601c90505f6139aa605c604836846145f4565b6139b391614653565b60601c90506139c282826141fa565b604080519115156020830152016132d7565b60405163e0b490f760e01b81526001600160a01b03821660048201525f906370a0823160e01b90829081906101679063e0b490f790602401612e55565b5f5f613a1c836139d4565b549392505050565b6001600160a01b038316613a705760405162461bcd60e51b8152602060048201526013602482015272343a399d1034b73b30b634b21039b2b73232b960691b6044820152606401610186565b6001600160a01b038216613abe5760405162461bcd60e51b8152602060048201526015602482015274343a399d1034b73b30b634b2103932b1b2b4bb32b960591b6044820152606401610186565b613ac9838383610f6e565b816001600160a01b0316836001600160a01b03167fddf252ad1be2c89b69c2b068fc378daa952ba7f163c4a11628f55a4df523b3ef83604051613b0e91815260200190565b60405180910390a3505050565b5f613b268484613b93565b90505f198114613b8d5781811015613b805760405162461bcd60e51b815260206004820152601d60248201527f5f7370656e64416c6c6f77616e63653a20696e73756666696369656e740000006044820152606401610186565b613b8d8484848403613ba8565b50505050565b5f5f613b9f8484614206565b54949350505050565b6001600160a01b038316613bfe5760405162461bcd60e51b815260206004820152601760248201527f5f617070726f76653a20696e76616c6964206f776e65720000000000000000006044820152606401610186565b6001600160a01b038216613c545760405162461bcd60e51b815260206004820152601960248201527f5f617070726f76653a20696e76616c6964207370656e646572000000000000006044820152606401610186565b5f613c5f8484614206565b91909155505050565b6060637ac5590d60e11b6001600160e01b0319831601613ca8575f613c8c33612e1c565b9050600181556001604051602001613035911515815260200190565b63051b6f4160e51b6001600160e01b0319831601613ce1575f613cca33612e1c565b5f8155604080516001602082015291925001613035565b63b270229360e01b6001600160e01b0319831601613d1c575f613d0333612e1c565b80546040805182151560208201529293509091016132d7565b60405162461bcd60e51b815260206004820152601f60248201527f7265646972656374466f72546f6b656e3a206e6f7420737570706f72746564006044820152606401610186565b60605f613d7083614326565b90505f819050808054613d829061522f565b80601f0160208091040260200160405190810160405280929190818152602001828054613dae9061522f565b8015613df95780601f10613dd057610100808354040283529160200191613df9565b820191905f5260205f20905b815481529060010190602001808311613ddc57829003601f168201915b505050505092505050919050565b5f5f613a1c83614368565b6001600160a01b038316613e5e5760405162461bcd60e51b8152602060048201526013602482015272343a399d1034b73b30b634b21039b2b73232b960691b6044820152606401610186565b6001600160a01b038216613eac5760405162461bcd60e51b8152602060048201526015602482015274343a399d1034b73b30b634b2103932b1b2b4bb32b960591b6044820152606401610186565b5f613eb682614368565b80549091506001600160a01b0380821690861614613f165760405162461bcd60e51b815260206004820152601860248201527f6874733a2073656e646572206973206e6f74206f776e657200000000000000006044820152606401610186565b336001600160a01b03861614613f9357613f2f836141ef565b6001600160a01b0316336001600160a01b03161480613f535750613f5385336141fa565b613f935760405162461bcd60e51b81526020600482015260116024820152701a1d1cce881d5b985d5d1a1bdc9a5e9959607a1b6044820152606401610186565b5f613f9d8461438a565b90505f81555f613fad87876143ac565b90505f8155858455856001600160a01b0316876001600160a01b03167fddf252ad1be2c89b69c2b068fc378daa952ba7f163c4a11628f55a4df523b3ef87604051613ffa91815260200190565b60405180910390a350505050505050565b5f61401583613e07565b9050336001600160a01b038216148061403e575033614033846141ef565b6001600160a01b0316145b8061404e575061404e81336141fa565b6140935760405162461bcd60e51b815260206004820152601660248201527517d85c1c1c9bdd994e881d5b985d5d1a1bdc9a5e995960521b6044820152606401610186565b5f61409d8461438a565b90505f836140ab575f6140ad565b855b9050808255856001600160a01b0316836001600160a01b03167f8c5be1e5ebec7d5bd14f71427d1e84f3dd0314c0f7b2291e5b200ac8c7c3b925876040516140f791815260200190565b60405180910390a3505050505050565b336001600160a01b038316158015906141325750806001600160a01b0316836001600160a01b031614155b61418a5760405162461bcd60e51b815260206004820152602360248201527f736574417070726f76616c466f72416c6c3a20696e76616c6964206f706572616044820152623a37b960e91b6064820152608401610186565b5f61419582856143ac565b9050828155836001600160a01b0316826001600160a01b03167f17307eab39ab6107e8899845ad3d59bd9653f200f220920489ca2b5937696c31856040516141e1911515815260200190565b60405180910390a350505050565b5f5f613a1c8361438a565b5f5f613b9f84846143ac565b60405163e0b490f760e01b81526001600160a01b03831660048201525f90636eb1769f60e11b90829081906101679063e0b490f790602401602060405180830381865afa158015614259573d5f5f3e3d5ffd5b505050506040513d601f19601f8201168201806040525081019061427d91906161d5565b60405163e0b490f760e01b81526001600160a01b03871660048201529091505f906101679063e0b490f790602401602060405180830381865afa1580156142c6573d5f5f3e3d5ffd5b505050506040513d601f19601f820116820180604052508101906142ea91906161d5565b9050838382846040516020016143039493929190616251565b60405160208183030381529060405261431b90616199565b979650505050505050565b6040515f9063c87b56dd60e01b908290614348908390839087906020016161f8565b60405160208183030381529060405261436090616199565b949350505050565b6040515f906331a9108f60e11b908290614348908390839087906020016161f8565b6040515f9063020604bf60e21b908290614348908390839087906020016161f8565b60405163e0b490f760e01b81526001600160a01b03831660048201525f9063e985e9c560e01b90829081906101679063e0b490f790602401602060405180830381865afa1580156143ff573d5f5f3e3d5ffd5b505050506040513d601f19601f8201168201806040525081019061442391906161d5565b60405163e0b490f760e01b81526001600160a01b03871660048201529091505f906101679063e0b490f790602401602060405180830381865afa15801561446c573d5f5f3e3d5ffd5b505050506040513d601f19601f8201168201806040525081019061449091906161d5565b9050838383836040516020016143039493929190616251565b60408051610240810182526060610120820181815261014083018290525f610160840181905261018084018390526101a084018190526101c084018190526101e08401819052610200840183905284519283018552808352602083018190529382019390935261022082015290819081526020015f60070b81526020015f151581526020015f151581526020015f15158152602001606081526020016060815260200160608152602001606081525090565b6040518060c0016040528061456e6144a9565b81525f60208201819052604082018190526060808301829052608083015260a09091015290565b6040518060a001604052805f151581526020015f6001600160a01b0316815260200160608152602001606081526020015f6001600160a01b031681525090565b60405180604001604052806145e86144a9565b81525f60209091015290565b5f5f85851115614602575f5ffd5b8386111561460e575f5ffd5b5050820193919092039150565b80356001600160e01b0319811690600484101561464c576001600160e01b0319600485900360031b81901b82161691505b5092915050565b80356001600160601b0319811690601484101561464c576001600160601b031960149490940360031b84901b1690921692915050565b6001600160a01b038116811461469d575f5ffd5b50565b5f5f604083850312156146b1575f5ffd5b82356146bc81614689565b946020939093013593505050565b5f5f604083850312156146db575f5ffd5b82356146e681614689565b915060208301356146f681614689565b809150509250929050565b5f5f5f60608486031215614713575f5ffd5b833561471e81614689565b9250602084013561472e81614689565b929592945050506040919091013590565b5f6020828403121561474f575f5ffd5b813561475a81614689565b9392505050565b5f81518084528060208401602086015e5f602082860101526020601f19601f83011685010191505092915050565b80511515825260018060a01b0360208201511660208301525f604082015160a060408501526147c160a0850182614761565b9050606083015184820360608601526147da8282614761565b6080948501516001600160a01b03169590940194909452509092915050565b5f82825180855260208501945060208160051b830101602085015f5b8381101561485e57601f198584030188528151805184526020810151905060406020850152614847604085018261478f565b6020998a0199909450929092019150600101614815565b50909695505050505050565b5f81516101608452614880610160850182614761565b9050602083015184820360208601526148998282614761565b91505060408301516148b660408601826001600160a01b03169052565b50606083015184820360608601526148ce8282614761565b91505060808301516148e4608086018215159052565b5060a08301516148f960a086018260070b9052565b5060c083015161490d60c086018215159052565b5060e083015184820360e086015261492582826147f9565b9150506101008301516149606101008601828051600790810b83526020808301516001600160a01b031690840152604091820151900b910152565b509392505050565b5f8151808452602084019350602083015f5b828110156149d8578151805160070b87526020808201516001600160a01b03908116828a01526040808401511515908a01526060808401511515908a0152608092830151169188019190915260a0909601959091019060010161497a565b5093949350505050565b5f8151808452602084019350602083015f5b828110156149d85781515f815160070b8852602082015160070b6020890152604082015160070b6040890152606082015160070b606089015260808201511515608089015260018060a01b0360a08301511660a089015260c08801905080975050506020820191506001810190506149f4565b5f8151808452602084019350602083015f5b828110156149d85781515f815160070b8852602082015160070b6020890152604082015160070b604089015260018060a01b03606083015116606089015260808201511515608089015260018060a01b0360a08301511660a089015260c0880190508097505050602082019150600181019050614a79565b5f81516101208452614b0761012085018261486a565b90506020830151614b1d602086018260070b9052565b506040830151614b31604086018215159052565b506060830151614b45606086018215159052565b506080830151614b59608086018215159052565b5060a083015184820360a0860152614b718282614968565b91505060c083015184820360c0860152614b8b82826149e2565b91505060e083015184820360e0860152614ba58282614a67565b915050610100830151848203610100860152612ec38282614761565b8260070b8152604060208201525f6143606040830184614af1565b8060070b811461469d575f5ffd5b5f5f60408385031215614bfb575f5ffd5b8235614c0681614689565b915060208301356146f681614bdc565b8260070b8152604060208201525f825160c06040840152614c3b610100840182614af1565b9050602084015160070b606084015260018060a01b036040850151166080840152606084015160070b60a08401526080840151603f198483030160c0850152614c848282614761565b60a095909501516001600160a01b031660e0949094019390935250919392505050565b634e487b7160e01b5f52604160045260245ffd5b604080519081016001600160401b0381118282101715614cdd57614cdd614ca7565b60405290565b60405160a081016001600160401b0381118282101715614cdd57614cdd614ca7565b60405161012081016001600160401b0381118282101715614cdd57614cdd614ca7565b60405160c081016001600160401b0381118282101715614cdd57614cdd614ca7565b604051601f8201601f191681016001600160401b0381118282101715614d7257614d72614ca7565b604052919050565b5f6001600160401b03821115614d9257614d92614ca7565b5060051b60200190565b5f82601f830112614dab575f5ffd5b8135614dbe614db982614d7a565b614d4a565b8082825260208201915060208360051b860101925085831115614ddf575f5ffd5b602085015b83811015614e05578035614df781614689565b835260209283019201614de4565b5095945050505050565b5f5f60408385031215614e20575f5ffd5b8235614e2b81614689565b915060208301356001600160401b03811115614e45575f5ffd5b614e5185828601614d9c565b9150509250929050565b8260070b8152604060208201525f614360604083018461478f565b8260070b8152604060208201525f8251604080840152614e996080840182614af1565b9050602084015160030b6060840152809150509392505050565b5f82601f830112614ec2575f5ffd5b8135614ed0614db982614d7a565b8082825260208201915060208360051b860101925085831115614ef1575f5ffd5b602085015b83811015614e05578035614f0981614bdc565b835260209283019201614ef6565b5f5f5f60608486031215614f29575f5ffd5b8335614f3481614689565b925060208401356001600160401b03811115614f4e575f5ffd5b614f5a86828701614d9c565b92505060408401356001600160401b03811115614f75575f5ffd5b614f8186828701614eb3565b9150509250925092565b8460070b8152608060208201525f614fa66080830186614968565b8281036040840152614fb881866149e2565b9050828103606084015261431b8185614a67565b600783900b81526080810161475a60208301848051600790810b83526020808301516001600160a01b031690840152604091820151900b910152565b5f5f5f6060848603121561501a575f5ffd5b833561502581614689565b9250602084013561503581614bdc565b915060408401356001600160401b03811115614f75575f5ffd5b5f6001600160401b0382111561506757615067614ca7565b50601f01601f191660200190565b5f5f5f60608486031215615087575f5ffd5b833561509281614689565b925060208401356150a281614bdc565b915060408401356001600160401b038111156150bc575f5ffd5b8401601f810186136150cc575f5ffd5b80356150da614db982614d7a565b8082825260208201915060208360051b8501019250888311156150fb575f5ffd5b602084015b8381101561517b5780356001600160401b0381111561511d575f5ffd5b8501603f81018b1361512d575f5ffd5b602081013561513e614db98261504f565b8181526040838301018d1015615152575f5ffd5b816040840160208301375f60208383010152808652505050602083019250602081019050615100565b50809450505050509250925092565b5f606082018560070b83528460070b6020840152606060408401528084518083526080850191506020860192505f5b818110156151da57835160070b8352602093840193909201916001016151b9565b5090979650505050505050565b5f5f5f606084860312156151f9575f5ffd5b833561520481614689565b9250602084013561521481614689565b9150604084013561522481614689565b809150509250925092565b600181811c9082168061524357607f821691505b60208210810361526157634e487b7160e01b5f52602260045260245ffd5b50919050565b5f81546152738161522f565b60018216801561528a576001811461529f576152cc565b60ff19831686528115158202860193506152cc565b845f5260205f205f5b838110156152c4578154888201526001909101906020016152a8565b505081860193505b50505092915050565b5f61475a8284615267565b5f81546152ec8161522f565b8085526001821680156153065760018114615322576152cc565b60ff1983166020870152602082151560051b87010193506152cc565b845f5260205f205f5b8381101561534d5781546020828a01015260018201915060208101905061532b565b870160200194505050505092915050565b5f82825480855260208501945060208160051b830101845f5260205f205f5b8381101561485e57848303601f1901885281548352604060208401819052600183015460ff811615159185019190915260081c6001600160a01b0316606084015260a060808401526153d560e08401600284016152e0565b838103603f190160a08501526153ee81600385016152e0565b60048401546001600160a01b031660c09590950194909452506020979097019660059091019060010161537d565b61016082525f6154306101608401836152e0565b838103602085015261544581600185016152e0565b905061545b60028401546001600160a01b031690565b6001600160a01b03166040850152838103606085015261547e81600385016152e0565b905060048301546154966080860160ff831615159052565b600881901c60070b60a08601526154b760c0860160ff8360481c1615159052565b5083810360e08501526154cd816005850161535e565b905061475a6101008501600685018054600781810b8452604091821c6001600160a01b0316602085015260019092015490910b910152565b5f8154808452602084019350825f5260205f205f5b828110156149d8578154600781900b8752604081811c6001600160a01b0390811660208a015260e083901c60ff9081161515928a019290925260e89290921c1615156060880152600180840154909116608088015260a0909601956002909201910161551a565b5f8154808452602084019350825f5260205f205f5b828110156149d8575f82548060070b88528060401c60070b60208901528060801c60070b60408901528060c01d60070b60608901525060018301546155e26080890160ff831615159052565b60081c6001600160a01b031660a08801525060c09095019460029190910190600101615596565b5f8154808452602084019350825f5260205f205f5b828110156149d8575f82548060070b88528060401c60070b60208901528060801c60070b604089015250600183015460018060a01b038116606089015261566f6080890160ff8360a01c1615159052565b505060028201546001600160a01b031660a087015260c09095019460039091019060010161561e565b60ff831681526040602082015261012060408201525f6156bc61016083018461541c565b6008840154600781900b60608501526156df6080850160ff8360401c1615159052565b6156f360a0850160ff8360481c1615159052565b61570760c0850160ff8360501c1615159052565b50828103603f190160e08401526157218160098601615505565b838103603f1901610100850152905061573d81600a8601615581565b838103603f1901610120850152905061575981600b8601615609565b838103603f19016101408501529050612ec381600c86016152e0565b60ff85168152608060208201525f6157906080830186615505565b82810360408401526157a28186615581565b9050828103606084015261431b8185615609565b60ff831681526080810161475a60208301848054600781810b8452604091821c6001600160a01b0316602085015260019092015490910b910152565b80356020831015610f68575f19602084900360031b1b1692915050565b60208082526017908201527f68747343616c6c3a2064656c6567617465642063616c6c000000000000000000604082015260600190565b805161585181614689565b919050565b5f60208284031215615866575f5ffd5b815161475a81614689565b634e487b7160e01b5f52603260045260245ffd5b634e487b7160e01b5f52601160045260245ffd5b80820180821115610f6857610f68615885565b81810381811115610f6857610f68615885565b5f82518060208501845e5f920191825250919050565b805161585181614bdc565b5f82601f8301126158ef575f5ffd5b8151602083015f615902614db98461504f565b9050828152858383011115615915575f5ffd5b8282602083015e5f92810160200192909252509392505050565b80518015158114615851575f5ffd5b5f82601f83011261594d575f5ffd5b815161595b614db982614d7a565b8082825260208201915060208360051b86010192508583111561597c575f5ffd5b602085015b83811015614e055780516001600160401b0381111561599e575f5ffd5b86016040818903601f190112156159b3575f5ffd5b6159bb614cbb565b6020820151815260408201516001600160401b038111156159da575f5ffd5b60208184010192505060a0828a0312156159f2575f5ffd5b6159fa614ce3565b615a038361592f565b81526020830151615a1381614689565b602082015260408301516001600160401b03811115615a30575f5ffd5b615a3c8b8286016158e0565b60408301525060608301516001600160401b03811115615a5a575f5ffd5b615a668b8286016158e0565b60608301525060808301519250615a7c83614689565b608081019290925260208181019290925284529283019201615981565b5f60608284031215615aa9575f5ffd5b604051606081016001600160401b0381118282101715615acb57615acb614ca7565b80604052508091508251615ade81614bdc565b81526020830151615aee81614689565b60208201526040830151615b0181614bdc565b6040919091015292915050565b5f6101608284031215615b1f575f5ffd5b615b27614d05565b905081516001600160401b03811115615b3e575f5ffd5b615b4a848285016158e0565b82525060208201516001600160401b03811115615b65575f5ffd5b615b71848285016158e0565b602083015250615b8360408301615846565b604082015260608201516001600160401b03811115615ba0575f5ffd5b615bac848285016158e0565b606083015250615bbe6080830161592f565b6080820152615bcf60a083016158d5565b60a0820152615be060c0830161592f565b60c082015260e08201516001600160401b03811115615bfd575f5ffd5b615c098482850161593e565b60e083015250615c1d836101008401615a99565b61010082015292915050565b5f82601f830112615c38575f5ffd5b8151615c46614db982614d7a565b80828252602082019150602060a08402860101925085831115615c67575f5ffd5b602085015b83811015614e055760a08188031215615c83575f5ffd5b615c8b614ce3565b8151615c9681614bdc565b81526020820151615ca681614689565b6020820152615cb76040830161592f565b6040820152615cc86060830161592f565b60608201526080820151615cdb81614689565b6080820152835260209092019160a001615c6c565b5f82601f830112615cff575f5ffd5b8151615d0d614db982614d7a565b80828252602082019150602060c08402860101925085831115615d2e575f5ffd5b602085015b83811015614e055760c08188031215615d4a575f5ffd5b615d52614d28565b8151615d5d81614bdc565b81526020820151615d6d81614bdc565b60208201526040820151615d8081614bdc565b60408201526060820151615d9381614bdc565b6060820152615da46080830161592f565b608082015260a0820151615db781614689565b60a0820152835260209092019160c001615d33565b5f82601f830112615ddb575f5ffd5b8151615de9614db982614d7a565b80828252602082019150602060c08402860101925085831115615e0a575f5ffd5b602085015b83811015614e055760c08188031215615e26575f5ffd5b615e2e614d28565b8151615e3981614bdc565b81526020820151615e4981614bdc565b60208201526040820151615e5c81614bdc565b60408201526060820151615e6f81614689565b6060820152615e806080830161592f565b608082015260a0820151615e9381614689565b60a0820152835260209092019160c001615e0f565b5f5f60408385031215615eb9575f5ffd5b8251615ec481614bdc565b60208401519092506001600160401b03811115615edf575f5ffd5b83016101208186031215615ef1575f5ffd5b615ef9614d05565b81516001600160401b03811115615f0e575f5ffd5b615f1a87828501615b0e565b825250615f29602083016158d5565b6020820152615f3a6040830161592f565b6040820152615f4b6060830161592f565b6060820152615f5c6080830161592f565b608082015260a08201516001600160401b03811115615f79575f5ffd5b615f8587828501615c29565b60a08301525060c08201516001600160401b03811115615fa3575f5ffd5b615faf87828501615cf0565b60c08301525060e08201516001600160401b03811115615fcd575f5ffd5b615fd987828501615dcc565b60e0830152506101008201516001600160401b03811115615ff8575f5ffd5b616004878285016158e0565b6101008301525080925050509250929050565b5f60208284031215616027575f5ffd5b815161475a81614bdc565b5f5f60408385031215616043575f5ffd5b825161604e81614bdc565b915061605c6020840161592f565b90509250929050565b5f60208284031215616075575f5ffd5b815160ff8116811461475a575f5ffd5b5f5f60408385031215616096575f5ffd5b82516160a181614bdc565b8092505060208301518060030b81146146f6575f5ffd5b5f5f5f5f608085870312156160cb575f5ffd5b84516160d681614bdc565b60208601519094506001600160401b038111156160f1575f5ffd5b6160fd87828801615c29565b93505060408501516001600160401b03811115616118575f5ffd5b61612487828801615cf0565b92505060608501516001600160401b0381111561613f575f5ffd5b61614b87828801615dcc565b91505092959194509250565b5f5f60808385031215616168575f5ffd5b825161617381614bdc565b915061605c8460208501615a99565b5f60208284031215616192575f5ffd5b5051919050565b80516020808301519190811015615261575f1960209190910360031b1b16919050565b5f602082840312156161cc575f5ffd5b61475a8261592f565b5f602082840312156161e5575f5ffd5b815163ffffffff8116811461475a575f5ffd5b6001600160e01b0319938416815260409290921b67ffffffffffffffff1916600483015260e01b909116601c82015260200190565b602081525f61475a60208301846152e0565b602081525f61475a6020830184614761565b6001600160e01b0319948516815260609390931b6001600160601b031916600484015260e091821b84166018840152901b909116601c8201526020019056fea26469706673582212203255930881aa59e457eed602b9fd07be5a8938402ea7506cb741aef8f20ff05764736f6c634300081c0033",
        "linkReferences": {}
    },
    "methodIdentifiers": {
        "_update(address,address,uint256)": "0bb3bfa8",
        "associateToken(address,address)": "49146bde",
        "associateTokens(address,address[])": "2e63879b",
        "burnToken(address,int64,int64[])": "d6910d06",
        "dissociateToken(address,address)": "099794e8",
        "dissociateTokens(address,address[])": "78b63918",
        "getAccountId(address)": "e0b490f7",
        "getApproved(address,uint256)": "098f2366",
        "getFungibleTokenInfo(address)": "3f28a19b",
        "getNonFungibleTokenInfo(address,int64)": "287e1da8",
        "getTokenCustomFees(address)": "ae7611a0",
        "getTokenDefaultFreezeStatus(address)": "a7daa18d",
        "getTokenDefaultKycStatus(address)": "335e04c1",
        "getTokenExpiryInfo(address)": "d614cdb8",
        "getTokenInfo(address)": "1f69565f",
        "getTokenKey(address,uint256)": "3c4dd32e",
        "getTokenType(address)": "93272baf",
        "isApprovedForAll(address,address,address)": "f49f40db",
        "isToken(address)": "19f37361",
        "mintToken(address,int64,bytes[])": "e0f4059a",
        "transferTokens(address,address[],int64[])": "82bba493"
    },
    "storageLayout": {
        "storage": [
            {
                "astId": 91,
                "contract": "contracts/HtsSystemContract.sol:HtsSystemContract",
                "label": "tokenType",
                "offset": 0,
                "slot": "0",
                "type": "t_string_storage"
            },
            {
                "astId": 93,
                "contract": "contracts/HtsSystemContract.sol:HtsSystemContract",
                "label": "name",
                "offset": 0,
                "slot": "1",
                "type": "t_string_storage"
            },
            {
                "astId": 95,
                "contract": "contracts/HtsSystemContract.sol:HtsSystemContract",
                "label": "symbol",
                "offset": 0,
                "slot": "2",
                "type": "t_string_storage"
            },
            {
                "astId": 97,
                "contract": "contracts/HtsSystemContract.sol:HtsSystemContract",
                "label": "decimals",
                "offset": 0,
                "slot": "3",
                "type": "t_uint8"
            },
            {
                "astId": 99,
                "contract": "contracts/HtsSystemContract.sol:HtsSystemContract",
                "label": "totalSupply",
                "offset": 0,
                "slot": "4",
                "type": "t_uint256"
            },
            {
                "astId": 102,
                "contract": "contracts/HtsSystemContract.sol:HtsSystemContract",
                "label": "_tokenInfo",
                "offset": 0,
                "slot": "5",
                "type": "t_struct(TokenInfo)6581_storage"
            }
        ],
        "types": {
            "t_address": {
                "encoding": "inplace",
                "label": "address",
                "numberOfBytes": "20"
            },
            "t_array(t_struct(FixedFee)6623_storage)dyn_storage": {
                "encoding": "dynamic_array",
                "label": "struct IHederaTokenService.FixedFee[]",
                "numberOfBytes": "32",
                "base": "t_struct(FixedFee)6623_storage"
            },
            "t_array(t_struct(FractionalFee)6637_storage)dyn_storage": {
                "encoding": "dynamic_array",
                "label": "struct IHederaTokenService.FractionalFee[]",
                "numberOfBytes": "32",
                "base": "t_struct(FractionalFee)6637_storage"
            },
            "t_array(t_struct(RoyaltyFee)6651_storage)dyn_storage": {
                "encoding": "dynamic_array",
                "label": "struct IHederaTokenService.RoyaltyFee[]",
                "numberOfBytes": "32",
                "base": "t_struct(RoyaltyFee)6651_storage"
            },
            "t_array(t_struct(TokenKey)6522_storage)dyn_storage": {
                "encoding": "dynamic_array",
                "label": "struct IHederaTokenService.TokenKey[]",
                "numberOfBytes": "32",
                "base": "t_struct(TokenKey)6522_storage"
            },
            "t_bool": {
                "encoding": "inplace",
                "label": "bool",
                "numberOfBytes": "1"
            },
            "t_bytes_storage": {
                "encoding": "bytes",
                "label": "bytes",
                "numberOfBytes": "32"
            },
            "t_int64": {
                "encoding": "inplace",
                "label": "int64",
                "numberOfBytes": "8"
            },
            "t_string_storage": {
                "encoding": "bytes",
                "label": "string",
                "numberOfBytes": "32"
            },
            "t_struct(Expiry)6503_storage": {
                "encoding": "inplace",
                "label": "struct IHederaTokenService.Expiry",
                "numberOfBytes": "64",
                "members": [
                    {
                        "astId": 6498,
                        "contract": "contracts/HtsSystemContract.sol:HtsSystemContract",
                        "label": "second",
                        "offset": 0,
                        "slot": "0",
                        "type": "t_int64"
                    },
                    {
                        "astId": 6500,
                        "contract": "contracts/HtsSystemContract.sol:HtsSystemContract",
                        "label": "autoRenewAccount",
                        "offset": 8,
                        "slot": "0",
                        "type": "t_address"
                    },
                    {
                        "astId": 6502,
                        "contract": "contracts/HtsSystemContract.sol:HtsSystemContract",
                        "label": "autoRenewPeriod",
                        "offset": 0,
                        "slot": "1",
                        "type": "t_int64"
                    }
                ]
            },
            "t_struct(FixedFee)6623_storage": {
                "encoding": "inplace",
                "label": "struct IHederaTokenService.FixedFee",
                "numberOfBytes": "64",
                "members": [
                    {
                        "astId": 6614,
                        "contract": "contracts/HtsSystemContract.sol:HtsSystemContract",
                        "label": "amount",
                        "offset": 0,
                        "slot": "0",
                        "type": "t_int64"
                    },
                    {
                        "astId": 6616,
                        "contract": "contracts/HtsSystemContract.sol:HtsSystemContract",
                        "label": "tokenId",
                        "offset": 8,
                        "slot": "0",
                        "type": "t_address"
                    },
                    {
                        "astId": 6618,
                        "contract": "contracts/HtsSystemContract.sol:HtsSystemContract",
                        "label": "useHbarsForPayment",
                        "offset": 28,
                        "slot": "0",
                        "type": "t_bool"
                    },
                    {
                        "astId": 6620,
                        "contract": "contracts/HtsSystemContract.sol:HtsSystemContract",
                        "label": "useCurrentTokenForPayment",
                        "offset": 29,
                        "slot": "0",
                        "type": "t_bool"
                    },
                    {
                        "astId": 6622,
                        "contract": "contracts/HtsSystemContract.sol:HtsSystemContract",
                        "label": "feeCollector",
                        "offset": 0,
                        "slot": "1",
                        "type": "t_address"
                    }
                ]
            },
            "t_struct(FractionalFee)6637_storage": {
                "encoding": "inplace",
                "label": "struct IHederaTokenService.FractionalFee",
                "numberOfBytes": "64",
                "members": [
                    {
                        "astId": 6626,
                        "contract": "contracts/HtsSystemContract.sol:HtsSystemContract",
                        "label": "numerator",
                        "offset": 0,
                        "slot": "0",
                        "type": "t_int64"
                    },
                    {
                        "astId": 6628,
                        "contract": "contracts/HtsSystemContract.sol:HtsSystemContract",
                        "label": "denominator",
                        "offset": 8,
                        "slot": "0",
                        "type": "t_int64"
                    },
                    {
                        "astId": 6630,
                        "contract": "contracts/HtsSystemContract.sol:HtsSystemContract",
                        "label": "minimumAmount",
                        "offset": 16,
                        "slot": "0",
                        "type": "t_int64"
                    },
                    {
                        "astId": 6632,
                        "contract": "contracts/HtsSystemContract.sol:HtsSystemContract",
                        "label": "maximumAmount",
                        "offset": 24,
                        "slot": "0",
                        "type": "t_int64"
                    },
                    {
                        "astId": 6634,
                        "contract": "contracts/HtsSystemContract.sol:HtsSystemContract",
                        "label": "netOfTransfers",
                        "offset": 0,
                        "slot": "1",
                        "type": "t_bool"
                    },
                    {
                        "astId": 6636,
                        "contract": "contracts/HtsSystemContract.sol:HtsSystemContract",
                        "label": "feeCollector",
                        "offset": 1,
                        "slot": "1",
                        "type": "t_address"
                    }
                ]
            },
            "t_struct(HederaToken)6545_storage": {
                "encoding": "inplace",
                "label": "struct IHederaTokenService.HederaToken",
                "numberOfBytes": "256",
                "members": [
                    {
                        "astId": 6525,
                        "contract": "contracts/HtsSystemContract.sol:HtsSystemContract",
                        "label": "name",
                        "offset": 0,
                        "slot": "0",
                        "type": "t_string_storage"
                    },
                    {
                        "astId": 6527,
                        "contract": "contracts/HtsSystemContract.sol:HtsSystemContract",
                        "label": "symbol",
                        "offset": 0,
                        "slot": "1",
                        "type": "t_string_storage"
                    },
                    {
                        "astId": 6529,
                        "contract": "contracts/HtsSystemContract.sol:HtsSystemContract",
                        "label": "treasury",
                        "offset": 0,
                        "slot": "2",
                        "type": "t_address"
                    },
                    {
                        "astId": 6531,
                        "contract": "contracts/HtsSystemContract.sol:HtsSystemContract",
                        "label": "memo",
                        "offset": 0,
                        "slot": "3",
                        "type": "t_string_storage"
                    },
                    {
                        "astId": 6533,
                        "contract": "contracts/HtsSystemContract.sol:HtsSystemContract",
                        "label": "tokenSupplyType",
                        "offset": 0,
                        "slot": "4",
                        "type": "t_bool"
                    },
                    {
                        "astId": 6535,
                        "contract": "contracts/HtsSystemContract.sol:HtsSystemContract",
                        "label": "maxSupply",
                        "offset": 1,
                        "slot": "4",
                        "type": "t_int64"
                    },
                    {
                        "astId": 6537,
                        "contract": "contracts/HtsSystemContract.sol:HtsSystemContract",
                        "label": "freezeDefault",
                        "offset": 9,
                        "slot": "4",
                        "type": "t_bool"
                    },
                    {
                        "astId": 6541,
                        "contract": "contracts/HtsSystemContract.sol:HtsSystemContract",
                        "label": "tokenKeys",
                        "offset": 0,
                        "slot": "5",
                        "type": "t_array(t_struct(TokenKey)6522_storage)dyn_storage"
                    },
                    {
                        "astId": 6544,
                        "contract": "contracts/HtsSystemContract.sol:HtsSystemContract",
                        "label": "expiry",
                        "offset": 0,
                        "slot": "6",
                        "type": "t_struct(Expiry)6503_storage"
                    }
                ]
            },
            "t_struct(KeyValue)6515_storage": {
                "encoding": "inplace",
                "label": "struct IHederaTokenService.KeyValue",
                "numberOfBytes": "128",
                "members": [
                    {
                        "astId": 6506,
                        "contract": "contracts/HtsSystemContract.sol:HtsSystemContract",
                        "label": "inheritAccountKey",
                        "offset": 0,
                        "slot": "0",
                        "type": "t_bool"
                    },
                    {
                        "astId": 6508,
                        "contract": "contracts/HtsSystemContract.sol:HtsSystemContract",
                        "label": "contractId",
                        "offset": 1,
                        "slot": "0",
                        "type": "t_address"
                    },
                    {
                        "astId": 6510,
                        "contract": "contracts/HtsSystemContract.sol:HtsSystemContract",
                        "label": "ed25519",
                        "offset": 0,
                        "slot": "1",
                        "type": "t_bytes_storage"
                    },
                    {
                        "astId": 6512,
                        "contract": "contracts/HtsSystemContract.sol:HtsSystemContract",
                        "label": "ECDSA_secp256k1",
                        "offset": 0,
                        "slot": "2",
                        "type": "t_bytes_storage"
                    },
                    {
                        "astId": 6514,
                        "contract": "contracts/HtsSystemContract.sol:HtsSystemContract",
                        "label": "delegatableContractId",
                        "offset": 0,
                        "slot": "3",
                        "type": "t_address"
                    }
                ]
            },
            "t_struct(RoyaltyFee)6651_storage": {
                "encoding": "inplace",
                "label": "struct IHederaTokenService.RoyaltyFee",
                "numberOfBytes": "96",
                "members": [
                    {
                        "astId": 6640,
                        "contract": "contracts/HtsSystemContract.sol:HtsSystemContract",
                        "label": "numerator",
                        "offset": 0,
                        "slot": "0",
                        "type": "t_int64"
                    },
                    {
                        "astId": 6642,
                        "contract": "contracts/HtsSystemContract.sol:HtsSystemContract",
                        "label": "denominator",
                        "offset": 8,
                        "slot": "0",
                        "type": "t_int64"
                    },
                    {
                        "astId": 6644,
                        "contract": "contracts/HtsSystemContract.sol:HtsSystemContract",
                        "label": "amount",
                        "offset": 16,
                        "slot": "0",
                        "type": "t_int64"
                    },
                    {
                        "astId": 6646,
                        "contract": "contracts/HtsSystemContract.sol:HtsSystemContract",
                        "label": "tokenId",
                        "offset": 0,
                        "slot": "1",
                        "type": "t_address"
                    },
                    {
                        "astId": 6648,
                        "contract": "contracts/HtsSystemContract.sol:HtsSystemContract",
                        "label": "useHbarsForPayment",
                        "offset": 20,
                        "slot": "1",
                        "type": "t_bool"
                    },
                    {
                        "astId": 6650,
                        "contract": "contracts/HtsSystemContract.sol:HtsSystemContract",
                        "label": "feeCollector",
                        "offset": 0,
                        "slot": "2",
                        "type": "t_address"
                    }
                ]
            },
            "t_struct(TokenInfo)6581_storage": {
                "encoding": "inplace",
                "label": "struct IHederaTokenService.TokenInfo",
                "numberOfBytes": "416",
                "members": [
                    {
                        "astId": 6550,
                        "contract": "contracts/HtsSystemContract.sol:HtsSystemContract",
                        "label": "token",
                        "offset": 0,
                        "slot": "0",
                        "type": "t_struct(HederaToken)6545_storage"
                    },
                    {
                        "astId": 6553,
                        "contract": "contracts/HtsSystemContract.sol:HtsSystemContract",
                        "label": "totalSupply",
                        "offset": 0,
                        "slot": "8",
                        "type": "t_int64"
                    },
                    {
                        "astId": 6556,
                        "contract": "contracts/HtsSystemContract.sol:HtsSystemContract",
                        "label": "deleted",
                        "offset": 8,
                        "slot": "8",
                        "type": "t_bool"
                    },
                    {
                        "astId": 6559,
                        "contract": "contracts/HtsSystemContract.sol:HtsSystemContract",
                        "label": "defaultKycStatus",
                        "offset": 9,
                        "slot": "8",
                        "type": "t_bool"
                    },
                    {
                        "astId": 6562,
                        "contract": "contracts/HtsSystemContract.sol:HtsSystemContract",
                        "label": "pauseStatus",
                        "offset": 10,
                        "slot": "8",
                        "type": "t_bool"
                    },
                    {
                        "astId": 6567,
                        "contract": "contracts/HtsSystemContract.sol:HtsSystemContract",
                        "label": "fixedFees",
                        "offset": 0,
                        "slot": "9",
                        "type": "t_array(t_struct(FixedFee)6623_storage)dyn_storage"
                    },
                    {
                        "astId": 6572,
                        "contract": "contracts/HtsSystemContract.sol:HtsSystemContract",
                        "label": "fractionalFees",
                        "offset": 0,
                        "slot": "10",
                        "type": "t_array(t_struct(FractionalFee)6637_storage)dyn_storage"
                    },
                    {
                        "astId": 6577,
                        "contract": "contracts/HtsSystemContract.sol:HtsSystemContract",
                        "label": "royaltyFees",
                        "offset": 0,
                        "slot": "11",
                        "type": "t_array(t_struct(RoyaltyFee)6651_storage)dyn_storage"
                    },
                    {
                        "astId": 6580,
                        "contract": "contracts/HtsSystemContract.sol:HtsSystemContract",
                        "label": "ledgerId",
                        "offset": 0,
                        "slot": "12",
                        "type": "t_string_storage"
                    }
                ]
            },
            "t_struct(TokenKey)6522_storage": {
                "encoding": "inplace",
                "label": "struct IHederaTokenService.TokenKey",
                "numberOfBytes": "160",
                "members": [
                    {
                        "astId": 6518,
                        "contract": "contracts/HtsSystemContract.sol:HtsSystemContract",
                        "label": "keyType",
                        "offset": 0,
                        "slot": "0",
                        "type": "t_uint256"
                    },
                    {
                        "astId": 6521,
                        "contract": "contracts/HtsSystemContract.sol:HtsSystemContract",
                        "label": "key",
                        "offset": 0,
                        "slot": "1",
                        "type": "t_struct(KeyValue)6515_storage"
                    }
                ]
            },
            "t_uint256": {
                "encoding": "inplace",
                "label": "uint256",
                "numberOfBytes": "32"
            },
            "t_uint8": {
                "encoding": "inplace",
                "label": "uint8",
                "numberOfBytes": "1"
            }
        }
    },
    "userdoc": {
        "version": 1,
        "kind": "user",
        "methods": {
            "associateToken(address,address)": {
                "notice": "Single-token variant of associateTokens. Will be mapped to a single entry array call of associateTokens"
            },
            "associateTokens(address,address[])": {
                "notice": "Associates the provided account with the provided tokens. Must be signed by the provided  Account's key or called from the accounts contract key  If the provided account is not found, the transaction will resolve to INVALID_ACCOUNT_ID.  If the provided account has been deleted, the transaction will resolve to ACCOUNT_DELETED.  If any of the provided tokens is not found, the transaction will resolve to INVALID_TOKEN_REF.  If any of the provided tokens has been deleted, the transaction will resolve to TOKEN_WAS_DELETED.  If an association between the provided account and any of the tokens already exists, the  transaction will resolve to TOKEN_ALREADY_ASSOCIATED_TO_ACCOUNT.  If the provided account's associations count exceed the constraint of maximum token associations    per account, the transaction will resolve to TOKENS_PER_ACCOUNT_LIMIT_EXCEEDED.  On success, associations between the provided account and tokens are made and the account is    ready to interact with the tokens."
            },
            "dissociateToken(address,address)": {
                "notice": "Single-token variant of dissociateTokens. Will be mapped to a single entry array call of dissociateTokens"
            },
            "dissociateTokens(address,address[])": {
                "notice": "Dissociates the provided account with the provided tokens. Must be signed by the provided Account's key. If the provided account is not found, the transaction will resolve to INVALID_ACCOUNT_ID. If the provided account has been deleted, the transaction will resolve to ACCOUNT_DELETED. If any of the provided tokens is not found, the transaction will resolve to INVALID_TOKEN_REF. If any of the provided tokens has been deleted, the transaction will resolve to TOKEN_WAS_DELETED. If an association between the provided account and any of the tokens does not exist, the transaction will resolve to TOKEN_NOT_ASSOCIATED_TO_ACCOUNT. If a token has not been deleted and has not expired, and the user has a nonzero balance, the transaction will resolve to TRANSACTION_REQUIRES_ZERO_TOKEN_BALANCES. If a <b>fungible token</b> has expired, the user can disassociate even if their token balance is not zero. If a <b>non fungible token</b> has expired, the user can <b>not</b> disassociate if their token balance is not zero. The transaction will resolve to TRANSACTION_REQUIRED_ZERO_TOKEN_BALANCES. On success, associations between the provided account and tokens are removed."
            },
            "getApproved(address,uint256)": {
                "notice": "Get the approved address for a single NFT Only Applicable to NFT Tokens"
            },
            "getFungibleTokenInfo(address)": {
                "notice": "Query fungible token info"
            },
            "getNonFungibleTokenInfo(address,int64)": {
                "notice": "Query non fungible token info"
            },
            "getTokenCustomFees(address)": {
                "notice": "Query token custom fees"
            },
            "getTokenDefaultFreezeStatus(address)": {
                "notice": "Query token default freeze status"
            },
            "getTokenDefaultKycStatus(address)": {
                "notice": "Query token default kyc status"
            },
            "getTokenExpiryInfo(address)": {
                "notice": "Query token expiry info"
            },
            "getTokenInfo(address)": {
                "notice": "Query token info"
            },
            "getTokenKey(address,uint256)": {
                "notice": "Query token KeyValue"
            },
            "getTokenType(address)": {
                "notice": "Query to return the token type for a given address"
            },
            "isApprovedForAll(address,address,address)": {
                "notice": "Query if an address is an authorized operator for another address Only Applicable to NFT Tokens"
            },
            "isToken(address)": {
                "notice": "Query if valid token found for the given address"
            },
            "transferTokens(address,address[],int64[])": {
                "notice": "Initiates a Fungible Token Transfer"
            }
        }
    },
    "devdoc": {
        "version": 1,
        "kind": "dev",
        "methods": {
            "associateToken(address,address)": {
                "params": {
                    "account": "The account to be associated with the provided token",
                    "token": "The token to be associated with the provided account"
                }
            },
            "associateTokens(address,address[])": {
                "params": {
                    "account": "The account to be associated with the provided tokens",
                    "tokens": "The tokens to be associated with the provided account. In the case of NON_FUNGIBLE_UNIQUE               Type, once an account is associated, it can hold any number of NFTs (serial numbers) of that               token type"
                },
                "returns": {
                    "responseCode": "The response code for the status of the request. SUCCESS is 22."
                }
            },
            "dissociateToken(address,address)": {
                "params": {
                    "account": "The account to be associated with the provided token",
                    "token": "The token to be associated with the provided account"
                }
            },
            "dissociateTokens(address,address[])": {
                "params": {
                    "account": "The account to be dissociated from the provided tokens",
                    "tokens": "The tokens to be dissociated from the provided account."
                },
                "returns": {
                    "responseCode": "The response code for the status of the request. SUCCESS is 22."
                }
            },
            "getAccountId(address)": {
                "details": "Returns the account id (omitting both shard and realm numbers) of the given `address`. The storage adapter, _i.e._, `getHtsStorageAt`, assumes that both shard and realm numbers are zero. Thus, they can be omitted from the account id. See https://docs.hedera.com/hedera/core-concepts/accounts/account-properties for more info on account properties."
            },
            "getApproved(address,uint256)": {
                "params": {
                    "serialNumber": "The NFT to find the approved address for",
                    "token": "The Hedera NFT token address to check approval"
                },
                "returns": {
                    "approved": "The approved address for this NFT, or the zero address if there is none",
                    "responseCode": "The response code for the status of the request. SUCCESS is 22."
                }
            },
            "getFungibleTokenInfo(address)": {
                "params": {
                    "token": "The token address to check"
                },
                "returns": {
                    "_0": "The response code for the status of the request. SUCCESS is 22.",
                    "_1": "FungibleTokenInfo info for `token`"
                }
            },
            "getNonFungibleTokenInfo(address,int64)": {
                "params": {
                    "serialNumber": "The NFT serialNumber to check",
                    "token": "The token address to check"
                },
                "returns": {
                    "_0": "The response code for the status of the request. SUCCESS is 22.",
                    "_1": "NonFungibleTokenInfo info for `token` `serialNumber`"
                }
            },
            "getTokenCustomFees(address)": {
                "params": {
                    "token": "The token address to check"
                },
                "returns": {
                    "_0": "The response code for the status of the request. SUCCESS is 22.",
                    "_1": "Set of fixed fees for `token`",
                    "_2": "Set of fractional fees for `token`",
                    "_3": "Set of royalty fees for `token`"
                }
            },
            "getTokenDefaultFreezeStatus(address)": {
                "params": {
                    "token": "The token address to check"
                },
                "returns": {
                    "_0": "The response code for the status of the request. SUCCESS is 22.",
                    "_1": "True if `token` default freeze status is frozen."
                }
            },
            "getTokenDefaultKycStatus(address)": {
                "params": {
                    "token": "The token address to check"
                },
                "returns": {
                    "_0": "The response code for the status of the request. SUCCESS is 22.",
                    "_1": "True if `token` default kyc status is KycNotApplicable and false if Revoked."
                }
            },
            "getTokenExpiryInfo(address)": {
                "params": {
                    "token": "The token address to check"
                },
                "returns": {
                    "responseCode": "The response code for the status of the request. SUCCESS is 22.",
                    "tokenInfo": "Expiry info for `token`"
                }
            },
            "getTokenInfo(address)": {
                "params": {
                    "token": "The token address to check"
                },
                "returns": {
                    "responseCode": "The response code for the status of the request. SUCCESS is 22.",
                    "tokenInfo": "TokenInfo info for `token`"
                }
            },
            "getTokenKey(address,uint256)": {
                "params": {
                    "keyType": "The keyType of the desired KeyValue",
                    "token": "The token address to check"
                },
                "returns": {
                    "_0": "The response code for the status of the request. SUCCESS is 22.",
                    "_1": "KeyValue info for key of type `keyType`"
                }
            },
            "getTokenType(address)": {
                "params": {
                    "token": "The token address"
                },
                "returns": {
                    "_0": "The response code for the status of the request. SUCCESS is 22.",
                    "_1": "the token type. 0 is FUNGIBLE_COMMON, 1 is NON_FUNGIBLE_UNIQUE, -1 is UNRECOGNIZED"
                }
            },
            "isApprovedForAll(address,address,address)": {
                "params": {
                    "operator": "The address that acts on behalf of the owner",
                    "owner": "The address that owns the NFTs",
                    "token": "The Hedera NFT token address to approve"
                },
                "returns": {
                    "_0": "The response code for the status of the request. SUCCESS is 22.",
                    "_1": "True if `operator` is an approved operator for `owner`, false otherwise"
                }
            },
            "isToken(address)": {
                "params": {
                    "token": "The token address"
                },
                "returns": {
                    "_0": "The response code for the status of the request. SUCCESS is 22.",
                    "_1": "True if valid token found for the given address"
                }
            },
            "transferTokens(address,address[],int64[])": {
                "params": {
                    "accountId": "account to do a transfer to/from",
                    "amount": "The amount from the accountId at the same index",
                    "token": "The ID of the token as a solidity address"
                }
            }
        },
        "events": {
            "Approval(address,address,uint256)": {
                "details": "Emitted when the allowance of a `spender` for an `owner` is set by a call to {approve}. `value` is the new allowance."
            },
            "Transfer(address,address,uint256)": {
                "details": "Emitted when `value` tokens are moved from one account (`from`) to another (`to`). Note that `value` may be zero."
            }
        }
    },
    "id": 1
}