{
    "abi": [
        {
            "type": "fallback",
            "stateMutability": "nonpayable"
        },
        {
            "type": "function",
            "name": "_update",
            "inputs": [
                {
                    "name": "from",
                    "type": "address",
                    "internalType": "address"
                },
                {
                    "name": "to",
                    "type": "address",
                    "internalType": "address"
                },
                {
                    "name": "amount",
                    "type": "uint256",
                    "internalType": "uint256"
                }
            ],
            "outputs": [],
            "stateMutability": "nonpayable"
        },
        {
            "type": "function",
            "name": "burnToken",
            "inputs": [
                {
                    "name": "token",
                    "type": "address",
                    "internalType": "address"
                },
                {
                    "name": "amount",
                    "type": "int64",
                    "internalType": "int64"
                },
                {
                    "name": "",
                    "type": "int64[]",
                    "internalType": "int64[]"
                }
            ],
            "outputs": [
                {
                    "name": "responseCode",
                    "type": "int64",
                    "internalType": "int64"
                },
                {
                    "name": "newTotalSupply",
                    "type": "int64",
                    "internalType": "int64"
                }
            ],
            "stateMutability": "nonpayable"
        },
        {
            "type": "function",
            "name": "getAccountId",
            "inputs": [
                {
                    "name": "account",
                    "type": "address",
                    "internalType": "address"
                }
            ],
            "outputs": [
                {
                    "name": "accountId",
                    "type": "uint32",
                    "internalType": "uint32"
                }
            ],
            "stateMutability": "view"
        },
        {
            "type": "function",
            "name": "getApproved",
            "inputs": [
                {
                    "name": "token",
                    "type": "address",
                    "internalType": "address"
                },
                {
                    "name": "serialNumber",
                    "type": "uint256",
                    "internalType": "uint256"
                }
            ],
            "outputs": [
                {
                    "name": "responseCode",
                    "type": "int64",
                    "internalType": "int64"
                },
                {
                    "name": "approved",
                    "type": "address",
                    "internalType": "address"
                }
            ],
            "stateMutability": "view"
        },
        {
            "type": "function",
            "name": "getNonFungibleTokenInfo",
            "inputs": [
                {
                    "name": "token",
                    "type": "address",
                    "internalType": "address"
                },
                {
                    "name": "serialNumber",
                    "type": "int64",
                    "internalType": "int64"
                }
            ],
            "outputs": [
                {
                    "name": "",
                    "type": "int64",
                    "internalType": "int64"
                },
                {
                    "name": "",
                    "type": "tuple",
                    "internalType": "struct IHederaTokenService.NonFungibleTokenInfo",
                    "components": [
                        {
                            "name": "tokenInfo",
                            "type": "tuple",
                            "internalType": "struct IHederaTokenService.TokenInfo",
                            "components": [
                                {
                                    "name": "token",
                                    "type": "tuple",
                                    "internalType": "struct IHederaTokenService.HederaToken",
                                    "components": [
                                        {
                                            "name": "name",
                                            "type": "string",
                                            "internalType": "string"
                                        },
                                        {
                                            "name": "symbol",
                                            "type": "string",
                                            "internalType": "string"
                                        },
                                        {
                                            "name": "treasury",
                                            "type": "address",
                                            "internalType": "address"
                                        },
                                        {
                                            "name": "memo",
                                            "type": "string",
                                            "internalType": "string"
                                        },
                                        {
                                            "name": "tokenSupplyType",
                                            "type": "bool",
                                            "internalType": "bool"
                                        },
                                        {
                                            "name": "maxSupply",
                                            "type": "int64",
                                            "internalType": "int64"
                                        },
                                        {
                                            "name": "freezeDefault",
                                            "type": "bool",
                                            "internalType": "bool"
                                        },
                                        {
                                            "name": "tokenKeys",
                                            "type": "tuple[]",
                                            "internalType": "struct IHederaTokenService.TokenKey[]",
                                            "components": [
                                                {
                                                    "name": "keyType",
                                                    "type": "uint256",
                                                    "internalType": "uint256"
                                                },
                                                {
                                                    "name": "key",
                                                    "type": "tuple",
                                                    "internalType": "struct IHederaTokenService.KeyValue",
                                                    "components": [
                                                        {
                                                            "name": "inheritAccountKey",
                                                            "type": "bool",
                                                            "internalType": "bool"
                                                        },
                                                        {
                                                            "name": "contractId",
                                                            "type": "address",
                                                            "internalType": "address"
                                                        },
                                                        {
                                                            "name": "ed25519",
                                                            "type": "bytes",
                                                            "internalType": "bytes"
                                                        },
                                                        {
                                                            "name": "ECDSA_secp256k1",
                                                            "type": "bytes",
                                                            "internalType": "bytes"
                                                        },
                                                        {
                                                            "name": "delegatableContractId",
                                                            "type": "address",
                                                            "internalType": "address"
                                                        }
                                                    ]
                                                }
                                            ]
                                        },
                                        {
                                            "name": "expiry",
                                            "type": "tuple",
                                            "internalType": "struct IHederaTokenService.Expiry",
                                            "components": [
                                                {
                                                    "name": "second",
                                                    "type": "int64",
                                                    "internalType": "int64"
                                                },
                                                {
                                                    "name": "autoRenewAccount",
                                                    "type": "address",
                                                    "internalType": "address"
                                                },
                                                {
                                                    "name": "autoRenewPeriod",
                                                    "type": "int64",
                                                    "internalType": "int64"
                                                }
                                            ]
                                        }
                                    ]
                                },
                                {
                                    "name": "totalSupply",
                                    "type": "int64",
                                    "internalType": "int64"
                                },
                                {
                                    "name": "deleted",
                                    "type": "bool",
                                    "internalType": "bool"
                                },
                                {
                                    "name": "defaultKycStatus",
                                    "type": "bool",
                                    "internalType": "bool"
                                },
                                {
                                    "name": "pauseStatus",
                                    "type": "bool",
                                    "internalType": "bool"
                                },
                                {
                                    "name": "fixedFees",
                                    "type": "tuple[]",
                                    "internalType": "struct IHederaTokenService.FixedFee[]",
                                    "components": [
                                        {
                                            "name": "amount",
                                            "type": "int64",
                                            "internalType": "int64"
                                        },
                                        {
                                            "name": "tokenId",
                                            "type": "address",
                                            "internalType": "address"
                                        },
                                        {
                                            "name": "useHbarsForPayment",
                                            "type": "bool",
                                            "internalType": "bool"
                                        },
                                        {
                                            "name": "useCurrentTokenForPayment",
                                            "type": "bool",
                                            "internalType": "bool"
                                        },
                                        {
                                            "name": "feeCollector",
                                            "type": "address",
                                            "internalType": "address"
                                        }
                                    ]
                                },
                                {
                                    "name": "fractionalFees",
                                    "type": "tuple[]",
                                    "internalType": "struct IHederaTokenService.FractionalFee[]",
                                    "components": [
                                        {
                                            "name": "numerator",
                                            "type": "int64",
                                            "internalType": "int64"
                                        },
                                        {
                                            "name": "denominator",
                                            "type": "int64",
                                            "internalType": "int64"
                                        },
                                        {
                                            "name": "minimumAmount",
                                            "type": "int64",
                                            "internalType": "int64"
                                        },
                                        {
                                            "name": "maximumAmount",
                                            "type": "int64",
                                            "internalType": "int64"
                                        },
                                        {
                                            "name": "netOfTransfers",
                                            "type": "bool",
                                            "internalType": "bool"
                                        },
                                        {
                                            "name": "feeCollector",
                                            "type": "address",
                                            "internalType": "address"
                                        }
                                    ]
                                },
                                {
                                    "name": "royaltyFees",
                                    "type": "tuple[]",
                                    "internalType": "struct IHederaTokenService.RoyaltyFee[]",
                                    "components": [
                                        {
                                            "name": "numerator",
                                            "type": "int64",
                                            "internalType": "int64"
                                        },
                                        {
                                            "name": "denominator",
                                            "type": "int64",
                                            "internalType": "int64"
                                        },
                                        {
                                            "name": "amount",
                                            "type": "int64",
                                            "internalType": "int64"
                                        },
                                        {
                                            "name": "tokenId",
                                            "type": "address",
                                            "internalType": "address"
                                        },
                                        {
                                            "name": "useHbarsForPayment",
                                            "type": "bool",
                                            "internalType": "bool"
                                        },
                                        {
                                            "name": "feeCollector",
                                            "type": "address",
                                            "internalType": "address"
                                        }
                                    ]
                                },
                                {
                                    "name": "ledgerId",
                                    "type": "string",
                                    "internalType": "string"
                                }
                            ]
                        },
                        {
                            "name": "serialNumber",
                            "type": "int64",
                            "internalType": "int64"
                        },
                        {
                            "name": "ownerId",
                            "type": "address",
                            "internalType": "address"
                        },
                        {
                            "name": "creationTime",
                            "type": "int64",
                            "internalType": "int64"
                        },
                        {
                            "name": "metadata",
                            "type": "bytes",
                            "internalType": "bytes"
                        },
                        {
                            "name": "spenderId",
                            "type": "address",
                            "internalType": "address"
                        }
                    ]
                }
            ],
            "stateMutability": "nonpayable"
        },
        {
            "type": "function",
            "name": "getTokenCustomFees",
            "inputs": [
                {
                    "name": "token",
                    "type": "address",
                    "internalType": "address"
                }
            ],
            "outputs": [
                {
                    "name": "",
                    "type": "int64",
                    "internalType": "int64"
                },
                {
                    "name": "",
                    "type": "tuple[]",
                    "internalType": "struct IHederaTokenService.FixedFee[]",
                    "components": [
                        {
                            "name": "amount",
                            "type": "int64",
                            "internalType": "int64"
                        },
                        {
                            "name": "tokenId",
                            "type": "address",
                            "internalType": "address"
                        },
                        {
                            "name": "useHbarsForPayment",
                            "type": "bool",
                            "internalType": "bool"
                        },
                        {
                            "name": "useCurrentTokenForPayment",
                            "type": "bool",
                            "internalType": "bool"
                        },
                        {
                            "name": "feeCollector",
                            "type": "address",
                            "internalType": "address"
                        }
                    ]
                },
                {
                    "name": "",
                    "type": "tuple[]",
                    "internalType": "struct IHederaTokenService.FractionalFee[]",
                    "components": [
                        {
                            "name": "numerator",
                            "type": "int64",
                            "internalType": "int64"
                        },
                        {
                            "name": "denominator",
                            "type": "int64",
                            "internalType": "int64"
                        },
                        {
                            "name": "minimumAmount",
                            "type": "int64",
                            "internalType": "int64"
                        },
                        {
                            "name": "maximumAmount",
                            "type": "int64",
                            "internalType": "int64"
                        },
                        {
                            "name": "netOfTransfers",
                            "type": "bool",
                            "internalType": "bool"
                        },
                        {
                            "name": "feeCollector",
                            "type": "address",
                            "internalType": "address"
                        }
                    ]
                },
                {
                    "name": "",
                    "type": "tuple[]",
                    "internalType": "struct IHederaTokenService.RoyaltyFee[]",
                    "components": [
                        {
                            "name": "numerator",
                            "type": "int64",
                            "internalType": "int64"
                        },
                        {
                            "name": "denominator",
                            "type": "int64",
                            "internalType": "int64"
                        },
                        {
                            "name": "amount",
                            "type": "int64",
                            "internalType": "int64"
                        },
                        {
                            "name": "tokenId",
                            "type": "address",
                            "internalType": "address"
                        },
                        {
                            "name": "useHbarsForPayment",
                            "type": "bool",
                            "internalType": "bool"
                        },
                        {
                            "name": "feeCollector",
                            "type": "address",
                            "internalType": "address"
                        }
                    ]
                }
            ],
            "stateMutability": "nonpayable"
        },
        {
            "type": "function",
            "name": "getTokenDefaultFreezeStatus",
            "inputs": [
                {
                    "name": "token",
                    "type": "address",
                    "internalType": "address"
                }
            ],
            "outputs": [
                {
                    "name": "",
                    "type": "int64",
                    "internalType": "int64"
                },
                {
                    "name": "",
                    "type": "bool",
                    "internalType": "bool"
                }
            ],
            "stateMutability": "nonpayable"
        },
        {
            "type": "function",
            "name": "getTokenDefaultKycStatus",
            "inputs": [
                {
                    "name": "token",
                    "type": "address",
                    "internalType": "address"
                }
            ],
            "outputs": [
                {
                    "name": "",
                    "type": "int64",
                    "internalType": "int64"
                },
                {
                    "name": "",
                    "type": "bool",
                    "internalType": "bool"
                }
            ],
            "stateMutability": "nonpayable"
        },
        {
            "type": "function",
            "name": "getTokenExpiryInfo",
            "inputs": [
                {
                    "name": "token",
                    "type": "address",
                    "internalType": "address"
                }
            ],
            "outputs": [
                {
                    "name": "responseCode",
                    "type": "int64",
                    "internalType": "int64"
                },
                {
                    "name": "tokenInfo",
                    "type": "tuple",
                    "internalType": "struct IHederaTokenService.Expiry",
                    "components": [
                        {
                            "name": "second",
                            "type": "int64",
                            "internalType": "int64"
                        },
                        {
                            "name": "autoRenewAccount",
                            "type": "address",
                            "internalType": "address"
                        },
                        {
                            "name": "autoRenewPeriod",
                            "type": "int64",
                            "internalType": "int64"
                        }
                    ]
                }
            ],
            "stateMutability": "nonpayable"
        },
        {
            "type": "function",
            "name": "getTokenInfo",
            "inputs": [
                {
                    "name": "token",
                    "type": "address",
                    "internalType": "address"
                }
            ],
            "outputs": [
                {
                    "name": "responseCode",
                    "type": "int64",
                    "internalType": "int64"
                },
                {
                    "name": "tokenInfo",
                    "type": "tuple",
                    "internalType": "struct IHederaTokenService.TokenInfo",
                    "components": [
                        {
                            "name": "token",
                            "type": "tuple",
                            "internalType": "struct IHederaTokenService.HederaToken",
                            "components": [
                                {
                                    "name": "name",
                                    "type": "string",
                                    "internalType": "string"
                                },
                                {
                                    "name": "symbol",
                                    "type": "string",
                                    "internalType": "string"
                                },
                                {
                                    "name": "treasury",
                                    "type": "address",
                                    "internalType": "address"
                                },
                                {
                                    "name": "memo",
                                    "type": "string",
                                    "internalType": "string"
                                },
                                {
                                    "name": "tokenSupplyType",
                                    "type": "bool",
                                    "internalType": "bool"
                                },
                                {
                                    "name": "maxSupply",
                                    "type": "int64",
                                    "internalType": "int64"
                                },
                                {
                                    "name": "freezeDefault",
                                    "type": "bool",
                                    "internalType": "bool"
                                },
                                {
                                    "name": "tokenKeys",
                                    "type": "tuple[]",
                                    "internalType": "struct IHederaTokenService.TokenKey[]",
                                    "components": [
                                        {
                                            "name": "keyType",
                                            "type": "uint256",
                                            "internalType": "uint256"
                                        },
                                        {
                                            "name": "key",
                                            "type": "tuple",
                                            "internalType": "struct IHederaTokenService.KeyValue",
                                            "components": [
                                                {
                                                    "name": "inheritAccountKey",
                                                    "type": "bool",
                                                    "internalType": "bool"
                                                },
                                                {
                                                    "name": "contractId",
                                                    "type": "address",
                                                    "internalType": "address"
                                                },
                                                {
                                                    "name": "ed25519",
                                                    "type": "bytes",
                                                    "internalType": "bytes"
                                                },
                                                {
                                                    "name": "ECDSA_secp256k1",
                                                    "type": "bytes",
                                                    "internalType": "bytes"
                                                },
                                                {
                                                    "name": "delegatableContractId",
                                                    "type": "address",
                                                    "internalType": "address"
                                                }
                                            ]
                                        }
                                    ]
                                },
                                {
                                    "name": "expiry",
                                    "type": "tuple",
                                    "internalType": "struct IHederaTokenService.Expiry",
                                    "components": [
                                        {
                                            "name": "second",
                                            "type": "int64",
                                            "internalType": "int64"
                                        },
                                        {
                                            "name": "autoRenewAccount",
                                            "type": "address",
                                            "internalType": "address"
                                        },
                                        {
                                            "name": "autoRenewPeriod",
                                            "type": "int64",
                                            "internalType": "int64"
                                        }
                                    ]
                                }
                            ]
                        },
                        {
                            "name": "totalSupply",
                            "type": "int64",
                            "internalType": "int64"
                        },
                        {
                            "name": "deleted",
                            "type": "bool",
                            "internalType": "bool"
                        },
                        {
                            "name": "defaultKycStatus",
                            "type": "bool",
                            "internalType": "bool"
                        },
                        {
                            "name": "pauseStatus",
                            "type": "bool",
                            "internalType": "bool"
                        },
                        {
                            "name": "fixedFees",
                            "type": "tuple[]",
                            "internalType": "struct IHederaTokenService.FixedFee[]",
                            "components": [
                                {
                                    "name": "amount",
                                    "type": "int64",
                                    "internalType": "int64"
                                },
                                {
                                    "name": "tokenId",
                                    "type": "address",
                                    "internalType": "address"
                                },
                                {
                                    "name": "useHbarsForPayment",
                                    "type": "bool",
                                    "internalType": "bool"
                                },
                                {
                                    "name": "useCurrentTokenForPayment",
                                    "type": "bool",
                                    "internalType": "bool"
                                },
                                {
                                    "name": "feeCollector",
                                    "type": "address",
                                    "internalType": "address"
                                }
                            ]
                        },
                        {
                            "name": "fractionalFees",
                            "type": "tuple[]",
                            "internalType": "struct IHederaTokenService.FractionalFee[]",
                            "components": [
                                {
                                    "name": "numerator",
                                    "type": "int64",
                                    "internalType": "int64"
                                },
                                {
                                    "name": "denominator",
                                    "type": "int64",
                                    "internalType": "int64"
                                },
                                {
                                    "name": "minimumAmount",
                                    "type": "int64",
                                    "internalType": "int64"
                                },
                                {
                                    "name": "maximumAmount",
                                    "type": "int64",
                                    "internalType": "int64"
                                },
                                {
                                    "name": "netOfTransfers",
                                    "type": "bool",
                                    "internalType": "bool"
                                },
                                {
                                    "name": "feeCollector",
                                    "type": "address",
                                    "internalType": "address"
                                }
                            ]
                        },
                        {
                            "name": "royaltyFees",
                            "type": "tuple[]",
                            "internalType": "struct IHederaTokenService.RoyaltyFee[]",
                            "components": [
                                {
                                    "name": "numerator",
                                    "type": "int64",
                                    "internalType": "int64"
                                },
                                {
                                    "name": "denominator",
                                    "type": "int64",
                                    "internalType": "int64"
                                },
                                {
                                    "name": "amount",
                                    "type": "int64",
                                    "internalType": "int64"
                                },
                                {
                                    "name": "tokenId",
                                    "type": "address",
                                    "internalType": "address"
                                },
                                {
                                    "name": "useHbarsForPayment",
                                    "type": "bool",
                                    "internalType": "bool"
                                },
                                {
                                    "name": "feeCollector",
                                    "type": "address",
                                    "internalType": "address"
                                }
                            ]
                        },
                        {
                            "name": "ledgerId",
                            "type": "string",
                            "internalType": "string"
                        }
                    ]
                }
            ],
            "stateMutability": "nonpayable"
        },
        {
            "type": "function",
            "name": "getTokenKey",
            "inputs": [
                {
                    "name": "token",
                    "type": "address",
                    "internalType": "address"
                },
                {
                    "name": "keyType",
                    "type": "uint256",
                    "internalType": "uint256"
                }
            ],
            "outputs": [
                {
                    "name": "",
                    "type": "int64",
                    "internalType": "int64"
                },
                {
                    "name": "",
                    "type": "tuple",
                    "internalType": "struct IHederaTokenService.KeyValue",
                    "components": [
                        {
                            "name": "inheritAccountKey",
                            "type": "bool",
                            "internalType": "bool"
                        },
                        {
                            "name": "contractId",
                            "type": "address",
                            "internalType": "address"
                        },
                        {
                            "name": "ed25519",
                            "type": "bytes",
                            "internalType": "bytes"
                        },
                        {
                            "name": "ECDSA_secp256k1",
                            "type": "bytes",
                            "internalType": "bytes"
                        },
                        {
                            "name": "delegatableContractId",
                            "type": "address",
                            "internalType": "address"
                        }
                    ]
                }
            ],
            "stateMutability": "nonpayable"
        },
        {
            "type": "function",
            "name": "getTokenType",
            "inputs": [
                {
                    "name": "token",
                    "type": "address",
                    "internalType": "address"
                }
            ],
            "outputs": [
                {
                    "name": "",
                    "type": "int64",
                    "internalType": "int64"
                },
                {
                    "name": "",
                    "type": "int32",
                    "internalType": "int32"
                }
            ],
            "stateMutability": "nonpayable"
        },
        {
            "type": "function",
            "name": "isApprovedForAll",
            "inputs": [
                {
                    "name": "token",
                    "type": "address",
                    "internalType": "address"
                },
                {
                    "name": "owner",
                    "type": "address",
                    "internalType": "address"
                },
                {
                    "name": "operator",
                    "type": "address",
                    "internalType": "address"
                }
            ],
            "outputs": [
                {
                    "name": "",
                    "type": "int64",
                    "internalType": "int64"
                },
                {
                    "name": "",
                    "type": "bool",
                    "internalType": "bool"
                }
            ],
            "stateMutability": "view"
        },
        {
            "type": "function",
            "name": "isToken",
            "inputs": [
                {
                    "name": "token",
                    "type": "address",
                    "internalType": "address"
                }
            ],
            "outputs": [
                {
                    "name": "",
                    "type": "int64",
                    "internalType": "int64"
                },
                {
                    "name": "",
                    "type": "bool",
                    "internalType": "bool"
                }
            ],
            "stateMutability": "nonpayable"
        },
        {
            "type": "function",
            "name": "mintToken",
            "inputs": [
                {
                    "name": "token",
                    "type": "address",
                    "internalType": "address"
                },
                {
                    "name": "amount",
                    "type": "int64",
                    "internalType": "int64"
                },
                {
                    "name": "",
                    "type": "bytes[]",
                    "internalType": "bytes[]"
                }
            ],
            "outputs": [
                {
                    "name": "responseCode",
                    "type": "int64",
                    "internalType": "int64"
                },
                {
                    "name": "newTotalSupply",
                    "type": "int64",
                    "internalType": "int64"
                },
                {
                    "name": "serialNumbers",
                    "type": "int64[]",
                    "internalType": "int64[]"
                }
            ],
            "stateMutability": "nonpayable"
        },
        {
            "type": "event",
            "name": "Approval",
            "inputs": [
                {
                    "name": "owner",
                    "type": "address",
                    "indexed": true,
                    "internalType": "address"
                },
                {
                    "name": "spender",
                    "type": "address",
                    "indexed": true,
                    "internalType": "address"
                },
                {
                    "name": "amount",
                    "type": "uint256",
                    "indexed": false,
                    "internalType": "uint256"
                }
            ],
            "anonymous": false
        },
        {
            "type": "event",
            "name": "ApprovalForAll",
            "inputs": [
                {
                    "name": "owner",
                    "type": "address",
                    "indexed": true,
                    "internalType": "address"
                },
                {
                    "name": "operator",
                    "type": "address",
                    "indexed": true,
                    "internalType": "address"
                },
                {
                    "name": "approved",
                    "type": "bool",
                    "indexed": false,
                    "internalType": "bool"
                }
            ],
            "anonymous": false
        },
        {
            "type": "event",
            "name": "Transfer",
            "inputs": [
                {
                    "name": "from",
                    "type": "address",
                    "indexed": true,
                    "internalType": "address"
                },
                {
                    "name": "to",
                    "type": "address",
                    "indexed": true,
                    "internalType": "address"
                },
                {
                    "name": "amount",
                    "type": "uint256",
                    "indexed": false,
                    "internalType": "uint256"
                }
            ],
            "anonymous": false
        }
    ],
    "bytecode": {
        "object": "0x6080604052348015600e575f80fd5b506153668061001c5f395ff3fe608060405234801561000f575f80fd5b50600436106100f3575f3560e01c806393272baf11610095578063d6910d0611610064578063d6910d06146103b7578063e0b490f7146103e4578063e0f4059a1461040c578063f49f40db1461042e576100f3565b806393272baf14610330578063a7daa18d14610360578063ae7611a014610373578063d614cdb814610396576100f3565b80631f69565f116100d15780631f69565f146102ba578063287e1da8146102db578063335e04c1146102fc5780633c4dd32e1461030f576100f3565b8063098f23661461023e5780630bb3bfa81461027857806319f373611461028d575b5f366060601c82101561014d5760405162461bcd60e51b815260206004820152601d60248201527f66616c6c6261636b3a206e6f7420656e6f7567682063616c6c6461746100000060448201526064015b60405180910390fd5b5f61015b6004823681613817565b6101649161383e565b60e01c905063618dc65e81146101bc5760405162461bcd60e51b815260206004820152601e60248201527f66616c6c6261636b3a20756e737570706f727465642073656c6563746f7200006044820152606401610144565b5f6101cb601860043684613817565b6101d491613876565b60601c90503081146102285760405162461bcd60e51b815260206004820152601d60248201527f66616c6c6261636b3a20746f6b656e206973206e6f742063616c6c65720000006044820152606401610144565b610230610441565b805195506020019350505050f35b61025161024c3660046138c3565b610ba7565b6040805160079390930b83526001600160a01b039091166020830152015b60405180910390f35b61028b6102863660046138ed565b610c95565b005b6102a061029b36600461392b565b610d73565b6040805160079390930b835290151560208301520161026f565b6102cd6102c836600461392b565b610e34565b60405161026f929190613dad565b6102ee6102e9366004613dd6565b610f28565b60405161026f929190613e0d565b6102a061030a36600461392b565b611208565b61032261031d3660046138c3565b611304565b60405161026f929190613e9e565b61034361033e36600461392b565b6114e3565b6040805160079390930b835260039190910b60208301520161026f565b6102a061036e36600461392b565b6115c3565b61038661038136600461392b565b61167e565b60405161026f9493929190613eb9565b6103a96103a436600461392b565b61177d565b60405161026f929190613efa565b6103ca6103c536600461402b565b611881565b60408051600793840b81529190920b60208201520161026f565b6103f76103f236600461392b565b611ba8565b60405163ffffffff909116815260200161026f565b61041f61041a366004614115565b611c22565b60405161026f9392919061422a565b6102a061043c366004614287565b611f5f565b60605f610452601c60183684613817565b61045b9161383e565b905060408051808201825260098152681393d517d193d5539160ba1b602090910152517f7bafae6429a8b3ef0db181af7c5834a6f2b1af33146a1a9ae02e833d27f2431b906104ab905f90614375565b60405180910390200361050a5760405162461bcd60e51b815260206004820152602160248201527f7265646972656374466f72546f6b656e3a20746f6b656e206e6f7420666f756e6044820152601960fa1b6064820152608401610144565b610166193301610a6e5763e096a9a160e01b6001600160e01b03198216016105b157601c3610156105875760405162461bcd60e51b815260206004820152602160248201527f676574546f6b656e496e666f3a204e6f7420656e6f7567682063616c6c6461746044820152606160f81b6064820152608401610144565b6016600560405160200161059c929190614738565b60405160208183030381529060405291505090565b63028c4f7360e51b6001600160e01b031982160161064557601c36101561062a5760405162461bcd60e51b815260206004820152602760248201527f676574546f6b656e437573746f6d466565733a204e6f7420656e6f7567682063604482015266616c6c6461746160c81b6064820152608401610144565b60405161059c90601690600e90600f90601090602001614815565b63cca1fb3f60e01b6001600160e01b03198216016106eb57601c3610156106c45760405162461bcd60e51b815260206004820152602d60248201527f676574546f6b656e44656661756c744b79635374617475733a204e6f7420656e60448201526c6f7567682063616c6c6461746160981b6064820152608401610144565b600d546040805160166020820152600160481b90920460ff1615159082015260600161059c565b6358255e7360e01b6001600160e01b031982160161079457601c36101561076d5760405162461bcd60e51b815260206004820152603060248201527f676574546f6b656e44656661756c74467265657a655374617475733a204e6f7460448201526f20656e6f7567682063616c6c6461746160801b6064820152608401610144565b6009546040805160166020820152600160481b90920460ff1615159082015260600161059c565b63053d664960e31b6001600160e01b031982160161082257601c36101561080d5760405162461bcd60e51b815260206004820152602760248201527f676574546f6b656e457870697279496e666f3a204e6f7420656e6f7567682063604482015266616c6c6461746160c81b6064820152608401610144565b60405161059c90601690600b90602001614856565b636cd8d45160e01b6001600160e01b031982160161098257601c3610156108955760405162461bcd60e51b815260206004820152602160248201527f676574546f6b656e547970653a204e6f7420656e6f7567682063616c6c6461746044820152606160f81b6064820152608401610144565b7f20081d23699eb901ca16307080f9b35e7967740755a921f749a9e037b0875c755f6040516020016108c79190614375565b60405160208183030381529060405280519060200120036108fd5760408051601660208201525f9181019190915260600161059c565b7f6c58a12b113a1ee77f554495d8bd48a419af104bca196099cdecc39fcb8989f05f60405160200161092f9190614375565b604051602081830303815290604052805190602001200361096657604080516016602082015260019181019190915260600161059c565b60408051601660208201525f199181019190915260600161059c565b631e89880b60e31b6001600160e01b0319821601610a6e57607c3610156109eb5760405162461bcd60e51b815260206004820152601b60248201527f7570646174653a204e6f7420656e6f7567682063616c6c6461746100000000006044820152606401610144565b5f6109fa603c60283684613817565b610a0391613876565b60601c90505f610a17605c60483684613817565b610a2091613876565b60601c90505f610a34607c605c3684613817565b610a3d91614892565b9050610a4a838383610c95565b60408051600160208201520160405160208183030381529060405294505050505090565b604080518082018252600f81526e232aa723a4a12622afa1a7a6a6a7a760891b602090910152517f20081d23699eb901ca16307080f9b35e7967740755a921f749a9e037b0875c7590610ac2905f90614375565b604051809103902003610ade57610ad881612058565b91505090565b60408051808201825260138152724e4f4e5f46554e4749424c455f554e4951554560681b602090910152517f6c58a12b113a1ee77f554495d8bd48a419af104bca196099cdecc39fcb8989f090610b36905f90614375565b604051809103902003610b4c57610ad881612594565b60405162461bcd60e51b815260206004820152602a60248201527f7265646972656374466f72546f6b656e3a20746f6b656e2074797065206e6f74604482015269081cdd5c1c1bdc9d195960b21b6064820152608401610144565b5f803061016714610bca5760405162461bcd60e51b8152600401610144906148af565b6001600160a01b038416610c205760405162461bcd60e51b815260206004820152601a60248201527f676574417070726f7665643a20696e76616c696420746f6b656e0000000000006044820152606401610144565b60405163020604bf60e21b8152600481018490526016906001600160a01b0386169063081812fc90602401602060405180830381865afa158015610c66573d5f803e3d5ffd5b505050506040513d601f19601f82011682018060405250810190610c8a91906148f6565b909590945092505050565b6001600160a01b038316610cbf578060045f828254610cb49190614925565b90915550610d249050565b5f610cc984612b66565b805490915082811015610d1e5760405162461bcd60e51b815260206004820152601f60248201527f5f7472616e736665723a20696e73756666696369656e742062616c616e6365006044820152606401610144565b82900390555b6001600160a01b038216610d4e578060045f828254610d439190614938565b90915550610d6e9050565b5f610d5883612b66565b80549091505f610d688483614925565b90925550505b505050565b6040516001600160a01b03821660248201525f908190819060440160408051601f198184030181529181526020820180516001600160e01b03166393272baf60e01b179052519091505f9081906001600160a01b03871690610dd690859061494b565b5f604051808303815f865af19150503d805f8114610e0f576040519150601f19603f3d011682016040523d82523d5f602084013e610e14565b606091505b50915091506016828015610e2857505f8251115b94509450505050915091565b5f610e3d6136eb565b3061016714610e5e5760405162461bcd60e51b8152600401610144906148af565b6001600160a01b038316610eb45760405162461bcd60e51b815260206004820152601b60248201527f676574546f6b656e496e666f3a20696e76616c696420746f6b656e00000000006044820152606401610144565b604051631f69565f60e01b81526001600160a01b0384166004820181905290631f69565f906024015f604051808303815f875af1158015610ef7573d5f803e3d5ffd5b505050506040513d5f823e601f3d908101601f19168201604052610f1e9190810190614f3e565b9094909350915050565b5f610f3161379d565b6001600160a01b038416610f965760405162461bcd60e51b815260206004820152602660248201527f6765744e6f6e46756e6769626c65546f6b656e496e666f3a20696e76616c6964604482015265103a37b5b2b760d11b6064820152608401610144565b604051631f69565f60e01b81526001600160a01b038516600482018190525f91829190631f69565f906024015f604051808303815f875af1158015610fdd573d5f803e3d5ffd5b505050506040513d5f823e601f3d908101601f191682016040526110049190810190614f3e565b915091508160070b6002146110755760405162461bcd60e51b815260206004820152603160248201527f6765744e6f6e46756e6769626c65546f6b656e496e666f3a206661696c656420604482015270746f2067657420746f6b656e206461746160781b6064820152608401610144565b61107d61379d565b818152600786900b602082015260405163020604bf60e21b81526001600160401b03871660048201526001600160a01b0388169063081812fc90602401602060405180830381865afa1580156110d5573d5f803e3d5ffd5b505050506040513d601f19601f820116820180604052508101906110f991906148f6565b6001600160a01b0390811660a08301526040516331a9108f60e11b81526001600160401b038816600482015290881690636352211e90602401602060405180830381865afa15801561114d573d5f803e3d5ffd5b505050506040513d601f19601f8201168201806040525081019061117191906148f6565b6001600160a01b039081166040838101919091525163c87b56dd60e01b81526001600160401b03881660048201529088169063c87b56dd906024015f60405180830381865afa1580156111c6573d5f803e3d5ffd5b505050506040513d5f823e601f3d908101601f191682016040526111ed91908101906150ad565b60808201525f606082015260169450925050505b9250929050565b5f80306101671461122b5760405162461bcd60e51b8152600401610144906148af565b6001600160a01b0383166112935760405162461bcd60e51b815260206004820152602960248201527f676574546f6b656e44656661756c744b79635374617475733a20696e76616c6960448201526864206164647265737360b81b6064820152608401610144565b60405163335e04c160e01b81526001600160a01b038416600482018190529063335e04c1906024015b60408051808303815f875af11580156112d7573d5f803e3d5ffd5b505050506040513d601f19601f820116820180604052508101906112fb91906150de565b91509150915091565b5f61130d6137d7565b306101671461132e5760405162461bcd60e51b8152600401610144906148af565b6001600160a01b0384166113845760405162461bcd60e51b815260206004820152601a60248201527f676574546f6b656e4b65793a20696e76616c696420746f6b656e0000000000006044820152606401610144565b604051631f69565f60e01b81526001600160a01b038516600482018190525f91829190631f69565f906024015f604051808303815f875af11580156113cb573d5f803e3d5ffd5b505050506040513d5f823e601f3d908101601f191682016040526113f29190810190614f3e565b915091508160070b6016146114575760405162461bcd60e51b815260206004820152602560248201527f676574546f6b656e4b65793a206661696c656420746f2067657420746f6b656e604482015264206461746160d81b6064820152608401610144565b5f5b815160e00151518110156114cc5785825f015160e00151828151811061148157611481615111565b60200260200101515f0151036114c4576016825f015160e0015182815181106114ac576114ac615111565b60200260200101516020015194509450505050611201565b600101611459565b506114d56137d7565b601697909650945050505050565b5f8030610167146115065760405162461bcd60e51b8152600401610144906148af565b6001600160a01b03831661155c5760405162461bcd60e51b815260206004820152601d60248201527f676574546f6b656e547970653a20696e76616c696420616464726573730000006044820152606401610144565b6040516393272baf60e01b81526001600160a01b03841660048201819052906393272baf9060240160408051808303815f875af115801561159f573d5f803e3d5ffd5b505050506040513d601f19601f820116820180604052508101906112fb9190615125565b5f8030610167146115e65760405162461bcd60e51b8152600401610144906148af565b6001600160a01b0383166116515760405162461bcd60e51b815260206004820152602c60248201527f676574546f6b656e44656661756c74467265657a655374617475733a20696e7660448201526b616c6964206164647265737360a01b6064820152608401610144565b60405163a7daa18d60e01b81526001600160a01b038416600482018190529063a7daa18d906024016112bc565b5f6060808030610167146116a45760405162461bcd60e51b8152600401610144906148af565b6001600160a01b0385166117045760405162461bcd60e51b815260206004820152602160248201527f676574546f6b656e437573746f6d466565733a20696e76616c696420746f6b656044820152603760f91b6064820152608401610144565b604051630573b08d60e51b81526001600160a01b038616600482018190529063ae7611a0906024015f604051808303815f875af1158015611747573d5f803e3d5ffd5b505050506040513d5f823e601f3d908101601f1916820160405261176e9190810190615158565b93509350935093509193509193565b604080516060810182525f8082526020820181905291810182905230610167146117b95760405162461bcd60e51b8152600401610144906148af565b6001600160a01b0383166118195760405162461bcd60e51b815260206004820152602160248201527f676574546f6b656e457870697279496e666f3a20696e76616c696420746f6b656044820152603760f91b6064820152608401610144565b604051631ac299b760e31b81526001600160a01b038416600482018190529063d614cdb8906024016080604051808303815f875af115801561185d573d5f803e3d5ffd5b505050506040513d601f19601f82011682018060405250810190610f1e91906151f7565b5f8030610167146118a45760405162461bcd60e51b8152600401610144906148af565b6001600160a01b0385166118fa5760405162461bcd60e51b815260206004820152601860248201527f6275726e546f6b656e3a20696e76616c696420746f6b656e00000000000000006044820152606401610144565b5f8460070b1361194c5760405162461bcd60e51b815260206004820152601960248201527f6275726e546f6b656e3a20696e76616c696420616d6f756e74000000000000006044820152606401610144565b604051631f69565f60e01b81526001600160a01b038616600482018190525f91829190631f69565f906024015f604051808303815f875af1158015611993573d5f803e3d5ffd5b505050506040513d5f823e601f3d908101601f191682016040526119ba9190810190614f3e565b915091508160070b601614611a1d5760405162461bcd60e51b815260206004820152602360248201527f6275726e546f6b656e3a206661696c656420746f2067657420746f6b656e20696044820152626e666f60e81b6064820152608401610144565b8051604001516001600160a01b038116611a795760405162461bcd60e51b815260206004820152601a60248201527f6275726e546f6b656e3a20696e76616c6964206163636f756e740000000000006044820152606401610144565b60405163017677f560e31b81526001600160a01b0382811660048301525f60248301526001600160401b0389166044830152891690630bb3bfa8906064015f604051808303815f87803b158015611ace575f80fd5b505af1158015611ae0573d5f803e3d5ffd5b5050505060169450876001600160a01b03166318160ddd6040518163ffffffff1660e01b8152600401602060405180830381865afa158015611b24573d5f803e3d5ffd5b505050506040513d601f19601f82011682018060405250810190611b489190615222565b93505f8460070b1215611b9d5760405162461bcd60e51b815260206004820152601f60248201527f6275726e546f6b656e3a20696e76616c696420746f74616c20737570706c79006044820152606401610144565b505050935093915050565b5f3061016714611bca5760405162461bcd60e51b8152600401610144906148af565b6040805163e0b490f760e01b602082018190525f602483018190526001600160601b0319606087901b16602c84015290929091829101604051602081830303815290604052611c1890615239565b5495945050505050565b5f8060603061016714611c475760405162461bcd60e51b8152600401610144906148af565b6001600160a01b038616611c9d5760405162461bcd60e51b815260206004820152601860248201527f6d696e74546f6b656e3a20696e76616c696420746f6b656e00000000000000006044820152606401610144565b5f8560070b13611cef5760405162461bcd60e51b815260206004820152601960248201527f6d696e74546f6b656e3a20696e76616c696420616d6f756e74000000000000006044820152606401610144565b604051631f69565f60e01b81526001600160a01b038716600482018190525f91829190631f69565f906024015f604051808303815f875af1158015611d36573d5f803e3d5ffd5b505050506040513d5f823e601f3d908101601f19168201604052611d5d9190810190614f3e565b915091508160070b601614611dc05760405162461bcd60e51b815260206004820152602360248201527f6d696e74546f6b656e3a206661696c656420746f2067657420746f6b656e20696044820152626e666f60e81b6064820152608401610144565b8051604001516001600160a01b038116611e1c5760405162461bcd60e51b815260206004820152601a60248201527f6d696e74546f6b656e3a20696e76616c6964206163636f756e740000000000006044820152606401610144565b60405163017677f560e31b81525f60048201526001600160a01b0382811660248301526001600160401b038a1660448301528a1690630bb3bfa8906064015f604051808303815f87803b158015611e71575f80fd5b505af1158015611e83573d5f803e3d5ffd5b5050505060169550886001600160a01b03166318160ddd6040518163ffffffff1660e01b8152600401602060405180830381865afa158015611ec7573d5f803e3d5ffd5b505050506040513d601f19601f82011682018060405250810190611eeb9190615222565b604080515f808252602082019092529196505093505f8560070b1215611f535760405162461bcd60e51b815260206004820152601f60248201527f6d696e74546f6b656e3a20696e76616c696420746f74616c20737570706c79006044820152606401610144565b50505093509350939050565b5f803061016714611f825760405162461bcd60e51b8152600401610144906148af565b6001600160a01b038516611fd85760405162461bcd60e51b815260206004820152601f60248201527f6973417070726f766564466f72416c6c3a20696e76616c696420746f6b656e006044820152606401610144565b60405163e985e9c560e01b81526001600160a01b03858116600483015284811660248301526016919087169063e985e9c590604401602060405180830381865afa158015612028573d5f803e3d5ffd5b505050506040513d601f19601f8201168201806040525081019061204c919061525c565b91509150935093915050565b606063f90221fd60e01b6001600160e01b031983160161209a5760016040516020016120849190615275565b6040516020818303038152906040529050919050565b63cec31a9960e01b6001600160e01b03198316016120c9576003546040805160ff909216602083015201612084565b63e7e9f22360e01b6001600160e01b03198316016120f65760045460405160200161208491815260200190565b636a2764bf60e01b6001600160e01b03198316016121205760026040516020016120849190615275565b638f5f7dcf60e01b6001600160e01b03198316016121d857603c3610156121895760405162461bcd60e51b815260206004820152601e60248201527f62616c616e63654f663a204e6f7420656e6f7567682063616c6c6461746100006044820152606401610144565b5f612198603c60283684613817565b6121a191613876565b60601c90506121af81612c16565b6040516020016121c191815260200190565b604051602081830303815290604052915050919050565b6356fa634560e01b6001600160e01b03198316016122aa57605c3610156122415760405162461bcd60e51b815260206004820152601d60248201527f7472616e736665723a204e6f7420656e6f7567682063616c6c646174610000006044820152606401610144565b5f612250603c60283684613817565b61225991613876565b60601c90505f61226d605c603c3684613817565b61227691614892565b905033612284818484612c29565b6040805160016020820152015b6040516020818303038152906040529350505050919050565b63dc478d2360e01b6001600160e01b03198316016123a457607c3610156123135760405162461bcd60e51b815260206004820152601e60248201527f7472616e73666572463a204e6f7420656e6f7567682063616c6c6461746100006044820152606401610144565b5f612322603c60283684613817565b61232b91613876565b60601c90505f61233f605c60483684613817565b61234891613876565b60601c90505f61235c607c605c3684613817565b61236591614892565b905033612373848284612d20565b61237e848484612c29565b604080516001602082015201604051602081830303815290604052945050505050919050565b63114e896160e11b6001600160e01b031983160161247b57605c36101561240d5760405162461bcd60e51b815260206004820152601e60248201527f616c6c6f77616e63653a204e6f7420656e6f7567682063616c6c6461746100006044820152606401610144565b5f61241c603c60283684613817565b61242591613876565b60601c90505f612439605c60483684613817565b61244291613876565b60601c90506124518282612d98565b60405160200161246391815260200190565b60405160208183030381529060405292505050919050565b63f6a1584d60e01b6001600160e01b031983160161258557605c3610156124e45760405162461bcd60e51b815260206004820152601c60248201527f617070726f76653a204e6f7420656e6f7567682063616c6c64617461000000006044820152606401610144565b5f6124f3603c60283684613817565b6124fc91613876565b60601c90505f612510605c603c3684613817565b61251991614892565b905033612527818484612dad565b826001600160a01b0316816001600160a01b03167f8c5be1e5ebec7d5bd14f71427d1e84f3dd0314c0f7b2291e5b200ac8c7c3b9258460405161256c91815260200190565b60405180910390a3604080516001602082015201612291565b61258e82612e6d565b92915050565b606063f90221fd60e01b6001600160e01b03198316016125c05760016040516020016120849190615275565b636a2764bf60e01b6001600160e01b03198316016125ea5760026040516020016120849190615275565b633784a92360e01b6001600160e01b031983160161268657603c3610156126535760405162461bcd60e51b815260206004820152601d60248201527f746f6b656e5552493a204e6f7420656e6f7567682063616c6c646174610000006044820152606401610144565b5f612662603c601c3684613817565b61266b91614892565b905061267681612f69565b6040516020016121c19190615287565b63e7e9f22360e01b6001600160e01b03198316016126b35760045460405160200161208491815260200190565b638f5f7dcf60e01b6001600160e01b031983160161271c57603c3610156121895760405162461bcd60e51b815260206004820152601e60248201527f62616c616e63654f663a204e6f7420656e6f7567682063616c6c6461746100006044820152606401610144565b634e56ef7160e11b6001600160e01b03198316016127c257603c3610156127855760405162461bcd60e51b815260206004820152601c60248201527f6f776e65724f663a204e6f7420656e6f7567682063616c6c64617461000000006044820152606401610144565b5f612794603c601c3684613817565b61279d91614892565b90506127a88161300c565b604080516001600160a01b039092166020830152016121c1565b63dc478d2360e01b6001600160e01b031983160161289457607c3610156128355760405162461bcd60e51b815260206004820152602160248201527f7472616e7366657246726f6d3a204e6f7420656e6f7567682063616c6c6461746044820152606160f81b6064820152608401610144565b5f612844603c60283684613817565b61284d91613876565b60601c90505f612861605c60483684613817565b61286a91613876565b60601c90505f61287e607c605c3684613817565b61288791614892565b9050612284838383613017565b63f6a1584d60e01b6001600160e01b031983160161295157605c3610156128fd5760405162461bcd60e51b815260206004820152601c60248201527f617070726f76653a204e6f7420656e6f7567682063616c6c64617461000000006044820152606401610144565b5f61290c603c60283684613817565b61291591613876565b60601c90505f612929605c603c3684613817565b61293291614892565b905061294082826001613210565b604080516001602082015201612463565b635dd34b9b60e01b6001600160e01b0319831601612a0d57605c3610156129c95760405162461bcd60e51b815260206004820152602660248201527f736574417070726f76616c466f72416c6c3a204e6f7420656e6f7567682063616044820152656c6c6461746160d01b6064820152608401610144565b5f6129d8603c60283684613817565b6129e191613876565b60601c90505f6129f5605c603c3684613817565b6129fe91614892565b6001149050612940828261330c565b633df9fb4160e21b6001600160e01b0319831601612a9957603c361015612a765760405162461bcd60e51b815260206004820181905260248201527f676574417070726f7665643a204e6f7420656e6f7567682063616c6c646174616044820152606401610144565b5f612a85603c601c3684613817565b612a8e91614892565b90506127a8816133f4565b63167a163b60e01b6001600160e01b031983160161258557605c361015612b105760405162461bcd60e51b815260206004820152602560248201527f6973417070726f766564466f72416c6c3a204e6f7420656e6f7567682063616c6044820152646c6461746160d81b6064820152608401610144565b5f612b1f603c60283684613817565b612b2891613876565b60601c90505f612b3c605c60483684613817565b612b4591613876565b60601c9050612b5482826133ff565b60408051911515602083015201612463565b60405163e0b490f760e01b81526001600160a01b03821660048201525f906370a0823160e01b90829081906101679063e0b490f7906024015b602060405180830381865afa158015612bba573d5f803e3d5ffd5b505050506040513d601f19601f82011682018060405250810190612bde9190615299565b9050828282604051602001612bf5939291906152bc565b604051602081830303815290604052612c0d90615239565b95945050505050565b5f80612c2183612b66565b549392505050565b6001600160a01b038316612c755760405162461bcd60e51b8152602060048201526013602482015272343a399d1034b73b30b634b21039b2b73232b960691b6044820152606401610144565b6001600160a01b038216612cc35760405162461bcd60e51b8152602060048201526015602482015274343a399d1034b73b30b634b2103932b1b2b4bb32b960591b6044820152606401610144565b612cce838383610c95565b816001600160a01b0316836001600160a01b03167fddf252ad1be2c89b69c2b068fc378daa952ba7f163c4a11628f55a4df523b3ef83604051612d1391815260200190565b60405180910390a3505050565b5f612d2b8484612d98565b90505f198114612d925781811015612d855760405162461bcd60e51b815260206004820152601d60248201527f5f7370656e64416c6c6f77616e63653a20696e73756666696369656e740000006044820152606401610144565b612d928484848403612dad565b50505050565b5f80612da4848461340b565b54949350505050565b6001600160a01b038316612e035760405162461bcd60e51b815260206004820152601760248201527f5f617070726f76653a20696e76616c6964206f776e65720000000000000000006044820152606401610144565b6001600160a01b038216612e595760405162461bcd60e51b815260206004820152601960248201527f5f617070726f76653a20696e76616c6964207370656e646572000000000000006044820152606401610144565b5f612e64848461340b565b91909155505050565b6060637ac5590d60e11b6001600160e01b0319831601612ead575f612e913361352b565b90506001815560016040516020016121c1911515815260200190565b63051b6f4160e51b6001600160e01b0319831601612ee6575f612ecf3361352b565b5f81556040805160016020820152919250016121c1565b63b270229360e01b6001600160e01b0319831601612f21575f612f083361352b565b8054604080518215156020820152929350909101612463565b60405162461bcd60e51b815260206004820152601f60248201527f7265646972656374466f72546f6b656e3a206e6f7420737570706f72746564006044820152606401610144565b60605f612f7583613568565b90505f819050808054612f87906142cf565b80601f0160208091040260200160405190810160405280929190818152602001828054612fb3906142cf565b8015612ffe5780601f10612fd557610100808354040283529160200191612ffe565b820191905f5260205f20905b815481529060010190602001808311612fe157829003601f168201915b505050505092505050919050565b5f80612c21836135aa565b6001600160a01b0383166130635760405162461bcd60e51b8152602060048201526013602482015272343a399d1034b73b30b634b21039b2b73232b960691b6044820152606401610144565b6001600160a01b0382166130b15760405162461bcd60e51b8152602060048201526015602482015274343a399d1034b73b30b634b2103932b1b2b4bb32b960591b6044820152606401610144565b5f6130bb826135aa565b80549091506001600160a01b038082169086161461311b5760405162461bcd60e51b815260206004820152601860248201527f6874733a2073656e646572206973206e6f74206f776e657200000000000000006044820152606401610144565b336001600160a01b0386161461319857613134836133f4565b6001600160a01b0316336001600160a01b03161480613158575061315885336133ff565b6131985760405162461bcd60e51b81526020600482015260116024820152701a1d1cce881d5b985d5d1a1bdc9a5e9959607a1b6044820152606401610144565b5f6131a2846135cc565b90505f81555f6131b287876135ee565b90505f8155858455856001600160a01b0316876001600160a01b03167fddf252ad1be2c89b69c2b068fc378daa952ba7f163c4a11628f55a4df523b3ef876040516131ff91815260200190565b60405180910390a350505050505050565b5f61321a8361300c565b9050336001600160a01b0382161480613243575033613238846133f4565b6001600160a01b0316145b80613253575061325381336133ff565b6132985760405162461bcd60e51b815260206004820152601660248201527517d85c1c1c9bdd994e881d5b985d5d1a1bdc9a5e995960521b6044820152606401610144565b5f6132a2846135cc565b90505f836132b0575f6132b2565b855b9050808255856001600160a01b0316836001600160a01b03167f8c5be1e5ebec7d5bd14f71427d1e84f3dd0314c0f7b2291e5b200ac8c7c3b925876040516132fc91815260200190565b60405180910390a3505050505050565b336001600160a01b038316158015906133375750806001600160a01b0316836001600160a01b031614155b61338f5760405162461bcd60e51b815260206004820152602360248201527f736574417070726f76616c466f72416c6c3a20696e76616c6964206f706572616044820152623a37b960e91b6064820152608401610144565b5f61339a82856135ee565b9050828155836001600160a01b0316826001600160a01b03167f17307eab39ab6107e8899845ad3d59bd9653f200f220920489ca2b5937696c31856040516133e6911515815260200190565b60405180910390a350505050565b5f80612c21836135cc565b5f80612da484846135ee565b60405163e0b490f760e01b81526001600160a01b03831660048201525f90636eb1769f60e11b90829081906101679063e0b490f790602401602060405180830381865afa15801561345e573d5f803e3d5ffd5b505050506040513d601f19601f820116820180604052508101906134829190615299565b60405163e0b490f760e01b81526001600160a01b03871660048201529091505f906101679063e0b490f790602401602060405180830381865afa1580156134cb573d5f803e3d5ffd5b505050506040513d601f19601f820116820180604052508101906134ef9190615299565b90508383828460405160200161350894939291906152f1565b60405160208183030381529060405261352090615239565b979650505050505050565b60405163e0b490f760e01b81526001600160a01b03821660048201525f90634d8fdd6d60e01b90829081906101679063e0b490f790602401612b9f565b6040515f9063c87b56dd60e01b90829061358a908390839087906020016152bc565b6040516020818303038152906040526135a290615239565b949350505050565b6040515f906331a9108f60e11b90829061358a908390839087906020016152bc565b6040515f9063020604bf60e21b90829061358a908390839087906020016152bc565b60405163e0b490f760e01b81526001600160a01b03831660048201525f9063e985e9c560e01b90829081906101679063e0b490f790602401602060405180830381865afa158015613641573d5f803e3d5ffd5b505050506040513d601f19601f820116820180604052508101906136659190615299565b60405163e0b490f760e01b81526001600160a01b03871660048201529091505f906101679063e0b490f790602401602060405180830381865afa1580156136ae573d5f803e3d5ffd5b505050506040513d601f19601f820116820180604052508101906136d29190615299565b90508383838360405160200161350894939291906152f1565b60408051610240810182526060610120820181815261014083018290525f610160840181905261018084018390526101a084018190526101c084018190526101e08401819052610200840183905284519283018552808352602083018190529382019390935261022082015290819081526020015f60070b81526020015f151581526020015f151581526020015f15158152602001606081526020016060815260200160608152602001606081525090565b6040518060c001604052806137b06136eb565b81525f60208201819052604082018190526060808301829052608083015260a09091015290565b6040518060a001604052805f151581526020015f6001600160a01b0316815260200160608152602001606081526020015f6001600160a01b031681525090565b5f8085851115613825575f80fd5b83861115613831575f80fd5b5050820193919092039150565b80356001600160e01b0319811690600484101561386f576001600160e01b0319600485900360031b81901b82161691505b5092915050565b80356001600160601b0319811690601484101561386f576001600160601b031960149490940360031b84901b1690921692915050565b6001600160a01b03811681146138c0575f80fd5b50565b5f80604083850312156138d4575f80fd5b82356138df816138ac565b946020939093013593505050565b5f805f606084860312156138ff575f80fd5b833561390a816138ac565b9250602084013561391a816138ac565b929592945050506040919091013590565b5f6020828403121561393b575f80fd5b8135613946816138ac565b9392505050565b5f81518084528060208401602086015e5f602082860101526020601f19601f83011685010191505092915050565b80511515825260018060a01b0360208201511660208301525f604082015160a060408501526139ad60a085018261394d565b9050606083015184820360608601526139c6828261394d565b6080948501516001600160a01b03169590940194909452509092915050565b5f82825180855260208501945060208160051b830101602085015f5b83811015613a4a57601f198584030188528151805184526020810151905060406020850152613a33604085018261397b565b6020998a0199909450929092019150600101613a01565b50909695505050505050565b5f81516101608452613a6c61016085018261394d565b905060208301518482036020860152613a85828261394d565b9150506040830151613aa260408601826001600160a01b03169052565b5060608301518482036060860152613aba828261394d565b9150506080830151613ad0608086018215159052565b5060a0830151613ae560a086018260070b9052565b5060c0830151613af960c086018215159052565b5060e083015184820360e0860152613b1182826139e5565b915050610100830151613b4c6101008601828051600790810b83526020808301516001600160a01b031690840152604091820151900b910152565b509392505050565b5f8151808452602084019350602083015f5b82811015613bc4578151805160070b87526020808201516001600160a01b03908116828a01526040808401511515908a01526060808401511515908a0152608092830151169188019190915260a09096019590910190600101613b66565b5093949350505050565b5f8151808452602084019350602083015f5b82811015613bc45781515f815160070b8852602082015160070b6020890152604082015160070b6040890152606082015160070b606089015260808201511515608089015260018060a01b0360a08301511660a089015260c0880190508097505050602082019150600181019050613be0565b5f8151808452602084019350602083015f5b82811015613bc45781515f815160070b8852602082015160070b6020890152604082015160070b604089015260018060a01b03606083015116606089015260808201511515608089015260018060a01b0360a08301511660a089015260c0880190508097505050602082019150600181019050613c65565b5f81516101208452613cf3610120850182613a56565b90506020830151613d09602086018260070b9052565b506040830151613d1d604086018215159052565b506060830151613d31606086018215159052565b506080830151613d45608086018215159052565b5060a083015184820360a0860152613d5d8282613b54565b91505060c083015184820360c0860152613d778282613bce565b91505060e083015184820360e0860152613d918282613c53565b915050610100830151848203610100860152612c0d828261394d565b8260070b8152604060208201525f6135a26040830184613cdd565b8060070b81146138c0575f80fd5b5f8060408385031215613de7575f80fd5b8235613df2816138ac565b91506020830135613e0281613dc8565b809150509250929050565b8260070b8152604060208201525f825160c06040840152613e32610100840182613cdd565b9050602084015160070b606084015260018060a01b036040850151166080840152606084015160070b60a08401526080840151603f198483030160c0850152613e7b828261394d565b60a095909501516001600160a01b031660e0949094019390935250919392505050565b8260070b8152604060208201525f6135a2604083018461397b565b8460070b8152608060208201525f613ed46080830186613b54565b8281036040840152613ee68186613bce565b905082810360608401526135208185613c53565b600783900b81526080810161394660208301848051600790810b83526020808301516001600160a01b031690840152604091820151900b910152565b634e487b7160e01b5f52604160045260245ffd5b604080519081016001600160401b0381118282101715613f6c57613f6c613f36565b60405290565b60405160a081016001600160401b0381118282101715613f6c57613f6c613f36565b60405161012081016001600160401b0381118282101715613f6c57613f6c613f36565b60405160c081016001600160401b0381118282101715613f6c57613f6c613f36565b604051601f8201601f191681016001600160401b038111828210171561400157614001613f36565b604052919050565b5f6001600160401b0382111561402157614021613f36565b5060051b60200190565b5f805f6060848603121561403d575f80fd5b8335614048816138ac565b9250602084013561405881613dc8565b915060408401356001600160401b03811115614072575f80fd5b8401601f81018613614082575f80fd5b803561409561409082614009565b613fd9565b8082825260208201915060208360051b8501019250888311156140b6575f80fd5b6020840193505b828410156140e15783356140d081613dc8565b8252602093840193909101906140bd565b809450505050509250925092565b5f6001600160401b0382111561410757614107613f36565b50601f01601f191660200190565b5f805f60608486031215614127575f80fd5b8335614132816138ac565b9250602084013561414281613dc8565b915060408401356001600160401b0381111561415c575f80fd5b8401601f8101861361416c575f80fd5b803561417a61409082614009565b8082825260208201915060208360051b85010192508883111561419b575f80fd5b602084015b8381101561421b5780356001600160401b038111156141bd575f80fd5b8501603f81018b136141cd575f80fd5b60208101356141de614090826140ef565b8181526040838301018d10156141f2575f80fd5b816040840160208301375f602083830101528086525050506020830192506020810190506141a0565b50809450505050509250925092565b5f606082018560070b83528460070b6020840152606060408401528084518083526080850191506020860192505f5b8181101561427a57835160070b835260209384019390920191600101614259565b5090979650505050505050565b5f805f60608486031215614299575f80fd5b83356142a4816138ac565b925060208401356142b4816138ac565b915060408401356142c4816138ac565b809150509250925092565b600181811c908216806142e357607f821691505b60208210810361430157634e487b7160e01b5f52602260045260245ffd5b50919050565b5f8154614313816142cf565b60018216801561432a576001811461433f5761436c565b60ff198316865281151582028601935061436c565b845f5260205f205f5b8381101561436457815488820152600190910190602001614348565b505081860193505b50505092915050565b5f6139468284614307565b5f815461438c816142cf565b8085526001821680156143a657600181146143c25761436c565b60ff1983166020870152602082151560051b870101935061436c565b845f5260205f205f5b838110156143ed5781546020828a0101526001820191506020810190506143cb565b870160200194505050505092915050565b5f82825480855260208501945060208160051b830101845f5260205f205f5b83811015613a4a57848303601f1901885281548352604060208401819052600183015460ff811615159185019190915260081c6001600160a01b0316606084015260a0608084015261447560e0840160028401614380565b838103603f190160a085015261448e8160038501614380565b60048401546001600160a01b031660c09590950194909452506020979097019660059091019060010161441d565b61016082525f6144d0610160840183614380565b83810360208501526144e58160018501614380565b90506144fb60028401546001600160a01b031690565b6001600160a01b03166040850152838103606085015261451e8160038501614380565b905060048301546145366080860160ff831615159052565b600881901c60070b60a086015261455760c0860160ff8360481c1615159052565b5083810360e085015261456d81600585016143fe565b90506139466101008501600685018054600781810b8452604091821c6001600160a01b0316602085015260019092015490910b910152565b5f8154808452602084019350825f5260205f205f5b82811015613bc4578154600781900b8752604081811c6001600160a01b0390811660208a015260e083901c60ff9081161515928a019290925260e89290921c1615156060880152600180840154909116608088015260a090960195600290920191016145ba565b5f8154808452602084019350825f5260205f205f5b82811015613bc4575f82548060070b88528060401c60070b60208901528060801c60070b60408901528060c01d60070b60608901525060018301546146826080890160ff831615159052565b60081c6001600160a01b031660a08801525060c09095019460029190910190600101614636565b5f8154808452602084019350825f5260205f205f5b82811015613bc4575f82548060070b88528060401c60070b60208901528060801c60070b604089015250600183015460018060a01b038116606089015261470f6080890160ff8360a01c1615159052565b505060028201546001600160a01b031660a087015260c0909501946003909101906001016146be565b60ff831681526040602082015261012060408201525f61475c6101608301846144bc565b6008840154600781900b606085015261477f6080850160ff8360401c1615159052565b61479360a0850160ff8360481c1615159052565b6147a760c0850160ff8360501c1615159052565b50828103603f190160e08401526147c181600986016145a5565b838103603f190161010085015290506147dd81600a8601614621565b838103603f190161012085015290506147f981600b86016146a9565b838103603f19016101408501529050612c0d81600c8601614380565b60ff85168152608060208201525f61483060808301866145a5565b82810360408401526148428186614621565b9050828103606084015261352081856146a9565b60ff831681526080810161394660208301848054600781810b8452604091821c6001600160a01b0316602085015260019092015490910b910152565b8035602083101561258e575f19602084900360031b1b1692915050565b60208082526017908201527f68747343616c6c3a2064656c6567617465642063616c6c000000000000000000604082015260600190565b80516148f1816138ac565b919050565b5f60208284031215614906575f80fd5b8151613946816138ac565b634e487b7160e01b5f52601160045260245ffd5b8082018082111561258e5761258e614911565b8181038181111561258e5761258e614911565b5f82518060208501845e5f920191825250919050565b80516148f181613dc8565b5f82601f83011261497b575f80fd5b8151602083015f61498e614090846140ef565b90508281528583830111156149a1575f80fd5b8282602083015e5f92810160200192909252509392505050565b805180151581146148f1575f80fd5b5f82601f8301126149d9575f80fd5b81516149e761409082614009565b8082825260208201915060208360051b860101925085831115614a08575f80fd5b602085015b83811015614b255780516001600160401b03811115614a2a575f80fd5b86016040818903601f19011215614a3f575f80fd5b614a47613f4a565b6020820151815260408201516001600160401b03811115614a66575f80fd5b60208184010192505060a0828a031215614a7e575f80fd5b614a86613f72565b614a8f836149bb565b81526020830151614a9f816138ac565b602082015260408301516001600160401b03811115614abc575f80fd5b614ac88b82860161496c565b60408301525060608301516001600160401b03811115614ae6575f80fd5b614af28b82860161496c565b60608301525060808301519250614b08836138ac565b608081019290925260208181019290925284529283019201614a0d565b5095945050505050565b5f60608284031215614b3f575f80fd5b604051606081016001600160401b0381118282101715614b6157614b61613f36565b80604052508091508251614b7481613dc8565b81526020830151614b84816138ac565b60208201526040830151614b9781613dc8565b6040919091015292915050565b5f6101608284031215614bb5575f80fd5b614bbd613f94565b905081516001600160401b03811115614bd4575f80fd5b614be08482850161496c565b82525060208201516001600160401b03811115614bfb575f80fd5b614c078482850161496c565b602083015250614c19604083016148e6565b604082015260608201516001600160401b03811115614c36575f80fd5b614c428482850161496c565b606083015250614c54608083016149bb565b6080820152614c6560a08301614961565b60a0820152614c7660c083016149bb565b60c082015260e08201516001600160401b03811115614c93575f80fd5b614c9f848285016149ca565b60e083015250614cb3836101008401614b2f565b61010082015292915050565b5f82601f830112614cce575f80fd5b8151614cdc61409082614009565b80828252602082019150602060a08402860101925085831115614cfd575f80fd5b602085015b83811015614b255760a08188031215614d19575f80fd5b614d21613f72565b8151614d2c81613dc8565b81526020820151614d3c816138ac565b6020820152614d4d604083016149bb565b6040820152614d5e606083016149bb565b60608201526080820151614d71816138ac565b6080820152835260209092019160a001614d02565b5f82601f830112614d95575f80fd5b8151614da361409082614009565b80828252602082019150602060c08402860101925085831115614dc4575f80fd5b602085015b83811015614b255760c08188031215614de0575f80fd5b614de8613fb7565b8151614df381613dc8565b81526020820151614e0381613dc8565b60208201526040820151614e1681613dc8565b60408201526060820151614e2981613dc8565b6060820152614e3a608083016149bb565b608082015260a0820151614e4d816138ac565b60a0820152835260209092019160c001614dc9565b5f82601f830112614e71575f80fd5b8151614e7f61409082614009565b80828252602082019150602060c08402860101925085831115614ea0575f80fd5b602085015b83811015614b255760c08188031215614ebc575f80fd5b614ec4613fb7565b8151614ecf81613dc8565b81526020820151614edf81613dc8565b60208201526040820151614ef281613dc8565b60408201526060820151614f05816138ac565b6060820152614f16608083016149bb565b608082015260a0820151614f29816138ac565b60a0820152835260209092019160c001614ea5565b5f8060408385031215614f4f575f80fd5b8251614f5a81613dc8565b60208401519092506001600160401b03811115614f75575f80fd5b83016101208186031215614f87575f80fd5b614f8f613f94565b81516001600160401b03811115614fa4575f80fd5b614fb087828501614ba4565b825250614fbf60208301614961565b6020820152614fd0604083016149bb565b6040820152614fe1606083016149bb565b6060820152614ff2608083016149bb565b608082015260a08201516001600160401b0381111561500f575f80fd5b61501b87828501614cbf565b60a08301525060c08201516001600160401b03811115615039575f80fd5b61504587828501614d86565b60c08301525060e08201516001600160401b03811115615063575f80fd5b61506f87828501614e62565b60e0830152506101008201516001600160401b0381111561508e575f80fd5b61509a8782850161496c565b6101008301525080925050509250929050565b5f602082840312156150bd575f80fd5b81516001600160401b038111156150d2575f80fd5b6135a28482850161496c565b5f80604083850312156150ef575f80fd5b82516150fa81613dc8565b9150615108602084016149bb565b90509250929050565b634e487b7160e01b5f52603260045260245ffd5b5f8060408385031215615136575f80fd5b825161514181613dc8565b8092505060208301518060030b8114613e02575f80fd5b5f805f806080858703121561516b575f80fd5b845161517681613dc8565b60208601519094506001600160401b03811115615191575f80fd5b61519d87828801614cbf565b93505060408501516001600160401b038111156151b8575f80fd5b6151c487828801614d86565b92505060608501516001600160401b038111156151df575f80fd5b6151eb87828801614e62565b91505092959194509250565b5f8060808385031215615208575f80fd5b825161521381613dc8565b91506151088460208501614b2f565b5f60208284031215615232575f80fd5b5051919050565b80516020808301519190811015614301575f1960209190910360031b1b16919050565b5f6020828403121561526c575f80fd5b613946826149bb565b602081525f6139466020830184614380565b602081525f613946602083018461394d565b5f602082840312156152a9575f80fd5b815163ffffffff81168114613946575f80fd5b6001600160e01b0319938416815260409290921b67ffffffffffffffff1916600483015260e01b909116601c82015260200190565b6001600160e01b0319948516815260609390931b6001600160601b031916600484015260e091821b84166018840152901b909116601c8201526020019056fea26469706673582212200af8cd04d1019603157e3e6c44e0e79a02f37a804f634c6fd33c7de012ef564c64736f6c634300081a0033",
        "linkReferences": {}
    },
    "methodIdentifiers": {
        "_update(address,address,uint256)": "0bb3bfa8",
        "burnToken(address,int64,int64[])": "d6910d06",
        "getAccountId(address)": "e0b490f7",
        "getApproved(address,uint256)": "098f2366",
        "getNonFungibleTokenInfo(address,int64)": "287e1da8",
        "getTokenCustomFees(address)": "ae7611a0",
        "getTokenDefaultFreezeStatus(address)": "a7daa18d",
        "getTokenDefaultKycStatus(address)": "335e04c1",
        "getTokenExpiryInfo(address)": "d614cdb8",
        "getTokenInfo(address)": "1f69565f",
        "getTokenKey(address,uint256)": "3c4dd32e",
        "getTokenType(address)": "93272baf",
        "isApprovedForAll(address,address,address)": "f49f40db",
        "isToken(address)": "19f37361",
        "mintToken(address,int64,bytes[])": "e0f4059a"
    },
    "storageLayout": {
        "storage": [
            {
                "astId": 91,
                "contract": "contracts/HtsSystemContract.sol:HtsSystemContract",
                "label": "tokenType",
                "offset": 0,
                "slot": "0",
                "type": "t_string_storage"
            },
            {
                "astId": 93,
                "contract": "contracts/HtsSystemContract.sol:HtsSystemContract",
                "label": "name",
                "offset": 0,
                "slot": "1",
                "type": "t_string_storage"
            },
            {
                "astId": 95,
                "contract": "contracts/HtsSystemContract.sol:HtsSystemContract",
                "label": "symbol",
                "offset": 0,
                "slot": "2",
                "type": "t_string_storage"
            },
            {
                "astId": 97,
                "contract": "contracts/HtsSystemContract.sol:HtsSystemContract",
                "label": "decimals",
                "offset": 0,
                "slot": "3",
                "type": "t_uint8"
            },
            {
                "astId": 99,
                "contract": "contracts/HtsSystemContract.sol:HtsSystemContract",
                "label": "totalSupply",
                "offset": 0,
                "slot": "4",
                "type": "t_uint256"
            },
            {
                "astId": 102,
                "contract": "contracts/HtsSystemContract.sol:HtsSystemContract",
                "label": "_tokenInfo",
                "offset": 0,
                "slot": "5",
                "type": "t_struct(TokenInfo)6118_storage"
            }
        ],
        "types": {
            "t_address": {
                "encoding": "inplace",
                "label": "address",
                "numberOfBytes": "20"
            },
            "t_array(t_struct(FixedFee)6151_storage)dyn_storage": {
                "encoding": "dynamic_array",
                "label": "struct IHederaTokenService.FixedFee[]",
                "numberOfBytes": "32",
                "base": "t_struct(FixedFee)6151_storage"
            },
            "t_array(t_struct(FractionalFee)6165_storage)dyn_storage": {
                "encoding": "dynamic_array",
                "label": "struct IHederaTokenService.FractionalFee[]",
                "numberOfBytes": "32",
                "base": "t_struct(FractionalFee)6165_storage"
            },
            "t_array(t_struct(RoyaltyFee)6179_storage)dyn_storage": {
                "encoding": "dynamic_array",
                "label": "struct IHederaTokenService.RoyaltyFee[]",
                "numberOfBytes": "32",
                "base": "t_struct(RoyaltyFee)6179_storage"
            },
            "t_array(t_struct(TokenKey)6059_storage)dyn_storage": {
                "encoding": "dynamic_array",
                "label": "struct IHederaTokenService.TokenKey[]",
                "numberOfBytes": "32",
                "base": "t_struct(TokenKey)6059_storage"
            },
            "t_bool": {
                "encoding": "inplace",
                "label": "bool",
                "numberOfBytes": "1"
            },
            "t_bytes_storage": {
                "encoding": "bytes",
                "label": "bytes",
                "numberOfBytes": "32"
            },
            "t_int64": {
                "encoding": "inplace",
                "label": "int64",
                "numberOfBytes": "8"
            },
            "t_string_storage": {
                "encoding": "bytes",
                "label": "string",
                "numberOfBytes": "32"
            },
            "t_struct(Expiry)6040_storage": {
                "encoding": "inplace",
                "label": "struct IHederaTokenService.Expiry",
                "numberOfBytes": "64",
                "members": [
                    {
                        "astId": 6035,
                        "contract": "contracts/HtsSystemContract.sol:HtsSystemContract",
                        "label": "second",
                        "offset": 0,
                        "slot": "0",
                        "type": "t_int64"
                    },
                    {
                        "astId": 6037,
                        "contract": "contracts/HtsSystemContract.sol:HtsSystemContract",
                        "label": "autoRenewAccount",
                        "offset": 8,
                        "slot": "0",
                        "type": "t_address"
                    },
                    {
                        "astId": 6039,
                        "contract": "contracts/HtsSystemContract.sol:HtsSystemContract",
                        "label": "autoRenewPeriod",
                        "offset": 0,
                        "slot": "1",
                        "type": "t_int64"
                    }
                ]
            },
            "t_struct(FixedFee)6151_storage": {
                "encoding": "inplace",
                "label": "struct IHederaTokenService.FixedFee",
                "numberOfBytes": "64",
                "members": [
                    {
                        "astId": 6142,
                        "contract": "contracts/HtsSystemContract.sol:HtsSystemContract",
                        "label": "amount",
                        "offset": 0,
                        "slot": "0",
                        "type": "t_int64"
                    },
                    {
                        "astId": 6144,
                        "contract": "contracts/HtsSystemContract.sol:HtsSystemContract",
                        "label": "tokenId",
                        "offset": 8,
                        "slot": "0",
                        "type": "t_address"
                    },
                    {
                        "astId": 6146,
                        "contract": "contracts/HtsSystemContract.sol:HtsSystemContract",
                        "label": "useHbarsForPayment",
                        "offset": 28,
                        "slot": "0",
                        "type": "t_bool"
                    },
                    {
                        "astId": 6148,
                        "contract": "contracts/HtsSystemContract.sol:HtsSystemContract",
                        "label": "useCurrentTokenForPayment",
                        "offset": 29,
                        "slot": "0",
                        "type": "t_bool"
                    },
                    {
                        "astId": 6150,
                        "contract": "contracts/HtsSystemContract.sol:HtsSystemContract",
                        "label": "feeCollector",
                        "offset": 0,
                        "slot": "1",
                        "type": "t_address"
                    }
                ]
            },
            "t_struct(FractionalFee)6165_storage": {
                "encoding": "inplace",
                "label": "struct IHederaTokenService.FractionalFee",
                "numberOfBytes": "64",
                "members": [
                    {
                        "astId": 6154,
                        "contract": "contracts/HtsSystemContract.sol:HtsSystemContract",
                        "label": "numerator",
                        "offset": 0,
                        "slot": "0",
                        "type": "t_int64"
                    },
                    {
                        "astId": 6156,
                        "contract": "contracts/HtsSystemContract.sol:HtsSystemContract",
                        "label": "denominator",
                        "offset": 8,
                        "slot": "0",
                        "type": "t_int64"
                    },
                    {
                        "astId": 6158,
                        "contract": "contracts/HtsSystemContract.sol:HtsSystemContract",
                        "label": "minimumAmount",
                        "offset": 16,
                        "slot": "0",
                        "type": "t_int64"
                    },
                    {
                        "astId": 6160,
                        "contract": "contracts/HtsSystemContract.sol:HtsSystemContract",
                        "label": "maximumAmount",
                        "offset": 24,
                        "slot": "0",
                        "type": "t_int64"
                    },
                    {
                        "astId": 6162,
                        "contract": "contracts/HtsSystemContract.sol:HtsSystemContract",
                        "label": "netOfTransfers",
                        "offset": 0,
                        "slot": "1",
                        "type": "t_bool"
                    },
                    {
                        "astId": 6164,
                        "contract": "contracts/HtsSystemContract.sol:HtsSystemContract",
                        "label": "feeCollector",
                        "offset": 1,
                        "slot": "1",
                        "type": "t_address"
                    }
                ]
            },
            "t_struct(HederaToken)6082_storage": {
                "encoding": "inplace",
                "label": "struct IHederaTokenService.HederaToken",
                "numberOfBytes": "256",
                "members": [
                    {
                        "astId": 6062,
                        "contract": "contracts/HtsSystemContract.sol:HtsSystemContract",
                        "label": "name",
                        "offset": 0,
                        "slot": "0",
                        "type": "t_string_storage"
                    },
                    {
                        "astId": 6064,
                        "contract": "contracts/HtsSystemContract.sol:HtsSystemContract",
                        "label": "symbol",
                        "offset": 0,
                        "slot": "1",
                        "type": "t_string_storage"
                    },
                    {
                        "astId": 6066,
                        "contract": "contracts/HtsSystemContract.sol:HtsSystemContract",
                        "label": "treasury",
                        "offset": 0,
                        "slot": "2",
                        "type": "t_address"
                    },
                    {
                        "astId": 6068,
                        "contract": "contracts/HtsSystemContract.sol:HtsSystemContract",
                        "label": "memo",
                        "offset": 0,
                        "slot": "3",
                        "type": "t_string_storage"
                    },
                    {
                        "astId": 6070,
                        "contract": "contracts/HtsSystemContract.sol:HtsSystemContract",
                        "label": "tokenSupplyType",
                        "offset": 0,
                        "slot": "4",
                        "type": "t_bool"
                    },
                    {
                        "astId": 6072,
                        "contract": "contracts/HtsSystemContract.sol:HtsSystemContract",
                        "label": "maxSupply",
                        "offset": 1,
                        "slot": "4",
                        "type": "t_int64"
                    },
                    {
                        "astId": 6074,
                        "contract": "contracts/HtsSystemContract.sol:HtsSystemContract",
                        "label": "freezeDefault",
                        "offset": 9,
                        "slot": "4",
                        "type": "t_bool"
                    },
                    {
                        "astId": 6078,
                        "contract": "contracts/HtsSystemContract.sol:HtsSystemContract",
                        "label": "tokenKeys",
                        "offset": 0,
                        "slot": "5",
                        "type": "t_array(t_struct(TokenKey)6059_storage)dyn_storage"
                    },
                    {
                        "astId": 6081,
                        "contract": "contracts/HtsSystemContract.sol:HtsSystemContract",
                        "label": "expiry",
                        "offset": 0,
                        "slot": "6",
                        "type": "t_struct(Expiry)6040_storage"
                    }
                ]
            },
            "t_struct(KeyValue)6052_storage": {
                "encoding": "inplace",
                "label": "struct IHederaTokenService.KeyValue",
                "numberOfBytes": "128",
                "members": [
                    {
                        "astId": 6043,
                        "contract": "contracts/HtsSystemContract.sol:HtsSystemContract",
                        "label": "inheritAccountKey",
                        "offset": 0,
                        "slot": "0",
                        "type": "t_bool"
                    },
                    {
                        "astId": 6045,
                        "contract": "contracts/HtsSystemContract.sol:HtsSystemContract",
                        "label": "contractId",
                        "offset": 1,
                        "slot": "0",
                        "type": "t_address"
                    },
                    {
                        "astId": 6047,
                        "contract": "contracts/HtsSystemContract.sol:HtsSystemContract",
                        "label": "ed25519",
                        "offset": 0,
                        "slot": "1",
                        "type": "t_bytes_storage"
                    },
                    {
                        "astId": 6049,
                        "contract": "contracts/HtsSystemContract.sol:HtsSystemContract",
                        "label": "ECDSA_secp256k1",
                        "offset": 0,
                        "slot": "2",
                        "type": "t_bytes_storage"
                    },
                    {
                        "astId": 6051,
                        "contract": "contracts/HtsSystemContract.sol:HtsSystemContract",
                        "label": "delegatableContractId",
                        "offset": 0,
                        "slot": "3",
                        "type": "t_address"
                    }
                ]
            },
            "t_struct(RoyaltyFee)6179_storage": {
                "encoding": "inplace",
                "label": "struct IHederaTokenService.RoyaltyFee",
                "numberOfBytes": "96",
                "members": [
                    {
                        "astId": 6168,
                        "contract": "contracts/HtsSystemContract.sol:HtsSystemContract",
                        "label": "numerator",
                        "offset": 0,
                        "slot": "0",
                        "type": "t_int64"
                    },
                    {
                        "astId": 6170,
                        "contract": "contracts/HtsSystemContract.sol:HtsSystemContract",
                        "label": "denominator",
                        "offset": 8,
                        "slot": "0",
                        "type": "t_int64"
                    },
                    {
                        "astId": 6172,
                        "contract": "contracts/HtsSystemContract.sol:HtsSystemContract",
                        "label": "amount",
                        "offset": 16,
                        "slot": "0",
                        "type": "t_int64"
                    },
                    {
                        "astId": 6174,
                        "contract": "contracts/HtsSystemContract.sol:HtsSystemContract",
                        "label": "tokenId",
                        "offset": 0,
                        "slot": "1",
                        "type": "t_address"
                    },
                    {
                        "astId": 6176,
                        "contract": "contracts/HtsSystemContract.sol:HtsSystemContract",
                        "label": "useHbarsForPayment",
                        "offset": 20,
                        "slot": "1",
                        "type": "t_bool"
                    },
                    {
                        "astId": 6178,
                        "contract": "contracts/HtsSystemContract.sol:HtsSystemContract",
                        "label": "feeCollector",
                        "offset": 0,
                        "slot": "2",
                        "type": "t_address"
                    }
                ]
            },
            "t_struct(TokenInfo)6118_storage": {
                "encoding": "inplace",
                "label": "struct IHederaTokenService.TokenInfo",
                "numberOfBytes": "416",
                "members": [
                    {
                        "astId": 6087,
                        "contract": "contracts/HtsSystemContract.sol:HtsSystemContract",
                        "label": "token",
                        "offset": 0,
                        "slot": "0",
                        "type": "t_struct(HederaToken)6082_storage"
                    },
                    {
                        "astId": 6090,
                        "contract": "contracts/HtsSystemContract.sol:HtsSystemContract",
                        "label": "totalSupply",
                        "offset": 0,
                        "slot": "8",
                        "type": "t_int64"
                    },
                    {
                        "astId": 6093,
                        "contract": "contracts/HtsSystemContract.sol:HtsSystemContract",
                        "label": "deleted",
                        "offset": 8,
                        "slot": "8",
                        "type": "t_bool"
                    },
                    {
                        "astId": 6096,
                        "contract": "contracts/HtsSystemContract.sol:HtsSystemContract",
                        "label": "defaultKycStatus",
                        "offset": 9,
                        "slot": "8",
                        "type": "t_bool"
                    },
                    {
                        "astId": 6099,
                        "contract": "contracts/HtsSystemContract.sol:HtsSystemContract",
                        "label": "pauseStatus",
                        "offset": 10,
                        "slot": "8",
                        "type": "t_bool"
                    },
                    {
                        "astId": 6104,
                        "contract": "contracts/HtsSystemContract.sol:HtsSystemContract",
                        "label": "fixedFees",
                        "offset": 0,
                        "slot": "9",
                        "type": "t_array(t_struct(FixedFee)6151_storage)dyn_storage"
                    },
                    {
                        "astId": 6109,
                        "contract": "contracts/HtsSystemContract.sol:HtsSystemContract",
                        "label": "fractionalFees",
                        "offset": 0,
                        "slot": "10",
                        "type": "t_array(t_struct(FractionalFee)6165_storage)dyn_storage"
                    },
                    {
                        "astId": 6114,
                        "contract": "contracts/HtsSystemContract.sol:HtsSystemContract",
                        "label": "royaltyFees",
                        "offset": 0,
                        "slot": "11",
                        "type": "t_array(t_struct(RoyaltyFee)6179_storage)dyn_storage"
                    },
                    {
                        "astId": 6117,
                        "contract": "contracts/HtsSystemContract.sol:HtsSystemContract",
                        "label": "ledgerId",
                        "offset": 0,
                        "slot": "12",
                        "type": "t_string_storage"
                    }
                ]
            },
            "t_struct(TokenKey)6059_storage": {
                "encoding": "inplace",
                "label": "struct IHederaTokenService.TokenKey",
                "numberOfBytes": "160",
                "members": [
                    {
                        "astId": 6055,
                        "contract": "contracts/HtsSystemContract.sol:HtsSystemContract",
                        "label": "keyType",
                        "offset": 0,
                        "slot": "0",
                        "type": "t_uint256"
                    },
                    {
                        "astId": 6058,
                        "contract": "contracts/HtsSystemContract.sol:HtsSystemContract",
                        "label": "key",
                        "offset": 0,
                        "slot": "1",
                        "type": "t_struct(KeyValue)6052_storage"
                    }
                ]
            },
            "t_uint256": {
                "encoding": "inplace",
                "label": "uint256",
                "numberOfBytes": "32"
            },
            "t_uint8": {
                "encoding": "inplace",
                "label": "uint8",
                "numberOfBytes": "1"
            }
        }
    },
    "userdoc": {
        "version": 1,
        "kind": "user",
        "methods": {
            "getApproved(address,uint256)": {
                "notice": "Get the approved address for a single NFT Only Applicable to NFT Tokens"
            },
            "getNonFungibleTokenInfo(address,int64)": {
                "notice": "Query non fungible token info"
            },
            "getTokenCustomFees(address)": {
                "notice": "Query token custom fees"
            },
            "getTokenDefaultFreezeStatus(address)": {
                "notice": "Query token default freeze status"
            },
            "getTokenDefaultKycStatus(address)": {
                "notice": "Query token default kyc status"
            },
            "getTokenExpiryInfo(address)": {
                "notice": "Query token expiry info"
            },
            "getTokenInfo(address)": {
                "notice": "Query token info"
            },
            "getTokenKey(address,uint256)": {
                "notice": "Query token KeyValue"
            },
            "getTokenType(address)": {
                "notice": "Query to return the token type for a given address"
            },
            "isApprovedForAll(address,address,address)": {
                "notice": "Query if an address is an authorized operator for another address Only Applicable to NFT Tokens"
            },
            "isToken(address)": {
                "notice": "Query if valid token found for the given address"
            }
        }
    },
    "devdoc": {
        "version": 1,
        "kind": "dev",
        "methods": {
            "getAccountId(address)": {
                "details": "Returns the account id (omitting both shard and realm numbers) of the given `address`. The storage adapter, _i.e._, `getHtsStorageAt`, assumes that both shard and realm numbers are zero. Thus, they can be omitted from the account id. See https://docs.hedera.com/hedera/core-concepts/accounts/account-properties for more info on account properties."
            },
            "getApproved(address,uint256)": {
                "params": {
                    "serialNumber": "The NFT to find the approved address for",
                    "token": "The Hedera NFT token address to check approval"
                },
                "returns": {
                    "approved": "The approved address for this NFT, or the zero address if there is none",
                    "responseCode": "The response code for the status of the request. SUCCESS is 22."
                }
            },
            "getNonFungibleTokenInfo(address,int64)": {
                "params": {
                    "serialNumber": "The NFT serialNumber to check",
                    "token": "The token address to check"
                },
                "returns": {
                    "_0": "The response code for the status of the request. SUCCESS is 22.",
                    "_1": "NonFungibleTokenInfo info for `token` `serialNumber`"
                }
            },
            "getTokenCustomFees(address)": {
                "params": {
                    "token": "The token address to check"
                },
                "returns": {
                    "_0": "The response code for the status of the request. SUCCESS is 22.",
                    "_1": "Set of fixed fees for `token`",
                    "_2": "Set of fractional fees for `token`",
                    "_3": "Set of royalty fees for `token`"
                }
            },
            "getTokenDefaultFreezeStatus(address)": {
                "params": {
                    "token": "The token address to check"
                },
                "returns": {
                    "_0": "The response code for the status of the request. SUCCESS is 22.",
                    "_1": "True if `token` default freeze status is frozen."
                }
            },
            "getTokenDefaultKycStatus(address)": {
                "params": {
                    "token": "The token address to check"
                },
                "returns": {
                    "_0": "The response code for the status of the request. SUCCESS is 22.",
                    "_1": "True if `token` default kyc status is KycNotApplicable and false if Revoked."
                }
            },
            "getTokenExpiryInfo(address)": {
                "params": {
                    "token": "The token address to check"
                },
                "returns": {
                    "responseCode": "The response code for the status of the request. SUCCESS is 22.",
                    "tokenInfo": "Expiry info for `token`"
                }
            },
            "getTokenInfo(address)": {
                "params": {
                    "token": "The token address to check"
                },
                "returns": {
                    "responseCode": "The response code for the status of the request. SUCCESS is 22.",
                    "tokenInfo": "TokenInfo info for `token`"
                }
            },
            "getTokenKey(address,uint256)": {
                "params": {
                    "keyType": "The keyType of the desired KeyValue",
                    "token": "The token address to check"
                },
                "returns": {
                    "_0": "The response code for the status of the request. SUCCESS is 22.",
                    "_1": "KeyValue info for key of type `keyType`"
                }
            },
            "getTokenType(address)": {
                "params": {
                    "token": "The token address"
                },
                "returns": {
                    "_0": "The response code for the status of the request. SUCCESS is 22.",
                    "_1": "the token type. 0 is FUNGIBLE_COMMON, 1 is NON_FUNGIBLE_UNIQUE, -1 is UNRECOGNIZED"
                }
            },
            "isApprovedForAll(address,address,address)": {
                "params": {
                    "operator": "The address that acts on behalf of the owner",
                    "owner": "The address that owns the NFTs",
                    "token": "The Hedera NFT token address to approve"
                },
                "returns": {
                    "_0": "The response code for the status of the request. SUCCESS is 22.",
                    "_1": "True if `operator` is an approved operator for `owner`, false otherwise"
                }
            },
            "isToken(address)": {
                "params": {
                    "token": "The token address"
                },
                "returns": {
                    "_0": "The response code for the status of the request. SUCCESS is 22.",
                    "_1": "True if valid token found for the given address"
                }
            }
        },
        "events": {
            "Approval(address,address,uint256)": {
                "details": "Emitted when the allowance of a `spender` for an `owner` is set by a call to {approve}. `value` is the new allowance."
            },
            "Transfer(address,address,uint256)": {
                "details": "Emitted when `value` tokens are moved from one account (`from`) to another (`to`). Note that `value` may be zero."
            }
        }
    },
    "id": 1
}