{
    "abi": [
        {
            "type": "fallback",
            "stateMutability": "nonpayable"
        },
        {
            "type": "function",
            "name": "_update",
            "inputs": [
                {
                    "name": "from",
                    "type": "address",
                    "internalType": "address"
                },
                {
                    "name": "to",
                    "type": "address",
                    "internalType": "address"
                },
                {
                    "name": "amount",
                    "type": "uint256",
                    "internalType": "uint256"
                }
            ],
            "outputs": [],
            "stateMutability": "nonpayable"
        },
        {
            "type": "function",
            "name": "burnToken",
            "inputs": [
                {
                    "name": "token",
                    "type": "address",
                    "internalType": "address"
                },
                {
                    "name": "amount",
                    "type": "int64",
                    "internalType": "int64"
                },
                {
                    "name": "",
                    "type": "int64[]",
                    "internalType": "int64[]"
                }
            ],
            "outputs": [
                {
                    "name": "responseCode",
                    "type": "int64",
                    "internalType": "int64"
                },
                {
                    "name": "newTotalSupply",
                    "type": "int64",
                    "internalType": "int64"
                }
            ],
            "stateMutability": "nonpayable"
        },
        {
            "type": "function",
            "name": "getAccountId",
            "inputs": [
                {
                    "name": "account",
                    "type": "address",
                    "internalType": "address"
                }
            ],
            "outputs": [
                {
                    "name": "accountId",
                    "type": "uint32",
                    "internalType": "uint32"
                }
            ],
            "stateMutability": "view"
        },
        {
            "type": "function",
            "name": "getTokenInfo",
            "inputs": [
                {
                    "name": "token",
                    "type": "address",
                    "internalType": "address"
                }
            ],
            "outputs": [
                {
                    "name": "responseCode",
                    "type": "int64",
                    "internalType": "int64"
                },
                {
                    "name": "tokenInfo",
                    "type": "tuple",
                    "internalType": "struct IHederaTokenService.TokenInfo",
                    "components": [
                        {
                            "name": "token",
                            "type": "tuple",
                            "internalType": "struct IHederaTokenService.HederaToken",
                            "components": [
                                {
                                    "name": "name",
                                    "type": "string",
                                    "internalType": "string"
                                },
                                {
                                    "name": "symbol",
                                    "type": "string",
                                    "internalType": "string"
                                },
                                {
                                    "name": "treasury",
                                    "type": "address",
                                    "internalType": "address"
                                },
                                {
                                    "name": "memo",
                                    "type": "string",
                                    "internalType": "string"
                                },
                                {
                                    "name": "tokenSupplyType",
                                    "type": "bool",
                                    "internalType": "bool"
                                },
                                {
                                    "name": "maxSupply",
                                    "type": "int64",
                                    "internalType": "int64"
                                },
                                {
                                    "name": "freezeDefault",
                                    "type": "bool",
                                    "internalType": "bool"
                                },
                                {
                                    "name": "tokenKeys",
                                    "type": "tuple[]",
                                    "internalType": "struct IHederaTokenService.TokenKey[]",
                                    "components": [
                                        {
                                            "name": "keyType",
                                            "type": "uint256",
                                            "internalType": "uint256"
                                        },
                                        {
                                            "name": "key",
                                            "type": "tuple",
                                            "internalType": "struct IHederaTokenService.KeyValue",
                                            "components": [
                                                {
                                                    "name": "inheritAccountKey",
                                                    "type": "bool",
                                                    "internalType": "bool"
                                                },
                                                {
                                                    "name": "contractId",
                                                    "type": "address",
                                                    "internalType": "address"
                                                },
                                                {
                                                    "name": "ed25519",
                                                    "type": "bytes",
                                                    "internalType": "bytes"
                                                },
                                                {
                                                    "name": "ECDSA_secp256k1",
                                                    "type": "bytes",
                                                    "internalType": "bytes"
                                                },
                                                {
                                                    "name": "delegatableContractId",
                                                    "type": "address",
                                                    "internalType": "address"
                                                }
                                            ]
                                        }
                                    ]
                                },
                                {
                                    "name": "expiry",
                                    "type": "tuple",
                                    "internalType": "struct IHederaTokenService.Expiry",
                                    "components": [
                                        {
                                            "name": "second",
                                            "type": "int64",
                                            "internalType": "int64"
                                        },
                                        {
                                            "name": "autoRenewAccount",
                                            "type": "address",
                                            "internalType": "address"
                                        },
                                        {
                                            "name": "autoRenewPeriod",
                                            "type": "int64",
                                            "internalType": "int64"
                                        }
                                    ]
                                }
                            ]
                        },
                        {
                            "name": "totalSupply",
                            "type": "int64",
                            "internalType": "int64"
                        },
                        {
                            "name": "deleted",
                            "type": "bool",
                            "internalType": "bool"
                        },
                        {
                            "name": "defaultKycStatus",
                            "type": "bool",
                            "internalType": "bool"
                        },
                        {
                            "name": "pauseStatus",
                            "type": "bool",
                            "internalType": "bool"
                        },
                        {
                            "name": "fixedFees",
                            "type": "tuple[]",
                            "internalType": "struct IHederaTokenService.FixedFee[]",
                            "components": [
                                {
                                    "name": "amount",
                                    "type": "int64",
                                    "internalType": "int64"
                                },
                                {
                                    "name": "tokenId",
                                    "type": "address",
                                    "internalType": "address"
                                },
                                {
                                    "name": "useHbarsForPayment",
                                    "type": "bool",
                                    "internalType": "bool"
                                },
                                {
                                    "name": "useCurrentTokenForPayment",
                                    "type": "bool",
                                    "internalType": "bool"
                                },
                                {
                                    "name": "feeCollector",
                                    "type": "address",
                                    "internalType": "address"
                                }
                            ]
                        },
                        {
                            "name": "fractionalFees",
                            "type": "tuple[]",
                            "internalType": "struct IHederaTokenService.FractionalFee[]",
                            "components": [
                                {
                                    "name": "numerator",
                                    "type": "int64",
                                    "internalType": "int64"
                                },
                                {
                                    "name": "denominator",
                                    "type": "int64",
                                    "internalType": "int64"
                                },
                                {
                                    "name": "minimumAmount",
                                    "type": "int64",
                                    "internalType": "int64"
                                },
                                {
                                    "name": "maximumAmount",
                                    "type": "int64",
                                    "internalType": "int64"
                                },
                                {
                                    "name": "netOfTransfers",
                                    "type": "bool",
                                    "internalType": "bool"
                                },
                                {
                                    "name": "feeCollector",
                                    "type": "address",
                                    "internalType": "address"
                                }
                            ]
                        },
                        {
                            "name": "royaltyFees",
                            "type": "tuple[]",
                            "internalType": "struct IHederaTokenService.RoyaltyFee[]",
                            "components": [
                                {
                                    "name": "numerator",
                                    "type": "int64",
                                    "internalType": "int64"
                                },
                                {
                                    "name": "denominator",
                                    "type": "int64",
                                    "internalType": "int64"
                                },
                                {
                                    "name": "amount",
                                    "type": "int64",
                                    "internalType": "int64"
                                },
                                {
                                    "name": "tokenId",
                                    "type": "address",
                                    "internalType": "address"
                                },
                                {
                                    "name": "useHbarsForPayment",
                                    "type": "bool",
                                    "internalType": "bool"
                                },
                                {
                                    "name": "feeCollector",
                                    "type": "address",
                                    "internalType": "address"
                                }
                            ]
                        },
                        {
                            "name": "ledgerId",
                            "type": "string",
                            "internalType": "string"
                        }
                    ]
                }
            ],
            "stateMutability": "nonpayable"
        },
        {
            "type": "function",
            "name": "mintToken",
            "inputs": [
                {
                    "name": "token",
                    "type": "address",
                    "internalType": "address"
                },
                {
                    "name": "amount",
                    "type": "int64",
                    "internalType": "int64"
                },
                {
                    "name": "",
                    "type": "bytes[]",
                    "internalType": "bytes[]"
                }
            ],
            "outputs": [
                {
                    "name": "responseCode",
                    "type": "int64",
                    "internalType": "int64"
                },
                {
                    "name": "newTotalSupply",
                    "type": "int64",
                    "internalType": "int64"
                },
                {
                    "name": "serialNumbers",
                    "type": "int64[]",
                    "internalType": "int64[]"
                }
            ],
            "stateMutability": "nonpayable"
        },
        {
            "type": "event",
            "name": "Approval",
            "inputs": [
                {
                    "name": "owner",
                    "type": "address",
                    "indexed": true,
                    "internalType": "address"
                },
                {
                    "name": "spender",
                    "type": "address",
                    "indexed": true,
                    "internalType": "address"
                },
                {
                    "name": "amount",
                    "type": "uint256",
                    "indexed": false,
                    "internalType": "uint256"
                }
            ],
            "anonymous": false
        },
        {
            "type": "event",
            "name": "ApprovalForAll",
            "inputs": [
                {
                    "name": "owner",
                    "type": "address",
                    "indexed": true,
                    "internalType": "address"
                },
                {
                    "name": "operator",
                    "type": "address",
                    "indexed": true,
                    "internalType": "address"
                },
                {
                    "name": "approved",
                    "type": "bool",
                    "indexed": false,
                    "internalType": "bool"
                }
            ],
            "anonymous": false
        },
        {
            "type": "event",
            "name": "Transfer",
            "inputs": [
                {
                    "name": "from",
                    "type": "address",
                    "indexed": true,
                    "internalType": "address"
                },
                {
                    "name": "to",
                    "type": "address",
                    "indexed": true,
                    "internalType": "address"
                },
                {
                    "name": "amount",
                    "type": "uint256",
                    "indexed": false,
                    "internalType": "uint256"
                }
            ],
            "anonymous": false
        }
    ],
    "bytecode": {
        "object": "0x6080604052348015600e575f5ffd5b50613ce88061001c5f395ff3fe608060405234801561000f575f5ffd5b5060043610610055575f3560e01c80630bb3bfa8146101a05780631f69565f146101b5578063d6910d06146101df578063e0b490f71461020c578063e0f4059a14610234575b5f366060601c8210156100af5760405162461bcd60e51b815260206004820152601d60248201527f66616c6c6261636b3a206e6f7420656e6f7567682063616c6c6461746100000060448201526064015b60405180910390fd5b5f6100bd60048236816125cb565b6100c6916125f2565b60e01c905063618dc65e811461011e5760405162461bcd60e51b815260206004820152601e60248201527f66616c6c6261636b3a20756e737570706f727465642073656c6563746f72000060448201526064016100a6565b5f61012d6018600436846125cb565b6101369161262a565b60601c905030811461018a5760405162461bcd60e51b815260206004820152601d60248201527f66616c6c6261636b3a20746f6b656e206973206e6f742063616c6c657200000060448201526064016100a6565b610192610256565b805195506020019350505050f35b6101b36101ae366004612677565b6105eb565b005b6101c86101c33660046126b5565b6106c9565b6040516101d6929190612a4f565b60405180910390f35b6101f26101ed366004612c3c565b61085a565b60408051600793840b81529190920b6020820152016101d6565b61021f61021a3660046126b5565b610b81565b60405163ffffffff90911681526020016101d6565b610247610242366004612d26565b610bfb565b6040516101d693929190612e3b565b60605f610267601c601836846125cb565b610270916125f2565b905060408051808201825260098152681393d517d193d5539160ba1b602090910152517f7bafae6429a8b3ef0db181af7c5834a6f2b1af33146a1a9ae02e833d27f2431b906102c0905f90612ed0565b60405180910390200361031f5760405162461bcd60e51b815260206004820152602160248201527f7265646972656374466f72546f6b656e3a20746f6b656e206e6f7420666f756e6044820152601960fa1b60648201526084016100a6565b6101661933016104b25763e096a9a160e01b6001600160e01b03198216016103c657601c36101561039c5760405162461bcd60e51b815260206004820152602160248201527f676574546f6b656e496e666f3a204e6f7420656e6f7567682063616c6c6461746044820152606160f81b60648201526084016100a6565b601660056040516020016103b19291906132f6565b60405160208183030381529060405291505090565b631e89880b60e31b6001600160e01b03198216016104b257607c36101561042f5760405162461bcd60e51b815260206004820152601b60248201527f7570646174653a204e6f7420656e6f7567682063616c6c64617461000000000060448201526064016100a6565b5f61043e603c602836846125cb565b6104479161262a565b60601c90505f61045b605c604836846125cb565b6104649161262a565b60601c90505f610478607c605c36846125cb565b610481916133d3565b905061048e8383836105eb565b60408051600160208201520160405160208183030381529060405294505050505090565b604080518082018252600f81526e232aa723a4a12622afa1a7a6a6a7a760891b602090910152517f20081d23699eb901ca16307080f9b35e7967740755a921f749a9e037b0875c7590610506905f90612ed0565b6040518091039020036105225761051c81610f38565b91505090565b60408051808201825260138152724e4f4e5f46554e4749424c455f554e4951554560681b602090910152517f6c58a12b113a1ee77f554495d8bd48a419af104bca196099cdecc39fcb8989f09061057a905f90612ed0565b6040518091039020036105905761051c81611474565b60405162461bcd60e51b815260206004820152602a60248201527f7265646972656374466f72546f6b656e3a20746f6b656e2074797065206e6f74604482015269081cdd5c1c1bdc9d195960b21b60648201526084016100a6565b6001600160a01b038316610615578060045f82825461060a9190613404565b9091555061067a9050565b5f61061f84611a46565b8054909150828110156106745760405162461bcd60e51b815260206004820152601f60248201527f5f7472616e736665723a20696e73756666696369656e742062616c616e63650060448201526064016100a6565b82900390555b6001600160a01b0382166106a4578060045f8282546106999190613417565b909155506106c49050565b5f6106ae83611a46565b80549091505f6106be8483613404565b90925550505b505050565b60408051610240810182526060610120820181815261014083018290525f610160840181905261018084018390526101a084018190526101c084018190526101e0840181905261020084018390528451808401865281815260208082018390528187018390526102208601919091529184529083018190529282018390528082018390526080820183905260a0820181905260c0820181905260e0820181905261010082015230610167146107905760405162461bcd60e51b81526004016100a69061342a565b6001600160a01b0383166107e65760405162461bcd60e51b815260206004820152601b60248201527f676574546f6b656e496e666f3a20696e76616c696420746f6b656e000000000060448201526064016100a6565b604051631f69565f60e01b81526001600160a01b0384166004820181905290631f69565f906024015f604051808303815f875af1158015610829573d5f5f3e3d5ffd5b505050506040513d5f823e601f3d908101601f191682016040526108509190810190613a4e565b9094909350915050565b5f80306101671461087d5760405162461bcd60e51b81526004016100a69061342a565b6001600160a01b0385166108d35760405162461bcd60e51b815260206004820152601860248201527f6275726e546f6b656e3a20696e76616c696420746f6b656e000000000000000060448201526064016100a6565b5f8460070b136109255760405162461bcd60e51b815260206004820152601960248201527f6275726e546f6b656e3a20696e76616c696420616d6f756e740000000000000060448201526064016100a6565b604051631f69565f60e01b81526001600160a01b038616600482018190525f91829190631f69565f906024015f604051808303815f875af115801561096c573d5f5f3e3d5ffd5b505050506040513d5f823e601f3d908101601f191682016040526109939190810190613a4e565b915091508160070b6016146109f65760405162461bcd60e51b815260206004820152602360248201527f6275726e546f6b656e3a206661696c656420746f2067657420746f6b656e20696044820152626e666f60e81b60648201526084016100a6565b8051604001516001600160a01b038116610a525760405162461bcd60e51b815260206004820152601a60248201527f6275726e546f6b656e3a20696e76616c6964206163636f756e7400000000000060448201526064016100a6565b60405163017677f560e31b81526001600160a01b0382811660048301525f60248301526001600160401b0389166044830152891690630bb3bfa8906064015f604051808303815f87803b158015610aa7575f5ffd5b505af1158015610ab9573d5f5f3e3d5ffd5b5050505060169450876001600160a01b03166318160ddd6040518163ffffffff1660e01b8152600401602060405180830381865afa158015610afd573d5f5f3e3d5ffd5b505050506040513d601f19601f82011682018060405250810190610b219190613bbd565b93505f8460070b1215610b765760405162461bcd60e51b815260206004820152601f60248201527f6275726e546f6b656e3a20696e76616c696420746f74616c20737570706c790060448201526064016100a6565b505050935093915050565b5f3061016714610ba35760405162461bcd60e51b81526004016100a69061342a565b6040805163e0b490f760e01b602082018190525f602483018190526001600160601b0319606087901b16602c84015290929091829101604051602081830303815290604052610bf190613bd4565b5495945050505050565b5f8060603061016714610c205760405162461bcd60e51b81526004016100a69061342a565b6001600160a01b038616610c765760405162461bcd60e51b815260206004820152601860248201527f6d696e74546f6b656e3a20696e76616c696420746f6b656e000000000000000060448201526064016100a6565b5f8560070b13610cc85760405162461bcd60e51b815260206004820152601960248201527f6d696e74546f6b656e3a20696e76616c696420616d6f756e740000000000000060448201526064016100a6565b604051631f69565f60e01b81526001600160a01b038716600482018190525f91829190631f69565f906024015f604051808303815f875af1158015610d0f573d5f5f3e3d5ffd5b505050506040513d5f823e601f3d908101601f19168201604052610d369190810190613a4e565b915091508160070b601614610d995760405162461bcd60e51b815260206004820152602360248201527f6d696e74546f6b656e3a206661696c656420746f2067657420746f6b656e20696044820152626e666f60e81b60648201526084016100a6565b8051604001516001600160a01b038116610df55760405162461bcd60e51b815260206004820152601a60248201527f6d696e74546f6b656e3a20696e76616c6964206163636f756e7400000000000060448201526064016100a6565b60405163017677f560e31b81525f60048201526001600160a01b0382811660248301526001600160401b038a1660448301528a1690630bb3bfa8906064015f604051808303815f87803b158015610e4a575f5ffd5b505af1158015610e5c573d5f5f3e3d5ffd5b5050505060169550886001600160a01b03166318160ddd6040518163ffffffff1660e01b8152600401602060405180830381865afa158015610ea0573d5f5f3e3d5ffd5b505050506040513d601f19601f82011682018060405250810190610ec49190613bbd565b604080515f808252602082019092529196505093505f8560070b1215610f2c5760405162461bcd60e51b815260206004820152601f60248201527f6d696e74546f6b656e3a20696e76616c696420746f74616c20737570706c790060448201526064016100a6565b50505093509350939050565b606063f90221fd60e01b6001600160e01b0319831601610f7a576001604051602001610f649190613bf7565b6040516020818303038152906040529050919050565b63cec31a9960e01b6001600160e01b0319831601610fa9576003546040805160ff909216602083015201610f64565b63e7e9f22360e01b6001600160e01b0319831601610fd657600454604051602001610f6491815260200190565b636a2764bf60e01b6001600160e01b0319831601611000576002604051602001610f649190613bf7565b638f5f7dcf60e01b6001600160e01b03198316016110b857603c3610156110695760405162461bcd60e51b815260206004820152601e60248201527f62616c616e63654f663a204e6f7420656e6f7567682063616c6c64617461000060448201526064016100a6565b5f611078603c602836846125cb565b6110819161262a565b60601c905061108f81611af6565b6040516020016110a191815260200190565b604051602081830303815290604052915050919050565b6356fa634560e01b6001600160e01b031983160161118a57605c3610156111215760405162461bcd60e51b815260206004820152601d60248201527f7472616e736665723a204e6f7420656e6f7567682063616c6c6461746100000060448201526064016100a6565b5f611130603c602836846125cb565b6111399161262a565b60601c90505f61114d605c603c36846125cb565b611156916133d3565b905033611164818484611b09565b6040805160016020820152015b6040516020818303038152906040529350505050919050565b63dc478d2360e01b6001600160e01b031983160161128457607c3610156111f35760405162461bcd60e51b815260206004820152601e60248201527f7472616e73666572463a204e6f7420656e6f7567682063616c6c64617461000060448201526064016100a6565b5f611202603c602836846125cb565b61120b9161262a565b60601c90505f61121f605c604836846125cb565b6112289161262a565b60601c90505f61123c607c605c36846125cb565b611245916133d3565b905033611253848284611c00565b61125e848484611b09565b604080516001602082015201604051602081830303815290604052945050505050919050565b63114e896160e11b6001600160e01b031983160161135b57605c3610156112ed5760405162461bcd60e51b815260206004820152601e60248201527f616c6c6f77616e63653a204e6f7420656e6f7567682063616c6c64617461000060448201526064016100a6565b5f6112fc603c602836846125cb565b6113059161262a565b60601c90505f611319605c604836846125cb565b6113229161262a565b60601c90506113318282611c78565b60405160200161134391815260200190565b60405160208183030381529060405292505050919050565b63f6a1584d60e01b6001600160e01b031983160161146557605c3610156113c45760405162461bcd60e51b815260206004820152601c60248201527f617070726f76653a204e6f7420656e6f7567682063616c6c646174610000000060448201526064016100a6565b5f6113d3603c602836846125cb565b6113dc9161262a565b60601c90505f6113f0605c603c36846125cb565b6113f9916133d3565b905033611407818484611c8d565b826001600160a01b0316816001600160a01b03167f8c5be1e5ebec7d5bd14f71427d1e84f3dd0314c0f7b2291e5b200ac8c7c3b9258460405161144c91815260200190565b60405180910390a3604080516001602082015201611171565b61146e82611d4d565b92915050565b606063f90221fd60e01b6001600160e01b03198316016114a0576001604051602001610f649190613bf7565b636a2764bf60e01b6001600160e01b03198316016114ca576002604051602001610f649190613bf7565b633784a92360e01b6001600160e01b031983160161156657603c3610156115335760405162461bcd60e51b815260206004820152601d60248201527f746f6b656e5552493a204e6f7420656e6f7567682063616c6c6461746100000060448201526064016100a6565b5f611542603c601c36846125cb565b61154b916133d3565b905061155681611e49565b6040516020016110a19190613c09565b63e7e9f22360e01b6001600160e01b031983160161159357600454604051602001610f6491815260200190565b638f5f7dcf60e01b6001600160e01b03198316016115fc57603c3610156110695760405162461bcd60e51b815260206004820152601e60248201527f62616c616e63654f663a204e6f7420656e6f7567682063616c6c64617461000060448201526064016100a6565b634e56ef7160e11b6001600160e01b03198316016116a257603c3610156116655760405162461bcd60e51b815260206004820152601c60248201527f6f776e65724f663a204e6f7420656e6f7567682063616c6c646174610000000060448201526064016100a6565b5f611674603c601c36846125cb565b61167d916133d3565b905061168881611eec565b604080516001600160a01b039092166020830152016110a1565b63dc478d2360e01b6001600160e01b031983160161177457607c3610156117155760405162461bcd60e51b815260206004820152602160248201527f7472616e7366657246726f6d3a204e6f7420656e6f7567682063616c6c6461746044820152606160f81b60648201526084016100a6565b5f611724603c602836846125cb565b61172d9161262a565b60601c90505f611741605c604836846125cb565b61174a9161262a565b60601c90505f61175e607c605c36846125cb565b611767916133d3565b9050611164838383611ef7565b63f6a1584d60e01b6001600160e01b031983160161183157605c3610156117dd5760405162461bcd60e51b815260206004820152601c60248201527f617070726f76653a204e6f7420656e6f7567682063616c6c646174610000000060448201526064016100a6565b5f6117ec603c602836846125cb565b6117f59161262a565b60601c90505f611809605c603c36846125cb565b611812916133d3565b9050611820828260016120f0565b604080516001602082015201611343565b635dd34b9b60e01b6001600160e01b03198316016118ed57605c3610156118a95760405162461bcd60e51b815260206004820152602660248201527f736574417070726f76616c466f72416c6c3a204e6f7420656e6f7567682063616044820152656c6c6461746160d01b60648201526084016100a6565b5f6118b8603c602836846125cb565b6118c19161262a565b60601c90505f6118d5605c603c36846125cb565b6118de916133d3565b600114905061182082826121ec565b633df9fb4160e21b6001600160e01b031983160161197957603c3610156119565760405162461bcd60e51b815260206004820181905260248201527f676574417070726f7665643a204e6f7420656e6f7567682063616c6c6461746160448201526064016100a6565b5f611965603c601c36846125cb565b61196e916133d3565b9050611688816122d4565b63167a163b60e01b6001600160e01b031983160161146557605c3610156119f05760405162461bcd60e51b815260206004820152602560248201527f6973417070726f766564466f72416c6c3a204e6f7420656e6f7567682063616c6044820152646c6461746160d81b60648201526084016100a6565b5f6119ff603c602836846125cb565b611a089161262a565b60601c90505f611a1c605c604836846125cb565b611a259161262a565b60601c9050611a3482826122df565b60408051911515602083015201611343565b60405163e0b490f760e01b81526001600160a01b03821660048201525f906370a0823160e01b90829081906101679063e0b490f7906024015b602060405180830381865afa158015611a9a573d5f5f3e3d5ffd5b505050506040513d601f19601f82011682018060405250810190611abe9190613c1b565b9050828282604051602001611ad593929190613c3e565b604051602081830303815290604052611aed90613bd4565b95945050505050565b5f5f611b0183611a46565b549392505050565b6001600160a01b038316611b555760405162461bcd60e51b8152602060048201526013602482015272343a399d1034b73b30b634b21039b2b73232b960691b60448201526064016100a6565b6001600160a01b038216611ba35760405162461bcd60e51b8152602060048201526015602482015274343a399d1034b73b30b634b2103932b1b2b4bb32b960591b60448201526064016100a6565b611bae8383836105eb565b816001600160a01b0316836001600160a01b03167fddf252ad1be2c89b69c2b068fc378daa952ba7f163c4a11628f55a4df523b3ef83604051611bf391815260200190565b60405180910390a3505050565b5f611c0b8484611c78565b90505f198114611c725781811015611c655760405162461bcd60e51b815260206004820152601d60248201527f5f7370656e64416c6c6f77616e63653a20696e73756666696369656e7400000060448201526064016100a6565b611c728484848403611c8d565b50505050565b5f5f611c8484846122eb565b54949350505050565b6001600160a01b038316611ce35760405162461bcd60e51b815260206004820152601760248201527f5f617070726f76653a20696e76616c6964206f776e657200000000000000000060448201526064016100a6565b6001600160a01b038216611d395760405162461bcd60e51b815260206004820152601960248201527f5f617070726f76653a20696e76616c6964207370656e6465720000000000000060448201526064016100a6565b5f611d4484846122eb565b91909155505050565b6060637ac5590d60e11b6001600160e01b0319831601611d8d575f611d713361240b565b90506001815560016040516020016110a1911515815260200190565b63051b6f4160e51b6001600160e01b0319831601611dc6575f611daf3361240b565b5f81556040805160016020820152919250016110a1565b63b270229360e01b6001600160e01b0319831601611e01575f611de83361240b565b8054604080518215156020820152929350909101611343565b60405162461bcd60e51b815260206004820152601f60248201527f7265646972656374466f72546f6b656e3a206e6f7420737570706f727465640060448201526064016100a6565b60605f611e5583612448565b90505f819050808054611e6790612e98565b80601f0160208091040260200160405190810160405280929190818152602001828054611e9390612e98565b8015611ede5780601f10611eb557610100808354040283529160200191611ede565b820191905f5260205f20905b815481529060010190602001808311611ec157829003601f168201915b505050505092505050919050565b5f5f611b018361248a565b6001600160a01b038316611f435760405162461bcd60e51b8152602060048201526013602482015272343a399d1034b73b30b634b21039b2b73232b960691b60448201526064016100a6565b6001600160a01b038216611f915760405162461bcd60e51b8152602060048201526015602482015274343a399d1034b73b30b634b2103932b1b2b4bb32b960591b60448201526064016100a6565b5f611f9b8261248a565b80549091506001600160a01b0380821690861614611ffb5760405162461bcd60e51b815260206004820152601860248201527f6874733a2073656e646572206973206e6f74206f776e6572000000000000000060448201526064016100a6565b336001600160a01b0386161461207857612014836122d4565b6001600160a01b0316336001600160a01b03161480612038575061203885336122df565b6120785760405162461bcd60e51b81526020600482015260116024820152701a1d1cce881d5b985d5d1a1bdc9a5e9959607a1b60448201526064016100a6565b5f612082846124ac565b90505f81555f61209287876124ce565b90505f8155858455856001600160a01b0316876001600160a01b03167fddf252ad1be2c89b69c2b068fc378daa952ba7f163c4a11628f55a4df523b3ef876040516120df91815260200190565b60405180910390a350505050505050565b5f6120fa83611eec565b9050336001600160a01b0382161480612123575033612118846122d4565b6001600160a01b0316145b80612133575061213381336122df565b6121785760405162461bcd60e51b815260206004820152601660248201527517d85c1c1c9bdd994e881d5b985d5d1a1bdc9a5e995960521b60448201526064016100a6565b5f612182846124ac565b90505f83612190575f612192565b855b9050808255856001600160a01b0316836001600160a01b03167f8c5be1e5ebec7d5bd14f71427d1e84f3dd0314c0f7b2291e5b200ac8c7c3b925876040516121dc91815260200190565b60405180910390a3505050505050565b336001600160a01b038316158015906122175750806001600160a01b0316836001600160a01b031614155b61226f5760405162461bcd60e51b815260206004820152602360248201527f736574417070726f76616c466f72416c6c3a20696e76616c6964206f706572616044820152623a37b960e91b60648201526084016100a6565b5f61227a82856124ce565b9050828155836001600160a01b0316826001600160a01b03167f17307eab39ab6107e8899845ad3d59bd9653f200f220920489ca2b5937696c31856040516122c6911515815260200190565b60405180910390a350505050565b5f5f611b01836124ac565b5f5f611c8484846124ce565b60405163e0b490f760e01b81526001600160a01b03831660048201525f90636eb1769f60e11b90829081906101679063e0b490f790602401602060405180830381865afa15801561233e573d5f5f3e3d5ffd5b505050506040513d601f19601f820116820180604052508101906123629190613c1b565b60405163e0b490f760e01b81526001600160a01b03871660048201529091505f906101679063e0b490f790602401602060405180830381865afa1580156123ab573d5f5f3e3d5ffd5b505050506040513d601f19601f820116820180604052508101906123cf9190613c1b565b9050838382846040516020016123e89493929190613c73565b60405160208183030381529060405261240090613bd4565b979650505050505050565b60405163e0b490f760e01b81526001600160a01b03821660048201525f90634d8fdd6d60e01b90829081906101679063e0b490f790602401611a7f565b6040515f9063c87b56dd60e01b90829061246a90839083908790602001613c3e565b60405160208183030381529060405261248290613bd4565b949350505050565b6040515f906331a9108f60e11b90829061246a90839083908790602001613c3e565b6040515f9063020604bf60e21b90829061246a90839083908790602001613c3e565b60405163e0b490f760e01b81526001600160a01b03831660048201525f9063e985e9c560e01b90829081906101679063e0b490f790602401602060405180830381865afa158015612521573d5f5f3e3d5ffd5b505050506040513d601f19601f820116820180604052508101906125459190613c1b565b60405163e0b490f760e01b81526001600160a01b03871660048201529091505f906101679063e0b490f790602401602060405180830381865afa15801561258e573d5f5f3e3d5ffd5b505050506040513d601f19601f820116820180604052508101906125b29190613c1b565b9050838383836040516020016123e89493929190613c73565b5f5f858511156125d9575f5ffd5b838611156125e5575f5ffd5b5050820193919092039150565b80356001600160e01b03198116906004841015612623576001600160e01b0319600485900360031b81901b82161691505b5092915050565b80356001600160601b03198116906014841015612623576001600160601b031960149490940360031b84901b1690921692915050565b6001600160a01b0381168114612674575f5ffd5b50565b5f5f5f60608486031215612689575f5ffd5b833561269481612660565b925060208401356126a481612660565b929592945050506040919091013590565b5f602082840312156126c5575f5ffd5b81356126d081612660565b9392505050565b5f81518084528060208401602086015e5f602082860101526020601f19601f83011685010191505092915050565b5f82825180855260208501945060208160051b830101602085015f5b838110156127c657848303601f1901885281518051845260209081015160408286018190528151151581870152918101516001600160a01b031660608601529081015160a0608086015261277860e08601826126d7565b90506060820151603f198683030160a087015261279582826126d7565b608093909301516001600160a01b031660c09690960195909552506020988901989093509190910190600101612721565b50909695505050505050565b5f815161016084526127e86101608501826126d7565b90506020830151848203602086015261280182826126d7565b915050604083015161281e60408601826001600160a01b03169052565b506060830151848203606086015261283682826126d7565b915050608083015161284c608086018215159052565b5060a083015161286160a086018260070b9052565b5060c083015161287560c086018215159052565b5060e083015184820360e086015261288d8282612705565b9150506101008301516128c86101008601828051600790810b83526020808301516001600160a01b031690840152604091820151900b910152565b509392505050565b5f8151808452602084019350602083015f5b82811015612940578151805160070b87526020808201516001600160a01b03908116828a01526040808401511515908a01526060808401511515908a0152608092830151169188019190915260a090960195909101906001016128e2565b5093949350505050565b5f8151808452602084019350602083015f5b82811015612940578151805160070b8752602081015160070b6020880152604081015160070b6040880152606081015160070b606088015260808101511515608088015260018060a01b0360a08201511660a08801525060c08601955060208201915060018101905061295c565b5f8151808452602084019350602083015f5b82811015612940578151805160070b8752602081015160070b6020880152604081015160070b604088015260018060a01b03606082015116606088015260808101511515608088015260018060a01b0360a08201511660a08801525060c0860195506020820191506001810190506129dc565b8260070b8152604060208201525f82516101206040840152612a756101608401826127d2565b90506020840151612a8b606085018260070b9052565b506040840151801515608085015250606084015180151560a085015250608084015180151560c08501525060a0840151838203603f190160e0850152612ad182826128d0565b91505060c0840151603f1984830301610100850152612af0828261294a565b91505060e0840151603f1984830301610120850152612b0f82826129ca565b915050610100840151603f1984830301610140850152612b2f82826126d7565b9695505050505050565b8060070b8114612674575f5ffd5b634e487b7160e01b5f52604160045260245ffd5b604080519081016001600160401b0381118282101715612b7d57612b7d612b47565b60405290565b60405160a081016001600160401b0381118282101715612b7d57612b7d612b47565b60405161012081016001600160401b0381118282101715612b7d57612b7d612b47565b60405160c081016001600160401b0381118282101715612b7d57612b7d612b47565b604051601f8201601f191681016001600160401b0381118282101715612c1257612c12612b47565b604052919050565b5f6001600160401b03821115612c3257612c32612b47565b5060051b60200190565b5f5f5f60608486031215612c4e575f5ffd5b8335612c5981612660565b92506020840135612c6981612b39565b915060408401356001600160401b03811115612c83575f5ffd5b8401601f81018613612c93575f5ffd5b8035612ca6612ca182612c1a565b612bea565b8082825260208201915060208360051b850101925088831115612cc7575f5ffd5b6020840193505b82841015612cf2578335612ce181612b39565b825260209384019390910190612cce565b809450505050509250925092565b5f6001600160401b03821115612d1857612d18612b47565b50601f01601f191660200190565b5f5f5f60608486031215612d38575f5ffd5b8335612d4381612660565b92506020840135612d5381612b39565b915060408401356001600160401b03811115612d6d575f5ffd5b8401601f81018613612d7d575f5ffd5b8035612d8b612ca182612c1a565b8082825260208201915060208360051b850101925088831115612dac575f5ffd5b602084015b83811015612e2c5780356001600160401b03811115612dce575f5ffd5b8501603f81018b13612dde575f5ffd5b6020810135612def612ca182612d00565b8181526040838301018d1015612e03575f5ffd5b816040840160208301375f60208383010152808652505050602083019250602081019050612db1565b50809450505050509250925092565b5f606082018560070b83528460070b6020840152606060408401528084518083526080850191506020860192505f5b81811015612e8b57835160070b835260209384019390920191600101612e6a565b5090979650505050505050565b600181811c90821680612eac57607f821691505b602082108103612eca57634e487b7160e01b5f52602260045260245ffd5b50919050565b5f5f8354612edd81612e98565b600182168015612ef45760018114612f0957612f36565b60ff1983168652811515820286019350612f36565b865f5260205f205f5b83811015612f2e57815488820152600190910190602001612f12565b505081860193505b509195945050505050565b5f8154612f4d81612e98565b808552600182168015612f675760018114612f8357612fb7565b60ff1983166020870152602082151560051b8701019350612fb7565b845f5260205f205f5b83811015612fae5781546020828a010152600182019150602081019050612f8c565b87016020019450505b50505092915050565b5f82825480855260208501945060208160051b830101845f5260205f205f5b838110156127c657848303601f1901885281548352604060208401819052600183015460ff811615159185019190915260081c6001600160a01b0316606084015260a0608084015261303760e0840160028401612f41565b838103603f190160a08501526130508160038501612f41565b60048401546001600160a01b031660c095909501949094525060209790970196600590910190600101612fdf565b61016082525f613092610160840183612f41565b83810360208501526130a78160018501612f41565b90506130bd60028401546001600160a01b031690565b6001600160a01b0316604085015283810360608501526130e08160038501612f41565b905060048301546130f86080860160ff831615159052565b600881901c60070b60a086015261311960c0860160ff8360481c1615159052565b5083810360e085015261312f8160058501612fc0565b90506126d06101008501600685018054600781810b8452604091821c6001600160a01b0316602085015260019092015490910b910152565b5f8154808452602084019350825f5260205f205f5b828110156129405781548060070b875260018060a01b038160401c16602088015260ff8160e01c161515604088015260ff8160e81c16151560608801525060018060a01b03600183015416608087015260a08601955060028201915060018101905061317c565b5f8154808452602084019350825f5260205f205f5b828110156129405781548060070b87528060401c60070b60208801528060801c60070b60408801528060c01d60070b60608801525060018201546132436080880160ff831615159052565b60081c6001600160a01b031660a087015260c090950194600291909101906001016131f8565b5f8154808452602084019350825f5260205f205f5b828110156129405781548060070b87528060401c60070b60208801528060801c60070b604088015250600182015460018060a01b03811660608801526132ce6080880160ff8360a01c1615159052565b5060028201546001600160a01b031660a087015260c09095019460039091019060010161327e565b60ff831681526040602082015261012060408201525f61331a61016083018461307e565b6008840154600781900b606085015261333d6080850160ff8360401c1615159052565b61335160a0850160ff8360481c1615159052565b61336560c0850160ff8360501c1615159052565b50828103603f190160e084015261337f8160098601613167565b838103603f1901610100850152905061339b81600a86016131e3565b838103603f190161012085015290506133b781600b8601613269565b838103603f19016101408501529050611aed81600c8601612f41565b8035602083101561146e575f19602084900360031b1b1692915050565b634e487b7160e01b5f52601160045260245ffd5b8082018082111561146e5761146e6133f0565b8181038181111561146e5761146e6133f0565b60208082526017908201527f68747343616c6c3a2064656c6567617465642063616c6c000000000000000000604082015260600190565b805161346c81612b39565b919050565b5f82601f830112613480575f5ffd5b8151602083015f613493612ca184612d00565b90508281528583830111156134a6575f5ffd5b8282602083015e5f92810160200192909252509392505050565b805161346c81612660565b8051801515811461346c575f5ffd5b5f82601f8301126134e9575f5ffd5b81516134f7612ca182612c1a565b8082825260208201915060208360051b860101925085831115613518575f5ffd5b602085015b838110156136355780516001600160401b0381111561353a575f5ffd5b86016040818903601f1901121561354f575f5ffd5b613557612b5b565b6020820151815260408201516001600160401b03811115613576575f5ffd5b60208184010192505060a0828a03121561358e575f5ffd5b613596612b83565b61359f836134cb565b815260208301516135af81612660565b602082015260408301516001600160401b038111156135cc575f5ffd5b6135d88b828601613471565b60408301525060608301516001600160401b038111156135f6575f5ffd5b6136028b828601613471565b6060830152506080830151925061361883612660565b60808101929092526020818101929092528452928301920161351d565b5095945050505050565b5f6060828403121561364f575f5ffd5b604051606081016001600160401b038111828210171561367157613671612b47565b8060405250809150825161368481612b39565b8152602083015161369481612660565b602082015260408301516136a781612b39565b6040919091015292915050565b5f61016082840312156136c5575f5ffd5b6136cd612ba5565b905081516001600160401b038111156136e4575f5ffd5b6136f084828501613471565b82525060208201516001600160401b0381111561370b575f5ffd5b61371784828501613471565b602083015250613729604083016134c0565b604082015260608201516001600160401b03811115613746575f5ffd5b61375284828501613471565b606083015250613764608083016134cb565b608082015261377560a08301613461565b60a082015261378660c083016134cb565b60c082015260e08201516001600160401b038111156137a3575f5ffd5b6137af848285016134da565b60e0830152506137c383610100840161363f565b61010082015292915050565b5f82601f8301126137de575f5ffd5b81516137ec612ca182612c1a565b80828252602082019150602060a0840286010192508583111561380d575f5ffd5b602085015b838110156136355760a08188031215613829575f5ffd5b613831612b83565b815161383c81612b39565b8152602082015161384c81612660565b602082015261385d604083016134cb565b604082015261386e606083016134cb565b6060820152608082015161388181612660565b6080820152835260209092019160a001613812565b5f82601f8301126138a5575f5ffd5b81516138b3612ca182612c1a565b80828252602082019150602060c084028601019250858311156138d4575f5ffd5b602085015b838110156136355760c081880312156138f0575f5ffd5b6138f8612bc8565b815161390381612b39565b8152602082015161391381612b39565b6020820152604082015161392681612b39565b6040820152606082015161393981612b39565b606082015261394a608083016134cb565b608082015260a082015161395d81612660565b60a0820152835260209092019160c0016138d9565b5f82601f830112613981575f5ffd5b815161398f612ca182612c1a565b80828252602082019150602060c084028601019250858311156139b0575f5ffd5b602085015b838110156136355760c081880312156139cc575f5ffd5b6139d4612bc8565b81516139df81612b39565b815260208201516139ef81612b39565b60208201526040820151613a0281612b39565b60408201526060820151613a1581612660565b6060820152613a26608083016134cb565b608082015260a0820151613a3981612660565b60a0820152835260209092019160c0016139b5565b5f5f60408385031215613a5f575f5ffd5b8251613a6a81612b39565b60208401519092506001600160401b03811115613a85575f5ffd5b83016101208186031215613a97575f5ffd5b613a9f612ba5565b81516001600160401b03811115613ab4575f5ffd5b613ac0878285016136b4565b825250613acf60208301613461565b6020820152613ae0604083016134cb565b6040820152613af1606083016134cb565b6060820152613b02608083016134cb565b608082015260a08201516001600160401b03811115613b1f575f5ffd5b613b2b878285016137cf565b60a08301525060c08201516001600160401b03811115613b49575f5ffd5b613b5587828501613896565b60c08301525060e08201516001600160401b03811115613b73575f5ffd5b613b7f87828501613972565b60e0830152506101008201516001600160401b03811115613b9e575f5ffd5b613baa87828501613471565b6101008301525080925050509250929050565b5f60208284031215613bcd575f5ffd5b5051919050565b80516020808301519190811015612eca575f1960209190910360031b1b16919050565b602081525f6126d06020830184612f41565b602081525f6126d060208301846126d7565b5f60208284031215613c2b575f5ffd5b815163ffffffff811681146126d0575f5ffd5b6001600160e01b0319938416815260409290921b67ffffffffffffffff1916600483015260e01b909116601c82015260200190565b6001600160e01b0319948516815260609390931b6001600160601b031916600484015260e091821b84166018840152901b909116601c8201526020019056fea264697066735822122072d5a49ca8cd8182ee0c9e7f50a35a5d535504330797eb6f0d8a5ab3a65f5e1c64736f6c634300081c0033",
        "linkReferences": {}
    },
    "methodIdentifiers": {
        "_update(address,address,uint256)": "0bb3bfa8",
        "burnToken(address,int64,int64[])": "d6910d06",
        "getAccountId(address)": "e0b490f7",
        "getTokenInfo(address)": "1f69565f",
        "mintToken(address,int64,bytes[])": "e0f4059a"
    },
    "storageLayout": {
        "storage": [
            {
                "astId": 25,
                "contract": "contracts/HtsSystemContract.sol:HtsSystemContract",
                "label": "tokenType",
                "offset": 0,
                "slot": "0",
                "type": "t_string_storage"
            },
            {
                "astId": 27,
                "contract": "contracts/HtsSystemContract.sol:HtsSystemContract",
                "label": "name",
                "offset": 0,
                "slot": "1",
                "type": "t_string_storage"
            },
            {
                "astId": 29,
                "contract": "contracts/HtsSystemContract.sol:HtsSystemContract",
                "label": "symbol",
                "offset": 0,
                "slot": "2",
                "type": "t_string_storage"
            },
            {
                "astId": 31,
                "contract": "contracts/HtsSystemContract.sol:HtsSystemContract",
                "label": "decimals",
                "offset": 0,
                "slot": "3",
                "type": "t_uint8"
            },
            {
                "astId": 33,
                "contract": "contracts/HtsSystemContract.sol:HtsSystemContract",
                "label": "totalSupply",
                "offset": 0,
                "slot": "4",
                "type": "t_uint256"
            },
            {
                "astId": 36,
                "contract": "contracts/HtsSystemContract.sol:HtsSystemContract",
                "label": "_tokenInfo",
                "offset": 0,
                "slot": "5",
                "type": "t_struct(TokenInfo)5159_storage"
            }
        ],
        "types": {
            "t_address": {
                "encoding": "inplace",
                "label": "address",
                "numberOfBytes": "20"
            },
            "t_array(t_struct(FixedFee)5171_storage)dyn_storage": {
                "encoding": "dynamic_array",
                "label": "struct IHederaTokenService.FixedFee[]",
                "numberOfBytes": "32",
                "base": "t_struct(FixedFee)5171_storage"
            },
            "t_array(t_struct(FractionalFee)5185_storage)dyn_storage": {
                "encoding": "dynamic_array",
                "label": "struct IHederaTokenService.FractionalFee[]",
                "numberOfBytes": "32",
                "base": "t_struct(FractionalFee)5185_storage"
            },
            "t_array(t_struct(RoyaltyFee)5199_storage)dyn_storage": {
                "encoding": "dynamic_array",
                "label": "struct IHederaTokenService.RoyaltyFee[]",
                "numberOfBytes": "32",
                "base": "t_struct(RoyaltyFee)5199_storage"
            },
            "t_array(t_struct(TokenKey)5100_storage)dyn_storage": {
                "encoding": "dynamic_array",
                "label": "struct IHederaTokenService.TokenKey[]",
                "numberOfBytes": "32",
                "base": "t_struct(TokenKey)5100_storage"
            },
            "t_bool": {
                "encoding": "inplace",
                "label": "bool",
                "numberOfBytes": "1"
            },
            "t_bytes_storage": {
                "encoding": "bytes",
                "label": "bytes",
                "numberOfBytes": "32"
            },
            "t_int64": {
                "encoding": "inplace",
                "label": "int64",
                "numberOfBytes": "8"
            },
            "t_string_storage": {
                "encoding": "bytes",
                "label": "string",
                "numberOfBytes": "32"
            },
            "t_struct(Expiry)5081_storage": {
                "encoding": "inplace",
                "label": "struct IHederaTokenService.Expiry",
                "numberOfBytes": "64",
                "members": [
                    {
                        "astId": 5076,
                        "contract": "contracts/HtsSystemContract.sol:HtsSystemContract",
                        "label": "second",
                        "offset": 0,
                        "slot": "0",
                        "type": "t_int64"
                    },
                    {
                        "astId": 5078,
                        "contract": "contracts/HtsSystemContract.sol:HtsSystemContract",
                        "label": "autoRenewAccount",
                        "offset": 8,
                        "slot": "0",
                        "type": "t_address"
                    },
                    {
                        "astId": 5080,
                        "contract": "contracts/HtsSystemContract.sol:HtsSystemContract",
                        "label": "autoRenewPeriod",
                        "offset": 0,
                        "slot": "1",
                        "type": "t_int64"
                    }
                ]
            },
            "t_struct(FixedFee)5171_storage": {
                "encoding": "inplace",
                "label": "struct IHederaTokenService.FixedFee",
                "numberOfBytes": "64",
                "members": [
                    {
                        "astId": 5162,
                        "contract": "contracts/HtsSystemContract.sol:HtsSystemContract",
                        "label": "amount",
                        "offset": 0,
                        "slot": "0",
                        "type": "t_int64"
                    },
                    {
                        "astId": 5164,
                        "contract": "contracts/HtsSystemContract.sol:HtsSystemContract",
                        "label": "tokenId",
                        "offset": 8,
                        "slot": "0",
                        "type": "t_address"
                    },
                    {
                        "astId": 5166,
                        "contract": "contracts/HtsSystemContract.sol:HtsSystemContract",
                        "label": "useHbarsForPayment",
                        "offset": 28,
                        "slot": "0",
                        "type": "t_bool"
                    },
                    {
                        "astId": 5168,
                        "contract": "contracts/HtsSystemContract.sol:HtsSystemContract",
                        "label": "useCurrentTokenForPayment",
                        "offset": 29,
                        "slot": "0",
                        "type": "t_bool"
                    },
                    {
                        "astId": 5170,
                        "contract": "contracts/HtsSystemContract.sol:HtsSystemContract",
                        "label": "feeCollector",
                        "offset": 0,
                        "slot": "1",
                        "type": "t_address"
                    }
                ]
            },
            "t_struct(FractionalFee)5185_storage": {
                "encoding": "inplace",
                "label": "struct IHederaTokenService.FractionalFee",
                "numberOfBytes": "64",
                "members": [
                    {
                        "astId": 5174,
                        "contract": "contracts/HtsSystemContract.sol:HtsSystemContract",
                        "label": "numerator",
                        "offset": 0,
                        "slot": "0",
                        "type": "t_int64"
                    },
                    {
                        "astId": 5176,
                        "contract": "contracts/HtsSystemContract.sol:HtsSystemContract",
                        "label": "denominator",
                        "offset": 8,
                        "slot": "0",
                        "type": "t_int64"
                    },
                    {
                        "astId": 5178,
                        "contract": "contracts/HtsSystemContract.sol:HtsSystemContract",
                        "label": "minimumAmount",
                        "offset": 16,
                        "slot": "0",
                        "type": "t_int64"
                    },
                    {
                        "astId": 5180,
                        "contract": "contracts/HtsSystemContract.sol:HtsSystemContract",
                        "label": "maximumAmount",
                        "offset": 24,
                        "slot": "0",
                        "type": "t_int64"
                    },
                    {
                        "astId": 5182,
                        "contract": "contracts/HtsSystemContract.sol:HtsSystemContract",
                        "label": "netOfTransfers",
                        "offset": 0,
                        "slot": "1",
                        "type": "t_bool"
                    },
                    {
                        "astId": 5184,
                        "contract": "contracts/HtsSystemContract.sol:HtsSystemContract",
                        "label": "feeCollector",
                        "offset": 1,
                        "slot": "1",
                        "type": "t_address"
                    }
                ]
            },
            "t_struct(HederaToken)5123_storage": {
                "encoding": "inplace",
                "label": "struct IHederaTokenService.HederaToken",
                "numberOfBytes": "256",
                "members": [
                    {
                        "astId": 5103,
                        "contract": "contracts/HtsSystemContract.sol:HtsSystemContract",
                        "label": "name",
                        "offset": 0,
                        "slot": "0",
                        "type": "t_string_storage"
                    },
                    {
                        "astId": 5105,
                        "contract": "contracts/HtsSystemContract.sol:HtsSystemContract",
                        "label": "symbol",
                        "offset": 0,
                        "slot": "1",
                        "type": "t_string_storage"
                    },
                    {
                        "astId": 5107,
                        "contract": "contracts/HtsSystemContract.sol:HtsSystemContract",
                        "label": "treasury",
                        "offset": 0,
                        "slot": "2",
                        "type": "t_address"
                    },
                    {
                        "astId": 5109,
                        "contract": "contracts/HtsSystemContract.sol:HtsSystemContract",
                        "label": "memo",
                        "offset": 0,
                        "slot": "3",
                        "type": "t_string_storage"
                    },
                    {
                        "astId": 5111,
                        "contract": "contracts/HtsSystemContract.sol:HtsSystemContract",
                        "label": "tokenSupplyType",
                        "offset": 0,
                        "slot": "4",
                        "type": "t_bool"
                    },
                    {
                        "astId": 5113,
                        "contract": "contracts/HtsSystemContract.sol:HtsSystemContract",
                        "label": "maxSupply",
                        "offset": 1,
                        "slot": "4",
                        "type": "t_int64"
                    },
                    {
                        "astId": 5115,
                        "contract": "contracts/HtsSystemContract.sol:HtsSystemContract",
                        "label": "freezeDefault",
                        "offset": 9,
                        "slot": "4",
                        "type": "t_bool"
                    },
                    {
                        "astId": 5119,
                        "contract": "contracts/HtsSystemContract.sol:HtsSystemContract",
                        "label": "tokenKeys",
                        "offset": 0,
                        "slot": "5",
                        "type": "t_array(t_struct(TokenKey)5100_storage)dyn_storage"
                    },
                    {
                        "astId": 5122,
                        "contract": "contracts/HtsSystemContract.sol:HtsSystemContract",
                        "label": "expiry",
                        "offset": 0,
                        "slot": "6",
                        "type": "t_struct(Expiry)5081_storage"
                    }
                ]
            },
            "t_struct(KeyValue)5093_storage": {
                "encoding": "inplace",
                "label": "struct IHederaTokenService.KeyValue",
                "numberOfBytes": "128",
                "members": [
                    {
                        "astId": 5084,
                        "contract": "contracts/HtsSystemContract.sol:HtsSystemContract",
                        "label": "inheritAccountKey",
                        "offset": 0,
                        "slot": "0",
                        "type": "t_bool"
                    },
                    {
                        "astId": 5086,
                        "contract": "contracts/HtsSystemContract.sol:HtsSystemContract",
                        "label": "contractId",
                        "offset": 1,
                        "slot": "0",
                        "type": "t_address"
                    },
                    {
                        "astId": 5088,
                        "contract": "contracts/HtsSystemContract.sol:HtsSystemContract",
                        "label": "ed25519",
                        "offset": 0,
                        "slot": "1",
                        "type": "t_bytes_storage"
                    },
                    {
                        "astId": 5090,
                        "contract": "contracts/HtsSystemContract.sol:HtsSystemContract",
                        "label": "ECDSA_secp256k1",
                        "offset": 0,
                        "slot": "2",
                        "type": "t_bytes_storage"
                    },
                    {
                        "astId": 5092,
                        "contract": "contracts/HtsSystemContract.sol:HtsSystemContract",
                        "label": "delegatableContractId",
                        "offset": 0,
                        "slot": "3",
                        "type": "t_address"
                    }
                ]
            },
            "t_struct(RoyaltyFee)5199_storage": {
                "encoding": "inplace",
                "label": "struct IHederaTokenService.RoyaltyFee",
                "numberOfBytes": "96",
                "members": [
                    {
                        "astId": 5188,
                        "contract": "contracts/HtsSystemContract.sol:HtsSystemContract",
                        "label": "numerator",
                        "offset": 0,
                        "slot": "0",
                        "type": "t_int64"
                    },
                    {
                        "astId": 5190,
                        "contract": "contracts/HtsSystemContract.sol:HtsSystemContract",
                        "label": "denominator",
                        "offset": 8,
                        "slot": "0",
                        "type": "t_int64"
                    },
                    {
                        "astId": 5192,
                        "contract": "contracts/HtsSystemContract.sol:HtsSystemContract",
                        "label": "amount",
                        "offset": 16,
                        "slot": "0",
                        "type": "t_int64"
                    },
                    {
                        "astId": 5194,
                        "contract": "contracts/HtsSystemContract.sol:HtsSystemContract",
                        "label": "tokenId",
                        "offset": 0,
                        "slot": "1",
                        "type": "t_address"
                    },
                    {
                        "astId": 5196,
                        "contract": "contracts/HtsSystemContract.sol:HtsSystemContract",
                        "label": "useHbarsForPayment",
                        "offset": 20,
                        "slot": "1",
                        "type": "t_bool"
                    },
                    {
                        "astId": 5198,
                        "contract": "contracts/HtsSystemContract.sol:HtsSystemContract",
                        "label": "feeCollector",
                        "offset": 0,
                        "slot": "2",
                        "type": "t_address"
                    }
                ]
            },
            "t_struct(TokenInfo)5159_storage": {
                "encoding": "inplace",
                "label": "struct IHederaTokenService.TokenInfo",
                "numberOfBytes": "416",
                "members": [
                    {
                        "astId": 5128,
                        "contract": "contracts/HtsSystemContract.sol:HtsSystemContract",
                        "label": "token",
                        "offset": 0,
                        "slot": "0",
                        "type": "t_struct(HederaToken)5123_storage"
                    },
                    {
                        "astId": 5131,
                        "contract": "contracts/HtsSystemContract.sol:HtsSystemContract",
                        "label": "totalSupply",
                        "offset": 0,
                        "slot": "8",
                        "type": "t_int64"
                    },
                    {
                        "astId": 5134,
                        "contract": "contracts/HtsSystemContract.sol:HtsSystemContract",
                        "label": "deleted",
                        "offset": 8,
                        "slot": "8",
                        "type": "t_bool"
                    },
                    {
                        "astId": 5137,
                        "contract": "contracts/HtsSystemContract.sol:HtsSystemContract",
                        "label": "defaultKycStatus",
                        "offset": 9,
                        "slot": "8",
                        "type": "t_bool"
                    },
                    {
                        "astId": 5140,
                        "contract": "contracts/HtsSystemContract.sol:HtsSystemContract",
                        "label": "pauseStatus",
                        "offset": 10,
                        "slot": "8",
                        "type": "t_bool"
                    },
                    {
                        "astId": 5145,
                        "contract": "contracts/HtsSystemContract.sol:HtsSystemContract",
                        "label": "fixedFees",
                        "offset": 0,
                        "slot": "9",
                        "type": "t_array(t_struct(FixedFee)5171_storage)dyn_storage"
                    },
                    {
                        "astId": 5150,
                        "contract": "contracts/HtsSystemContract.sol:HtsSystemContract",
                        "label": "fractionalFees",
                        "offset": 0,
                        "slot": "10",
                        "type": "t_array(t_struct(FractionalFee)5185_storage)dyn_storage"
                    },
                    {
                        "astId": 5155,
                        "contract": "contracts/HtsSystemContract.sol:HtsSystemContract",
                        "label": "royaltyFees",
                        "offset": 0,
                        "slot": "11",
                        "type": "t_array(t_struct(RoyaltyFee)5199_storage)dyn_storage"
                    },
                    {
                        "astId": 5158,
                        "contract": "contracts/HtsSystemContract.sol:HtsSystemContract",
                        "label": "ledgerId",
                        "offset": 0,
                        "slot": "12",
                        "type": "t_string_storage"
                    }
                ]
            },
            "t_struct(TokenKey)5100_storage": {
                "encoding": "inplace",
                "label": "struct IHederaTokenService.TokenKey",
                "numberOfBytes": "160",
                "members": [
                    {
                        "astId": 5096,
                        "contract": "contracts/HtsSystemContract.sol:HtsSystemContract",
                        "label": "keyType",
                        "offset": 0,
                        "slot": "0",
                        "type": "t_uint256"
                    },
                    {
                        "astId": 5099,
                        "contract": "contracts/HtsSystemContract.sol:HtsSystemContract",
                        "label": "key",
                        "offset": 0,
                        "slot": "1",
                        "type": "t_struct(KeyValue)5093_storage"
                    }
                ]
            },
            "t_uint256": {
                "encoding": "inplace",
                "label": "uint256",
                "numberOfBytes": "32"
            },
            "t_uint8": {
                "encoding": "inplace",
                "label": "uint8",
                "numberOfBytes": "1"
            }
        }
    },
    "userdoc": {
        "version": 1,
        "kind": "user",
        "methods": {
            "getTokenInfo(address)": {
                "notice": "Query token info"
            }
        }
    },
    "devdoc": {
        "version": 1,
        "kind": "dev",
        "methods": {
            "getAccountId(address)": {
                "details": "Returns the account id (omitting both shard and realm numbers) of the given `address`. The storage adapter, _i.e._, `getHtsStorageAt`, assumes that both shard and realm numbers are zero. Thus, they can be omitted from the account id. See https://docs.hedera.com/hedera/core-concepts/accounts/account-properties for more info on account properties."
            },
            "getTokenInfo(address)": {
                "params": {
                    "token": "The token address to check"
                },
                "returns": {
                    "responseCode": "The response code for the status of the request. SUCCESS is 22.",
                    "tokenInfo": "TokenInfo info for `token`"
                }
            }
        },
        "events": {
            "Approval(address,address,uint256)": {
                "details": "Emitted when the allowance of a `spender` for an `owner` is set by a call to {approve}. `value` is the new allowance."
            },
            "Transfer(address,address,uint256)": {
                "details": "Emitted when `value` tokens are moved from one account (`from`) to another (`to`). Note that `value` may be zero."
            }
        }
    },
    "id": 0
}