{
  "abi": [
    {
      "type": "constructor",
      "inputs": [],
      "stateMutability": "nonpayable"
    },
    {
      "type": "fallback",
      "stateMutability": "nonpayable"
    },
    {
      "type": "function",
      "name": "allowance",
      "inputs": [
        {
          "name": "token",
          "type": "address",
          "internalType": "address"
        },
        {
          "name": "owner",
          "type": "address",
          "internalType": "address"
        },
        {
          "name": "spender",
          "type": "address",
          "internalType": "address"
        }
      ],
      "outputs": [
        {
          "name": "responseCode",
          "type": "int64",
          "internalType": "int64"
        },
        {
          "name": "allowance_",
          "type": "uint256",
          "internalType": "uint256"
        }
      ],
      "stateMutability": "view"
    },
    {
      "type": "function",
      "name": "approve",
      "inputs": [
        {
          "name": "token",
          "type": "address",
          "internalType": "address"
        },
        {
          "name": "spender",
          "type": "address",
          "internalType": "address"
        },
        {
          "name": "amount",
          "type": "uint256",
          "internalType": "uint256"
        }
      ],
      "outputs": [
        {
          "name": "responseCode",
          "type": "int64",
          "internalType": "int64"
        }
      ],
      "stateMutability": "nonpayable"
    },
    {
      "type": "function",
      "name": "approveNFT",
      "inputs": [
        {
          "name": "token",
          "type": "address",
          "internalType": "address"
        },
        {
          "name": "approved",
          "type": "address",
          "internalType": "address"
        },
        {
          "name": "serialNumber",
          "type": "uint256",
          "internalType": "uint256"
        }
      ],
      "outputs": [
        {
          "name": "responseCode",
          "type": "int64",
          "internalType": "int64"
        }
      ],
      "stateMutability": "nonpayable"
    },
    {
      "type": "function",
      "name": "associateToken",
      "inputs": [
        {
          "name": "account",
          "type": "address",
          "internalType": "address"
        },
        {
          "name": "token",
          "type": "address",
          "internalType": "address"
        }
      ],
      "outputs": [
        {
          "name": "responseCode",
          "type": "int64",
          "internalType": "int64"
        }
      ],
      "stateMutability": "nonpayable"
    },
    {
      "type": "function",
      "name": "associateTokens",
      "inputs": [
        {
          "name": "account",
          "type": "address",
          "internalType": "address"
        },
        {
          "name": "tokens",
          "type": "address[]",
          "internalType": "address[]"
        }
      ],
      "outputs": [
        {
          "name": "responseCode",
          "type": "int64",
          "internalType": "int64"
        }
      ],
      "stateMutability": "nonpayable"
    },
    {
      "type": "function",
      "name": "burnToken",
      "inputs": [
        {
          "name": "token",
          "type": "address",
          "internalType": "address"
        },
        {
          "name": "amount",
          "type": "int64",
          "internalType": "int64"
        },
        {
          "name": "serialNumbers",
          "type": "int64[]",
          "internalType": "int64[]"
        }
      ],
      "outputs": [
        {
          "name": "responseCode",
          "type": "int64",
          "internalType": "int64"
        },
        {
          "name": "newTotalSupply",
          "type": "int64",
          "internalType": "int64"
        }
      ],
      "stateMutability": "nonpayable"
    },
    {
      "type": "function",
      "name": "createFungibleToken",
      "inputs": [
        {
          "name": "token",
          "type": "tuple",
          "internalType": "struct IHederaTokenService.HederaToken",
          "components": [
            {
              "name": "name",
              "type": "string",
              "internalType": "string"
            },
            {
              "name": "symbol",
              "type": "string",
              "internalType": "string"
            },
            {
              "name": "treasury",
              "type": "address",
              "internalType": "address"
            },
            {
              "name": "memo",
              "type": "string",
              "internalType": "string"
            },
            {
              "name": "tokenSupplyType",
              "type": "bool",
              "internalType": "bool"
            },
            {
              "name": "maxSupply",
              "type": "int64",
              "internalType": "int64"
            },
            {
              "name": "freezeDefault",
              "type": "bool",
              "internalType": "bool"
            },
            {
              "name": "tokenKeys",
              "type": "tuple[]",
              "internalType": "struct IHederaTokenService.TokenKey[]",
              "components": [
                {
                  "name": "keyType",
                  "type": "uint256",
                  "internalType": "uint256"
                },
                {
                  "name": "key",
                  "type": "tuple",
                  "internalType": "struct IHederaTokenService.KeyValue",
                  "components": [
                    {
                      "name": "inheritAccountKey",
                      "type": "bool",
                      "internalType": "bool"
                    },
                    {
                      "name": "contractId",
                      "type": "address",
                      "internalType": "address"
                    },
                    {
                      "name": "ed25519",
                      "type": "bytes",
                      "internalType": "bytes"
                    },
                    {
                      "name": "ECDSA_secp256k1",
                      "type": "bytes",
                      "internalType": "bytes"
                    },
                    {
                      "name": "delegatableContractId",
                      "type": "address",
                      "internalType": "address"
                    }
                  ]
                }
              ]
            },
            {
              "name": "expiry",
              "type": "tuple",
              "internalType": "struct IHederaTokenService.Expiry",
              "components": [
                {
                  "name": "second",
                  "type": "int64",
                  "internalType": "int64"
                },
                {
                  "name": "autoRenewAccount",
                  "type": "address",
                  "internalType": "address"
                },
                {
                  "name": "autoRenewPeriod",
                  "type": "int64",
                  "internalType": "int64"
                }
              ]
            }
          ]
        },
        {
          "name": "initialTotalSupply",
          "type": "int64",
          "internalType": "int64"
        },
        {
          "name": "decimals",
          "type": "int32",
          "internalType": "int32"
        }
      ],
      "outputs": [
        {
          "name": "responseCode",
          "type": "int64",
          "internalType": "int64"
        },
        {
          "name": "tokenAddress",
          "type": "address",
          "internalType": "address"
        }
      ],
      "stateMutability": "payable"
    },
    {
      "type": "function",
      "name": "createFungibleTokenWithCustomFees",
      "inputs": [
        {
          "name": "token",
          "type": "tuple",
          "internalType": "struct IHederaTokenService.HederaToken",
          "components": [
            {
              "name": "name",
              "type": "string",
              "internalType": "string"
            },
            {
              "name": "symbol",
              "type": "string",
              "internalType": "string"
            },
            {
              "name": "treasury",
              "type": "address",
              "internalType": "address"
            },
            {
              "name": "memo",
              "type": "string",
              "internalType": "string"
            },
            {
              "name": "tokenSupplyType",
              "type": "bool",
              "internalType": "bool"
            },
            {
              "name": "maxSupply",
              "type": "int64",
              "internalType": "int64"
            },
            {
              "name": "freezeDefault",
              "type": "bool",
              "internalType": "bool"
            },
            {
              "name": "tokenKeys",
              "type": "tuple[]",
              "internalType": "struct IHederaTokenService.TokenKey[]",
              "components": [
                {
                  "name": "keyType",
                  "type": "uint256",
                  "internalType": "uint256"
                },
                {
                  "name": "key",
                  "type": "tuple",
                  "internalType": "struct IHederaTokenService.KeyValue",
                  "components": [
                    {
                      "name": "inheritAccountKey",
                      "type": "bool",
                      "internalType": "bool"
                    },
                    {
                      "name": "contractId",
                      "type": "address",
                      "internalType": "address"
                    },
                    {
                      "name": "ed25519",
                      "type": "bytes",
                      "internalType": "bytes"
                    },
                    {
                      "name": "ECDSA_secp256k1",
                      "type": "bytes",
                      "internalType": "bytes"
                    },
                    {
                      "name": "delegatableContractId",
                      "type": "address",
                      "internalType": "address"
                    }
                  ]
                }
              ]
            },
            {
              "name": "expiry",
              "type": "tuple",
              "internalType": "struct IHederaTokenService.Expiry",
              "components": [
                {
                  "name": "second",
                  "type": "int64",
                  "internalType": "int64"
                },
                {
                  "name": "autoRenewAccount",
                  "type": "address",
                  "internalType": "address"
                },
                {
                  "name": "autoRenewPeriod",
                  "type": "int64",
                  "internalType": "int64"
                }
              ]
            }
          ]
        },
        {
          "name": "initialTotalSupply",
          "type": "int64",
          "internalType": "int64"
        },
        {
          "name": "decimals",
          "type": "int32",
          "internalType": "int32"
        },
        {
          "name": "fixedFees",
          "type": "tuple[]",
          "internalType": "struct IHederaTokenService.FixedFee[]",
          "components": [
            {
              "name": "amount",
              "type": "int64",
              "internalType": "int64"
            },
            {
              "name": "tokenId",
              "type": "address",
              "internalType": "address"
            },
            {
              "name": "useHbarsForPayment",
              "type": "bool",
              "internalType": "bool"
            },
            {
              "name": "useCurrentTokenForPayment",
              "type": "bool",
              "internalType": "bool"
            },
            {
              "name": "feeCollector",
              "type": "address",
              "internalType": "address"
            }
          ]
        },
        {
          "name": "fractionalFees",
          "type": "tuple[]",
          "internalType": "struct IHederaTokenService.FractionalFee[]",
          "components": [
            {
              "name": "numerator",
              "type": "int64",
              "internalType": "int64"
            },
            {
              "name": "denominator",
              "type": "int64",
              "internalType": "int64"
            },
            {
              "name": "minimumAmount",
              "type": "int64",
              "internalType": "int64"
            },
            {
              "name": "maximumAmount",
              "type": "int64",
              "internalType": "int64"
            },
            {
              "name": "netOfTransfers",
              "type": "bool",
              "internalType": "bool"
            },
            {
              "name": "feeCollector",
              "type": "address",
              "internalType": "address"
            }
          ]
        }
      ],
      "outputs": [
        {
          "name": "responseCode",
          "type": "int64",
          "internalType": "int64"
        },
        {
          "name": "tokenAddress",
          "type": "address",
          "internalType": "address"
        }
      ],
      "stateMutability": "payable"
    },
    {
      "type": "function",
      "name": "createNonFungibleToken",
      "inputs": [
        {
          "name": "token",
          "type": "tuple",
          "internalType": "struct IHederaTokenService.HederaToken",
          "components": [
            {
              "name": "name",
              "type": "string",
              "internalType": "string"
            },
            {
              "name": "symbol",
              "type": "string",
              "internalType": "string"
            },
            {
              "name": "treasury",
              "type": "address",
              "internalType": "address"
            },
            {
              "name": "memo",
              "type": "string",
              "internalType": "string"
            },
            {
              "name": "tokenSupplyType",
              "type": "bool",
              "internalType": "bool"
            },
            {
              "name": "maxSupply",
              "type": "int64",
              "internalType": "int64"
            },
            {
              "name": "freezeDefault",
              "type": "bool",
              "internalType": "bool"
            },
            {
              "name": "tokenKeys",
              "type": "tuple[]",
              "internalType": "struct IHederaTokenService.TokenKey[]",
              "components": [
                {
                  "name": "keyType",
                  "type": "uint256",
                  "internalType": "uint256"
                },
                {
                  "name": "key",
                  "type": "tuple",
                  "internalType": "struct IHederaTokenService.KeyValue",
                  "components": [
                    {
                      "name": "inheritAccountKey",
                      "type": "bool",
                      "internalType": "bool"
                    },
                    {
                      "name": "contractId",
                      "type": "address",
                      "internalType": "address"
                    },
                    {
                      "name": "ed25519",
                      "type": "bytes",
                      "internalType": "bytes"
                    },
                    {
                      "name": "ECDSA_secp256k1",
                      "type": "bytes",
                      "internalType": "bytes"
                    },
                    {
                      "name": "delegatableContractId",
                      "type": "address",
                      "internalType": "address"
                    }
                  ]
                }
              ]
            },
            {
              "name": "expiry",
              "type": "tuple",
              "internalType": "struct IHederaTokenService.Expiry",
              "components": [
                {
                  "name": "second",
                  "type": "int64",
                  "internalType": "int64"
                },
                {
                  "name": "autoRenewAccount",
                  "type": "address",
                  "internalType": "address"
                },
                {
                  "name": "autoRenewPeriod",
                  "type": "int64",
                  "internalType": "int64"
                }
              ]
            }
          ]
        }
      ],
      "outputs": [
        {
          "name": "responseCode",
          "type": "int64",
          "internalType": "int64"
        },
        {
          "name": "tokenAddress",
          "type": "address",
          "internalType": "address"
        }
      ],
      "stateMutability": "payable"
    },
    {
      "type": "function",
      "name": "createNonFungibleTokenWithCustomFees",
      "inputs": [
        {
          "name": "token",
          "type": "tuple",
          "internalType": "struct IHederaTokenService.HederaToken",
          "components": [
            {
              "name": "name",
              "type": "string",
              "internalType": "string"
            },
            {
              "name": "symbol",
              "type": "string",
              "internalType": "string"
            },
            {
              "name": "treasury",
              "type": "address",
              "internalType": "address"
            },
            {
              "name": "memo",
              "type": "string",
              "internalType": "string"
            },
            {
              "name": "tokenSupplyType",
              "type": "bool",
              "internalType": "bool"
            },
            {
              "name": "maxSupply",
              "type": "int64",
              "internalType": "int64"
            },
            {
              "name": "freezeDefault",
              "type": "bool",
              "internalType": "bool"
            },
            {
              "name": "tokenKeys",
              "type": "tuple[]",
              "internalType": "struct IHederaTokenService.TokenKey[]",
              "components": [
                {
                  "name": "keyType",
                  "type": "uint256",
                  "internalType": "uint256"
                },
                {
                  "name": "key",
                  "type": "tuple",
                  "internalType": "struct IHederaTokenService.KeyValue",
                  "components": [
                    {
                      "name": "inheritAccountKey",
                      "type": "bool",
                      "internalType": "bool"
                    },
                    {
                      "name": "contractId",
                      "type": "address",
                      "internalType": "address"
                    },
                    {
                      "name": "ed25519",
                      "type": "bytes",
                      "internalType": "bytes"
                    },
                    {
                      "name": "ECDSA_secp256k1",
                      "type": "bytes",
                      "internalType": "bytes"
                    },
                    {
                      "name": "delegatableContractId",
                      "type": "address",
                      "internalType": "address"
                    }
                  ]
                }
              ]
            },
            {
              "name": "expiry",
              "type": "tuple",
              "internalType": "struct IHederaTokenService.Expiry",
              "components": [
                {
                  "name": "second",
                  "type": "int64",
                  "internalType": "int64"
                },
                {
                  "name": "autoRenewAccount",
                  "type": "address",
                  "internalType": "address"
                },
                {
                  "name": "autoRenewPeriod",
                  "type": "int64",
                  "internalType": "int64"
                }
              ]
            }
          ]
        },
        {
          "name": "fixedFees",
          "type": "tuple[]",
          "internalType": "struct IHederaTokenService.FixedFee[]",
          "components": [
            {
              "name": "amount",
              "type": "int64",
              "internalType": "int64"
            },
            {
              "name": "tokenId",
              "type": "address",
              "internalType": "address"
            },
            {
              "name": "useHbarsForPayment",
              "type": "bool",
              "internalType": "bool"
            },
            {
              "name": "useCurrentTokenForPayment",
              "type": "bool",
              "internalType": "bool"
            },
            {
              "name": "feeCollector",
              "type": "address",
              "internalType": "address"
            }
          ]
        },
        {
          "name": "royaltyFees",
          "type": "tuple[]",
          "internalType": "struct IHederaTokenService.RoyaltyFee[]",
          "components": [
            {
              "name": "numerator",
              "type": "int64",
              "internalType": "int64"
            },
            {
              "name": "denominator",
              "type": "int64",
              "internalType": "int64"
            },
            {
              "name": "amount",
              "type": "int64",
              "internalType": "int64"
            },
            {
              "name": "tokenId",
              "type": "address",
              "internalType": "address"
            },
            {
              "name": "useHbarsForPayment",
              "type": "bool",
              "internalType": "bool"
            },
            {
              "name": "feeCollector",
              "type": "address",
              "internalType": "address"
            }
          ]
        }
      ],
      "outputs": [
        {
          "name": "responseCode",
          "type": "int64",
          "internalType": "int64"
        },
        {
          "name": "tokenAddress",
          "type": "address",
          "internalType": "address"
        }
      ],
      "stateMutability": "payable"
    },
    {
      "type": "function",
      "name": "cryptoTransfer",
      "inputs": [
        {
          "name": "transferList",
          "type": "tuple",
          "internalType": "struct IHederaTokenService.TransferList",
          "components": [
            {
              "name": "transfers",
              "type": "tuple[]",
              "internalType": "struct IHederaTokenService.AccountAmount[]",
              "components": [
                {
                  "name": "accountID",
                  "type": "address",
                  "internalType": "address"
                },
                {
                  "name": "amount",
                  "type": "int64",
                  "internalType": "int64"
                },
                {
                  "name": "isApproval",
                  "type": "bool",
                  "internalType": "bool"
                }
              ]
            }
          ]
        },
        {
          "name": "tokenTransfers",
          "type": "tuple[]",
          "internalType": "struct IHederaTokenService.TokenTransferList[]",
          "components": [
            {
              "name": "token",
              "type": "address",
              "internalType": "address"
            },
            {
              "name": "transfers",
              "type": "tuple[]",
              "internalType": "struct IHederaTokenService.AccountAmount[]",
              "components": [
                {
                  "name": "accountID",
                  "type": "address",
                  "internalType": "address"
                },
                {
                  "name": "amount",
                  "type": "int64",
                  "internalType": "int64"
                },
                {
                  "name": "isApproval",
                  "type": "bool",
                  "internalType": "bool"
                }
              ]
            },
            {
              "name": "nftTransfers",
              "type": "tuple[]",
              "internalType": "struct IHederaTokenService.NftTransfer[]",
              "components": [
                {
                  "name": "senderAccountID",
                  "type": "address",
                  "internalType": "address"
                },
                {
                  "name": "receiverAccountID",
                  "type": "address",
                  "internalType": "address"
                },
                {
                  "name": "serialNumber",
                  "type": "int64",
                  "internalType": "int64"
                },
                {
                  "name": "isApproval",
                  "type": "bool",
                  "internalType": "bool"
                }
              ]
            }
          ]
        }
      ],
      "outputs": [
        {
          "name": "responseCode",
          "type": "int64",
          "internalType": "int64"
        }
      ],
      "stateMutability": "nonpayable"
    },
    {
      "type": "function",
      "name": "deleteToken",
      "inputs": [
        {
          "name": "token",
          "type": "address",
          "internalType": "address"
        }
      ],
      "outputs": [
        {
          "name": "responseCode",
          "type": "int64",
          "internalType": "int64"
        }
      ],
      "stateMutability": "nonpayable"
    },
    {
      "type": "function",
      "name": "dissociateToken",
      "inputs": [
        {
          "name": "account",
          "type": "address",
          "internalType": "address"
        },
        {
          "name": "token",
          "type": "address",
          "internalType": "address"
        }
      ],
      "outputs": [
        {
          "name": "responseCode",
          "type": "int64",
          "internalType": "int64"
        }
      ],
      "stateMutability": "nonpayable"
    },
    {
      "type": "function",
      "name": "dissociateTokens",
      "inputs": [
        {
          "name": "account",
          "type": "address",
          "internalType": "address"
        },
        {
          "name": "tokens",
          "type": "address[]",
          "internalType": "address[]"
        }
      ],
      "outputs": [
        {
          "name": "responseCode_",
          "type": "int64",
          "internalType": "int64"
        }
      ],
      "stateMutability": "nonpayable"
    },
    {
      "type": "function",
      "name": "freezeToken",
      "inputs": [
        {
          "name": "token",
          "type": "address",
          "internalType": "address"
        },
        {
          "name": "account",
          "type": "address",
          "internalType": "address"
        }
      ],
      "outputs": [
        {
          "name": "responseCode",
          "type": "int64",
          "internalType": "int64"
        }
      ],
      "stateMutability": "nonpayable"
    },
    {
      "type": "function",
      "name": "getApproved",
      "inputs": [
        {
          "name": "token",
          "type": "address",
          "internalType": "address"
        },
        {
          "name": "serialNumber",
          "type": "uint256",
          "internalType": "uint256"
        }
      ],
      "outputs": [
        {
          "name": "responseCode",
          "type": "int64",
          "internalType": "int64"
        },
        {
          "name": "approved",
          "type": "address",
          "internalType": "address"
        }
      ],
      "stateMutability": "view"
    },
    {
      "type": "function",
      "name": "getFungibleTokenInfo",
      "inputs": [
        {
          "name": "token",
          "type": "address",
          "internalType": "address"
        }
      ],
      "outputs": [
        {
          "name": "responseCode",
          "type": "int64",
          "internalType": "int64"
        },
        {
          "name": "fungibleTokenInfo",
          "type": "tuple",
          "internalType": "struct IHederaTokenService.FungibleTokenInfo",
          "components": [
            {
              "name": "tokenInfo",
              "type": "tuple",
              "internalType": "struct IHederaTokenService.TokenInfo",
              "components": [
                {
                  "name": "token",
                  "type": "tuple",
                  "internalType": "struct IHederaTokenService.HederaToken",
                  "components": [
                    {
                      "name": "name",
                      "type": "string",
                      "internalType": "string"
                    },
                    {
                      "name": "symbol",
                      "type": "string",
                      "internalType": "string"
                    },
                    {
                      "name": "treasury",
                      "type": "address",
                      "internalType": "address"
                    },
                    {
                      "name": "memo",
                      "type": "string",
                      "internalType": "string"
                    },
                    {
                      "name": "tokenSupplyType",
                      "type": "bool",
                      "internalType": "bool"
                    },
                    {
                      "name": "maxSupply",
                      "type": "int64",
                      "internalType": "int64"
                    },
                    {
                      "name": "freezeDefault",
                      "type": "bool",
                      "internalType": "bool"
                    },
                    {
                      "name": "tokenKeys",
                      "type": "tuple[]",
                      "internalType": "struct IHederaTokenService.TokenKey[]",
                      "components": [
                        {
                          "name": "keyType",
                          "type": "uint256",
                          "internalType": "uint256"
                        },
                        {
                          "name": "key",
                          "type": "tuple",
                          "internalType": "struct IHederaTokenService.KeyValue",
                          "components": [
                            {
                              "name": "inheritAccountKey",
                              "type": "bool",
                              "internalType": "bool"
                            },
                            {
                              "name": "contractId",
                              "type": "address",
                              "internalType": "address"
                            },
                            {
                              "name": "ed25519",
                              "type": "bytes",
                              "internalType": "bytes"
                            },
                            {
                              "name": "ECDSA_secp256k1",
                              "type": "bytes",
                              "internalType": "bytes"
                            },
                            {
                              "name": "delegatableContractId",
                              "type": "address",
                              "internalType": "address"
                            }
                          ]
                        }
                      ]
                    },
                    {
                      "name": "expiry",
                      "type": "tuple",
                      "internalType": "struct IHederaTokenService.Expiry",
                      "components": [
                        {
                          "name": "second",
                          "type": "int64",
                          "internalType": "int64"
                        },
                        {
                          "name": "autoRenewAccount",
                          "type": "address",
                          "internalType": "address"
                        },
                        {
                          "name": "autoRenewPeriod",
                          "type": "int64",
                          "internalType": "int64"
                        }
                      ]
                    }
                  ]
                },
                {
                  "name": "totalSupply",
                  "type": "int64",
                  "internalType": "int64"
                },
                {
                  "name": "deleted",
                  "type": "bool",
                  "internalType": "bool"
                },
                {
                  "name": "defaultKycStatus",
                  "type": "bool",
                  "internalType": "bool"
                },
                {
                  "name": "pauseStatus",
                  "type": "bool",
                  "internalType": "bool"
                },
                {
                  "name": "fixedFees",
                  "type": "tuple[]",
                  "internalType": "struct IHederaTokenService.FixedFee[]",
                  "components": [
                    {
                      "name": "amount",
                      "type": "int64",
                      "internalType": "int64"
                    },
                    {
                      "name": "tokenId",
                      "type": "address",
                      "internalType": "address"
                    },
                    {
                      "name": "useHbarsForPayment",
                      "type": "bool",
                      "internalType": "bool"
                    },
                    {
                      "name": "useCurrentTokenForPayment",
                      "type": "bool",
                      "internalType": "bool"
                    },
                    {
                      "name": "feeCollector",
                      "type": "address",
                      "internalType": "address"
                    }
                  ]
                },
                {
                  "name": "fractionalFees",
                  "type": "tuple[]",
                  "internalType": "struct IHederaTokenService.FractionalFee[]",
                  "components": [
                    {
                      "name": "numerator",
                      "type": "int64",
                      "internalType": "int64"
                    },
                    {
                      "name": "denominator",
                      "type": "int64",
                      "internalType": "int64"
                    },
                    {
                      "name": "minimumAmount",
                      "type": "int64",
                      "internalType": "int64"
                    },
                    {
                      "name": "maximumAmount",
                      "type": "int64",
                      "internalType": "int64"
                    },
                    {
                      "name": "netOfTransfers",
                      "type": "bool",
                      "internalType": "bool"
                    },
                    {
                      "name": "feeCollector",
                      "type": "address",
                      "internalType": "address"
                    }
                  ]
                },
                {
                  "name": "royaltyFees",
                  "type": "tuple[]",
                  "internalType": "struct IHederaTokenService.RoyaltyFee[]",
                  "components": [
                    {
                      "name": "numerator",
                      "type": "int64",
                      "internalType": "int64"
                    },
                    {
                      "name": "denominator",
                      "type": "int64",
                      "internalType": "int64"
                    },
                    {
                      "name": "amount",
                      "type": "int64",
                      "internalType": "int64"
                    },
                    {
                      "name": "tokenId",
                      "type": "address",
                      "internalType": "address"
                    },
                    {
                      "name": "useHbarsForPayment",
                      "type": "bool",
                      "internalType": "bool"
                    },
                    {
                      "name": "feeCollector",
                      "type": "address",
                      "internalType": "address"
                    }
                  ]
                },
                {
                  "name": "ledgerId",
                  "type": "string",
                  "internalType": "string"
                }
              ]
            },
            {
              "name": "decimals",
              "type": "int32",
              "internalType": "int32"
            }
          ]
        }
      ],
      "stateMutability": "view"
    },
    {
      "type": "function",
      "name": "getNonFungibleTokenInfo",
      "inputs": [
        {
          "name": "token",
          "type": "address",
          "internalType": "address"
        },
        {
          "name": "serialNumber",
          "type": "int64",
          "internalType": "int64"
        }
      ],
      "outputs": [
        {
          "name": "responseCode",
          "type": "int64",
          "internalType": "int64"
        },
        {
          "name": "nonFungibleTokenInfo",
          "type": "tuple",
          "internalType": "struct IHederaTokenService.NonFungibleTokenInfo",
          "components": [
            {
              "name": "tokenInfo",
              "type": "tuple",
              "internalType": "struct IHederaTokenService.TokenInfo",
              "components": [
                {
                  "name": "token",
                  "type": "tuple",
                  "internalType": "struct IHederaTokenService.HederaToken",
                  "components": [
                    {
                      "name": "name",
                      "type": "string",
                      "internalType": "string"
                    },
                    {
                      "name": "symbol",
                      "type": "string",
                      "internalType": "string"
                    },
                    {
                      "name": "treasury",
                      "type": "address",
                      "internalType": "address"
                    },
                    {
                      "name": "memo",
                      "type": "string",
                      "internalType": "string"
                    },
                    {
                      "name": "tokenSupplyType",
                      "type": "bool",
                      "internalType": "bool"
                    },
                    {
                      "name": "maxSupply",
                      "type": "int64",
                      "internalType": "int64"
                    },
                    {
                      "name": "freezeDefault",
                      "type": "bool",
                      "internalType": "bool"
                    },
                    {
                      "name": "tokenKeys",
                      "type": "tuple[]",
                      "internalType": "struct IHederaTokenService.TokenKey[]",
                      "components": [
                        {
                          "name": "keyType",
                          "type": "uint256",
                          "internalType": "uint256"
                        },
                        {
                          "name": "key",
                          "type": "tuple",
                          "internalType": "struct IHederaTokenService.KeyValue",
                          "components": [
                            {
                              "name": "inheritAccountKey",
                              "type": "bool",
                              "internalType": "bool"
                            },
                            {
                              "name": "contractId",
                              "type": "address",
                              "internalType": "address"
                            },
                            {
                              "name": "ed25519",
                              "type": "bytes",
                              "internalType": "bytes"
                            },
                            {
                              "name": "ECDSA_secp256k1",
                              "type": "bytes",
                              "internalType": "bytes"
                            },
                            {
                              "name": "delegatableContractId",
                              "type": "address",
                              "internalType": "address"
                            }
                          ]
                        }
                      ]
                    },
                    {
                      "name": "expiry",
                      "type": "tuple",
                      "internalType": "struct IHederaTokenService.Expiry",
                      "components": [
                        {
                          "name": "second",
                          "type": "int64",
                          "internalType": "int64"
                        },
                        {
                          "name": "autoRenewAccount",
                          "type": "address",
                          "internalType": "address"
                        },
                        {
                          "name": "autoRenewPeriod",
                          "type": "int64",
                          "internalType": "int64"
                        }
                      ]
                    }
                  ]
                },
                {
                  "name": "totalSupply",
                  "type": "int64",
                  "internalType": "int64"
                },
                {
                  "name": "deleted",
                  "type": "bool",
                  "internalType": "bool"
                },
                {
                  "name": "defaultKycStatus",
                  "type": "bool",
                  "internalType": "bool"
                },
                {
                  "name": "pauseStatus",
                  "type": "bool",
                  "internalType": "bool"
                },
                {
                  "name": "fixedFees",
                  "type": "tuple[]",
                  "internalType": "struct IHederaTokenService.FixedFee[]",
                  "components": [
                    {
                      "name": "amount",
                      "type": "int64",
                      "internalType": "int64"
                    },
                    {
                      "name": "tokenId",
                      "type": "address",
                      "internalType": "address"
                    },
                    {
                      "name": "useHbarsForPayment",
                      "type": "bool",
                      "internalType": "bool"
                    },
                    {
                      "name": "useCurrentTokenForPayment",
                      "type": "bool",
                      "internalType": "bool"
                    },
                    {
                      "name": "feeCollector",
                      "type": "address",
                      "internalType": "address"
                    }
                  ]
                },
                {
                  "name": "fractionalFees",
                  "type": "tuple[]",
                  "internalType": "struct IHederaTokenService.FractionalFee[]",
                  "components": [
                    {
                      "name": "numerator",
                      "type": "int64",
                      "internalType": "int64"
                    },
                    {
                      "name": "denominator",
                      "type": "int64",
                      "internalType": "int64"
                    },
                    {
                      "name": "minimumAmount",
                      "type": "int64",
                      "internalType": "int64"
                    },
                    {
                      "name": "maximumAmount",
                      "type": "int64",
                      "internalType": "int64"
                    },
                    {
                      "name": "netOfTransfers",
                      "type": "bool",
                      "internalType": "bool"
                    },
                    {
                      "name": "feeCollector",
                      "type": "address",
                      "internalType": "address"
                    }
                  ]
                },
                {
                  "name": "royaltyFees",
                  "type": "tuple[]",
                  "internalType": "struct IHederaTokenService.RoyaltyFee[]",
                  "components": [
                    {
                      "name": "numerator",
                      "type": "int64",
                      "internalType": "int64"
                    },
                    {
                      "name": "denominator",
                      "type": "int64",
                      "internalType": "int64"
                    },
                    {
                      "name": "amount",
                      "type": "int64",
                      "internalType": "int64"
                    },
                    {
                      "name": "tokenId",
                      "type": "address",
                      "internalType": "address"
                    },
                    {
                      "name": "useHbarsForPayment",
                      "type": "bool",
                      "internalType": "bool"
                    },
                    {
                      "name": "feeCollector",
                      "type": "address",
                      "internalType": "address"
                    }
                  ]
                },
                {
                  "name": "ledgerId",
                  "type": "string",
                  "internalType": "string"
                }
              ]
            },
            {
              "name": "serialNumber",
              "type": "int64",
              "internalType": "int64"
            },
            {
              "name": "ownerId",
              "type": "address",
              "internalType": "address"
            },
            {
              "name": "creationTime",
              "type": "int64",
              "internalType": "int64"
            },
            {
              "name": "metadata",
              "type": "bytes",
              "internalType": "bytes"
            },
            {
              "name": "spenderId",
              "type": "address",
              "internalType": "address"
            }
          ]
        }
      ],
      "stateMutability": "view"
    },
    {
      "type": "function",
      "name": "getTokenCustomFees",
      "inputs": [
        {
          "name": "token",
          "type": "address",
          "internalType": "address"
        }
      ],
      "outputs": [
        {
          "name": "responseCode",
          "type": "int64",
          "internalType": "int64"
        },
        {
          "name": "fixedFees",
          "type": "tuple[]",
          "internalType": "struct IHederaTokenService.FixedFee[]",
          "components": [
            {
              "name": "amount",
              "type": "int64",
              "internalType": "int64"
            },
            {
              "name": "tokenId",
              "type": "address",
              "internalType": "address"
            },
            {
              "name": "useHbarsForPayment",
              "type": "bool",
              "internalType": "bool"
            },
            {
              "name": "useCurrentTokenForPayment",
              "type": "bool",
              "internalType": "bool"
            },
            {
              "name": "feeCollector",
              "type": "address",
              "internalType": "address"
            }
          ]
        },
        {
          "name": "fractionalFees",
          "type": "tuple[]",
          "internalType": "struct IHederaTokenService.FractionalFee[]",
          "components": [
            {
              "name": "numerator",
              "type": "int64",
              "internalType": "int64"
            },
            {
              "name": "denominator",
              "type": "int64",
              "internalType": "int64"
            },
            {
              "name": "minimumAmount",
              "type": "int64",
              "internalType": "int64"
            },
            {
              "name": "maximumAmount",
              "type": "int64",
              "internalType": "int64"
            },
            {
              "name": "netOfTransfers",
              "type": "bool",
              "internalType": "bool"
            },
            {
              "name": "feeCollector",
              "type": "address",
              "internalType": "address"
            }
          ]
        },
        {
          "name": "royaltyFees",
          "type": "tuple[]",
          "internalType": "struct IHederaTokenService.RoyaltyFee[]",
          "components": [
            {
              "name": "numerator",
              "type": "int64",
              "internalType": "int64"
            },
            {
              "name": "denominator",
              "type": "int64",
              "internalType": "int64"
            },
            {
              "name": "amount",
              "type": "int64",
              "internalType": "int64"
            },
            {
              "name": "tokenId",
              "type": "address",
              "internalType": "address"
            },
            {
              "name": "useHbarsForPayment",
              "type": "bool",
              "internalType": "bool"
            },
            {
              "name": "feeCollector",
              "type": "address",
              "internalType": "address"
            }
          ]
        }
      ],
      "stateMutability": "view"
    },
    {
      "type": "function",
      "name": "getTokenDefaultFreezeStatus",
      "inputs": [
        {
          "name": "token",
          "type": "address",
          "internalType": "address"
        }
      ],
      "outputs": [
        {
          "name": "responseCode",
          "type": "int64",
          "internalType": "int64"
        },
        {
          "name": "defaultFreezeStatus",
          "type": "bool",
          "internalType": "bool"
        }
      ],
      "stateMutability": "view"
    },
    {
      "type": "function",
      "name": "getTokenDefaultKycStatus",
      "inputs": [
        {
          "name": "token",
          "type": "address",
          "internalType": "address"
        }
      ],
      "outputs": [
        {
          "name": "responseCode",
          "type": "int64",
          "internalType": "int64"
        },
        {
          "name": "defaultKycStatus",
          "type": "bool",
          "internalType": "bool"
        }
      ],
      "stateMutability": "view"
    },
    {
      "type": "function",
      "name": "getTokenExpiryInfo",
      "inputs": [
        {
          "name": "token",
          "type": "address",
          "internalType": "address"
        }
      ],
      "outputs": [
        {
          "name": "responseCode",
          "type": "int64",
          "internalType": "int64"
        },
        {
          "name": "expiry",
          "type": "tuple",
          "internalType": "struct IHederaTokenService.Expiry",
          "components": [
            {
              "name": "second",
              "type": "int64",
              "internalType": "int64"
            },
            {
              "name": "autoRenewAccount",
              "type": "address",
              "internalType": "address"
            },
            {
              "name": "autoRenewPeriod",
              "type": "int64",
              "internalType": "int64"
            }
          ]
        }
      ],
      "stateMutability": "view"
    },
    {
      "type": "function",
      "name": "getTokenInfo",
      "inputs": [
        {
          "name": "token",
          "type": "address",
          "internalType": "address"
        }
      ],
      "outputs": [
        {
          "name": "responseCode",
          "type": "int64",
          "internalType": "int64"
        },
        {
          "name": "tokenInfo",
          "type": "tuple",
          "internalType": "struct IHederaTokenService.TokenInfo",
          "components": [
            {
              "name": "token",
              "type": "tuple",
              "internalType": "struct IHederaTokenService.HederaToken",
              "components": [
                {
                  "name": "name",
                  "type": "string",
                  "internalType": "string"
                },
                {
                  "name": "symbol",
                  "type": "string",
                  "internalType": "string"
                },
                {
                  "name": "treasury",
                  "type": "address",
                  "internalType": "address"
                },
                {
                  "name": "memo",
                  "type": "string",
                  "internalType": "string"
                },
                {
                  "name": "tokenSupplyType",
                  "type": "bool",
                  "internalType": "bool"
                },
                {
                  "name": "maxSupply",
                  "type": "int64",
                  "internalType": "int64"
                },
                {
                  "name": "freezeDefault",
                  "type": "bool",
                  "internalType": "bool"
                },
                {
                  "name": "tokenKeys",
                  "type": "tuple[]",
                  "internalType": "struct IHederaTokenService.TokenKey[]",
                  "components": [
                    {
                      "name": "keyType",
                      "type": "uint256",
                      "internalType": "uint256"
                    },
                    {
                      "name": "key",
                      "type": "tuple",
                      "internalType": "struct IHederaTokenService.KeyValue",
                      "components": [
                        {
                          "name": "inheritAccountKey",
                          "type": "bool",
                          "internalType": "bool"
                        },
                        {
                          "name": "contractId",
                          "type": "address",
                          "internalType": "address"
                        },
                        {
                          "name": "ed25519",
                          "type": "bytes",
                          "internalType": "bytes"
                        },
                        {
                          "name": "ECDSA_secp256k1",
                          "type": "bytes",
                          "internalType": "bytes"
                        },
                        {
                          "name": "delegatableContractId",
                          "type": "address",
                          "internalType": "address"
                        }
                      ]
                    }
                  ]
                },
                {
                  "name": "expiry",
                  "type": "tuple",
                  "internalType": "struct IHederaTokenService.Expiry",
                  "components": [
                    {
                      "name": "second",
                      "type": "int64",
                      "internalType": "int64"
                    },
                    {
                      "name": "autoRenewAccount",
                      "type": "address",
                      "internalType": "address"
                    },
                    {
                      "name": "autoRenewPeriod",
                      "type": "int64",
                      "internalType": "int64"
                    }
                  ]
                }
              ]
            },
            {
              "name": "totalSupply",
              "type": "int64",
              "internalType": "int64"
            },
            {
              "name": "deleted",
              "type": "bool",
              "internalType": "bool"
            },
            {
              "name": "defaultKycStatus",
              "type": "bool",
              "internalType": "bool"
            },
            {
              "name": "pauseStatus",
              "type": "bool",
              "internalType": "bool"
            },
            {
              "name": "fixedFees",
              "type": "tuple[]",
              "internalType": "struct IHederaTokenService.FixedFee[]",
              "components": [
                {
                  "name": "amount",
                  "type": "int64",
                  "internalType": "int64"
                },
                {
                  "name": "tokenId",
                  "type": "address",
                  "internalType": "address"
                },
                {
                  "name": "useHbarsForPayment",
                  "type": "bool",
                  "internalType": "bool"
                },
                {
                  "name": "useCurrentTokenForPayment",
                  "type": "bool",
                  "internalType": "bool"
                },
                {
                  "name": "feeCollector",
                  "type": "address",
                  "internalType": "address"
                }
              ]
            },
            {
              "name": "fractionalFees",
              "type": "tuple[]",
              "internalType": "struct IHederaTokenService.FractionalFee[]",
              "components": [
                {
                  "name": "numerator",
                  "type": "int64",
                  "internalType": "int64"
                },
                {
                  "name": "denominator",
                  "type": "int64",
                  "internalType": "int64"
                },
                {
                  "name": "minimumAmount",
                  "type": "int64",
                  "internalType": "int64"
                },
                {
                  "name": "maximumAmount",
                  "type": "int64",
                  "internalType": "int64"
                },
                {
                  "name": "netOfTransfers",
                  "type": "bool",
                  "internalType": "bool"
                },
                {
                  "name": "feeCollector",
                  "type": "address",
                  "internalType": "address"
                }
              ]
            },
            {
              "name": "royaltyFees",
              "type": "tuple[]",
              "internalType": "struct IHederaTokenService.RoyaltyFee[]",
              "components": [
                {
                  "name": "numerator",
                  "type": "int64",
                  "internalType": "int64"
                },
                {
                  "name": "denominator",
                  "type": "int64",
                  "internalType": "int64"
                },
                {
                  "name": "amount",
                  "type": "int64",
                  "internalType": "int64"
                },
                {
                  "name": "tokenId",
                  "type": "address",
                  "internalType": "address"
                },
                {
                  "name": "useHbarsForPayment",
                  "type": "bool",
                  "internalType": "bool"
                },
                {
                  "name": "feeCollector",
                  "type": "address",
                  "internalType": "address"
                }
              ]
            },
            {
              "name": "ledgerId",
              "type": "string",
              "internalType": "string"
            }
          ]
        }
      ],
      "stateMutability": "view"
    },
    {
      "type": "function",
      "name": "getTokenKey",
      "inputs": [
        {
          "name": "token",
          "type": "address",
          "internalType": "address"
        },
        {
          "name": "keyType",
          "type": "uint256",
          "internalType": "uint256"
        }
      ],
      "outputs": [
        {
          "name": "responseCode",
          "type": "int64",
          "internalType": "int64"
        },
        {
          "name": "key",
          "type": "tuple",
          "internalType": "struct IHederaTokenService.KeyValue",
          "components": [
            {
              "name": "inheritAccountKey",
              "type": "bool",
              "internalType": "bool"
            },
            {
              "name": "contractId",
              "type": "address",
              "internalType": "address"
            },
            {
              "name": "ed25519",
              "type": "bytes",
              "internalType": "bytes"
            },
            {
              "name": "ECDSA_secp256k1",
              "type": "bytes",
              "internalType": "bytes"
            },
            {
              "name": "delegatableContractId",
              "type": "address",
              "internalType": "address"
            }
          ]
        }
      ],
      "stateMutability": "view"
    },
    {
      "type": "function",
      "name": "getTokenType",
      "inputs": [
        {
          "name": "token",
          "type": "address",
          "internalType": "address"
        }
      ],
      "outputs": [
        {
          "name": "responseCode",
          "type": "int64",
          "internalType": "int64"
        },
        {
          "name": "tokenType",
          "type": "int32",
          "internalType": "int32"
        }
      ],
      "stateMutability": "view"
    },
    {
      "type": "function",
      "name": "getTreasuryAccount",
      "inputs": [
        {
          "name": "token",
          "type": "address",
          "internalType": "address"
        }
      ],
      "outputs": [
        {
          "name": "treasury",
          "type": "address",
          "internalType": "address"
        }
      ],
      "stateMutability": "view"
    },
    {
      "type": "function",
      "name": "grantTokenKyc",
      "inputs": [
        {
          "name": "token",
          "type": "address",
          "internalType": "address"
        },
        {
          "name": "account",
          "type": "address",
          "internalType": "address"
        }
      ],
      "outputs": [
        {
          "name": "responseCode",
          "type": "int64",
          "internalType": "int64"
        }
      ],
      "stateMutability": "nonpayable"
    },
    {
      "type": "function",
      "name": "isApprovedForAll",
      "inputs": [
        {
          "name": "token",
          "type": "address",
          "internalType": "address"
        },
        {
          "name": "owner",
          "type": "address",
          "internalType": "address"
        },
        {
          "name": "operator",
          "type": "address",
          "internalType": "address"
        }
      ],
      "outputs": [
        {
          "name": "responseCode",
          "type": "int64",
          "internalType": "int64"
        },
        {
          "name": "approved",
          "type": "bool",
          "internalType": "bool"
        }
      ],
      "stateMutability": "view"
    },
    {
      "type": "function",
      "name": "isAssociated",
      "inputs": [
        {
          "name": "account",
          "type": "address",
          "internalType": "address"
        },
        {
          "name": "token",
          "type": "address",
          "internalType": "address"
        }
      ],
      "outputs": [
        {
          "name": "associated",
          "type": "bool",
          "internalType": "bool"
        }
      ],
      "stateMutability": "view"
    },
    {
      "type": "function",
      "name": "isFrozen",
      "inputs": [
        {
          "name": "token",
          "type": "address",
          "internalType": "address"
        },
        {
          "name": "account",
          "type": "address",
          "internalType": "address"
        }
      ],
      "outputs": [
        {
          "name": "responseCode",
          "type": "int64",
          "internalType": "int64"
        },
        {
          "name": "frozen",
          "type": "bool",
          "internalType": "bool"
        }
      ],
      "stateMutability": "view"
    },
    {
      "type": "function",
      "name": "isKyc",
      "inputs": [
        {
          "name": "token",
          "type": "address",
          "internalType": "address"
        },
        {
          "name": "account",
          "type": "address",
          "internalType": "address"
        }
      ],
      "outputs": [
        {
          "name": "responseCode",
          "type": "int64",
          "internalType": "int64"
        },
        {
          "name": "kycGranted",
          "type": "bool",
          "internalType": "bool"
        }
      ],
      "stateMutability": "view"
    },
    {
      "type": "function",
      "name": "isToken",
      "inputs": [
        {
          "name": "token",
          "type": "address",
          "internalType": "address"
        }
      ],
      "outputs": [
        {
          "name": "responseCode",
          "type": "int64",
          "internalType": "int64"
        },
        {
          "name": "isToken_",
          "type": "bool",
          "internalType": "bool"
        }
      ],
      "stateMutability": "view"
    },
    {
      "type": "function",
      "name": "mintToken",
      "inputs": [
        {
          "name": "token",
          "type": "address",
          "internalType": "address"
        },
        {
          "name": "amount",
          "type": "int64",
          "internalType": "int64"
        },
        {
          "name": "metadata",
          "type": "bytes[]",
          "internalType": "bytes[]"
        }
      ],
      "outputs": [
        {
          "name": "responseCode",
          "type": "int64",
          "internalType": "int64"
        },
        {
          "name": "newTotalSupply",
          "type": "int64",
          "internalType": "int64"
        },
        {
          "name": "serialNumbers",
          "type": "int64[]",
          "internalType": "int64[]"
        }
      ],
      "stateMutability": "nonpayable"
    },
    {
      "type": "function",
      "name": "pauseToken",
      "inputs": [
        {
          "name": "token",
          "type": "address",
          "internalType": "address"
        }
      ],
      "outputs": [
        {
          "name": "responseCode",
          "type": "int64",
          "internalType": "int64"
        }
      ],
      "stateMutability": "nonpayable"
    },
    {
      "type": "function",
      "name": "preApprove",
      "inputs": [
        {
          "name": "sender",
          "type": "address",
          "internalType": "address"
        },
        {
          "name": "spender",
          "type": "address",
          "internalType": "address"
        },
        {
          "name": "amountOrSerialNumber",
          "type": "uint256",
          "internalType": "uint256"
        }
      ],
      "outputs": [
        {
          "name": "responseCode",
          "type": "int64",
          "internalType": "int64"
        }
      ],
      "stateMutability": "nonpayable"
    },
    {
      "type": "function",
      "name": "preAssociate",
      "inputs": [
        {
          "name": "sender",
          "type": "address",
          "internalType": "address"
        }
      ],
      "outputs": [
        {
          "name": "responseCode",
          "type": "int64",
          "internalType": "int64"
        }
      ],
      "stateMutability": "nonpayable"
    },
    {
      "type": "function",
      "name": "preDissociate",
      "inputs": [
        {
          "name": "sender",
          "type": "address",
          "internalType": "address"
        }
      ],
      "outputs": [
        {
          "name": "responseCode",
          "type": "int64",
          "internalType": "int64"
        }
      ],
      "stateMutability": "nonpayable"
    },
    {
      "type": "function",
      "name": "preSetApprovalForAll",
      "inputs": [
        {
          "name": "sender",
          "type": "address",
          "internalType": "address"
        },
        {
          "name": "operator",
          "type": "address",
          "internalType": "address"
        },
        {
          "name": "approved",
          "type": "bool",
          "internalType": "bool"
        }
      ],
      "outputs": [
        {
          "name": "responseCode",
          "type": "int64",
          "internalType": "int64"
        }
      ],
      "stateMutability": "nonpayable"
    },
    {
      "type": "function",
      "name": "registerHederaFungibleToken",
      "inputs": [
        {
          "name": "caller",
          "type": "address",
          "internalType": "address"
        },
        {
          "name": "fungibleTokenInfo",
          "type": "tuple",
          "internalType": "struct IHederaTokenService.FungibleTokenInfo",
          "components": [
            {
              "name": "tokenInfo",
              "type": "tuple",
              "internalType": "struct IHederaTokenService.TokenInfo",
              "components": [
                {
                  "name": "token",
                  "type": "tuple",
                  "internalType": "struct IHederaTokenService.HederaToken",
                  "components": [
                    {
                      "name": "name",
                      "type": "string",
                      "internalType": "string"
                    },
                    {
                      "name": "symbol",
                      "type": "string",
                      "internalType": "string"
                    },
                    {
                      "name": "treasury",
                      "type": "address",
                      "internalType": "address"
                    },
                    {
                      "name": "memo",
                      "type": "string",
                      "internalType": "string"
                    },
                    {
                      "name": "tokenSupplyType",
                      "type": "bool",
                      "internalType": "bool"
                    },
                    {
                      "name": "maxSupply",
                      "type": "int64",
                      "internalType": "int64"
                    },
                    {
                      "name": "freezeDefault",
                      "type": "bool",
                      "internalType": "bool"
                    },
                    {
                      "name": "tokenKeys",
                      "type": "tuple[]",
                      "internalType": "struct IHederaTokenService.TokenKey[]",
                      "components": [
                        {
                          "name": "keyType",
                          "type": "uint256",
                          "internalType": "uint256"
                        },
                        {
                          "name": "key",
                          "type": "tuple",
                          "internalType": "struct IHederaTokenService.KeyValue",
                          "components": [
                            {
                              "name": "inheritAccountKey",
                              "type": "bool",
                              "internalType": "bool"
                            },
                            {
                              "name": "contractId",
                              "type": "address",
                              "internalType": "address"
                            },
                            {
                              "name": "ed25519",
                              "type": "bytes",
                              "internalType": "bytes"
                            },
                            {
                              "name": "ECDSA_secp256k1",
                              "type": "bytes",
                              "internalType": "bytes"
                            },
                            {
                              "name": "delegatableContractId",
                              "type": "address",
                              "internalType": "address"
                            }
                          ]
                        }
                      ]
                    },
                    {
                      "name": "expiry",
                      "type": "tuple",
                      "internalType": "struct IHederaTokenService.Expiry",
                      "components": [
                        {
                          "name": "second",
                          "type": "int64",
                          "internalType": "int64"
                        },
                        {
                          "name": "autoRenewAccount",
                          "type": "address",
                          "internalType": "address"
                        },
                        {
                          "name": "autoRenewPeriod",
                          "type": "int64",
                          "internalType": "int64"
                        }
                      ]
                    }
                  ]
                },
                {
                  "name": "totalSupply",
                  "type": "int64",
                  "internalType": "int64"
                },
                {
                  "name": "deleted",
                  "type": "bool",
                  "internalType": "bool"
                },
                {
                  "name": "defaultKycStatus",
                  "type": "bool",
                  "internalType": "bool"
                },
                {
                  "name": "pauseStatus",
                  "type": "bool",
                  "internalType": "bool"
                },
                {
                  "name": "fixedFees",
                  "type": "tuple[]",
                  "internalType": "struct IHederaTokenService.FixedFee[]",
                  "components": [
                    {
                      "name": "amount",
                      "type": "int64",
                      "internalType": "int64"
                    },
                    {
                      "name": "tokenId",
                      "type": "address",
                      "internalType": "address"
                    },
                    {
                      "name": "useHbarsForPayment",
                      "type": "bool",
                      "internalType": "bool"
                    },
                    {
                      "name": "useCurrentTokenForPayment",
                      "type": "bool",
                      "internalType": "bool"
                    },
                    {
                      "name": "feeCollector",
                      "type": "address",
                      "internalType": "address"
                    }
                  ]
                },
                {
                  "name": "fractionalFees",
                  "type": "tuple[]",
                  "internalType": "struct IHederaTokenService.FractionalFee[]",
                  "components": [
                    {
                      "name": "numerator",
                      "type": "int64",
                      "internalType": "int64"
                    },
                    {
                      "name": "denominator",
                      "type": "int64",
                      "internalType": "int64"
                    },
                    {
                      "name": "minimumAmount",
                      "type": "int64",
                      "internalType": "int64"
                    },
                    {
                      "name": "maximumAmount",
                      "type": "int64",
                      "internalType": "int64"
                    },
                    {
                      "name": "netOfTransfers",
                      "type": "bool",
                      "internalType": "bool"
                    },
                    {
                      "name": "feeCollector",
                      "type": "address",
                      "internalType": "address"
                    }
                  ]
                },
                {
                  "name": "royaltyFees",
                  "type": "tuple[]",
                  "internalType": "struct IHederaTokenService.RoyaltyFee[]",
                  "components": [
                    {
                      "name": "numerator",
                      "type": "int64",
                      "internalType": "int64"
                    },
                    {
                      "name": "denominator",
                      "type": "int64",
                      "internalType": "int64"
                    },
                    {
                      "name": "amount",
                      "type": "int64",
                      "internalType": "int64"
                    },
                    {
                      "name": "tokenId",
                      "type": "address",
                      "internalType": "address"
                    },
                    {
                      "name": "useHbarsForPayment",
                      "type": "bool",
                      "internalType": "bool"
                    },
                    {
                      "name": "feeCollector",
                      "type": "address",
                      "internalType": "address"
                    }
                  ]
                },
                {
                  "name": "ledgerId",
                  "type": "string",
                  "internalType": "string"
                }
              ]
            },
            {
              "name": "decimals",
              "type": "int32",
              "internalType": "int32"
            }
          ]
        }
      ],
      "outputs": [],
      "stateMutability": "nonpayable"
    },
    {
      "type": "function",
      "name": "registerHederaNonFungibleToken",
      "inputs": [
        {
          "name": "caller",
          "type": "address",
          "internalType": "address"
        },
        {
          "name": "nftTokenInfo",
          "type": "tuple",
          "internalType": "struct IHederaTokenService.TokenInfo",
          "components": [
            {
              "name": "token",
              "type": "tuple",
              "internalType": "struct IHederaTokenService.HederaToken",
              "components": [
                {
                  "name": "name",
                  "type": "string",
                  "internalType": "string"
                },
                {
                  "name": "symbol",
                  "type": "string",
                  "internalType": "string"
                },
                {
                  "name": "treasury",
                  "type": "address",
                  "internalType": "address"
                },
                {
                  "name": "memo",
                  "type": "string",
                  "internalType": "string"
                },
                {
                  "name": "tokenSupplyType",
                  "type": "bool",
                  "internalType": "bool"
                },
                {
                  "name": "maxSupply",
                  "type": "int64",
                  "internalType": "int64"
                },
                {
                  "name": "freezeDefault",
                  "type": "bool",
                  "internalType": "bool"
                },
                {
                  "name": "tokenKeys",
                  "type": "tuple[]",
                  "internalType": "struct IHederaTokenService.TokenKey[]",
                  "components": [
                    {
                      "name": "keyType",
                      "type": "uint256",
                      "internalType": "uint256"
                    },
                    {
                      "name": "key",
                      "type": "tuple",
                      "internalType": "struct IHederaTokenService.KeyValue",
                      "components": [
                        {
                          "name": "inheritAccountKey",
                          "type": "bool",
                          "internalType": "bool"
                        },
                        {
                          "name": "contractId",
                          "type": "address",
                          "internalType": "address"
                        },
                        {
                          "name": "ed25519",
                          "type": "bytes",
                          "internalType": "bytes"
                        },
                        {
                          "name": "ECDSA_secp256k1",
                          "type": "bytes",
                          "internalType": "bytes"
                        },
                        {
                          "name": "delegatableContractId",
                          "type": "address",
                          "internalType": "address"
                        }
                      ]
                    }
                  ]
                },
                {
                  "name": "expiry",
                  "type": "tuple",
                  "internalType": "struct IHederaTokenService.Expiry",
                  "components": [
                    {
                      "name": "second",
                      "type": "int64",
                      "internalType": "int64"
                    },
                    {
                      "name": "autoRenewAccount",
                      "type": "address",
                      "internalType": "address"
                    },
                    {
                      "name": "autoRenewPeriod",
                      "type": "int64",
                      "internalType": "int64"
                    }
                  ]
                }
              ]
            },
            {
              "name": "totalSupply",
              "type": "int64",
              "internalType": "int64"
            },
            {
              "name": "deleted",
              "type": "bool",
              "internalType": "bool"
            },
            {
              "name": "defaultKycStatus",
              "type": "bool",
              "internalType": "bool"
            },
            {
              "name": "pauseStatus",
              "type": "bool",
              "internalType": "bool"
            },
            {
              "name": "fixedFees",
              "type": "tuple[]",
              "internalType": "struct IHederaTokenService.FixedFee[]",
              "components": [
                {
                  "name": "amount",
                  "type": "int64",
                  "internalType": "int64"
                },
                {
                  "name": "tokenId",
                  "type": "address",
                  "internalType": "address"
                },
                {
                  "name": "useHbarsForPayment",
                  "type": "bool",
                  "internalType": "bool"
                },
                {
                  "name": "useCurrentTokenForPayment",
                  "type": "bool",
                  "internalType": "bool"
                },
                {
                  "name": "feeCollector",
                  "type": "address",
                  "internalType": "address"
                }
              ]
            },
            {
              "name": "fractionalFees",
              "type": "tuple[]",
              "internalType": "struct IHederaTokenService.FractionalFee[]",
              "components": [
                {
                  "name": "numerator",
                  "type": "int64",
                  "internalType": "int64"
                },
                {
                  "name": "denominator",
                  "type": "int64",
                  "internalType": "int64"
                },
                {
                  "name": "minimumAmount",
                  "type": "int64",
                  "internalType": "int64"
                },
                {
                  "name": "maximumAmount",
                  "type": "int64",
                  "internalType": "int64"
                },
                {
                  "name": "netOfTransfers",
                  "type": "bool",
                  "internalType": "bool"
                },
                {
                  "name": "feeCollector",
                  "type": "address",
                  "internalType": "address"
                }
              ]
            },
            {
              "name": "royaltyFees",
              "type": "tuple[]",
              "internalType": "struct IHederaTokenService.RoyaltyFee[]",
              "components": [
                {
                  "name": "numerator",
                  "type": "int64",
                  "internalType": "int64"
                },
                {
                  "name": "denominator",
                  "type": "int64",
                  "internalType": "int64"
                },
                {
                  "name": "amount",
                  "type": "int64",
                  "internalType": "int64"
                },
                {
                  "name": "tokenId",
                  "type": "address",
                  "internalType": "address"
                },
                {
                  "name": "useHbarsForPayment",
                  "type": "bool",
                  "internalType": "bool"
                },
                {
                  "name": "feeCollector",
                  "type": "address",
                  "internalType": "address"
                }
              ]
            },
            {
              "name": "ledgerId",
              "type": "string",
              "internalType": "string"
            }
          ]
        }
      ],
      "outputs": [],
      "stateMutability": "nonpayable"
    },
    {
      "type": "function",
      "name": "revokeTokenKyc",
      "inputs": [
        {
          "name": "token",
          "type": "address",
          "internalType": "address"
        },
        {
          "name": "account",
          "type": "address",
          "internalType": "address"
        }
      ],
      "outputs": [
        {
          "name": "responseCode",
          "type": "int64",
          "internalType": "int64"
        }
      ],
      "stateMutability": "nonpayable"
    },
    {
      "type": "function",
      "name": "setApprovalForAll",
      "inputs": [
        {
          "name": "token",
          "type": "address",
          "internalType": "address"
        },
        {
          "name": "operator",
          "type": "address",
          "internalType": "address"
        },
        {
          "name": "approved",
          "type": "bool",
          "internalType": "bool"
        }
      ],
      "outputs": [
        {
          "name": "responseCode",
          "type": "int64",
          "internalType": "int64"
        }
      ],
      "stateMutability": "nonpayable"
    },
    {
      "type": "function",
      "name": "transferFrom",
      "inputs": [
        {
          "name": "token",
          "type": "address",
          "internalType": "address"
        },
        {
          "name": "from",
          "type": "address",
          "internalType": "address"
        },
        {
          "name": "to",
          "type": "address",
          "internalType": "address"
        },
        {
          "name": "amount",
          "type": "uint256",
          "internalType": "uint256"
        }
      ],
      "outputs": [
        {
          "name": "responseCode",
          "type": "int64",
          "internalType": "int64"
        }
      ],
      "stateMutability": "nonpayable"
    },
    {
      "type": "function",
      "name": "transferFromNFT",
      "inputs": [
        {
          "name": "token",
          "type": "address",
          "internalType": "address"
        },
        {
          "name": "from",
          "type": "address",
          "internalType": "address"
        },
        {
          "name": "to",
          "type": "address",
          "internalType": "address"
        },
        {
          "name": "serialNumber",
          "type": "uint256",
          "internalType": "uint256"
        }
      ],
      "outputs": [
        {
          "name": "responseCode",
          "type": "int64",
          "internalType": "int64"
        }
      ],
      "stateMutability": "nonpayable"
    },
    {
      "type": "function",
      "name": "transferNFT",
      "inputs": [
        {
          "name": "token",
          "type": "address",
          "internalType": "address"
        },
        {
          "name": "sender",
          "type": "address",
          "internalType": "address"
        },
        {
          "name": "recipient",
          "type": "address",
          "internalType": "address"
        },
        {
          "name": "serialNumber",
          "type": "int64",
          "internalType": "int64"
        }
      ],
      "outputs": [
        {
          "name": "responseCode",
          "type": "int64",
          "internalType": "int64"
        }
      ],
      "stateMutability": "nonpayable"
    },
    {
      "type": "function",
      "name": "transferNFTs",
      "inputs": [
        {
          "name": "token",
          "type": "address",
          "internalType": "address"
        },
        {
          "name": "sender",
          "type": "address[]",
          "internalType": "address[]"
        },
        {
          "name": "receiver",
          "type": "address[]",
          "internalType": "address[]"
        },
        {
          "name": "serialNumber",
          "type": "int64[]",
          "internalType": "int64[]"
        }
      ],
      "outputs": [
        {
          "name": "responseCode",
          "type": "int64",
          "internalType": "int64"
        }
      ],
      "stateMutability": "nonpayable"
    },
    {
      "type": "function",
      "name": "transferToken",
      "inputs": [
        {
          "name": "token",
          "type": "address",
          "internalType": "address"
        },
        {
          "name": "sender",
          "type": "address",
          "internalType": "address"
        },
        {
          "name": "recipient",
          "type": "address",
          "internalType": "address"
        },
        {
          "name": "amount",
          "type": "int64",
          "internalType": "int64"
        }
      ],
      "outputs": [
        {
          "name": "responseCode",
          "type": "int64",
          "internalType": "int64"
        }
      ],
      "stateMutability": "nonpayable"
    },
    {
      "type": "function",
      "name": "transferTokens",
      "inputs": [
        {
          "name": "token",
          "type": "address",
          "internalType": "address"
        },
        {
          "name": "accountId",
          "type": "address[]",
          "internalType": "address[]"
        },
        {
          "name": "amount",
          "type": "int64[]",
          "internalType": "int64[]"
        }
      ],
      "outputs": [
        {
          "name": "responseCode",
          "type": "int64",
          "internalType": "int64"
        }
      ],
      "stateMutability": "nonpayable"
    },
    {
      "type": "function",
      "name": "unfreezeToken",
      "inputs": [
        {
          "name": "token",
          "type": "address",
          "internalType": "address"
        },
        {
          "name": "account",
          "type": "address",
          "internalType": "address"
        }
      ],
      "outputs": [
        {
          "name": "responseCode",
          "type": "int64",
          "internalType": "int64"
        }
      ],
      "stateMutability": "nonpayable"
    },
    {
      "type": "function",
      "name": "unpauseToken",
      "inputs": [
        {
          "name": "token",
          "type": "address",
          "internalType": "address"
        }
      ],
      "outputs": [
        {
          "name": "responseCode",
          "type": "int64",
          "internalType": "int64"
        }
      ],
      "stateMutability": "nonpayable"
    },
    {
      "type": "function",
      "name": "updateTokenExpiryInfo",
      "inputs": [
        {
          "name": "token",
          "type": "address",
          "internalType": "address"
        },
        {
          "name": "expiryInfo",
          "type": "tuple",
          "internalType": "struct IHederaTokenService.Expiry",
          "components": [
            {
              "name": "second",
              "type": "int64",
              "internalType": "int64"
            },
            {
              "name": "autoRenewAccount",
              "type": "address",
              "internalType": "address"
            },
            {
              "name": "autoRenewPeriod",
              "type": "int64",
              "internalType": "int64"
            }
          ]
        }
      ],
      "outputs": [
        {
          "name": "responseCode",
          "type": "int64",
          "internalType": "int64"
        }
      ],
      "stateMutability": "nonpayable"
    },
    {
      "type": "function",
      "name": "updateTokenInfo",
      "inputs": [
        {
          "name": "token",
          "type": "address",
          "internalType": "address"
        },
        {
          "name": "tokenInfo",
          "type": "tuple",
          "internalType": "struct IHederaTokenService.HederaToken",
          "components": [
            {
              "name": "name",
              "type": "string",
              "internalType": "string"
            },
            {
              "name": "symbol",
              "type": "string",
              "internalType": "string"
            },
            {
              "name": "treasury",
              "type": "address",
              "internalType": "address"
            },
            {
              "name": "memo",
              "type": "string",
              "internalType": "string"
            },
            {
              "name": "tokenSupplyType",
              "type": "bool",
              "internalType": "bool"
            },
            {
              "name": "maxSupply",
              "type": "int64",
              "internalType": "int64"
            },
            {
              "name": "freezeDefault",
              "type": "bool",
              "internalType": "bool"
            },
            {
              "name": "tokenKeys",
              "type": "tuple[]",
              "internalType": "struct IHederaTokenService.TokenKey[]",
              "components": [
                {
                  "name": "keyType",
                  "type": "uint256",
                  "internalType": "uint256"
                },
                {
                  "name": "key",
                  "type": "tuple",
                  "internalType": "struct IHederaTokenService.KeyValue",
                  "components": [
                    {
                      "name": "inheritAccountKey",
                      "type": "bool",
                      "internalType": "bool"
                    },
                    {
                      "name": "contractId",
                      "type": "address",
                      "internalType": "address"
                    },
                    {
                      "name": "ed25519",
                      "type": "bytes",
                      "internalType": "bytes"
                    },
                    {
                      "name": "ECDSA_secp256k1",
                      "type": "bytes",
                      "internalType": "bytes"
                    },
                    {
                      "name": "delegatableContractId",
                      "type": "address",
                      "internalType": "address"
                    }
                  ]
                }
              ]
            },
            {
              "name": "expiry",
              "type": "tuple",
              "internalType": "struct IHederaTokenService.Expiry",
              "components": [
                {
                  "name": "second",
                  "type": "int64",
                  "internalType": "int64"
                },
                {
                  "name": "autoRenewAccount",
                  "type": "address",
                  "internalType": "address"
                },
                {
                  "name": "autoRenewPeriod",
                  "type": "int64",
                  "internalType": "int64"
                }
              ]
            }
          ]
        }
      ],
      "outputs": [
        {
          "name": "responseCode",
          "type": "int64",
          "internalType": "int64"
        }
      ],
      "stateMutability": "nonpayable"
    },
    {
      "type": "function",
      "name": "updateTokenKeys",
      "inputs": [
        {
          "name": "token",
          "type": "address",
          "internalType": "address"
        },
        {
          "name": "keys",
          "type": "tuple[]",
          "internalType": "struct IHederaTokenService.TokenKey[]",
          "components": [
            {
              "name": "keyType",
              "type": "uint256",
              "internalType": "uint256"
            },
            {
              "name": "key",
              "type": "tuple",
              "internalType": "struct IHederaTokenService.KeyValue",
              "components": [
                {
                  "name": "inheritAccountKey",
                  "type": "bool",
                  "internalType": "bool"
                },
                {
                  "name": "contractId",
                  "type": "address",
                  "internalType": "address"
                },
                {
                  "name": "ed25519",
                  "type": "bytes",
                  "internalType": "bytes"
                },
                {
                  "name": "ECDSA_secp256k1",
                  "type": "bytes",
                  "internalType": "bytes"
                },
                {
                  "name": "delegatableContractId",
                  "type": "address",
                  "internalType": "address"
                }
              ]
            }
          ]
        }
      ],
      "outputs": [
        {
          "name": "responseCode",
          "type": "int64",
          "internalType": "int64"
        }
      ],
      "stateMutability": "nonpayable"
    },
    {
      "type": "function",
      "name": "wipeTokenAccount",
      "inputs": [
        {
          "name": "token",
          "type": "address",
          "internalType": "address"
        },
        {
          "name": "account",
          "type": "address",
          "internalType": "address"
        },
        {
          "name": "amount",
          "type": "int64",
          "internalType": "int64"
        }
      ],
      "outputs": [
        {
          "name": "responseCode",
          "type": "int64",
          "internalType": "int64"
        }
      ],
      "stateMutability": "nonpayable"
    },
    {
      "type": "function",
      "name": "wipeTokenAccountNFT",
      "inputs": [
        {
          "name": "token",
          "type": "address",
          "internalType": "address"
        },
        {
          "name": "account",
          "type": "address",
          "internalType": "address"
        },
        {
          "name": "serialNumbers",
          "type": "int64[]",
          "internalType": "int64[]"
        }
      ],
      "outputs": [
        {
          "name": "responseCode",
          "type": "int64",
          "internalType": "int64"
        }
      ],
      "stateMutability": "nonpayable"
    },
    {
      "type": "event",
      "name": "TokenCreated",
      "inputs": [
        {
          "name": "token",
          "type": "address",
          "indexed": true,
          "internalType": "address"
        }
      ],
      "anonymous": false
    },
    {
      "type": "error",
      "name": "HtsPrecompileError",
      "inputs": [
        {
          "name": "responseCode",
          "type": "int64",
          "internalType": "int64"
        }
      ]
    }
  ],
  "bytecode": {
    "object": "0x60a060405234801561001057600080fd5b50610167608052600160208181527fa6eef7e35abe7026729641147f7915573c7e97b47efa546f5f6e3230263bcb499190915560027fcc69885fda6bcc1a4ace058b4a62bf5e179ea78fd58a1ccd71c22cc9b688792f5560047fd9d16d34ffb15ba3a3d852f0d403e2ce1d691fb54de27ac87cd2f993f3ec330f5560087f7dfe757ecd65cbd7922a9c0161e935dd7fdbcc0e999689c7d31633896b1fc60b5560107fedc95719e9a3b28dd8e80877cb5880a9be7de1a13fc8b05e7999683b6b567643557fe2689cd4a84e23ad2f564004f1c9013e9589d260bde6380aba3ca7e09e4df40c55600660005260407f8f331abe73332f95a25873e8b430885974c0409691f89d643119a11623a7924a5560805161a77a6101396000396000616685015261a77a6000f3fe6080604052600436106103505760003560e01c80637336aaf0116101c6578063d27be6cd116100f7578063ea83f29311610095578063f069f7121161006f578063f069f71214610b95578063f2c31ff414610bb5578063f49f40db14610bd5578063f7f38e2614610bfb57610350565b8063ea83f29314610b42578063eca3691714610b55578063efef57f914610b7557610350565b8063da23fff9116100d1578063da23fff914610ab3578063e0f4059a14610ad3578063e1f21c6714610b02578063e459524914610b2257610350565b8063d27be6cd14610a2b578063d614cdb814610a4b578063d6910d0614610a7957610350565b806393272baf11610164578063abb54eb51161013e578063abb54eb5146109a8578063ae7611a0146109bb578063af99c633146109eb578063b58d1b8e14610a0b57610350565b806393272baf1461094b5780639b23d3d914610532578063a7daa18d1461098857610350565b80637d305cfa116101a05780637d305cfa146108b157806382bba493146108d15780638f8d7f99146108f1578063927da1051461091157610350565b80637336aaf01461085157806378b63918146108715780637c41ad2c1461089157610350565b80632e63879b116102a057806349146bde1161023e5780635b8f8584116102185780635b8f8584146107975780635cfc9011146107b75780636cf99248146107d75780636fc3cbaf1461083157610350565b806349146bde1461073757806352f9138714610757578063535575b21461077757610350565b80633b3bff0f1161027a5780633b3bff0f1461069b5780633c4dd32e146106bb5780633f28a19b146106e957806346de0fb11461071757610350565b80632e63879b1461063b578063335e04c11461065b578063367605ca1461067b57610350565b806315dacbea1161030d57806324d81f66116102e757806324d81f66146105ba578063287e1da8146105da5780632af0c59a146106085780632c4ba1911461061b57610350565b806315dacbea1461053257806319f37361146105525780631f69565f1461058c57610350565b80630863684b14610412578063098f23661461044f578063099794e8146104915780630e71804f146104c45780630fb65bf3146104e4578063154a97a0146104f7575b34801561035c57600080fd5b50600036606082610370600482858161860d565b61037991618637565b60e01c9050600061038e60186004368461860d565b6103979161866d565b60601c905060006103ab366018818461860d565b8080601f016020809104026020016040519081016040528093929190818152602001838380828437600092019190915250929350505063618dc65e8490039050610403576103f98282610c1b565b9350505050610407565b5050505b915050805190602001f35b34801561041e57600080fd5b5061043261042d3660046186c4565b610e72565b6040516001600160a01b0390911681526020015b60405180910390f35b34801561045b57600080fd5b5061046f61046a3660046186df565b610e7d565b6040805160079390930b83526001600160a01b03909116602083015201610446565b34801561049d57600080fd5b506104b16104ac366004618709565b610ea4565b60405160079190910b8152602001610446565b3480156104d057600080fd5b506104b16104df36600461896e565b610efd565b61046f6104f2366004618f0f565b610f07565b34801561050357600080fd5b50610530610512366004619317565b5050336000908152600460205260409020805460ff19166001179055565b005b34801561053e57600080fd5b506104b161054d3660046193aa565b610fbb565b34801561055e57600080fd5b5061057261056d3660046186c4565b611003565b6040805160079390930b8352901515602083015201610446565b34801561059857600080fd5b506105ac6105a73660046186c4565b61102a565b60405161044692919061988d565b3480156105c657600080fd5b506104b16105d53660046186c4565b611ef3565b3480156105e657600080fd5b506105fa6105f53660046198a9565b611f6f565b6040516104469291906198d3565b61046f610616366004619965565b61280e565b34801561062757600080fd5b506104b1610636366004619ae2565b6128da565b34801561064757600080fd5b506104b1610656366004619b84565b6129e7565b34801561066757600080fd5b506105726106763660046186c4565b612a43565b34801561068757600080fd5b506104b1610696366004619bd1565b612add565b3480156106a757600080fd5b506104b16106b63660046186c4565b612b10565b3480156106c757600080fd5b506106db6106d63660046186df565b612b60565b604051610446929190619c0b565b3480156106f557600080fd5b506107096107043660046186c4565b612bb8565b604051610446929190619c27565b34801561072357600080fd5b50610572610732366004618709565b61333b565b34801561074357600080fd5b506104b1610752366004618709565b6142af565b34801561076357600080fd5b506104b1610772366004618709565b61430b565b34801561078357600080fd5b506104b1610792366004619bd1565b61436b565b3480156107a357600080fd5b506104b16107b2366004618709565b6143ac565b3480156107c357600080fd5b506104b16107d2366004619c65565b61440b565b3480156107e357600080fd5b506108216107f2366004618709565b6001600160a01b0390811660009081526008602090815260408083209490931682529290925290205460ff1690565b6040519015158152602001610446565b34801561083d57600080fd5b506104b161084c366004619cb9565b61445e565b34801561085d57600080fd5b506104b161086c366004619cfc565b6144da565b34801561087d57600080fd5b506104b161088c366004619b84565b61451e565b34801561089d57600080fd5b506104b16108ac3660046186c4565b614579565b3480156108bd57600080fd5b506104b16108cc366004619d39565b6145c9565b3480156108dd57600080fd5b506104b16108ec366004619d7c565b614645565b3480156108fd57600080fd5b506104b161090c366004618709565b614727565b34801561091d57600080fd5b5061093161092c366004619df3565b61477e565b6040805160079390930b8352602083019190915201610446565b34801561095757600080fd5b5061096b6109663660046186c4565b61481a565b6040805160079390930b835260039190910b602083015201610446565b34801561099457600080fd5b506105726109a33660046186c4565b61487c565b61046f6109b6366004619e2d565b614916565b3480156109c757600080fd5b506109db6109d63660046186c4565b6149bc565b6040516104469493929190619eb4565b3480156109f757600080fd5b506104b1610a06366004618709565b614eb7565b348015610a1757600080fd5b506104b1610a263660046186c4565b614f16565b348015610a3757600080fd5b506104b1610a46366004619ef6565b614f89565b348015610a5757600080fd5b50610a6b610a663660046186c4565b61506b565b604051610446929190619f21565b348015610a8557600080fd5b50610a99610a94366004619f5d565b615168565b60408051600793840b81529190920b602082015201610446565b348015610abf57600080fd5b50610530610ace366004619fa4565b6151b9565b348015610adf57600080fd5b50610af3610aee366004619fe7565b615265565b6040516104469392919061a0bf565b348015610b0e57600080fd5b506104b1610b1d366004619cfc565b61534a565b348015610b2e57600080fd5b506104b1610b3d366004619cfc565b61537f565b61046f610b5036600461a11e565b6153cb565b348015610b6157600080fd5b506104b1610b70366004619c65565b615461565b348015610b8157600080fd5b506104b1610b9036600461a152565b6154a3565b348015610ba157600080fd5b506104b1610bb03660046186c4565b6154be565b348015610bc157600080fd5b50610572610bd0366004618709565b61550c565b348015610be157600080fd5b50610572610bf0366004619df3565b600080935093915050565b348015610c0757600080fd5b506104b1610c1636600461a18c565b61647a565b60607f885cb69240a935d632d79c317109709ecfa91a80626ff3989d68f67f5b1dd12d806000610c4f601c6018368461860d565b610c5891618637565b60e01c63ffffffff169050610c8660405180608001604052806043815260200161a6e260439139878361651c565b604051632b65311f60e11b81526001600160a01b038781166004830152600091908416906356ca623e90602401600060405180830381865afa158015610cd0573d6000803e3d6000fd5b505050506040513d6000823e601f3d908101601f19168201604052610cf8919081019061a1e8565b6040516371aad10d60e01b81526001600160a01b038516906371aad10d90610d24908a9060040161a230565b600060405180830381865afa158015610d41573d6000803e3d6000fd5b505050506040513d6000823e601f3d908101601f19168201604052610d69919081019061a1e8565b604051602001610d7a92919061a243565b60408051601f1981840301815282820190915260148252734a534f4e2d52504320726571756573743a20257360601b60208301529150610dba9082616568565b604051630240d91560e31b81526000906001600160a01b03851690631206c8a890610de990859060040161a2c1565b6000604051808303816000875af1158015610e08573d6000803e3d6000fd5b505050506040513d6000823e601f3d908101601f19168201604052610e30919081019061a1e8565b9050610e3b816165b1565b610e448161a2f3565b6002546040805191909217602082015201604051602081830303815290604052955050505050505b92915050565b6000610e6c826165f7565b6000806000610e8c858561665c565b9350905080610e9b5750610e9d565b505b9250929050565b6000610eae61667a565b6000610eba84846166e6565b9250905080610ec95750610e6c565b506001600160a01b038083166000908152600860209081526040808320938716835292905220805460ff1916905592915050565b6000610e6c61667a565b600080610f1633868686616737565b9150600782900b601614610f2c57506000610fb3565b610f346184ac565b610f3c6184cc565b868152600786900b602080830191909152600386900b90830152808252604051600090610f6890618583565b604051809103906000f080158015610f84573d6000803e3d6000fd5b506040519091506001600160a01b0382169060008051602061a72583398151915290600090a260169450925050505b935093915050565b6000610fc561667a565b33600080610fd688848989896169a5565b9095509250905080610fea57505050610ffb565b610ff78884898989616b27565b5050505b949350505050565b60008061100f83616b96565b90508061101d5760a7611020565b60165b60030b9150915091565b60006110346184cc565b600061103f84616bd7565b935090508061104e5750915091565b6001600160a01b03841660009081526004602052604090205460ff16156117b0576001600160a01b0384166000908152600360205260409081902081516102408101909252805482906101208201908390829082906110ac9061a317565b80601f01602080910402602001604051908101604052809291908181526020018280546110d89061a317565b80156111255780601f106110fa57610100808354040283529160200191611125565b820191906000526020600020905b81548152906001019060200180831161110857829003601f168201915b5050505050815260200160018201805461113e9061a317565b80601f016020809104026020016040519081016040528092919081815260200182805461116a9061a317565b80156111b75780601f1061118c576101008083540402835291602001916111b7565b820191906000526020600020905b81548152906001019060200180831161119a57829003601f168201915b505050918352505060028201546001600160a01b031660208201526003820180546040909201916111e79061a317565b80601f01602080910402602001604051908101604052809291908181526020018280546112139061a317565b80156112605780601f1061123557610100808354040283529160200191611260565b820191906000526020600020905b81548152906001019060200180831161124357829003601f168201915b5050509183525050600482015460ff8082161515602080850191909152610100830460070b604080860191909152600160481b90930490911615156060840152600584018054835181840281018401909452808452608090940193909160009084015b8282101561146c5760008481526020908190206040805180820182526005860290920180548352815160a08101835260018201805460ff81161515835261010090046001600160a01b0316828701526002830180549596939593870194929391928401916113309061a317565b80601f016020809104026020016040519081016040528092919081815260200182805461135c9061a317565b80156113a95780601f1061137e576101008083540402835291602001916113a9565b820191906000526020600020905b81548152906001019060200180831161138c57829003601f168201915b505050505081526020016002820180546113c29061a317565b80601f01602080910402602001604051908101604052809291908181526020018280546113ee9061a317565b801561143b5780601f106114105761010080835404028352916020019161143b565b820191906000526020600020905b81548152906001019060200180831161141e57829003601f168201915b5050509183525050600391909101546001600160a01b031660209182015291529183525060019290920191016112c3565b5050509082525060408051606080820183526006850154600781810b84526001600160a01b03600160401b928390041660208581019190915296810154810b848601529486019290925294865260088701549283900b8685015260ff9083048116151586830152600160481b83048116151594860194909452600160501b9091049092161515608084015260098401805483518184028101840190945280845260a090940193909160009084015b8282101561159d5760008481526020908190206040805160a081018252600286029092018054600781900b84526001600160a01b03600160401b820481168587015260ff600160e01b83048116151594860194909452600160e81b909104909216151560608401526001908101549091166080830152908352909201910161151a565b505050508152602001600a8201805480602002602001604051908101604052809291908181526020016000905b828210156116545760008481526020908190206040805160c081018252600286029092018054600781810b8552600160401b8204810b85870152600160801b8204810b93850193909352600160c01b900490910b606083015260019081015460ff81161515608084015261010090046001600160a01b031660a083015290835290920191016115ca565b505050508152602001600b8201805480602002602001604051908101604052809291908181526020016000905b8282101561170f5760008481526020908190206040805160c081018252600386029092018054600781810b8552600160401b8204810b85870152600160801b909104900b918301919091526001808201546001600160a01b038082166060860152600160a01b90910460ff161515608085015260029092015490911660a08301529083529092019101611681565b505050508152602001600c820180546117279061a317565b80601f01602080910402602001604051908101604052809291908181526020018280546117539061a317565b80156117a05780601f10611775576101008083540402835291602001916117a0565b820191906000526020600020905b81548152906001019060200180831161178357829003601f168201915b5050505050815250509150611eed565b6001600160a01b0384166000908152600560205260409081902081516102408101909252805482906101208201908390829082906117ed9061a317565b80601f01602080910402602001604051908101604052809291908181526020018280546118199061a317565b80156118665780601f1061183b57610100808354040283529160200191611866565b820191906000526020600020905b81548152906001019060200180831161184957829003601f168201915b5050505050815260200160018201805461187f9061a317565b80601f01602080910402602001604051908101604052809291908181526020018280546118ab9061a317565b80156118f85780601f106118cd576101008083540402835291602001916118f8565b820191906000526020600020905b8154815290600101906020018083116118db57829003601f168201915b505050918352505060028201546001600160a01b031660208201526003820180546040909201916119289061a317565b80601f01602080910402602001604051908101604052809291908181526020018280546119549061a317565b80156119a15780601f10611976576101008083540402835291602001916119a1565b820191906000526020600020905b81548152906001019060200180831161198457829003601f168201915b5050509183525050600482015460ff8082161515602080850191909152610100830460070b604080860191909152600160481b90930490911615156060840152600584018054835181840281018401909452808452608090940193909160009084015b82821015611bad5760008481526020908190206040805180820182526005860290920180548352815160a08101835260018201805460ff81161515835261010090046001600160a01b031682870152600283018054959693959387019492939192840191611a719061a317565b80601f0160208091040260200160405190810160405280929190818152602001828054611a9d9061a317565b8015611aea5780601f10611abf57610100808354040283529160200191611aea565b820191906000526020600020905b815481529060010190602001808311611acd57829003601f168201915b50505050508152602001600282018054611b039061a317565b80601f0160208091040260200160405190810160405280929190818152602001828054611b2f9061a317565b8015611b7c5780601f10611b5157610100808354040283529160200191611b7c565b820191906000526020600020905b815481529060010190602001808311611b5f57829003601f168201915b5050509183525050600391909101546001600160a01b03166020918201529152918352506001929092019101611a04565b5050509082525060408051606080820183526006850154600781810b84526001600160a01b03600160401b928390041660208581019190915296810154810b848601529486019290925294865260088701549283900b8685015260ff9083048116151586830152600160481b83048116151594860194909452600160501b9091049092161515608084015260098401805483518184028101840190945280845260a090940193909160009084015b82821015611cde5760008481526020908190206040805160a081018252600286029092018054600781900b84526001600160a01b03600160401b820481168587015260ff600160e01b83048116151594860194909452600160e81b9091049092161515606084015260019081015490911660808301529083529092019101611c5b565b505050508152602001600a8201805480602002602001604051908101604052809291908181526020016000905b82821015611d955760008481526020908190206040805160c081018252600286029092018054600781810b8552600160401b8204810b85870152600160801b8204810b93850193909352600160c01b900490910b606083015260019081015460ff81161515608084015261010090046001600160a01b031660a08301529083529092019101611d0b565b505050508152602001600b8201805480602002602001604051908101604052809291908181526020016000905b82821015611e505760008481526020908190206040805160c081018252600386029092018054600781810b8552600160401b8204810b85870152600160801b909104900b918301919091526001808201546001600160a01b038082166060860152600160a01b90910460ff161515608085015260029092015490911660a08301529083529092019101611dc2565b505050508152602001600c82018054611e689061a317565b80601f0160208091040260200160405190810160405280929190818152602001828054611e949061a317565b8015611ee15780601f10611eb657610100808354040283529160200191611ee1565b820191906000526020600020905b815481529060010190602001808311611ec457829003601f168201915b50505050508152505091505b50915091565b6000611efe33616b96565b611f235760405162461bcd60e51b8152600401611f1a9061a34b565b60405180910390fd5b336000611f3084836166e6565b935090508015611f68576001600160a01b038083166000908152600860209081526040808320938816835292905220805460ff191690555b5050919050565b6000611f7961858f565b6000611f8485616bf4565b9350905080611f935750610e9d565b6001600160a01b0385166000908152600560205260408082208151610240810190925280548290610120820190839082908290611fcf9061a317565b80601f0160208091040260200160405190810160405280929190818152602001828054611ffb9061a317565b80156120485780601f1061201d57610100808354040283529160200191612048565b820191906000526020600020905b81548152906001019060200180831161202b57829003601f168201915b505050505081526020016001820180546120619061a317565b80601f016020809104026020016040519081016040528092919081815260200182805461208d9061a317565b80156120da5780601f106120af576101008083540402835291602001916120da565b820191906000526020600020905b8154815290600101906020018083116120bd57829003601f168201915b505050918352505060028201546001600160a01b0316602082015260038201805460409092019161210a9061a317565b80601f01602080910402602001604051908101604052809291908181526020018280546121369061a317565b80156121835780601f1061215857610100808354040283529160200191612183565b820191906000526020600020905b81548152906001019060200180831161216657829003601f168201915b5050509183525050600482015460ff8082161515602080850191909152610100830460070b604080860191909152600160481b90930490911615156060840152600584018054835181840281018401909452808452608090940193909160009084015b8282101561238f5760008481526020908190206040805180820182526005860290920180548352815160a08101835260018201805460ff81161515835261010090046001600160a01b0316828701526002830180549596939593870194929391928401916122539061a317565b80601f016020809104026020016040519081016040528092919081815260200182805461227f9061a317565b80156122cc5780601f106122a1576101008083540402835291602001916122cc565b820191906000526020600020905b8154815290600101906020018083116122af57829003601f168201915b505050505081526020016002820180546122e59061a317565b80601f01602080910402602001604051908101604052809291908181526020018280546123119061a317565b801561235e5780601f106123335761010080835404028352916020019161235e565b820191906000526020600020905b81548152906001019060200180831161234157829003601f168201915b5050509183525050600391909101546001600160a01b031660209182015291529183525060019290920191016121e6565b5050509082525060408051606080820183526006850154600781810b84526001600160a01b03600160401b928390041660208581019190915296810154810b848601529486019290925294865260088701549283900b8685015260ff9083048116151586830152600160481b83048116151594860194909452600160501b9091049092161515608084015260098401805483518184028101840190945280845260a090940193909160009084015b828210156124c05760008481526020908190206040805160a081018252600286029092018054600781900b84526001600160a01b03600160401b820481168587015260ff600160e01b83048116151594860194909452600160e81b909104909216151560608401526001908101549091166080830152908352909201910161243d565b505050508152602001600a8201805480602002602001604051908101604052809291908181526020016000905b828210156125775760008481526020908190206040805160c081018252600286029092018054600781810b8552600160401b8204810b85870152600160801b8204810b93850193909352600160c01b900490910b606083015260019081015460ff81161515608084015261010090046001600160a01b031660a083015290835290920191016124ed565b505050508152602001600b8201805480602002602001604051908101604052809291908181526020016000905b828210156126325760008481526020908190206040805160c081018252600386029092018054600781810b8552600160401b8204810b85870152600160801b909104900b918301919091526001808201546001600160a01b038082166060860152600160a01b90910460ff161515608085015260029092015490911660a083015290835290920191016125a4565b505050508152602001600c8201805461264a9061a317565b80601f01602080910402602001604051908101604052809291908181526020018280546126769061a317565b80156126c35780601f10612698576101008083540402835291602001916126c3565b820191906000526020600020905b8154815290600101906020018083116126a657829003601f168201915b505050919092525050506001600160a01b03808816600090815260066020908152604080832060078b810b8552908352818420825160808101845281549687168152600160a01b90960490910b9285019290925260018201805495965092949192908401916127319061a317565b80601f016020809104026020016040519081016040528092919081815260200182805461275d9061a317565b80156127aa5780601f1061277f576101008083540402835291602001916127aa565b820191906000526020600020905b81548152906001019060200180831161278d57829003601f168201915b5050509183525050600291909101546001600160a01b03908116602092830152938652600788810b878301528251851660408089019190915291830151900b606080880191909152908201516080870152015190911660a084015250509250929050565b60008061281961667a565b61282533888888616737565b9150600782900b60161461283b575060006128d0565b6128436184ac565b61284b6184cc565b888152600788900b60208083019190915260a0820187905260c08201869052600388900b9083015280825260405160009061288590618583565b604051809103906000f0801580156128a1573d6000803e3d6000fd5b506040519091506001600160a01b0382169060008051602061a72583398151915290600090a260169450925050505b9550959350505050565b60006128e461667a565b83518351835181831480156128f857508083145b6129355760405162461bcd60e51b815260206004820152600e60248201526d554e455155414c5f41525241595360901b6044820152606401611f1a565b60008080805b868110156129d8578a81815181106129555761295561a375565b602002602001015193508981815181106129715761297161a375565b6020026020010151925088818151811061298d5761298d61a375565b602002602001015191506129a38c85858561440b565b9750600788900b6016146129d05760405163fbe0be3960e01b8152600789900b6004820152602401611f1a565b60010161293b565b50505050505050949350505050565b60006129f161667a565b60005b8251811015612a3c57612a2084848381518110612a1357612a1361a375565b60200260200101516142af565b9150600782900b601614612a345750610e6c565b6001016129f4565b5092915050565b6000806000612a5184616bd7565b9350905080612a605750915091565b6001600160a01b03841660009081526004602052604090205460ff1615612aae576001600160a01b038416600090815260036020526040902060080154600160481b900460ff169150611eed565b6001600160a01b03841660009081526005602052604090206008015460ff600160481b90910416915050915091565b6000612ae761667a565b336000612af686838787616c23565b9350905080612b06575050612b09565b50505b9392505050565b6000612b1a61667a565b6000612b263384616d05565b9250905080612b355750919050565b506001600160a01b0382166000908152600d60205260409020805461ffff191660011790555b919050565b6000612b6a6185ca565b6000612b7585616bd7565b9350905080612b845750610e9d565b506001600160a01b038085166000908152600b60209081526040808320878452825290912054909116908201529250929050565b6000612bc26184ac565b6000612bcd84616d43565b9350905080612bdc5750915091565b6001600160a01b038416600090815260036020526040908190208151610280810183528154909283919082019083908290610160850190839082908290612c229061a317565b80601f0160208091040260200160405190810160405280929190818152602001828054612c4e9061a317565b8015612c9b5780601f10612c7057610100808354040283529160200191612c9b565b820191906000526020600020905b815481529060010190602001808311612c7e57829003601f168201915b50505050508152602001600182018054612cb49061a317565b80601f0160208091040260200160405190810160405280929190818152602001828054612ce09061a317565b8015612d2d5780601f10612d0257610100808354040283529160200191612d2d565b820191906000526020600020905b815481529060010190602001808311612d1057829003601f168201915b505050918352505060028201546001600160a01b03166020820152600382018054604090920191612d5d9061a317565b80601f0160208091040260200160405190810160405280929190818152602001828054612d899061a317565b8015612dd65780601f10612dab57610100808354040283529160200191612dd6565b820191906000526020600020905b815481529060010190602001808311612db957829003601f168201915b5050509183525050600482015460ff8082161515602080850191909152610100830460070b604080860191909152600160481b90930490911615156060840152600584018054835181840281018401909452808452608090940193909160009084015b82821015612fe25760008481526020908190206040805180820182526005860290920180548352815160a08101835260018201805460ff81161515835261010090046001600160a01b031682870152600283018054959693959387019492939192840191612ea69061a317565b80601f0160208091040260200160405190810160405280929190818152602001828054612ed29061a317565b8015612f1f5780601f10612ef457610100808354040283529160200191612f1f565b820191906000526020600020905b815481529060010190602001808311612f0257829003601f168201915b50505050508152602001600282018054612f389061a317565b80601f0160208091040260200160405190810160405280929190818152602001828054612f649061a317565b8015612fb15780601f10612f8657610100808354040283529160200191612fb1565b820191906000526020600020905b815481529060010190602001808311612f9457829003601f168201915b5050509183525050600391909101546001600160a01b03166020918201529152918352506001929092019101612e39565b5050509082525060408051606080820183526006850154600781810b84526001600160a01b03600160401b928390041660208581019190915296810154810b848601529486019290925294865260088701549283900b8685015260ff9083048116151586830152600160481b83048116151594860194909452600160501b9091049092161515608084015260098401805483518184028101840190945280845260a090940193909160009084015b828210156131135760008481526020908190206040805160a081018252600286029092018054600781900b84526001600160a01b03600160401b820481168587015260ff600160e01b83048116151594860194909452600160e81b9091049092161515606084015260019081015490911660808301529083529092019101613090565b505050508152602001600a8201805480602002602001604051908101604052809291908181526020016000905b828210156131ca5760008481526020908190206040805160c081018252600286029092018054600781810b8552600160401b8204810b85870152600160801b8204810b93850193909352600160c01b900490910b606083015260019081015460ff81161515608084015261010090046001600160a01b031660a08301529083529092019101613140565b505050508152602001600b8201805480602002602001604051908101604052809291908181526020016000905b828210156132855760008481526020908190206040805160c081018252600386029092018054600781810b8552600160401b8204810b85870152600160801b909104900b918301919091526001808201546001600160a01b038082166060860152600160a01b90910460ff161515608085015260029092015490911660a083015290835290920191016131f7565b505050508152602001600c8201805461329d9061a317565b80601f01602080910402602001604051908101604052809291908181526020018280546132c99061a317565b80156133165780601f106132eb57610100808354040283529160200191613316565b820191906000526020600020905b8154815290600101906020018083116132f957829003601f168201915b505050919092525050508152600d919091015460030b60209091015292949293505050565b600080600161334a8585616d72565b93509050806133595750610e9d565b6001600160a01b038516600090815260046020908152604080832054600790925282205460ff918216929116908215613af0576001600160a01b03881660009081526003602052604080822081516102808101835281549092839190820190839082906101608501908390829082906133d19061a317565b80601f01602080910402602001604051908101604052809291908181526020018280546133fd9061a317565b801561344a5780601f1061341f5761010080835404028352916020019161344a565b820191906000526020600020905b81548152906001019060200180831161342d57829003601f168201915b505050505081526020016001820180546134639061a317565b80601f016020809104026020016040519081016040528092919081815260200182805461348f9061a317565b80156134dc5780601f106134b1576101008083540402835291602001916134dc565b820191906000526020600020905b8154815290600101906020018083116134bf57829003601f168201915b505050918352505060028201546001600160a01b0316602082015260038201805460409092019161350c9061a317565b80601f01602080910402602001604051908101604052809291908181526020018280546135389061a317565b80156135855780601f1061355a57610100808354040283529160200191613585565b820191906000526020600020905b81548152906001019060200180831161356857829003601f168201915b5050509183525050600482015460ff8082161515602080850191909152610100830460070b604080860191909152600160481b90930490911615156060840152600584018054835181840281018401909452808452608090940193909160009084015b828210156137915760008481526020908190206040805180820182526005860290920180548352815160a08101835260018201805460ff81161515835261010090046001600160a01b0316828701526002830180549596939593870194929391928401916136559061a317565b80601f01602080910402602001604051908101604052809291908181526020018280546136819061a317565b80156136ce5780601f106136a3576101008083540402835291602001916136ce565b820191906000526020600020905b8154815290600101906020018083116136b157829003601f168201915b505050505081526020016002820180546136e79061a317565b80601f01602080910402602001604051908101604052809291908181526020018280546137139061a317565b80156137605780601f1061373557610100808354040283529160200191613760565b820191906000526020600020905b81548152906001019060200180831161374357829003601f168201915b5050509183525050600391909101546001600160a01b031660209182015291529183525060019290920191016135e8565b5050509082525060408051606080820183526006850154600781810b84526001600160a01b03600160401b928390041660208581019190915296810154810b848601529486019290925294865260088701549283900b8685015260ff9083048116151586830152600160481b83048116151594860194909452600160501b9091049092161515608084015260098401805483518184028101840190945280845260a090940193909160009084015b828210156138c25760008481526020908190206040805160a081018252600286029092018054600781900b84526001600160a01b03600160401b820481168587015260ff600160e01b83048116151594860194909452600160e81b909104909216151560608401526001908101549091166080830152908352909201910161383f565b505050508152602001600a8201805480602002602001604051908101604052809291908181526020016000905b828210156139795760008481526020908190206040805160c081018252600286029092018054600781810b8552600160401b8204810b85870152600160801b8204810b93850193909352600160c01b900490910b606083015260019081015460ff81161515608084015261010090046001600160a01b031660a083015290835290920191016138ef565b505050508152602001600b8201805480602002602001604051908101604052809291908181526020016000905b82821015613a345760008481526020908190206040805160c081018252600386029092018054600781810b8552600160401b8204810b85870152600160801b909104900b918301919091526001808201546001600160a01b038082166060860152600160a01b90910460ff161515608085015260029092015490911660a083015290835290920191016139a6565b505050508152602001600c82018054613a4c9061a317565b80601f0160208091040260200160405190810160405280929190818152602001828054613a789061a317565b8015613ac55780601f10613a9a57610100808354040283529160200191613ac5565b820191906000526020600020905b815481529060010190602001808311613aa857829003601f168201915b505050919092525050508152600d919091015460030b602090910152515160c0015191506142349050565b6001600160a01b0388166000908152600560205260408082208151610240810190925280548290610120820190839082908290613b2c9061a317565b80601f0160208091040260200160405190810160405280929190818152602001828054613b589061a317565b8015613ba55780601f10613b7a57610100808354040283529160200191613ba5565b820191906000526020600020905b815481529060010190602001808311613b8857829003601f168201915b50505050508152602001600182018054613bbe9061a317565b80601f0160208091040260200160405190810160405280929190818152602001828054613bea9061a317565b8015613c375780601f10613c0c57610100808354040283529160200191613c37565b820191906000526020600020905b815481529060010190602001808311613c1a57829003601f168201915b505050918352505060028201546001600160a01b03166020820152600382018054604090920191613c679061a317565b80601f0160208091040260200160405190810160405280929190818152602001828054613c939061a317565b8015613ce05780601f10613cb557610100808354040283529160200191613ce0565b820191906000526020600020905b815481529060010190602001808311613cc357829003601f168201915b5050509183525050600482015460ff8082161515602080850191909152610100830460070b604080860191909152600160481b90930490911615156060840152600584018054835181840281018401909452808452608090940193909160009084015b82821015613eec5760008481526020908190206040805180820182526005860290920180548352815160a08101835260018201805460ff81161515835261010090046001600160a01b031682870152600283018054959693959387019492939192840191613db09061a317565b80601f0160208091040260200160405190810160405280929190818152602001828054613ddc9061a317565b8015613e295780601f10613dfe57610100808354040283529160200191613e29565b820191906000526020600020905b815481529060010190602001808311613e0c57829003601f168201915b50505050508152602001600282018054613e429061a317565b80601f0160208091040260200160405190810160405280929190818152602001828054613e6e9061a317565b8015613ebb5780601f10613e9057610100808354040283529160200191613ebb565b820191906000526020600020905b815481529060010190602001808311613e9e57829003601f168201915b5050509183525050600391909101546001600160a01b03166020918201529152918352506001929092019101613d43565b5050509082525060408051606080820183526006850154600781810b84526001600160a01b03600160401b928390041660208581019190915296810154810b848601529486019290925294865260088701549283900b8685015260ff9083048116151586830152600160481b83048116151594860194909452600160501b9091049092161515608084015260098401805483518184028101840190945280845260a090940193909160009084015b8282101561401d5760008481526020908190206040805160a081018252600286029092018054600781900b84526001600160a01b03600160401b820481168587015260ff600160e01b83048116151594860194909452600160e81b9091049092161515606084015260019081015490911660808301529083529092019101613f9a565b505050508152602001600a8201805480602002602001604051908101604052809291908181526020016000905b828210156140d45760008481526020908190206040805160c081018252600286029092018054600781810b8552600160401b8204810b85870152600160801b8204810b93850193909352600160c01b900490910b606083015260019081015460ff81161515608084015261010090046001600160a01b031660a0830152908352909201910161404a565b505050508152602001600b8201805480602002602001604051908101604052809291908181526020016000905b8282101561418f5760008481526020908190206040805160c081018252600386029092018054600781810b8552600160401b8204810b85870152600160801b909104900b918301919091526001808201546001600160a01b038082166060860152600160a01b90910460ff161515608085015260029092015490911660a08301529083529092019101614101565b505050508152602001600c820180546141a79061a317565b80601f01602080910402602001604051908101604052809291908181526020018280546141d39061a317565b80156142205780601f106141f557610100808354040283529160200191614220565b820191906000526020600020905b81548152906001019060200180831161420357829003601f168201915b505050919092525050905160c00151925050505b6001600160a01b038089166000908152600a60209081526040808320938b1683529281529082902082518084019093525460ff80821615158085526101009092041615159183019190915261429a578161428f5760006142a1565b8060200151156142a1565b8060200151155b955050505050509250929050565b60006142b961667a565b60006142c58484616d9f565b92509050806142d45750610e6c565b506001600160a01b038083166000908152600860209081526040808320938716835292905220805460ff1916600117905592915050565b600061431561667a565b6000614322338585616df7565b92509050806143315750610e6c565b506001600160a01b039283166000908152600a6020908152604080832094909516825292909252919020805461ffff191661010117905590565b600061437633616b96565b6143925760405162461bcd60e51b8152600401611f1a9061a34b565b3360006143a182878787616c23565b979650505050505050565b60006143b661667a565b60006143c3338585616df7565b92509050806143d25750610e6c565b506001600160a01b039283166000908152600a6020908152604080832094909516825292909252919020805461ffff1916600117905590565b600061441561667a565b336001600160401b03831660008061443089858a8a876169a5565b90965092509050806144455750505050610ffb565b61445289858a8a87616b27565b50505050949350505050565b600061446861667a565b6000614475338585616e43565b92509050806144845750610e6c565b6001600160a01b03841660009081526004602052604090205460ff16156144af576144af8484616e7c565b6001600160a01b03841660009081526007602052604090205460ff1615612a3c57612a3c8484616fbc565b60006144e461667a565b33838360006144f5888585856170f7565b95509050806145075750505050612b09565b61451388858589617196565b505050509392505050565b600061452861667a565b60005b8251811015612a3c5760006145598585848151811061454c5761454c61a375565b6020026020010151610ea4565b9050600781900b601614614570579150610e6c9050565b5060010161452b565b600061458361667a565b600061458f3384616d05565b925090508061459e5750919050565b506001600160a01b03919091166000908152600d60205260409020805461ffff191661010117905590565b60006145d361667a565b60006145e0338585616e43565b92509050806145ef5750610e6c565b6001600160a01b03841660009081526004602052604090205460ff161561461a5761461a84846171f9565b6001600160a01b03841660009081526007602052604090205460ff1615612a3c57612a3c848461731a565b600061464f61667a565b825182518082146146935760405162461bcd60e51b815260206004820152600e60248201526d554e455155414c5f41525241595360901b6044820152606401611f1a565b33600080805b8581101561471a578881815181106146b3576146b361a375565b602002602001015192508781815181106146cf576146cf61a375565b602002602001015191506146e58a858585615461565b9650600787900b6016146147125760405163fbe0be3960e01b8152600788900b6004820152602401611f1a565b600101614699565b5050505050509392505050565b60008061473533858561743c565b92509050806147445750610e6c565b506001600160a01b03928316600090815260096020908152604080832094909516825292909252919020805461ffff191661010117905590565b600080600061478e868686617469565b935090508061479d5750610fb3565b604051636eb1769f60e11b81526001600160a01b038681166004830152858116602483015287169063dd62ed3e90604401602060405180830381865afa1580156147eb573d6000803e3d6000fd5b505050506040513d601f19601f8201168201806040525081019061480f919061a38b565b915050935093915050565b600080600061482884616bd7565b93509050806148375750915091565b6001600160a01b03841660009081526004602090815260408083205460079092529091205460ff91821691168161486f576001614872565b60005b9350505050915091565b600080600061488a84616bd7565b93509050806148995750915091565b6001600160a01b03841660009081526004602052604090205460ff16156148e7576001600160a01b038416600090815260036020526040902060040154600160481b900460ff169150611eed565b6001600160a01b03841660009081526005602052604090206004015460ff600160481b90910416915050915091565b60008061492161667a565b61492e3386600080616737565b9150600782900b60161461494457506000610fb3565b61494c6184cc565b85815260a0810185905260e0810184905260405160009061496c90618583565b604051809103906000f080158015614988573d6000803e3d6000fd5b506040519091506001600160a01b0382169060008051602061a72583398151915290600090a2601697909650945050505050565b6000606080606060006149ce86616bd7565b95509050806149dd5750614eb0565b6001600160a01b03861660009081526004602052604090205460ff1615614c58576001600160a01b038616600090815260036020908152604080832060090180548251818502810185019093528083529193909284015b82821015614ab75760008481526020908190206040805160a081018252600286029092018054600781900b84526001600160a01b03600160401b820481168587015260ff600160e01b83048116151594860194909452600160e81b9091049092161515606084015260019081015490911660808301529083529092019101614a34565b5050506001600160a01b0388166000908152600360209081526040808320600a0180548251818502810185019093528083529599509094909350919084015b82821015614b805760008481526020908190206040805160c081018252600286029092018054600781810b8552600160401b8204810b85870152600160801b8204810b93850193909352600160c01b900490910b606083015260019081015460ff81161515608084015261010090046001600160a01b031660a08301529083529092019101614af6565b5050506001600160a01b0388166000908152600360209081526040808320600b0180548251818502810185019093528083529598509094909350919084015b82821015614c4d5760008481526020908190206040805160c081018252600386029092018054600781810b8552600160401b8204810b85870152600160801b909104900b918301919091526001808201546001600160a01b038082166060860152600160a01b90910460ff161515608085015260029092015490911660a08301529083529092019101614bbf565b505050509150614eae565b6001600160a01b038616600090815260056020908152604080832060090180548251818502810185019093528083529193909284015b82821015614d115760008481526020908190206040805160a081018252600286029092018054600781900b84526001600160a01b03600160401b820481168587015260ff600160e01b83048116151594860194909452600160e81b9091049092161515606084015260019081015490911660808301529083529092019101614c8e565b5050506001600160a01b0388166000908152600560209081526040808320600a0180548251818502810185019093528083529599509094909350919084015b82821015614dda5760008481526020908190206040805160c081018252600286029092018054600781810b8552600160401b8204810b85870152600160801b8204810b93850193909352600160c01b900490910b606083015260019081015460ff81161515608084015261010090046001600160a01b031660a08301529083529092019101614d50565b5050506001600160a01b0388166000908152600560209081526040808320600b0180548251818502810185019093528083529598509094909350919084015b82821015614ea75760008481526020908190206040805160c081018252600386029092018054600781810b8552600160401b8204810b85870152600160801b909104900b918301919091526001808201546001600160a01b038082166060860152600160a01b90910460ff161515608085015260029092015490911660a08301529083529092019101614e19565b5050505091505b505b9193509193565b6000614ec161667a565b6000614ece33858561743c565b9250905080614edd5750610e6c565b506001600160a01b03928316600090815260096020908152604080832094909516825292909252919020805461ffff1916600117905590565b6000614f2133616b96565b614f3d5760405162461bcd60e51b8152600401611f1a9061a34b565b336000614f4a8483616d9f565b935090508015611f68576001600160a01b038281166000908152600860209081526040808320938816835292905220805460ff19166001179055611f68565b6000614f9361667a565b6000614fa0338585616e43565b9250905080614faf5750610e6c565b6001600160a01b03841660009081526004602052604090205460ff16156150405782516001600160a01b0385811660009081526003602090815260409182902060068101805492890151909416600160401b026001600160e01b03199092166001600160401b039586161791909117909255850151600790910180549190921667ffffffffffffffff199091161790555b6001600160a01b03841660009081526007602052604090205460ff1615612a3c57612a3c848461747c565b60408051606081018252600080825260208201819052918101829052600061509284616bd7565b93509050806150a15750915091565b6001600160a01b03841660009081526004602052604090205460ff1615615116576001600160a01b0380851660009081526003602090815260409182902082516060810184526006820154600781810b8352600160401b9091049095169281019290925283015490920b908201529150611eed565b50506001600160a01b0391821660009081526005602090815260409182902082516060810184526006820154600781810b8352600160401b9091049096169281019290925284015490930b9083015291565b60008061517361667a565b60006151808686866174f2565b9350905080615193575060009050610fb3565b6001600160a01b03861660005260076020526151b0868686617564565b50935093915050565b6001600160a01b0382163014156000816151d45760166151e5565b6151e5848460000151600080616737565b9050600781900b60161461522d5760405162461bcd60e51b815260206004820152600f60248201526e14149150d21150d2d7d19052531151608a1b6044820152606401611f1a565b336000818152600760205260408120805460ff19166001179055615250856175fc565b905061525c81836142af565b50505050505050565b600080606061527261667a565b600061527f878787617646565b94509050806152a257505060408051600080825260208201909252909150615341565b6001600160a01b03871660009081526004602052604081205460ff16156152c65750855b6001600160a01b03881660009081526007602052604090205460ff16156153335760408051600180825281830190925290602080830190803683370190505092506000808460008151811061531d5761531d61a375565b60079290920b6020928302919091019091015290505b61533e888288617673565b50505b93509350939050565b600061535461667a565b336000615363868387876170f7565b9350905080615373575050612b09565b612b0686838787617196565b600061538a33616b96565b6153a65760405162461bcd60e51b8152600401611f1a9061a34b565b3360006153b5828787876170f7565b935090508015612b0657612b0682878787617196565b6000806153d661667a565b6153e33384600080616737565b9150600782900b6016146153f957506000915091565b6154016184cc565b83815260405160009061541390618583565b604051809103906000f08015801561542f573d6000803e3d6000fd5b506040519091506001600160a01b0382169060008051602061a72583398151915290600090a260169350915050915091565b600061546b61667a565b336000600784900b8161548189858a8a866169a5565b90965093509050806154965750505050610ffb565b61445289858a8a86616b27565b60006154ad61667a565b60606000612af63387878786617767565b60006154c861667a565b60006154d433846177de565b92509050806154e35750919050565b506001600160a01b0382166000908152600c60205260409020805460ff19166001179055919050565b600080600061551b858561781c565b935090508061552a5750610e9d565b6001600160a01b038516600090815260046020908152604080832054600790925282205460ff918216929116908215615cc0576001600160a01b03881660009081526003602052604080822081516102808101835281549092839190820190839082906101608501908390829082906155a29061a317565b80601f01602080910402602001604051908101604052809291908181526020018280546155ce9061a317565b801561561b5780601f106155f05761010080835404028352916020019161561b565b820191906000526020600020905b8154815290600101906020018083116155fe57829003601f168201915b505050505081526020016001820180546156349061a317565b80601f01602080910402602001604051908101604052809291908181526020018280546156609061a317565b80156156ad5780601f10615682576101008083540402835291602001916156ad565b820191906000526020600020905b81548152906001019060200180831161569057829003601f168201915b505050918352505060028201546001600160a01b031660208201526003820180546040909201916156dd9061a317565b80601f01602080910402602001604051908101604052809291908181526020018280546157099061a317565b80156157565780601f1061572b57610100808354040283529160200191615756565b820191906000526020600020905b81548152906001019060200180831161573957829003601f168201915b5050509183525050600482015460ff8082161515602080850191909152610100830460070b604080860191909152600160481b90930490911615156060840152600584018054835181840281018401909452808452608090940193909160009084015b828210156159625760008481526020908190206040805180820182526005860290920180548352815160a08101835260018201805460ff81161515835261010090046001600160a01b0316828701526002830180549596939593870194929391928401916158269061a317565b80601f01602080910402602001604051908101604052809291908181526020018280546158529061a317565b801561589f5780601f106158745761010080835404028352916020019161589f565b820191906000526020600020905b81548152906001019060200180831161588257829003601f168201915b505050505081526020016002820180546158b89061a317565b80601f01602080910402602001604051908101604052809291908181526020018280546158e49061a317565b80156159315780601f1061590657610100808354040283529160200191615931565b820191906000526020600020905b81548152906001019060200180831161591457829003601f168201915b5050509183525050600391909101546001600160a01b031660209182015291529183525060019290920191016157b9565b5050509082525060408051606080820183526006850154600781810b84526001600160a01b03600160401b928390041660208581019190915296810154810b848601529486019290925294865260088701549283900b8685015260ff9083048116151586830152600160481b83048116151594860194909452600160501b9091049092161515608084015260098401805483518184028101840190945280845260a090940193909160009084015b82821015615a935760008481526020908190206040805160a081018252600286029092018054600781900b84526001600160a01b03600160401b820481168587015260ff600160e01b83048116151594860194909452600160e81b9091049092161515606084015260019081015490911660808301529083529092019101615a10565b505050508152602001600a8201805480602002602001604051908101604052809291908181526020016000905b82821015615b4a5760008481526020908190206040805160c081018252600286029092018054600781810b8552600160401b8204810b85870152600160801b8204810b93850193909352600160c01b900490910b606083015260019081015460ff81161515608084015261010090046001600160a01b031660a08301529083529092019101615ac0565b505050508152602001600b8201805480602002602001604051908101604052809291908181526020016000905b82821015615c055760008481526020908190206040805160c081018252600386029092018054600781810b8552600160401b8204810b85870152600160801b909104900b918301919091526001808201546001600160a01b038082166060860152600160a01b90910460ff161515608085015260029092015490911660a08301529083529092019101615b77565b505050508152602001600c82018054615c1d9061a317565b80601f0160208091040260200160405190810160405280929190818152602001828054615c499061a317565b8015615c965780601f10615c6b57610100808354040283529160200191615c96565b820191906000526020600020905b815481529060010190602001808311615c7957829003601f168201915b505050919092525050508152600d919091015460030b602090910152516060015191506164029050565b6001600160a01b0388166000908152600560205260408082208151610240810190925280548290610120820190839082908290615cfc9061a317565b80601f0160208091040260200160405190810160405280929190818152602001828054615d289061a317565b8015615d755780601f10615d4a57610100808354040283529160200191615d75565b820191906000526020600020905b815481529060010190602001808311615d5857829003601f168201915b50505050508152602001600182018054615d8e9061a317565b80601f0160208091040260200160405190810160405280929190818152602001828054615dba9061a317565b8015615e075780601f10615ddc57610100808354040283529160200191615e07565b820191906000526020600020905b815481529060010190602001808311615dea57829003601f168201915b505050918352505060028201546001600160a01b03166020820152600382018054604090920191615e379061a317565b80601f0160208091040260200160405190810160405280929190818152602001828054615e639061a317565b8015615eb05780601f10615e8557610100808354040283529160200191615eb0565b820191906000526020600020905b815481529060010190602001808311615e9357829003601f168201915b5050509183525050600482015460ff8082161515602080850191909152610100830460070b604080860191909152600160481b90930490911615156060840152600584018054835181840281018401909452808452608090940193909160009084015b828210156160bc5760008481526020908190206040805180820182526005860290920180548352815160a08101835260018201805460ff81161515835261010090046001600160a01b031682870152600283018054959693959387019492939192840191615f809061a317565b80601f0160208091040260200160405190810160405280929190818152602001828054615fac9061a317565b8015615ff95780601f10615fce57610100808354040283529160200191615ff9565b820191906000526020600020905b815481529060010190602001808311615fdc57829003601f168201915b505050505081526020016002820180546160129061a317565b80601f016020809104026020016040519081016040528092919081815260200182805461603e9061a317565b801561608b5780601f106160605761010080835404028352916020019161608b565b820191906000526020600020905b81548152906001019060200180831161606e57829003601f168201915b5050509183525050600391909101546001600160a01b03166020918201529152918352506001929092019101615f13565b5050509082525060408051606080820183526006850154600781810b84526001600160a01b03600160401b928390041660208581019190915296810154810b848601529486019290925294865260088701549283900b8685015260ff9083048116151586830152600160481b83048116151594860194909452600160501b9091049092161515608084015260098401805483518184028101840190945280845260a090940193909160009084015b828210156161ed5760008481526020908190206040805160a081018252600286029092018054600781900b84526001600160a01b03600160401b820481168587015260ff600160e01b83048116151594860194909452600160e81b909104909216151560608401526001908101549091166080830152908352909201910161616a565b505050508152602001600a8201805480602002602001604051908101604052809291908181526020016000905b828210156162a45760008481526020908190206040805160c081018252600286029092018054600781810b8552600160401b8204810b85870152600160801b8204810b93850193909352600160c01b900490910b606083015260019081015460ff81161515608084015261010090046001600160a01b031660a0830152908352909201910161621a565b505050508152602001600b8201805480602002602001604051908101604052809291908181526020016000905b8282101561635f5760008481526020908190206040805160c081018252600386029092018054600781810b8552600160401b8204810b85870152600160801b909104900b918301919091526001808201546001600160a01b038082166060860152600160a01b90910460ff161515608085015260029092015490911660a083015290835290920191016162d1565b505050508152602001600c820180546163779061a317565b80601f01602080910402602001604051908101604052809291908181526020018280546163a39061a317565b80156163f05780601f106163c5576101008083540402835291602001916163f0565b820191906000526020600020905b8154815290600101906020018083116163d357829003601f168201915b50505091909252505050606001519150505b6001600160a01b038089166000908152600960209081526040808320938b1683529281529082902082518084019093525460ff808216151580855261010090920416151591830191909152616467578161645d5760016142a1565b80602001516142a1565b8060200151955050505050509250929050565b600061648461667a565b6000616494338686600087617767565b92509050806164a35750612b09565b8251600090815b81811015614513578581815181106164c4576164c461a375565b6020908102919091018101516001600160a01b038a166000908152600683526040808220600784900b83529093529190912080546001600160a01b0319908116825560029091018054909116905592506001016164aa565b6165638383836040516024016165349392919061a3a4565b60408051601f198184030181529190526020810180516001600160e01b03166307c8121760e01b179052617849565b505050565b6165ad828260405160240161657e92919061a3d2565b60408051601f198184030181529190526020810180516001600160e01b0316634b5c427760e01b179052617849565b5050565b6165f4816040516024016165c5919061a230565b60408051601f198184030181529190526020810180516001600160e01b03166305f3bfab60e11b179052617849565b50565b6001600160a01b03811660009081526004602052604081205460ff161561663a57506001600160a01b039081166000908152600360205260409020600201541690565b506001600160a01b039081166000908152600560205260409020600201541690565b6001600061666f84600c60046007617852565b909590945092505050565b306001600160a01b037f000000000000000000000000000000000000000000000000000000000000000016146166e45760405162461bcd60e51b815260206004820152600f60248201526e1393d7d111531151d0551150d05313608a1b6044820152606401611f1a565b565b600160006166f983600c60046007617852565b90925090508161670a578181616716565b616716838560086178e5565b90925090508161672757818161666f565b61666f838560086004600761792e565b60008084604001516001600160a01b0316866001600160a01b0316149050600061676e8660e0015161676960006179a1565b6179c0565b60208101519091506001600160a01b0316156167ad5780602001516001600160a01b0316876001600160a01b0316146167ad5750609b9150610ffb9050565b60005b8660e00151518110156168d95760008760e0015182815181106167d5576167d561a375565b6020026020010151905060006001600160a01b03168160200151602001516001600160a01b0316146168d057600061681e8260200151602001516001600160a01b031631151590565b9050806168ce57815160010361683d5750609b9450610ffb9350505050565b8151600203616855575060ba9450610ffb9350505050565b815160040361686d575060bc9450610ffb9350505050565b8151600803616885575060bb9450610ffb9350505050565b815160100361689d575060bd9450610ffb9350505050565b81516020036168b5575060f79450610ffb9350505050565b81516040036168ce575061010b9450610ffb9350505050565b505b506001016167b0565b50816168eb575060659150610ffb9050565b60008460030b1280616900575060128460030b135b15616911575060a89150610ffb9050565b60008560070b1215616929575060a99150610ffb9050565b855151600061693a88602001515190565b905081600003616952575060be9350610ffb92505050565b6064821115616969575060bf9350610ffb92505050565b8060000361697f575060ae9350610ffb92505050565b6064811115616996575060af9350610ffb92505050565b50601698975050505050505050565b60016000806169b988600c60046007617852565b9093509150826169ca5782826169d6565b6169d6888760086178e5565b9093509150826169e75782826169f3565b6169f3888660086178e5565b909350915082616a04578282616a0e565b616a0e8888617a1a565b909350915082616a1f578282616a29565b616a298887617a1a565b909350915082616a3a578282616a44565b616a448886617a1a565b909350915082616a55578282616a5f565b616a5f8888617a43565b909350915082616a70578282616a7a565b616a7a8887617a43565b909350915082616a8b578282616a95565b616a958886617a43565b90935091506001600160a01b03871615616ab7876001600160a01b0316331490565b80616abf5750805b915083616acd578383616adf565b616adf89888788600460076006617a78565b90945092508180616aee575083155b15616af95750616b1c565b83616b05578383616b15565b616b158989898860046007617aea565b9094509250505b955095509592505050565b6001600160a01b03851660009081526007602052604090205460ff1615616b8f576001600160a01b038581166000908152600660209081526040808320600786900b8452909152902080549184166001600160a01b0319928316178155600201805490911690555b5050505050565b6001600160a01b03811660009081526004602052604081205460ff1680610e6c5750506001600160a01b031660009081526007602052604090205460ff1690565b60016000616bea83600c60046007617852565b9094909350915050565b60016000616c0783600c60046007617852565b909250905081616c18578181616bea565b616bea836007617b6a565b60016000616c3686600c60046007617852565b909250905081616c47578181616c53565b616c53868660086178e5565b909250905081616c64578181616c70565b616c70868560086178e5565b909250905081616c81578181616c8b565b616c8b8686617a1a565b909250905081616c9c578181616ca6565b616ca68685617a1a565b909250905081616cb7578181616cc1565b616cc18686617a43565b909250905081616cd2578181616cdc565b616cdc8685617a43565b909250905081616ced578181616cf8565b616cf8866007617b6a565b9097909650945050505050565b60016000616d1883600c60046007617852565b9092509050600080616d2985617ba5565b9150915083616d39578383616cf8565b616cf88282617bd0565b60016000616d5683600c60046007617852565b909250905081616d67578181616bea565b616bea836004617b6a565b60016000616d8584600c60046007617852565b909250905081616d9657818161666f565b61666f84617bf8565b60016000616db283600c60046007617852565b90925090508115610e9d576001600160a01b0380841660009081526008602090815260408083209388168352929052205460ff1615610e9d57506000905060c2610e9d565b60016000616e0a84600c60046007617852565b9092509050600080616e1b86617c15565b9150915083616e2b578383616e35565b616e358282617c25565b909890975095505050505050565b60016000616e5684600c60046007617852565b909250905081616e67578181616e70565b616e7084617c4b565b90969095509350505050565b805160005b81811015616fb6576000838281518110616e9d57616e9d61a375565b6020908102919091018101516001600160a01b03808816600090815260038452604080822060059081018054600181810183559185529387902086519490920290910192835584860151805191840180549782015190951661010002610100600160a81b0319921515929092166001600160a81b031990971696909617178355840151929450849390929091906002840190616f39908261a43e565b5060608201516002820190616f4e908261a43e565b5060809190910151600390910180546001600160a01b039283166001600160a01b0319918216179091556020808601518101518a84166000908152600b8352604080822098518252979092529590208054959092169416939093179092555050600101616e81565b50505050565b805160005b81811015616fb6576000838281518110616fdd57616fdd61a375565b6020908102919091018101516001600160a01b0380881660009081526005808552604080832082018054600181810183559185529387902086519490930290920192835584860151805192840180549782015190951661010002610100600160a81b0319931515939093166001600160a81b03199097169690961791909117835584015192945084939092909190600284019061707a908261a43e565b506060820151600282019061708f908261a43e565b5060809190910151600390910180546001600160a01b039283166001600160a01b0319918216179091556020808601518101518a84166000908152600b8352604080822098518252979092529590208054959092169416939093179092555050600101616fc1565b600160006171058686617a1a565b909250905081617116578181617120565b6171208685617a1a565b90925090508161713157818161713b565b61713b8686617a43565b90925090508161714c578181617156565b6171568685617a43565b909250905081617167578181617176565b61717686600c60046007617852565b909250905081617187578181616cf8565b616cf886868560076006617c68565b6001600160a01b03841660009081526007602052604090205460ff1615616fb6576001600160a01b03938416600090815260066020908152604080832060079490940b83529290522060020180546001600160a01b031916919093161790915550565b80516001600160a01b03831660009081526003602052604090209061721e908261a43e565b506020808201516001600160a01b0384166000908152600390925260409091206001019061724c908261a43e565b506040818101516001600160a01b038481166000908152600360208190529390206002810180546001600160a01b0319169290931691909117909155606083015191019061729a908261a43e565b5060808101516001600160a01b039092166000908152600360205260409020600401805460a083015160c0909301511515600160481b0260ff60481b196001600160401b039094166101000268ffffffffffffffff00199515159590951668ffffffffffffffffff19909216919091179390931791909116919091179055565b80516001600160a01b03831660009081526005602052604090209061733f908261a43e565b506020808201516001600160a01b0384166000908152600590925260409091206001019061736d908261a43e565b506040818101516001600160a01b0384811660009081526005602052929092206002810180546001600160a01b0319169390921692909217905560608201516003909101906173bc908261a43e565b5060808101516001600160a01b039092166000908152600560205260409020600401805460a083015160c0909301511515600160481b0260ff60481b196001600160401b039094166101000268ffffffffffffffff00199515159590951668ffffffffffffffffff19909216919091179390931791909116919091179055565b6001600061744f84600c60046007617852565b909250905081617460578181616e70565b616e7084617db7565b60016000616e7085600c60046007617852565b80516001600160a01b0392831660009081526005602090815260409182902060068101805492860151909616600160401b026001600160e01b03199092166001600160401b03948516179190911790945590910151600790920180549290911667ffffffffffffffff1992909216919091179055565b6001600061750585600c60046007617852565b90925090508161751657818161751f565b61751f85617dd4565b909250905081617530578181616e70565b616e708561753d876165f7565b86866000815181106175515761755161a375565b6020026020010151600460076006617df1565b6001600160a01b03831660009081526007602052604090205460ff16156165635780516000908181156175f4578381815181106175a3576175a361a375565b6020908102919091018101516001600160a01b0388166000908152600683526040808220600784900b83529093529190912080546001600160a01b0319908116825560029091018054909116905592505b505050505050565b8051604081015190339061761190829061731a565b61762381846000015160e00151616fbc565b617636818460000151610100015161747c565b6176408184617e23565b50919050565b6001600061765985600c60046007617852565b90925090508161766a578181616e70565b616e7085617eca565b6001600160a01b03831660009081526007602052604090205460ff16156165635760405180608001604052806176a8856165f7565b6001600160a01b031681526020014260070b81526020016176c883617ee7565b8152600060209182018190526001600160a01b038681168252600683526040808320600788900b845284529182902084518154948601516001600160401b0316600160a01b026001600160e01b03199095169216919091179290921782558201516001820190617738908261a43e565b5060609190910151600290910180546001600160a01b0319166001600160a01b03909216919091179055505050565b6001600061777a86600c60046007617852565b90925090508161778b57818161779a565b61779a86600460078787618027565b9092509050816177ab5781816177b4565b6177b48661809f565b9092509050816177c5578181616e35565b616e35868686866000815181106175515761755161a375565b600160006177f183600c60046007617852565b9092509050600080617802856180bc565b9150915083617812578383616cf8565b616cf882826180cc565b6001600061782f84600c60046007617852565b90925090508161784057818161666f565b61666f84617db7565b6165f4816180f2565b6001600160a01b038416600090815260208490526040812054819060ff161561788157506000905060b36178dc565b6001600160a01b03861660009081526020859052604090205460ff161580156178c357506001600160a01b03861660009081526020849052604090205460ff16155b156178d457506000905060a76178dc565b506001905060165b94509492505050565b6001600160a01b03808416600090815260208381526040808320938616835292905290812054819060ff1661792057506000905060b8610fb3565b506001946016945092505050565b6001600160a01b038516600090815260208390526040812054819060ff16156179655761795c878786618113565b915091506128d0565b6001600160a01b03871660009081526020849052604090205460ff16156179915761795c878785618113565b5060019660169650945050505050565b60008160068111156179b5576179b561a4fc565b610e6c90600261a607565b6179c86185ca565b825160005b81811015617a125760008582815181106179e9576179e961a375565b6020026020010151905084816000015103617a0957602001519250617a12565b506001016179cd565b505092915050565b6000806000617a29858561550c565b9092509050617a3882826181bd565b9250616e70836181d2565b6000806000617a52858561333b565b9092509050617a6182826181f2565b925082617a6f578282616e70565b616e708361820e565b6001600160a01b038716600090815260208490526040812054819060ff1615617ab057617aa789898988618222565b91509150617ade565b6001600160a01b03891660009081526020859052604090205460ff1615617ade57617aa78989888787617c68565b97509795505050505050565b6001600160a01b038616600090815260208390526040812054819060ff1615617b2357617b1a88888888886182ea565b91509150617b5f565b6001600160a01b03881660009081526020849052604090205460ff1615617b5f576001600160a01b038816600052602083905260016016617b1a565b965096945050505050565b6001600160a01b038216600090815260208290526040812054819060ff16617b9857506000905060a7610e9d565b5060019360169350915050565b6000806000617bb584600661839c565b6001600160a01b038116801593509091503314925050915091565b6000808215617be657506000905061010a610e9d565b83617b9857506000905061010b610e9d565b600080600080617c0785617c15565b91509150616e708282617c25565b6000806000617bb584600261839c565b6000808215617c3a57506000905060ac610e9d565b83617b9857506000905060bc610e9d565b600080600080617c5a856180bc565b91509150616e7082826180cc565b6001600160a01b038516600090815260208390526040812054819060ff1615617991576001600160a01b0380881660009081526020858152604080832060078a810b8552908352818420825160808101845281549687168152600160a01b90960490910b928501929092526001820180548a95939284019190617cea9061a317565b80601f0160208091040260200160405190810160405280929190818152602001828054617d169061a317565b8015617d635780601f10617d3857610100808354040283529160200191617d63565b820191906000526020600020905b815481529060010190602001808311617d4657829003601f168201915b5050509183525050600291909101546001600160a01b039081166020909201919091528151919250898116911614617da557506000925060ed91506128d09050565b50600198601698509650505050505050565b600080600080617dc6856183d6565b91509150616e7082826183e6565b600080600080617de38561840c565b91509150616e70828261841a565b6000806001600160401b03808816908716617e118b8b84848b8b8b617a78565b93509350505097509795505050505050565b6020808201516001600160a01b0384166000908152600590925260409182902060088101805493850151606086015160808701511515600160501b0260ff60501b19911515600160481b02919091166affff00000000000000000019921515600160401b0268ffffffffffffffffff199097166001600160401b0390961695909517959095171692909217929092179055610100820151600c90910190616563908261a43e565b600080600080617ed985618440565b91509150616e708282618450565b60606000805b8351811015617f2657838181518110617f0857617f0861a375565b60200260200101515182617f1c919061a613565b9150600101617eed565b506000816001600160401b03811115617f4157617f4161873c565b6040519080825280601f01601f191660200182016040528015617f6b576020820181803683370190505b5090506000805b855181101561801d5760005b868281518110617f9057617f9061a375565b60200260200101515181101561801457868281518110617fb257617fb261a375565b60200260200101518181518110617fcb57617fcb61a375565b602001015160f81c60f81b848481518110617fe857617fe861a375565b60200101906001600160f81b031916908160001a905350826180098161a626565b935050600101617f7e565b50600101617f72565b5090949350505050565b6001600160a01b038516600090815260208590526040812054819060ff168015618052575060008351115b1561806357506000905060a76128d0565b6001600160a01b03871660009081526020869052604090205460ff16801561808e575060008460070b135b1561799157506000905060a76128d0565b6000806000806180ae85618476565b91509150616e708282618486565b6000806000617bb584600061839c565b60008082156180e157506000905060c1610e9d565b83617b98575060009050609b610e9d565b80516a636f6e736f6c652e6c6f67602083016000808483855afa5050505050565b6001600160a01b038316600090815260208290526040812054819060ff1615617920576040516370a0823160e01b81526001600160a01b03858116600483015286916000918316906370a0823190602401602060405180830381865afa158015618181573d6000803e3d6000fd5b505050506040513d601f19601f820116820180604052508101906181a5919061a38b565b1590508061799157506000925060c39150610fb39050565b6000600783900b601614617640576001612b09565b600080826181e6575060009260b092509050565b50600192601692509050565b6000600783900b601614618207576001612b09565b5015919050565b600080826181e6575060009260a592509050565b6001600160a01b038416600090815260208290526040812054819060ff16156178d4576040516370a0823160e01b81526001600160a01b03868116600483015287916000916001600160401b03881691908416906370a0823190602401602060405180830381865afa15801561829c573d6000803e3d6000fd5b505050506040513d601f19601f820116820180604052508101906182c0919061a38b565b10159050806182d957506000925060b291506178dc9050565b506001976016975095505050505050565b6001600160a01b038516600090815260208290526040812054819060ff161561799157604051636eb1769f60e11b81526001600160a01b03868116600483015287811660248301526000919089169063dd62ed3e90604401602060405180830381865afa15801561835f573d6000803e3d6000fd5b505050506040513d601f19601f82011682018060405250810190618383919061a38b565b9050848110156182d957506000915061012590506128d0565b6000806183a8836179a1565b6001600160a01b039485166000908152600b6020908152604080832093835292905220549093169392505050565b6000806000617bb584600161839c565b60008082156183fb57506000905060b1610e9d565b83617b9857506000905060ba610e9d565b6000806000617bb5846165f7565b600080821561842f5750600090506065610e9d565b83617b985750600090506065610e9d565b6000806000617bb584600461839c565b600080821561846557506000905060b4610e9d565b83617b9857506000905060bd610e9d565b6000806000617bb584600361839c565b600080821561849b57506000905060b5610e9d565b83617b9857506000905060bb610e9d565b60405180604001604052806184bf6184cc565b8152600060209091015290565b60408051610240810182526060610120820181815261014083018290526000610160840181905261018084018390526101a084018190526101c084018190526101e0840181905261020084018390528451928301855280835260208301819052938201939093526102208201529081908152602001600060070b8152602001600015158152602001600015158152602001600015158152602001606081526020016060815260200160608152602001606081525090565b60a28061a64083390190565b6040518060c001604052806185a26184cc565b8152600060208201819052604082018190526060808301829052608083015260a09091015290565b6040518060a0016040528060001515815260200160006001600160a01b03168152602001606081526020016060815260200160006001600160a01b031681525090565b6000808585111561861d57600080fd5b8386111561862a57600080fd5b5050820193919092039150565b80356001600160e01b03198116906004841015612a3c576001600160e01b031960049490940360031b84901b1690921692915050565b80356bffffffffffffffffffffffff198116906014841015612a3c576bffffffffffffffffffffffff1960149490940360031b84901b1690921692915050565b80356001600160a01b0381168114612b5b57600080fd5b6000602082840312156186d657600080fd5b612b09826186ad565b600080604083850312156186f257600080fd5b6186fb836186ad565b946020939093013593505050565b6000806040838503121561871c57600080fd5b618725836186ad565b9150618733602084016186ad565b90509250929050565b634e487b7160e01b600052604160045260246000fd5b604051606081016001600160401b03811182821017156187745761877461873c565b60405290565b604051602081016001600160401b03811182821017156187745761877461873c565b604051608081016001600160401b03811182821017156187745761877461873c565b604080519081016001600160401b03811182821017156187745761877461873c565b60405160a081016001600160401b03811182821017156187745761877461873c565b60405161012081016001600160401b03811182821017156187745761877461873c565b60405160c081016001600160401b03811182821017156187745761877461873c565b604051601f8201601f191681016001600160401b038111828210171561886f5761886f61873c565b604052919050565b60006001600160401b038211156188905761889061873c565b5060051b60200190565b8035600781900b8114612b5b57600080fd5b80358015158114612b5b57600080fd5b600082601f8301126188cd57600080fd5b81356188e06188db82618877565b618847565b8082825260208201915060206060840286010192508583111561890257600080fd5b602085015b83811015618964576060818803121561891f57600080fd5b618927618752565b618930826186ad565b815261893e6020830161889a565b602082015261894f604083016188ac565b60408201528352602090920191606001618907565b5095945050505050565b6000806040838503121561898157600080fd5b82356001600160401b0381111561899757600080fd5b8301602081860312156189a957600080fd5b6189b161877a565b81356001600160401b038111156189c757600080fd5b6189d3878285016188bc565b82525092505060208301356001600160401b038111156189f257600080fd5b8301601f81018513618a0357600080fd5b8035618a116188db82618877565b8082825260208201915060208360051b850101925087831115618a3357600080fd5b602084015b83811015618ba05780356001600160401b03811115618a5657600080fd5b85016060818b03601f19011215618a6c57600080fd5b618a74618752565b618a80602083016186ad565b815260408201356001600160401b03811115618a9b57600080fd5b618aaa8c6020838601016188bc565b60208301525060608201356001600160401b03811115618ac957600080fd5b6020818401019250508a601f830112618ae157600080fd5b8135618aef6188db82618877565b8082825260208201915060208360071b86010192508d831115618b1157600080fd5b6020850194505b82851015618b8a576080858f031215618b3057600080fd5b618b3861879c565b618b41866186ad565b8152618b4f602087016186ad565b6020820152618b606040870161889a565b6040820152618b71606087016188ac565b6060820152825260809490940193602090910190618b18565b6040840152505084525060209283019201618a38565b50809450505050509250929050565b60006001600160401b03821115618bc857618bc861873c565b50601f01601f191660200190565b600082601f830112618be757600080fd5b8135602083016000618bfb6188db84618baf565b9050828152858383011115618c0f57600080fd5b82826020830137600092810160200192909252509392505050565b600082601f830112618c3b57600080fd5b8135618c496188db82618877565b8082825260208201915060208360051b860101925085831115618c6b57600080fd5b602085015b838110156189645780356001600160401b03811115618c8e57600080fd5b86016040818903601f19011215618ca457600080fd5b618cac6187be565b6020820135815260408201356001600160401b03811115618ccc57600080fd5b60208184010192505060a0828a031215618ce557600080fd5b618ced6187e0565b618cf6836188ac565b8152618d04602084016186ad565b602082015260408301356001600160401b03811115618d2257600080fd5b618d2e8b828601618bd6565b60408301525060608301356001600160401b03811115618d4d57600080fd5b618d598b828601618bd6565b606083015250618d6b608084016186ad565b6080820152806020830152508085525050602083019250602081019050618c70565b600060608284031215618d9f57600080fd5b618da7618752565b9050618db28261889a565b8152618dc0602083016186ad565b6020820152618dd16040830161889a565b604082015292915050565b60006101608284031215618def57600080fd5b618df7618802565b905081356001600160401b03811115618e0f57600080fd5b618e1b84828501618bd6565b82525060208201356001600160401b03811115618e3757600080fd5b618e4384828501618bd6565b602083015250618e55604083016186ad565b604082015260608201356001600160401b03811115618e7357600080fd5b618e7f84828501618bd6565b606083015250618e91608083016188ac565b6080820152618ea260a0830161889a565b60a0820152618eb360c083016188ac565b60c082015260e08201356001600160401b03811115618ed157600080fd5b618edd84828501618c2a565b60e083015250618ef1836101008401618d8d565b61010082015292915050565b8035600381900b8114612b5b57600080fd5b600080600060608486031215618f2457600080fd5b83356001600160401b03811115618f3a57600080fd5b618f4686828701618ddc565b935050618f556020850161889a565b9150618f6360408501618efd565b90509250925092565b600082601f830112618f7d57600080fd5b8135618f8b6188db82618877565b80828252602082019150602060a08402860101925085831115618fad57600080fd5b602085015b838110156189645760a08188031215618fca57600080fd5b618fd26187e0565b618fdb8261889a565b8152618fe9602083016186ad565b6020820152618ffa604083016188ac565b604082015261900b606083016188ac565b606082015261901c608083016186ad565b6080820152835260209092019160a001618fb2565b600082601f83011261904257600080fd5b81356190506188db82618877565b80828252602082019150602060c0840286010192508583111561907257600080fd5b602085015b838110156189645760c0818803121561908f57600080fd5b619097618825565b6190a08261889a565b81526190ae6020830161889a565b60208201526190bf6040830161889a565b60408201526190d06060830161889a565b60608201526190e1608083016188ac565b60808201526190f260a083016186ad565b60a0820152835260209092019160c001619077565b600082601f83011261911857600080fd5b81356191266188db82618877565b80828252602082019150602060c0840286010192508583111561914857600080fd5b602085015b838110156189645760c0818803121561916557600080fd5b61916d618825565b6191768261889a565b81526191846020830161889a565b60208201526191956040830161889a565b60408201526191a6606083016186ad565b60608201526191b7608083016188ac565b60808201526191c860a083016186ad565b60a0820152835260209092019160c00161914d565b600061012082840312156191f057600080fd5b6191f8618802565b905081356001600160401b0381111561921057600080fd5b61921c84828501618ddc565b82525061922b6020830161889a565b602082015261923c604083016188ac565b604082015261924d606083016188ac565b606082015261925e608083016188ac565b608082015260a08201356001600160401b0381111561927c57600080fd5b61928884828501618f6c565b60a08301525060c08201356001600160401b038111156192a757600080fd5b6192b384828501619031565b60c08301525060e08201356001600160401b038111156192d257600080fd5b6192de84828501619107565b60e0830152506101008201356001600160401b038111156192fe57600080fd5b61930a84828501618bd6565b6101008301525092915050565b6000806040838503121561932a57600080fd5b619333836186ad565b915060208301356001600160401b0381111561934e57600080fd5b83016040818603121561936057600080fd5b6193686187be565b81356001600160401b0381111561937e57600080fd5b61938a878285016191dd565b82525061939960208301618efd565b602082015280925050509250929050565b600080600080608085870312156193c057600080fd5b6193c9856186ad565b93506193d7602086016186ad565b92506193e5604086016186ad565b9396929550929360600135925050565b60005b838110156194105781810151838201526020016193f8565b50506000910152565b600081518084526194318160208601602086016193f5565b601f01601f19169290920160200192915050565b80511515825260018060a01b0360208201511660208301526000604082015160a0604085015261947860a0850182619419565b9050606083015184820360608601526194918282619419565b6080948501516001600160a01b03169590940194909452509092915050565b600082825180855260208501945060208160051b8301016020850160005b8381101561951757601f1985840301885281518051845260208101519050604060208501526195006040850182619445565b6020998a01999094509290920191506001016194ce565b50909695505050505050565b60008151610160845261953a610160850182619419565b9050602083015184820360208601526195538282619419565b915050604083015161957060408601826001600160a01b03169052565b50606083015184820360608601526195888282619419565b915050608083015161959e608086018215159052565b5060a08301516195b360a086018260070b9052565b5060c08301516195c760c086018215159052565b5060e083015184820360e08601526195df82826194b0565b91505061010083015161961a6101008601828051600790810b83526020808301516001600160a01b031690840152604091820151900b910152565b509392505050565b600081518084526020840193506020830160005b82811015619694578151805160070b87526020808201516001600160a01b03908116828a01526040808401511515908a01526060808401511515908a0152608092830151169188019190915260a09096019590910190600101619636565b5093949350505050565b600081518084526020840193506020830160005b828110156196945781516000815160070b8852602082015160070b6020890152604082015160070b6040890152606082015160070b606089015260808201511515608089015260018060a01b0360a08301511660a089015260c08801905080975050506020820191506001810190506196b2565b600081518084526020840193506020830160005b828110156196945781516000815160070b8852602082015160070b6020890152604082015160070b604089015260018060a01b03606083015116606089015260808201511515608089015260018060a01b0360a08301511660a089015260c088019050809750505060208201915060018101905061973a565b6000815161012084526197ca610120850182619523565b905060208301516197e0602086018260070b9052565b5060408301516197f4604086018215159052565b506060830151619808606086018215159052565b50608083015161981c608086018215159052565b5060a083015184820360a08601526198348282619622565b91505060c083015184820360c086015261984e828261969e565b91505060e083015184820360e08601526198688282619726565b9150506101008301518482036101008601526198848282619419565b95945050505050565b8260070b8152604060208201526000610ffb60408301846197b3565b600080604083850312156198bc57600080fd5b6198c5836186ad565b91506187336020840161889a565b8260070b8152604060208201526000825160c060408401526198f96101008401826197b3565b9050602084015160070b606084015260018060a01b036040850151166080840152606084015160070b60a08401526080840151603f198483030160c08501526199428282619419565b60a095909501516001600160a01b031660e0949094019390935250919392505050565b600080600080600060a0868803121561997d57600080fd5b85356001600160401b0381111561999357600080fd5b61999f88828901618ddc565b9550506199ae6020870161889a565b93506199bc60408701618efd565b925060608601356001600160401b038111156199d757600080fd5b6199e388828901618f6c565b92505060808601356001600160401b038111156199ff57600080fd5b619a0b88828901619031565b9150509295509295909350565b600082601f830112619a2957600080fd5b8135619a376188db82618877565b8082825260208201915060208360051b860101925085831115619a5957600080fd5b602085015b8381101561896457619a6f816186ad565b835260209283019201619a5e565b600082601f830112619a8e57600080fd5b8135619a9c6188db82618877565b8082825260208201915060208360051b860101925085831115619abe57600080fd5b602085015b8381101561896457619ad48161889a565b835260209283019201619ac3565b60008060008060808587031215619af857600080fd5b619b01856186ad565b935060208501356001600160401b03811115619b1c57600080fd5b619b2887828801619a18565b93505060408501356001600160401b03811115619b4457600080fd5b619b5087828801619a18565b92505060608501356001600160401b03811115619b6c57600080fd5b619b7887828801619a7d565b91505092959194509250565b60008060408385031215619b9757600080fd5b619ba0836186ad565b915060208301356001600160401b03811115619bbb57600080fd5b619bc785828601619a18565b9150509250929050565b600080600060608486031215619be657600080fd5b619bef846186ad565b9250619bfd602085016186ad565b9150618f63604085016188ac565b8260070b8152604060208201526000610ffb6040830184619445565b8260070b81526040602082015260008251604080840152619c4b60808401826197b3565b9050602084015160030b6060840152809150509392505050565b60008060008060808587031215619c7b57600080fd5b619c84856186ad565b9350619c92602086016186ad565b9250619ca0604086016186ad565b9150619cae6060860161889a565b905092959194509250565b60008060408385031215619ccc57600080fd5b619cd5836186ad565b915060208301356001600160401b03811115619cf057600080fd5b619bc785828601618c2a565b600080600060608486031215619d1157600080fd5b619d1a846186ad565b9250619d28602085016186ad565b929592945050506040919091013590565b60008060408385031215619d4c57600080fd5b619d55836186ad565b915060208301356001600160401b03811115619d7057600080fd5b619bc785828601618ddc565b600080600060608486031215619d9157600080fd5b619d9a846186ad565b925060208401356001600160401b03811115619db557600080fd5b619dc186828701619a18565b92505060408401356001600160401b03811115619ddd57600080fd5b619de986828701619a7d565b9150509250925092565b600080600060608486031215619e0857600080fd5b619e11846186ad565b9250619e1f602085016186ad565b9150618f63604085016186ad565b600080600060608486031215619e4257600080fd5b83356001600160401b03811115619e5857600080fd5b619e6486828701618ddc565b93505060208401356001600160401b03811115619e8057600080fd5b619e8c86828701618f6c565b92505060408401356001600160401b03811115619ea857600080fd5b619de986828701619107565b8460070b8152608060208201526000619ed06080830186619622565b8281036040840152619ee2818661969e565b905082810360608401526143a18185619726565b60008060808385031215619f0957600080fd5b619f12836186ad565b91506187338460208501618d8d565b600783900b815260808101612b0960208301848051600790810b83526020808301516001600160a01b031690840152604091820151900b910152565b600080600060608486031215619f7257600080fd5b619f7b846186ad565b9250619f896020850161889a565b915060408401356001600160401b03811115619ddd57600080fd5b60008060408385031215619fb757600080fd5b619fc0836186ad565b915060208301356001600160401b03811115619fdb57600080fd5b619bc7858286016191dd565b600080600060608486031215619ffc57600080fd5b61a005846186ad565b925061a0136020850161889a565b915060408401356001600160401b0381111561a02e57600080fd5b8401601f8101861361a03f57600080fd5b803561a04d6188db82618877565b8082825260208201915060208360051b85010192508883111561a06f57600080fd5b602084015b8381101561a0b05780356001600160401b0381111561a09257600080fd5b61a0a18b602083890101618bd6565b8452506020928301920161a074565b50809450505050509250925092565b6000606082018560070b83528460070b60208401526060604084015280845180835260808501915060208601925060005b8181101561a11157835160070b83526020938401939092019160010161a0f0565b5090979650505050505050565b60006020828403121561a13057600080fd5b81356001600160401b0381111561a14657600080fd5b610ffb84828501618ddc565b60008060006060848603121561a16757600080fd5b61a170846186ad565b925061a17e602085016186ad565b9150618f636040850161889a565b60008060006060848603121561a1a157600080fd5b61a1aa846186ad565b9250619f89602085016186ad565b600061a1c66188db84618baf565b905082815283838301111561a1da57600080fd5b612b098360208301846193f5565b60006020828403121561a1fa57600080fd5b81516001600160401b0381111561a21057600080fd5b8201601f8101841361a22157600080fd5b610ffb8482516020840161a1b8565b602081526000612b096020830184619419565b672dbd913a37911d1160c11b8152825160009061a2678160088501602088016193f5565b6a111610113230ba30911d1160a91b600891840191820152835161a2928160138401602088016193f5565b630113e96160e51b6013929091019182015268226c6174657374225d60b81b6017820152602001949350505050565b604081526008604082015267195d1a17d8d85b1b60c21b6060820152608060208201526000612b096080830184619419565b805160208083015191908110156176405760001960209190910360031b1b16919050565b600181811c9082168061a32b57607f821691505b60208210810361764057634e487b7160e01b600052602260045260246000fd5b60208082526010908201526f2727aa2fa422a222a920afaa27a5a2a760811b604082015260600190565b634e487b7160e01b600052603260045260246000fd5b60006020828403121561a39d57600080fd5b5051919050565b60608152600061a3b76060830186619419565b6001600160a01b039490941660208301525060400152919050565b60408152600061a3e56040830185619419565b82810360208401526198848185619419565b601f82111561656357806000526020600020601f840160051c8101602085101561a41e5750805b601f840160051c820191505b81811015616b8f576000815560010161a42a565b81516001600160401b0381111561a4575761a45761873c565b61a46b8161a465845461a317565b8461a3f7565b6020601f82116001811461a49f576000831561a4875750848201515b600019600385901b1c1916600184901b178455616b8f565b600084815260208120601f198516915b8281101561a4cf578785015182556020948501946001909201910161a4af565b508482101561a4ed5786840151600019600387901b60f8161c191681555b50505050600190811b01905550565b634e487b7160e01b600052602160045260246000fd5b634e487b7160e01b600052601160045260246000fd5b6001815b6001841115610fb35780850481111561a5475761a54761a512565b600184161561a55557908102905b60019390931c92800261a52c565b60008261a57257506001610e6c565b8161a57f57506000610e6c565b816001811461a595576002811461a59f5761a5bb565b6001915050610e6c565b60ff84111561a5b05761a5b061a512565b50506001821b610e6c565b5060208310610133831016604e8410600b841016171561a5de575081810a610e6c565b61a5eb600019848461a528565b806000190482111561a5ff5761a5ff61a512565b029392505050565b6000612b09838361a563565b80820180821115610e6c57610e6c61a512565b60006001820161a6385761a63861a512565b506001019056fe6080604052348015600f57600080fd5b50608580601d6000396000f3fe60806040526000610167905077618dc65e0000000000000000000000000000000000068cda600052366000602037600080366018016008845af43d806000803e818015604a57816000f35b816000fdfea26469706673582212205ba450c29046ae0f357c324ce2d2d491ccb5ef4c8315024b5f330a39da4afa2764736f6c634300081a00334854532066616c6c6261636b207265646972656374466f72546f6b656e2c20546f6b656e2025732c20656e636f64656446756e6374696f6e53656c6563746f722025732e2b3f61b70d2d131b2a807371103cc98d51adcaa5e9a8f9c32658ad8426e74ea26469706673582212207caec22ca02f94598663154571169054ea213c20707b26e8e96aeead031f751564736f6c634300081a0033",
    "linkReferences": {}
  },
  "methodIdentifiers": {
    "allowance(address,address,address)": "927da105",
    "approve(address,address,uint256)": "e1f21c67",
    "approveNFT(address,address,uint256)": "7336aaf0",
    "associateToken(address,address)": "49146bde",
    "associateTokens(address,address[])": "2e63879b",
    "burnToken(address,int64,int64[])": "d6910d06",
    "createFungibleToken((string,string,address,string,bool,int64,bool,(uint256,(bool,address,bytes,bytes,address))[],(int64,address,int64)),int64,int32)": "0fb65bf3",
    "createFungibleTokenWithCustomFees((string,string,address,string,bool,int64,bool,(uint256,(bool,address,bytes,bytes,address))[],(int64,address,int64)),int64,int32,(int64,address,bool,bool,address)[],(int64,int64,int64,int64,bool,address)[])": "2af0c59a",
    "createNonFungibleToken((string,string,address,string,bool,int64,bool,(uint256,(bool,address,bytes,bytes,address))[],(int64,address,int64)))": "ea83f293",
    "createNonFungibleTokenWithCustomFees((string,string,address,string,bool,int64,bool,(uint256,(bool,address,bytes,bytes,address))[],(int64,address,int64)),(int64,address,bool,bool,address)[],(int64,int64,int64,address,bool,address)[])": "abb54eb5",
    "cryptoTransfer(((address,int64,bool)[]),(address,(address,int64,bool)[],(address,address,int64,bool)[])[])": "0e71804f",
    "deleteToken(address)": "f069f712",
    "dissociateToken(address,address)": "099794e8",
    "dissociateTokens(address,address[])": "78b63918",
    "freezeToken(address,address)": "5b8f8584",
    "getApproved(address,uint256)": "098f2366",
    "getFungibleTokenInfo(address)": "3f28a19b",
    "getNonFungibleTokenInfo(address,int64)": "287e1da8",
    "getTokenCustomFees(address)": "ae7611a0",
    "getTokenDefaultFreezeStatus(address)": "a7daa18d",
    "getTokenDefaultKycStatus(address)": "335e04c1",
    "getTokenExpiryInfo(address)": "d614cdb8",
    "getTokenInfo(address)": "1f69565f",
    "getTokenKey(address,uint256)": "3c4dd32e",
    "getTokenType(address)": "93272baf",
    "getTreasuryAccount(address)": "0863684b",
    "grantTokenKyc(address,address)": "8f8d7f99",
    "isApprovedForAll(address,address,address)": "f49f40db",
    "isAssociated(address,address)": "6cf99248",
    "isFrozen(address,address)": "46de0fb1",
    "isKyc(address,address)": "f2c31ff4",
    "isToken(address)": "19f37361",
    "mintToken(address,int64,bytes[])": "e0f4059a",
    "pauseToken(address)": "7c41ad2c",
    "preApprove(address,address,uint256)": "e4595249",
    "preAssociate(address)": "b58d1b8e",
    "preDissociate(address)": "24d81f66",
    "preSetApprovalForAll(address,address,bool)": "535575b2",
    "registerHederaFungibleToken(address,(((string,string,address,string,bool,int64,bool,(uint256,(bool,address,bytes,bytes,address))[],(int64,address,int64)),int64,bool,bool,bool,(int64,address,bool,bool,address)[],(int64,int64,int64,int64,bool,address)[],(int64,int64,int64,address,bool,address)[],string),int32))": "154a97a0",
    "registerHederaNonFungibleToken(address,((string,string,address,string,bool,int64,bool,(uint256,(bool,address,bytes,bytes,address))[],(int64,address,int64)),int64,bool,bool,bool,(int64,address,bool,bool,address)[],(int64,int64,int64,int64,bool,address)[],(int64,int64,int64,address,bool,address)[],string))": "da23fff9",
    "revokeTokenKyc(address,address)": "af99c633",
    "setApprovalForAll(address,address,bool)": "367605ca",
    "transferFrom(address,address,address,uint256)": "15dacbea",
    "transferFromNFT(address,address,address,uint256)": "9b23d3d9",
    "transferNFT(address,address,address,int64)": "5cfc9011",
    "transferNFTs(address,address[],address[],int64[])": "2c4ba191",
    "transferToken(address,address,address,int64)": "eca36917",
    "transferTokens(address,address[],int64[])": "82bba493",
    "unfreezeToken(address,address)": "52f91387",
    "unpauseToken(address)": "3b3bff0f",
    "updateTokenExpiryInfo(address,(int64,address,int64))": "d27be6cd",
    "updateTokenInfo(address,(string,string,address,string,bool,int64,bool,(uint256,(bool,address,bytes,bytes,address))[],(int64,address,int64)))": "7d305cfa",
    "updateTokenKeys(address,(uint256,(bool,address,bytes,bytes,address))[])": "6fc3cbaf",
    "wipeTokenAccount(address,address,int64)": "efef57f9",
    "wipeTokenAccountNFT(address,address,int64[])": "f7f38e26"
  },
  "storageLayout": {
    "storage": [
      {
        "astId": 43136,
        "contract": "src/HtsSystemContract.sol:HtsSystemContract",
        "label": "supplyContract",
        "offset": 0,
        "slot": "0",
        "type": "t_address"
      },
      {
        "astId": 43141,
        "contract": "src/HtsSystemContract.sol:HtsSystemContract",
        "label": "keyTypes",
        "offset": 0,
        "slot": "1",
        "type": "t_mapping(t_enum(KeyType)43149,t_uint256)"
      },
      {
        "astId": 45081,
        "contract": "src/HtsSystemContract.sol:HtsSystemContract",
        "label": "_slot5",
        "offset": 0,
        "slot": "2",
        "type": "t_uint256"
      },
      {
        "astId": 45087,
        "contract": "src/HtsSystemContract.sol:HtsSystemContract",
        "label": "_fungibleTokenInfos",
        "offset": 0,
        "slot": "3",
        "type": "t_mapping(t_address,t_struct(FungibleTokenInfo)42468_storage)"
      },
      {
        "astId": 45091,
        "contract": "src/HtsSystemContract.sol:HtsSystemContract",
        "label": "_isFungible",
        "offset": 0,
        "slot": "4",
        "type": "t_mapping(t_address,t_bool)"
      },
      {
        "astId": 45097,
        "contract": "src/HtsSystemContract.sol:HtsSystemContract",
        "label": "_nftTokenInfos",
        "offset": 0,
        "slot": "5",
        "type": "t_mapping(t_address,t_struct(TokenInfo)42459_storage)"
      },
      {
        "astId": 45104,
        "contract": "src/HtsSystemContract.sol:HtsSystemContract",
        "label": "_partialNonFungibleTokenInfos",
        "offset": 0,
        "slot": "6",
        "type": "t_mapping(t_address,t_mapping(t_int64,t_struct(PartialNonFungibleTokenInfo)43954_storage))"
      },
      {
        "astId": 45108,
        "contract": "src/HtsSystemContract.sol:HtsSystemContract",
        "label": "_isNonFungible",
        "offset": 0,
        "slot": "7",
        "type": "t_mapping(t_address,t_bool)"
      },
      {
        "astId": 45115,
        "contract": "src/HtsSystemContract.sol:HtsSystemContract",
        "label": "_association",
        "offset": 0,
        "slot": "8",
        "type": "t_mapping(t_address,t_mapping(t_address,t_bool))"
      },
      {
        "astId": 45122,
        "contract": "src/HtsSystemContract.sol:HtsSystemContract",
        "label": "_kyc",
        "offset": 0,
        "slot": "9",
        "type": "t_mapping(t_address,t_mapping(t_address,t_struct(TokenConfig)43945_storage))"
      },
      {
        "astId": 45129,
        "contract": "src/HtsSystemContract.sol:HtsSystemContract",
        "label": "_unfrozen",
        "offset": 0,
        "slot": "10",
        "type": "t_mapping(t_address,t_mapping(t_address,t_struct(TokenConfig)43945_storage))"
      },
      {
        "astId": 45135,
        "contract": "src/HtsSystemContract.sol:HtsSystemContract",
        "label": "_tokenKeys",
        "offset": 0,
        "slot": "11",
        "type": "t_mapping(t_address,t_mapping(t_uint256,t_address))"
      },
      {
        "astId": 45140,
        "contract": "src/HtsSystemContract.sol:HtsSystemContract",
        "label": "_tokenDeleted",
        "offset": 0,
        "slot": "12",
        "type": "t_mapping(t_address,t_bool)"
      },
      {
        "astId": 45145,
        "contract": "src/HtsSystemContract.sol:HtsSystemContract",
        "label": "_tokenPaused",
        "offset": 0,
        "slot": "13",
        "type": "t_mapping(t_address,t_struct(TokenConfig)43945_storage)"
      },
      {
        "astId": 45147,
        "contract": "src/HtsSystemContract.sol:HtsSystemContract",
        "label": "total_supply",
        "offset": 0,
        "slot": "14",
        "type": "t_uint256"
      },
      {
        "astId": 45149,
        "contract": "src/HtsSystemContract.sol:HtsSystemContract",
        "label": "decimals",
        "offset": 0,
        "slot": "15",
        "type": "t_uint256"
      }
    ],
    "types": {
      "t_address": {
        "encoding": "inplace",
        "label": "address",
        "numberOfBytes": "20"
      },
      "t_array(t_struct(FixedFee)42501_storage)dyn_storage": {
        "encoding": "dynamic_array",
        "label": "struct IHederaTokenService.FixedFee[]",
        "numberOfBytes": "32",
        "base": "t_struct(FixedFee)42501_storage"
      },
      "t_array(t_struct(FractionalFee)42515_storage)dyn_storage": {
        "encoding": "dynamic_array",
        "label": "struct IHederaTokenService.FractionalFee[]",
        "numberOfBytes": "32",
        "base": "t_struct(FractionalFee)42515_storage"
      },
      "t_array(t_struct(RoyaltyFee)42529_storage)dyn_storage": {
        "encoding": "dynamic_array",
        "label": "struct IHederaTokenService.RoyaltyFee[]",
        "numberOfBytes": "32",
        "base": "t_struct(RoyaltyFee)42529_storage"
      },
      "t_array(t_struct(TokenKey)42400_storage)dyn_storage": {
        "encoding": "dynamic_array",
        "label": "struct IHederaTokenService.TokenKey[]",
        "numberOfBytes": "32",
        "base": "t_struct(TokenKey)42400_storage"
      },
      "t_bool": {
        "encoding": "inplace",
        "label": "bool",
        "numberOfBytes": "1"
      },
      "t_bytes_storage": {
        "encoding": "bytes",
        "label": "bytes",
        "numberOfBytes": "32"
      },
      "t_enum(KeyType)43149": {
        "encoding": "inplace",
        "label": "enum KeyHelper.KeyType",
        "numberOfBytes": "1"
      },
      "t_int32": {
        "encoding": "inplace",
        "label": "int32",
        "numberOfBytes": "4"
      },
      "t_int64": {
        "encoding": "inplace",
        "label": "int64",
        "numberOfBytes": "8"
      },
      "t_mapping(t_address,t_bool)": {
        "encoding": "mapping",
        "key": "t_address",
        "label": "mapping(address => bool)",
        "numberOfBytes": "32",
        "value": "t_bool"
      },
      "t_mapping(t_address,t_mapping(t_address,t_bool))": {
        "encoding": "mapping",
        "key": "t_address",
        "label": "mapping(address => mapping(address => bool))",
        "numberOfBytes": "32",
        "value": "t_mapping(t_address,t_bool)"
      },
      "t_mapping(t_address,t_mapping(t_address,t_struct(TokenConfig)43945_storage))": {
        "encoding": "mapping",
        "key": "t_address",
        "label": "mapping(address => mapping(address => struct HederaTokenValidation.TokenConfig))",
        "numberOfBytes": "32",
        "value": "t_mapping(t_address,t_struct(TokenConfig)43945_storage)"
      },
      "t_mapping(t_address,t_mapping(t_int64,t_struct(PartialNonFungibleTokenInfo)43954_storage))": {
        "encoding": "mapping",
        "key": "t_address",
        "label": "mapping(address => mapping(int64 => struct HederaTokenValidation.PartialNonFungibleTokenInfo))",
        "numberOfBytes": "32",
        "value": "t_mapping(t_int64,t_struct(PartialNonFungibleTokenInfo)43954_storage)"
      },
      "t_mapping(t_address,t_mapping(t_uint256,t_address))": {
        "encoding": "mapping",
        "key": "t_address",
        "label": "mapping(address => mapping(uint256 => address))",
        "numberOfBytes": "32",
        "value": "t_mapping(t_uint256,t_address)"
      },
      "t_mapping(t_address,t_struct(FungibleTokenInfo)42468_storage)": {
        "encoding": "mapping",
        "key": "t_address",
        "label": "mapping(address => struct IHederaTokenService.FungibleTokenInfo)",
        "numberOfBytes": "32",
        "value": "t_struct(FungibleTokenInfo)42468_storage"
      },
      "t_mapping(t_address,t_struct(TokenConfig)43945_storage)": {
        "encoding": "mapping",
        "key": "t_address",
        "label": "mapping(address => struct HederaTokenValidation.TokenConfig)",
        "numberOfBytes": "32",
        "value": "t_struct(TokenConfig)43945_storage"
      },
      "t_mapping(t_address,t_struct(TokenInfo)42459_storage)": {
        "encoding": "mapping",
        "key": "t_address",
        "label": "mapping(address => struct IHederaTokenService.TokenInfo)",
        "numberOfBytes": "32",
        "value": "t_struct(TokenInfo)42459_storage"
      },
      "t_mapping(t_enum(KeyType)43149,t_uint256)": {
        "encoding": "mapping",
        "key": "t_enum(KeyType)43149",
        "label": "mapping(enum KeyHelper.KeyType => uint256)",
        "numberOfBytes": "32",
        "value": "t_uint256"
      },
      "t_mapping(t_int64,t_struct(PartialNonFungibleTokenInfo)43954_storage)": {
        "encoding": "mapping",
        "key": "t_int64",
        "label": "mapping(int64 => struct HederaTokenValidation.PartialNonFungibleTokenInfo)",
        "numberOfBytes": "32",
        "value": "t_struct(PartialNonFungibleTokenInfo)43954_storage"
      },
      "t_mapping(t_uint256,t_address)": {
        "encoding": "mapping",
        "key": "t_uint256",
        "label": "mapping(uint256 => address)",
        "numberOfBytes": "32",
        "value": "t_address"
      },
      "t_string_storage": {
        "encoding": "bytes",
        "label": "string",
        "numberOfBytes": "32"
      },
      "t_struct(Expiry)42381_storage": {
        "encoding": "inplace",
        "label": "struct IHederaTokenService.Expiry",
        "numberOfBytes": "64",
        "members": [
          {
            "astId": 42376,
            "contract": "src/HtsSystemContract.sol:HtsSystemContract",
            "label": "second",
            "offset": 0,
            "slot": "0",
            "type": "t_int64"
          },
          {
            "astId": 42378,
            "contract": "src/HtsSystemContract.sol:HtsSystemContract",
            "label": "autoRenewAccount",
            "offset": 8,
            "slot": "0",
            "type": "t_address"
          },
          {
            "astId": 42380,
            "contract": "src/HtsSystemContract.sol:HtsSystemContract",
            "label": "autoRenewPeriod",
            "offset": 0,
            "slot": "1",
            "type": "t_int64"
          }
        ]
      },
      "t_struct(FixedFee)42501_storage": {
        "encoding": "inplace",
        "label": "struct IHederaTokenService.FixedFee",
        "numberOfBytes": "64",
        "members": [
          {
            "astId": 42492,
            "contract": "src/HtsSystemContract.sol:HtsSystemContract",
            "label": "amount",
            "offset": 0,
            "slot": "0",
            "type": "t_int64"
          },
          {
            "astId": 42494,
            "contract": "src/HtsSystemContract.sol:HtsSystemContract",
            "label": "tokenId",
            "offset": 8,
            "slot": "0",
            "type": "t_address"
          },
          {
            "astId": 42496,
            "contract": "src/HtsSystemContract.sol:HtsSystemContract",
            "label": "useHbarsForPayment",
            "offset": 28,
            "slot": "0",
            "type": "t_bool"
          },
          {
            "astId": 42498,
            "contract": "src/HtsSystemContract.sol:HtsSystemContract",
            "label": "useCurrentTokenForPayment",
            "offset": 29,
            "slot": "0",
            "type": "t_bool"
          },
          {
            "astId": 42500,
            "contract": "src/HtsSystemContract.sol:HtsSystemContract",
            "label": "feeCollector",
            "offset": 0,
            "slot": "1",
            "type": "t_address"
          }
        ]
      },
      "t_struct(FractionalFee)42515_storage": {
        "encoding": "inplace",
        "label": "struct IHederaTokenService.FractionalFee",
        "numberOfBytes": "64",
        "members": [
          {
            "astId": 42504,
            "contract": "src/HtsSystemContract.sol:HtsSystemContract",
            "label": "numerator",
            "offset": 0,
            "slot": "0",
            "type": "t_int64"
          },
          {
            "astId": 42506,
            "contract": "src/HtsSystemContract.sol:HtsSystemContract",
            "label": "denominator",
            "offset": 8,
            "slot": "0",
            "type": "t_int64"
          },
          {
            "astId": 42508,
            "contract": "src/HtsSystemContract.sol:HtsSystemContract",
            "label": "minimumAmount",
            "offset": 16,
            "slot": "0",
            "type": "t_int64"
          },
          {
            "astId": 42510,
            "contract": "src/HtsSystemContract.sol:HtsSystemContract",
            "label": "maximumAmount",
            "offset": 24,
            "slot": "0",
            "type": "t_int64"
          },
          {
            "astId": 42512,
            "contract": "src/HtsSystemContract.sol:HtsSystemContract",
            "label": "netOfTransfers",
            "offset": 0,
            "slot": "1",
            "type": "t_bool"
          },
          {
            "astId": 42514,
            "contract": "src/HtsSystemContract.sol:HtsSystemContract",
            "label": "feeCollector",
            "offset": 1,
            "slot": "1",
            "type": "t_address"
          }
        ]
      },
      "t_struct(FungibleTokenInfo)42468_storage": {
        "encoding": "inplace",
        "label": "struct IHederaTokenService.FungibleTokenInfo",
        "numberOfBytes": "448",
        "members": [
          {
            "astId": 42464,
            "contract": "src/HtsSystemContract.sol:HtsSystemContract",
            "label": "tokenInfo",
            "offset": 0,
            "slot": "0",
            "type": "t_struct(TokenInfo)42459_storage"
          },
          {
            "astId": 42467,
            "contract": "src/HtsSystemContract.sol:HtsSystemContract",
            "label": "decimals",
            "offset": 0,
            "slot": "13",
            "type": "t_int32"
          }
        ]
      },
      "t_struct(HederaToken)42423_storage": {
        "encoding": "inplace",
        "label": "struct IHederaTokenService.HederaToken",
        "numberOfBytes": "256",
        "members": [
          {
            "astId": 42403,
            "contract": "src/HtsSystemContract.sol:HtsSystemContract",
            "label": "name",
            "offset": 0,
            "slot": "0",
            "type": "t_string_storage"
          },
          {
            "astId": 42405,
            "contract": "src/HtsSystemContract.sol:HtsSystemContract",
            "label": "symbol",
            "offset": 0,
            "slot": "1",
            "type": "t_string_storage"
          },
          {
            "astId": 42407,
            "contract": "src/HtsSystemContract.sol:HtsSystemContract",
            "label": "treasury",
            "offset": 0,
            "slot": "2",
            "type": "t_address"
          },
          {
            "astId": 42409,
            "contract": "src/HtsSystemContract.sol:HtsSystemContract",
            "label": "memo",
            "offset": 0,
            "slot": "3",
            "type": "t_string_storage"
          },
          {
            "astId": 42411,
            "contract": "src/HtsSystemContract.sol:HtsSystemContract",
            "label": "tokenSupplyType",
            "offset": 0,
            "slot": "4",
            "type": "t_bool"
          },
          {
            "astId": 42413,
            "contract": "src/HtsSystemContract.sol:HtsSystemContract",
            "label": "maxSupply",
            "offset": 1,
            "slot": "4",
            "type": "t_int64"
          },
          {
            "astId": 42415,
            "contract": "src/HtsSystemContract.sol:HtsSystemContract",
            "label": "freezeDefault",
            "offset": 9,
            "slot": "4",
            "type": "t_bool"
          },
          {
            "astId": 42419,
            "contract": "src/HtsSystemContract.sol:HtsSystemContract",
            "label": "tokenKeys",
            "offset": 0,
            "slot": "5",
            "type": "t_array(t_struct(TokenKey)42400_storage)dyn_storage"
          },
          {
            "astId": 42422,
            "contract": "src/HtsSystemContract.sol:HtsSystemContract",
            "label": "expiry",
            "offset": 0,
            "slot": "6",
            "type": "t_struct(Expiry)42381_storage"
          }
        ]
      },
      "t_struct(KeyValue)42393_storage": {
        "encoding": "inplace",
        "label": "struct IHederaTokenService.KeyValue",
        "numberOfBytes": "128",
        "members": [
          {
            "astId": 42384,
            "contract": "src/HtsSystemContract.sol:HtsSystemContract",
            "label": "inheritAccountKey",
            "offset": 0,
            "slot": "0",
            "type": "t_bool"
          },
          {
            "astId": 42386,
            "contract": "src/HtsSystemContract.sol:HtsSystemContract",
            "label": "contractId",
            "offset": 1,
            "slot": "0",
            "type": "t_address"
          },
          {
            "astId": 42388,
            "contract": "src/HtsSystemContract.sol:HtsSystemContract",
            "label": "ed25519",
            "offset": 0,
            "slot": "1",
            "type": "t_bytes_storage"
          },
          {
            "astId": 42390,
            "contract": "src/HtsSystemContract.sol:HtsSystemContract",
            "label": "ECDSA_secp256k1",
            "offset": 0,
            "slot": "2",
            "type": "t_bytes_storage"
          },
          {
            "astId": 42392,
            "contract": "src/HtsSystemContract.sol:HtsSystemContract",
            "label": "delegatableContractId",
            "offset": 0,
            "slot": "3",
            "type": "t_address"
          }
        ]
      },
      "t_struct(PartialNonFungibleTokenInfo)43954_storage": {
        "encoding": "inplace",
        "label": "struct HederaTokenValidation.PartialNonFungibleTokenInfo",
        "numberOfBytes": "96",
        "members": [
          {
            "astId": 43947,
            "contract": "src/HtsSystemContract.sol:HtsSystemContract",
            "label": "ownerId",
            "offset": 0,
            "slot": "0",
            "type": "t_address"
          },
          {
            "astId": 43949,
            "contract": "src/HtsSystemContract.sol:HtsSystemContract",
            "label": "creationTime",
            "offset": 20,
            "slot": "0",
            "type": "t_int64"
          },
          {
            "astId": 43951,
            "contract": "src/HtsSystemContract.sol:HtsSystemContract",
            "label": "metadata",
            "offset": 0,
            "slot": "1",
            "type": "t_bytes_storage"
          },
          {
            "astId": 43953,
            "contract": "src/HtsSystemContract.sol:HtsSystemContract",
            "label": "spenderId",
            "offset": 0,
            "slot": "2",
            "type": "t_address"
          }
        ]
      },
      "t_struct(RoyaltyFee)42529_storage": {
        "encoding": "inplace",
        "label": "struct IHederaTokenService.RoyaltyFee",
        "numberOfBytes": "96",
        "members": [
          {
            "astId": 42518,
            "contract": "src/HtsSystemContract.sol:HtsSystemContract",
            "label": "numerator",
            "offset": 0,
            "slot": "0",
            "type": "t_int64"
          },
          {
            "astId": 42520,
            "contract": "src/HtsSystemContract.sol:HtsSystemContract",
            "label": "denominator",
            "offset": 8,
            "slot": "0",
            "type": "t_int64"
          },
          {
            "astId": 42522,
            "contract": "src/HtsSystemContract.sol:HtsSystemContract",
            "label": "amount",
            "offset": 16,
            "slot": "0",
            "type": "t_int64"
          },
          {
            "astId": 42524,
            "contract": "src/HtsSystemContract.sol:HtsSystemContract",
            "label": "tokenId",
            "offset": 0,
            "slot": "1",
            "type": "t_address"
          },
          {
            "astId": 42526,
            "contract": "src/HtsSystemContract.sol:HtsSystemContract",
            "label": "useHbarsForPayment",
            "offset": 20,
            "slot": "1",
            "type": "t_bool"
          },
          {
            "astId": 42528,
            "contract": "src/HtsSystemContract.sol:HtsSystemContract",
            "label": "feeCollector",
            "offset": 0,
            "slot": "2",
            "type": "t_address"
          }
        ]
      },
      "t_struct(TokenConfig)43945_storage": {
        "encoding": "inplace",
        "label": "struct HederaTokenValidation.TokenConfig",
        "numberOfBytes": "32",
        "members": [
          {
            "astId": 43942,
            "contract": "src/HtsSystemContract.sol:HtsSystemContract",
            "label": "explicit",
            "offset": 0,
            "slot": "0",
            "type": "t_bool"
          },
          {
            "astId": 43944,
            "contract": "src/HtsSystemContract.sol:HtsSystemContract",
            "label": "value",
            "offset": 1,
            "slot": "0",
            "type": "t_bool"
          }
        ]
      },
      "t_struct(TokenInfo)42459_storage": {
        "encoding": "inplace",
        "label": "struct IHederaTokenService.TokenInfo",
        "numberOfBytes": "416",
        "members": [
          {
            "astId": 42428,
            "contract": "src/HtsSystemContract.sol:HtsSystemContract",
            "label": "token",
            "offset": 0,
            "slot": "0",
            "type": "t_struct(HederaToken)42423_storage"
          },
          {
            "astId": 42431,
            "contract": "src/HtsSystemContract.sol:HtsSystemContract",
            "label": "totalSupply",
            "offset": 0,
            "slot": "8",
            "type": "t_int64"
          },
          {
            "astId": 42434,
            "contract": "src/HtsSystemContract.sol:HtsSystemContract",
            "label": "deleted",
            "offset": 8,
            "slot": "8",
            "type": "t_bool"
          },
          {
            "astId": 42437,
            "contract": "src/HtsSystemContract.sol:HtsSystemContract",
            "label": "defaultKycStatus",
            "offset": 9,
            "slot": "8",
            "type": "t_bool"
          },
          {
            "astId": 42440,
            "contract": "src/HtsSystemContract.sol:HtsSystemContract",
            "label": "pauseStatus",
            "offset": 10,
            "slot": "8",
            "type": "t_bool"
          },
          {
            "astId": 42445,
            "contract": "src/HtsSystemContract.sol:HtsSystemContract",
            "label": "fixedFees",
            "offset": 0,
            "slot": "9",
            "type": "t_array(t_struct(FixedFee)42501_storage)dyn_storage"
          },
          {
            "astId": 42450,
            "contract": "src/HtsSystemContract.sol:HtsSystemContract",
            "label": "fractionalFees",
            "offset": 0,
            "slot": "10",
            "type": "t_array(t_struct(FractionalFee)42515_storage)dyn_storage"
          },
          {
            "astId": 42455,
            "contract": "src/HtsSystemContract.sol:HtsSystemContract",
            "label": "royaltyFees",
            "offset": 0,
            "slot": "11",
            "type": "t_array(t_struct(RoyaltyFee)42529_storage)dyn_storage"
          },
          {
            "astId": 42458,
            "contract": "src/HtsSystemContract.sol:HtsSystemContract",
            "label": "ledgerId",
            "offset": 0,
            "slot": "12",
            "type": "t_string_storage"
          }
        ]
      },
      "t_struct(TokenKey)42400_storage": {
        "encoding": "inplace",
        "label": "struct IHederaTokenService.TokenKey",
        "numberOfBytes": "160",
        "members": [
          {
            "astId": 42396,
            "contract": "src/HtsSystemContract.sol:HtsSystemContract",
            "label": "keyType",
            "offset": 0,
            "slot": "0",
            "type": "t_uint256"
          },
          {
            "astId": 42399,
            "contract": "src/HtsSystemContract.sol:HtsSystemContract",
            "label": "key",
            "offset": 0,
            "slot": "1",
            "type": "t_struct(KeyValue)42393_storage"
          }
        ]
      },
      "t_uint256": {
        "encoding": "inplace",
        "label": "uint256",
        "numberOfBytes": "32"
      }
    }
  },
  "id": 33
}