{
    "abi": [
        {
            "type": "fallback",
            "stateMutability": "nonpayable"
        },
        {
            "type": "function",
            "name": "_transferAsHTS",
            "inputs": [
                {
                    "name": "from",
                    "type": "address",
                    "internalType": "address"
                },
                {
                    "name": "to",
                    "type": "address",
                    "internalType": "address"
                },
                {
                    "name": "amount",
                    "type": "uint256",
                    "internalType": "uint256"
                }
            ],
            "outputs": [],
            "stateMutability": "nonpayable"
        },
        {
            "type": "function",
            "name": "_update",
            "inputs": [
                {
                    "name": "from",
                    "type": "address",
                    "internalType": "address"
                },
                {
                    "name": "to",
                    "type": "address",
                    "internalType": "address"
                },
                {
                    "name": "amount",
                    "type": "uint256",
                    "internalType": "uint256"
                }
            ],
            "outputs": [],
            "stateMutability": "nonpayable"
        },
        {
            "type": "function",
            "name": "associateToken",
            "inputs": [
                {
                    "name": "account",
                    "type": "address",
                    "internalType": "address"
                },
                {
                    "name": "token",
                    "type": "address",
                    "internalType": "address"
                }
            ],
            "outputs": [
                {
                    "name": "responseCode",
                    "type": "int64",
                    "internalType": "int64"
                }
            ],
            "stateMutability": "nonpayable"
        },
        {
            "type": "function",
            "name": "associateTokens",
            "inputs": [
                {
                    "name": "account",
                    "type": "address",
                    "internalType": "address"
                },
                {
                    "name": "tokens",
                    "type": "address[]",
                    "internalType": "address[]"
                }
            ],
            "outputs": [
                {
                    "name": "responseCode",
                    "type": "int64",
                    "internalType": "int64"
                }
            ],
            "stateMutability": "nonpayable"
        },
        {
            "type": "function",
            "name": "burnToken",
            "inputs": [
                {
                    "name": "token",
                    "type": "address",
                    "internalType": "address"
                },
                {
                    "name": "amount",
                    "type": "int64",
                    "internalType": "int64"
                },
                {
                    "name": "",
                    "type": "int64[]",
                    "internalType": "int64[]"
                }
            ],
            "outputs": [
                {
                    "name": "responseCode",
                    "type": "int64",
                    "internalType": "int64"
                },
                {
                    "name": "newTotalSupply",
                    "type": "int64",
                    "internalType": "int64"
                }
            ],
            "stateMutability": "nonpayable"
        },
        {
            "type": "function",
            "name": "dissociateToken",
            "inputs": [
                {
                    "name": "account",
                    "type": "address",
                    "internalType": "address"
                },
                {
                    "name": "token",
                    "type": "address",
                    "internalType": "address"
                }
            ],
            "outputs": [
                {
                    "name": "responseCode",
                    "type": "int64",
                    "internalType": "int64"
                }
            ],
            "stateMutability": "nonpayable"
        },
        {
            "type": "function",
            "name": "dissociateTokens",
            "inputs": [
                {
                    "name": "account",
                    "type": "address",
                    "internalType": "address"
                },
                {
                    "name": "tokens",
                    "type": "address[]",
                    "internalType": "address[]"
                }
            ],
            "outputs": [
                {
                    "name": "responseCode",
                    "type": "int64",
                    "internalType": "int64"
                }
            ],
            "stateMutability": "nonpayable"
        },
        {
            "type": "function",
            "name": "getAccountId",
            "inputs": [
                {
                    "name": "account",
                    "type": "address",
                    "internalType": "address"
                }
            ],
            "outputs": [
                {
                    "name": "accountId",
                    "type": "uint32",
                    "internalType": "uint32"
                }
            ],
            "stateMutability": "view"
        },
        {
            "type": "function",
            "name": "getApproved",
            "inputs": [
                {
                    "name": "token",
                    "type": "address",
                    "internalType": "address"
                },
                {
                    "name": "serialNumber",
                    "type": "uint256",
                    "internalType": "uint256"
                }
            ],
            "outputs": [
                {
                    "name": "responseCode",
                    "type": "int64",
                    "internalType": "int64"
                },
                {
                    "name": "approved",
                    "type": "address",
                    "internalType": "address"
                }
            ],
            "stateMutability": "view"
        },
        {
            "type": "function",
            "name": "getFungibleTokenInfo",
            "inputs": [
                {
                    "name": "token",
                    "type": "address",
                    "internalType": "address"
                }
            ],
            "outputs": [
                {
                    "name": "",
                    "type": "int64",
                    "internalType": "int64"
                },
                {
                    "name": "",
                    "type": "tuple",
                    "internalType": "struct IHederaTokenService.FungibleTokenInfo",
                    "components": [
                        {
                            "name": "tokenInfo",
                            "type": "tuple",
                            "internalType": "struct IHederaTokenService.TokenInfo",
                            "components": [
                                {
                                    "name": "token",
                                    "type": "tuple",
                                    "internalType": "struct IHederaTokenService.HederaToken",
                                    "components": [
                                        {
                                            "name": "name",
                                            "type": "string",
                                            "internalType": "string"
                                        },
                                        {
                                            "name": "symbol",
                                            "type": "string",
                                            "internalType": "string"
                                        },
                                        {
                                            "name": "treasury",
                                            "type": "address",
                                            "internalType": "address"
                                        },
                                        {
                                            "name": "memo",
                                            "type": "string",
                                            "internalType": "string"
                                        },
                                        {
                                            "name": "tokenSupplyType",
                                            "type": "bool",
                                            "internalType": "bool"
                                        },
                                        {
                                            "name": "maxSupply",
                                            "type": "int64",
                                            "internalType": "int64"
                                        },
                                        {
                                            "name": "freezeDefault",
                                            "type": "bool",
                                            "internalType": "bool"
                                        },
                                        {
                                            "name": "tokenKeys",
                                            "type": "tuple[]",
                                            "internalType": "struct IHederaTokenService.TokenKey[]",
                                            "components": [
                                                {
                                                    "name": "keyType",
                                                    "type": "uint256",
                                                    "internalType": "uint256"
                                                },
                                                {
                                                    "name": "key",
                                                    "type": "tuple",
                                                    "internalType": "struct IHederaTokenService.KeyValue",
                                                    "components": [
                                                        {
                                                            "name": "inheritAccountKey",
                                                            "type": "bool",
                                                            "internalType": "bool"
                                                        },
                                                        {
                                                            "name": "contractId",
                                                            "type": "address",
                                                            "internalType": "address"
                                                        },
                                                        {
                                                            "name": "ed25519",
                                                            "type": "bytes",
                                                            "internalType": "bytes"
                                                        },
                                                        {
                                                            "name": "ECDSA_secp256k1",
                                                            "type": "bytes",
                                                            "internalType": "bytes"
                                                        },
                                                        {
                                                            "name": "delegatableContractId",
                                                            "type": "address",
                                                            "internalType": "address"
                                                        }
                                                    ]
                                                }
                                            ]
                                        },
                                        {
                                            "name": "expiry",
                                            "type": "tuple",
                                            "internalType": "struct IHederaTokenService.Expiry",
                                            "components": [
                                                {
                                                    "name": "second",
                                                    "type": "int64",
                                                    "internalType": "int64"
                                                },
                                                {
                                                    "name": "autoRenewAccount",
                                                    "type": "address",
                                                    "internalType": "address"
                                                },
                                                {
                                                    "name": "autoRenewPeriod",
                                                    "type": "int64",
                                                    "internalType": "int64"
                                                }
                                            ]
                                        }
                                    ]
                                },
                                {
                                    "name": "totalSupply",
                                    "type": "int64",
                                    "internalType": "int64"
                                },
                                {
                                    "name": "deleted",
                                    "type": "bool",
                                    "internalType": "bool"
                                },
                                {
                                    "name": "defaultKycStatus",
                                    "type": "bool",
                                    "internalType": "bool"
                                },
                                {
                                    "name": "pauseStatus",
                                    "type": "bool",
                                    "internalType": "bool"
                                },
                                {
                                    "name": "fixedFees",
                                    "type": "tuple[]",
                                    "internalType": "struct IHederaTokenService.FixedFee[]",
                                    "components": [
                                        {
                                            "name": "amount",
                                            "type": "int64",
                                            "internalType": "int64"
                                        },
                                        {
                                            "name": "tokenId",
                                            "type": "address",
                                            "internalType": "address"
                                        },
                                        {
                                            "name": "useHbarsForPayment",
                                            "type": "bool",
                                            "internalType": "bool"
                                        },
                                        {
                                            "name": "useCurrentTokenForPayment",
                                            "type": "bool",
                                            "internalType": "bool"
                                        },
                                        {
                                            "name": "feeCollector",
                                            "type": "address",
                                            "internalType": "address"
                                        }
                                    ]
                                },
                                {
                                    "name": "fractionalFees",
                                    "type": "tuple[]",
                                    "internalType": "struct IHederaTokenService.FractionalFee[]",
                                    "components": [
                                        {
                                            "name": "numerator",
                                            "type": "int64",
                                            "internalType": "int64"
                                        },
                                        {
                                            "name": "denominator",
                                            "type": "int64",
                                            "internalType": "int64"
                                        },
                                        {
                                            "name": "minimumAmount",
                                            "type": "int64",
                                            "internalType": "int64"
                                        },
                                        {
                                            "name": "maximumAmount",
                                            "type": "int64",
                                            "internalType": "int64"
                                        },
                                        {
                                            "name": "netOfTransfers",
                                            "type": "bool",
                                            "internalType": "bool"
                                        },
                                        {
                                            "name": "feeCollector",
                                            "type": "address",
                                            "internalType": "address"
                                        }
                                    ]
                                },
                                {
                                    "name": "royaltyFees",
                                    "type": "tuple[]",
                                    "internalType": "struct IHederaTokenService.RoyaltyFee[]",
                                    "components": [
                                        {
                                            "name": "numerator",
                                            "type": "int64",
                                            "internalType": "int64"
                                        },
                                        {
                                            "name": "denominator",
                                            "type": "int64",
                                            "internalType": "int64"
                                        },
                                        {
                                            "name": "amount",
                                            "type": "int64",
                                            "internalType": "int64"
                                        },
                                        {
                                            "name": "tokenId",
                                            "type": "address",
                                            "internalType": "address"
                                        },
                                        {
                                            "name": "useHbarsForPayment",
                                            "type": "bool",
                                            "internalType": "bool"
                                        },
                                        {
                                            "name": "feeCollector",
                                            "type": "address",
                                            "internalType": "address"
                                        }
                                    ]
                                },
                                {
                                    "name": "ledgerId",
                                    "type": "string",
                                    "internalType": "string"
                                }
                            ]
                        },
                        {
                            "name": "decimals",
                            "type": "int32",
                            "internalType": "int32"
                        }
                    ]
                }
            ],
            "stateMutability": "nonpayable"
        },
        {
            "type": "function",
            "name": "getNonFungibleTokenInfo",
            "inputs": [
                {
                    "name": "token",
                    "type": "address",
                    "internalType": "address"
                },
                {
                    "name": "serialNumber",
                    "type": "int64",
                    "internalType": "int64"
                }
            ],
            "outputs": [
                {
                    "name": "",
                    "type": "int64",
                    "internalType": "int64"
                },
                {
                    "name": "",
                    "type": "tuple",
                    "internalType": "struct IHederaTokenService.NonFungibleTokenInfo",
                    "components": [
                        {
                            "name": "tokenInfo",
                            "type": "tuple",
                            "internalType": "struct IHederaTokenService.TokenInfo",
                            "components": [
                                {
                                    "name": "token",
                                    "type": "tuple",
                                    "internalType": "struct IHederaTokenService.HederaToken",
                                    "components": [
                                        {
                                            "name": "name",
                                            "type": "string",
                                            "internalType": "string"
                                        },
                                        {
                                            "name": "symbol",
                                            "type": "string",
                                            "internalType": "string"
                                        },
                                        {
                                            "name": "treasury",
                                            "type": "address",
                                            "internalType": "address"
                                        },
                                        {
                                            "name": "memo",
                                            "type": "string",
                                            "internalType": "string"
                                        },
                                        {
                                            "name": "tokenSupplyType",
                                            "type": "bool",
                                            "internalType": "bool"
                                        },
                                        {
                                            "name": "maxSupply",
                                            "type": "int64",
                                            "internalType": "int64"
                                        },
                                        {
                                            "name": "freezeDefault",
                                            "type": "bool",
                                            "internalType": "bool"
                                        },
                                        {
                                            "name": "tokenKeys",
                                            "type": "tuple[]",
                                            "internalType": "struct IHederaTokenService.TokenKey[]",
                                            "components": [
                                                {
                                                    "name": "keyType",
                                                    "type": "uint256",
                                                    "internalType": "uint256"
                                                },
                                                {
                                                    "name": "key",
                                                    "type": "tuple",
                                                    "internalType": "struct IHederaTokenService.KeyValue",
                                                    "components": [
                                                        {
                                                            "name": "inheritAccountKey",
                                                            "type": "bool",
                                                            "internalType": "bool"
                                                        },
                                                        {
                                                            "name": "contractId",
                                                            "type": "address",
                                                            "internalType": "address"
                                                        },
                                                        {
                                                            "name": "ed25519",
                                                            "type": "bytes",
                                                            "internalType": "bytes"
                                                        },
                                                        {
                                                            "name": "ECDSA_secp256k1",
                                                            "type": "bytes",
                                                            "internalType": "bytes"
                                                        },
                                                        {
                                                            "name": "delegatableContractId",
                                                            "type": "address",
                                                            "internalType": "address"
                                                        }
                                                    ]
                                                }
                                            ]
                                        },
                                        {
                                            "name": "expiry",
                                            "type": "tuple",
                                            "internalType": "struct IHederaTokenService.Expiry",
                                            "components": [
                                                {
                                                    "name": "second",
                                                    "type": "int64",
                                                    "internalType": "int64"
                                                },
                                                {
                                                    "name": "autoRenewAccount",
                                                    "type": "address",
                                                    "internalType": "address"
                                                },
                                                {
                                                    "name": "autoRenewPeriod",
                                                    "type": "int64",
                                                    "internalType": "int64"
                                                }
                                            ]
                                        }
                                    ]
                                },
                                {
                                    "name": "totalSupply",
                                    "type": "int64",
                                    "internalType": "int64"
                                },
                                {
                                    "name": "deleted",
                                    "type": "bool",
                                    "internalType": "bool"
                                },
                                {
                                    "name": "defaultKycStatus",
                                    "type": "bool",
                                    "internalType": "bool"
                                },
                                {
                                    "name": "pauseStatus",
                                    "type": "bool",
                                    "internalType": "bool"
                                },
                                {
                                    "name": "fixedFees",
                                    "type": "tuple[]",
                                    "internalType": "struct IHederaTokenService.FixedFee[]",
                                    "components": [
                                        {
                                            "name": "amount",
                                            "type": "int64",
                                            "internalType": "int64"
                                        },
                                        {
                                            "name": "tokenId",
                                            "type": "address",
                                            "internalType": "address"
                                        },
                                        {
                                            "name": "useHbarsForPayment",
                                            "type": "bool",
                                            "internalType": "bool"
                                        },
                                        {
                                            "name": "useCurrentTokenForPayment",
                                            "type": "bool",
                                            "internalType": "bool"
                                        },
                                        {
                                            "name": "feeCollector",
                                            "type": "address",
                                            "internalType": "address"
                                        }
                                    ]
                                },
                                {
                                    "name": "fractionalFees",
                                    "type": "tuple[]",
                                    "internalType": "struct IHederaTokenService.FractionalFee[]",
                                    "components": [
                                        {
                                            "name": "numerator",
                                            "type": "int64",
                                            "internalType": "int64"
                                        },
                                        {
                                            "name": "denominator",
                                            "type": "int64",
                                            "internalType": "int64"
                                        },
                                        {
                                            "name": "minimumAmount",
                                            "type": "int64",
                                            "internalType": "int64"
                                        },
                                        {
                                            "name": "maximumAmount",
                                            "type": "int64",
                                            "internalType": "int64"
                                        },
                                        {
                                            "name": "netOfTransfers",
                                            "type": "bool",
                                            "internalType": "bool"
                                        },
                                        {
                                            "name": "feeCollector",
                                            "type": "address",
                                            "internalType": "address"
                                        }
                                    ]
                                },
                                {
                                    "name": "royaltyFees",
                                    "type": "tuple[]",
                                    "internalType": "struct IHederaTokenService.RoyaltyFee[]",
                                    "components": [
                                        {
                                            "name": "numerator",
                                            "type": "int64",
                                            "internalType": "int64"
                                        },
                                        {
                                            "name": "denominator",
                                            "type": "int64",
                                            "internalType": "int64"
                                        },
                                        {
                                            "name": "amount",
                                            "type": "int64",
                                            "internalType": "int64"
                                        },
                                        {
                                            "name": "tokenId",
                                            "type": "address",
                                            "internalType": "address"
                                        },
                                        {
                                            "name": "useHbarsForPayment",
                                            "type": "bool",
                                            "internalType": "bool"
                                        },
                                        {
                                            "name": "feeCollector",
                                            "type": "address",
                                            "internalType": "address"
                                        }
                                    ]
                                },
                                {
                                    "name": "ledgerId",
                                    "type": "string",
                                    "internalType": "string"
                                }
                            ]
                        },
                        {
                            "name": "serialNumber",
                            "type": "int64",
                            "internalType": "int64"
                        },
                        {
                            "name": "ownerId",
                            "type": "address",
                            "internalType": "address"
                        },
                        {
                            "name": "creationTime",
                            "type": "int64",
                            "internalType": "int64"
                        },
                        {
                            "name": "metadata",
                            "type": "bytes",
                            "internalType": "bytes"
                        },
                        {
                            "name": "spenderId",
                            "type": "address",
                            "internalType": "address"
                        }
                    ]
                }
            ],
            "stateMutability": "nonpayable"
        },
        {
            "type": "function",
            "name": "getTokenCustomFees",
            "inputs": [
                {
                    "name": "token",
                    "type": "address",
                    "internalType": "address"
                }
            ],
            "outputs": [
                {
                    "name": "",
                    "type": "int64",
                    "internalType": "int64"
                },
                {
                    "name": "",
                    "type": "tuple[]",
                    "internalType": "struct IHederaTokenService.FixedFee[]",
                    "components": [
                        {
                            "name": "amount",
                            "type": "int64",
                            "internalType": "int64"
                        },
                        {
                            "name": "tokenId",
                            "type": "address",
                            "internalType": "address"
                        },
                        {
                            "name": "useHbarsForPayment",
                            "type": "bool",
                            "internalType": "bool"
                        },
                        {
                            "name": "useCurrentTokenForPayment",
                            "type": "bool",
                            "internalType": "bool"
                        },
                        {
                            "name": "feeCollector",
                            "type": "address",
                            "internalType": "address"
                        }
                    ]
                },
                {
                    "name": "",
                    "type": "tuple[]",
                    "internalType": "struct IHederaTokenService.FractionalFee[]",
                    "components": [
                        {
                            "name": "numerator",
                            "type": "int64",
                            "internalType": "int64"
                        },
                        {
                            "name": "denominator",
                            "type": "int64",
                            "internalType": "int64"
                        },
                        {
                            "name": "minimumAmount",
                            "type": "int64",
                            "internalType": "int64"
                        },
                        {
                            "name": "maximumAmount",
                            "type": "int64",
                            "internalType": "int64"
                        },
                        {
                            "name": "netOfTransfers",
                            "type": "bool",
                            "internalType": "bool"
                        },
                        {
                            "name": "feeCollector",
                            "type": "address",
                            "internalType": "address"
                        }
                    ]
                },
                {
                    "name": "",
                    "type": "tuple[]",
                    "internalType": "struct IHederaTokenService.RoyaltyFee[]",
                    "components": [
                        {
                            "name": "numerator",
                            "type": "int64",
                            "internalType": "int64"
                        },
                        {
                            "name": "denominator",
                            "type": "int64",
                            "internalType": "int64"
                        },
                        {
                            "name": "amount",
                            "type": "int64",
                            "internalType": "int64"
                        },
                        {
                            "name": "tokenId",
                            "type": "address",
                            "internalType": "address"
                        },
                        {
                            "name": "useHbarsForPayment",
                            "type": "bool",
                            "internalType": "bool"
                        },
                        {
                            "name": "feeCollector",
                            "type": "address",
                            "internalType": "address"
                        }
                    ]
                }
            ],
            "stateMutability": "nonpayable"
        },
        {
            "type": "function",
            "name": "getTokenDefaultFreezeStatus",
            "inputs": [
                {
                    "name": "token",
                    "type": "address",
                    "internalType": "address"
                }
            ],
            "outputs": [
                {
                    "name": "",
                    "type": "int64",
                    "internalType": "int64"
                },
                {
                    "name": "",
                    "type": "bool",
                    "internalType": "bool"
                }
            ],
            "stateMutability": "nonpayable"
        },
        {
            "type": "function",
            "name": "getTokenDefaultKycStatus",
            "inputs": [
                {
                    "name": "token",
                    "type": "address",
                    "internalType": "address"
                }
            ],
            "outputs": [
                {
                    "name": "",
                    "type": "int64",
                    "internalType": "int64"
                },
                {
                    "name": "",
                    "type": "bool",
                    "internalType": "bool"
                }
            ],
            "stateMutability": "nonpayable"
        },
        {
            "type": "function",
            "name": "getTokenExpiryInfo",
            "inputs": [
                {
                    "name": "token",
                    "type": "address",
                    "internalType": "address"
                }
            ],
            "outputs": [
                {
                    "name": "responseCode",
                    "type": "int64",
                    "internalType": "int64"
                },
                {
                    "name": "tokenInfo",
                    "type": "tuple",
                    "internalType": "struct IHederaTokenService.Expiry",
                    "components": [
                        {
                            "name": "second",
                            "type": "int64",
                            "internalType": "int64"
                        },
                        {
                            "name": "autoRenewAccount",
                            "type": "address",
                            "internalType": "address"
                        },
                        {
                            "name": "autoRenewPeriod",
                            "type": "int64",
                            "internalType": "int64"
                        }
                    ]
                }
            ],
            "stateMutability": "nonpayable"
        },
        {
            "type": "function",
            "name": "getTokenInfo",
            "inputs": [
                {
                    "name": "token",
                    "type": "address",
                    "internalType": "address"
                }
            ],
            "outputs": [
                {
                    "name": "responseCode",
                    "type": "int64",
                    "internalType": "int64"
                },
                {
                    "name": "tokenInfo",
                    "type": "tuple",
                    "internalType": "struct IHederaTokenService.TokenInfo",
                    "components": [
                        {
                            "name": "token",
                            "type": "tuple",
                            "internalType": "struct IHederaTokenService.HederaToken",
                            "components": [
                                {
                                    "name": "name",
                                    "type": "string",
                                    "internalType": "string"
                                },
                                {
                                    "name": "symbol",
                                    "type": "string",
                                    "internalType": "string"
                                },
                                {
                                    "name": "treasury",
                                    "type": "address",
                                    "internalType": "address"
                                },
                                {
                                    "name": "memo",
                                    "type": "string",
                                    "internalType": "string"
                                },
                                {
                                    "name": "tokenSupplyType",
                                    "type": "bool",
                                    "internalType": "bool"
                                },
                                {
                                    "name": "maxSupply",
                                    "type": "int64",
                                    "internalType": "int64"
                                },
                                {
                                    "name": "freezeDefault",
                                    "type": "bool",
                                    "internalType": "bool"
                                },
                                {
                                    "name": "tokenKeys",
                                    "type": "tuple[]",
                                    "internalType": "struct IHederaTokenService.TokenKey[]",
                                    "components": [
                                        {
                                            "name": "keyType",
                                            "type": "uint256",
                                            "internalType": "uint256"
                                        },
                                        {
                                            "name": "key",
                                            "type": "tuple",
                                            "internalType": "struct IHederaTokenService.KeyValue",
                                            "components": [
                                                {
                                                    "name": "inheritAccountKey",
                                                    "type": "bool",
                                                    "internalType": "bool"
                                                },
                                                {
                                                    "name": "contractId",
                                                    "type": "address",
                                                    "internalType": "address"
                                                },
                                                {
                                                    "name": "ed25519",
                                                    "type": "bytes",
                                                    "internalType": "bytes"
                                                },
                                                {
                                                    "name": "ECDSA_secp256k1",
                                                    "type": "bytes",
                                                    "internalType": "bytes"
                                                },
                                                {
                                                    "name": "delegatableContractId",
                                                    "type": "address",
                                                    "internalType": "address"
                                                }
                                            ]
                                        }
                                    ]
                                },
                                {
                                    "name": "expiry",
                                    "type": "tuple",
                                    "internalType": "struct IHederaTokenService.Expiry",
                                    "components": [
                                        {
                                            "name": "second",
                                            "type": "int64",
                                            "internalType": "int64"
                                        },
                                        {
                                            "name": "autoRenewAccount",
                                            "type": "address",
                                            "internalType": "address"
                                        },
                                        {
                                            "name": "autoRenewPeriod",
                                            "type": "int64",
                                            "internalType": "int64"
                                        }
                                    ]
                                }
                            ]
                        },
                        {
                            "name": "totalSupply",
                            "type": "int64",
                            "internalType": "int64"
                        },
                        {
                            "name": "deleted",
                            "type": "bool",
                            "internalType": "bool"
                        },
                        {
                            "name": "defaultKycStatus",
                            "type": "bool",
                            "internalType": "bool"
                        },
                        {
                            "name": "pauseStatus",
                            "type": "bool",
                            "internalType": "bool"
                        },
                        {
                            "name": "fixedFees",
                            "type": "tuple[]",
                            "internalType": "struct IHederaTokenService.FixedFee[]",
                            "components": [
                                {
                                    "name": "amount",
                                    "type": "int64",
                                    "internalType": "int64"
                                },
                                {
                                    "name": "tokenId",
                                    "type": "address",
                                    "internalType": "address"
                                },
                                {
                                    "name": "useHbarsForPayment",
                                    "type": "bool",
                                    "internalType": "bool"
                                },
                                {
                                    "name": "useCurrentTokenForPayment",
                                    "type": "bool",
                                    "internalType": "bool"
                                },
                                {
                                    "name": "feeCollector",
                                    "type": "address",
                                    "internalType": "address"
                                }
                            ]
                        },
                        {
                            "name": "fractionalFees",
                            "type": "tuple[]",
                            "internalType": "struct IHederaTokenService.FractionalFee[]",
                            "components": [
                                {
                                    "name": "numerator",
                                    "type": "int64",
                                    "internalType": "int64"
                                },
                                {
                                    "name": "denominator",
                                    "type": "int64",
                                    "internalType": "int64"
                                },
                                {
                                    "name": "minimumAmount",
                                    "type": "int64",
                                    "internalType": "int64"
                                },
                                {
                                    "name": "maximumAmount",
                                    "type": "int64",
                                    "internalType": "int64"
                                },
                                {
                                    "name": "netOfTransfers",
                                    "type": "bool",
                                    "internalType": "bool"
                                },
                                {
                                    "name": "feeCollector",
                                    "type": "address",
                                    "internalType": "address"
                                }
                            ]
                        },
                        {
                            "name": "royaltyFees",
                            "type": "tuple[]",
                            "internalType": "struct IHederaTokenService.RoyaltyFee[]",
                            "components": [
                                {
                                    "name": "numerator",
                                    "type": "int64",
                                    "internalType": "int64"
                                },
                                {
                                    "name": "denominator",
                                    "type": "int64",
                                    "internalType": "int64"
                                },
                                {
                                    "name": "amount",
                                    "type": "int64",
                                    "internalType": "int64"
                                },
                                {
                                    "name": "tokenId",
                                    "type": "address",
                                    "internalType": "address"
                                },
                                {
                                    "name": "useHbarsForPayment",
                                    "type": "bool",
                                    "internalType": "bool"
                                },
                                {
                                    "name": "feeCollector",
                                    "type": "address",
                                    "internalType": "address"
                                }
                            ]
                        },
                        {
                            "name": "ledgerId",
                            "type": "string",
                            "internalType": "string"
                        }
                    ]
                }
            ],
            "stateMutability": "nonpayable"
        },
        {
            "type": "function",
            "name": "getTokenKey",
            "inputs": [
                {
                    "name": "token",
                    "type": "address",
                    "internalType": "address"
                },
                {
                    "name": "keyType",
                    "type": "uint256",
                    "internalType": "uint256"
                }
            ],
            "outputs": [
                {
                    "name": "",
                    "type": "int64",
                    "internalType": "int64"
                },
                {
                    "name": "",
                    "type": "tuple",
                    "internalType": "struct IHederaTokenService.KeyValue",
                    "components": [
                        {
                            "name": "inheritAccountKey",
                            "type": "bool",
                            "internalType": "bool"
                        },
                        {
                            "name": "contractId",
                            "type": "address",
                            "internalType": "address"
                        },
                        {
                            "name": "ed25519",
                            "type": "bytes",
                            "internalType": "bytes"
                        },
                        {
                            "name": "ECDSA_secp256k1",
                            "type": "bytes",
                            "internalType": "bytes"
                        },
                        {
                            "name": "delegatableContractId",
                            "type": "address",
                            "internalType": "address"
                        }
                    ]
                }
            ],
            "stateMutability": "nonpayable"
        },
        {
            "type": "function",
            "name": "getTokenType",
            "inputs": [
                {
                    "name": "token",
                    "type": "address",
                    "internalType": "address"
                }
            ],
            "outputs": [
                {
                    "name": "",
                    "type": "int64",
                    "internalType": "int64"
                },
                {
                    "name": "",
                    "type": "int32",
                    "internalType": "int32"
                }
            ],
            "stateMutability": "nonpayable"
        },
        {
            "type": "function",
            "name": "isApprovedForAll",
            "inputs": [
                {
                    "name": "token",
                    "type": "address",
                    "internalType": "address"
                },
                {
                    "name": "owner",
                    "type": "address",
                    "internalType": "address"
                },
                {
                    "name": "operator",
                    "type": "address",
                    "internalType": "address"
                }
            ],
            "outputs": [
                {
                    "name": "",
                    "type": "int64",
                    "internalType": "int64"
                },
                {
                    "name": "",
                    "type": "bool",
                    "internalType": "bool"
                }
            ],
            "stateMutability": "view"
        },
        {
            "type": "function",
            "name": "isToken",
            "inputs": [
                {
                    "name": "token",
                    "type": "address",
                    "internalType": "address"
                }
            ],
            "outputs": [
                {
                    "name": "",
                    "type": "int64",
                    "internalType": "int64"
                },
                {
                    "name": "",
                    "type": "bool",
                    "internalType": "bool"
                }
            ],
            "stateMutability": "nonpayable"
        },
        {
            "type": "function",
            "name": "mintToken",
            "inputs": [
                {
                    "name": "token",
                    "type": "address",
                    "internalType": "address"
                },
                {
                    "name": "amount",
                    "type": "int64",
                    "internalType": "int64"
                },
                {
                    "name": "",
                    "type": "bytes[]",
                    "internalType": "bytes[]"
                }
            ],
            "outputs": [
                {
                    "name": "responseCode",
                    "type": "int64",
                    "internalType": "int64"
                },
                {
                    "name": "newTotalSupply",
                    "type": "int64",
                    "internalType": "int64"
                },
                {
                    "name": "serialNumbers",
                    "type": "int64[]",
                    "internalType": "int64[]"
                }
            ],
            "stateMutability": "nonpayable"
        },
        {
            "type": "function",
            "name": "transferToken",
            "inputs": [
                {
                    "name": "token",
                    "type": "address",
                    "internalType": "address"
                },
                {
                    "name": "sender",
                    "type": "address",
                    "internalType": "address"
                },
                {
                    "name": "recipient",
                    "type": "address",
                    "internalType": "address"
                },
                {
                    "name": "amount",
                    "type": "int64",
                    "internalType": "int64"
                }
            ],
            "outputs": [
                {
                    "name": "responseCode",
                    "type": "int64",
                    "internalType": "int64"
                }
            ],
            "stateMutability": "nonpayable"
        },
        {
            "type": "function",
            "name": "transferTokens",
            "inputs": [
                {
                    "name": "token",
                    "type": "address",
                    "internalType": "address"
                },
                {
                    "name": "accountId",
                    "type": "address[]",
                    "internalType": "address[]"
                },
                {
                    "name": "amount",
                    "type": "int64[]",
                    "internalType": "int64[]"
                }
            ],
            "outputs": [
                {
                    "name": "responseCode",
                    "type": "int64",
                    "internalType": "int64"
                }
            ],
            "stateMutability": "nonpayable"
        },
        {
            "type": "event",
            "name": "Approval",
            "inputs": [
                {
                    "name": "owner",
                    "type": "address",
                    "indexed": true,
                    "internalType": "address"
                },
                {
                    "name": "spender",
                    "type": "address",
                    "indexed": true,
                    "internalType": "address"
                },
                {
                    "name": "amount",
                    "type": "uint256",
                    "indexed": false,
                    "internalType": "uint256"
                }
            ],
            "anonymous": false
        },
        {
            "type": "event",
            "name": "ApprovalForAll",
            "inputs": [
                {
                    "name": "owner",
                    "type": "address",
                    "indexed": true,
                    "internalType": "address"
                },
                {
                    "name": "operator",
                    "type": "address",
                    "indexed": true,
                    "internalType": "address"
                },
                {
                    "name": "approved",
                    "type": "bool",
                    "indexed": false,
                    "internalType": "bool"
                }
            ],
            "anonymous": false
        },
        {
            "type": "event",
            "name": "Transfer",
            "inputs": [
                {
                    "name": "from",
                    "type": "address",
                    "indexed": true,
                    "internalType": "address"
                },
                {
                    "name": "to",
                    "type": "address",
                    "indexed": true,
                    "internalType": "address"
                },
                {
                    "name": "amount",
                    "type": "uint256",
                    "indexed": false,
                    "internalType": "uint256"
                }
            ],
            "anonymous": false
        }
    ],
    "bytecode": {
        "object": "0x6080604052348015600e575f5ffd5b506164538061001c5f395ff3fe608060405234801561000f575f5ffd5b506004361061014b575f3560e01c806349146bde116100c1578063d614cdb81161007a578063d614cdb814610494578063d6910d06146104b5578063e0b490f7146104e2578063e0f4059a1461050a578063eca369171461052c578063f49f40db1461053f5761014b565b806349146bde146103f557806378b639181461040857806382bba4931461041b57806393272baf1461042e578063a7daa18d1461045e578063ae7611a0146104715761014b565b8063287e1da811610113578063287e1da8146103595780632e63879b1461037a5780632fc98c7d1461038d578063335e04c1146103a05780633c4dd32e146103b35780633f28a19b146103d45761014b565b8063098f236614610296578063099794e8146102d05780630bb3bfa8146102f657806319f373611461030b5780631f69565f14610338575b5f366060601c8210156101a55760405162461bcd60e51b815260206004820152601d60248201527f66616c6c6261636b3a206e6f7420656e6f7567682063616c6c6461746100000060448201526064015b60405180910390fd5b5f6101b36004823681614709565b6101bc91614730565b60e01c905063618dc65e81146102145760405162461bcd60e51b815260206004820152601e60248201527f66616c6c6261636b3a20756e737570706f727465642073656c6563746f720000604482015260640161019c565b5f610223601860043684614709565b61022c91614768565b60601c90503081146102805760405162461bcd60e51b815260206004820152601d60248201527f66616c6c6261636b3a20746f6b656e206973206e6f742063616c6c6572000000604482015260640161019c565b610288610552565b805195506020019350505050f35b6102a96102a43660046147b5565b610efa565b6040805160079390930b83526001600160a01b039091166020830152015b60405180910390f35b6102e36102de3660046147df565b610fe8565b60405160079190910b81526020016102c7565b610309610304366004614816565b611072565b005b61031e610319366004614854565b611150565b6040805160079390930b83529015156020830152016102c7565b61034b610346366004614854565b611211565b6040516102c7929190614cd6565b61036c610367366004614cff565b611305565b6040516102c7929190614d2b565b6102e3610388366004614f24565b61158c565b61030961039b366004614816565b611867565b61031e6103ae366004614854565b6119a4565b6103c66103c13660046147b5565b611aa0565b6040516102c7929190614f70565b6103e76103e2366004614854565b611c7f565b6040516102c7929190614f8b565b6102e36104033660046147df565b611e6a565b6102e3610416366004614f24565b611eea565b6102e361042936600461502c565b6121be565b61044161043c366004614854565b61234a565b6040805160079390930b835260039190910b6020830152016102c7565b61031e61046c366004614854565b61242a565b61048461047f366004614854565b6124e5565b6040516102c794939291906150a0565b6104a76104a2366004614854565b6125e4565b6040516102c79291906150e1565b6104c86104c336600461511d565b6126e8565b60408051600793840b81529190920b6020820152016102c7565b6104f56104f0366004614854565b612a0f565b60405163ffffffff90911681526020016102c7565b61051d61051836600461518a565b612a89565b6040516102c79392919061529f565b6102e361053a3660046152fc565b612dc6565b61031e61054d366004615355565b612f2f565b60605f610563601c60183684614709565b61056c91614730565b905060408051808201825260098152681393d517d193d5539160ba1b602090910152517f7bafae6429a8b3ef0db181af7c5834a6f2b1af33146a1a9ae02e833d27f2431b906105bc905f90615443565b60405180910390200361061b5760405162461bcd60e51b815260206004820152602160248201527f7265646972656374466f72546f6b656e3a20746f6b656e206e6f7420666f756e6044820152601960fa1b606482015260840161019c565b610166193301610dc15763e096a9a160e01b6001600160e01b03198216016106c257601c3610156106985760405162461bcd60e51b815260206004820152602160248201527f676574546f6b656e496e666f3a204e6f7420656e6f7567682063616c6c6461746044820152606160f81b606482015260840161019c565b601660056040516020016106ad929190615806565b60405160208183030381529060405291505090565b63028c4f7360e51b6001600160e01b031982160161075657601c36101561073b5760405162461bcd60e51b815260206004820152602760248201527f676574546f6b656e437573746f6d466565733a204e6f7420656e6f7567682063604482015266616c6c6461746160c81b606482015260840161019c565b6040516106ad90601690600e90600f906010906020016158e3565b63cca1fb3f60e01b6001600160e01b03198216016107fc57601c3610156107d55760405162461bcd60e51b815260206004820152602d60248201527f676574546f6b656e44656661756c744b79635374617475733a204e6f7420656e60448201526c6f7567682063616c6c6461746160981b606482015260840161019c565b600d546040805160166020820152600160481b90920460ff161515908201526060016106ad565b6358255e7360e01b6001600160e01b03198216016108a557601c36101561087e5760405162461bcd60e51b815260206004820152603060248201527f676574546f6b656e44656661756c74467265657a655374617475733a204e6f7460448201526f20656e6f7567682063616c6c6461746160801b606482015260840161019c565b6009546040805160166020820152600160481b90920460ff161515908201526060016106ad565b63053d664960e31b6001600160e01b031982160161093357601c36101561091e5760405162461bcd60e51b815260206004820152602760248201527f676574546f6b656e457870697279496e666f3a204e6f7420656e6f7567682063604482015266616c6c6461746160c81b606482015260840161019c565b6040516106ad90601690600b90602001615924565b635b75ca1160e11b6001600160e01b03198216016109fa5760303610156109a85760405162461bcd60e51b815260206004820152602360248201527f6173736f6369617465546f6b656e3a204e6f7420656e6f7567682063616c6c6460448201526261746160e81b606482015260840161019c565b5f6109b7603c60283684614709565b6109c091614768565b60601c90505f6109cf82613028565b600181556040805160166020820152919250015b604051602081830303815290604052935050505090565b631ecd0d6360e31b6001600160e01b0319821601610aad576030361015610a6f5760405162461bcd60e51b8152602060048201526024808201527f646973736f6369617465546f6b656e3a204e6f7420656e6f7567682063616c6c6044820152636461746160e01b606482015260840161019c565b5f610a7e603c60283684614709565b610a8791614768565b60601c90505f610a9682613028565b5f81556040805160166020820152919250016109e3565b636cd8d45160e01b6001600160e01b0319821601610c0d57601c361015610b205760405162461bcd60e51b815260206004820152602160248201527f676574546f6b656e547970653a204e6f7420656e6f7567682063616c6c6461746044820152606160f81b606482015260840161019c565b7f20081d23699eb901ca16307080f9b35e7967740755a921f749a9e037b0875c755f604051602001610b529190615443565b6040516020818303038152906040528051906020012003610b885760408051601660208201525f918101919091526060016106ad565b7f6c58a12b113a1ee77f554495d8bd48a419af104bca196099cdecc39fcb8989f05f604051602001610bba9190615443565b6040516020818303038152906040528051906020012003610bf15760408051601660208201526001918101919091526060016106ad565b60408051601660208201525f19918101919091526060016106ad565b63d036738360e01b6001600160e01b0319821601610cf957607c361015610c765760405162461bcd60e51b815260206004820152601b60248201527f7570646174653a204e6f7420656e6f7567682063616c6c646174610000000000604482015260640161019c565b5f610c85603c60283684614709565b610c8e91614768565b60601c90505f610ca2605c60483684614709565b610cab91614768565b60601c90505f610cbf607c605c3684614709565b610cc891615960565b9050610cd5838383611867565b60408051600160208201520160405160208183030381529060405294505050505090565b631e89880b60e31b6001600160e01b0319821601610dc157607c361015610d625760405162461bcd60e51b815260206004820152601b60248201527f7570646174653a204e6f7420656e6f7567682063616c6c646174610000000000604482015260640161019c565b5f610d71603c60283684614709565b610d7a91614768565b60601c90505f610d8e605c60483684614709565b610d9791614768565b60601c90505f610dab607c605c3684614709565b610db491615960565b9050610cd5838383611072565b604080518082018252600f81526e232aa723a4a12622afa1a7a6a6a7a760891b602090910152517f20081d23699eb901ca16307080f9b35e7967740755a921f749a9e037b0875c7590610e15905f90615443565b604051809103902003610e3157610e2b816130d8565b91505090565b60408051808201825260138152724e4f4e5f46554e4749424c455f554e4951554560681b602090910152517f6c58a12b113a1ee77f554495d8bd48a419af104bca196099cdecc39fcb8989f090610e89905f90615443565b604051809103902003610e9f57610e2b8161360e565b60405162461bcd60e51b815260206004820152602a60248201527f7265646972656374466f72546f6b656e3a20746f6b656e2074797065206e6f74604482015269081cdd5c1c1bdc9d195960b21b606482015260840161019c565b5f803061016714610f1d5760405162461bcd60e51b815260040161019c9061597d565b6001600160a01b038416610f735760405162461bcd60e51b815260206004820152601a60248201527f676574417070726f7665643a20696e76616c696420746f6b656e000000000000604482015260640161019c565b60405163020604bf60e21b8152600481018490526016906001600160a01b0386169063081812fc90602401602060405180830381865afa158015610fb9573d5f5f3e3d5ffd5b505050506040513d601f19601f82011682018060405250810190610fdd91906159c4565b909590945092505050565b5f306101671461100a5760405162461bcd60e51b815260040161019c9061597d565b6040805160018082528183019092525f916020808301908036833701905050905082815f8151811061103e5761103e6159df565b60200260200101906001600160a01b031690816001600160a01b0316815250506110688482611eea565b9150505b92915050565b6001600160a01b03831661109c578060045f8282546110919190615a07565b909155506111019050565b5f6110a684613be0565b8054909150828110156110fb5760405162461bcd60e51b815260206004820152601f60248201527f5f7472616e736665723a20696e73756666696369656e742062616c616e636500604482015260640161019c565b82900390555b6001600160a01b03821661112b578060045f8282546111209190615a1a565b9091555061114b9050565b5f61113583613be0565b80549091505f6111458483615a07565b90925550505b505050565b6040516001600160a01b03821660248201525f908190819060440160408051601f198184030181529181526020820180516001600160e01b03166393272baf60e01b179052519091505f9081906001600160a01b038716906111b3908590615a2d565b5f604051808303815f865af19150503d805f81146111ec576040519150601f19603f3d011682016040523d82523d5f602084013e6111f1565b606091505b5091509150601682801561120557505f8251115b94509450505050915091565b5f61121a6145be565b306101671461123b5760405162461bcd60e51b815260040161019c9061597d565b6001600160a01b0383166112915760405162461bcd60e51b815260206004820152601b60248201527f676574546f6b656e496e666f3a20696e76616c696420746f6b656e0000000000604482015260640161019c565b604051631f69565f60e01b81526001600160a01b0384166004820181905290631f69565f906024015f604051808303815f875af11580156112d4573d5f5f3e3d5ffd5b505050506040513d5f823e601f3d908101601f191682016040526112fb9190810190616016565b9094909350915050565b5f61130e614670565b306101671461132f5760405162461bcd60e51b815260040161019c9061597d565b6001600160a01b0384166113945760405162461bcd60e51b815260206004820152602660248201527f6765744e6f6e46756e6769626c65546f6b656e496e666f3a20696e76616c6964604482015265103a37b5b2b760d11b606482015260840161019c565b604051631f69565f60e01b81526001600160a01b038516600482018190525f91829190631f69565f906024015f604051808303815f875af11580156113db573d5f5f3e3d5ffd5b505050506040513d5f823e601f3d908101601f191682016040526114029190810190616016565b915091508160070b6016146114735760405162461bcd60e51b815260206004820152603160248201527f6765744e6f6e46756e6769626c65546f6b656e496e666f3a206661696c656420604482015270746f2067657420746f6b656e206461746160781b606482015260840161019c565b61147b614670565b818152600786900b602082015260405163020604bf60e21b81526001600160401b03871660048201526001600160a01b0388169063081812fc90602401602060405180830381865afa1580156114d3573d5f5f3e3d5ffd5b505050506040513d601f19601f820116820180604052508101906114f791906159c4565b6001600160a01b0390811660a08301526040516331a9108f60e11b81526001600160401b038816600482015290881690636352211e90602401602060405180830381865afa15801561154b573d5f5f3e3d5ffd5b505050506040513d601f19601f8201168201806040525081019061156f91906159c4565b6001600160a01b03166040820152919350909150505b9250929050565b5f30610167146115ae5760405162461bcd60e51b815260040161019c9061597d565b5f8251116115fe5760405162461bcd60e51b815260206004820152601f60248201527f6173736f6369617465546f6b656e733a206d697373696e6720746f6b656e7300604482015260640161019c565b6001600160a01b03831633146116b15760405162461bcd60e51b815260206004820152606660248201527f6173736f6369617465546f6b656e733a204d757374206265207369676e65642060448201527f6279207468652070726f7669646564204163636f756e742773206b6579206f7260648201527f2063616c6c65642066726f6d20746865206163636f756e747320636f6e7472616084820152656374206b657960d01b60a482015260c40161019c565b5f5b825181101561185d575f6001600160a01b03168382815181106116d8576116d86159df565b60200260200101516001600160a01b0316036117365760405162461bcd60e51b815260206004820152601e60248201527f6173736f6369617465546f6b656e733a20696e76616c696420746f6b656e0000604482015260640161019c565b5f838281518110611749576117496159df565b60200260200101516001600160a01b03166349146bde86868581518110611772576117726159df565b60200260200101516040518363ffffffff1660e01b81526004016117ac9291906001600160a01b0392831681529116602082015260400190565b6020604051808303815f875af11580156117c8573d5f5f3e3d5ffd5b505050506040513d601f19601f820116820180604052508101906117ec9190616185565b90508060070b6016146118545760405162461bcd60e51b815260206004820152602a60248201527f6173736f6369617465546f6b656e733a204661696c656420746f206173736f6360448201526934b0ba32903a37b5b2b760b11b606482015260840161019c565b506001016116b3565b5060169392505050565b33610167146118ad5760405162461bcd60e51b81526020600482015260126024820152711a1d1cce881b9bdd081c195c9b5a5d1d195960721b604482015260640161019c565b6001600160a01b0383166118f95760405162461bcd60e51b8152602060048201526013602482015272343a399d1034b73b30b634b21039b2b73232b960691b604482015260640161019c565b6001600160a01b0382166119475760405162461bcd60e51b8152602060048201526015602482015274343a399d1034b73b30b634b2103932b1b2b4bb32b960591b604482015260640161019c565b611952838383611072565b816001600160a01b0316836001600160a01b03167fddf252ad1be2c89b69c2b068fc378daa952ba7f163c4a11628f55a4df523b3ef8360405161199791815260200190565b60405180910390a3505050565b5f8030610167146119c75760405162461bcd60e51b815260040161019c9061597d565b6001600160a01b038316611a2f5760405162461bcd60e51b815260206004820152602960248201527f676574546f6b656e44656661756c744b79635374617475733a20696e76616c6960448201526864206164647265737360b81b606482015260840161019c565b60405163335e04c160e01b81526001600160a01b038416600482018190529063335e04c1906024015b60408051808303815f875af1158015611a73573d5f5f3e3d5ffd5b505050506040513d601f19601f82011682018060405250810190611a9791906161a0565b91509150915091565b5f611aa96146aa565b3061016714611aca5760405162461bcd60e51b815260040161019c9061597d565b6001600160a01b038416611b205760405162461bcd60e51b815260206004820152601a60248201527f676574546f6b656e4b65793a20696e76616c696420746f6b656e000000000000604482015260640161019c565b604051631f69565f60e01b81526001600160a01b038516600482018190525f91829190631f69565f906024015f604051808303815f875af1158015611b67573d5f5f3e3d5ffd5b505050506040513d5f823e601f3d908101601f19168201604052611b8e9190810190616016565b915091508160070b601614611bf35760405162461bcd60e51b815260206004820152602560248201527f676574546f6b656e4b65793a206661696c656420746f2067657420746f6b656e604482015264206461746160d81b606482015260840161019c565b5f5b815160e0015151811015611c685785825f015160e001518281518110611c1d57611c1d6159df565b60200260200101515f015103611c60576016825f015160e001518281518110611c4857611c486159df565b60200260200101516020015194509450505050611585565b600101611bf5565b50611c716146aa565b601697909650945050505050565b5f611c886146ea565b3061016714611ca95760405162461bcd60e51b815260040161019c9061597d565b6001600160a01b038316611d0b5760405162461bcd60e51b815260206004820152602360248201527f67657446756e6769626c65546f6b656e496e666f3a20696e76616c696420746f60448201526235b2b760e91b606482015260840161019c565b604051631f69565f60e01b81526001600160a01b038416600482018190525f91829190631f69565f906024015f604051808303815f875af1158015611d52573d5f5f3e3d5ffd5b505050506040513d5f823e601f3d908101601f19168201604052611d799190810190616016565b915091508160070b601614611de75760405162461bcd60e51b815260206004820152602e60248201527f67657446756e6769626c65546f6b656e496e666f3a206661696c656420746f2060448201526d67657420746f6b656e206461746160901b606482015260840161019c565b611def6146ea565b81815f0181905250856001600160a01b031663313ce5676040518163ffffffff1660e01b8152600401602060405180830381865afa158015611e33573d5f5f3e3d5ffd5b505050506040513d601f19601f82011682018060405250810190611e5791906161d3565b5f0b602082015291935090915050915091565b5f3061016714611e8c5760405162461bcd60e51b815260040161019c9061597d565b6040805160018082528183019092525f916020808301908036833701905050905082815f81518110611ec057611ec06159df565b60200260200101906001600160a01b031690816001600160a01b031681525050611068848261158c565b5f3061016714611f0c5760405162461bcd60e51b815260040161019c9061597d565b5f825111611f5c5760405162461bcd60e51b815260206004820181905260248201527f646973736f6369617465546f6b656e733a206d697373696e6720746f6b656e73604482015260640161019c565b6001600160a01b03831633146120105760405162461bcd60e51b815260206004820152606760248201527f646973736f6369617465546f6b656e733a204d757374206265207369676e656460448201527f206279207468652070726f7669646564204163636f756e742773206b6579206f60648201527f722063616c6c65642066726f6d20746865206163636f756e747320636f6e7472608482015266616374206b657960c81b60a482015260c40161019c565b5f5b825181101561185d575f6001600160a01b0316838281518110612037576120376159df565b60200260200101516001600160a01b0316036120955760405162461bcd60e51b815260206004820152601f60248201527f646973736f6369617465546f6b656e733a20696e76616c696420746f6b656e00604482015260640161019c565b5f8382815181106120a8576120a86159df565b60200260200101516001600160a01b031663099794e8868685815181106120d1576120d16159df565b60200260200101516040518363ffffffff1660e01b815260040161210b9291906001600160a01b0392831681529116602082015260400190565b6020604051808303815f875af1158015612127573d5f5f3e3d5ffd5b505050506040513d601f19601f8201168201806040525081019061214b9190616185565b90508060070b6016146121b55760405162461bcd60e51b815260206004820152602c60248201527f646973736f6369617465546f6b656e733a204661696c656420746f206469737360448201526b37b1b4b0ba32903a37b5b2b760a11b606482015260840161019c565b50600101612012565b5f30610167146121e05760405162461bcd60e51b815260040161019c9061597d565b6001600160a01b0384166122365760405162461bcd60e51b815260206004820152601d60248201527f7472616e73666572546f6b656e733a20696e76616c696420746f6b656e000000604482015260640161019c565b5f8351116122915760405162461bcd60e51b815260206004820152602260248201527f7472616e73666572546f6b656e733a206d697373696e6720726563697069656e604482015261747360f01b606482015260840161019c565b82518251146122ed5760405162461bcd60e51b815260206004820152602260248201527f7472616e73666572546f6b656e733a20696e636f6e73697374656e7420696e706044820152611d5d60f21b606482015260840161019c565b5f5b835181101561233f57612336853386848151811061230f5761230f6159df565b6020026020010151868581518110612329576123296159df565b6020026020010151612dc6565b506001016122ef565b506016949350505050565b5f80306101671461236d5760405162461bcd60e51b815260040161019c9061597d565b6001600160a01b0383166123c35760405162461bcd60e51b815260206004820152601d60248201527f676574546f6b656e547970653a20696e76616c69642061646472657373000000604482015260640161019c565b6040516393272baf60e01b81526001600160a01b03841660048201819052906393272baf9060240160408051808303815f875af1158015612406573d5f5f3e3d5ffd5b505050506040513d601f19601f82011682018060405250810190611a9791906161f3565b5f80306101671461244d5760405162461bcd60e51b815260040161019c9061597d565b6001600160a01b0383166124b85760405162461bcd60e51b815260206004820152602c60248201527f676574546f6b656e44656661756c74467265657a655374617475733a20696e7660448201526b616c6964206164647265737360a01b606482015260840161019c565b60405163a7daa18d60e01b81526001600160a01b038416600482018190529063a7daa18d90602401611a58565b5f60608080306101671461250b5760405162461bcd60e51b815260040161019c9061597d565b6001600160a01b03851661256b5760405162461bcd60e51b815260206004820152602160248201527f676574546f6b656e437573746f6d466565733a20696e76616c696420746f6b656044820152603760f91b606482015260840161019c565b604051630573b08d60e51b81526001600160a01b038616600482018190529063ae7611a0906024015f604051808303815f875af11580156125ae573d5f5f3e3d5ffd5b505050506040513d5f823e601f3d908101601f191682016040526125d59190810190616226565b93509350935093509193509193565b604080516060810182525f8082526020820181905291810182905230610167146126205760405162461bcd60e51b815260040161019c9061597d565b6001600160a01b0383166126805760405162461bcd60e51b815260206004820152602160248201527f676574546f6b656e457870697279496e666f3a20696e76616c696420746f6b656044820152603760f91b606482015260840161019c565b604051631ac299b760e31b81526001600160a01b038416600482018190529063d614cdb8906024016080604051808303815f875af11580156126c4573d5f5f3e3d5ffd5b505050506040513d601f19601f820116820180604052508101906112fb91906162c5565b5f80306101671461270b5760405162461bcd60e51b815260040161019c9061597d565b6001600160a01b0385166127615760405162461bcd60e51b815260206004820152601860248201527f6275726e546f6b656e3a20696e76616c696420746f6b656e0000000000000000604482015260640161019c565b5f8460070b136127b35760405162461bcd60e51b815260206004820152601960248201527f6275726e546f6b656e3a20696e76616c696420616d6f756e7400000000000000604482015260640161019c565b604051631f69565f60e01b81526001600160a01b038616600482018190525f91829190631f69565f906024015f604051808303815f875af11580156127fa573d5f5f3e3d5ffd5b505050506040513d5f823e601f3d908101601f191682016040526128219190810190616016565b915091508160070b6016146128845760405162461bcd60e51b815260206004820152602360248201527f6275726e546f6b656e3a206661696c656420746f2067657420746f6b656e20696044820152626e666f60e81b606482015260840161019c565b8051604001516001600160a01b0381166128e05760405162461bcd60e51b815260206004820152601a60248201527f6275726e546f6b656e3a20696e76616c6964206163636f756e74000000000000604482015260640161019c565b60405163017677f560e31b81526001600160a01b0382811660048301525f60248301526001600160401b0389166044830152891690630bb3bfa8906064015f604051808303815f87803b158015612935575f5ffd5b505af1158015612947573d5f5f3e3d5ffd5b5050505060169450876001600160a01b03166318160ddd6040518163ffffffff1660e01b8152600401602060405180830381865afa15801561298b573d5f5f3e3d5ffd5b505050506040513d601f19601f820116820180604052508101906129af91906162f0565b93505f8460070b1215612a045760405162461bcd60e51b815260206004820152601f60248201527f6275726e546f6b656e3a20696e76616c696420746f74616c20737570706c7900604482015260640161019c565b505050935093915050565b5f3061016714612a315760405162461bcd60e51b815260040161019c9061597d565b6040805163e0b490f760e01b602082018190525f602483018190526001600160601b0319606087901b16602c84015290929091829101604051602081830303815290604052612a7f90616307565b5495945050505050565b5f8060603061016714612aae5760405162461bcd60e51b815260040161019c9061597d565b6001600160a01b038616612b045760405162461bcd60e51b815260206004820152601860248201527f6d696e74546f6b656e3a20696e76616c696420746f6b656e0000000000000000604482015260640161019c565b5f8560070b13612b565760405162461bcd60e51b815260206004820152601960248201527f6d696e74546f6b656e3a20696e76616c696420616d6f756e7400000000000000604482015260640161019c565b604051631f69565f60e01b81526001600160a01b038716600482018190525f91829190631f69565f906024015f604051808303815f875af1158015612b9d573d5f5f3e3d5ffd5b505050506040513d5f823e601f3d908101601f19168201604052612bc49190810190616016565b915091508160070b601614612c275760405162461bcd60e51b815260206004820152602360248201527f6d696e74546f6b656e3a206661696c656420746f2067657420746f6b656e20696044820152626e666f60e81b606482015260840161019c565b8051604001516001600160a01b038116612c835760405162461bcd60e51b815260206004820152601a60248201527f6d696e74546f6b656e3a20696e76616c6964206163636f756e74000000000000604482015260640161019c565b60405163017677f560e31b81525f60048201526001600160a01b0382811660248301526001600160401b038a1660448301528a1690630bb3bfa8906064015f604051808303815f87803b158015612cd8575f5ffd5b505af1158015612cea573d5f5f3e3d5ffd5b5050505060169550886001600160a01b03166318160ddd6040518163ffffffff1660e01b8152600401602060405180830381865afa158015612d2e573d5f5f3e3d5ffd5b505050506040513d601f19601f82011682018060405250810190612d5291906162f0565b604080515f808252602082019092529196505093505f8560070b1215612dba5760405162461bcd60e51b815260206004820152601f60248201527f6d696e74546f6b656e3a20696e76616c696420746f74616c20737570706c7900604482015260640161019c565b50505093509350939050565b5f3061016714612de85760405162461bcd60e51b815260040161019c9061597d565b6001600160a01b038516612e3e5760405162461bcd60e51b815260206004820152601c60248201527f7472616e73666572546f6b656e3a20696e76616c696420746f6b656e00000000604482015260640161019c565b83835f600785900b1215612e5f575083905084612e5c5f198561632a565b93505b806001600160a01b0316826001600160a01b03167fddf252ad1be2c89b69c2b068fc378daa952ba7f163c4a11628f55a4df523b3ef866001600160401b0316604051612ead91815260200190565b60405180910390a3604051632fc98c7d60e01b81526001600160a01b03838116600483015282811660248301526001600160401b0386166044830152881690632fc98c7d906064015f604051808303815f87803b158015612f0c575f5ffd5b505af1158015612f1e573d5f5f3e3d5ffd5b5060169a9950505050505050505050565b5f803061016714612f525760405162461bcd60e51b815260040161019c9061597d565b6001600160a01b038516612fa85760405162461bcd60e51b815260206004820152601f60248201527f6973417070726f766564466f72416c6c3a20696e76616c696420746f6b656e00604482015260640161019c565b60405163e985e9c560e01b81526001600160a01b03858116600483015284811660248301526016919087169063e985e9c590604401602060405180830381865afa158015612ff8573d5f5f3e3d5ffd5b505050506040513d601f19601f8201168201806040525081019061301c9190616349565b91509150935093915050565b60405163e0b490f760e01b81526001600160a01b03821660048201525f90634d8fdd6d60e01b90829081906101679063e0b490f7906024015b602060405180830381865afa15801561307c573d5f5f3e3d5ffd5b505050506040513d601f19601f820116820180604052508101906130a09190616362565b90508282826040516020016130b793929190616385565b6040516020818303038152906040526130cf90616307565b95945050505050565b606063f90221fd60e01b6001600160e01b031983160161311a57600160405160200161310491906163ba565b6040516020818303038152906040529050919050565b63cec31a9960e01b6001600160e01b0319831601613149576003546040805160ff909216602083015201613104565b63e7e9f22360e01b6001600160e01b03198316016131765760045460405160200161310491815260200190565b636a2764bf60e01b6001600160e01b03198316016131a057600260405160200161310491906163ba565b638f5f7dcf60e01b6001600160e01b031983160161325857603c3610156132095760405162461bcd60e51b815260206004820152601e60248201527f62616c616e63654f663a204e6f7420656e6f7567682063616c6c646174610000604482015260640161019c565b5f613218603c60283684614709565b61322191614768565b60601c905061322f81613c1d565b60405160200161324191815260200190565b604051602081830303815290604052915050919050565b6356fa634560e01b6001600160e01b031983160161332a57605c3610156132c15760405162461bcd60e51b815260206004820152601d60248201527f7472616e736665723a204e6f7420656e6f7567682063616c6c64617461000000604482015260640161019c565b5f6132d0603c60283684614709565b6132d991614768565b60601c90505f6132ed605c603c3684614709565b6132f691615960565b9050336133048184846118ad565b6040805160016020820152015b6040516020818303038152906040529350505050919050565b63dc478d2360e01b6001600160e01b031983160161342457607c3610156133935760405162461bcd60e51b815260206004820152601e60248201527f7472616e73666572463a204e6f7420656e6f7567682063616c6c646174610000604482015260640161019c565b5f6133a2603c60283684614709565b6133ab91614768565b60601c90505f6133bf605c60483684614709565b6133c891614768565b60601c90505f6133dc607c605c3684614709565b6133e591615960565b9050336133f3848284613c30565b6133fe8484846118ad565b604080516001602082015201604051602081830303815290604052945050505050919050565b63114e896160e11b6001600160e01b03198316016134fb57605c36101561348d5760405162461bcd60e51b815260206004820152601e60248201527f616c6c6f77616e63653a204e6f7420656e6f7567682063616c6c646174610000604482015260640161019c565b5f61349c603c60283684614709565b6134a591614768565b60601c90505f6134b9605c60483684614709565b6134c291614768565b60601c90506134d18282613ca8565b6040516020016134e391815260200190565b60405160208183030381529060405292505050919050565b63f6a1584d60e01b6001600160e01b031983160161360557605c3610156135645760405162461bcd60e51b815260206004820152601c60248201527f617070726f76653a204e6f7420656e6f7567682063616c6c6461746100000000604482015260640161019c565b5f613573603c60283684614709565b61357c91614768565b60601c90505f613590605c603c3684614709565b61359991615960565b9050336135a7818484613cbd565b826001600160a01b0316816001600160a01b03167f8c5be1e5ebec7d5bd14f71427d1e84f3dd0314c0f7b2291e5b200ac8c7c3b925846040516135ec91815260200190565b60405180910390a3604080516001602082015201613311565b61106c82613d7d565b606063f90221fd60e01b6001600160e01b031983160161363a57600160405160200161310491906163ba565b636a2764bf60e01b6001600160e01b031983160161366457600260405160200161310491906163ba565b633784a92360e01b6001600160e01b031983160161370057603c3610156136cd5760405162461bcd60e51b815260206004820152601d60248201527f746f6b656e5552493a204e6f7420656e6f7567682063616c6c64617461000000604482015260640161019c565b5f6136dc603c601c3684614709565b6136e591615960565b90506136f081613e79565b60405160200161324191906163cc565b63e7e9f22360e01b6001600160e01b031983160161372d5760045460405160200161310491815260200190565b638f5f7dcf60e01b6001600160e01b031983160161379657603c3610156132095760405162461bcd60e51b815260206004820152601e60248201527f62616c616e63654f663a204e6f7420656e6f7567682063616c6c646174610000604482015260640161019c565b634e56ef7160e11b6001600160e01b031983160161383c57603c3610156137ff5760405162461bcd60e51b815260206004820152601c60248201527f6f776e65724f663a204e6f7420656e6f7567682063616c6c6461746100000000604482015260640161019c565b5f61380e603c601c3684614709565b61381791615960565b905061382281613f1c565b604080516001600160a01b03909216602083015201613241565b63dc478d2360e01b6001600160e01b031983160161390e57607c3610156138af5760405162461bcd60e51b815260206004820152602160248201527f7472616e7366657246726f6d3a204e6f7420656e6f7567682063616c6c6461746044820152606160f81b606482015260840161019c565b5f6138be603c60283684614709565b6138c791614768565b60601c90505f6138db605c60483684614709565b6138e491614768565b60601c90505f6138f8607c605c3684614709565b61390191615960565b9050613304838383613f27565b63f6a1584d60e01b6001600160e01b03198316016139cb57605c3610156139775760405162461bcd60e51b815260206004820152601c60248201527f617070726f76653a204e6f7420656e6f7567682063616c6c6461746100000000604482015260640161019c565b5f613986603c60283684614709565b61398f91614768565b60601c90505f6139a3605c603c3684614709565b6139ac91615960565b90506139ba82826001614120565b6040805160016020820152016134e3565b635dd34b9b60e01b6001600160e01b0319831601613a8757605c361015613a435760405162461bcd60e51b815260206004820152602660248201527f736574417070726f76616c466f72416c6c3a204e6f7420656e6f7567682063616044820152656c6c6461746160d01b606482015260840161019c565b5f613a52603c60283684614709565b613a5b91614768565b60601c90505f613a6f605c603c3684614709565b613a7891615960565b60011490506139ba828261421c565b633df9fb4160e21b6001600160e01b0319831601613b1357603c361015613af05760405162461bcd60e51b815260206004820181905260248201527f676574417070726f7665643a204e6f7420656e6f7567682063616c6c64617461604482015260640161019c565b5f613aff603c601c3684614709565b613b0891615960565b905061382281614304565b63167a163b60e01b6001600160e01b031983160161360557605c361015613b8a5760405162461bcd60e51b815260206004820152602560248201527f6973417070726f766564466f72416c6c3a204e6f7420656e6f7567682063616c6044820152646c6461746160d81b606482015260840161019c565b5f613b99603c60283684614709565b613ba291614768565b60601c90505f613bb6605c60483684614709565b613bbf91614768565b60601c9050613bce828261430f565b604080519115156020830152016134e3565b60405163e0b490f760e01b81526001600160a01b03821660048201525f906370a0823160e01b90829081906101679063e0b490f790602401613061565b5f5f613c2883613be0565b549392505050565b5f613c3b8484613ca8565b90505f198114613ca25781811015613c955760405162461bcd60e51b815260206004820152601d60248201527f5f7370656e64416c6c6f77616e63653a20696e73756666696369656e74000000604482015260640161019c565b613ca28484848403613cbd565b50505050565b5f5f613cb4848461431b565b54949350505050565b6001600160a01b038316613d135760405162461bcd60e51b815260206004820152601760248201527f5f617070726f76653a20696e76616c6964206f776e6572000000000000000000604482015260640161019c565b6001600160a01b038216613d695760405162461bcd60e51b815260206004820152601960248201527f5f617070726f76653a20696e76616c6964207370656e64657200000000000000604482015260640161019c565b5f613d74848461431b565b91909155505050565b6060637ac5590d60e11b6001600160e01b0319831601613dbd575f613da133613028565b9050600181556001604051602001613241911515815260200190565b63051b6f4160e51b6001600160e01b0319831601613df6575f613ddf33613028565b5f8155604080516001602082015291925001613241565b63b270229360e01b6001600160e01b0319831601613e31575f613e1833613028565b80546040805182151560208201529293509091016134e3565b60405162461bcd60e51b815260206004820152601f60248201527f7265646972656374466f72546f6b656e3a206e6f7420737570706f7274656400604482015260640161019c565b60605f613e858361443b565b90505f819050808054613e979061539d565b80601f0160208091040260200160405190810160405280929190818152602001828054613ec39061539d565b8015613f0e5780601f10613ee557610100808354040283529160200191613f0e565b820191905f5260205f20905b815481529060010190602001808311613ef157829003601f168201915b505050505092505050919050565b5f5f613c288361447d565b6001600160a01b038316613f735760405162461bcd60e51b8152602060048201526013602482015272343a399d1034b73b30b634b21039b2b73232b960691b604482015260640161019c565b6001600160a01b038216613fc15760405162461bcd60e51b8152602060048201526015602482015274343a399d1034b73b30b634b2103932b1b2b4bb32b960591b604482015260640161019c565b5f613fcb8261447d565b80549091506001600160a01b038082169086161461402b5760405162461bcd60e51b815260206004820152601860248201527f6874733a2073656e646572206973206e6f74206f776e65720000000000000000604482015260640161019c565b336001600160a01b038616146140a85761404483614304565b6001600160a01b0316336001600160a01b031614806140685750614068853361430f565b6140a85760405162461bcd60e51b81526020600482015260116024820152701a1d1cce881d5b985d5d1a1bdc9a5e9959607a1b604482015260640161019c565b5f6140b28461449f565b90505f81555f6140c287876144c1565b90505f8155858455856001600160a01b0316876001600160a01b03167fddf252ad1be2c89b69c2b068fc378daa952ba7f163c4a11628f55a4df523b3ef8760405161410f91815260200190565b60405180910390a350505050505050565b5f61412a83613f1c565b9050336001600160a01b038216148061415357503361414884614304565b6001600160a01b0316145b806141635750614163813361430f565b6141a85760405162461bcd60e51b815260206004820152601660248201527517d85c1c1c9bdd994e881d5b985d5d1a1bdc9a5e995960521b604482015260640161019c565b5f6141b28461449f565b90505f836141c0575f6141c2565b855b9050808255856001600160a01b0316836001600160a01b03167f8c5be1e5ebec7d5bd14f71427d1e84f3dd0314c0f7b2291e5b200ac8c7c3b9258760405161420c91815260200190565b60405180910390a3505050505050565b336001600160a01b038316158015906142475750806001600160a01b0316836001600160a01b031614155b61429f5760405162461bcd60e51b815260206004820152602360248201527f736574417070726f76616c466f72416c6c3a20696e76616c6964206f706572616044820152623a37b960e91b606482015260840161019c565b5f6142aa82856144c1565b9050828155836001600160a01b0316826001600160a01b03167f17307eab39ab6107e8899845ad3d59bd9653f200f220920489ca2b5937696c31856040516142f6911515815260200190565b60405180910390a350505050565b5f5f613c288361449f565b5f5f613cb484846144c1565b60405163e0b490f760e01b81526001600160a01b03831660048201525f90636eb1769f60e11b90829081906101679063e0b490f790602401602060405180830381865afa15801561436e573d5f5f3e3d5ffd5b505050506040513d601f19601f820116820180604052508101906143929190616362565b60405163e0b490f760e01b81526001600160a01b03871660048201529091505f906101679063e0b490f790602401602060405180830381865afa1580156143db573d5f5f3e3d5ffd5b505050506040513d601f19601f820116820180604052508101906143ff9190616362565b90508383828460405160200161441894939291906163de565b60405160208183030381529060405261443090616307565b979650505050505050565b6040515f9063c87b56dd60e01b90829061445d90839083908790602001616385565b60405160208183030381529060405261447590616307565b949350505050565b6040515f906331a9108f60e11b90829061445d90839083908790602001616385565b6040515f9063020604bf60e21b90829061445d90839083908790602001616385565b60405163e0b490f760e01b81526001600160a01b03831660048201525f9063e985e9c560e01b90829081906101679063e0b490f790602401602060405180830381865afa158015614514573d5f5f3e3d5ffd5b505050506040513d601f19601f820116820180604052508101906145389190616362565b60405163e0b490f760e01b81526001600160a01b03871660048201529091505f906101679063e0b490f790602401602060405180830381865afa158015614581573d5f5f3e3d5ffd5b505050506040513d601f19601f820116820180604052508101906145a59190616362565b90508383838360405160200161441894939291906163de565b60408051610240810182526060610120820181815261014083018290525f610160840181905261018084018390526101a084018190526101c084018190526101e08401819052610200840183905284519283018552808352602083018190529382019390935261022082015290819081526020015f60070b81526020015f151581526020015f151581526020015f15158152602001606081526020016060815260200160608152602001606081525090565b6040518060c001604052806146836145be565b81525f60208201819052604082018190526060808301829052608083015260a09091015290565b6040518060a001604052805f151581526020015f6001600160a01b0316815260200160608152602001606081526020015f6001600160a01b031681525090565b60405180604001604052806146fd6145be565b81525f60209091015290565b5f5f85851115614717575f5ffd5b83861115614723575f5ffd5b5050820193919092039150565b80356001600160e01b03198116906004841015614761576001600160e01b0319600485900360031b81901b82161691505b5092915050565b80356001600160601b03198116906014841015614761576001600160601b031960149490940360031b84901b1690921692915050565b6001600160a01b03811681146147b2575f5ffd5b50565b5f5f604083850312156147c6575f5ffd5b82356147d18161479e565b946020939093013593505050565b5f5f604083850312156147f0575f5ffd5b82356147fb8161479e565b9150602083013561480b8161479e565b809150509250929050565b5f5f5f60608486031215614828575f5ffd5b83356148338161479e565b925060208401356148438161479e565b929592945050506040919091013590565b5f60208284031215614864575f5ffd5b813561486f8161479e565b9392505050565b5f81518084528060208401602086015e5f602082860101526020601f19601f83011685010191505092915050565b80511515825260018060a01b0360208201511660208301525f604082015160a060408501526148d660a0850182614876565b9050606083015184820360608601526148ef8282614876565b6080948501516001600160a01b03169590940194909452509092915050565b5f82825180855260208501945060208160051b830101602085015f5b8381101561497357601f19858403018852815180518452602081015190506040602085015261495c60408501826148a4565b6020998a019990945092909201915060010161492a565b50909695505050505050565b5f81516101608452614995610160850182614876565b9050602083015184820360208601526149ae8282614876565b91505060408301516149cb60408601826001600160a01b03169052565b50606083015184820360608601526149e38282614876565b91505060808301516149f9608086018215159052565b5060a0830151614a0e60a086018260070b9052565b5060c0830151614a2260c086018215159052565b5060e083015184820360e0860152614a3a828261490e565b915050610100830151614a756101008601828051600790810b83526020808301516001600160a01b031690840152604091820151900b910152565b509392505050565b5f8151808452602084019350602083015f5b82811015614aed578151805160070b87526020808201516001600160a01b03908116828a01526040808401511515908a01526060808401511515908a0152608092830151169188019190915260a09096019590910190600101614a8f565b5093949350505050565b5f8151808452602084019350602083015f5b82811015614aed5781515f815160070b8852602082015160070b6020890152604082015160070b6040890152606082015160070b606089015260808201511515608089015260018060a01b0360a08301511660a089015260c0880190508097505050602082019150600181019050614b09565b5f8151808452602084019350602083015f5b82811015614aed5781515f815160070b8852602082015160070b6020890152604082015160070b604089015260018060a01b03606083015116606089015260808201511515608089015260018060a01b0360a08301511660a089015260c0880190508097505050602082019150600181019050614b8e565b5f81516101208452614c1c61012085018261497f565b90506020830151614c32602086018260070b9052565b506040830151614c46604086018215159052565b506060830151614c5a606086018215159052565b506080830151614c6e608086018215159052565b5060a083015184820360a0860152614c868282614a7d565b91505060c083015184820360c0860152614ca08282614af7565b91505060e083015184820360e0860152614cba8282614b7c565b9150506101008301518482036101008601526130cf8282614876565b8260070b8152604060208201525f6144756040830184614c06565b8060070b81146147b2575f5ffd5b5f5f60408385031215614d10575f5ffd5b8235614d1b8161479e565b9150602083013561480b81614cf1565b8260070b8152604060208201525f825160c06040840152614d50610100840182614c06565b9050602084015160070b606084015260018060a01b036040850151166080840152606084015160070b60a08401526080840151603f198483030160c0850152614d998282614876565b60a095909501516001600160a01b031660e0949094019390935250919392505050565b634e487b7160e01b5f52604160045260245ffd5b604080519081016001600160401b0381118282101715614df257614df2614dbc565b60405290565b60405160a081016001600160401b0381118282101715614df257614df2614dbc565b60405161012081016001600160401b0381118282101715614df257614df2614dbc565b60405160c081016001600160401b0381118282101715614df257614df2614dbc565b604051601f8201601f191681016001600160401b0381118282101715614e8757614e87614dbc565b604052919050565b5f6001600160401b03821115614ea757614ea7614dbc565b5060051b60200190565b5f82601f830112614ec0575f5ffd5b8135614ed3614ece82614e8f565b614e5f565b8082825260208201915060208360051b860101925085831115614ef4575f5ffd5b602085015b83811015614f1a578035614f0c8161479e565b835260209283019201614ef9565b5095945050505050565b5f5f60408385031215614f35575f5ffd5b8235614f408161479e565b915060208301356001600160401b03811115614f5a575f5ffd5b614f6685828601614eb1565b9150509250929050565b8260070b8152604060208201525f61447560408301846148a4565b8260070b8152604060208201525f8251604080840152614fae6080840182614c06565b9050602084015160030b6060840152809150509392505050565b5f82601f830112614fd7575f5ffd5b8135614fe5614ece82614e8f565b8082825260208201915060208360051b860101925085831115615006575f5ffd5b602085015b83811015614f1a57803561501e81614cf1565b83526020928301920161500b565b5f5f5f6060848603121561503e575f5ffd5b83356150498161479e565b925060208401356001600160401b03811115615063575f5ffd5b61506f86828701614eb1565b92505060408401356001600160401b0381111561508a575f5ffd5b61509686828701614fc8565b9150509250925092565b8460070b8152608060208201525f6150bb6080830186614a7d565b82810360408401526150cd8186614af7565b905082810360608401526144308185614b7c565b600783900b81526080810161486f60208301848051600790810b83526020808301516001600160a01b031690840152604091820151900b910152565b5f5f5f6060848603121561512f575f5ffd5b833561513a8161479e565b9250602084013561514a81614cf1565b915060408401356001600160401b0381111561508a575f5ffd5b5f6001600160401b0382111561517c5761517c614dbc565b50601f01601f191660200190565b5f5f5f6060848603121561519c575f5ffd5b83356151a78161479e565b925060208401356151b781614cf1565b915060408401356001600160401b038111156151d1575f5ffd5b8401601f810186136151e1575f5ffd5b80356151ef614ece82614e8f565b8082825260208201915060208360051b850101925088831115615210575f5ffd5b602084015b838110156152905780356001600160401b03811115615232575f5ffd5b8501603f81018b13615242575f5ffd5b6020810135615253614ece82615164565b8181526040838301018d1015615267575f5ffd5b816040840160208301375f60208383010152808652505050602083019250602081019050615215565b50809450505050509250925092565b5f606082018560070b83528460070b6020840152606060408401528084518083526080850191506020860192505f5b818110156152ef57835160070b8352602093840193909201916001016152ce565b5090979650505050505050565b5f5f5f5f6080858703121561530f575f5ffd5b843561531a8161479e565b9350602085013561532a8161479e565b9250604085013561533a8161479e565b9150606085013561534a81614cf1565b939692955090935050565b5f5f5f60608486031215615367575f5ffd5b83356153728161479e565b925060208401356153828161479e565b915060408401356153928161479e565b809150509250925092565b600181811c908216806153b157607f821691505b6020821081036153cf57634e487b7160e01b5f52602260045260245ffd5b50919050565b5f81546153e18161539d565b6001821680156153f8576001811461540d5761543a565b60ff198316865281151582028601935061543a565b845f5260205f205f5b8381101561543257815488820152600190910190602001615416565b505081860193505b50505092915050565b5f61486f82846153d5565b5f815461545a8161539d565b80855260018216801561547457600181146154905761543a565b60ff1983166020870152602082151560051b870101935061543a565b845f5260205f205f5b838110156154bb5781546020828a010152600182019150602081019050615499565b870160200194505050505092915050565b5f82825480855260208501945060208160051b830101845f5260205f205f5b8381101561497357848303601f1901885281548352604060208401819052600183015460ff811615159185019190915260081c6001600160a01b0316606084015260a0608084015261554360e084016002840161544e565b838103603f190160a085015261555c816003850161544e565b60048401546001600160a01b031660c0959095019490945250602097909701966005909101906001016154eb565b61016082525f61559e61016084018361544e565b83810360208501526155b3816001850161544e565b90506155c960028401546001600160a01b031690565b6001600160a01b0316604085015283810360608501526155ec816003850161544e565b905060048301546156046080860160ff831615159052565b600881901c60070b60a086015261562560c0860160ff8360481c1615159052565b5083810360e085015261563b81600585016154cc565b905061486f6101008501600685018054600781810b8452604091821c6001600160a01b0316602085015260019092015490910b910152565b5f8154808452602084019350825f5260205f205f5b82811015614aed578154600781900b8752604081811c6001600160a01b0390811660208a015260e083901c60ff9081161515928a019290925260e89290921c1615156060880152600180840154909116608088015260a09096019560029092019101615688565b5f8154808452602084019350825f5260205f205f5b82811015614aed575f82548060070b88528060401c60070b60208901528060801c60070b60408901528060c01d60070b60608901525060018301546157506080890160ff831615159052565b60081c6001600160a01b031660a08801525060c09095019460029190910190600101615704565b5f8154808452602084019350825f5260205f205f5b82811015614aed575f82548060070b88528060401c60070b60208901528060801c60070b604089015250600183015460018060a01b03811660608901526157dd6080890160ff8360a01c1615159052565b505060028201546001600160a01b031660a087015260c09095019460039091019060010161578c565b60ff831681526040602082015261012060408201525f61582a61016083018461558a565b6008840154600781900b606085015261584d6080850160ff8360401c1615159052565b61586160a0850160ff8360481c1615159052565b61587560c0850160ff8360501c1615159052565b50828103603f190160e084015261588f8160098601615673565b838103603f190161010085015290506158ab81600a86016156ef565b838103603f190161012085015290506158c781600b8601615777565b838103603f190161014085015290506130cf81600c860161544e565b60ff85168152608060208201525f6158fe6080830186615673565b828103604084015261591081866156ef565b905082810360608401526144308185615777565b60ff831681526080810161486f60208301848054600781810b8452604091821c6001600160a01b0316602085015260019092015490910b910152565b8035602083101561106c575f19602084900360031b1b1692915050565b60208082526017908201527f68747343616c6c3a2064656c6567617465642063616c6c000000000000000000604082015260600190565b80516159bf8161479e565b919050565b5f602082840312156159d4575f5ffd5b815161486f8161479e565b634e487b7160e01b5f52603260045260245ffd5b634e487b7160e01b5f52601160045260245ffd5b8082018082111561106c5761106c6159f3565b8181038181111561106c5761106c6159f3565b5f82518060208501845e5f920191825250919050565b80516159bf81614cf1565b5f82601f830112615a5d575f5ffd5b8151602083015f615a70614ece84615164565b9050828152858383011115615a83575f5ffd5b8282602083015e5f92810160200192909252509392505050565b805180151581146159bf575f5ffd5b5f82601f830112615abb575f5ffd5b8151615ac9614ece82614e8f565b8082825260208201915060208360051b860101925085831115615aea575f5ffd5b602085015b83811015614f1a5780516001600160401b03811115615b0c575f5ffd5b86016040818903601f19011215615b21575f5ffd5b615b29614dd0565b6020820151815260408201516001600160401b03811115615b48575f5ffd5b60208184010192505060a0828a031215615b60575f5ffd5b615b68614df8565b615b7183615a9d565b81526020830151615b818161479e565b602082015260408301516001600160401b03811115615b9e575f5ffd5b615baa8b828601615a4e565b60408301525060608301516001600160401b03811115615bc8575f5ffd5b615bd48b828601615a4e565b60608301525060808301519250615bea8361479e565b608081019290925260208181019290925284529283019201615aef565b5f60608284031215615c17575f5ffd5b604051606081016001600160401b0381118282101715615c3957615c39614dbc565b80604052508091508251615c4c81614cf1565b81526020830151615c5c8161479e565b60208201526040830151615c6f81614cf1565b6040919091015292915050565b5f6101608284031215615c8d575f5ffd5b615c95614e1a565b905081516001600160401b03811115615cac575f5ffd5b615cb884828501615a4e565b82525060208201516001600160401b03811115615cd3575f5ffd5b615cdf84828501615a4e565b602083015250615cf1604083016159b4565b604082015260608201516001600160401b03811115615d0e575f5ffd5b615d1a84828501615a4e565b606083015250615d2c60808301615a9d565b6080820152615d3d60a08301615a43565b60a0820152615d4e60c08301615a9d565b60c082015260e08201516001600160401b03811115615d6b575f5ffd5b615d7784828501615aac565b60e083015250615d8b836101008401615c07565b61010082015292915050565b5f82601f830112615da6575f5ffd5b8151615db4614ece82614e8f565b80828252602082019150602060a08402860101925085831115615dd5575f5ffd5b602085015b83811015614f1a5760a08188031215615df1575f5ffd5b615df9614df8565b8151615e0481614cf1565b81526020820151615e148161479e565b6020820152615e2560408301615a9d565b6040820152615e3660608301615a9d565b60608201526080820151615e498161479e565b6080820152835260209092019160a001615dda565b5f82601f830112615e6d575f5ffd5b8151615e7b614ece82614e8f565b80828252602082019150602060c08402860101925085831115615e9c575f5ffd5b602085015b83811015614f1a5760c08188031215615eb8575f5ffd5b615ec0614e3d565b8151615ecb81614cf1565b81526020820151615edb81614cf1565b60208201526040820151615eee81614cf1565b60408201526060820151615f0181614cf1565b6060820152615f1260808301615a9d565b608082015260a0820151615f258161479e565b60a0820152835260209092019160c001615ea1565b5f82601f830112615f49575f5ffd5b8151615f57614ece82614e8f565b80828252602082019150602060c08402860101925085831115615f78575f5ffd5b602085015b83811015614f1a5760c08188031215615f94575f5ffd5b615f9c614e3d565b8151615fa781614cf1565b81526020820151615fb781614cf1565b60208201526040820151615fca81614cf1565b60408201526060820151615fdd8161479e565b6060820152615fee60808301615a9d565b608082015260a08201516160018161479e565b60a0820152835260209092019160c001615f7d565b5f5f60408385031215616027575f5ffd5b825161603281614cf1565b60208401519092506001600160401b0381111561604d575f5ffd5b8301610120818603121561605f575f5ffd5b616067614e1a565b81516001600160401b0381111561607c575f5ffd5b61608887828501615c7c565b82525061609760208301615a43565b60208201526160a860408301615a9d565b60408201526160b960608301615a9d565b60608201526160ca60808301615a9d565b608082015260a08201516001600160401b038111156160e7575f5ffd5b6160f387828501615d97565b60a08301525060c08201516001600160401b03811115616111575f5ffd5b61611d87828501615e5e565b60c08301525060e08201516001600160401b0381111561613b575f5ffd5b61614787828501615f3a565b60e0830152506101008201516001600160401b03811115616166575f5ffd5b61617287828501615a4e565b6101008301525080925050509250929050565b5f60208284031215616195575f5ffd5b815161486f81614cf1565b5f5f604083850312156161b1575f5ffd5b82516161bc81614cf1565b91506161ca60208401615a9d565b90509250929050565b5f602082840312156161e3575f5ffd5b815160ff8116811461486f575f5ffd5b5f5f60408385031215616204575f5ffd5b825161620f81614cf1565b8092505060208301518060030b811461480b575f5ffd5b5f5f5f5f60808587031215616239575f5ffd5b845161624481614cf1565b60208601519094506001600160401b0381111561625f575f5ffd5b61626b87828801615d97565b93505060408501516001600160401b03811115616286575f5ffd5b61629287828801615e5e565b92505060608501516001600160401b038111156162ad575f5ffd5b6162b987828801615f3a565b91505092959194509250565b5f5f608083850312156162d6575f5ffd5b82516162e181614cf1565b91506161ca8460208501615c07565b5f60208284031215616300575f5ffd5b5051919050565b805160208083015191908110156153cf575f1960209190910360031b1b16919050565b5f8260070b8260070b028060070b9150808214614761576147616159f3565b5f60208284031215616359575f5ffd5b61486f82615a9d565b5f60208284031215616372575f5ffd5b815163ffffffff8116811461486f575f5ffd5b6001600160e01b0319938416815260409290921b67ffffffffffffffff1916600483015260e01b909116601c82015260200190565b602081525f61486f602083018461544e565b602081525f61486f6020830184614876565b6001600160e01b0319948516815260609390931b6001600160601b031916600484015260e091821b84166018840152901b909116601c8201526020019056fea26469706673582212202d4ac2350c6f1f6a26907059cca9d48870c8eb1e83ddad7b6163d9c842bf28e064736f6c634300081c0033",
        "linkReferences": {}
    },
    "methodIdentifiers": {
        "_transferAsHTS(address,address,uint256)": "2fc98c7d",
        "_update(address,address,uint256)": "0bb3bfa8",
        "associateToken(address,address)": "49146bde",
        "associateTokens(address,address[])": "2e63879b",
        "burnToken(address,int64,int64[])": "d6910d06",
        "dissociateToken(address,address)": "099794e8",
        "dissociateTokens(address,address[])": "78b63918",
        "getAccountId(address)": "e0b490f7",
        "getApproved(address,uint256)": "098f2366",
        "getFungibleTokenInfo(address)": "3f28a19b",
        "getNonFungibleTokenInfo(address,int64)": "287e1da8",
        "getTokenCustomFees(address)": "ae7611a0",
        "getTokenDefaultFreezeStatus(address)": "a7daa18d",
        "getTokenDefaultKycStatus(address)": "335e04c1",
        "getTokenExpiryInfo(address)": "d614cdb8",
        "getTokenInfo(address)": "1f69565f",
        "getTokenKey(address,uint256)": "3c4dd32e",
        "getTokenType(address)": "93272baf",
        "isApprovedForAll(address,address,address)": "f49f40db",
        "isToken(address)": "19f37361",
        "mintToken(address,int64,bytes[])": "e0f4059a",
        "transferToken(address,address,address,int64)": "eca36917",
        "transferTokens(address,address[],int64[])": "82bba493"
    },
    "storageLayout": {
        "storage": [
            {
                "astId": 93,
                "contract": "contracts/HtsSystemContract.sol:HtsSystemContract",
                "label": "tokenType",
                "offset": 0,
                "slot": "0",
                "type": "t_string_storage"
            },
            {
                "astId": 95,
                "contract": "contracts/HtsSystemContract.sol:HtsSystemContract",
                "label": "name",
                "offset": 0,
                "slot": "1",
                "type": "t_string_storage"
            },
            {
                "astId": 97,
                "contract": "contracts/HtsSystemContract.sol:HtsSystemContract",
                "label": "symbol",
                "offset": 0,
                "slot": "2",
                "type": "t_string_storage"
            },
            {
                "astId": 99,
                "contract": "contracts/HtsSystemContract.sol:HtsSystemContract",
                "label": "decimals",
                "offset": 0,
                "slot": "3",
                "type": "t_uint8"
            },
            {
                "astId": 101,
                "contract": "contracts/HtsSystemContract.sol:HtsSystemContract",
                "label": "totalSupply",
                "offset": 0,
                "slot": "4",
                "type": "t_uint256"
            },
            {
                "astId": 104,
                "contract": "contracts/HtsSystemContract.sol:HtsSystemContract",
                "label": "_tokenInfo",
                "offset": 0,
                "slot": "5",
                "type": "t_struct(TokenInfo)6749_storage"
            }
        ],
        "types": {
            "t_address": {
                "encoding": "inplace",
                "label": "address",
                "numberOfBytes": "20"
            },
            "t_array(t_struct(FixedFee)6791_storage)dyn_storage": {
                "encoding": "dynamic_array",
                "label": "struct IHederaTokenService.FixedFee[]",
                "numberOfBytes": "32",
                "base": "t_struct(FixedFee)6791_storage"
            },
            "t_array(t_struct(FractionalFee)6805_storage)dyn_storage": {
                "encoding": "dynamic_array",
                "label": "struct IHederaTokenService.FractionalFee[]",
                "numberOfBytes": "32",
                "base": "t_struct(FractionalFee)6805_storage"
            },
            "t_array(t_struct(RoyaltyFee)6819_storage)dyn_storage": {
                "encoding": "dynamic_array",
                "label": "struct IHederaTokenService.RoyaltyFee[]",
                "numberOfBytes": "32",
                "base": "t_struct(RoyaltyFee)6819_storage"
            },
            "t_array(t_struct(TokenKey)6690_storage)dyn_storage": {
                "encoding": "dynamic_array",
                "label": "struct IHederaTokenService.TokenKey[]",
                "numberOfBytes": "32",
                "base": "t_struct(TokenKey)6690_storage"
            },
            "t_bool": {
                "encoding": "inplace",
                "label": "bool",
                "numberOfBytes": "1"
            },
            "t_bytes_storage": {
                "encoding": "bytes",
                "label": "bytes",
                "numberOfBytes": "32"
            },
            "t_int64": {
                "encoding": "inplace",
                "label": "int64",
                "numberOfBytes": "8"
            },
            "t_string_storage": {
                "encoding": "bytes",
                "label": "string",
                "numberOfBytes": "32"
            },
            "t_struct(Expiry)6671_storage": {
                "encoding": "inplace",
                "label": "struct IHederaTokenService.Expiry",
                "numberOfBytes": "64",
                "members": [
                    {
                        "astId": 6666,
                        "contract": "contracts/HtsSystemContract.sol:HtsSystemContract",
                        "label": "second",
                        "offset": 0,
                        "slot": "0",
                        "type": "t_int64"
                    },
                    {
                        "astId": 6668,
                        "contract": "contracts/HtsSystemContract.sol:HtsSystemContract",
                        "label": "autoRenewAccount",
                        "offset": 8,
                        "slot": "0",
                        "type": "t_address"
                    },
                    {
                        "astId": 6670,
                        "contract": "contracts/HtsSystemContract.sol:HtsSystemContract",
                        "label": "autoRenewPeriod",
                        "offset": 0,
                        "slot": "1",
                        "type": "t_int64"
                    }
                ]
            },
            "t_struct(FixedFee)6791_storage": {
                "encoding": "inplace",
                "label": "struct IHederaTokenService.FixedFee",
                "numberOfBytes": "64",
                "members": [
                    {
                        "astId": 6782,
                        "contract": "contracts/HtsSystemContract.sol:HtsSystemContract",
                        "label": "amount",
                        "offset": 0,
                        "slot": "0",
                        "type": "t_int64"
                    },
                    {
                        "astId": 6784,
                        "contract": "contracts/HtsSystemContract.sol:HtsSystemContract",
                        "label": "tokenId",
                        "offset": 8,
                        "slot": "0",
                        "type": "t_address"
                    },
                    {
                        "astId": 6786,
                        "contract": "contracts/HtsSystemContract.sol:HtsSystemContract",
                        "label": "useHbarsForPayment",
                        "offset": 28,
                        "slot": "0",
                        "type": "t_bool"
                    },
                    {
                        "astId": 6788,
                        "contract": "contracts/HtsSystemContract.sol:HtsSystemContract",
                        "label": "useCurrentTokenForPayment",
                        "offset": 29,
                        "slot": "0",
                        "type": "t_bool"
                    },
                    {
                        "astId": 6790,
                        "contract": "contracts/HtsSystemContract.sol:HtsSystemContract",
                        "label": "feeCollector",
                        "offset": 0,
                        "slot": "1",
                        "type": "t_address"
                    }
                ]
            },
            "t_struct(FractionalFee)6805_storage": {
                "encoding": "inplace",
                "label": "struct IHederaTokenService.FractionalFee",
                "numberOfBytes": "64",
                "members": [
                    {
                        "astId": 6794,
                        "contract": "contracts/HtsSystemContract.sol:HtsSystemContract",
                        "label": "numerator",
                        "offset": 0,
                        "slot": "0",
                        "type": "t_int64"
                    },
                    {
                        "astId": 6796,
                        "contract": "contracts/HtsSystemContract.sol:HtsSystemContract",
                        "label": "denominator",
                        "offset": 8,
                        "slot": "0",
                        "type": "t_int64"
                    },
                    {
                        "astId": 6798,
                        "contract": "contracts/HtsSystemContract.sol:HtsSystemContract",
                        "label": "minimumAmount",
                        "offset": 16,
                        "slot": "0",
                        "type": "t_int64"
                    },
                    {
                        "astId": 6800,
                        "contract": "contracts/HtsSystemContract.sol:HtsSystemContract",
                        "label": "maximumAmount",
                        "offset": 24,
                        "slot": "0",
                        "type": "t_int64"
                    },
                    {
                        "astId": 6802,
                        "contract": "contracts/HtsSystemContract.sol:HtsSystemContract",
                        "label": "netOfTransfers",
                        "offset": 0,
                        "slot": "1",
                        "type": "t_bool"
                    },
                    {
                        "astId": 6804,
                        "contract": "contracts/HtsSystemContract.sol:HtsSystemContract",
                        "label": "feeCollector",
                        "offset": 1,
                        "slot": "1",
                        "type": "t_address"
                    }
                ]
            },
            "t_struct(HederaToken)6713_storage": {
                "encoding": "inplace",
                "label": "struct IHederaTokenService.HederaToken",
                "numberOfBytes": "256",
                "members": [
                    {
                        "astId": 6693,
                        "contract": "contracts/HtsSystemContract.sol:HtsSystemContract",
                        "label": "name",
                        "offset": 0,
                        "slot": "0",
                        "type": "t_string_storage"
                    },
                    {
                        "astId": 6695,
                        "contract": "contracts/HtsSystemContract.sol:HtsSystemContract",
                        "label": "symbol",
                        "offset": 0,
                        "slot": "1",
                        "type": "t_string_storage"
                    },
                    {
                        "astId": 6697,
                        "contract": "contracts/HtsSystemContract.sol:HtsSystemContract",
                        "label": "treasury",
                        "offset": 0,
                        "slot": "2",
                        "type": "t_address"
                    },
                    {
                        "astId": 6699,
                        "contract": "contracts/HtsSystemContract.sol:HtsSystemContract",
                        "label": "memo",
                        "offset": 0,
                        "slot": "3",
                        "type": "t_string_storage"
                    },
                    {
                        "astId": 6701,
                        "contract": "contracts/HtsSystemContract.sol:HtsSystemContract",
                        "label": "tokenSupplyType",
                        "offset": 0,
                        "slot": "4",
                        "type": "t_bool"
                    },
                    {
                        "astId": 6703,
                        "contract": "contracts/HtsSystemContract.sol:HtsSystemContract",
                        "label": "maxSupply",
                        "offset": 1,
                        "slot": "4",
                        "type": "t_int64"
                    },
                    {
                        "astId": 6705,
                        "contract": "contracts/HtsSystemContract.sol:HtsSystemContract",
                        "label": "freezeDefault",
                        "offset": 9,
                        "slot": "4",
                        "type": "t_bool"
                    },
                    {
                        "astId": 6709,
                        "contract": "contracts/HtsSystemContract.sol:HtsSystemContract",
                        "label": "tokenKeys",
                        "offset": 0,
                        "slot": "5",
                        "type": "t_array(t_struct(TokenKey)6690_storage)dyn_storage"
                    },
                    {
                        "astId": 6712,
                        "contract": "contracts/HtsSystemContract.sol:HtsSystemContract",
                        "label": "expiry",
                        "offset": 0,
                        "slot": "6",
                        "type": "t_struct(Expiry)6671_storage"
                    }
                ]
            },
            "t_struct(KeyValue)6683_storage": {
                "encoding": "inplace",
                "label": "struct IHederaTokenService.KeyValue",
                "numberOfBytes": "128",
                "members": [
                    {
                        "astId": 6674,
                        "contract": "contracts/HtsSystemContract.sol:HtsSystemContract",
                        "label": "inheritAccountKey",
                        "offset": 0,
                        "slot": "0",
                        "type": "t_bool"
                    },
                    {
                        "astId": 6676,
                        "contract": "contracts/HtsSystemContract.sol:HtsSystemContract",
                        "label": "contractId",
                        "offset": 1,
                        "slot": "0",
                        "type": "t_address"
                    },
                    {
                        "astId": 6678,
                        "contract": "contracts/HtsSystemContract.sol:HtsSystemContract",
                        "label": "ed25519",
                        "offset": 0,
                        "slot": "1",
                        "type": "t_bytes_storage"
                    },
                    {
                        "astId": 6680,
                        "contract": "contracts/HtsSystemContract.sol:HtsSystemContract",
                        "label": "ECDSA_secp256k1",
                        "offset": 0,
                        "slot": "2",
                        "type": "t_bytes_storage"
                    },
                    {
                        "astId": 6682,
                        "contract": "contracts/HtsSystemContract.sol:HtsSystemContract",
                        "label": "delegatableContractId",
                        "offset": 0,
                        "slot": "3",
                        "type": "t_address"
                    }
                ]
            },
            "t_struct(RoyaltyFee)6819_storage": {
                "encoding": "inplace",
                "label": "struct IHederaTokenService.RoyaltyFee",
                "numberOfBytes": "96",
                "members": [
                    {
                        "astId": 6808,
                        "contract": "contracts/HtsSystemContract.sol:HtsSystemContract",
                        "label": "numerator",
                        "offset": 0,
                        "slot": "0",
                        "type": "t_int64"
                    },
                    {
                        "astId": 6810,
                        "contract": "contracts/HtsSystemContract.sol:HtsSystemContract",
                        "label": "denominator",
                        "offset": 8,
                        "slot": "0",
                        "type": "t_int64"
                    },
                    {
                        "astId": 6812,
                        "contract": "contracts/HtsSystemContract.sol:HtsSystemContract",
                        "label": "amount",
                        "offset": 16,
                        "slot": "0",
                        "type": "t_int64"
                    },
                    {
                        "astId": 6814,
                        "contract": "contracts/HtsSystemContract.sol:HtsSystemContract",
                        "label": "tokenId",
                        "offset": 0,
                        "slot": "1",
                        "type": "t_address"
                    },
                    {
                        "astId": 6816,
                        "contract": "contracts/HtsSystemContract.sol:HtsSystemContract",
                        "label": "useHbarsForPayment",
                        "offset": 20,
                        "slot": "1",
                        "type": "t_bool"
                    },
                    {
                        "astId": 6818,
                        "contract": "contracts/HtsSystemContract.sol:HtsSystemContract",
                        "label": "feeCollector",
                        "offset": 0,
                        "slot": "2",
                        "type": "t_address"
                    }
                ]
            },
            "t_struct(TokenInfo)6749_storage": {
                "encoding": "inplace",
                "label": "struct IHederaTokenService.TokenInfo",
                "numberOfBytes": "416",
                "members": [
                    {
                        "astId": 6718,
                        "contract": "contracts/HtsSystemContract.sol:HtsSystemContract",
                        "label": "token",
                        "offset": 0,
                        "slot": "0",
                        "type": "t_struct(HederaToken)6713_storage"
                    },
                    {
                        "astId": 6721,
                        "contract": "contracts/HtsSystemContract.sol:HtsSystemContract",
                        "label": "totalSupply",
                        "offset": 0,
                        "slot": "8",
                        "type": "t_int64"
                    },
                    {
                        "astId": 6724,
                        "contract": "contracts/HtsSystemContract.sol:HtsSystemContract",
                        "label": "deleted",
                        "offset": 8,
                        "slot": "8",
                        "type": "t_bool"
                    },
                    {
                        "astId": 6727,
                        "contract": "contracts/HtsSystemContract.sol:HtsSystemContract",
                        "label": "defaultKycStatus",
                        "offset": 9,
                        "slot": "8",
                        "type": "t_bool"
                    },
                    {
                        "astId": 6730,
                        "contract": "contracts/HtsSystemContract.sol:HtsSystemContract",
                        "label": "pauseStatus",
                        "offset": 10,
                        "slot": "8",
                        "type": "t_bool"
                    },
                    {
                        "astId": 6735,
                        "contract": "contracts/HtsSystemContract.sol:HtsSystemContract",
                        "label": "fixedFees",
                        "offset": 0,
                        "slot": "9",
                        "type": "t_array(t_struct(FixedFee)6791_storage)dyn_storage"
                    },
                    {
                        "astId": 6740,
                        "contract": "contracts/HtsSystemContract.sol:HtsSystemContract",
                        "label": "fractionalFees",
                        "offset": 0,
                        "slot": "10",
                        "type": "t_array(t_struct(FractionalFee)6805_storage)dyn_storage"
                    },
                    {
                        "astId": 6745,
                        "contract": "contracts/HtsSystemContract.sol:HtsSystemContract",
                        "label": "royaltyFees",
                        "offset": 0,
                        "slot": "11",
                        "type": "t_array(t_struct(RoyaltyFee)6819_storage)dyn_storage"
                    },
                    {
                        "astId": 6748,
                        "contract": "contracts/HtsSystemContract.sol:HtsSystemContract",
                        "label": "ledgerId",
                        "offset": 0,
                        "slot": "12",
                        "type": "t_string_storage"
                    }
                ]
            },
            "t_struct(TokenKey)6690_storage": {
                "encoding": "inplace",
                "label": "struct IHederaTokenService.TokenKey",
                "numberOfBytes": "160",
                "members": [
                    {
                        "astId": 6686,
                        "contract": "contracts/HtsSystemContract.sol:HtsSystemContract",
                        "label": "keyType",
                        "offset": 0,
                        "slot": "0",
                        "type": "t_uint256"
                    },
                    {
                        "astId": 6689,
                        "contract": "contracts/HtsSystemContract.sol:HtsSystemContract",
                        "label": "key",
                        "offset": 0,
                        "slot": "1",
                        "type": "t_struct(KeyValue)6683_storage"
                    }
                ]
            },
            "t_uint256": {
                "encoding": "inplace",
                "label": "uint256",
                "numberOfBytes": "32"
            },
            "t_uint8": {
                "encoding": "inplace",
                "label": "uint8",
                "numberOfBytes": "1"
            }
        }
    },
    "userdoc": {
        "version": 1,
        "kind": "user",
        "methods": {
            "associateToken(address,address)": {
                "notice": "Single-token variant of associateTokens. Will be mapped to a single entry array call of associateTokens"
            },
            "associateTokens(address,address[])": {
                "notice": "Associates the provided account with the provided tokens. Must be signed by the provided  Account's key or called from the accounts contract key  If the provided account is not found, the transaction will resolve to INVALID_ACCOUNT_ID.  If the provided account has been deleted, the transaction will resolve to ACCOUNT_DELETED.  If any of the provided tokens is not found, the transaction will resolve to INVALID_TOKEN_REF.  If any of the provided tokens has been deleted, the transaction will resolve to TOKEN_WAS_DELETED.  If an association between the provided account and any of the tokens already exists, the  transaction will resolve to TOKEN_ALREADY_ASSOCIATED_TO_ACCOUNT.  If the provided account's associations count exceed the constraint of maximum token associations    per account, the transaction will resolve to TOKENS_PER_ACCOUNT_LIMIT_EXCEEDED.  On success, associations between the provided account and tokens are made and the account is    ready to interact with the tokens."
            },
            "dissociateToken(address,address)": {
                "notice": "Single-token variant of dissociateTokens. Will be mapped to a single entry array call of dissociateTokens"
            },
            "dissociateTokens(address,address[])": {
                "notice": "Dissociates the provided account with the provided tokens. Must be signed by the provided Account's key. If the provided account is not found, the transaction will resolve to INVALID_ACCOUNT_ID. If the provided account has been deleted, the transaction will resolve to ACCOUNT_DELETED. If any of the provided tokens is not found, the transaction will resolve to INVALID_TOKEN_REF. If any of the provided tokens has been deleted, the transaction will resolve to TOKEN_WAS_DELETED. If an association between the provided account and any of the tokens does not exist, the transaction will resolve to TOKEN_NOT_ASSOCIATED_TO_ACCOUNT. If a token has not been deleted and has not expired, and the user has a nonzero balance, the transaction will resolve to TRANSACTION_REQUIRES_ZERO_TOKEN_BALANCES. If a <b>fungible token</b> has expired, the user can disassociate even if their token balance is not zero. If a <b>non fungible token</b> has expired, the user can <b>not</b> disassociate if their token balance is not zero. The transaction will resolve to TRANSACTION_REQUIRED_ZERO_TOKEN_BALANCES. On success, associations between the provided account and tokens are removed."
            },
            "getApproved(address,uint256)": {
                "notice": "Get the approved address for a single NFT Only Applicable to NFT Tokens"
            },
            "getFungibleTokenInfo(address)": {
                "notice": "Query fungible token info"
            },
            "getNonFungibleTokenInfo(address,int64)": {
                "notice": "Query non fungible token info"
            },
            "getTokenCustomFees(address)": {
                "notice": "Query token custom fees"
            },
            "getTokenDefaultFreezeStatus(address)": {
                "notice": "Query token default freeze status"
            },
            "getTokenDefaultKycStatus(address)": {
                "notice": "Query token default kyc status"
            },
            "getTokenExpiryInfo(address)": {
                "notice": "Query token expiry info"
            },
            "getTokenInfo(address)": {
                "notice": "Query token info"
            },
            "getTokenKey(address,uint256)": {
                "notice": "Query token KeyValue"
            },
            "getTokenType(address)": {
                "notice": "Query to return the token type for a given address"
            },
            "isApprovedForAll(address,address,address)": {
                "notice": "Query if an address is an authorized operator for another address Only Applicable to NFT Tokens"
            },
            "isToken(address)": {
                "notice": "Query if valid token found for the given address"
            },
            "transferToken(address,address,address,int64)": {
                "notice": "Transfers tokens where the calling account/contract is implicitly the first entry in the token transfer list, where the amount is the value needed to zero balance the transfers. Regular signing rules apply for sending (positive amount) or receiving (negative amount)"
            },
            "transferTokens(address,address[],int64[])": {
                "notice": "Initiates a Fungible Token Transfer"
            }
        }
    },
    "devdoc": {
        "version": 1,
        "kind": "dev",
        "methods": {
            "associateToken(address,address)": {
                "params": {
                    "account": "The account to be associated with the provided token",
                    "token": "The token to be associated with the provided account"
                }
            },
            "associateTokens(address,address[])": {
                "params": {
                    "account": "The account to be associated with the provided tokens",
                    "tokens": "The tokens to be associated with the provided account. In the case of NON_FUNGIBLE_UNIQUE               Type, once an account is associated, it can hold any number of NFTs (serial numbers) of that               token type"
                },
                "returns": {
                    "responseCode": "The response code for the status of the request. SUCCESS is 22."
                }
            },
            "dissociateToken(address,address)": {
                "params": {
                    "account": "The account to be associated with the provided token",
                    "token": "The token to be associated with the provided account"
                }
            },
            "dissociateTokens(address,address[])": {
                "params": {
                    "account": "The account to be dissociated from the provided tokens",
                    "tokens": "The tokens to be dissociated from the provided account."
                },
                "returns": {
                    "responseCode": "The response code for the status of the request. SUCCESS is 22."
                }
            },
            "getAccountId(address)": {
                "details": "Returns the account id (omitting both shard and realm numbers) of the given `address`. The storage adapter, _i.e._, `getHtsStorageAt`, assumes that both shard and realm numbers are zero. Thus, they can be omitted from the account id. See https://docs.hedera.com/hedera/core-concepts/accounts/account-properties for more info on account properties."
            },
            "getApproved(address,uint256)": {
                "params": {
                    "serialNumber": "The NFT to find the approved address for",
                    "token": "The Hedera NFT token address to check approval"
                },
                "returns": {
                    "approved": "The approved address for this NFT, or the zero address if there is none",
                    "responseCode": "The response code for the status of the request. SUCCESS is 22."
                }
            },
            "getFungibleTokenInfo(address)": {
                "params": {
                    "token": "The token address to check"
                },
                "returns": {
                    "_0": "The response code for the status of the request. SUCCESS is 22.",
                    "_1": "FungibleTokenInfo info for `token`"
                }
            },
            "getNonFungibleTokenInfo(address,int64)": {
                "params": {
                    "serialNumber": "The NFT serialNumber to check",
                    "token": "The token address to check"
                },
                "returns": {
                    "_0": "The response code for the status of the request. SUCCESS is 22.",
                    "_1": "NonFungibleTokenInfo info for `token` `serialNumber`"
                }
            },
            "getTokenCustomFees(address)": {
                "params": {
                    "token": "The token address to check"
                },
                "returns": {
                    "_0": "The response code for the status of the request. SUCCESS is 22.",
                    "_1": "Set of fixed fees for `token`",
                    "_2": "Set of fractional fees for `token`",
                    "_3": "Set of royalty fees for `token`"
                }
            },
            "getTokenDefaultFreezeStatus(address)": {
                "params": {
                    "token": "The token address to check"
                },
                "returns": {
                    "_0": "The response code for the status of the request. SUCCESS is 22.",
                    "_1": "True if `token` default freeze status is frozen."
                }
            },
            "getTokenDefaultKycStatus(address)": {
                "params": {
                    "token": "The token address to check"
                },
                "returns": {
                    "_0": "The response code for the status of the request. SUCCESS is 22.",
                    "_1": "True if `token` default kyc status is KycNotApplicable and false if Revoked."
                }
            },
            "getTokenExpiryInfo(address)": {
                "params": {
                    "token": "The token address to check"
                },
                "returns": {
                    "responseCode": "The response code for the status of the request. SUCCESS is 22.",
                    "tokenInfo": "Expiry info for `token`"
                }
            },
            "getTokenInfo(address)": {
                "params": {
                    "token": "The token address to check"
                },
                "returns": {
                    "responseCode": "The response code for the status of the request. SUCCESS is 22.",
                    "tokenInfo": "TokenInfo info for `token`"
                }
            },
            "getTokenKey(address,uint256)": {
                "params": {
                    "keyType": "The keyType of the desired KeyValue",
                    "token": "The token address to check"
                },
                "returns": {
                    "_0": "The response code for the status of the request. SUCCESS is 22.",
                    "_1": "KeyValue info for key of type `keyType`"
                }
            },
            "getTokenType(address)": {
                "params": {
                    "token": "The token address"
                },
                "returns": {
                    "_0": "The response code for the status of the request. SUCCESS is 22.",
                    "_1": "the token type. 0 is FUNGIBLE_COMMON, 1 is NON_FUNGIBLE_UNIQUE, -1 is UNRECOGNIZED"
                }
            },
            "isApprovedForAll(address,address,address)": {
                "params": {
                    "operator": "The address that acts on behalf of the owner",
                    "owner": "The address that owns the NFTs",
                    "token": "The Hedera NFT token address to approve"
                },
                "returns": {
                    "_0": "The response code for the status of the request. SUCCESS is 22.",
                    "_1": "True if `operator` is an approved operator for `owner`, false otherwise"
                }
            },
            "isToken(address)": {
                "params": {
                    "token": "The token address"
                },
                "returns": {
                    "_0": "The response code for the status of the request. SUCCESS is 22.",
                    "_1": "True if valid token found for the given address"
                }
            },
            "transferToken(address,address,address,int64)": {
                "params": {
                    "amount": "Non-negative value to send. a negative value will result in a failure.",
                    "recipient": "The receiver of the transaction",
                    "sender": "The sender for the transaction",
                    "token": "The token to transfer to/from"
                }
            },
            "transferTokens(address,address[],int64[])": {
                "params": {
                    "accountId": "account to do a transfer to/from",
                    "amount": "The amount from the accountId at the same index",
                    "token": "The ID of the token as a solidity address"
                }
            }
        },
        "events": {
            "Approval(address,address,uint256)": {
                "details": "Emitted when the allowance of a `spender` for an `owner` is set by a call to {approve}. `value` is the new allowance."
            },
            "Transfer(address,address,uint256)": {
                "details": "Emitted when `value` tokens are moved from one account (`from`) to another (`to`). Note that `value` may be zero."
            }
        }
    },
    "id": 1
}