{
    "abi": [
        {
            "type": "fallback",
            "stateMutability": "nonpayable"
        },
        {
            "type": "function",
            "name": "_transferAsHTS",
            "inputs": [
                {
                    "name": "from",
                    "type": "address",
                    "internalType": "address"
                },
                {
                    "name": "to",
                    "type": "address",
                    "internalType": "address"
                },
                {
                    "name": "amount",
                    "type": "uint256",
                    "internalType": "uint256"
                }
            ],
            "outputs": [],
            "stateMutability": "nonpayable"
        },
        {
            "type": "function",
            "name": "_transferNFTAsHTS",
            "inputs": [
                {
                    "name": "from",
                    "type": "address",
                    "internalType": "address"
                },
                {
                    "name": "to",
                    "type": "address",
                    "internalType": "address"
                },
                {
                    "name": "serialId",
                    "type": "uint256",
                    "internalType": "uint256"
                }
            ],
            "outputs": [],
            "stateMutability": "nonpayable"
        },
        {
            "type": "function",
            "name": "_update",
            "inputs": [
                {
                    "name": "from",
                    "type": "address",
                    "internalType": "address"
                },
                {
                    "name": "to",
                    "type": "address",
                    "internalType": "address"
                },
                {
                    "name": "amount",
                    "type": "uint256",
                    "internalType": "uint256"
                }
            ],
            "outputs": [],
            "stateMutability": "nonpayable"
        },
        {
            "type": "function",
            "name": "approve",
            "inputs": [
                {
                    "name": "token",
                    "type": "address",
                    "internalType": "address"
                },
                {
                    "name": "spender",
                    "type": "address",
                    "internalType": "address"
                },
                {
                    "name": "amount",
                    "type": "uint256",
                    "internalType": "uint256"
                }
            ],
            "outputs": [
                {
                    "name": "responseCode",
                    "type": "int64",
                    "internalType": "int64"
                }
            ],
            "stateMutability": "nonpayable"
        },
        {
            "type": "function",
            "name": "approveNFT",
            "inputs": [
                {
                    "name": "token",
                    "type": "address",
                    "internalType": "address"
                },
                {
                    "name": "approved",
                    "type": "address",
                    "internalType": "address"
                },
                {
                    "name": "serialNumber",
                    "type": "uint256",
                    "internalType": "uint256"
                }
            ],
            "outputs": [
                {
                    "name": "responseCode",
                    "type": "int64",
                    "internalType": "int64"
                }
            ],
            "stateMutability": "nonpayable"
        },
        {
            "type": "function",
            "name": "associateToken",
            "inputs": [
                {
                    "name": "account",
                    "type": "address",
                    "internalType": "address"
                },
                {
                    "name": "token",
                    "type": "address",
                    "internalType": "address"
                }
            ],
            "outputs": [
                {
                    "name": "responseCode",
                    "type": "int64",
                    "internalType": "int64"
                }
            ],
            "stateMutability": "nonpayable"
        },
        {
            "type": "function",
            "name": "associateTokens",
            "inputs": [
                {
                    "name": "account",
                    "type": "address",
                    "internalType": "address"
                },
                {
                    "name": "tokens",
                    "type": "address[]",
                    "internalType": "address[]"
                }
            ],
            "outputs": [
                {
                    "name": "responseCode",
                    "type": "int64",
                    "internalType": "int64"
                }
            ],
            "stateMutability": "nonpayable"
        },
        {
            "type": "function",
            "name": "burnToken",
            "inputs": [
                {
                    "name": "token",
                    "type": "address",
                    "internalType": "address"
                },
                {
                    "name": "amount",
                    "type": "int64",
                    "internalType": "int64"
                },
                {
                    "name": "",
                    "type": "int64[]",
                    "internalType": "int64[]"
                }
            ],
            "outputs": [
                {
                    "name": "responseCode",
                    "type": "int64",
                    "internalType": "int64"
                },
                {
                    "name": "newTotalSupply",
                    "type": "int64",
                    "internalType": "int64"
                }
            ],
            "stateMutability": "nonpayable"
        },
        {
            "type": "function",
            "name": "cryptoTransfer",
            "inputs": [
                {
                    "name": "transferList",
                    "type": "tuple",
                    "internalType": "struct IHederaTokenService.TransferList",
                    "components": [
                        {
                            "name": "transfers",
                            "type": "tuple[]",
                            "internalType": "struct IHederaTokenService.AccountAmount[]",
                            "components": [
                                {
                                    "name": "accountID",
                                    "type": "address",
                                    "internalType": "address"
                                },
                                {
                                    "name": "amount",
                                    "type": "int64",
                                    "internalType": "int64"
                                },
                                {
                                    "name": "isApproval",
                                    "type": "bool",
                                    "internalType": "bool"
                                }
                            ]
                        }
                    ]
                },
                {
                    "name": "tokenTransfers",
                    "type": "tuple[]",
                    "internalType": "struct IHederaTokenService.TokenTransferList[]",
                    "components": [
                        {
                            "name": "token",
                            "type": "address",
                            "internalType": "address"
                        },
                        {
                            "name": "transfers",
                            "type": "tuple[]",
                            "internalType": "struct IHederaTokenService.AccountAmount[]",
                            "components": [
                                {
                                    "name": "accountID",
                                    "type": "address",
                                    "internalType": "address"
                                },
                                {
                                    "name": "amount",
                                    "type": "int64",
                                    "internalType": "int64"
                                },
                                {
                                    "name": "isApproval",
                                    "type": "bool",
                                    "internalType": "bool"
                                }
                            ]
                        },
                        {
                            "name": "nftTransfers",
                            "type": "tuple[]",
                            "internalType": "struct IHederaTokenService.NftTransfer[]",
                            "components": [
                                {
                                    "name": "senderAccountID",
                                    "type": "address",
                                    "internalType": "address"
                                },
                                {
                                    "name": "receiverAccountID",
                                    "type": "address",
                                    "internalType": "address"
                                },
                                {
                                    "name": "serialNumber",
                                    "type": "int64",
                                    "internalType": "int64"
                                },
                                {
                                    "name": "isApproval",
                                    "type": "bool",
                                    "internalType": "bool"
                                }
                            ]
                        }
                    ]
                }
            ],
            "outputs": [
                {
                    "name": "responseCode",
                    "type": "int64",
                    "internalType": "int64"
                }
            ],
            "stateMutability": "nonpayable"
        },
        {
            "type": "function",
            "name": "dissociateToken",
            "inputs": [
                {
                    "name": "account",
                    "type": "address",
                    "internalType": "address"
                },
                {
                    "name": "token",
                    "type": "address",
                    "internalType": "address"
                }
            ],
            "outputs": [
                {
                    "name": "responseCode",
                    "type": "int64",
                    "internalType": "int64"
                }
            ],
            "stateMutability": "nonpayable"
        },
        {
            "type": "function",
            "name": "dissociateTokens",
            "inputs": [
                {
                    "name": "account",
                    "type": "address",
                    "internalType": "address"
                },
                {
                    "name": "tokens",
                    "type": "address[]",
                    "internalType": "address[]"
                }
            ],
            "outputs": [
                {
                    "name": "responseCode",
                    "type": "int64",
                    "internalType": "int64"
                }
            ],
            "stateMutability": "nonpayable"
        },
        {
            "type": "function",
            "name": "getAccountId",
            "inputs": [
                {
                    "name": "account",
                    "type": "address",
                    "internalType": "address"
                }
            ],
            "outputs": [
                {
                    "name": "accountId",
                    "type": "uint32",
                    "internalType": "uint32"
                }
            ],
            "stateMutability": "view"
        },
        {
            "type": "function",
            "name": "getApproved",
            "inputs": [
                {
                    "name": "token",
                    "type": "address",
                    "internalType": "address"
                },
                {
                    "name": "serialNumber",
                    "type": "uint256",
                    "internalType": "uint256"
                }
            ],
            "outputs": [
                {
                    "name": "responseCode",
                    "type": "int64",
                    "internalType": "int64"
                },
                {
                    "name": "approved",
                    "type": "address",
                    "internalType": "address"
                }
            ],
            "stateMutability": "view"
        },
        {
            "type": "function",
            "name": "getFungibleTokenInfo",
            "inputs": [
                {
                    "name": "token",
                    "type": "address",
                    "internalType": "address"
                }
            ],
            "outputs": [
                {
                    "name": "",
                    "type": "int64",
                    "internalType": "int64"
                },
                {
                    "name": "",
                    "type": "tuple",
                    "internalType": "struct IHederaTokenService.FungibleTokenInfo",
                    "components": [
                        {
                            "name": "tokenInfo",
                            "type": "tuple",
                            "internalType": "struct IHederaTokenService.TokenInfo",
                            "components": [
                                {
                                    "name": "token",
                                    "type": "tuple",
                                    "internalType": "struct IHederaTokenService.HederaToken",
                                    "components": [
                                        {
                                            "name": "name",
                                            "type": "string",
                                            "internalType": "string"
                                        },
                                        {
                                            "name": "symbol",
                                            "type": "string",
                                            "internalType": "string"
                                        },
                                        {
                                            "name": "treasury",
                                            "type": "address",
                                            "internalType": "address"
                                        },
                                        {
                                            "name": "memo",
                                            "type": "string",
                                            "internalType": "string"
                                        },
                                        {
                                            "name": "tokenSupplyType",
                                            "type": "bool",
                                            "internalType": "bool"
                                        },
                                        {
                                            "name": "maxSupply",
                                            "type": "int64",
                                            "internalType": "int64"
                                        },
                                        {
                                            "name": "freezeDefault",
                                            "type": "bool",
                                            "internalType": "bool"
                                        },
                                        {
                                            "name": "tokenKeys",
                                            "type": "tuple[]",
                                            "internalType": "struct IHederaTokenService.TokenKey[]",
                                            "components": [
                                                {
                                                    "name": "keyType",
                                                    "type": "uint256",
                                                    "internalType": "uint256"
                                                },
                                                {
                                                    "name": "key",
                                                    "type": "tuple",
                                                    "internalType": "struct IHederaTokenService.KeyValue",
                                                    "components": [
                                                        {
                                                            "name": "inheritAccountKey",
                                                            "type": "bool",
                                                            "internalType": "bool"
                                                        },
                                                        {
                                                            "name": "contractId",
                                                            "type": "address",
                                                            "internalType": "address"
                                                        },
                                                        {
                                                            "name": "ed25519",
                                                            "type": "bytes",
                                                            "internalType": "bytes"
                                                        },
                                                        {
                                                            "name": "ECDSA_secp256k1",
                                                            "type": "bytes",
                                                            "internalType": "bytes"
                                                        },
                                                        {
                                                            "name": "delegatableContractId",
                                                            "type": "address",
                                                            "internalType": "address"
                                                        }
                                                    ]
                                                }
                                            ]
                                        },
                                        {
                                            "name": "expiry",
                                            "type": "tuple",
                                            "internalType": "struct IHederaTokenService.Expiry",
                                            "components": [
                                                {
                                                    "name": "second",
                                                    "type": "int64",
                                                    "internalType": "int64"
                                                },
                                                {
                                                    "name": "autoRenewAccount",
                                                    "type": "address",
                                                    "internalType": "address"
                                                },
                                                {
                                                    "name": "autoRenewPeriod",
                                                    "type": "int64",
                                                    "internalType": "int64"
                                                }
                                            ]
                                        }
                                    ]
                                },
                                {
                                    "name": "totalSupply",
                                    "type": "int64",
                                    "internalType": "int64"
                                },
                                {
                                    "name": "deleted",
                                    "type": "bool",
                                    "internalType": "bool"
                                },
                                {
                                    "name": "defaultKycStatus",
                                    "type": "bool",
                                    "internalType": "bool"
                                },
                                {
                                    "name": "pauseStatus",
                                    "type": "bool",
                                    "internalType": "bool"
                                },
                                {
                                    "name": "fixedFees",
                                    "type": "tuple[]",
                                    "internalType": "struct IHederaTokenService.FixedFee[]",
                                    "components": [
                                        {
                                            "name": "amount",
                                            "type": "int64",
                                            "internalType": "int64"
                                        },
                                        {
                                            "name": "tokenId",
                                            "type": "address",
                                            "internalType": "address"
                                        },
                                        {
                                            "name": "useHbarsForPayment",
                                            "type": "bool",
                                            "internalType": "bool"
                                        },
                                        {
                                            "name": "useCurrentTokenForPayment",
                                            "type": "bool",
                                            "internalType": "bool"
                                        },
                                        {
                                            "name": "feeCollector",
                                            "type": "address",
                                            "internalType": "address"
                                        }
                                    ]
                                },
                                {
                                    "name": "fractionalFees",
                                    "type": "tuple[]",
                                    "internalType": "struct IHederaTokenService.FractionalFee[]",
                                    "components": [
                                        {
                                            "name": "numerator",
                                            "type": "int64",
                                            "internalType": "int64"
                                        },
                                        {
                                            "name": "denominator",
                                            "type": "int64",
                                            "internalType": "int64"
                                        },
                                        {
                                            "name": "minimumAmount",
                                            "type": "int64",
                                            "internalType": "int64"
                                        },
                                        {
                                            "name": "maximumAmount",
                                            "type": "int64",
                                            "internalType": "int64"
                                        },
                                        {
                                            "name": "netOfTransfers",
                                            "type": "bool",
                                            "internalType": "bool"
                                        },
                                        {
                                            "name": "feeCollector",
                                            "type": "address",
                                            "internalType": "address"
                                        }
                                    ]
                                },
                                {
                                    "name": "royaltyFees",
                                    "type": "tuple[]",
                                    "internalType": "struct IHederaTokenService.RoyaltyFee[]",
                                    "components": [
                                        {
                                            "name": "numerator",
                                            "type": "int64",
                                            "internalType": "int64"
                                        },
                                        {
                                            "name": "denominator",
                                            "type": "int64",
                                            "internalType": "int64"
                                        },
                                        {
                                            "name": "amount",
                                            "type": "int64",
                                            "internalType": "int64"
                                        },
                                        {
                                            "name": "tokenId",
                                            "type": "address",
                                            "internalType": "address"
                                        },
                                        {
                                            "name": "useHbarsForPayment",
                                            "type": "bool",
                                            "internalType": "bool"
                                        },
                                        {
                                            "name": "feeCollector",
                                            "type": "address",
                                            "internalType": "address"
                                        }
                                    ]
                                },
                                {
                                    "name": "ledgerId",
                                    "type": "string",
                                    "internalType": "string"
                                }
                            ]
                        },
                        {
                            "name": "decimals",
                            "type": "int32",
                            "internalType": "int32"
                        }
                    ]
                }
            ],
            "stateMutability": "nonpayable"
        },
        {
            "type": "function",
            "name": "getNonFungibleTokenInfo",
            "inputs": [
                {
                    "name": "token",
                    "type": "address",
                    "internalType": "address"
                },
                {
                    "name": "serialNumber",
                    "type": "int64",
                    "internalType": "int64"
                }
            ],
            "outputs": [
                {
                    "name": "",
                    "type": "int64",
                    "internalType": "int64"
                },
                {
                    "name": "",
                    "type": "tuple",
                    "internalType": "struct IHederaTokenService.NonFungibleTokenInfo",
                    "components": [
                        {
                            "name": "tokenInfo",
                            "type": "tuple",
                            "internalType": "struct IHederaTokenService.TokenInfo",
                            "components": [
                                {
                                    "name": "token",
                                    "type": "tuple",
                                    "internalType": "struct IHederaTokenService.HederaToken",
                                    "components": [
                                        {
                                            "name": "name",
                                            "type": "string",
                                            "internalType": "string"
                                        },
                                        {
                                            "name": "symbol",
                                            "type": "string",
                                            "internalType": "string"
                                        },
                                        {
                                            "name": "treasury",
                                            "type": "address",
                                            "internalType": "address"
                                        },
                                        {
                                            "name": "memo",
                                            "type": "string",
                                            "internalType": "string"
                                        },
                                        {
                                            "name": "tokenSupplyType",
                                            "type": "bool",
                                            "internalType": "bool"
                                        },
                                        {
                                            "name": "maxSupply",
                                            "type": "int64",
                                            "internalType": "int64"
                                        },
                                        {
                                            "name": "freezeDefault",
                                            "type": "bool",
                                            "internalType": "bool"
                                        },
                                        {
                                            "name": "tokenKeys",
                                            "type": "tuple[]",
                                            "internalType": "struct IHederaTokenService.TokenKey[]",
                                            "components": [
                                                {
                                                    "name": "keyType",
                                                    "type": "uint256",
                                                    "internalType": "uint256"
                                                },
                                                {
                                                    "name": "key",
                                                    "type": "tuple",
                                                    "internalType": "struct IHederaTokenService.KeyValue",
                                                    "components": [
                                                        {
                                                            "name": "inheritAccountKey",
                                                            "type": "bool",
                                                            "internalType": "bool"
                                                        },
                                                        {
                                                            "name": "contractId",
                                                            "type": "address",
                                                            "internalType": "address"
                                                        },
                                                        {
                                                            "name": "ed25519",
                                                            "type": "bytes",
                                                            "internalType": "bytes"
                                                        },
                                                        {
                                                            "name": "ECDSA_secp256k1",
                                                            "type": "bytes",
                                                            "internalType": "bytes"
                                                        },
                                                        {
                                                            "name": "delegatableContractId",
                                                            "type": "address",
                                                            "internalType": "address"
                                                        }
                                                    ]
                                                }
                                            ]
                                        },
                                        {
                                            "name": "expiry",
                                            "type": "tuple",
                                            "internalType": "struct IHederaTokenService.Expiry",
                                            "components": [
                                                {
                                                    "name": "second",
                                                    "type": "int64",
                                                    "internalType": "int64"
                                                },
                                                {
                                                    "name": "autoRenewAccount",
                                                    "type": "address",
                                                    "internalType": "address"
                                                },
                                                {
                                                    "name": "autoRenewPeriod",
                                                    "type": "int64",
                                                    "internalType": "int64"
                                                }
                                            ]
                                        }
                                    ]
                                },
                                {
                                    "name": "totalSupply",
                                    "type": "int64",
                                    "internalType": "int64"
                                },
                                {
                                    "name": "deleted",
                                    "type": "bool",
                                    "internalType": "bool"
                                },
                                {
                                    "name": "defaultKycStatus",
                                    "type": "bool",
                                    "internalType": "bool"
                                },
                                {
                                    "name": "pauseStatus",
                                    "type": "bool",
                                    "internalType": "bool"
                                },
                                {
                                    "name": "fixedFees",
                                    "type": "tuple[]",
                                    "internalType": "struct IHederaTokenService.FixedFee[]",
                                    "components": [
                                        {
                                            "name": "amount",
                                            "type": "int64",
                                            "internalType": "int64"
                                        },
                                        {
                                            "name": "tokenId",
                                            "type": "address",
                                            "internalType": "address"
                                        },
                                        {
                                            "name": "useHbarsForPayment",
                                            "type": "bool",
                                            "internalType": "bool"
                                        },
                                        {
                                            "name": "useCurrentTokenForPayment",
                                            "type": "bool",
                                            "internalType": "bool"
                                        },
                                        {
                                            "name": "feeCollector",
                                            "type": "address",
                                            "internalType": "address"
                                        }
                                    ]
                                },
                                {
                                    "name": "fractionalFees",
                                    "type": "tuple[]",
                                    "internalType": "struct IHederaTokenService.FractionalFee[]",
                                    "components": [
                                        {
                                            "name": "numerator",
                                            "type": "int64",
                                            "internalType": "int64"
                                        },
                                        {
                                            "name": "denominator",
                                            "type": "int64",
                                            "internalType": "int64"
                                        },
                                        {
                                            "name": "minimumAmount",
                                            "type": "int64",
                                            "internalType": "int64"
                                        },
                                        {
                                            "name": "maximumAmount",
                                            "type": "int64",
                                            "internalType": "int64"
                                        },
                                        {
                                            "name": "netOfTransfers",
                                            "type": "bool",
                                            "internalType": "bool"
                                        },
                                        {
                                            "name": "feeCollector",
                                            "type": "address",
                                            "internalType": "address"
                                        }
                                    ]
                                },
                                {
                                    "name": "royaltyFees",
                                    "type": "tuple[]",
                                    "internalType": "struct IHederaTokenService.RoyaltyFee[]",
                                    "components": [
                                        {
                                            "name": "numerator",
                                            "type": "int64",
                                            "internalType": "int64"
                                        },
                                        {
                                            "name": "denominator",
                                            "type": "int64",
                                            "internalType": "int64"
                                        },
                                        {
                                            "name": "amount",
                                            "type": "int64",
                                            "internalType": "int64"
                                        },
                                        {
                                            "name": "tokenId",
                                            "type": "address",
                                            "internalType": "address"
                                        },
                                        {
                                            "name": "useHbarsForPayment",
                                            "type": "bool",
                                            "internalType": "bool"
                                        },
                                        {
                                            "name": "feeCollector",
                                            "type": "address",
                                            "internalType": "address"
                                        }
                                    ]
                                },
                                {
                                    "name": "ledgerId",
                                    "type": "string",
                                    "internalType": "string"
                                }
                            ]
                        },
                        {
                            "name": "serialNumber",
                            "type": "int64",
                            "internalType": "int64"
                        },
                        {
                            "name": "ownerId",
                            "type": "address",
                            "internalType": "address"
                        },
                        {
                            "name": "creationTime",
                            "type": "int64",
                            "internalType": "int64"
                        },
                        {
                            "name": "metadata",
                            "type": "bytes",
                            "internalType": "bytes"
                        },
                        {
                            "name": "spenderId",
                            "type": "address",
                            "internalType": "address"
                        }
                    ]
                }
            ],
            "stateMutability": "nonpayable"
        },
        {
            "type": "function",
            "name": "getTokenCustomFees",
            "inputs": [
                {
                    "name": "token",
                    "type": "address",
                    "internalType": "address"
                }
            ],
            "outputs": [
                {
                    "name": "",
                    "type": "int64",
                    "internalType": "int64"
                },
                {
                    "name": "",
                    "type": "tuple[]",
                    "internalType": "struct IHederaTokenService.FixedFee[]",
                    "components": [
                        {
                            "name": "amount",
                            "type": "int64",
                            "internalType": "int64"
                        },
                        {
                            "name": "tokenId",
                            "type": "address",
                            "internalType": "address"
                        },
                        {
                            "name": "useHbarsForPayment",
                            "type": "bool",
                            "internalType": "bool"
                        },
                        {
                            "name": "useCurrentTokenForPayment",
                            "type": "bool",
                            "internalType": "bool"
                        },
                        {
                            "name": "feeCollector",
                            "type": "address",
                            "internalType": "address"
                        }
                    ]
                },
                {
                    "name": "",
                    "type": "tuple[]",
                    "internalType": "struct IHederaTokenService.FractionalFee[]",
                    "components": [
                        {
                            "name": "numerator",
                            "type": "int64",
                            "internalType": "int64"
                        },
                        {
                            "name": "denominator",
                            "type": "int64",
                            "internalType": "int64"
                        },
                        {
                            "name": "minimumAmount",
                            "type": "int64",
                            "internalType": "int64"
                        },
                        {
                            "name": "maximumAmount",
                            "type": "int64",
                            "internalType": "int64"
                        },
                        {
                            "name": "netOfTransfers",
                            "type": "bool",
                            "internalType": "bool"
                        },
                        {
                            "name": "feeCollector",
                            "type": "address",
                            "internalType": "address"
                        }
                    ]
                },
                {
                    "name": "",
                    "type": "tuple[]",
                    "internalType": "struct IHederaTokenService.RoyaltyFee[]",
                    "components": [
                        {
                            "name": "numerator",
                            "type": "int64",
                            "internalType": "int64"
                        },
                        {
                            "name": "denominator",
                            "type": "int64",
                            "internalType": "int64"
                        },
                        {
                            "name": "amount",
                            "type": "int64",
                            "internalType": "int64"
                        },
                        {
                            "name": "tokenId",
                            "type": "address",
                            "internalType": "address"
                        },
                        {
                            "name": "useHbarsForPayment",
                            "type": "bool",
                            "internalType": "bool"
                        },
                        {
                            "name": "feeCollector",
                            "type": "address",
                            "internalType": "address"
                        }
                    ]
                }
            ],
            "stateMutability": "nonpayable"
        },
        {
            "type": "function",
            "name": "getTokenDefaultFreezeStatus",
            "inputs": [
                {
                    "name": "token",
                    "type": "address",
                    "internalType": "address"
                }
            ],
            "outputs": [
                {
                    "name": "",
                    "type": "int64",
                    "internalType": "int64"
                },
                {
                    "name": "",
                    "type": "bool",
                    "internalType": "bool"
                }
            ],
            "stateMutability": "nonpayable"
        },
        {
            "type": "function",
            "name": "getTokenDefaultKycStatus",
            "inputs": [
                {
                    "name": "token",
                    "type": "address",
                    "internalType": "address"
                }
            ],
            "outputs": [
                {
                    "name": "",
                    "type": "int64",
                    "internalType": "int64"
                },
                {
                    "name": "",
                    "type": "bool",
                    "internalType": "bool"
                }
            ],
            "stateMutability": "nonpayable"
        },
        {
            "type": "function",
            "name": "getTokenExpiryInfo",
            "inputs": [
                {
                    "name": "token",
                    "type": "address",
                    "internalType": "address"
                }
            ],
            "outputs": [
                {
                    "name": "responseCode",
                    "type": "int64",
                    "internalType": "int64"
                },
                {
                    "name": "tokenInfo",
                    "type": "tuple",
                    "internalType": "struct IHederaTokenService.Expiry",
                    "components": [
                        {
                            "name": "second",
                            "type": "int64",
                            "internalType": "int64"
                        },
                        {
                            "name": "autoRenewAccount",
                            "type": "address",
                            "internalType": "address"
                        },
                        {
                            "name": "autoRenewPeriod",
                            "type": "int64",
                            "internalType": "int64"
                        }
                    ]
                }
            ],
            "stateMutability": "nonpayable"
        },
        {
            "type": "function",
            "name": "getTokenInfo",
            "inputs": [
                {
                    "name": "token",
                    "type": "address",
                    "internalType": "address"
                }
            ],
            "outputs": [
                {
                    "name": "responseCode",
                    "type": "int64",
                    "internalType": "int64"
                },
                {
                    "name": "tokenInfo",
                    "type": "tuple",
                    "internalType": "struct IHederaTokenService.TokenInfo",
                    "components": [
                        {
                            "name": "token",
                            "type": "tuple",
                            "internalType": "struct IHederaTokenService.HederaToken",
                            "components": [
                                {
                                    "name": "name",
                                    "type": "string",
                                    "internalType": "string"
                                },
                                {
                                    "name": "symbol",
                                    "type": "string",
                                    "internalType": "string"
                                },
                                {
                                    "name": "treasury",
                                    "type": "address",
                                    "internalType": "address"
                                },
                                {
                                    "name": "memo",
                                    "type": "string",
                                    "internalType": "string"
                                },
                                {
                                    "name": "tokenSupplyType",
                                    "type": "bool",
                                    "internalType": "bool"
                                },
                                {
                                    "name": "maxSupply",
                                    "type": "int64",
                                    "internalType": "int64"
                                },
                                {
                                    "name": "freezeDefault",
                                    "type": "bool",
                                    "internalType": "bool"
                                },
                                {
                                    "name": "tokenKeys",
                                    "type": "tuple[]",
                                    "internalType": "struct IHederaTokenService.TokenKey[]",
                                    "components": [
                                        {
                                            "name": "keyType",
                                            "type": "uint256",
                                            "internalType": "uint256"
                                        },
                                        {
                                            "name": "key",
                                            "type": "tuple",
                                            "internalType": "struct IHederaTokenService.KeyValue",
                                            "components": [
                                                {
                                                    "name": "inheritAccountKey",
                                                    "type": "bool",
                                                    "internalType": "bool"
                                                },
                                                {
                                                    "name": "contractId",
                                                    "type": "address",
                                                    "internalType": "address"
                                                },
                                                {
                                                    "name": "ed25519",
                                                    "type": "bytes",
                                                    "internalType": "bytes"
                                                },
                                                {
                                                    "name": "ECDSA_secp256k1",
                                                    "type": "bytes",
                                                    "internalType": "bytes"
                                                },
                                                {
                                                    "name": "delegatableContractId",
                                                    "type": "address",
                                                    "internalType": "address"
                                                }
                                            ]
                                        }
                                    ]
                                },
                                {
                                    "name": "expiry",
                                    "type": "tuple",
                                    "internalType": "struct IHederaTokenService.Expiry",
                                    "components": [
                                        {
                                            "name": "second",
                                            "type": "int64",
                                            "internalType": "int64"
                                        },
                                        {
                                            "name": "autoRenewAccount",
                                            "type": "address",
                                            "internalType": "address"
                                        },
                                        {
                                            "name": "autoRenewPeriod",
                                            "type": "int64",
                                            "internalType": "int64"
                                        }
                                    ]
                                }
                            ]
                        },
                        {
                            "name": "totalSupply",
                            "type": "int64",
                            "internalType": "int64"
                        },
                        {
                            "name": "deleted",
                            "type": "bool",
                            "internalType": "bool"
                        },
                        {
                            "name": "defaultKycStatus",
                            "type": "bool",
                            "internalType": "bool"
                        },
                        {
                            "name": "pauseStatus",
                            "type": "bool",
                            "internalType": "bool"
                        },
                        {
                            "name": "fixedFees",
                            "type": "tuple[]",
                            "internalType": "struct IHederaTokenService.FixedFee[]",
                            "components": [
                                {
                                    "name": "amount",
                                    "type": "int64",
                                    "internalType": "int64"
                                },
                                {
                                    "name": "tokenId",
                                    "type": "address",
                                    "internalType": "address"
                                },
                                {
                                    "name": "useHbarsForPayment",
                                    "type": "bool",
                                    "internalType": "bool"
                                },
                                {
                                    "name": "useCurrentTokenForPayment",
                                    "type": "bool",
                                    "internalType": "bool"
                                },
                                {
                                    "name": "feeCollector",
                                    "type": "address",
                                    "internalType": "address"
                                }
                            ]
                        },
                        {
                            "name": "fractionalFees",
                            "type": "tuple[]",
                            "internalType": "struct IHederaTokenService.FractionalFee[]",
                            "components": [
                                {
                                    "name": "numerator",
                                    "type": "int64",
                                    "internalType": "int64"
                                },
                                {
                                    "name": "denominator",
                                    "type": "int64",
                                    "internalType": "int64"
                                },
                                {
                                    "name": "minimumAmount",
                                    "type": "int64",
                                    "internalType": "int64"
                                },
                                {
                                    "name": "maximumAmount",
                                    "type": "int64",
                                    "internalType": "int64"
                                },
                                {
                                    "name": "netOfTransfers",
                                    "type": "bool",
                                    "internalType": "bool"
                                },
                                {
                                    "name": "feeCollector",
                                    "type": "address",
                                    "internalType": "address"
                                }
                            ]
                        },
                        {
                            "name": "royaltyFees",
                            "type": "tuple[]",
                            "internalType": "struct IHederaTokenService.RoyaltyFee[]",
                            "components": [
                                {
                                    "name": "numerator",
                                    "type": "int64",
                                    "internalType": "int64"
                                },
                                {
                                    "name": "denominator",
                                    "type": "int64",
                                    "internalType": "int64"
                                },
                                {
                                    "name": "amount",
                                    "type": "int64",
                                    "internalType": "int64"
                                },
                                {
                                    "name": "tokenId",
                                    "type": "address",
                                    "internalType": "address"
                                },
                                {
                                    "name": "useHbarsForPayment",
                                    "type": "bool",
                                    "internalType": "bool"
                                },
                                {
                                    "name": "feeCollector",
                                    "type": "address",
                                    "internalType": "address"
                                }
                            ]
                        },
                        {
                            "name": "ledgerId",
                            "type": "string",
                            "internalType": "string"
                        }
                    ]
                }
            ],
            "stateMutability": "nonpayable"
        },
        {
            "type": "function",
            "name": "getTokenKey",
            "inputs": [
                {
                    "name": "token",
                    "type": "address",
                    "internalType": "address"
                },
                {
                    "name": "keyType",
                    "type": "uint256",
                    "internalType": "uint256"
                }
            ],
            "outputs": [
                {
                    "name": "",
                    "type": "int64",
                    "internalType": "int64"
                },
                {
                    "name": "",
                    "type": "tuple",
                    "internalType": "struct IHederaTokenService.KeyValue",
                    "components": [
                        {
                            "name": "inheritAccountKey",
                            "type": "bool",
                            "internalType": "bool"
                        },
                        {
                            "name": "contractId",
                            "type": "address",
                            "internalType": "address"
                        },
                        {
                            "name": "ed25519",
                            "type": "bytes",
                            "internalType": "bytes"
                        },
                        {
                            "name": "ECDSA_secp256k1",
                            "type": "bytes",
                            "internalType": "bytes"
                        },
                        {
                            "name": "delegatableContractId",
                            "type": "address",
                            "internalType": "address"
                        }
                    ]
                }
            ],
            "stateMutability": "nonpayable"
        },
        {
            "type": "function",
            "name": "getTokenType",
            "inputs": [
                {
                    "name": "token",
                    "type": "address",
                    "internalType": "address"
                }
            ],
            "outputs": [
                {
                    "name": "",
                    "type": "int64",
                    "internalType": "int64"
                },
                {
                    "name": "",
                    "type": "int32",
                    "internalType": "int32"
                }
            ],
            "stateMutability": "nonpayable"
        },
        {
            "type": "function",
            "name": "isApprovedForAll",
            "inputs": [
                {
                    "name": "token",
                    "type": "address",
                    "internalType": "address"
                },
                {
                    "name": "owner",
                    "type": "address",
                    "internalType": "address"
                },
                {
                    "name": "operator",
                    "type": "address",
                    "internalType": "address"
                }
            ],
            "outputs": [
                {
                    "name": "",
                    "type": "int64",
                    "internalType": "int64"
                },
                {
                    "name": "",
                    "type": "bool",
                    "internalType": "bool"
                }
            ],
            "stateMutability": "view"
        },
        {
            "type": "function",
            "name": "isToken",
            "inputs": [
                {
                    "name": "token",
                    "type": "address",
                    "internalType": "address"
                }
            ],
            "outputs": [
                {
                    "name": "",
                    "type": "int64",
                    "internalType": "int64"
                },
                {
                    "name": "",
                    "type": "bool",
                    "internalType": "bool"
                }
            ],
            "stateMutability": "nonpayable"
        },
        {
            "type": "function",
            "name": "mintToken",
            "inputs": [
                {
                    "name": "token",
                    "type": "address",
                    "internalType": "address"
                },
                {
                    "name": "amount",
                    "type": "int64",
                    "internalType": "int64"
                },
                {
                    "name": "",
                    "type": "bytes[]",
                    "internalType": "bytes[]"
                }
            ],
            "outputs": [
                {
                    "name": "responseCode",
                    "type": "int64",
                    "internalType": "int64"
                },
                {
                    "name": "newTotalSupply",
                    "type": "int64",
                    "internalType": "int64"
                },
                {
                    "name": "serialNumbers",
                    "type": "int64[]",
                    "internalType": "int64[]"
                }
            ],
            "stateMutability": "nonpayable"
        },
        {
            "type": "function",
            "name": "transferFrom",
            "inputs": [
                {
                    "name": "token",
                    "type": "address",
                    "internalType": "address"
                },
                {
                    "name": "sender",
                    "type": "address",
                    "internalType": "address"
                },
                {
                    "name": "recipient",
                    "type": "address",
                    "internalType": "address"
                },
                {
                    "name": "amount",
                    "type": "uint256",
                    "internalType": "uint256"
                }
            ],
            "outputs": [
                {
                    "name": "",
                    "type": "int64",
                    "internalType": "int64"
                }
            ],
            "stateMutability": "nonpayable"
        },
        {
            "type": "function",
            "name": "transferFromNFT",
            "inputs": [
                {
                    "name": "token",
                    "type": "address",
                    "internalType": "address"
                },
                {
                    "name": "from",
                    "type": "address",
                    "internalType": "address"
                },
                {
                    "name": "to",
                    "type": "address",
                    "internalType": "address"
                },
                {
                    "name": "serialNumber",
                    "type": "uint256",
                    "internalType": "uint256"
                }
            ],
            "outputs": [
                {
                    "name": "",
                    "type": "int64",
                    "internalType": "int64"
                }
            ],
            "stateMutability": "nonpayable"
        },
        {
            "type": "function",
            "name": "transferNFT",
            "inputs": [
                {
                    "name": "token",
                    "type": "address",
                    "internalType": "address"
                },
                {
                    "name": "sender",
                    "type": "address",
                    "internalType": "address"
                },
                {
                    "name": "recipient",
                    "type": "address",
                    "internalType": "address"
                },
                {
                    "name": "serialNumber",
                    "type": "int64",
                    "internalType": "int64"
                }
            ],
            "outputs": [
                {
                    "name": "responseCode",
                    "type": "int64",
                    "internalType": "int64"
                }
            ],
            "stateMutability": "nonpayable"
        },
        {
            "type": "function",
            "name": "transferNFTs",
            "inputs": [
                {
                    "name": "token",
                    "type": "address",
                    "internalType": "address"
                },
                {
                    "name": "sender",
                    "type": "address[]",
                    "internalType": "address[]"
                },
                {
                    "name": "receiver",
                    "type": "address[]",
                    "internalType": "address[]"
                },
                {
                    "name": "serialNumber",
                    "type": "int64[]",
                    "internalType": "int64[]"
                }
            ],
            "outputs": [
                {
                    "name": "responseCode",
                    "type": "int64",
                    "internalType": "int64"
                }
            ],
            "stateMutability": "nonpayable"
        },
        {
            "type": "function",
            "name": "transferToken",
            "inputs": [
                {
                    "name": "token",
                    "type": "address",
                    "internalType": "address"
                },
                {
                    "name": "sender",
                    "type": "address",
                    "internalType": "address"
                },
                {
                    "name": "recipient",
                    "type": "address",
                    "internalType": "address"
                },
                {
                    "name": "amount",
                    "type": "int64",
                    "internalType": "int64"
                }
            ],
            "outputs": [
                {
                    "name": "responseCode",
                    "type": "int64",
                    "internalType": "int64"
                }
            ],
            "stateMutability": "nonpayable"
        },
        {
            "type": "function",
            "name": "transferTokens",
            "inputs": [
                {
                    "name": "token",
                    "type": "address",
                    "internalType": "address"
                },
                {
                    "name": "accountId",
                    "type": "address[]",
                    "internalType": "address[]"
                },
                {
                    "name": "amount",
                    "type": "int64[]",
                    "internalType": "int64[]"
                }
            ],
            "outputs": [
                {
                    "name": "responseCode",
                    "type": "int64",
                    "internalType": "int64"
                }
            ],
            "stateMutability": "nonpayable"
        },
        {
            "type": "event",
            "name": "Approval",
            "inputs": [
                {
                    "name": "owner",
                    "type": "address",
                    "indexed": true,
                    "internalType": "address"
                },
                {
                    "name": "spender",
                    "type": "address",
                    "indexed": true,
                    "internalType": "address"
                },
                {
                    "name": "amount",
                    "type": "uint256",
                    "indexed": false,
                    "internalType": "uint256"
                }
            ],
            "anonymous": false
        },
        {
            "type": "event",
            "name": "ApprovalForAll",
            "inputs": [
                {
                    "name": "owner",
                    "type": "address",
                    "indexed": true,
                    "internalType": "address"
                },
                {
                    "name": "operator",
                    "type": "address",
                    "indexed": true,
                    "internalType": "address"
                },
                {
                    "name": "approved",
                    "type": "bool",
                    "indexed": false,
                    "internalType": "bool"
                }
            ],
            "anonymous": false
        },
        {
            "type": "event",
            "name": "Transfer",
            "inputs": [
                {
                    "name": "from",
                    "type": "address",
                    "indexed": true,
                    "internalType": "address"
                },
                {
                    "name": "to",
                    "type": "address",
                    "indexed": true,
                    "internalType": "address"
                },
                {
                    "name": "amount",
                    "type": "uint256",
                    "indexed": false,
                    "internalType": "uint256"
                }
            ],
            "anonymous": false
        }
    ],
    "bytecode": {
        "object": "0x6080604052348015600e575f5ffd5b506175548061001c5f395ff3fe608060405234801561000f575f5ffd5b50600436106101e3575f3560e01c806349146bde1161010d578063ae7611a0116100a0578063e0f4059a1161006f578063e0f4059a14610627578063e1f21c6714610649578063eca369171461065c578063f49f40db1461066f576101e3565b8063ae7611a01461058e578063d614cdb8146105b1578063d6910d06146105d2578063e0b490f7146105ff576101e3565b806382bba493116100dc57806382bba4931461052557806393272baf146105385780639b23d3d914610568578063a7daa18d1461057b576101e3565b806349146bde146104d95780635cfc9011146104ec5780637336aaf0146104ff57806378b6391814610512576101e3565b8063287e1da811610185578063335e04c111610154578063335e04c1146104715780633c4dd32e146104845780633f28a19b146104a55780634839fb75146104c6576101e3565b8063287e1da8146104175780632c4ba191146104385780632e63879b1461044b5780632fc98c7d1461045e576101e3565b80630e71804f116101c15780630e71804f146103a357806315dacbea146103b657806319f37361146103c95780631f69565f146103f6576101e3565b8063098f23661461032e578063099794e8146103685780630bb3bfa81461038e575b5f366060601c82101561023d5760405162461bcd60e51b815260206004820152601d60248201527f66616c6c6261636b3a206e6f7420656e6f7567682063616c6c6461746100000060448201526064015b60405180910390fd5b5f61024b6004823681615391565b610254916153b8565b60e01c905063618dc65e81146102ac5760405162461bcd60e51b815260206004820152601e60248201527f66616c6c6261636b3a20756e737570706f727465642073656c6563746f7200006044820152606401610234565b5f6102bb601860043684615391565b6102c4916153f0565b60601c90503081146103185760405162461bcd60e51b815260206004820152601d60248201527f66616c6c6261636b3a20746f6b656e206973206e6f742063616c6c65720000006044820152606401610234565b610320610682565b805195506020019350505050f35b61034161033c36600461543d565b611273565b6040805160079390930b83526001600160a01b039091166020830152015b60405180910390f35b61037b610376366004615467565b611361565b60405160079190910b815260200161035f565b6103a161039c36600461549e565b6113eb565b005b61037b6103b1366004615706565b6114c9565b61037b6103c4366004615942565b6117d9565b6103dc6103d7366004615990565b611810565b6040805160079390930b835290151560208301520161035f565b610409610404366004615990565b6118d1565b60405161035f929190615e12565b61042a610425366004615e2d565b6119c5565b60405161035f929190615e59565b61037b610446366004615fb2565b611c4c565b61037b610459366004616050565b611e2d565b6103a161046c36600461549e565b6120fe565b6103dc61047f366004615990565b61214f565b61049761049236600461543d565b61224b565b60405161035f92919061609c565b6104b86104b3366004615990565b61242a565b60405161035f9291906160b7565b6103a16104d436600461549e565b612615565b61037b6104e7366004615467565b612666565b61037b6104fa3660046160f4565b6126e6565b61037b61050d36600461549e565b612925565b61037b610520366004616050565b6129a2565b61037b61053336600461614d565b612c76565b61054b610546366004615990565b612df7565b6040805160079390930b835260039190910b60208301520161035f565b61037b610576366004615942565b612ed7565b6103dc610589366004615990565b612f05565b6105a161059c366004615990565b612fc0565b60405161035f94939291906161c1565b6105c46105bf366004615990565b6130bf565b60405161035f929190616202565b6105e56105e036600461623e565b6131c3565b60408051600793840b81529190920b60208201520161035f565b61061261060d366004615990565b6134e5565b60405163ffffffff909116815260200161035f565b61063a6106353660046162ab565b61355f565b60405161035f939291906163c0565b61037b61065736600461549e565b613897565b61037b61066a3660046160f4565b6138c9565b6103dc61067d36600461641d565b613aac565b60605f610693601c60183684615391565b61069c916153b8565b905060408051808201825260098152681393d517d193d5539160ba1b602090910152517f7bafae6429a8b3ef0db181af7c5834a6f2b1af33146a1a9ae02e833d27f2431b906106ec905f9061650b565b60405180910390200361074b5760405162461bcd60e51b815260206004820152602160248201527f7265646972656374466f72546f6b656e3a20746f6b656e206e6f7420666f756e6044820152601960fa1b6064820152608401610234565b61016619330161113a5763e096a9a160e01b6001600160e01b03198216016107f257601c3610156107c85760405162461bcd60e51b815260206004820152602160248201527f676574546f6b656e496e666f3a204e6f7420656e6f7567682063616c6c6461746044820152606160f81b6064820152608401610234565b601660056040516020016107dd9291906168ce565b60405160208183030381529060405291505090565b63028c4f7360e51b6001600160e01b031982160161088657601c36101561086b5760405162461bcd60e51b815260206004820152602760248201527f676574546f6b656e437573746f6d466565733a204e6f7420656e6f7567682063604482015266616c6c6461746160c81b6064820152608401610234565b6040516107dd90601690600e90600f906010906020016169ab565b63cca1fb3f60e01b6001600160e01b031982160161092c57601c3610156109055760405162461bcd60e51b815260206004820152602d60248201527f676574546f6b656e44656661756c744b79635374617475733a204e6f7420656e60448201526c6f7567682063616c6c6461746160981b6064820152608401610234565b600d546040805160166020820152600160481b90920460ff161515908201526060016107dd565b6358255e7360e01b6001600160e01b03198216016109d557601c3610156109ae5760405162461bcd60e51b815260206004820152603060248201527f676574546f6b656e44656661756c74467265657a655374617475733a204e6f7460448201526f20656e6f7567682063616c6c6461746160801b6064820152608401610234565b6009546040805160166020820152600160481b90920460ff161515908201526060016107dd565b63053d664960e31b6001600160e01b0319821601610a6357601c361015610a4e5760405162461bcd60e51b815260206004820152602760248201527f676574546f6b656e457870697279496e666f3a204e6f7420656e6f7567682063604482015266616c6c6461746160c81b6064820152608401610234565b6040516107dd90601690600b906020016169ec565b635b75ca1160e11b6001600160e01b0319821601610b2a576030361015610ad85760405162461bcd60e51b815260206004820152602360248201527f6173736f6369617465546f6b656e3a204e6f7420656e6f7567682063616c6c6460448201526261746160e81b6064820152608401610234565b5f610ae7603c60283684615391565b610af0916153f0565b60601c90505f610aff82613ba5565b600181556040805160166020820152919250015b604051602081830303815290604052935050505090565b631ecd0d6360e31b6001600160e01b0319821601610bdd576030361015610b9f5760405162461bcd60e51b8152602060048201526024808201527f646973736f6369617465546f6b656e3a204e6f7420656e6f7567682063616c6c6044820152636461746160e01b6064820152608401610234565b5f610bae603c60283684615391565b610bb7916153f0565b60601c90505f610bc682613ba5565b5f8155604080516016602082015291925001610b13565b636cd8d45160e01b6001600160e01b0319821601610d3d57601c361015610c505760405162461bcd60e51b815260206004820152602160248201527f676574546f6b656e547970653a204e6f7420656e6f7567682063616c6c6461746044820152606160f81b6064820152608401610234565b7f20081d23699eb901ca16307080f9b35e7967740755a921f749a9e037b0875c755f604051602001610c82919061650b565b6040516020818303038152906040528051906020012003610cb85760408051601660208201525f918101919091526060016107dd565b7f6c58a12b113a1ee77f554495d8bd48a419af104bca196099cdecc39fcb8989f05f604051602001610cea919061650b565b6040516020818303038152906040528051906020012003610d215760408051601660208201526001918101919091526060016107dd565b60408051601660208201525f19918101919091526060016107dd565b63d036738360e01b6001600160e01b0319821601610e3557607c361015610db15760405162461bcd60e51b815260206004820152602260248201527f7472616e7366657241734854533a204e6f7420656e6f7567682063616c6c6461604482015261746160f01b6064820152608401610234565b5f610dc0603c60283684615391565b610dc9916153f0565b60601c90505f610ddd605c60483684615391565b610de6916153f0565b60601c90505f610dfa607c605c3684615391565b610e0391616a28565b9050610e108383836120fe565b6040805160016020820152015b60405160208183030381529060405294505050505090565b63b7c6048b60e01b6001600160e01b0319821601610f0b57607c361015610eac5760405162461bcd60e51b815260206004820152602560248201527f7472616e736665724e465441734854533a204e6f7420656e6f7567682063616c6044820152646c6461746160d81b6064820152608401610234565b5f610ebb603c60283684615391565b610ec4916153f0565b60601c90505f610ed8605c60483684615391565b610ee1916153f0565b60601c90505f610ef5607c605c3684615391565b610efe91616a28565b9050610e10838383612615565b631e0de39960e01b6001600160e01b0319821601610fa357607c361015610f445760405162461bcd60e51b815260040161023490616a45565b5f610f53603c60283684615391565b610f5c916153f0565b60601c90505f610f70605c60483684615391565b610f79916153f0565b60601c90505f610f8d607c605c3684615391565b610f9691616a28565b9050610e10838383613c4c565b6308cc955160e41b6001600160e01b031982160161107257607c36101561100c5760405162461bcd60e51b815260206004820152601f60248201527f617070726f76654e46543a204e6f7420656e6f7567682063616c6c64617461006044820152606401610234565b5f61101b603c60283684615391565b611024916153f0565b60601c90505f611038605c60483684615391565b611041916153f0565b60601c90505f611055607c605c3684615391565b61105e91616a28565b604080516001602082015291925001610e1d565b631e89880b60e31b6001600160e01b031982160161113a57607c3610156110db5760405162461bcd60e51b815260206004820152601b60248201527f7570646174653a204e6f7420656e6f7567682063616c6c6461746100000000006044820152606401610234565b5f6110ea603c60283684615391565b6110f3916153f0565b60601c90505f611107605c60483684615391565b611110916153f0565b60601c90505f611124607c605c3684615391565b61112d91616a28565b9050610e108383836113eb565b604080518082018252600f81526e232aa723a4a12622afa1a7a6a6a7a760891b602090910152517f20081d23699eb901ca16307080f9b35e7967740755a921f749a9e037b0875c759061118e905f9061650b565b6040518091039020036111aa576111a481613d0c565b91505090565b60408051808201825260138152724e4f4e5f46554e4749424c455f554e4951554560681b602090910152517f6c58a12b113a1ee77f554495d8bd48a419af104bca196099cdecc39fcb8989f090611202905f9061650b565b604051809103902003611218576111a481614212565b60405162461bcd60e51b815260206004820152602a60248201527f7265646972656374466f72546f6b656e3a20746f6b656e2074797065206e6f74604482015269081cdd5c1c1bdc9d195960b21b6064820152608401610234565b5f8030610167146112965760405162461bcd60e51b815260040161023490616a7c565b6001600160a01b0384166112ec5760405162461bcd60e51b815260206004820152601a60248201527f676574417070726f7665643a20696e76616c696420746f6b656e0000000000006044820152606401610234565b60405163020604bf60e21b8152600481018490526016906001600160a01b0386169063081812fc90602401602060405180830381865afa158015611332573d5f5f3e3d5ffd5b505050506040513d601f19601f820116820180604052508101906113569190616ac3565b909590945092505050565b5f30610167146113835760405162461bcd60e51b815260040161023490616a7c565b6040805160018082528183019092525f916020808301908036833701905050905082815f815181106113b7576113b7616ade565b60200260200101906001600160a01b031690816001600160a01b0316815250506113e184826129a2565b9150505b92915050565b6001600160a01b038316611415578060045f82825461140a9190616b06565b9091555061147a9050565b5f61141f846147b4565b8054909150828110156114745760405162461bcd60e51b815260206004820152601f60248201527f5f7472616e736665723a20696e73756666696369656e742062616c616e6365006044820152606401610234565b82900390555b6001600160a01b0382166114a4578060045f8282546114999190616b19565b909155506114c49050565b5f6114ae836147b4565b80549091505f6114be8483616b06565b90925550505b505050565b5f30610167146114eb5760405162461bcd60e51b815260040161023490616a7c565b5f5b82518110156117cf575f6001600160a01b031683828151811061151257611512616ade565b60200260200101515f01516001600160a01b0316036115735760405162461bcd60e51b815260206004820152601d60248201527f63727970746f5472616e736665723a20696e76616c696420746f6b656e0000006044820152606401610234565b5f5b83828151811061158757611587616ade565b6020026020010151602001515181101561167f578382815181106115ad576115ad616ade565b60200260200101516020015181815181106115ca576115ca616ade565b602002602001015160400151611677576116758483815181106115ef576115ef616ade565b60200260200101515f01513386858151811061160d5761160d616ade565b602002602001015160200151848151811061162a5761162a616ade565b60200260200101515f015187868151811061164757611647616ade565b602002602001015160200151858151811061166457611664616ade565b6020026020010151602001516138c9565b505b600101611575565b505f5b83828151811061169457611694616ade565b602002602001015160400151518110156117c6578382815181106116ba576116ba616ade565b60200260200101516040015181815181106116d7576116d7616ade565b6020026020010151606001516117be576117bc8483815181106116fc576116fc616ade565b60200260200101515f015185848151811061171957611719616ade565b602002602001015160400151838151811061173657611736616ade565b60200260200101515f015186858151811061175357611753616ade565b602002602001015160400151848151811061177057611770616ade565b60200260200101516020015187868151811061178e5761178e616ade565b60200260200101516040015185815181106117ab576117ab616ade565b6020026020010151604001516126e6565b505b600101611682565b506001016114ed565b5060169392505050565b5f30610167146117fb5760405162461bcd60e51b815260040161023490616a7c565b611807858585856138c9565b95945050505050565b6040516001600160a01b03821660248201525f908190819060440160408051601f198184030181529181526020820180516001600160e01b03166393272baf60e01b179052519091505f9081906001600160a01b03871690611873908590616b2c565b5f604051808303815f865af19150503d805f81146118ac576040519150601f19603f3d011682016040523d82523d5f602084013e6118b1565b606091505b509150915060168280156118c557505f8251115b94509450505050915091565b5f6118da615246565b30610167146118fb5760405162461bcd60e51b815260040161023490616a7c565b6001600160a01b0383166119515760405162461bcd60e51b815260206004820152601b60248201527f676574546f6b656e496e666f3a20696e76616c696420746f6b656e00000000006044820152606401610234565b604051631f69565f60e01b81526001600160a01b0384166004820181905290631f69565f906024015f604051808303815f875af1158015611994573d5f5f3e3d5ffd5b505050506040513d5f823e601f3d908101601f191682016040526119bb91908101906170fa565b9094909350915050565b5f6119ce6152f8565b30610167146119ef5760405162461bcd60e51b815260040161023490616a7c565b6001600160a01b038416611a545760405162461bcd60e51b815260206004820152602660248201527f6765744e6f6e46756e6769626c65546f6b656e496e666f3a20696e76616c6964604482015265103a37b5b2b760d11b6064820152608401610234565b604051631f69565f60e01b81526001600160a01b038516600482018190525f91829190631f69565f906024015f604051808303815f875af1158015611a9b573d5f5f3e3d5ffd5b505050506040513d5f823e601f3d908101601f19168201604052611ac291908101906170fa565b915091508160070b601614611b335760405162461bcd60e51b815260206004820152603160248201527f6765744e6f6e46756e6769626c65546f6b656e496e666f3a206661696c656420604482015270746f2067657420746f6b656e206461746160781b6064820152608401610234565b611b3b6152f8565b818152600786900b602082015260405163020604bf60e21b81526001600160401b03871660048201526001600160a01b0388169063081812fc90602401602060405180830381865afa158015611b93573d5f5f3e3d5ffd5b505050506040513d601f19601f82011682018060405250810190611bb79190616ac3565b6001600160a01b0390811660a08301526040516331a9108f60e11b81526001600160401b038816600482015290881690636352211e90602401602060405180830381865afa158015611c0b573d5f5f3e3d5ffd5b505050506040513d601f19601f82011682018060405250810190611c2f9190616ac3565b6001600160a01b03166040820152919350909150505b9250929050565b5f3061016714611c6e5760405162461bcd60e51b815260040161023490616a7c565b6001600160a01b038516611cc45760405162461bcd60e51b815260206004820152601b60248201527f7472616e736665724e4654733a20696e76616c696420746f6b656e00000000006044820152606401610234565b5f845111611d145760405162461bcd60e51b815260206004820181905260248201527f7472616e736665724e4654733a206d697373696e6720726563697069656e74736044820152606401610234565b8351835114611d655760405162461bcd60e51b815260206004820181905260248201527f7472616e736665724e4654733a20696e636f6e73697374656e7420696e7075746044820152606401610234565b8351825114611db65760405162461bcd60e51b815260206004820181905260248201527f7472616e736665724e4654733a20696e636f6e73697374656e7420696e7075746044820152606401610234565b5f5b8451811015611e2157611e1886868381518110611dd757611dd7616ade565b6020026020010151868481518110611df157611df1616ade565b6020026020010151868581518110611e0b57611e0b616ade565b60200260200101516126e6565b50600101611db8565b50601695945050505050565b5f3061016714611e4f5760405162461bcd60e51b815260040161023490616a7c565b5f825111611e9f5760405162461bcd60e51b815260206004820152601f60248201527f6173736f6369617465546f6b656e733a206d697373696e6720746f6b656e73006044820152606401610234565b6001600160a01b0383163314611f525760405162461bcd60e51b815260206004820152606660248201527f6173736f6369617465546f6b656e733a204d757374206265207369676e65642060448201527f6279207468652070726f7669646564204163636f756e742773206b6579206f7260648201527f2063616c6c65642066726f6d20746865206163636f756e747320636f6e7472616084820152656374206b657960d01b60a482015260c401610234565b5f5b82518110156117cf575f6001600160a01b0316838281518110611f7957611f79616ade565b60200260200101516001600160a01b031603611fd75760405162461bcd60e51b815260206004820152601e60248201527f6173736f6369617465546f6b656e733a20696e76616c696420746f6b656e00006044820152606401610234565b5f838281518110611fea57611fea616ade565b60200260200101516001600160a01b03166349146bde8686858151811061201357612013616ade565b60200260200101516040518363ffffffff1660e01b815260040161204d9291906001600160a01b0392831681529116602082015260400190565b6020604051808303815f875af1158015612069573d5f5f3e3d5ffd5b505050506040513d601f19601f8201168201806040525081019061208d9190617269565b90508060070b6016146120f55760405162461bcd60e51b815260206004820152602a60248201527f6173736f6369617465546f6b656e733a204661696c656420746f206173736f6360448201526934b0ba32903a37b5b2b760b11b6064820152608401610234565b50600101611f54565b33610167146121445760405162461bcd60e51b81526020600482015260126024820152711a1d1cce881b9bdd081c195c9b5a5d1d195960721b6044820152606401610234565b6114c48383836147f1565b5f8030610167146121725760405162461bcd60e51b815260040161023490616a7c565b6001600160a01b0383166121da5760405162461bcd60e51b815260206004820152602960248201527f676574546f6b656e44656661756c744b79635374617475733a20696e76616c6960448201526864206164647265737360b81b6064820152608401610234565b60405163335e04c160e01b81526001600160a01b038416600482018190529063335e04c1906024015b60408051808303815f875af115801561221e573d5f5f3e3d5ffd5b505050506040513d601f19601f820116820180604052508101906122429190617284565b91509150915091565b5f612254615332565b30610167146122755760405162461bcd60e51b815260040161023490616a7c565b6001600160a01b0384166122cb5760405162461bcd60e51b815260206004820152601a60248201527f676574546f6b656e4b65793a20696e76616c696420746f6b656e0000000000006044820152606401610234565b604051631f69565f60e01b81526001600160a01b038516600482018190525f91829190631f69565f906024015f604051808303815f875af1158015612312573d5f5f3e3d5ffd5b505050506040513d5f823e601f3d908101601f1916820160405261233991908101906170fa565b915091508160070b60161461239e5760405162461bcd60e51b815260206004820152602560248201527f676574546f6b656e4b65793a206661696c656420746f2067657420746f6b656e604482015264206461746160d81b6064820152608401610234565b5f5b815160e00151518110156124135785825f015160e0015182815181106123c8576123c8616ade565b60200260200101515f01510361240b576016825f015160e0015182815181106123f3576123f3616ade565b60200260200101516020015194509450505050611c45565b6001016123a0565b5061241c615332565b601697909650945050505050565b5f612433615372565b30610167146124545760405162461bcd60e51b815260040161023490616a7c565b6001600160a01b0383166124b65760405162461bcd60e51b815260206004820152602360248201527f67657446756e6769626c65546f6b656e496e666f3a20696e76616c696420746f60448201526235b2b760e91b6064820152608401610234565b604051631f69565f60e01b81526001600160a01b038416600482018190525f91829190631f69565f906024015f604051808303815f875af11580156124fd573d5f5f3e3d5ffd5b505050506040513d5f823e601f3d908101601f1916820160405261252491908101906170fa565b915091508160070b6016146125925760405162461bcd60e51b815260206004820152602e60248201527f67657446756e6769626c65546f6b656e496e666f3a206661696c656420746f2060448201526d67657420746f6b656e206461746160901b6064820152608401610234565b61259a615372565b81815f0181905250856001600160a01b031663313ce5676040518163ffffffff1660e01b8152600401602060405180830381865afa1580156125de573d5f5f3e3d5ffd5b505050506040513d601f19601f8201168201806040525081019061260291906172b1565b5f0b602082015291935090915050915091565b336101671461265b5760405162461bcd60e51b81526020600482015260126024820152711a1d1cce881b9bdd081c195c9b5a5d1d195960721b6044820152606401610234565b6114c48383836148e8565b5f30610167146126885760405162461bcd60e51b815260040161023490616a7c565b6040805160018082528183019092525f916020808301908036833701905050905082815f815181106126bc576126bc616ade565b60200260200101906001600160a01b031690816001600160a01b0316815250506113e18482611e2d565b5f30610167146127085760405162461bcd60e51b815260040161023490616a7c565b6040516331a9108f60e11b81526001600160401b038316600482018190529033906001600160a01b03881690636352211e90602401602060405180830381865afa158015612758573d5f5f3e3d5ffd5b505050506040513d601f19601f8201168201806040525081019061277c9190616ac3565b6001600160a01b03161480612800575060405163020604bf60e21b81526004810182905233906001600160a01b0388169063081812fc90602401602060405180830381865afa1580156127d1573d5f5f3e3d5ffd5b505050506040513d601f19601f820116820180604052508101906127f59190616ac3565b6001600160a01b0316145b80612874575060405163e985e9c560e01b81526001600160a01b03868116600483015233602483015287169063e985e9c590604401602060405180830381865afa158015612850573d5f5f3e3d5ffd5b505050506040513d601f19601f8201168201806040525081019061287491906172d1565b6128bc5760405162461bcd60e51b81526020600482015260196024820152781d1c985b9cd9995c9391950e881d5b985d5d1a1bdc9a5e9959603a1b6044820152606401610234565b604051634839fb7560e01b81526001600160a01b03871690634839fb75906128ec908890889086906004016172ec565b5f604051808303815f87803b158015612903575f5ffd5b505af1158015612915573d5f5f3e3d5ffd5b5060169998505050505050505050565b6040516307336aaf60e41b81525f906001600160a01b03851690637336aaf090612957903390879087906004016172ec565b6020604051808303815f875af1158015612973573d5f5f3e3d5ffd5b505050506040513d601f19601f820116820180604052508101906129979190617269565b506016949350505050565b5f30610167146129c45760405162461bcd60e51b815260040161023490616a7c565b5f825111612a145760405162461bcd60e51b815260206004820181905260248201527f646973736f6369617465546f6b656e733a206d697373696e6720746f6b656e736044820152606401610234565b6001600160a01b0383163314612ac85760405162461bcd60e51b815260206004820152606760248201527f646973736f6369617465546f6b656e733a204d757374206265207369676e656460448201527f206279207468652070726f7669646564204163636f756e742773206b6579206f60648201527f722063616c6c65642066726f6d20746865206163636f756e747320636f6e7472608482015266616374206b657960c81b60a482015260c401610234565b5f5b82518110156117cf575f6001600160a01b0316838281518110612aef57612aef616ade565b60200260200101516001600160a01b031603612b4d5760405162461bcd60e51b815260206004820152601f60248201527f646973736f6369617465546f6b656e733a20696e76616c696420746f6b656e006044820152606401610234565b5f838281518110612b6057612b60616ade565b60200260200101516001600160a01b031663099794e886868581518110612b8957612b89616ade565b60200260200101516040518363ffffffff1660e01b8152600401612bc39291906001600160a01b0392831681529116602082015260400190565b6020604051808303815f875af1158015612bdf573d5f5f3e3d5ffd5b505050506040513d601f19601f82011682018060405250810190612c039190617269565b90508060070b601614612c6d5760405162461bcd60e51b815260206004820152602c60248201527f646973736f6369617465546f6b656e733a204661696c656420746f206469737360448201526b37b1b4b0ba32903a37b5b2b760a11b6064820152608401610234565b50600101612aca565b5f3061016714612c985760405162461bcd60e51b815260040161023490616a7c565b6001600160a01b038416612cee5760405162461bcd60e51b815260206004820152601d60248201527f7472616e73666572546f6b656e733a20696e76616c696420746f6b656e0000006044820152606401610234565b5f835111612d495760405162461bcd60e51b815260206004820152602260248201527f7472616e73666572546f6b656e733a206d697373696e6720726563697069656e604482015261747360f01b6064820152608401610234565b8251825114612da55760405162461bcd60e51b815260206004820152602260248201527f7472616e73666572546f6b656e733a20696e636f6e73697374656e7420696e706044820152611d5d60f21b6064820152608401610234565b5f5b835181101561299757612dee8533868481518110612dc757612dc7616ade565b6020026020010151868581518110612de157612de1616ade565b60200260200101516138c9565b50600101612da7565b5f803061016714612e1a5760405162461bcd60e51b815260040161023490616a7c565b6001600160a01b038316612e705760405162461bcd60e51b815260206004820152601d60248201527f676574546f6b656e547970653a20696e76616c696420616464726573730000006044820152606401610234565b6040516393272baf60e01b81526001600160a01b03841660048201819052906393272baf9060240160408051808303815f875af1158015612eb3573d5f5f3e3d5ffd5b505050506040513d601f19601f820116820180604052508101906122429190617310565b5f3061016714612ef95760405162461bcd60e51b815260040161023490616a7c565b611807858585856126e6565b5f803061016714612f285760405162461bcd60e51b815260040161023490616a7c565b6001600160a01b038316612f935760405162461bcd60e51b815260206004820152602c60248201527f676574546f6b656e44656661756c74467265657a655374617475733a20696e7660448201526b616c6964206164647265737360a01b6064820152608401610234565b60405163a7daa18d60e01b81526001600160a01b038416600482018190529063a7daa18d90602401612203565b5f606080803061016714612fe65760405162461bcd60e51b815260040161023490616a7c565b6001600160a01b0385166130465760405162461bcd60e51b815260206004820152602160248201527f676574546f6b656e437573746f6d466565733a20696e76616c696420746f6b656044820152603760f91b6064820152608401610234565b604051630573b08d60e51b81526001600160a01b038616600482018190529063ae7611a0906024015f604051808303815f875af1158015613089573d5f5f3e3d5ffd5b505050506040513d5f823e601f3d908101601f191682016040526130b09190810190617343565b93509350935093509193509193565b604080516060810182525f8082526020820181905291810182905230610167146130fb5760405162461bcd60e51b815260040161023490616a7c565b6001600160a01b03831661315b5760405162461bcd60e51b815260206004820152602160248201527f676574546f6b656e457870697279496e666f3a20696e76616c696420746f6b656044820152603760f91b6064820152608401610234565b604051631ac299b760e31b81526001600160a01b038416600482018190529063d614cdb8906024016080604051808303815f875af115801561319f573d5f5f3e3d5ffd5b505050506040513d601f19601f820116820180604052508101906119bb91906173d6565b5f8030610167146131e65760405162461bcd60e51b815260040161023490616a7c565b6001600160a01b03851661323c5760405162461bcd60e51b815260206004820152601860248201527f6275726e546f6b656e3a20696e76616c696420746f6b656e00000000000000006044820152606401610234565b5f8460070b1361328e5760405162461bcd60e51b815260206004820152601960248201527f6275726e546f6b656e3a20696e76616c696420616d6f756e74000000000000006044820152606401610234565b604051631f69565f60e01b81526001600160a01b038616600482018190525f91829190631f69565f906024015f604051808303815f875af11580156132d5573d5f5f3e3d5ffd5b505050506040513d5f823e601f3d908101601f191682016040526132fc91908101906170fa565b915091508160070b60161461335f5760405162461bcd60e51b815260206004820152602360248201527f6275726e546f6b656e3a206661696c656420746f2067657420746f6b656e20696044820152626e666f60e81b6064820152608401610234565b8051604001516001600160a01b0381166133bb5760405162461bcd60e51b815260206004820152601a60248201527f6275726e546f6b656e3a20696e76616c6964206163636f756e740000000000006044820152606401610234565b60405163017677f560e31b81526001600160a01b03891690630bb3bfa8906133f49084905f906001600160401b038d16906004016172ec565b5f604051808303815f87803b15801561340b575f5ffd5b505af115801561341d573d5f5f3e3d5ffd5b5050505060169450876001600160a01b03166318160ddd6040518163ffffffff1660e01b8152600401602060405180830381865afa158015613461573d5f5f3e3d5ffd5b505050506040513d601f19601f82011682018060405250810190613485919061740a565b93505f8460070b12156134da5760405162461bcd60e51b815260206004820152601f60248201527f6275726e546f6b656e3a20696e76616c696420746f74616c20737570706c79006044820152606401610234565b505050935093915050565b5f30610167146135075760405162461bcd60e51b815260040161023490616a7c565b6040805163e0b490f760e01b602082018190525f602483018190526001600160601b0319606087901b16602c8401529092909182910160405160208183030381529060405261355590617421565b5495945050505050565b5f80606030610167146135845760405162461bcd60e51b815260040161023490616a7c565b6001600160a01b0386166135da5760405162461bcd60e51b815260206004820152601860248201527f6d696e74546f6b656e3a20696e76616c696420746f6b656e00000000000000006044820152606401610234565b5f8560070b1361362c5760405162461bcd60e51b815260206004820152601960248201527f6d696e74546f6b656e3a20696e76616c696420616d6f756e74000000000000006044820152606401610234565b604051631f69565f60e01b81526001600160a01b038716600482018190525f91829190631f69565f906024015f604051808303815f875af1158015613673573d5f5f3e3d5ffd5b505050506040513d5f823e601f3d908101601f1916820160405261369a91908101906170fa565b915091508160070b6016146136fd5760405162461bcd60e51b815260206004820152602360248201527f6d696e74546f6b656e3a206661696c656420746f2067657420746f6b656e20696044820152626e666f60e81b6064820152608401610234565b8051604001516001600160a01b0381166137595760405162461bcd60e51b815260206004820152601a60248201527f6d696e74546f6b656e3a20696e76616c6964206163636f756e740000000000006044820152606401610234565b60405163017677f560e31b81526001600160a01b038a1690630bb3bfa890613792905f9085906001600160401b038e16906004016172ec565b5f604051808303815f87803b1580156137a9575f5ffd5b505af11580156137bb573d5f5f3e3d5ffd5b5050505060169550886001600160a01b03166318160ddd6040518163ffffffff1660e01b8152600401602060405180830381865afa1580156137ff573d5f5f3e3d5ffd5b505050506040513d601f19601f82011682018060405250810190613823919061740a565b604080515f808252602082019092529196505093505f8560070b121561388b5760405162461bcd60e51b815260206004820152601f60248201527f6d696e74546f6b656e3a20696e76616c696420746f74616c20737570706c79006044820152606401610234565b50505093509350939050565b60405163e1f21c6760e01b81525f906001600160a01b0385169063e1f21c6790612957903390879087906004016172ec565b5f30610167146138eb5760405162461bcd60e51b815260040161023490616a7c565b6001600160a01b0385166139415760405162461bcd60e51b815260206004820152601c60248201527f7472616e73666572546f6b656e3a20696e76616c696420746f6b656e000000006044820152606401610234565b83835f600785900b121561396257508390508461395f5f1985617444565b93505b6001600160a01b0382163314806139f15750604051636eb1769f60e11b81526001600160a01b0383811660048301523360248301526001600160401b038616919089169063dd62ed3e90604401602060405180830381865afa1580156139ca573d5f5f3e3d5ffd5b505050506040513d601f19601f820116820180604052508101906139ee919061740a565b10155b613a395760405162461bcd60e51b81526020600482015260196024820152781d1c985b9cd9995c9391950e881d5b985d5d1a1bdc9a5e9959603a1b6044820152606401610234565b604051632fc98c7d60e01b81526001600160a01b03881690632fc98c7d90613a7290859085906001600160401b038a16906004016172ec565b5f604051808303815f87803b158015613a89575f5ffd5b505af1158015613a9b573d5f5f3e3d5ffd5b5060169a9950505050505050505050565b5f803061016714613acf5760405162461bcd60e51b815260040161023490616a7c565b6001600160a01b038516613b255760405162461bcd60e51b815260206004820152601f60248201527f6973417070726f766564466f72416c6c3a20696e76616c696420746f6b656e006044820152606401610234565b60405163e985e9c560e01b81526001600160a01b03858116600483015284811660248301526016919087169063e985e9c590604401602060405180830381865afa158015613b75573d5f5f3e3d5ffd5b505050506040513d601f19601f82011682018060405250810190613b9991906172d1565b91509150935093915050565b60405163e0b490f760e01b81526001600160a01b03821660048201525f90634d8fdd6d60e01b90829081906101679063e0b490f7906024015b602060405180830381865afa158015613bf9573d5f5f3e3d5ffd5b505050506040513d601f19601f82011682018060405250810190613c1d9190617463565b9050828282604051602001613c3493929190617486565b60405160208183030381529060405261180790617421565b6001600160a01b038316613ca25760405162461bcd60e51b815260206004820152601760248201527f5f617070726f76653a20696e76616c6964206f776e65720000000000000000006044820152606401610234565b6001600160a01b038216613cf85760405162461bcd60e51b815260206004820152601960248201527f5f617070726f76653a20696e76616c6964207370656e646572000000000000006044820152606401610234565b5f613d038484614b5e565b91909155505050565b606063f90221fd60e01b6001600160e01b0319831601613d4e576001604051602001613d3891906174bb565b6040516020818303038152906040529050919050565b63cec31a9960e01b6001600160e01b0319831601613d7d576003546040805160ff909216602083015201613d38565b63e7e9f22360e01b6001600160e01b0319831601613daa57600454604051602001613d3891815260200190565b636a2764bf60e01b6001600160e01b0319831601613dd4576002604051602001613d3891906174bb565b638f5f7dcf60e01b6001600160e01b0319831601613e8c57603c361015613e3d5760405162461bcd60e51b815260206004820152601e60248201527f62616c616e63654f663a204e6f7420656e6f7567682063616c6c6461746100006044820152606401610234565b5f613e4c603c60283684615391565b613e55916153f0565b60601c9050613e6381614c7e565b604051602001613e7591815260200190565b604051602081830303815290604052915050919050565b6356fa634560e01b6001600160e01b0319831601613f5e57605c361015613ef55760405162461bcd60e51b815260206004820152601d60248201527f7472616e736665723a204e6f7420656e6f7567682063616c6c646174610000006044820152606401610234565b5f613f04603c60283684615391565b613f0d916153f0565b60601c90505f613f21605c603c3684615391565b613f2a91616a28565b905033613f388184846147f1565b6040805160016020820152015b6040516020818303038152906040529350505050919050565b63dc478d2360e01b6001600160e01b031983160161405857607c361015613fc75760405162461bcd60e51b815260206004820152601e60248201527f7472616e73666572463a204e6f7420656e6f7567682063616c6c6461746100006044820152606401610234565b5f613fd6603c60283684615391565b613fdf916153f0565b60601c90505f613ff3605c60483684615391565b613ffc916153f0565b60601c90505f614010607c605c3684615391565b61401991616a28565b905033614027848284614c91565b6140328484846147f1565b604080516001602082015201604051602081830303815290604052945050505050919050565b63114e896160e11b6001600160e01b031983160161412f57605c3610156140c15760405162461bcd60e51b815260206004820152601e60248201527f616c6c6f77616e63653a204e6f7420656e6f7567682063616c6c6461746100006044820152606401610234565b5f6140d0603c60283684615391565b6140d9916153f0565b60601c90505f6140ed605c60483684615391565b6140f6916153f0565b60601c90506141058282614d09565b60405160200161411791815260200190565b60405160208183030381529060405292505050919050565b63f6a1584d60e01b6001600160e01b031983160161420957605c3610156141685760405162461bcd60e51b815260040161023490616a45565b5f614177603c60283684615391565b614180916153f0565b60601c90505f614194605c603c3684615391565b61419d91616a28565b9050336141ab818484613c4c565b826001600160a01b0316816001600160a01b03167f8c5be1e5ebec7d5bd14f71427d1e84f3dd0314c0f7b2291e5b200ac8c7c3b925846040516141f091815260200190565b60405180910390a3604080516001602082015201613f45565b6113e582614d1e565b606063f90221fd60e01b6001600160e01b031983160161423e576001604051602001613d3891906174bb565b636a2764bf60e01b6001600160e01b0319831601614268576002604051602001613d3891906174bb565b633784a92360e01b6001600160e01b031983160161430457603c3610156142d15760405162461bcd60e51b815260206004820152601d60248201527f746f6b656e5552493a204e6f7420656e6f7567682063616c6c646174610000006044820152606401610234565b5f6142e0603c601c3684615391565b6142e991616a28565b90506142f481614e1a565b604051602001613e7591906174cd565b63e7e9f22360e01b6001600160e01b031983160161433157600454604051602001613d3891815260200190565b638f5f7dcf60e01b6001600160e01b031983160161439a57603c361015613e3d5760405162461bcd60e51b815260206004820152601e60248201527f62616c616e63654f663a204e6f7420656e6f7567682063616c6c6461746100006044820152606401610234565b634e56ef7160e11b6001600160e01b031983160161444057603c3610156144035760405162461bcd60e51b815260206004820152601c60248201527f6f776e65724f663a204e6f7420656e6f7567682063616c6c64617461000000006044820152606401610234565b5f614412603c601c3684615391565b61441b91616a28565b905061442681614ebd565b604080516001600160a01b03909216602083015201613e75565b63dc478d2360e01b6001600160e01b031983160161451257607c3610156144b35760405162461bcd60e51b815260206004820152602160248201527f7472616e7366657246726f6d3a204e6f7420656e6f7567682063616c6c6461746044820152606160f81b6064820152608401610234565b5f6144c2603c60283684615391565b6144cb916153f0565b60601c90505f6144df605c60483684615391565b6144e8916153f0565b60601c90505f6144fc607c605c3684615391565b61450591616a28565b9050613f388383836148e8565b63f6a1584d60e01b6001600160e01b031983160161459f57605c36101561454b5760405162461bcd60e51b815260040161023490616a45565b5f61455a603c60283684615391565b614563916153f0565b60601c90505f614577605c603c3684615391565b61458091616a28565b905061458e82826001614ec8565b604080516001602082015201614117565b635dd34b9b60e01b6001600160e01b031983160161465b57605c3610156146175760405162461bcd60e51b815260206004820152602660248201527f736574417070726f76616c466f72416c6c3a204e6f7420656e6f7567682063616044820152656c6c6461746160d01b6064820152608401610234565b5f614626603c60283684615391565b61462f916153f0565b60601c90505f614643605c603c3684615391565b61464c91616a28565b600114905061458e8282614fc4565b633df9fb4160e21b6001600160e01b03198316016146e757603c3610156146c45760405162461bcd60e51b815260206004820181905260248201527f676574417070726f7665643a204e6f7420656e6f7567682063616c6c646174616044820152606401610234565b5f6146d3603c601c3684615391565b6146dc91616a28565b9050614426816150ac565b63167a163b60e01b6001600160e01b031983160161420957605c36101561475e5760405162461bcd60e51b815260206004820152602560248201527f6973417070726f766564466f72416c6c3a204e6f7420656e6f7567682063616c6044820152646c6461746160d81b6064820152608401610234565b5f61476d603c60283684615391565b614776916153f0565b60601c90505f61478a605c60483684615391565b614793916153f0565b60601c90506147a282826150b7565b60408051911515602083015201614117565b60405163e0b490f760e01b81526001600160a01b03821660048201525f906370a0823160e01b90829081906101679063e0b490f790602401613bde565b6001600160a01b03831661483d5760405162461bcd60e51b8152602060048201526013602482015272343a399d1034b73b30b634b21039b2b73232b960691b6044820152606401610234565b6001600160a01b03821661488b5760405162461bcd60e51b8152602060048201526015602482015274343a399d1034b73b30b634b2103932b1b2b4bb32b960591b6044820152606401610234565b6148968383836113eb565b816001600160a01b0316836001600160a01b03167fddf252ad1be2c89b69c2b068fc378daa952ba7f163c4a11628f55a4df523b3ef836040516148db91815260200190565b60405180910390a3505050565b6001600160a01b0383166149345760405162461bcd60e51b8152602060048201526013602482015272343a399d1034b73b30b634b21039b2b73232b960691b6044820152606401610234565b6001600160a01b0382166149825760405162461bcd60e51b8152602060048201526015602482015274343a399d1034b73b30b634b2103932b1b2b4bb32b960591b6044820152606401610234565b5f61498c826150c3565b80549091506001600160a01b03808216908616146149ec5760405162461bcd60e51b815260206004820152601860248201527f6874733a2073656e646572206973206e6f74206f776e657200000000000000006044820152606401610234565b33610166198101614a5f57859050816001600160a01b0316816001600160a01b03161480614a1f5750614a1f82826150b7565b614a5f5760405162461bcd60e51b81526020600482015260116024820152701a1d1cce881d5b985d5d1a1bdc9a5e9959607a1b6044820152606401610234565b816001600160a01b0316816001600160a01b031614614ae557614a81846150ac565b6001600160a01b0316816001600160a01b03161480614aa55750614aa586826150b7565b614ae55760405162461bcd60e51b81526020600482015260116024820152701a1d1cce881d5b985d5d1a1bdc9a5e9959607a1b6044820152606401610234565b5f614aef85615105565b90505f81555f614aff8888615127565b90505f8155868555866001600160a01b0316886001600160a01b03167fddf252ad1be2c89b69c2b068fc378daa952ba7f163c4a11628f55a4df523b3ef88604051614b4c91815260200190565b60405180910390a35050505050505050565b60405163e0b490f760e01b81526001600160a01b03831660048201525f90636eb1769f60e11b90829081906101679063e0b490f790602401602060405180830381865afa158015614bb1573d5f5f3e3d5ffd5b505050506040513d601f19601f82011682018060405250810190614bd59190617463565b60405163e0b490f760e01b81526001600160a01b03871660048201529091505f906101679063e0b490f790602401602060405180830381865afa158015614c1e573d5f5f3e3d5ffd5b505050506040513d601f19601f82011682018060405250810190614c429190617463565b905083838284604051602001614c5b94939291906174df565b604051602081830303815290604052614c7390617421565b979650505050505050565b5f5f614c89836147b4565b549392505050565b5f614c9c8484614d09565b90505f198114614d035781811015614cf65760405162461bcd60e51b815260206004820152601d60248201527f5f7370656e64416c6c6f77616e63653a20696e73756666696369656e740000006044820152606401610234565b614d038484848403613c4c565b50505050565b5f5f614d158484614b5e565b54949350505050565b6060637ac5590d60e11b6001600160e01b0319831601614d5e575f614d4233613ba5565b9050600181556001604051602001613e75911515815260200190565b63051b6f4160e51b6001600160e01b0319831601614d97575f614d8033613ba5565b5f8155604080516001602082015291925001613e75565b63b270229360e01b6001600160e01b0319831601614dd2575f614db933613ba5565b8054604080518215156020820152929350909101614117565b60405162461bcd60e51b815260206004820152601f60248201527f7265646972656374466f72546f6b656e3a206e6f7420737570706f72746564006044820152606401610234565b60605f614e2683615224565b90505f819050808054614e3890616465565b80601f0160208091040260200160405190810160405280929190818152602001828054614e6490616465565b8015614eaf5780601f10614e8657610100808354040283529160200191614eaf565b820191905f5260205f20905b815481529060010190602001808311614e9257829003601f168201915b505050505092505050919050565b5f5f614c89836150c3565b5f614ed283614ebd565b9050336001600160a01b0382161480614efb575033614ef0846150ac565b6001600160a01b0316145b80614f0b5750614f0b81336150b7565b614f505760405162461bcd60e51b815260206004820152601660248201527517d85c1c1c9bdd994e881d5b985d5d1a1bdc9a5e995960521b6044820152606401610234565b5f614f5a84615105565b90505f83614f68575f614f6a565b855b9050808255856001600160a01b0316836001600160a01b03167f8c5be1e5ebec7d5bd14f71427d1e84f3dd0314c0f7b2291e5b200ac8c7c3b92587604051614fb491815260200190565b60405180910390a3505050505050565b336001600160a01b03831615801590614fef5750806001600160a01b0316836001600160a01b031614155b6150475760405162461bcd60e51b815260206004820152602360248201527f736574417070726f76616c466f72416c6c3a20696e76616c6964206f706572616044820152623a37b960e91b6064820152608401610234565b5f6150528285615127565b9050828155836001600160a01b0316826001600160a01b03167f17307eab39ab6107e8899845ad3d59bd9653f200f220920489ca2b5937696c318560405161509e911515815260200190565b60405180910390a350505050565b5f5f614c8983615105565b5f5f614d158484615127565b6040515f906331a9108f60e11b9082906150e590839083908790602001617486565b6040516020818303038152906040526150fd90617421565b949350505050565b6040515f9063020604bf60e21b9082906150e590839083908790602001617486565b60405163e0b490f760e01b81526001600160a01b03831660048201525f9063e985e9c560e01b90829081906101679063e0b490f790602401602060405180830381865afa15801561517a573d5f5f3e3d5ffd5b505050506040513d601f19601f8201168201806040525081019061519e9190617463565b60405163e0b490f760e01b81526001600160a01b03871660048201529091505f906101679063e0b490f790602401602060405180830381865afa1580156151e7573d5f5f3e3d5ffd5b505050506040513d601f19601f8201168201806040525081019061520b9190617463565b905083838383604051602001614c5b94939291906174df565b6040515f9063c87b56dd60e01b9082906150e590839083908790602001617486565b60408051610240810182526060610120820181815261014083018290525f610160840181905261018084018390526101a084018190526101c084018190526101e08401819052610200840183905284519283018552808352602083018190529382019390935261022082015290819081526020015f60070b81526020015f151581526020015f151581526020015f15158152602001606081526020016060815260200160608152602001606081525090565b6040518060c0016040528061530b615246565b81525f60208201819052604082018190526060808301829052608083015260a09091015290565b6040518060a001604052805f151581526020015f6001600160a01b0316815260200160608152602001606081526020015f6001600160a01b031681525090565b6040518060400160405280615385615246565b81525f60209091015290565b5f5f8585111561539f575f5ffd5b838611156153ab575f5ffd5b5050820193919092039150565b80356001600160e01b031981169060048410156153e9576001600160e01b0319600485900360031b81901b82161691505b5092915050565b80356001600160601b031981169060148410156153e9576001600160601b031960149490940360031b84901b1690921692915050565b6001600160a01b038116811461543a575f5ffd5b50565b5f5f6040838503121561544e575f5ffd5b823561545981615426565b946020939093013593505050565b5f5f60408385031215615478575f5ffd5b823561548381615426565b9150602083013561549381615426565b809150509250929050565b5f5f5f606084860312156154b0575f5ffd5b83356154bb81615426565b925060208401356154cb81615426565b929592945050506040919091013590565b634e487b7160e01b5f52604160045260245ffd5b604051606081016001600160401b0381118282101715615512576155126154dc565b60405290565b604051602081016001600160401b0381118282101715615512576155126154dc565b604051608081016001600160401b0381118282101715615512576155126154dc565b604080519081016001600160401b0381118282101715615512576155126154dc565b60405160a081016001600160401b0381118282101715615512576155126154dc565b60405161012081016001600160401b0381118282101715615512576155126154dc565b60405160c081016001600160401b0381118282101715615512576155126154dc565b604051601f8201601f191681016001600160401b038111828210171561560d5761560d6154dc565b604052919050565b5f6001600160401b0382111561562d5761562d6154dc565b5060051b60200190565b8060070b811461543a575f5ffd5b801515811461543a575f5ffd5b5f82601f830112615661575f5ffd5b813561567461566f82615615565b6155e5565b80828252602082019150602060608402860101925085831115615695575f5ffd5b602085015b838110156156fc57606081880312156156b1575f5ffd5b6156b96154f0565b81356156c481615426565b815260208201356156d481615637565b602082015260408201356156e781615645565b6040820152835260209092019160600161569a565b5095945050505050565b5f5f60408385031215615717575f5ffd5b82356001600160401b0381111561572c575f5ffd5b83016020818603121561573d575f5ffd5b615745615518565b81356001600160401b0381111561575a575f5ffd5b61576687828501615652565b82525092505060208301356001600160401b03811115615784575f5ffd5b8301601f81018513615794575f5ffd5b80356157a261566f82615615565b8082825260208201915060208360051b8501019250878311156157c3575f5ffd5b602084015b838110156159335780356001600160401b038111156157e5575f5ffd5b85016060818b03601f190112156157fa575f5ffd5b6158026154f0565b602082013561581081615426565b815260408201356001600160401b0381111561582a575f5ffd5b6158398c602083860101615652565b60208301525060608201356001600160401b03811115615857575f5ffd5b6020818401019250508a601f83011261586e575f5ffd5b813561587c61566f82615615565b8082825260208201915060208360071b86010192508d83111561589d575f5ffd5b6020850194505b8285101561591d576080858f0312156158bb575f5ffd5b6158c361553a565b85356158ce81615426565b815260208601356158de81615426565b602082015260408601356158f181615637565b6040820152606086013561590481615645565b60608201528252608094909401936020909101906158a4565b60408401525050845250602092830192016157c8565b50809450505050509250929050565b5f5f5f5f60808587031215615955575f5ffd5b843561596081615426565b9350602085013561597081615426565b9250604085013561598081615426565b9396929550929360600135925050565b5f602082840312156159a0575f5ffd5b81356159ab81615426565b9392505050565b5f81518084528060208401602086015e5f602082860101526020601f19601f83011685010191505092915050565b80511515825260018060a01b0360208201511660208301525f604082015160a06040850152615a1260a08501826159b2565b905060608301518482036060860152615a2b82826159b2565b6080948501516001600160a01b03169590940194909452509092915050565b5f82825180855260208501945060208160051b830101602085015f5b83811015615aaf57601f198584030188528151805184526020810151905060406020850152615a9860408501826159e0565b6020998a0199909450929092019150600101615a66565b50909695505050505050565b5f81516101608452615ad16101608501826159b2565b905060208301518482036020860152615aea82826159b2565b9150506040830151615b0760408601826001600160a01b03169052565b5060608301518482036060860152615b1f82826159b2565b9150506080830151615b35608086018215159052565b5060a0830151615b4a60a086018260070b9052565b5060c0830151615b5e60c086018215159052565b5060e083015184820360e0860152615b768282615a4a565b915050610100830151615bb16101008601828051600790810b83526020808301516001600160a01b031690840152604091820151900b910152565b509392505050565b5f8151808452602084019350602083015f5b82811015615c29578151805160070b87526020808201516001600160a01b03908116828a01526040808401511515908a01526060808401511515908a0152608092830151169188019190915260a09096019590910190600101615bcb565b5093949350505050565b5f8151808452602084019350602083015f5b82811015615c295781515f815160070b8852602082015160070b6020890152604082015160070b6040890152606082015160070b606089015260808201511515608089015260018060a01b0360a08301511660a089015260c0880190508097505050602082019150600181019050615c45565b5f8151808452602084019350602083015f5b82811015615c295781515f815160070b8852602082015160070b6020890152604082015160070b604089015260018060a01b03606083015116606089015260808201511515608089015260018060a01b0360a08301511660a089015260c0880190508097505050602082019150600181019050615cca565b5f81516101208452615d58610120850182615abb565b90506020830151615d6e602086018260070b9052565b506040830151615d82604086018215159052565b506060830151615d96606086018215159052565b506080830151615daa608086018215159052565b5060a083015184820360a0860152615dc28282615bb9565b91505060c083015184820360c0860152615ddc8282615c33565b91505060e083015184820360e0860152615df68282615cb8565b91505061010083015184820361010086015261180782826159b2565b8260070b8152604060208201525f6150fd6040830184615d42565b5f5f60408385031215615e3e575f5ffd5b8235615e4981615426565b9150602083013561549381615637565b8260070b8152604060208201525f825160c06040840152615e7e610100840182615d42565b9050602084015160070b606084015260018060a01b036040850151166080840152606084015160070b60a08401526080840151603f198483030160c0850152615ec782826159b2565b60a095909501516001600160a01b031660e0949094019390935250919392505050565b5f82601f830112615ef9575f5ffd5b8135615f0761566f82615615565b8082825260208201915060208360051b860101925085831115615f28575f5ffd5b602085015b838110156156fc578035615f4081615426565b835260209283019201615f2d565b5f82601f830112615f5d575f5ffd5b8135615f6b61566f82615615565b8082825260208201915060208360051b860101925085831115615f8c575f5ffd5b602085015b838110156156fc578035615fa481615637565b835260209283019201615f91565b5f5f5f5f60808587031215615fc5575f5ffd5b8435615fd081615426565b935060208501356001600160401b03811115615fea575f5ffd5b615ff687828801615eea565b93505060408501356001600160401b03811115616011575f5ffd5b61601d87828801615eea565b92505060608501356001600160401b03811115616038575f5ffd5b61604487828801615f4e565b91505092959194509250565b5f5f60408385031215616061575f5ffd5b823561606c81615426565b915060208301356001600160401b03811115616086575f5ffd5b61609285828601615eea565b9150509250929050565b8260070b8152604060208201525f6150fd60408301846159e0565b8260070b8152604060208201525f82516040808401526160da6080840182615d42565b9050602084015160030b6060840152809150509392505050565b5f5f5f5f60808587031215616107575f5ffd5b843561611281615426565b9350602085013561612281615426565b9250604085013561613281615426565b9150606085013561614281615637565b939692955090935050565b5f5f5f6060848603121561615f575f5ffd5b833561616a81615426565b925060208401356001600160401b03811115616184575f5ffd5b61619086828701615eea565b92505060408401356001600160401b038111156161ab575f5ffd5b6161b786828701615f4e565b9150509250925092565b8460070b8152608060208201525f6161dc6080830186615bb9565b82810360408401526161ee8186615c33565b90508281036060840152614c738185615cb8565b600783900b8152608081016159ab60208301848051600790810b83526020808301516001600160a01b031690840152604091820151900b910152565b5f5f5f60608486031215616250575f5ffd5b833561625b81615426565b9250602084013561626b81615637565b915060408401356001600160401b038111156161ab575f5ffd5b5f6001600160401b0382111561629d5761629d6154dc565b50601f01601f191660200190565b5f5f5f606084860312156162bd575f5ffd5b83356162c881615426565b925060208401356162d881615637565b915060408401356001600160401b038111156162f2575f5ffd5b8401601f81018613616302575f5ffd5b803561631061566f82615615565b8082825260208201915060208360051b850101925088831115616331575f5ffd5b602084015b838110156163b15780356001600160401b03811115616353575f5ffd5b8501603f81018b13616363575f5ffd5b602081013561637461566f82616285565b8181526040838301018d1015616388575f5ffd5b816040840160208301375f60208383010152808652505050602083019250602081019050616336565b50809450505050509250925092565b5f606082018560070b83528460070b6020840152606060408401528084518083526080850191506020860192505f5b8181101561641057835160070b8352602093840193909201916001016163ef565b5090979650505050505050565b5f5f5f6060848603121561642f575f5ffd5b833561643a81615426565b9250602084013561644a81615426565b9150604084013561645a81615426565b809150509250925092565b600181811c9082168061647957607f821691505b60208210810361649757634e487b7160e01b5f52602260045260245ffd5b50919050565b5f81546164a981616465565b6001821680156164c057600181146164d557616502565b60ff1983168652811515820286019350616502565b845f5260205f205f5b838110156164fa578154888201526001909101906020016164de565b505081860193505b50505092915050565b5f6159ab828461649d565b5f815461652281616465565b80855260018216801561653c576001811461655857616502565b60ff1983166020870152602082151560051b8701019350616502565b845f5260205f205f5b838110156165835781546020828a010152600182019150602081019050616561565b870160200194505050505092915050565b5f82825480855260208501945060208160051b830101845f5260205f205f5b83811015615aaf57848303601f1901885281548352604060208401819052600183015460ff811615159185019190915260081c6001600160a01b0316606084015260a0608084015261660b60e0840160028401616516565b838103603f190160a08501526166248160038501616516565b60048401546001600160a01b031660c0959095019490945250602097909701966005909101906001016165b3565b61016082525f616666610160840183616516565b838103602085015261667b8160018501616516565b905061669160028401546001600160a01b031690565b6001600160a01b0316604085015283810360608501526166b48160038501616516565b905060048301546166cc6080860160ff831615159052565b600881901c60070b60a08601526166ed60c0860160ff8360481c1615159052565b5083810360e08501526167038160058501616594565b90506159ab6101008501600685018054600781810b8452604091821c6001600160a01b0316602085015260019092015490910b910152565b5f8154808452602084019350825f5260205f205f5b82811015615c29578154600781900b8752604081811c6001600160a01b0390811660208a015260e083901c60ff9081161515928a019290925260e89290921c1615156060880152600180840154909116608088015260a09096019560029092019101616750565b5f8154808452602084019350825f5260205f205f5b82811015615c29575f82548060070b88528060401c60070b60208901528060801c60070b60408901528060c01d60070b60608901525060018301546168186080890160ff831615159052565b60081c6001600160a01b031660a08801525060c090950194600291909101906001016167cc565b5f8154808452602084019350825f5260205f205f5b82811015615c29575f82548060070b88528060401c60070b60208901528060801c60070b604089015250600183015460018060a01b03811660608901526168a56080890160ff8360a01c1615159052565b505060028201546001600160a01b031660a087015260c090950194600390910190600101616854565b60ff831681526040602082015261012060408201525f6168f2610160830184616652565b6008840154600781900b60608501526169156080850160ff8360401c1615159052565b61692960a0850160ff8360481c1615159052565b61693d60c0850160ff8360501c1615159052565b50828103603f190160e0840152616957816009860161673b565b838103603f1901610100850152905061697381600a86016167b7565b838103603f1901610120850152905061698f81600b860161683f565b838103603f1901610140850152905061180781600c8601616516565b60ff85168152608060208201525f6169c6608083018661673b565b82810360408401526169d881866167b7565b90508281036060840152614c73818561683f565b60ff83168152608081016159ab60208301848054600781810b8452604091821c6001600160a01b0316602085015260019092015490910b910152565b803560208310156113e5575f19602084900360031b1b1692915050565b6020808252601c908201527f617070726f76653a204e6f7420656e6f7567682063616c6c6461746100000000604082015260600190565b60208082526017908201527f68747343616c6c3a2064656c6567617465642063616c6c000000000000000000604082015260600190565b8051616abe81615426565b919050565b5f60208284031215616ad3575f5ffd5b81516159ab81615426565b634e487b7160e01b5f52603260045260245ffd5b634e487b7160e01b5f52601160045260245ffd5b808201808211156113e5576113e5616af2565b818103818111156113e5576113e5616af2565b5f82518060208501845e5f920191825250919050565b8051616abe81615637565b5f82601f830112616b5c575f5ffd5b8151602083015f616b6f61566f84616285565b9050828152858383011115616b82575f5ffd5b8282602083015e5f92810160200192909252509392505050565b8051616abe81615645565b5f82601f830112616bb6575f5ffd5b8151616bc461566f82615615565b8082825260208201915060208360051b860101925085831115616be5575f5ffd5b602085015b838110156156fc5780516001600160401b03811115616c07575f5ffd5b86016040818903601f19011215616c1c575f5ffd5b616c2461555c565b6020820151815260408201516001600160401b03811115616c43575f5ffd5b60208184010192505060a0828a031215616c5b575f5ffd5b616c6361557e565b8251616c6e81615645565b81526020830151616c7e81615426565b602082015260408301516001600160401b03811115616c9b575f5ffd5b616ca78b828601616b4d565b60408301525060608301516001600160401b03811115616cc5575f5ffd5b616cd18b828601616b4d565b606083015250616ce360808401616ab3565b6080820152806020830152508085525050602083019250602081019050616bea565b5f60608284031215616d15575f5ffd5b616d1d6154f0565b90508151616d2a81615637565b81526020820151616d3a81615426565b60208201526040820151616d4d81615637565b604082015292915050565b5f6101608284031215616d69575f5ffd5b616d716155a0565b905081516001600160401b03811115616d88575f5ffd5b616d9484828501616b4d565b82525060208201516001600160401b03811115616daf575f5ffd5b616dbb84828501616b4d565b602083015250616dcd60408301616ab3565b604082015260608201516001600160401b03811115616dea575f5ffd5b616df684828501616b4d565b606083015250616e0860808301616b9c565b6080820152616e1960a08301616b42565b60a0820152616e2a60c08301616b9c565b60c082015260e08201516001600160401b03811115616e47575f5ffd5b616e5384828501616ba7565b60e083015250616e67836101008401616d05565b61010082015292915050565b5f82601f830112616e82575f5ffd5b8151616e9061566f82615615565b80828252602082019150602060a08402860101925085831115616eb1575f5ffd5b602085015b838110156156fc5760a08188031215616ecd575f5ffd5b616ed561557e565b8151616ee081615637565b81526020820151616ef081615426565b60208201526040820151616f0381615645565b60408201526060820151616f1681615645565b60608201526080820151616f2981615426565b6080820152835260209092019160a001616eb6565b5f82601f830112616f4d575f5ffd5b8151616f5b61566f82615615565b80828252602082019150602060c08402860101925085831115616f7c575f5ffd5b602085015b838110156156fc5760c08188031215616f98575f5ffd5b616fa06155c3565b8151616fab81615637565b81526020820151616fbb81615637565b60208201526040820151616fce81615637565b60408201526060820151616fe181615637565b60608201526080820151616ff481615645565b608082015260a082015161700781615426565b60a0820152835260209092019160c001616f81565b5f82601f83011261702b575f5ffd5b815161703961566f82615615565b80828252602082019150602060c0840286010192508583111561705a575f5ffd5b602085015b838110156156fc5760c08188031215617076575f5ffd5b61707e6155c3565b815161708981615637565b8152602082015161709981615637565b602082015260408201516170ac81615637565b604082015260608201516170bf81615426565b606082015260808201516170d281615645565b608082015260a08201516170e581615426565b60a0820152835260209092019160c00161705f565b5f5f6040838503121561710b575f5ffd5b825161711681615637565b60208401519092506001600160401b03811115617131575f5ffd5b83016101208186031215617143575f5ffd5b61714b6155a0565b81516001600160401b03811115617160575f5ffd5b61716c87828501616d58565b82525061717b60208301616b42565b602082015261718c60408301616b9c565b604082015261719d60608301616b9c565b60608201526171ae60808301616b9c565b608082015260a08201516001600160401b038111156171cb575f5ffd5b6171d787828501616e73565b60a08301525060c08201516001600160401b038111156171f5575f5ffd5b61720187828501616f3e565b60c08301525060e08201516001600160401b0381111561721f575f5ffd5b61722b8782850161701c565b60e0830152506101008201516001600160401b0381111561724a575f5ffd5b61725687828501616b4d565b6101008301525080925050509250929050565b5f60208284031215617279575f5ffd5b81516159ab81615637565b5f5f60408385031215617295575f5ffd5b82516172a081615637565b602084015190925061549381615645565b5f602082840312156172c1575f5ffd5b815160ff811681146159ab575f5ffd5b5f602082840312156172e1575f5ffd5b81516159ab81615645565b6001600160a01b039384168152919092166020820152604081019190915260600190565b5f5f60408385031215617321575f5ffd5b825161732c81615637565b8092505060208301518060030b8114615493575f5ffd5b5f5f5f5f60808587031215617356575f5ffd5b845161736181615637565b60208601519094506001600160401b0381111561737c575f5ffd5b61738887828801616e73565b93505060408501516001600160401b038111156173a3575f5ffd5b6173af87828801616f3e565b92505060608501516001600160401b038111156173ca575f5ffd5b6160448782880161701c565b5f5f608083850312156173e7575f5ffd5b82516173f281615637565b91506174018460208501616d05565b90509250929050565b5f6020828403121561741a575f5ffd5b5051919050565b80516020808301519190811015616497575f1960209190910360031b1b16919050565b5f8260070b8260070b028060070b91508082146153e9576153e9616af2565b5f60208284031215617473575f5ffd5b815163ffffffff811681146159ab575f5ffd5b6001600160e01b0319938416815260409290921b67ffffffffffffffff1916600483015260e01b909116601c82015260200190565b602081525f6159ab6020830184616516565b602081525f6159ab60208301846159b2565b6001600160e01b0319948516815260609390931b6001600160601b031916600484015260e091821b84166018840152901b909116601c8201526020019056fea26469706673582212207ff27f3feaad4102abcfdd712868b2aa5eb208e3be76f08aa6fe2fd6be00fb3364736f6c634300081c0033",
        "linkReferences": {}
    },
    "methodIdentifiers": {
        "_transferAsHTS(address,address,uint256)": "2fc98c7d",
        "_transferNFTAsHTS(address,address,uint256)": "4839fb75",
        "_update(address,address,uint256)": "0bb3bfa8",
        "approve(address,address,uint256)": "e1f21c67",
        "approveNFT(address,address,uint256)": "7336aaf0",
        "associateToken(address,address)": "49146bde",
        "associateTokens(address,address[])": "2e63879b",
        "burnToken(address,int64,int64[])": "d6910d06",
        "cryptoTransfer(((address,int64,bool)[]),(address,(address,int64,bool)[],(address,address,int64,bool)[])[])": "0e71804f",
        "dissociateToken(address,address)": "099794e8",
        "dissociateTokens(address,address[])": "78b63918",
        "getAccountId(address)": "e0b490f7",
        "getApproved(address,uint256)": "098f2366",
        "getFungibleTokenInfo(address)": "3f28a19b",
        "getNonFungibleTokenInfo(address,int64)": "287e1da8",
        "getTokenCustomFees(address)": "ae7611a0",
        "getTokenDefaultFreezeStatus(address)": "a7daa18d",
        "getTokenDefaultKycStatus(address)": "335e04c1",
        "getTokenExpiryInfo(address)": "d614cdb8",
        "getTokenInfo(address)": "1f69565f",
        "getTokenKey(address,uint256)": "3c4dd32e",
        "getTokenType(address)": "93272baf",
        "isApprovedForAll(address,address,address)": "f49f40db",
        "isToken(address)": "19f37361",
        "mintToken(address,int64,bytes[])": "e0f4059a",
        "transferFrom(address,address,address,uint256)": "15dacbea",
        "transferFromNFT(address,address,address,uint256)": "9b23d3d9",
        "transferNFT(address,address,address,int64)": "5cfc9011",
        "transferNFTs(address,address[],address[],int64[])": "2c4ba191",
        "transferToken(address,address,address,int64)": "eca36917",
        "transferTokens(address,address[],int64[])": "82bba493"
    },
    "storageLayout": {
        "storage": [
            {
                "astId": 93,
                "contract": "contracts/HtsSystemContract.sol:HtsSystemContract",
                "label": "tokenType",
                "offset": 0,
                "slot": "0",
                "type": "t_string_storage"
            },
            {
                "astId": 95,
                "contract": "contracts/HtsSystemContract.sol:HtsSystemContract",
                "label": "name",
                "offset": 0,
                "slot": "1",
                "type": "t_string_storage"
            },
            {
                "astId": 97,
                "contract": "contracts/HtsSystemContract.sol:HtsSystemContract",
                "label": "symbol",
                "offset": 0,
                "slot": "2",
                "type": "t_string_storage"
            },
            {
                "astId": 99,
                "contract": "contracts/HtsSystemContract.sol:HtsSystemContract",
                "label": "decimals",
                "offset": 0,
                "slot": "3",
                "type": "t_uint8"
            },
            {
                "astId": 101,
                "contract": "contracts/HtsSystemContract.sol:HtsSystemContract",
                "label": "totalSupply",
                "offset": 0,
                "slot": "4",
                "type": "t_uint256"
            },
            {
                "astId": 104,
                "contract": "contracts/HtsSystemContract.sol:HtsSystemContract",
                "label": "_tokenInfo",
                "offset": 0,
                "slot": "5",
                "type": "t_struct(TokenInfo)7428_storage"
            }
        ],
        "types": {
            "t_address": {
                "encoding": "inplace",
                "label": "address",
                "numberOfBytes": "20"
            },
            "t_array(t_struct(FixedFee)7470_storage)dyn_storage": {
                "encoding": "dynamic_array",
                "label": "struct IHederaTokenService.FixedFee[]",
                "numberOfBytes": "32",
                "base": "t_struct(FixedFee)7470_storage"
            },
            "t_array(t_struct(FractionalFee)7484_storage)dyn_storage": {
                "encoding": "dynamic_array",
                "label": "struct IHederaTokenService.FractionalFee[]",
                "numberOfBytes": "32",
                "base": "t_struct(FractionalFee)7484_storage"
            },
            "t_array(t_struct(RoyaltyFee)7498_storage)dyn_storage": {
                "encoding": "dynamic_array",
                "label": "struct IHederaTokenService.RoyaltyFee[]",
                "numberOfBytes": "32",
                "base": "t_struct(RoyaltyFee)7498_storage"
            },
            "t_array(t_struct(TokenKey)7369_storage)dyn_storage": {
                "encoding": "dynamic_array",
                "label": "struct IHederaTokenService.TokenKey[]",
                "numberOfBytes": "32",
                "base": "t_struct(TokenKey)7369_storage"
            },
            "t_bool": {
                "encoding": "inplace",
                "label": "bool",
                "numberOfBytes": "1"
            },
            "t_bytes_storage": {
                "encoding": "bytes",
                "label": "bytes",
                "numberOfBytes": "32"
            },
            "t_int64": {
                "encoding": "inplace",
                "label": "int64",
                "numberOfBytes": "8"
            },
            "t_string_storage": {
                "encoding": "bytes",
                "label": "string",
                "numberOfBytes": "32"
            },
            "t_struct(Expiry)7350_storage": {
                "encoding": "inplace",
                "label": "struct IHederaTokenService.Expiry",
                "numberOfBytes": "64",
                "members": [
                    {
                        "astId": 7345,
                        "contract": "contracts/HtsSystemContract.sol:HtsSystemContract",
                        "label": "second",
                        "offset": 0,
                        "slot": "0",
                        "type": "t_int64"
                    },
                    {
                        "astId": 7347,
                        "contract": "contracts/HtsSystemContract.sol:HtsSystemContract",
                        "label": "autoRenewAccount",
                        "offset": 8,
                        "slot": "0",
                        "type": "t_address"
                    },
                    {
                        "astId": 7349,
                        "contract": "contracts/HtsSystemContract.sol:HtsSystemContract",
                        "label": "autoRenewPeriod",
                        "offset": 0,
                        "slot": "1",
                        "type": "t_int64"
                    }
                ]
            },
            "t_struct(FixedFee)7470_storage": {
                "encoding": "inplace",
                "label": "struct IHederaTokenService.FixedFee",
                "numberOfBytes": "64",
                "members": [
                    {
                        "astId": 7461,
                        "contract": "contracts/HtsSystemContract.sol:HtsSystemContract",
                        "label": "amount",
                        "offset": 0,
                        "slot": "0",
                        "type": "t_int64"
                    },
                    {
                        "astId": 7463,
                        "contract": "contracts/HtsSystemContract.sol:HtsSystemContract",
                        "label": "tokenId",
                        "offset": 8,
                        "slot": "0",
                        "type": "t_address"
                    },
                    {
                        "astId": 7465,
                        "contract": "contracts/HtsSystemContract.sol:HtsSystemContract",
                        "label": "useHbarsForPayment",
                        "offset": 28,
                        "slot": "0",
                        "type": "t_bool"
                    },
                    {
                        "astId": 7467,
                        "contract": "contracts/HtsSystemContract.sol:HtsSystemContract",
                        "label": "useCurrentTokenForPayment",
                        "offset": 29,
                        "slot": "0",
                        "type": "t_bool"
                    },
                    {
                        "astId": 7469,
                        "contract": "contracts/HtsSystemContract.sol:HtsSystemContract",
                        "label": "feeCollector",
                        "offset": 0,
                        "slot": "1",
                        "type": "t_address"
                    }
                ]
            },
            "t_struct(FractionalFee)7484_storage": {
                "encoding": "inplace",
                "label": "struct IHederaTokenService.FractionalFee",
                "numberOfBytes": "64",
                "members": [
                    {
                        "astId": 7473,
                        "contract": "contracts/HtsSystemContract.sol:HtsSystemContract",
                        "label": "numerator",
                        "offset": 0,
                        "slot": "0",
                        "type": "t_int64"
                    },
                    {
                        "astId": 7475,
                        "contract": "contracts/HtsSystemContract.sol:HtsSystemContract",
                        "label": "denominator",
                        "offset": 8,
                        "slot": "0",
                        "type": "t_int64"
                    },
                    {
                        "astId": 7477,
                        "contract": "contracts/HtsSystemContract.sol:HtsSystemContract",
                        "label": "minimumAmount",
                        "offset": 16,
                        "slot": "0",
                        "type": "t_int64"
                    },
                    {
                        "astId": 7479,
                        "contract": "contracts/HtsSystemContract.sol:HtsSystemContract",
                        "label": "maximumAmount",
                        "offset": 24,
                        "slot": "0",
                        "type": "t_int64"
                    },
                    {
                        "astId": 7481,
                        "contract": "contracts/HtsSystemContract.sol:HtsSystemContract",
                        "label": "netOfTransfers",
                        "offset": 0,
                        "slot": "1",
                        "type": "t_bool"
                    },
                    {
                        "astId": 7483,
                        "contract": "contracts/HtsSystemContract.sol:HtsSystemContract",
                        "label": "feeCollector",
                        "offset": 1,
                        "slot": "1",
                        "type": "t_address"
                    }
                ]
            },
            "t_struct(HederaToken)7392_storage": {
                "encoding": "inplace",
                "label": "struct IHederaTokenService.HederaToken",
                "numberOfBytes": "256",
                "members": [
                    {
                        "astId": 7372,
                        "contract": "contracts/HtsSystemContract.sol:HtsSystemContract",
                        "label": "name",
                        "offset": 0,
                        "slot": "0",
                        "type": "t_string_storage"
                    },
                    {
                        "astId": 7374,
                        "contract": "contracts/HtsSystemContract.sol:HtsSystemContract",
                        "label": "symbol",
                        "offset": 0,
                        "slot": "1",
                        "type": "t_string_storage"
                    },
                    {
                        "astId": 7376,
                        "contract": "contracts/HtsSystemContract.sol:HtsSystemContract",
                        "label": "treasury",
                        "offset": 0,
                        "slot": "2",
                        "type": "t_address"
                    },
                    {
                        "astId": 7378,
                        "contract": "contracts/HtsSystemContract.sol:HtsSystemContract",
                        "label": "memo",
                        "offset": 0,
                        "slot": "3",
                        "type": "t_string_storage"
                    },
                    {
                        "astId": 7380,
                        "contract": "contracts/HtsSystemContract.sol:HtsSystemContract",
                        "label": "tokenSupplyType",
                        "offset": 0,
                        "slot": "4",
                        "type": "t_bool"
                    },
                    {
                        "astId": 7382,
                        "contract": "contracts/HtsSystemContract.sol:HtsSystemContract",
                        "label": "maxSupply",
                        "offset": 1,
                        "slot": "4",
                        "type": "t_int64"
                    },
                    {
                        "astId": 7384,
                        "contract": "contracts/HtsSystemContract.sol:HtsSystemContract",
                        "label": "freezeDefault",
                        "offset": 9,
                        "slot": "4",
                        "type": "t_bool"
                    },
                    {
                        "astId": 7388,
                        "contract": "contracts/HtsSystemContract.sol:HtsSystemContract",
                        "label": "tokenKeys",
                        "offset": 0,
                        "slot": "5",
                        "type": "t_array(t_struct(TokenKey)7369_storage)dyn_storage"
                    },
                    {
                        "astId": 7391,
                        "contract": "contracts/HtsSystemContract.sol:HtsSystemContract",
                        "label": "expiry",
                        "offset": 0,
                        "slot": "6",
                        "type": "t_struct(Expiry)7350_storage"
                    }
                ]
            },
            "t_struct(KeyValue)7362_storage": {
                "encoding": "inplace",
                "label": "struct IHederaTokenService.KeyValue",
                "numberOfBytes": "128",
                "members": [
                    {
                        "astId": 7353,
                        "contract": "contracts/HtsSystemContract.sol:HtsSystemContract",
                        "label": "inheritAccountKey",
                        "offset": 0,
                        "slot": "0",
                        "type": "t_bool"
                    },
                    {
                        "astId": 7355,
                        "contract": "contracts/HtsSystemContract.sol:HtsSystemContract",
                        "label": "contractId",
                        "offset": 1,
                        "slot": "0",
                        "type": "t_address"
                    },
                    {
                        "astId": 7357,
                        "contract": "contracts/HtsSystemContract.sol:HtsSystemContract",
                        "label": "ed25519",
                        "offset": 0,
                        "slot": "1",
                        "type": "t_bytes_storage"
                    },
                    {
                        "astId": 7359,
                        "contract": "contracts/HtsSystemContract.sol:HtsSystemContract",
                        "label": "ECDSA_secp256k1",
                        "offset": 0,
                        "slot": "2",
                        "type": "t_bytes_storage"
                    },
                    {
                        "astId": 7361,
                        "contract": "contracts/HtsSystemContract.sol:HtsSystemContract",
                        "label": "delegatableContractId",
                        "offset": 0,
                        "slot": "3",
                        "type": "t_address"
                    }
                ]
            },
            "t_struct(RoyaltyFee)7498_storage": {
                "encoding": "inplace",
                "label": "struct IHederaTokenService.RoyaltyFee",
                "numberOfBytes": "96",
                "members": [
                    {
                        "astId": 7487,
                        "contract": "contracts/HtsSystemContract.sol:HtsSystemContract",
                        "label": "numerator",
                        "offset": 0,
                        "slot": "0",
                        "type": "t_int64"
                    },
                    {
                        "astId": 7489,
                        "contract": "contracts/HtsSystemContract.sol:HtsSystemContract",
                        "label": "denominator",
                        "offset": 8,
                        "slot": "0",
                        "type": "t_int64"
                    },
                    {
                        "astId": 7491,
                        "contract": "contracts/HtsSystemContract.sol:HtsSystemContract",
                        "label": "amount",
                        "offset": 16,
                        "slot": "0",
                        "type": "t_int64"
                    },
                    {
                        "astId": 7493,
                        "contract": "contracts/HtsSystemContract.sol:HtsSystemContract",
                        "label": "tokenId",
                        "offset": 0,
                        "slot": "1",
                        "type": "t_address"
                    },
                    {
                        "astId": 7495,
                        "contract": "contracts/HtsSystemContract.sol:HtsSystemContract",
                        "label": "useHbarsForPayment",
                        "offset": 20,
                        "slot": "1",
                        "type": "t_bool"
                    },
                    {
                        "astId": 7497,
                        "contract": "contracts/HtsSystemContract.sol:HtsSystemContract",
                        "label": "feeCollector",
                        "offset": 0,
                        "slot": "2",
                        "type": "t_address"
                    }
                ]
            },
            "t_struct(TokenInfo)7428_storage": {
                "encoding": "inplace",
                "label": "struct IHederaTokenService.TokenInfo",
                "numberOfBytes": "416",
                "members": [
                    {
                        "astId": 7397,
                        "contract": "contracts/HtsSystemContract.sol:HtsSystemContract",
                        "label": "token",
                        "offset": 0,
                        "slot": "0",
                        "type": "t_struct(HederaToken)7392_storage"
                    },
                    {
                        "astId": 7400,
                        "contract": "contracts/HtsSystemContract.sol:HtsSystemContract",
                        "label": "totalSupply",
                        "offset": 0,
                        "slot": "8",
                        "type": "t_int64"
                    },
                    {
                        "astId": 7403,
                        "contract": "contracts/HtsSystemContract.sol:HtsSystemContract",
                        "label": "deleted",
                        "offset": 8,
                        "slot": "8",
                        "type": "t_bool"
                    },
                    {
                        "astId": 7406,
                        "contract": "contracts/HtsSystemContract.sol:HtsSystemContract",
                        "label": "defaultKycStatus",
                        "offset": 9,
                        "slot": "8",
                        "type": "t_bool"
                    },
                    {
                        "astId": 7409,
                        "contract": "contracts/HtsSystemContract.sol:HtsSystemContract",
                        "label": "pauseStatus",
                        "offset": 10,
                        "slot": "8",
                        "type": "t_bool"
                    },
                    {
                        "astId": 7414,
                        "contract": "contracts/HtsSystemContract.sol:HtsSystemContract",
                        "label": "fixedFees",
                        "offset": 0,
                        "slot": "9",
                        "type": "t_array(t_struct(FixedFee)7470_storage)dyn_storage"
                    },
                    {
                        "astId": 7419,
                        "contract": "contracts/HtsSystemContract.sol:HtsSystemContract",
                        "label": "fractionalFees",
                        "offset": 0,
                        "slot": "10",
                        "type": "t_array(t_struct(FractionalFee)7484_storage)dyn_storage"
                    },
                    {
                        "astId": 7424,
                        "contract": "contracts/HtsSystemContract.sol:HtsSystemContract",
                        "label": "royaltyFees",
                        "offset": 0,
                        "slot": "11",
                        "type": "t_array(t_struct(RoyaltyFee)7498_storage)dyn_storage"
                    },
                    {
                        "astId": 7427,
                        "contract": "contracts/HtsSystemContract.sol:HtsSystemContract",
                        "label": "ledgerId",
                        "offset": 0,
                        "slot": "12",
                        "type": "t_string_storage"
                    }
                ]
            },
            "t_struct(TokenKey)7369_storage": {
                "encoding": "inplace",
                "label": "struct IHederaTokenService.TokenKey",
                "numberOfBytes": "160",
                "members": [
                    {
                        "astId": 7365,
                        "contract": "contracts/HtsSystemContract.sol:HtsSystemContract",
                        "label": "keyType",
                        "offset": 0,
                        "slot": "0",
                        "type": "t_uint256"
                    },
                    {
                        "astId": 7368,
                        "contract": "contracts/HtsSystemContract.sol:HtsSystemContract",
                        "label": "key",
                        "offset": 0,
                        "slot": "1",
                        "type": "t_struct(KeyValue)7362_storage"
                    }
                ]
            },
            "t_uint256": {
                "encoding": "inplace",
                "label": "uint256",
                "numberOfBytes": "32"
            },
            "t_uint8": {
                "encoding": "inplace",
                "label": "uint8",
                "numberOfBytes": "1"
            }
        }
    },
    "userdoc": {
        "version": 1,
        "kind": "user",
        "methods": {
            "approve(address,address,uint256)": {
                "notice": "Allows spender to withdraw from your account multiple times, up to the value amount. If this function is called again it overwrites the current allowance with value. Only Applicable to Fungible Tokens"
            },
            "approveNFT(address,address,uint256)": {
                "notice": "Allow or reaffirm the approved address to transfer an NFT the approved address does not own. Only Applicable to NFT Tokens"
            },
            "associateToken(address,address)": {
                "notice": "Single-token variant of associateTokens. Will be mapped to a single entry array call of associateTokens"
            },
            "associateTokens(address,address[])": {
                "notice": "Associates the provided account with the provided tokens. Must be signed by the provided  Account's key or called from the accounts contract key  If the provided account is not found, the transaction will resolve to INVALID_ACCOUNT_ID.  If the provided account has been deleted, the transaction will resolve to ACCOUNT_DELETED.  If any of the provided tokens is not found, the transaction will resolve to INVALID_TOKEN_REF.  If any of the provided tokens has been deleted, the transaction will resolve to TOKEN_WAS_DELETED.  If an association between the provided account and any of the tokens already exists, the  transaction will resolve to TOKEN_ALREADY_ASSOCIATED_TO_ACCOUNT.  If the provided account's associations count exceed the constraint of maximum token associations    per account, the transaction will resolve to TOKENS_PER_ACCOUNT_LIMIT_EXCEEDED.  On success, associations between the provided account and tokens are made and the account is    ready to interact with the tokens."
            },
            "cryptoTransfer(((address,int64,bool)[]),(address,(address,int64,bool)[],(address,address,int64,bool)[])[])": {
                "notice": "Performs transfers among combinations of tokens and hbars"
            },
            "dissociateToken(address,address)": {
                "notice": "Single-token variant of dissociateTokens. Will be mapped to a single entry array call of dissociateTokens"
            },
            "dissociateTokens(address,address[])": {
                "notice": "Dissociates the provided account with the provided tokens. Must be signed by the provided Account's key. If the provided account is not found, the transaction will resolve to INVALID_ACCOUNT_ID. If the provided account has been deleted, the transaction will resolve to ACCOUNT_DELETED. If any of the provided tokens is not found, the transaction will resolve to INVALID_TOKEN_REF. If any of the provided tokens has been deleted, the transaction will resolve to TOKEN_WAS_DELETED. If an association between the provided account and any of the tokens does not exist, the transaction will resolve to TOKEN_NOT_ASSOCIATED_TO_ACCOUNT. If a token has not been deleted and has not expired, and the user has a nonzero balance, the transaction will resolve to TRANSACTION_REQUIRES_ZERO_TOKEN_BALANCES. If a <b>fungible token</b> has expired, the user can disassociate even if their token balance is not zero. If a <b>non fungible token</b> has expired, the user can <b>not</b> disassociate if their token balance is not zero. The transaction will resolve to TRANSACTION_REQUIRED_ZERO_TOKEN_BALANCES. On success, associations between the provided account and tokens are removed."
            },
            "getApproved(address,uint256)": {
                "notice": "Get the approved address for a single NFT Only Applicable to NFT Tokens"
            },
            "getFungibleTokenInfo(address)": {
                "notice": "Query fungible token info"
            },
            "getNonFungibleTokenInfo(address,int64)": {
                "notice": "Query non fungible token info"
            },
            "getTokenCustomFees(address)": {
                "notice": "Query token custom fees"
            },
            "getTokenDefaultFreezeStatus(address)": {
                "notice": "Query token default freeze status"
            },
            "getTokenDefaultKycStatus(address)": {
                "notice": "Query token default kyc status"
            },
            "getTokenExpiryInfo(address)": {
                "notice": "Query token expiry info"
            },
            "getTokenInfo(address)": {
                "notice": "Query token info"
            },
            "getTokenKey(address,uint256)": {
                "notice": "Query token KeyValue"
            },
            "getTokenType(address)": {
                "notice": "Query to return the token type for a given address"
            },
            "isApprovedForAll(address,address,address)": {
                "notice": "Query if an address is an authorized operator for another address Only Applicable to NFT Tokens"
            },
            "isToken(address)": {
                "notice": "Query if valid token found for the given address"
            },
            "transferFromNFT(address,address,address,uint256)": {
                "notice": "Transfers `serialNumber` of `token` from `from` to `to` using the allowance mechanism. Only applicable to NFT tokens"
            },
            "transferNFT(address,address,address,int64)": {
                "notice": "Transfers tokens where the calling account/contract is implicitly the first entry in the token transfer list, where the amount is the value needed to zero balance the transfers. Regular signing rules apply for sending (positive amount) or receiving (negative amount)"
            },
            "transferNFTs(address,address[],address[],int64[])": {
                "notice": "Initiates a Non-Fungable Token Transfer"
            },
            "transferToken(address,address,address,int64)": {
                "notice": "Transfers tokens where the calling account/contract is implicitly the first entry in the token transfer list, where the amount is the value needed to zero balance the transfers. Regular signing rules apply for sending (positive amount) or receiving (negative amount)"
            },
            "transferTokens(address,address[],int64[])": {
                "notice": "Initiates a Fungible Token Transfer"
            }
        }
    },
    "devdoc": {
        "version": 1,
        "kind": "dev",
        "methods": {
            "approve(address,address,uint256)": {
                "params": {
                    "amount": "the amount of tokens authorized to spend.",
                    "spender": "the account address authorized to spend",
                    "token": "The hedera token address to approve"
                },
                "returns": {
                    "responseCode": "The response code for the status of the request. SUCCESS is 22."
                }
            },
            "approveNFT(address,address,uint256)": {
                "params": {
                    "approved": "The new approved NFT controller.  To revoke approvals pass in the zero address.",
                    "serialNumber": "The NFT serial number  to approve",
                    "token": "The Hedera NFT token address to approve"
                },
                "returns": {
                    "responseCode": "The response code for the status of the request. SUCCESS is 22."
                }
            },
            "associateToken(address,address)": {
                "params": {
                    "account": "The account to be associated with the provided token",
                    "token": "The token to be associated with the provided account"
                }
            },
            "associateTokens(address,address[])": {
                "params": {
                    "account": "The account to be associated with the provided tokens",
                    "tokens": "The tokens to be associated with the provided account. In the case of NON_FUNGIBLE_UNIQUE               Type, once an account is associated, it can hold any number of NFTs (serial numbers) of that               token type"
                },
                "returns": {
                    "responseCode": "The response code for the status of the request. SUCCESS is 22."
                }
            },
            "cryptoTransfer(((address,int64,bool)[]),(address,(address,int64,bool)[],(address,address,int64,bool)[])[])": {
                "params": {
                    "tokenTransfers": "the list of token transfers to do",
                    "transferList": "the list of hbar transfers to do"
                }
            },
            "dissociateToken(address,address)": {
                "params": {
                    "account": "The account to be associated with the provided token",
                    "token": "The token to be associated with the provided account"
                }
            },
            "dissociateTokens(address,address[])": {
                "params": {
                    "account": "The account to be dissociated from the provided tokens",
                    "tokens": "The tokens to be dissociated from the provided account."
                },
                "returns": {
                    "responseCode": "The response code for the status of the request. SUCCESS is 22."
                }
            },
            "getAccountId(address)": {
                "details": "Returns the account id (omitting both shard and realm numbers) of the given `address`. The storage adapter, _i.e._, `getHtsStorageAt`, assumes that both shard and realm numbers are zero. Thus, they can be omitted from the account id. See https://docs.hedera.com/hedera/core-concepts/accounts/account-properties for more info on account properties."
            },
            "getApproved(address,uint256)": {
                "params": {
                    "serialNumber": "The NFT to find the approved address for",
                    "token": "The Hedera NFT token address to check approval"
                },
                "returns": {
                    "approved": "The approved address for this NFT, or the zero address if there is none",
                    "responseCode": "The response code for the status of the request. SUCCESS is 22."
                }
            },
            "getFungibleTokenInfo(address)": {
                "params": {
                    "token": "The token address to check"
                },
                "returns": {
                    "_0": "The response code for the status of the request. SUCCESS is 22.",
                    "_1": "FungibleTokenInfo info for `token`"
                }
            },
            "getNonFungibleTokenInfo(address,int64)": {
                "params": {
                    "serialNumber": "The NFT serialNumber to check",
                    "token": "The token address to check"
                },
                "returns": {
                    "_0": "The response code for the status of the request. SUCCESS is 22.",
                    "_1": "NonFungibleTokenInfo info for `token` `serialNumber`"
                }
            },
            "getTokenCustomFees(address)": {
                "params": {
                    "token": "The token address to check"
                },
                "returns": {
                    "_0": "The response code for the status of the request. SUCCESS is 22.",
                    "_1": "Set of fixed fees for `token`",
                    "_2": "Set of fractional fees for `token`",
                    "_3": "Set of royalty fees for `token`"
                }
            },
            "getTokenDefaultFreezeStatus(address)": {
                "params": {
                    "token": "The token address to check"
                },
                "returns": {
                    "_0": "The response code for the status of the request. SUCCESS is 22.",
                    "_1": "True if `token` default freeze status is frozen."
                }
            },
            "getTokenDefaultKycStatus(address)": {
                "params": {
                    "token": "The token address to check"
                },
                "returns": {
                    "_0": "The response code for the status of the request. SUCCESS is 22.",
                    "_1": "True if `token` default kyc status is KycNotApplicable and false if Revoked."
                }
            },
            "getTokenExpiryInfo(address)": {
                "params": {
                    "token": "The token address to check"
                },
                "returns": {
                    "responseCode": "The response code for the status of the request. SUCCESS is 22.",
                    "tokenInfo": "Expiry info for `token`"
                }
            },
            "getTokenInfo(address)": {
                "params": {
                    "token": "The token address to check"
                },
                "returns": {
                    "responseCode": "The response code for the status of the request. SUCCESS is 22.",
                    "tokenInfo": "TokenInfo info for `token`"
                }
            },
            "getTokenKey(address,uint256)": {
                "params": {
                    "keyType": "The keyType of the desired KeyValue",
                    "token": "The token address to check"
                },
                "returns": {
                    "_0": "The response code for the status of the request. SUCCESS is 22.",
                    "_1": "KeyValue info for key of type `keyType`"
                }
            },
            "getTokenType(address)": {
                "params": {
                    "token": "The token address"
                },
                "returns": {
                    "_0": "The response code for the status of the request. SUCCESS is 22.",
                    "_1": "the token type. 0 is FUNGIBLE_COMMON, 1 is NON_FUNGIBLE_UNIQUE, -1 is UNRECOGNIZED"
                }
            },
            "isApprovedForAll(address,address,address)": {
                "params": {
                    "operator": "The address that acts on behalf of the owner",
                    "owner": "The address that owns the NFTs",
                    "token": "The Hedera NFT token address to approve"
                },
                "returns": {
                    "_0": "The response code for the status of the request. SUCCESS is 22.",
                    "_1": "True if `operator` is an approved operator for `owner`, false otherwise"
                }
            },
            "isToken(address)": {
                "params": {
                    "token": "The token address"
                },
                "returns": {
                    "_0": "The response code for the status of the request. SUCCESS is 22.",
                    "_1": "True if valid token found for the given address"
                }
            },
            "transferFromNFT(address,address,address,uint256)": {
                "params": {
                    "from": "The account address of the owner of `serialNumber` of `token`",
                    "serialNumber": "The NFT serial number to transfer",
                    "to": "The account address of the receiver of `serialNumber`",
                    "token": "The address of the non-fungible Hedera token to transfer"
                },
                "returns": {
                    "_0": "The response code for the status of the request. SUCCESS is 22."
                }
            },
            "transferNFT(address,address,address,int64)": {
                "params": {
                    "recipient": "The receiver of the transaction",
                    "sender": "The sender for the transaction",
                    "serialNumber": "The serial number of the NFT to transfer.",
                    "token": "The token to transfer to/from"
                }
            },
            "transferNFTs(address,address[],address[],int64[])": {
                "params": {
                    "receiver": "the receiver of the nft sent by the same index at sender",
                    "sender": "the sender of an nft",
                    "serialNumber": "the serial number of the nft sent by the same index at sender",
                    "token": "The ID of the token as a solidity address"
                }
            },
            "transferToken(address,address,address,int64)": {
                "params": {
                    "amount": "Non-negative value to send. a negative value will result in a failure.",
                    "recipient": "The receiver of the transaction",
                    "sender": "The sender for the transaction",
                    "token": "The token to transfer to/from"
                }
            },
            "transferTokens(address,address[],int64[])": {
                "params": {
                    "accountId": "account to do a transfer to/from",
                    "amount": "The amount from the accountId at the same index",
                    "token": "The ID of the token as a solidity address"
                }
            }
        },
        "events": {
            "Approval(address,address,uint256)": {
                "details": "Emitted when the allowance of a `spender` for an `owner` is set by a call to {approve}. `value` is the new allowance."
            },
            "Transfer(address,address,uint256)": {
                "details": "Emitted when `value` tokens are moved from one account (`from`) to another (`to`). Note that `value` may be zero."
            }
        }
    },
    "id": 1
}