{
  "abi": [
    {
      "type": "fallback",
      "stateMutability": "nonpayable"
    },
    {
      "type": "function",
      "name": "getAccountId",
      "inputs": [
        {
          "name": "account",
          "type": "address",
          "internalType": "address"
        }
      ],
      "outputs": [
        {
          "name": "accountId",
          "type": "uint32",
          "internalType": "uint32"
        }
      ],
      "stateMutability": "view"
    },
    {
      "type": "event",
      "name": "Approval",
      "inputs": [
        {
          "name": "owner",
          "type": "address",
          "indexed": true,
          "internalType": "address"
        },
        {
          "name": "spender",
          "type": "address",
          "indexed": true,
          "internalType": "address"
        },
        {
          "name": "amount",
          "type": "uint256",
          "indexed": false,
          "internalType": "uint256"
        }
      ],
      "anonymous": false
    },
    {
      "type": "event",
      "name": "Associated",
      "inputs": [
        {
          "name": "account",
          "type": "address",
          "indexed": true,
          "internalType": "address"
        }
      ],
      "anonymous": false
    },
    {
      "type": "event",
      "name": "Dissociated",
      "inputs": [
        {
          "name": "account",
          "type": "address",
          "indexed": true,
          "internalType": "address"
        }
      ],
      "anonymous": false
    },
    {
      "type": "event",
      "name": "Transfer",
      "inputs": [
        {
          "name": "from",
          "type": "address",
          "indexed": true,
          "internalType": "address"
        },
        {
          "name": "to",
          "type": "address",
          "indexed": true,
          "internalType": "address"
        },
        {
          "name": "amount",
          "type": "uint256",
          "indexed": false,
          "internalType": "uint256"
        }
      ],
      "anonymous": false
    }
  ],
  "bytecode": {
    "object": "0x6080604052348015600f57600080fd5b50610f1c8061001f6000396000f3fe608060405234801561001057600080fd5b506004361061002b5760003560e01c8063e0b490f714610179575b6000366060601c8210156100865760405162461bcd60e51b815260206004820152601d60248201527f66616c6c6261636b3a206e6f7420656e6f7567682063616c6c6461746100000060448201526064015b60405180910390fd5b60006100956004823681610ce3565b61009e91610d0d565b60e01c905063618dc65e81146100f65760405162461bcd60e51b815260206004820152601e60248201527f66616c6c6261636b3a20756e737570706f727465642073656c6563746f720000604482015260640161007d565b6000610106601860043684610ce3565b61010f91610d45565b60601c90503081146101635760405162461bcd60e51b815260206004820152601d60248201527f66616c6c6261636b3a20746f6b656e206973206e6f742063616c6c6572000000604482015260640161007d565b61016b6101a5565b805195506020019350505050f35b61018c610187366004610d7b565b61073a565b60405163ffffffff909116815260200160405180910390f35b606060006101b7601c60183684610ce3565b6101c091610d0d565b905063f90221fd60e01b6001600160e01b03198216016102015760006040516020016101ec9190610dab565b60405160208183030381529060405291505090565b63cec31a9960e01b6001600160e01b0319821601610230576002546040805160ff9092166020830152016101ec565b63e7e9f22360e01b6001600160e01b031982160161025d576003546040516020016101ec91815260200190565b636a2764bf60e01b6001600160e01b03198216016102875760016040516020016101ec9190610dab565b638f5f7dcf60e01b6001600160e01b031982160161033f57603c3610156102f05760405162461bcd60e51b815260206004820152601e60248201527f62616c616e63654f663a204e6f7420656e6f7567682063616c6c646174610000604482015260640161007d565b6000610300603c60283684610ce3565b61030991610d45565b60601c9050610317816107e6565b60405160200161032991815260200190565b6040516020818303038152906040529250505090565b6356fa634560e01b6001600160e01b031982160161041257605c3610156103a85760405162461bcd60e51b815260206004820152601d60248201527f7472616e736665723a204e6f7420656e6f7567682063616c6c64617461000000604482015260640161007d565b60006103b8603c60283684610ce3565b6103c191610d45565b60601c905060006103d6605c603c3684610ce3565b6103df91610e59565b9050336103ed8184846107fa565b6040805160016020820152015b60405160208183030381529060405294505050505090565b63dc478d2360e01b6001600160e01b031982160161050e57607c36101561047b5760405162461bcd60e51b815260206004820152601e60248201527f7472616e73666572463a204e6f7420656e6f7567682063616c6c646174610000604482015260640161007d565b600061048b603c60283684610ce3565b61049491610d45565b60601c905060006104a9605c60483684610ce3565b6104b291610d45565b60601c905060006104c7607c605c3684610ce3565b6104d091610e59565b9050336104de848284610971565b6104e98484846107fa565b6040805160016020820152016040516020818303038152906040529550505050505090565b63114e896160e11b6001600160e01b03198216016105e657605c3610156105775760405162461bcd60e51b815260206004820152601e60248201527f616c6c6f77616e63653a204e6f7420656e6f7567682063616c6c646174610000604482015260640161007d565b6000610587603c60283684610ce3565b61059091610d45565b60601c905060006105a5605c60483684610ce3565b6105ae91610d45565b60601c90506105bd82826109eb565b6040516020016105cf91815260200190565b604051602081830303815290604052935050505090565b63f6a1584d60e01b6001600160e01b03198216016106f257605c36101561064f5760405162461bcd60e51b815260206004820152601c60248201527f617070726f76653a204e6f7420656e6f7567682063616c6c6461746100000000604482015260640161007d565b600061065f603c60283684610ce3565b61066891610d45565b60601c9050600061067d605c603c3684610ce3565b61068691610e59565b905033610694818484610a01565b826001600160a01b0316816001600160a01b03167f8c5be1e5ebec7d5bd14f71427d1e84f3dd0314c0f7b2291e5b200ac8c7c3b925846040516106d991815260200190565b60405180910390a36040805160016020820152016103fa565b60405162461bcd60e51b815260206004820152601f60248201527f7265646972656374466f72546f6b656e3a206e6f7420737570706f7274656400604482015260640161007d565b6000306101671461078d5760405162461bcd60e51b815260206004820152601760248201527f68747343616c6c3a2064656c6567617465642063616c6c000000000000000000604482015260640161007d565b6040805163e0b490f760e01b602082018190526000602483018190526001600160601b0319606087901b16602c840152909290918291016040516020818303038152906040526107dc90610e78565b5495945050505050565b6000806107f283610ac2565b549392505050565b6001600160a01b0383166108465760405162461bcd60e51b8152602060048201526013602482015272343a399d1034b73b30b634b21039b2b73232b960691b604482015260640161007d565b6001600160a01b0382166108945760405162461bcd60e51b8152602060048201526015602482015274343a399d1034b73b30b634b2103932b1b2b4bb32b960591b604482015260640161007d565b600061089f84610ac2565b8054909150828110156108f45760405162461bcd60e51b815260206004820152601f60248201527f5f7472616e736665723a20696e73756666696369656e742062616c616e636500604482015260640161007d565b8281038255600061090485610ac2565b805490915060006109158683610e9f565b9050808355866001600160a01b0316886001600160a01b03167fddf252ad1be2c89b69c2b068fc378daa952ba7f163c4a11628f55a4df523b3ef8860405161095f91815260200190565b60405180910390a35050505050505050565b600061097d84846109eb565b905060001981146109e557818110156109d85760405162461bcd60e51b815260206004820152601d60248201527f5f7370656e64416c6c6f77616e63653a20696e73756666696369656e74000000604482015260640161007d565b6109e58484848403610a01565b50505050565b6000806109f88484610b94565b54949350505050565b6001600160a01b038316610a575760405162461bcd60e51b815260206004820152601760248201527f5f617070726f76653a20696e76616c6964206f776e6572000000000000000000604482015260640161007d565b6001600160a01b038216610aad5760405162461bcd60e51b815260206004820152601960248201527f5f617070726f76653a20696e76616c6964207370656e64657200000000000000604482015260640161007d565b6000610ab98484610b94565b91909155505050565b60405163e0b490f760e01b81526001600160a01b03821660048201526000906370a0823160e01b90829081906101679063e0b490f790602401602060405180830381865afa158015610b18573d6000803e3d6000fd5b505050506040513d601f19601f82011682018060405250810190610b3c9190610ec0565b604080516001600160e01b0319808716602083015267ffffffffffffffff1986841b16602483015260e084901b16603c82015291925001604051602081830303815290604052610b8b90610e78565b95945050505050565b60405163e0b490f760e01b81526001600160a01b0383166004820152600090636eb1769f60e11b90829081906101679063e0b490f790602401602060405180830381865afa158015610bea573d6000803e3d6000fd5b505050506040513d601f19601f82011682018060405250810190610c0e9190610ec0565b60405163e0b490f760e01b81526001600160a01b03871660048201529091506000906101679063e0b490f790602401602060405180830381865afa158015610c5a573d6000803e3d6000fd5b505050506040513d601f19601f82011682018060405250810190610c7e9190610ec0565b604080516001600160e01b031980881660208301526001600160601b0319606088901b16602483015260e084811b8216603884015286901b16603c82015291925001604051602081830303815290604052610cd890610e78565b979650505050505050565b60008085851115610cf357600080fd5b83861115610d0057600080fd5b5050820193919092039150565b80356001600160e01b03198116906004841015610d3e576001600160e01b0319600485900360031b81901b82161691505b5092915050565b80356001600160601b03198116906014841015610d3e576001600160601b031960149490940360031b84901b1690921692915050565b600060208284031215610d8d57600080fd5b81356001600160a01b0381168114610da457600080fd5b9392505050565b602081526000808354818160011c90506001821680610dcb57607f821691505b602082108103610de957634e487b7160e01b84526022600452602484fd5b6020860182905260408601818015610e085760018114610e1e57610e4c565b60ff198516825283151560051b82019550610e4c565b60008981526020902060005b85811015610e4657815484820152600190910190602001610e2a565b83019650505b5093979650505050505050565b80356020831015610e7257600019602084900360031b1b165b92915050565b80516020808301519190811015610e99576000198160200360031b1b821691505b50919050565b80820180821115610e7257634e487b7160e01b600052601160045260246000fd5b600060208284031215610ed257600080fd5b815163ffffffff81168114610da457600080fdfea2646970667358221220cc83d4e07717764805a6b10eb1fd08ae6e481ad7ec7e35563c572b0d136f3b1764736f6c634300081a0033",
    "linkReferences": {}
  },
  "methodIdentifiers": {
    "getAccountId(address)": "e0b490f7"
  },
  "storageLayout": {
    "storage": [
      {
        "astId": 38998,
        "contract": "src/HtsSystemContract.sol:HtsSystemContract",
        "label": "name",
        "offset": 0,
        "slot": "0",
        "type": "t_string_storage"
      },
      {
        "astId": 39000,
        "contract": "src/HtsSystemContract.sol:HtsSystemContract",
        "label": "symbol",
        "offset": 0,
        "slot": "1",
        "type": "t_string_storage"
      },
      {
        "astId": 39002,
        "contract": "src/HtsSystemContract.sol:HtsSystemContract",
        "label": "decimals",
        "offset": 0,
        "slot": "2",
        "type": "t_uint8"
      },
      {
        "astId": 39004,
        "contract": "src/HtsSystemContract.sol:HtsSystemContract",
        "label": "totalSupply",
        "offset": 0,
        "slot": "3",
        "type": "t_uint256"
      }
    ],
    "types": {
      "t_string_storage": {
        "encoding": "bytes",
        "label": "string",
        "numberOfBytes": "32"
      },
      "t_uint256": {
        "encoding": "inplace",
        "label": "uint256",
        "numberOfBytes": "32"
      },
      "t_uint8": {
        "encoding": "inplace",
        "label": "uint8",
        "numberOfBytes": "1"
      }
    }
  },
  "id": 23
}