{
    "abi": [
        {
            "type": "fallback",
            "stateMutability": "nonpayable"
        },
        {
            "type": "function",
            "name": "_mockTokenInfo",
            "inputs": [
                {
                    "name": "token",
                    "type": "address",
                    "internalType": "address"
                }
            ],
            "outputs": [
                {
                    "name": "tokenInfo",
                    "type": "tuple",
                    "internalType": "struct IHederaTokenService.TokenInfo",
                    "components": [
                        {
                            "name": "token",
                            "type": "tuple",
                            "internalType": "struct IHederaTokenService.HederaToken",
                            "components": [
                                {
                                    "name": "name",
                                    "type": "string",
                                    "internalType": "string"
                                },
                                {
                                    "name": "symbol",
                                    "type": "string",
                                    "internalType": "string"
                                },
                                {
                                    "name": "treasury",
                                    "type": "address",
                                    "internalType": "address"
                                },
                                {
                                    "name": "memo",
                                    "type": "string",
                                    "internalType": "string"
                                },
                                {
                                    "name": "tokenSupplyType",
                                    "type": "bool",
                                    "internalType": "bool"
                                },
                                {
                                    "name": "maxSupply",
                                    "type": "int64",
                                    "internalType": "int64"
                                },
                                {
                                    "name": "freezeDefault",
                                    "type": "bool",
                                    "internalType": "bool"
                                },
                                {
                                    "name": "tokenKeys",
                                    "type": "tuple[]",
                                    "internalType": "struct IHederaTokenService.TokenKey[]",
                                    "components": [
                                        {
                                            "name": "keyType",
                                            "type": "uint256",
                                            "internalType": "uint256"
                                        },
                                        {
                                            "name": "key",
                                            "type": "tuple",
                                            "internalType": "struct IHederaTokenService.KeyValue",
                                            "components": [
                                                {
                                                    "name": "inheritAccountKey",
                                                    "type": "bool",
                                                    "internalType": "bool"
                                                },
                                                {
                                                    "name": "contractId",
                                                    "type": "address",
                                                    "internalType": "address"
                                                },
                                                {
                                                    "name": "ed25519",
                                                    "type": "bytes",
                                                    "internalType": "bytes"
                                                },
                                                {
                                                    "name": "ECDSA_secp256k1",
                                                    "type": "bytes",
                                                    "internalType": "bytes"
                                                },
                                                {
                                                    "name": "delegatableContractId",
                                                    "type": "address",
                                                    "internalType": "address"
                                                }
                                            ]
                                        }
                                    ]
                                },
                                {
                                    "name": "expiry",
                                    "type": "tuple",
                                    "internalType": "struct IHederaTokenService.Expiry",
                                    "components": [
                                        {
                                            "name": "second",
                                            "type": "int64",
                                            "internalType": "int64"
                                        },
                                        {
                                            "name": "autoRenewAccount",
                                            "type": "address",
                                            "internalType": "address"
                                        },
                                        {
                                            "name": "autoRenewPeriod",
                                            "type": "int64",
                                            "internalType": "int64"
                                        }
                                    ]
                                }
                            ]
                        },
                        {
                            "name": "totalSupply",
                            "type": "int64",
                            "internalType": "int64"
                        },
                        {
                            "name": "deleted",
                            "type": "bool",
                            "internalType": "bool"
                        },
                        {
                            "name": "defaultKycStatus",
                            "type": "bool",
                            "internalType": "bool"
                        },
                        {
                            "name": "pauseStatus",
                            "type": "bool",
                            "internalType": "bool"
                        },
                        {
                            "name": "fixedFees",
                            "type": "tuple[]",
                            "internalType": "struct IHederaTokenService.FixedFee[]",
                            "components": [
                                {
                                    "name": "amount",
                                    "type": "int64",
                                    "internalType": "int64"
                                },
                                {
                                    "name": "tokenId",
                                    "type": "address",
                                    "internalType": "address"
                                },
                                {
                                    "name": "useHbarsForPayment",
                                    "type": "bool",
                                    "internalType": "bool"
                                },
                                {
                                    "name": "useCurrentTokenForPayment",
                                    "type": "bool",
                                    "internalType": "bool"
                                },
                                {
                                    "name": "feeCollector",
                                    "type": "address",
                                    "internalType": "address"
                                }
                            ]
                        },
                        {
                            "name": "fractionalFees",
                            "type": "tuple[]",
                            "internalType": "struct IHederaTokenService.FractionalFee[]",
                            "components": [
                                {
                                    "name": "numerator",
                                    "type": "int64",
                                    "internalType": "int64"
                                },
                                {
                                    "name": "denominator",
                                    "type": "int64",
                                    "internalType": "int64"
                                },
                                {
                                    "name": "minimumAmount",
                                    "type": "int64",
                                    "internalType": "int64"
                                },
                                {
                                    "name": "maximumAmount",
                                    "type": "int64",
                                    "internalType": "int64"
                                },
                                {
                                    "name": "netOfTransfers",
                                    "type": "bool",
                                    "internalType": "bool"
                                },
                                {
                                    "name": "feeCollector",
                                    "type": "address",
                                    "internalType": "address"
                                }
                            ]
                        },
                        {
                            "name": "royaltyFees",
                            "type": "tuple[]",
                            "internalType": "struct IHederaTokenService.RoyaltyFee[]",
                            "components": [
                                {
                                    "name": "numerator",
                                    "type": "int64",
                                    "internalType": "int64"
                                },
                                {
                                    "name": "denominator",
                                    "type": "int64",
                                    "internalType": "int64"
                                },
                                {
                                    "name": "amount",
                                    "type": "int64",
                                    "internalType": "int64"
                                },
                                {
                                    "name": "tokenId",
                                    "type": "address",
                                    "internalType": "address"
                                },
                                {
                                    "name": "useHbarsForPayment",
                                    "type": "bool",
                                    "internalType": "bool"
                                },
                                {
                                    "name": "feeCollector",
                                    "type": "address",
                                    "internalType": "address"
                                }
                            ]
                        },
                        {
                            "name": "ledgerId",
                            "type": "string",
                            "internalType": "string"
                        }
                    ]
                }
            ],
            "stateMutability": "view"
        },
        {
            "type": "function",
            "name": "burnToken",
            "inputs": [
                {
                    "name": "token",
                    "type": "address",
                    "internalType": "address"
                },
                {
                    "name": "amount",
                    "type": "int64",
                    "internalType": "int64"
                },
                {
                    "name": "serialNumbers",
                    "type": "int64[]",
                    "internalType": "int64[]"
                }
            ],
            "outputs": [
                {
                    "name": "responseCode",
                    "type": "int64",
                    "internalType": "int64"
                },
                {
                    "name": "newTotalSupply",
                    "type": "int64",
                    "internalType": "int64"
                }
            ],
            "stateMutability": "nonpayable"
        },
        {
            "type": "function",
            "name": "getAccountId",
            "inputs": [
                {
                    "name": "account",
                    "type": "address",
                    "internalType": "address"
                }
            ],
            "outputs": [
                {
                    "name": "accountId",
                    "type": "uint32",
                    "internalType": "uint32"
                }
            ],
            "stateMutability": "view"
        },
        {
            "type": "function",
            "name": "mintToken",
            "inputs": [
                {
                    "name": "token",
                    "type": "address",
                    "internalType": "address"
                },
                {
                    "name": "amount",
                    "type": "int64",
                    "internalType": "int64"
                },
                {
                    "name": "metadata",
                    "type": "bytes[]",
                    "internalType": "bytes[]"
                }
            ],
            "outputs": [
                {
                    "name": "responseCode",
                    "type": "int64",
                    "internalType": "int64"
                },
                {
                    "name": "newTotalSupply",
                    "type": "int64",
                    "internalType": "int64"
                },
                {
                    "name": "serialNumbers",
                    "type": "int64[]",
                    "internalType": "int64[]"
                }
            ],
            "stateMutability": "nonpayable"
        },
        {
            "type": "event",
            "name": "Approval",
            "inputs": [
                {
                    "name": "owner",
                    "type": "address",
                    "indexed": true,
                    "internalType": "address"
                },
                {
                    "name": "spender",
                    "type": "address",
                    "indexed": true,
                    "internalType": "address"
                },
                {
                    "name": "amount",
                    "type": "uint256",
                    "indexed": false,
                    "internalType": "uint256"
                }
            ],
            "anonymous": false
        },
        {
            "type": "event",
            "name": "Associated",
            "inputs": [
                {
                    "name": "account",
                    "type": "address",
                    "indexed": true,
                    "internalType": "address"
                }
            ],
            "anonymous": false
        },
        {
            "type": "event",
            "name": "Dissociated",
            "inputs": [
                {
                    "name": "account",
                    "type": "address",
                    "indexed": true,
                    "internalType": "address"
                }
            ],
            "anonymous": false
        },
        {
            "type": "event",
            "name": "Transfer",
            "inputs": [
                {
                    "name": "from",
                    "type": "address",
                    "indexed": true,
                    "internalType": "address"
                },
                {
                    "name": "to",
                    "type": "address",
                    "indexed": true,
                    "internalType": "address"
                },
                {
                    "name": "amount",
                    "type": "uint256",
                    "indexed": false,
                    "internalType": "uint256"
                }
            ],
            "anonymous": false
        }
    ],
    "bytecode": {
        "object": "0x6080604052348015600f57600080fd5b5061290d8061001f6000396000f3fe608060405234801561001057600080fd5b506004361061004c5760003560e01c80631d17f55b14610234578063d6910d061461025d578063e0b490f71461028a578063e0f4059a146102b2575b6000366060601c8210156100a75760405162461bcd60e51b815260206004820152601d60248201527f66616c6c6261636b3a206e6f7420656e6f7567682063616c6c6461746100000060448201526064015b60405180910390fd5b60006100b660048236816116af565b6100bf916116d9565b60e01c905063618dc65e81146101175760405162461bcd60e51b815260206004820152601e60248201527f66616c6c6261636b3a20756e737570706f727465642073656c6563746f720000604482015260640161009e565b60006101276018600436846116af565b61013091611711565b60601c90503081146101c65760408051808201909152600781526603a37b5b2b71d160cd1b60208201526101c69061016d601860043660006116af565b8080601f0160208091040260200160405190810160405280939291908181526020018383808284376000920191909152505060408051808201909152600681526503a3434b99d160d51b602082015291503090506102d4565b6001600160a01b038116301461021e5760405162461bcd60e51b815260206004820152601d60248201527f66616c6c6261636b3a20746f6b656e206973206e6f742063616c6c6572000000604482015260640161009e565b610226610323565b805195506020019350505050f35b61024761024236600461175c565b6108b8565b6040516102549190611b23565b60405180910390f35b61027061026b366004611d01565b610b90565b60408051600793840b81529190920b602082015201610254565b61029d61029836600461175c565b610da7565b60405163ffffffff9091168152602001610254565b6102c56102c0366004611df2565b610e23565b60405161025493929190611f11565b61031d848484846040516024016102ee9493929190611f70565b60408051601f198184030181529190526020810180516001600160e01b0316631b55cbd160e21b179052611051565b50505050565b60606000610335601c601836846116af565b61033e916116d9565b905063f90221fd60e01b6001600160e01b031982160161037f57600060405160200161036a9190611fc3565b60405160208183030381529060405291505090565b63cec31a9960e01b6001600160e01b03198216016103ae576002546040805160ff90921660208301520161036a565b63e7e9f22360e01b6001600160e01b03198216016103db5760035460405160200161036a91815260200190565b636a2764bf60e01b6001600160e01b031982160161040557600160405160200161036a9190611fc3565b638f5f7dcf60e01b6001600160e01b03198216016104bd57603c36101561046e5760405162461bcd60e51b815260206004820152601e60248201527f62616c616e63654f663a204e6f7420656e6f7567682063616c6c646174610000604482015260640161009e565b600061047e603c602836846116af565b61048791611711565b60601c90506104958161105d565b6040516020016104a791815260200190565b6040516020818303038152906040529250505090565b6356fa634560e01b6001600160e01b031982160161059057605c3610156105265760405162461bcd60e51b815260206004820152601d60248201527f7472616e736665723a204e6f7420656e6f7567682063616c6c64617461000000604482015260640161009e565b6000610536603c602836846116af565b61053f91611711565b60601c90506000610554605c603c36846116af565b61055d91612071565b90503361056b818484611071565b6040805160016020820152015b60405160208183030381529060405294505050505090565b63dc478d2360e01b6001600160e01b031982160161068c57607c3610156105f95760405162461bcd60e51b815260206004820152601e60248201527f7472616e73666572463a204e6f7420656e6f7567682063616c6c646174610000604482015260640161009e565b6000610609603c602836846116af565b61061291611711565b60601c90506000610627605c604836846116af565b61063091611711565b60601c90506000610645607c605c36846116af565b61064e91612071565b90503361065c848284611168565b610667848484611071565b6040805160016020820152016040516020818303038152906040529550505050505090565b63114e896160e11b6001600160e01b031982160161076457605c3610156106f55760405162461bcd60e51b815260206004820152601e60248201527f616c6c6f77616e63653a204e6f7420656e6f7567682063616c6c646174610000604482015260640161009e565b6000610705603c602836846116af565b61070e91611711565b60601c90506000610723605c604836846116af565b61072c91611711565b60601c905061073b82826111dc565b60405160200161074d91815260200190565b604051602081830303815290604052935050505090565b63f6a1584d60e01b6001600160e01b031982160161087057605c3610156107cd5760405162461bcd60e51b815260206004820152601c60248201527f617070726f76653a204e6f7420656e6f7567682063616c6c6461746100000000604482015260640161009e565b60006107dd603c602836846116af565b6107e691611711565b60601c905060006107fb605c603c36846116af565b61080491612071565b9050336108128184846111f2565b826001600160a01b0316816001600160a01b03167f8c5be1e5ebec7d5bd14f71427d1e84f3dd0314c0f7b2291e5b200ac8c7c3b9258460405161085791815260200190565b60405180910390a3604080516001602082015201610578565b60405162461bcd60e51b815260206004820152601f60248201527f7265646972656374466f72546f6b656e3a206e6f7420737570706f7274656400604482015260640161009e565b61097260408051610240810182526060610120820181815261014083018290526000610160840181905261018084018390526101a084018190526101c084018190526101e0840181905261020084018390528451928301855280835260208301819052938201939093526102208201529081908152602001600060070b8152602001600015158152602001600015158152602001600015158152602001606081526020016060815260200160608152602001606081525090565b60408051610260810182526000610240820181815261012083019081528351602080820186528382526101408501919091526101608401839052845180820186528381526101808501526101a084018390526101c084018390526101e084018390528451838152908101909452919283929161020084019190610a0b565b6109f8611652565b8152602001906001900390816109f05790505b5081526040805160608082018352600080835260208084018290528385018290529485019290925293855260035460070b85840152848201819052928401839052608084018390528051838152918201905260a09092019190610aa4565b6040805160a081018252600080825260208083018290529282018190526060820181905260808201528252600019909201910181610a695790505b5081526020016000604051908082528060200260200182016040528015610b0c57816020015b6040805160c08101825260008082526020808301829052928201819052606082018190526080820181905260a08201528252600019909201910181610aca5790505b5081526020016000604051908082528060200260200182016040528015610b7457816020015b6040805160c08101825260008082526020808301829052928201819052606082018190526080820181905260a08201528252600019909201910181610b325790505b5081526040805160208181019092526000815291015292915050565b6000803061016714610bb45760405162461bcd60e51b815260040161009e90612090565b6001600160a01b038516610c0a5760405162461bcd60e51b815260206004820152601860248201527f6275726e546f6b656e3a20696e76616c696420746f6b656e0000000000000000604482015260640161009e565b60008460070b13610c5d5760405162461bcd60e51b815260206004820152601960248201527f6275726e546f6b656e3a20696e76616c696420616d6f756e7400000000000000604482015260640161009e565b604051631d17f55b60e01b81526001600160a01b03861660048201526000903090631d17f55b90602401600060405180830381865afa158015610ca4573d6000803e3d6000fd5b505050506040513d6000823e601f3d908101601f19168201604052610ccc91908101906126ca565b8051604001519091506001600160a01b038116610d2b5760405162461bcd60e51b815260206004820152601a60248201527f6275726e546f6b656e3a20696e76616c6964206163636f756e74000000000000604482015260640161009e565b610d40816000886001600160401b03166112b3565b60169350600354925060008360070b1215610d9d5760405162461bcd60e51b815260206004820152601f60248201527f6275726e546f6b656e3a20696e76616c696420746f74616c20737570706c7900604482015260640161009e565b5050935093915050565b60003061016714610dca5760405162461bcd60e51b815260040161009e90612090565b6040805163e0b490f760e01b602082018190526000602483018190526001600160601b0319606087901b16602c84015290929091829101604051602081830303815290604052610e199061282c565b5495945050505050565b60008060603061016714610e495760405162461bcd60e51b815260040161009e90612090565b6001600160a01b038616610e9f5760405162461bcd60e51b815260206004820152601860248201527f6d696e74546f6b656e3a20696e76616c696420746f6b656e0000000000000000604482015260640161009e565b60008560070b13610ef25760405162461bcd60e51b815260206004820152601960248201527f6d696e74546f6b656e3a20696e76616c696420616d6f756e7400000000000000604482015260640161009e565b604051631d17f55b60e01b81526001600160a01b03871660048201526000903090631d17f55b90602401600060405180830381865afa158015610f39573d6000803e3d6000fd5b505050506040513d6000823e601f3d908101601f19168201604052610f6191908101906126ca565b8051604001519091506001600160a01b038116610fc05760405162461bcd60e51b815260206004820152601a60248201527f6d696e74546f6b656e3a20696e76616c6964206163636f756e74000000000000604482015260640161009e565b610fd5600082896001600160401b03166112b3565b600354604080516000808252602082019092526016975091955050925060008460070b12156110465760405162461bcd60e51b815260206004820152601f60248201527f6d696e74546f6b656e3a20696e76616c696420746f74616c20737570706c7900604482015260640161009e565b505093509350939050565b61105a816113c7565b50565b600080611069836113e8565b549392505050565b6001600160a01b0383166110bd5760405162461bcd60e51b8152602060048201526013602482015272343a399d1034b73b30b634b21039b2b73232b960691b604482015260640161009e565b6001600160a01b03821661110b5760405162461bcd60e51b8152602060048201526015602482015274343a399d1034b73b30b634b2103932b1b2b4bb32b960591b604482015260640161009e565b6111168383836112b3565b816001600160a01b0316836001600160a01b03167fddf252ad1be2c89b69c2b068fc378daa952ba7f163c4a11628f55a4df523b3ef8360405161115b91815260200190565b60405180910390a3505050565b600061117484846111dc565b9050600019811461031d57818110156111cf5760405162461bcd60e51b815260206004820152601d60248201527f5f7370656e64416c6c6f77616e63653a20696e73756666696369656e74000000604482015260640161009e565b61031d84848484036111f2565b6000806111e984846114ba565b54949350505050565b6001600160a01b0383166112485760405162461bcd60e51b815260206004820152601760248201527f5f617070726f76653a20696e76616c6964206f776e6572000000000000000000604482015260640161009e565b6001600160a01b03821661129e5760405162461bcd60e51b815260206004820152601960248201527f5f617070726f76653a20696e76616c6964207370656e64657200000000000000604482015260640161009e565b60006112aa84846114ba565b91909155505050565b6001600160a01b0383166112de5780600360008282546112d39190612869565b909155506113449050565b60006112e9846113e8565b80549091508281101561133e5760405162461bcd60e51b815260206004820152601f60248201527f5f7472616e736665723a20696e73756666696369656e742062616c616e636500604482015260640161009e565b82900390555b6001600160a01b03821661136f578060036000828254611364919061287c565b909155506113c29050565b600061137a836113e8565b8054909150600061138b8483612869565b90508083556113be6040518060400160405280600c81526020016b03a37903130b630b731b29d160a51b81525082611609565b5050505b505050565b80516a636f6e736f6c652e6c6f67602083016000808483855afa5050505050565b60405163e0b490f760e01b81526001600160a01b03821660048201526000906370a0823160e01b90829081906101679063e0b490f790602401602060405180830381865afa15801561143e573d6000803e3d6000fd5b505050506040513d601f19601f82011682018060405250810190611462919061288f565b604080516001600160e01b0319808716602083015267ffffffffffffffff1986841b16602483015260e084901b16603c820152919250016040516020818303038152906040526114b19061282c565b95945050505050565b60405163e0b490f760e01b81526001600160a01b0383166004820152600090636eb1769f60e11b90829081906101679063e0b490f790602401602060405180830381865afa158015611510573d6000803e3d6000fd5b505050506040513d601f19601f82011682018060405250810190611534919061288f565b60405163e0b490f760e01b81526001600160a01b03871660048201529091506000906101679063e0b490f790602401602060405180830381865afa158015611580573d6000803e3d6000fd5b505050506040513d601f19601f820116820180604052508101906115a4919061288f565b604080516001600160e01b031980881660208301526001600160601b0319606088901b16602483015260e084811b8216603884015286901b16603c820152919250016040516020818303038152906040526115fe9061282c565b979650505050505050565b61164e828260405160240161161f9291906128b5565b60408051601f198184030181529190526020810180516001600160e01b03166309710a9d60e41b179052611051565b5050565b6040518060400160405280600081526020016116aa6040518060a0016040528060001515815260200160006001600160a01b03168152602001606081526020016060815260200160006001600160a01b031681525090565b905290565b600080858511156116bf57600080fd5b838611156116cc57600080fd5b5050820193919092039150565b80356001600160e01b0319811690600484101561170a576001600160e01b0319600485900360031b81901b82161691505b5092915050565b80356001600160601b0319811690601484101561170a576001600160601b031960149490940360031b84901b1690921692915050565b6001600160a01b038116811461105a57600080fd5b60006020828403121561176e57600080fd5b813561177981611747565b9392505050565b60005b8381101561179b578181015183820152602001611783565b50506000910152565b600081518084526117bc816020860160208601611780565b601f01601f19169290920160200192915050565b600082825180855260208501945060208160051b8301016020850160005b8381101561189357848303601f1901885281518051845260209081015160408286018190528151151581870152918101516001600160a01b031660608601529081015160a0608086015261184560e08601826117a4565b90506060820151603f198683030160a087015261186282826117a4565b608093909301516001600160a01b031660c096909601959095525060209889019890935091909101906001016117ee565b50909695505050505050565b6000815161016084526118b66101608501826117a4565b9050602083015184820360208601526118cf82826117a4565b91505060408301516118ec60408601826001600160a01b03169052565b506060830151848203606086015261190482826117a4565b915050608083015161191a608086018215159052565b5060a083015161192f60a086018260070b9052565b5060c083015161194360c086018215159052565b5060e083015184820360e086015261195b82826117d0565b9150506101008301516119966101008601828051600790810b83526020808301516001600160a01b031690840152604091820151900b910152565b509392505050565b600081518084526020840193506020830160005b82811015611a10578151805160070b87526020808201516001600160a01b03908116828a01526040808401511515908a01526060808401511515908a0152608092830151169188019190915260a090960195909101906001016119b2565b5093949350505050565b600081518084526020840193506020830160005b82811015611a10578151805160070b8752602081015160070b6020880152604081015160070b6040880152606081015160070b606088015260808101511515608088015260018060a01b0360a08201511660a08801525060c086019550602082019150600181019050611a2e565b600081518084526020840193506020830160005b82811015611a10578151805160070b8752602081015160070b6020880152604081015160070b604088015260018060a01b03606082015116606088015260808101511515608088015260018060a01b0360a08201511660a08801525060c086019550602082019150600181019050611ab0565b60208152600082516101206020840152611b4161014084018261189f565b90506020840151611b57604085018260070b9052565b5060408401518015156060850152506060840151801515608085015250608084015180151560a08501525060a0840151838203601f190160c0850152611b9d828261199e565b91505060c0840151601f198483030160e0850152611bbb8282611a1a565b91505060e0840151601f1984830301610100850152611bda8282611a9c565b915050610100840151601f19848303016101208501526114b182826117a4565b8060070b811461105a57600080fd5b634e487b7160e01b600052604160045260246000fd5b604080519081016001600160401b0381118282101715611c4157611c41611c09565b60405290565b60405160a081016001600160401b0381118282101715611c4157611c41611c09565b60405161012081016001600160401b0381118282101715611c4157611c41611c09565b60405160c081016001600160401b0381118282101715611c4157611c41611c09565b604051601f8201601f191681016001600160401b0381118282101715611cd657611cd6611c09565b604052919050565b60006001600160401b03821115611cf757611cf7611c09565b5060051b60200190565b600080600060608486031215611d1657600080fd5b8335611d2181611747565b92506020840135611d3181611bfa565b915060408401356001600160401b03811115611d4c57600080fd5b8401601f81018613611d5d57600080fd5b8035611d70611d6b82611cde565b611cae565b8082825260208201915060208360051b850101925088831115611d9257600080fd5b6020840193505b82841015611dbd578335611dac81611bfa565b825260209384019390910190611d99565b809450505050509250925092565b60006001600160401b03821115611de457611de4611c09565b50601f01601f191660200190565b600080600060608486031215611e0757600080fd5b8335611e1281611747565b92506020840135611e2281611bfa565b915060408401356001600160401b03811115611e3d57600080fd5b8401601f81018613611e4e57600080fd5b8035611e5c611d6b82611cde565b8082825260208201915060208360051b850101925088831115611e7e57600080fd5b602084015b83811015611f025780356001600160401b03811115611ea157600080fd5b8501603f81018b13611eb257600080fd5b6020810135611ec3611d6b82611dcb565b8181526040838301018d1015611ed857600080fd5b81604084016020830137600060208383010152808652505050602083019250602081019050611e83565b50809450505050509250925092565b6000606082018560070b83528460070b60208401526060604084015280845180835260808501915060208601925060005b81811015611f6357835160070b835260209384019390920191600101611f42565b5090979650505050505050565b608081526000611f8360808301876117a4565b8281036020840152611f9581876117a4565b90508281036040840152611fa981866117a4565b91505060018060a01b038316606083015295945050505050565b602081526000808354818160011c90506001821680611fe357607f821691505b60208210810361200157634e487b7160e01b84526022600452602484fd5b6020860182905260408601818015612020576001811461203657612064565b60ff198516825283151560051b82019550612064565b60008981526020902060005b8581101561205e57815484820152600190910190602001612042565b83019650505b5093979650505050505050565b8035602083101561208a57600019602084900360031b1b165b92915050565b60208082526017908201527f68747343616c6c3a2064656c6567617465642063616c6c000000000000000000604082015260600190565b600082601f8301126120d857600080fd5b81516020830160006120ec611d6b84611dcb565b905082815285838301111561210057600080fd5b6114b1836020830184611780565b805161211981611747565b919050565b8051801515811461211957600080fd5b805161211981611bfa565b600082601f83011261214a57600080fd5b8151612158611d6b82611cde565b8082825260208201915060208360051b86010192508583111561217a57600080fd5b602085015b8381101561229d5780516001600160401b0381111561219d57600080fd5b86016040818903601f190112156121b357600080fd5b6121bb611c1f565b6020820151815260408201516001600160401b038111156121db57600080fd5b60208184010192505060a0828a0312156121f457600080fd5b6121fc611c47565b6122058361211e565b8152602083015161221581611747565b602082015260408301516001600160401b0381111561223357600080fd5b61223f8b8286016120c7565b60408301525060608301516001600160401b0381111561225e57600080fd5b61226a8b8286016120c7565b6060830152506080830151925061228083611747565b60808101929092526020818101929092528452928301920161217f565b5095945050505050565b6000606082840312156122b957600080fd5b604051606081016001600160401b03811182821017156122db576122db611c09565b806040525080915082516122ee81611bfa565b815260208301516122fe81611747565b6020820152604083015161231181611bfa565b6040919091015292915050565b6000610160828403121561233157600080fd5b612339611c69565b905081516001600160401b0381111561235157600080fd5b61235d848285016120c7565b82525060208201516001600160401b0381111561237957600080fd5b612385848285016120c7565b6020830152506123976040830161210e565b604082015260608201516001600160401b038111156123b557600080fd5b6123c1848285016120c7565b6060830152506123d36080830161211e565b60808201526123e460a0830161212e565b60a08201526123f560c0830161211e565b60c082015260e08201516001600160401b0381111561241357600080fd5b61241f84828501612139565b60e0830152506124338361010084016122a7565b61010082015292915050565b600082601f83011261245057600080fd5b815161245e611d6b82611cde565b80828252602082019150602060a0840286010192508583111561248057600080fd5b602085015b8381101561229d5760a0818803121561249d57600080fd5b6124a5611c47565b81516124b081611bfa565b815260208201516124c081611747565b60208201526124d16040830161211e565b60408201526124e26060830161211e565b606082015260808201516124f581611747565b6080820152835260209092019160a001612485565b600082601f83011261251b57600080fd5b8151612529611d6b82611cde565b80828252602082019150602060c0840286010192508583111561254b57600080fd5b602085015b8381101561229d5760c0818803121561256857600080fd5b612570611c8c565b815161257b81611bfa565b8152602082015161258b81611bfa565b6020820152604082015161259e81611bfa565b604082015260608201516125b181611bfa565b60608201526125c26080830161211e565b608082015260a08201516125d581611747565b60a0820152835260209092019160c001612550565b600082601f8301126125fb57600080fd5b8151612609611d6b82611cde565b80828252602082019150602060c0840286010192508583111561262b57600080fd5b602085015b8381101561229d5760c0818803121561264857600080fd5b612650611c8c565b815161265b81611bfa565b8152602082015161266b81611bfa565b6020820152604082015161267e81611bfa565b6040820152606082015161269181611747565b60608201526126a26080830161211e565b608082015260a08201516126b581611747565b60a0820152835260209092019160c001612630565b6000602082840312156126dc57600080fd5b81516001600160401b038111156126f257600080fd5b8201610120818503121561270557600080fd5b61270d611c69565b81516001600160401b0381111561272357600080fd5b61272f8682850161231e565b82525061273e6020830161212e565b602082015261274f6040830161211e565b60408201526127606060830161211e565b60608201526127716080830161211e565b608082015260a08201516001600160401b0381111561278f57600080fd5b61279b8682850161243f565b60a08301525060c08201516001600160401b038111156127ba57600080fd5b6127c68682850161250a565b60c08301525060e08201516001600160401b038111156127e557600080fd5b6127f1868285016125ea565b60e0830152506101008201516001600160401b0381111561281157600080fd5b61281d868285016120c7565b61010083015250949350505050565b8051602080830151919081101561284d576000198160200360031b1b821691505b50919050565b634e487b7160e01b600052601160045260246000fd5b8082018082111561208a5761208a612853565b8181038181111561208a5761208a612853565b6000602082840312156128a157600080fd5b815163ffffffff8116811461177957600080fd5b6040815260006128c860408301856117a4565b9050826020830152939250505056fea2646970667358221220d3b0ff038d0ca2569b8aaf24d4af5dbe73e625dd3de44cfb0cdce0ecf230e7cd64736f6c634300081c0033",
        "linkReferences": {}
    },
    "methodIdentifiers": {
        "_mockTokenInfo(address)": "1d17f55b",
        "burnToken(address,int64,int64[])": "d6910d06",
        "getAccountId(address)": "e0b490f7",
        "mintToken(address,int64,bytes[])": "e0f4059a"
    },
    "storageLayout": {
        "storage": [
            {
                "astId": 39004,
                "contract": "src/HtsSystemContract.sol:HtsSystemContract",
                "label": "name",
                "offset": 0,
                "slot": "0",
                "type": "t_string_storage"
            },
            {
                "astId": 39006,
                "contract": "src/HtsSystemContract.sol:HtsSystemContract",
                "label": "symbol",
                "offset": 0,
                "slot": "1",
                "type": "t_string_storage"
            },
            {
                "astId": 39008,
                "contract": "src/HtsSystemContract.sol:HtsSystemContract",
                "label": "decimals",
                "offset": 0,
                "slot": "2",
                "type": "t_uint8"
            },
            {
                "astId": 39010,
                "contract": "src/HtsSystemContract.sol:HtsSystemContract",
                "label": "totalSupply",
                "offset": 0,
                "slot": "3",
                "type": "t_uint256"
            }
        ],
        "types": {
            "t_string_storage": {
                "encoding": "bytes",
                "label": "string",
                "numberOfBytes": "32"
            },
            "t_uint256": {
                "encoding": "inplace",
                "label": "uint256",
                "numberOfBytes": "32"
            },
            "t_uint8": {
                "encoding": "inplace",
                "label": "uint8",
                "numberOfBytes": "1"
            }
        }
    },
    "id": 23
}