{
  "abi": [
    {
      "type": "fallback",
      "stateMutability": "nonpayable"
    },
    {
      "type": "function",
      "name": "allowance",
      "inputs": [
        {
          "name": "owner",
          "type": "address",
          "internalType": "address"
        },
        {
          "name": "spender",
          "type": "address",
          "internalType": "address"
        }
      ],
      "outputs": [
        {
          "name": "",
          "type": "uint256",
          "internalType": "uint256"
        }
      ],
      "stateMutability": "view"
    },
    {
      "type": "function",
      "name": "allowancesAmounts",
      "inputs": [
        {
          "name": "",
          "type": "uint256",
          "internalType": "uint256"
        }
      ],
      "outputs": [
        {
          "name": "",
          "type": "uint256",
          "internalType": "uint256"
        }
      ],
      "stateMutability": "view"
    },
    {
      "type": "function",
      "name": "allowancesOwners",
      "inputs": [
        {
          "name": "",
          "type": "uint256",
          "internalType": "uint256"
        }
      ],
      "outputs": [
        {
          "name": "",
          "type": "address",
          "internalType": "address"
        }
      ],
      "stateMutability": "view"
    },
    {
      "type": "function",
      "name": "allowancesSpenders",
      "inputs": [
        {
          "name": "",
          "type": "uint256",
          "internalType": "uint256"
        }
      ],
      "outputs": [
        {
          "name": "",
          "type": "address",
          "internalType": "address"
        }
      ],
      "stateMutability": "view"
    },
    {
      "type": "function",
      "name": "approve",
      "inputs": [
        {
          "name": "spender",
          "type": "address",
          "internalType": "address"
        },
        {
          "name": "amount",
          "type": "uint256",
          "internalType": "uint256"
        }
      ],
      "outputs": [
        {
          "name": "",
          "type": "bool",
          "internalType": "bool"
        }
      ],
      "stateMutability": "nonpayable"
    },
    {
      "type": "function",
      "name": "associate",
      "inputs": [],
      "outputs": [],
      "stateMutability": "nonpayable"
    },
    {
      "type": "function",
      "name": "associatedAccounts",
      "inputs": [
        {
          "name": "",
          "type": "uint256",
          "internalType": "uint256"
        }
      ],
      "outputs": [
        {
          "name": "",
          "type": "address",
          "internalType": "address"
        }
      ],
      "stateMutability": "view"
    },
    {
      "type": "function",
      "name": "balanceOf",
      "inputs": [
        {
          "name": "account",
          "type": "address",
          "internalType": "address"
        }
      ],
      "outputs": [
        {
          "name": "",
          "type": "uint256",
          "internalType": "uint256"
        }
      ],
      "stateMutability": "view"
    },
    {
      "type": "function",
      "name": "balances",
      "inputs": [
        {
          "name": "",
          "type": "uint256",
          "internalType": "uint256"
        }
      ],
      "outputs": [
        {
          "name": "",
          "type": "uint256",
          "internalType": "uint256"
        }
      ],
      "stateMutability": "view"
    },
    {
      "type": "function",
      "name": "decimals",
      "inputs": [],
      "outputs": [
        {
          "name": "",
          "type": "uint8",
          "internalType": "uint8"
        }
      ],
      "stateMutability": "view"
    },
    {
      "type": "function",
      "name": "dissociate",
      "inputs": [],
      "outputs": [],
      "stateMutability": "nonpayable"
    },
    {
      "type": "function",
      "name": "holders",
      "inputs": [
        {
          "name": "",
          "type": "uint256",
          "internalType": "uint256"
        }
      ],
      "outputs": [
        {
          "name": "",
          "type": "address",
          "internalType": "address"
        }
      ],
      "stateMutability": "view"
    },
    {
      "type": "function",
      "name": "isAssociated",
      "inputs": [
        {
          "name": "account",
          "type": "address",
          "internalType": "address"
        }
      ],
      "outputs": [
        {
          "name": "",
          "type": "bool",
          "internalType": "bool"
        }
      ],
      "stateMutability": "view"
    },
    {
      "type": "function",
      "name": "name",
      "inputs": [],
      "outputs": [
        {
          "name": "",
          "type": "string",
          "internalType": "string"
        }
      ],
      "stateMutability": "view"
    },
    {
      "type": "function",
      "name": "symbol",
      "inputs": [],
      "outputs": [
        {
          "name": "",
          "type": "string",
          "internalType": "string"
        }
      ],
      "stateMutability": "view"
    },
    {
      "type": "function",
      "name": "totalSupply",
      "inputs": [],
      "outputs": [
        {
          "name": "",
          "type": "uint256",
          "internalType": "uint256"
        }
      ],
      "stateMutability": "view"
    },
    {
      "type": "function",
      "name": "transfer",
      "inputs": [
        {
          "name": "recipient",
          "type": "address",
          "internalType": "address"
        },
        {
          "name": "amount",
          "type": "uint256",
          "internalType": "uint256"
        }
      ],
      "outputs": [
        {
          "name": "",
          "type": "bool",
          "internalType": "bool"
        }
      ],
      "stateMutability": "nonpayable"
    },
    {
      "type": "function",
      "name": "transferFrom",
      "inputs": [
        {
          "name": "sender",
          "type": "address",
          "internalType": "address"
        },
        {
          "name": "recipient",
          "type": "address",
          "internalType": "address"
        },
        {
          "name": "amount",
          "type": "uint256",
          "internalType": "uint256"
        }
      ],
      "outputs": [
        {
          "name": "",
          "type": "bool",
          "internalType": "bool"
        }
      ],
      "stateMutability": "nonpayable"
    },
    {
      "type": "event",
      "name": "Approval",
      "inputs": [
        {
          "name": "owner",
          "type": "address",
          "indexed": true,
          "internalType": "address"
        },
        {
          "name": "spender",
          "type": "address",
          "indexed": true,
          "internalType": "address"
        },
        {
          "name": "value",
          "type": "uint256",
          "indexed": false,
          "internalType": "uint256"
        }
      ],
      "anonymous": false
    },
    {
      "type": "event",
      "name": "Associated",
      "inputs": [
        {
          "name": "account",
          "type": "address",
          "indexed": true,
          "internalType": "address"
        }
      ],
      "anonymous": false
    },
    {
      "type": "event",
      "name": "Dissociated",
      "inputs": [
        {
          "name": "account",
          "type": "address",
          "indexed": true,
          "internalType": "address"
        }
      ],
      "anonymous": false
    },
    {
      "type": "event",
      "name": "Transfer",
      "inputs": [
        {
          "name": "from",
          "type": "address",
          "indexed": true,
          "internalType": "address"
        },
        {
          "name": "to",
          "type": "address",
          "indexed": true,
          "internalType": "address"
        },
        {
          "name": "value",
          "type": "uint256",
          "indexed": false,
          "internalType": "uint256"
        }
      ],
      "anonymous": false
    }
  ],
  "bytecode": {
    "object": "0x6080604052348015600f57600080fd5b506115788061001f6000396000f3fe608060405234801561001057600080fd5b50600436106101165760003560e01c80634903b0d1116100a257806395d89b411161007157806395d89b411461032a578063a32cfadf14610332578063a9059cbb14610345578063d55fe58214610358578063dd62ed3e1461036b57610116565b80634903b0d1146102e95780635c9217e0146102fc57806370a082311461030457806381f646331461031757610116565b806318160ddd116100e957806318160ddd1461027a57806323b872dd146102915780632a11ced0146102a4578063313ce567146102b75780633e9bf494146102d657610116565b806306fdde0314610204578063095ea7b3146102225780630a754de6146102455780631316589a1461024f575b6000366060826101296004828581611211565b6101329161123b565b60e01c90506000610147601860043684611211565b61015091611273565b60601c905060006101643660188184611211565b8080601f016020809104026020016040519081016040528093929190818152602001838380828437600092019190915250929350505063618dc65e84900390506101bc576101b2828261037e565b93505050506101f9565b60405162461bcd60e51b815260206004820152600d60248201526c139bdd081cdd5c1c1bdc9d1959609a1b60448201526064015b60405180910390fd5b915050805190602001f35b61020c610676565b60405161021991906112b3565b60405180910390f35b61023561023036600461131d565b610704565b6040519015158152602001610219565b61024d61085e565b005b61026261025d366004611347565b610917565b6040516001600160a01b039091168152602001610219565b61028360035481565b604051908152602001610219565b61023561029f366004611360565b610941565b6102626102b2366004611347565b610c6a565b6002546102c49060ff1681565b60405160ff9091168152602001610219565b6102626102e4366004611347565b610c7a565b6102836102f7366004611347565b610c8a565b61024d610cab565b61028361031236600461139d565b610e4b565b610283610325366004611347565b610ec7565b61020c610ed7565b610262610340366004611347565b610ee4565b61023561035336600461131d565b610ef4565b61023561036636600461139d565b6110e3565b6102836103793660046113bf565b6110fb565b60606000610390601c60183684611211565b6103999161123b565b905063f90221fd60e01b6001600160e01b03198216016103dc5760006040516020016103c5919061142c565b604051602081830303815290604052915050610670565b63cec31a9960e01b6001600160e01b031982160161040b576002546040805160ff9092166020830152016103c5565b63e7e9f22360e01b6001600160e01b0319821601610438576003546040516020016103c591815260200190565b636a2764bf60e01b6001600160e01b03198216016104625760016040516020016103c5919061142c565b638f5f7dcf60e01b6001600160e01b03198216016104cb57600061048a603c60283684611211565b61049391611273565b60601c90506104a181610e4b565b6040516020016104b391815260200190565b60405160208183030381529060405292505050610670565b6356fa634560e01b6001600160e01b03198216016105505760006104f3603c60283684611211565b6104fc91611273565b60601c90506000610511605c603c3684611211565b81019061051e9190611347565b905061052a8282610ef4565b604080519115156020830152016040516020818303038152906040529350505050610670565b63f6a1584d60e01b6001600160e01b03198216016105af576000610578603c60283684611211565b61058191611273565b60601c90506000610596605c603c3684611211565b8101906105a39190611347565b905061052a8282610704565b63114e896160e11b6001600160e01b031982160161060d5760006105d7603c60283684611211565b6105e091611273565b60601c905060006105f56050603c3684611211565b6105fe91611273565b60601c905061052a8282610704565b6315500d3f60e11b6001600160e01b031982160161065e576000610635603c60283684611211565b61063e91611273565b60601c905061064c816110e3565b604080519115156020830152016104b3565b50506040805160208101909152600081525b92915050565b60008054610683906113f2565b80601f01602080910402602001604051908101604052809291908181526020018280546106af906113f2565b80156106fc5780601f106106d1576101008083540402835291602001916106fc565b820191906000526020600020905b8154815290600101906020018083116106df57829003601f168201915b505050505081565b6000806107123360066111b4565b905060006107218560076111b4565b9050600019821415801561073757506000198114155b15610761578360088381548110610750576107506114da565b600091825260209091200155610812565b6006805460018082019092557ff652222313e28459528d920b65115c16c04f3efc82aaedc97be59f3f377c0d3f018054336001600160a01b031991821617909155600780548084019091557fa66cc928b5edb82af9bd49922954155ab7b0942694bea4ce44661d9a8736c6880180549091166001600160a01b0388161790556008805491820181556000527ff3f7a9fe364faab93b216da50a3214154f22a0a2b415b23a84c8169e8b636ee3018490555b6040518481526001600160a01b0386169033907f8c5be1e5ebec7d5bd14f71427d1e84f3dd0314c0f7b2291e5b200ac8c7c3b925906020015b60405180910390a3506001949350505050565b610867336110e3565b156108a95760405162461bcd60e51b8152602060048201526012602482015271105b1c9958591e48185cdcdbd8da585d195960721b60448201526064016101f0565b6009805460018101825560009182527f6e1540171b6c0c960b71a7020d9f60077f6af931a8bbf590da0223dacf75c7af0180546001600160a01b0319163390811790915560405190917fda6345b38edaa845627162ea9f0d5b76b9cbfc7f140a8629708200f4640cffa791a2565b6006818154811061092757600080fd5b6000918252602090912001546001600160a01b0316905081565b60008061094f8560046111b4565b9050600061095e3360076111b4565b905060001982036109a45760405162461bcd60e51b815260206004820152601060248201526f14d95b99195c881b9bdd08199bdd5b9960821b60448201526064016101f0565b856001600160a01b0316600682815481106109c1576109c16114da565b6000918252602090912001546001600160a01b031614610a1b5760405162461bcd60e51b815260206004820152601560248201527414d95b99195c881b9bdd08185d5d1a1bdc9a5e9959605a1b60448201526064016101f0565b8360058381548110610a2f57610a2f6114da565b90600052602060002001541015610a7f5760405162461bcd60e51b8152602060048201526014602482015273496e73756666696369656e742062616c616e636560601b60448201526064016101f0565b8360088281548110610a9357610a936114da565b90600052602060002001541015610ae15760405162461bcd60e51b8152602060048201526012602482015271105b1b1bddd85b98d948195e18d95959195960721b60448201526064016101f0565b8360058381548110610af557610af56114da565b906000526020600020016000828254610b0e9190611506565b925050819055508360088281548110610b2957610b296114da565b906000526020600020016000828254610b429190611506565b9091555060009050610b558660046111b4565b90506000198103610bdd576004805460018082019092557f8a35acfbc15ff81a39ae7d344fd709f28e8600b4aa8c65c6b64bfe7fe36bd19b0180546001600160a01b0319166001600160a01b0389161790556005805491820181556000527f036b6384b5eca791c62761152d0c79bb0604c104a5fb6f4eb0703f3154bb3db001859055610c10565b8460058281548110610bf157610bf16114da565b906000526020600020016000828254610c0a9190611519565b90915550505b856001600160a01b0316876001600160a01b03167fddf252ad1be2c89b69c2b068fc378daa952ba7f163c4a11628f55a4df523b3ef87604051610c5591815260200190565b60405180910390a35060019695505050505050565b6004818154811061092757600080fd5b6009818154811061092757600080fd5b60058181548110610c9a57600080fd5b600091825260209091200154905081565b610cb4336110e3565b610cf15760405162461bcd60e51b815260206004820152600e60248201526d139bdd08185cdcdbd8da585d195960921b60448201526064016101f0565b610cfa33610e4b565b15610d575760405162461bcd60e51b815260206004820152602760248201527f43616e6e6f7420646973736f63696174652077697468206e6f6e2d7a65726f2060448201526662616c616e636560c81b60648201526084016101f0565b6000610d643360096111b4565b90506000198114610e1d5760098054610d7f90600190611506565b81548110610d8f57610d8f6114da565b600091825260209091200154600980546001600160a01b039092169183908110610dbb57610dbb6114da565b9060005260206000200160006101000a8154816001600160a01b0302191690836001600160a01b031602179055506009805480610dfa57610dfa61152c565b600082815260209020810160001990810180546001600160a01b03191690550190555b60405133907fa4cb7525a89db51eeba2c222d0023bdf55a07d3e2d2f12e33a35c5d1a94f339e90600090a250565b6000805b600454811015610ebe57826001600160a01b031660048281548110610e7657610e766114da565b6000918252602090912001546001600160a01b031603610eb65760058181548110610ea357610ea36114da565b9060005260206000200154915050919050565b600101610e4f565b50600092915050565b60088181548110610c9a57600080fd5b60018054610683906113f2565b6007818154811061092757600080fd5b600080610f023360046111b4565b90506000198103610f485760405162461bcd60e51b815260206004820152601060248201526f14d95b99195c881b9bdd08199bdd5b9960821b60448201526064016101f0565b8260058281548110610f5c57610f5c6114da565b90600052602060002001541015610fac5760405162461bcd60e51b8152602060048201526014602482015273496e73756666696369656e742062616c616e636560601b60448201526064016101f0565b6000610fb98560066111b4565b90506000198103611041576004805460018082019092557f8a35acfbc15ff81a39ae7d344fd709f28e8600b4aa8c65c6b64bfe7fe36bd19b0180546001600160a01b0319166001600160a01b0388161790556005805491820181556000527f036b6384b5eca791c62761152d0c79bb0604c104a5fb6f4eb0703f3154bb3db001849055611074565b8360058281548110611055576110556114da565b90600052602060002001600082825461106e9190611519565b90915550505b8360058381548110611088576110886114da565b9060005260206000200160008282546110a19190611506565b90915550506040518481526001600160a01b0386169033907fddf252ad1be2c89b69c2b068fc378daa952ba7f163c4a11628f55a4df523b3ef9060200161084b565b60006000196110f38360096111b4565b141592915050565b6000805b6006548110156111aa57836001600160a01b031660068281548110611126576111266114da565b6000918252602090912001546001600160a01b03161480156111775750826001600160a01b031660078281548110611160576111606114da565b6000918252602090912001546001600160a01b0316145b156111a2576008818154811061118f5761118f6114da565b9060005260206000200154915050610670565b6001016110ff565b5060009392505050565b6000805b825481101561120657836001600160a01b03168382815481106111dd576111dd6114da565b6000918252602090912001546001600160a01b0316036111fe579050610670565b6001016111b8565b506000199392505050565b6000808585111561122157600080fd5b8386111561122e57600080fd5b5050820193919092039150565b80356001600160e01b0319811690600484101561126c576001600160e01b0319600485900360031b81901b82161691505b5092915050565b80356bffffffffffffffffffffffff19811690601484101561126c576bffffffffffffffffffffffff1960149490940360031b84901b1690921692915050565b602081526000825180602084015260005b818110156112e157602081860181015160408684010152016112c4565b506000604082850101526040601f19601f83011684010191505092915050565b80356001600160a01b038116811461131857600080fd5b919050565b6000806040838503121561133057600080fd5b61133983611301565b946020939093013593505050565b60006020828403121561135957600080fd5b5035919050565b60008060006060848603121561137557600080fd5b61137e84611301565b925061138c60208501611301565b929592945050506040919091013590565b6000602082840312156113af57600080fd5b6113b882611301565b9392505050565b600080604083850312156113d257600080fd5b6113db83611301565b91506113e960208401611301565b90509250929050565b600181811c9082168061140657607f821691505b60208210810361142657634e487b7160e01b600052602260045260246000fd5b50919050565b602081526000808354818160011c9050600182168061144c57607f821691505b60208210810361146a57634e487b7160e01b84526022600452602484fd5b6020860182905260408601818015611489576001811461149f576114cd565b60ff198516825283151560051b820195506114cd565b60008981526020902060005b858110156114c7578154848201526001909101906020016114ab565b83019650505b5093979650505050505050565b634e487b7160e01b600052603260045260246000fd5b634e487b7160e01b600052601160045260246000fd5b81810381811115610670576106706114f0565b80820180821115610670576106706114f0565b634e487b7160e01b600052603160045260246000fdfea26469706673582212209bf5ed513a6d09236b92b8be44a82a0933565004c0c1c585deb11caa615f10d664736f6c634300081a0033",
    "linkReferences": {}
  },
  "methodIdentifiers": {
    "allowance(address,address)": "dd62ed3e",
    "allowancesAmounts(uint256)": "81f64633",
    "allowancesOwners(uint256)": "1316589a",
    "allowancesSpenders(uint256)": "a32cfadf",
    "approve(address,uint256)": "095ea7b3",
    "associate()": "0a754de6",
    "associatedAccounts(uint256)": "3e9bf494",
    "balanceOf(address)": "70a08231",
    "balances(uint256)": "4903b0d1",
    "decimals()": "313ce567",
    "dissociate()": "5c9217e0",
    "holders(uint256)": "2a11ced0",
    "isAssociated(address)": "d55fe582",
    "name()": "06fdde03",
    "symbol()": "95d89b41",
    "totalSupply()": "18160ddd",
    "transfer(address,uint256)": "a9059cbb",
    "transferFrom(address,address,uint256)": "23b872dd"
  },
  "storageLayout": {
    "storage": [
      {
        "astId": 38991,
        "contract": "src/HtsSystemContract.sol:HtsSystemContract",
        "label": "name",
        "offset": 0,
        "slot": "0",
        "type": "t_string_storage"
      },
      {
        "astId": 38993,
        "contract": "src/HtsSystemContract.sol:HtsSystemContract",
        "label": "symbol",
        "offset": 0,
        "slot": "1",
        "type": "t_string_storage"
      },
      {
        "astId": 38996,
        "contract": "src/HtsSystemContract.sol:HtsSystemContract",
        "label": "decimals",
        "offset": 0,
        "slot": "2",
        "type": "t_uint8"
      },
      {
        "astId": 38999,
        "contract": "src/HtsSystemContract.sol:HtsSystemContract",
        "label": "totalSupply",
        "offset": 0,
        "slot": "3",
        "type": "t_uint256"
      },
      {
        "astId": 39002,
        "contract": "src/HtsSystemContract.sol:HtsSystemContract",
        "label": "holders",
        "offset": 0,
        "slot": "4",
        "type": "t_array(t_address)dyn_storage"
      },
      {
        "astId": 39005,
        "contract": "src/HtsSystemContract.sol:HtsSystemContract",
        "label": "balances",
        "offset": 0,
        "slot": "5",
        "type": "t_array(t_uint256)dyn_storage"
      },
      {
        "astId": 39008,
        "contract": "src/HtsSystemContract.sol:HtsSystemContract",
        "label": "allowancesOwners",
        "offset": 0,
        "slot": "6",
        "type": "t_array(t_address)dyn_storage"
      },
      {
        "astId": 39011,
        "contract": "src/HtsSystemContract.sol:HtsSystemContract",
        "label": "allowancesSpenders",
        "offset": 0,
        "slot": "7",
        "type": "t_array(t_address)dyn_storage"
      },
      {
        "astId": 39014,
        "contract": "src/HtsSystemContract.sol:HtsSystemContract",
        "label": "allowancesAmounts",
        "offset": 0,
        "slot": "8",
        "type": "t_array(t_uint256)dyn_storage"
      },
      {
        "astId": 39017,
        "contract": "src/HtsSystemContract.sol:HtsSystemContract",
        "label": "associatedAccounts",
        "offset": 0,
        "slot": "9",
        "type": "t_array(t_address)dyn_storage"
      }
    ],
    "types": {
      "t_address": {
        "encoding": "inplace",
        "label": "address",
        "numberOfBytes": "20"
      },
      "t_array(t_address)dyn_storage": {
        "encoding": "dynamic_array",
        "label": "address[]",
        "numberOfBytes": "32",
        "base": "t_address"
      },
      "t_array(t_uint256)dyn_storage": {
        "encoding": "dynamic_array",
        "label": "uint256[]",
        "numberOfBytes": "32",
        "base": "t_uint256"
      },
      "t_string_storage": {
        "encoding": "bytes",
        "label": "string",
        "numberOfBytes": "32"
      },
      "t_uint256": {
        "encoding": "inplace",
        "label": "uint256",
        "numberOfBytes": "32"
      },
      "t_uint8": {
        "encoding": "inplace",
        "label": "uint8",
        "numberOfBytes": "1"
      }
    }
  },
  "id": 23
}