{
  "abi": [
    {
      "type": "fallback",
      "stateMutability": "nonpayable"
    },
    {
      "type": "function",
      "name": "decimals",
      "inputs": [],
      "outputs": [
        {
          "name": "",
          "type": "uint8",
          "internalType": "uint8"
        }
      ],
      "stateMutability": "view"
    },
    {
      "type": "function",
      "name": "getAccountId",
      "inputs": [
        {
          "name": "account",
          "type": "address",
          "internalType": "address"
        }
      ],
      "outputs": [
        {
          "name": "accountId",
          "type": "uint32",
          "internalType": "uint32"
        }
      ],
      "stateMutability": "view"
    },
    {
      "type": "function",
      "name": "name",
      "inputs": [],
      "outputs": [
        {
          "name": "",
          "type": "string",
          "internalType": "string"
        }
      ],
      "stateMutability": "view"
    },
    {
      "type": "function",
      "name": "symbol",
      "inputs": [],
      "outputs": [
        {
          "name": "",
          "type": "string",
          "internalType": "string"
        }
      ],
      "stateMutability": "view"
    },
    {
      "type": "function",
      "name": "totalSupply",
      "inputs": [],
      "outputs": [
        {
          "name": "",
          "type": "uint256",
          "internalType": "uint256"
        }
      ],
      "stateMutability": "view"
    },
    {
      "type": "event",
      "name": "Approval",
      "inputs": [
        {
          "name": "owner",
          "type": "address",
          "indexed": true,
          "internalType": "address"
        },
        {
          "name": "spender",
          "type": "address",
          "indexed": true,
          "internalType": "address"
        },
        {
          "name": "amount",
          "type": "uint256",
          "indexed": false,
          "internalType": "uint256"
        }
      ],
      "anonymous": false
    },
    {
      "type": "event",
      "name": "Associated",
      "inputs": [
        {
          "name": "account",
          "type": "address",
          "indexed": true,
          "internalType": "address"
        }
      ],
      "anonymous": false
    },
    {
      "type": "event",
      "name": "Dissociated",
      "inputs": [
        {
          "name": "account",
          "type": "address",
          "indexed": true,
          "internalType": "address"
        }
      ],
      "anonymous": false
    },
    {
      "type": "event",
      "name": "Transfer",
      "inputs": [
        {
          "name": "from",
          "type": "address",
          "indexed": true,
          "internalType": "address"
        },
        {
          "name": "to",
          "type": "address",
          "indexed": true,
          "internalType": "address"
        },
        {
          "name": "amount",
          "type": "uint256",
          "indexed": false,
          "internalType": "uint256"
        }
      ],
      "anonymous": false
    }
  ],
  "bytecode": {
    "object": "0x60808060405234601557610c00908161001b8239f35b600080fdfe60806040526004361015610122575b3461009d57601c36106100e7573660041161009d5763618dc65d1960003560e01c016100a2573660181161009d573060043560601c03610058576100506104ac565b602081519101f35b60405162461bcd60e51b815260206004820152601c60248201527f43616c6c6461746120746f6b656e206973206e6f742063616c6c6572000000006044820152606490fd5b600080fd5b60405162461bcd60e51b815260206004820152601f60248201527f46616c6c6261636b2073656c6563746f72206e6f7420737570706f72746564006044820152606490fd5b60405162461bcd60e51b81526020600482015260136024820152724e6f7420656e6f7567682063616c6c6461746160681b6044820152606490fd5b60003560e01c806306fdde031461034657806318160ddd14610328578063313ce5671461030757806395d89b41146102275763e0b490f70361000e573461009d57602036600319011261009d576004356001600160a01b038116810361009d5761016730036101e2576101d36020916040519063e0b490f760e01b84830152600060248301526bffffffffffffffffffffffff199060601b16602c8201528281526101ce604082610408565b610489565b5463ffffffff60405191168152f35b60405162461bcd60e51b815260206004820152601760248201527f68747343616c6c3a2064656c6567617465642063616c6c0000000000000000006044820152606490fd5b3461009d57600036600319011261009d576040516001546000908161024b826103ce565b80855291600181169081156102e05750600114610283575b61027f8461027381860382610408565b60405191829182610440565b0390f35b600181527fb10e2d527612073b26eecdfd717e6a320cf44b4afac2b0732d9fcbe2b7fa0cf6939250905b8082106102c65750909150810160200161027382610263565b9192600181602092548385880101520191019092916102ad565b60ff191660208087019190915292151560051b850190920192506102739150839050610263565b3461009d57600036600319011261009d57602060ff60025416604051908152f35b3461009d57600036600319011261009d576020600354604051908152f35b3461009d57600036600319011261009d576040516000805481610368826103ce565b80855291600181169081156102e0575060011461038f5761027f8461027381860382610408565b80805260208120939250905b8082106103b45750909150810160200161027382610263565b91926001816020925483858801015201910190929161039b565b90600182811c921680156103fe575b60208310146103e857565b634e487b7160e01b600052602260045260246000fd5b91607f16916103dd565b90601f8019910116810190811067ffffffffffffffff82111761042a57604052565b634e487b7160e01b600052604160045260246000fd5b91909160208152825180602083015260005b818110610473575060409293506000838284010152601f8019910116010190565b8060208092870101516040828601015201610452565b60208151910151906020811061049d575090565b6000199060200360031b1b1690565b606036601c1161009d576018356001600160e01b0319166306fdde0360e01b8103610588575050604051600060208083015281818254926104ec846103ce565b938460408501526001811690816000146105625750600114610520575b5061051d925003601f198101835282610408565b90565b80809394925052602082205b818310610548575050906040602061051d938301010138610509565b80548386016060015284935060209092019160010161052c565b604093506020925061051d95915060ff19166060850152151560051b8301010138610509565b63313ce56760e01b81036105b657505060ff600254166040519060208201526020815261051d604082610408565b6318160ddd60e01b81036105e15750506003546040519060208201526020815261051d604082610408565b6395d89b4160e01b81036106bc575050604051602080820152600154816000610609836103ce565b9283604084015260018116908160001461069a5750600114610639575b61051d925003601f198101835282610408565b506001600090815290917fb10e2d527612073b26eecdfd717e6a320cf44b4afac2b0732d9fcbe2b7fa0cf65b818310610680575050906040602061051d9383010101610626565b805483860160600152849350602090920191600101610665565b60ff191660608481019190915261051d94151560051b84010191506106269050565b6370a0823160e01b8103610748575050603c36106107035736603c1161009d576106ea60283560601c610b37565b546040519060208201526020815261051d604082610408565b60405162461bcd60e51b815260206004820152601e60248201527f62616c616e63654f663a204e6f7420656e6f7567682063616c6c6461746100006044820152606490fd5b63a9059cbb60e01b81036107e2575050605c361061079d5736603c1161009d5760283536605c1161009d5761078490603c359060601c33610a16565b604051600160208201526020815261051d604082610408565b60405162461bcd60e51b815260206004820152601d60248201527f7472616e736665723a204e6f7420656e6f7567682063616c6c646174610000006044820152606490fd5b6323b872dd60e01b8103610872575050607c361061082d5736603c1161009d5760283536605c1161009d5760483536607c1161009d5761078491605c3591606090811c91901c610a16565b60405162461bcd60e51b815260206004820152601e60248201527f7472616e73666572463a204e6f7420656e6f7567682063616c6c6461746100006044820152606490fd5b636eb1769f60e11b146108c45760405162461bcd60e51b815260206004820152601f60248201527f7265646972656374466f72546f6b656e3a206e6f7420737570706f72746564006044820152606490fd5b36603c1161009d5760283536605c1161009d5760405163e0b490f760e01b815290821c6001600160a01b03166004820152604835916020826024816101675afa9182156109cd576000926109d9575b5060405163e0b490f760e01b815292901c6001600160a01b031660048301526020826024816101675afa9081156109cd576106ea9260009261099c575b5060405191636eb1769f60e11b60208401526000602484015263ffffffff60e01b9060e01b16603883015263ffffffff60e01b9060e01b16603c820152602081526101ce604082610408565b6109bf91925060203d6020116109c6575b6109b78183610408565b8101906109fa565b9038610950565b503d6109ad565b6040513d6000823e3d90fd5b6109f391925060203d6020116109c6576109b78183610408565b9038610913565b9081602091031261009d575163ffffffff8116810361009d5790565b6001600160a01b03811615610afc576001600160a01b03821615610abf57610a3d90610b37565b90815491838310610a7a5783610a5593039055610b37565b8054918201809211610a645755565b634e487b7160e01b600052601160045260246000fd5b60405162461bcd60e51b815260206004820152601960248201527f6874733a20696e73756666696369656e742062616c616e6365000000000000006044820152606490fd5b60405162461bcd60e51b8152602060048201526015602482015274343a399d1034b73b30b634b2103932b1b2b4bb32b960591b6044820152606490fd5b60405162461bcd60e51b8152602060048201526013602482015272343a399d1034b73b30b634b21039b2b73232b960691b6044820152606490fd5b60405163e0b490f760e01b81526001600160a01b0390911660048201526020816024816101675afa80156109cd5761051d91600091610bab575b50604051906370a0823160e01b60208301526000602483015263ffffffff60e01b9060e01b16603c820152602081526101ce604082610408565b610bc4915060203d6020116109c6576109b78183610408565b38610b7156fea2646970667358221220d497280b74adb191982de85da39879c7c4e7815880dafb8e663fa1a293e7a04c64736f6c634300081a0033",
    "linkReferences": {}
  },
  "methodIdentifiers": {
    "decimals()": "313ce567",
    "getAccountId(address)": "e0b490f7",
    "name()": "06fdde03",
    "symbol()": "95d89b41",
    "totalSupply()": "18160ddd"
  },
  "storageLayout": {
    "storage": [
      {
        "astId": 38995,
        "contract": "src/HtsSystemContract.sol:HtsSystemContract",
        "label": "name",
        "offset": 0,
        "slot": "0",
        "type": "t_string_storage"
      },
      {
        "astId": 38997,
        "contract": "src/HtsSystemContract.sol:HtsSystemContract",
        "label": "symbol",
        "offset": 0,
        "slot": "1",
        "type": "t_string_storage"
      },
      {
        "astId": 38999,
        "contract": "src/HtsSystemContract.sol:HtsSystemContract",
        "label": "decimals",
        "offset": 0,
        "slot": "2",
        "type": "t_uint8"
      },
      {
        "astId": 39001,
        "contract": "src/HtsSystemContract.sol:HtsSystemContract",
        "label": "totalSupply",
        "offset": 0,
        "slot": "3",
        "type": "t_uint256"
      }
    ],
    "types": {
      "t_string_storage": {
        "encoding": "bytes",
        "label": "string",
        "numberOfBytes": "32"
      },
      "t_uint256": {
        "encoding": "inplace",
        "label": "uint256",
        "numberOfBytes": "32"
      },
      "t_uint8": {
        "encoding": "inplace",
        "label": "uint8",
        "numberOfBytes": "1"
      }
    }
  },
  "id": 23
}