{
    "abi": [
        {
            "type": "fallback",
            "stateMutability": "nonpayable"
        },
        {
            "type": "function",
            "name": "_mockTokenInfo",
            "inputs": [
                {
                    "name": "token",
                    "type": "address",
                    "internalType": "address"
                }
            ],
            "outputs": [
                {
                    "name": "tokenInfo",
                    "type": "tuple",
                    "internalType": "struct IHederaTokenService.TokenInfo",
                    "components": [
                        {
                            "name": "token",
                            "type": "tuple",
                            "internalType": "struct IHederaTokenService.HederaToken",
                            "components": [
                                {
                                    "name": "name",
                                    "type": "string",
                                    "internalType": "string"
                                },
                                {
                                    "name": "symbol",
                                    "type": "string",
                                    "internalType": "string"
                                },
                                {
                                    "name": "treasury",
                                    "type": "address",
                                    "internalType": "address"
                                },
                                {
                                    "name": "memo",
                                    "type": "string",
                                    "internalType": "string"
                                },
                                {
                                    "name": "tokenSupplyType",
                                    "type": "bool",
                                    "internalType": "bool"
                                },
                                {
                                    "name": "maxSupply",
                                    "type": "int64",
                                    "internalType": "int64"
                                },
                                {
                                    "name": "freezeDefault",
                                    "type": "bool",
                                    "internalType": "bool"
                                },
                                {
                                    "name": "tokenKeys",
                                    "type": "tuple[]",
                                    "internalType": "struct IHederaTokenService.TokenKey[]",
                                    "components": [
                                        {
                                            "name": "keyType",
                                            "type": "uint256",
                                            "internalType": "uint256"
                                        },
                                        {
                                            "name": "key",
                                            "type": "tuple",
                                            "internalType": "struct IHederaTokenService.KeyValue",
                                            "components": [
                                                {
                                                    "name": "inheritAccountKey",
                                                    "type": "bool",
                                                    "internalType": "bool"
                                                },
                                                {
                                                    "name": "contractId",
                                                    "type": "address",
                                                    "internalType": "address"
                                                },
                                                {
                                                    "name": "ed25519",
                                                    "type": "bytes",
                                                    "internalType": "bytes"
                                                },
                                                {
                                                    "name": "ECDSA_secp256k1",
                                                    "type": "bytes",
                                                    "internalType": "bytes"
                                                },
                                                {
                                                    "name": "delegatableContractId",
                                                    "type": "address",
                                                    "internalType": "address"
                                                }
                                            ]
                                        }
                                    ]
                                },
                                {
                                    "name": "expiry",
                                    "type": "tuple",
                                    "internalType": "struct IHederaTokenService.Expiry",
                                    "components": [
                                        {
                                            "name": "second",
                                            "type": "int64",
                                            "internalType": "int64"
                                        },
                                        {
                                            "name": "autoRenewAccount",
                                            "type": "address",
                                            "internalType": "address"
                                        },
                                        {
                                            "name": "autoRenewPeriod",
                                            "type": "int64",
                                            "internalType": "int64"
                                        }
                                    ]
                                }
                            ]
                        },
                        {
                            "name": "totalSupply",
                            "type": "int64",
                            "internalType": "int64"
                        },
                        {
                            "name": "deleted",
                            "type": "bool",
                            "internalType": "bool"
                        },
                        {
                            "name": "defaultKycStatus",
                            "type": "bool",
                            "internalType": "bool"
                        },
                        {
                            "name": "pauseStatus",
                            "type": "bool",
                            "internalType": "bool"
                        },
                        {
                            "name": "fixedFees",
                            "type": "tuple[]",
                            "internalType": "struct IHederaTokenService.FixedFee[]",
                            "components": [
                                {
                                    "name": "amount",
                                    "type": "int64",
                                    "internalType": "int64"
                                },
                                {
                                    "name": "tokenId",
                                    "type": "address",
                                    "internalType": "address"
                                },
                                {
                                    "name": "useHbarsForPayment",
                                    "type": "bool",
                                    "internalType": "bool"
                                },
                                {
                                    "name": "useCurrentTokenForPayment",
                                    "type": "bool",
                                    "internalType": "bool"
                                },
                                {
                                    "name": "feeCollector",
                                    "type": "address",
                                    "internalType": "address"
                                }
                            ]
                        },
                        {
                            "name": "fractionalFees",
                            "type": "tuple[]",
                            "internalType": "struct IHederaTokenService.FractionalFee[]",
                            "components": [
                                {
                                    "name": "numerator",
                                    "type": "int64",
                                    "internalType": "int64"
                                },
                                {
                                    "name": "denominator",
                                    "type": "int64",
                                    "internalType": "int64"
                                },
                                {
                                    "name": "minimumAmount",
                                    "type": "int64",
                                    "internalType": "int64"
                                },
                                {
                                    "name": "maximumAmount",
                                    "type": "int64",
                                    "internalType": "int64"
                                },
                                {
                                    "name": "netOfTransfers",
                                    "type": "bool",
                                    "internalType": "bool"
                                },
                                {
                                    "name": "feeCollector",
                                    "type": "address",
                                    "internalType": "address"
                                }
                            ]
                        },
                        {
                            "name": "royaltyFees",
                            "type": "tuple[]",
                            "internalType": "struct IHederaTokenService.RoyaltyFee[]",
                            "components": [
                                {
                                    "name": "numerator",
                                    "type": "int64",
                                    "internalType": "int64"
                                },
                                {
                                    "name": "denominator",
                                    "type": "int64",
                                    "internalType": "int64"
                                },
                                {
                                    "name": "amount",
                                    "type": "int64",
                                    "internalType": "int64"
                                },
                                {
                                    "name": "tokenId",
                                    "type": "address",
                                    "internalType": "address"
                                },
                                {
                                    "name": "useHbarsForPayment",
                                    "type": "bool",
                                    "internalType": "bool"
                                },
                                {
                                    "name": "feeCollector",
                                    "type": "address",
                                    "internalType": "address"
                                }
                            ]
                        },
                        {
                            "name": "ledgerId",
                            "type": "string",
                            "internalType": "string"
                        }
                    ]
                }
            ],
            "stateMutability": "view"
        },
        {
            "type": "function",
            "name": "burnToken",
            "inputs": [
                {
                    "name": "token",
                    "type": "address",
                    "internalType": "address"
                },
                {
                    "name": "amount",
                    "type": "int64",
                    "internalType": "int64"
                },
                {
                    "name": "serialNumbers",
                    "type": "int64[]",
                    "internalType": "int64[]"
                }
            ],
            "outputs": [
                {
                    "name": "responseCode",
                    "type": "int64",
                    "internalType": "int64"
                },
                {
                    "name": "newTotalSupply",
                    "type": "int64",
                    "internalType": "int64"
                }
            ],
            "stateMutability": "nonpayable"
        },
        {
            "type": "function",
            "name": "getAccountId",
            "inputs": [
                {
                    "name": "account",
                    "type": "address",
                    "internalType": "address"
                }
            ],
            "outputs": [
                {
                    "name": "accountId",
                    "type": "uint32",
                    "internalType": "uint32"
                }
            ],
            "stateMutability": "view"
        },
        {
            "type": "function",
            "name": "getTokenInfo",
            "inputs": [
                {
                    "name": "token",
                    "type": "address",
                    "internalType": "address"
                }
            ],
            "outputs": [
                {
                    "name": "responseCode",
                    "type": "int64",
                    "internalType": "int64"
                },
                {
                    "name": "tokenInfo",
                    "type": "tuple",
                    "internalType": "struct IHederaTokenService.TokenInfo",
                    "components": [
                        {
                            "name": "token",
                            "type": "tuple",
                            "internalType": "struct IHederaTokenService.HederaToken",
                            "components": [
                                {
                                    "name": "name",
                                    "type": "string",
                                    "internalType": "string"
                                },
                                {
                                    "name": "symbol",
                                    "type": "string",
                                    "internalType": "string"
                                },
                                {
                                    "name": "treasury",
                                    "type": "address",
                                    "internalType": "address"
                                },
                                {
                                    "name": "memo",
                                    "type": "string",
                                    "internalType": "string"
                                },
                                {
                                    "name": "tokenSupplyType",
                                    "type": "bool",
                                    "internalType": "bool"
                                },
                                {
                                    "name": "maxSupply",
                                    "type": "int64",
                                    "internalType": "int64"
                                },
                                {
                                    "name": "freezeDefault",
                                    "type": "bool",
                                    "internalType": "bool"
                                },
                                {
                                    "name": "tokenKeys",
                                    "type": "tuple[]",
                                    "internalType": "struct IHederaTokenService.TokenKey[]",
                                    "components": [
                                        {
                                            "name": "keyType",
                                            "type": "uint256",
                                            "internalType": "uint256"
                                        },
                                        {
                                            "name": "key",
                                            "type": "tuple",
                                            "internalType": "struct IHederaTokenService.KeyValue",
                                            "components": [
                                                {
                                                    "name": "inheritAccountKey",
                                                    "type": "bool",
                                                    "internalType": "bool"
                                                },
                                                {
                                                    "name": "contractId",
                                                    "type": "address",
                                                    "internalType": "address"
                                                },
                                                {
                                                    "name": "ed25519",
                                                    "type": "bytes",
                                                    "internalType": "bytes"
                                                },
                                                {
                                                    "name": "ECDSA_secp256k1",
                                                    "type": "bytes",
                                                    "internalType": "bytes"
                                                },
                                                {
                                                    "name": "delegatableContractId",
                                                    "type": "address",
                                                    "internalType": "address"
                                                }
                                            ]
                                        }
                                    ]
                                },
                                {
                                    "name": "expiry",
                                    "type": "tuple",
                                    "internalType": "struct IHederaTokenService.Expiry",
                                    "components": [
                                        {
                                            "name": "second",
                                            "type": "int64",
                                            "internalType": "int64"
                                        },
                                        {
                                            "name": "autoRenewAccount",
                                            "type": "address",
                                            "internalType": "address"
                                        },
                                        {
                                            "name": "autoRenewPeriod",
                                            "type": "int64",
                                            "internalType": "int64"
                                        }
                                    ]
                                }
                            ]
                        },
                        {
                            "name": "totalSupply",
                            "type": "int64",
                            "internalType": "int64"
                        },
                        {
                            "name": "deleted",
                            "type": "bool",
                            "internalType": "bool"
                        },
                        {
                            "name": "defaultKycStatus",
                            "type": "bool",
                            "internalType": "bool"
                        },
                        {
                            "name": "pauseStatus",
                            "type": "bool",
                            "internalType": "bool"
                        },
                        {
                            "name": "fixedFees",
                            "type": "tuple[]",
                            "internalType": "struct IHederaTokenService.FixedFee[]",
                            "components": [
                                {
                                    "name": "amount",
                                    "type": "int64",
                                    "internalType": "int64"
                                },
                                {
                                    "name": "tokenId",
                                    "type": "address",
                                    "internalType": "address"
                                },
                                {
                                    "name": "useHbarsForPayment",
                                    "type": "bool",
                                    "internalType": "bool"
                                },
                                {
                                    "name": "useCurrentTokenForPayment",
                                    "type": "bool",
                                    "internalType": "bool"
                                },
                                {
                                    "name": "feeCollector",
                                    "type": "address",
                                    "internalType": "address"
                                }
                            ]
                        },
                        {
                            "name": "fractionalFees",
                            "type": "tuple[]",
                            "internalType": "struct IHederaTokenService.FractionalFee[]",
                            "components": [
                                {
                                    "name": "numerator",
                                    "type": "int64",
                                    "internalType": "int64"
                                },
                                {
                                    "name": "denominator",
                                    "type": "int64",
                                    "internalType": "int64"
                                },
                                {
                                    "name": "minimumAmount",
                                    "type": "int64",
                                    "internalType": "int64"
                                },
                                {
                                    "name": "maximumAmount",
                                    "type": "int64",
                                    "internalType": "int64"
                                },
                                {
                                    "name": "netOfTransfers",
                                    "type": "bool",
                                    "internalType": "bool"
                                },
                                {
                                    "name": "feeCollector",
                                    "type": "address",
                                    "internalType": "address"
                                }
                            ]
                        },
                        {
                            "name": "royaltyFees",
                            "type": "tuple[]",
                            "internalType": "struct IHederaTokenService.RoyaltyFee[]",
                            "components": [
                                {
                                    "name": "numerator",
                                    "type": "int64",
                                    "internalType": "int64"
                                },
                                {
                                    "name": "denominator",
                                    "type": "int64",
                                    "internalType": "int64"
                                },
                                {
                                    "name": "amount",
                                    "type": "int64",
                                    "internalType": "int64"
                                },
                                {
                                    "name": "tokenId",
                                    "type": "address",
                                    "internalType": "address"
                                },
                                {
                                    "name": "useHbarsForPayment",
                                    "type": "bool",
                                    "internalType": "bool"
                                },
                                {
                                    "name": "feeCollector",
                                    "type": "address",
                                    "internalType": "address"
                                }
                            ]
                        },
                        {
                            "name": "ledgerId",
                            "type": "string",
                            "internalType": "string"
                        }
                    ]
                }
            ],
            "stateMutability": "view"
        },
        {
            "type": "function",
            "name": "mintToken",
            "inputs": [
                {
                    "name": "token",
                    "type": "address",
                    "internalType": "address"
                },
                {
                    "name": "amount",
                    "type": "int64",
                    "internalType": "int64"
                },
                {
                    "name": "metadata",
                    "type": "bytes[]",
                    "internalType": "bytes[]"
                }
            ],
            "outputs": [
                {
                    "name": "responseCode",
                    "type": "int64",
                    "internalType": "int64"
                },
                {
                    "name": "newTotalSupply",
                    "type": "int64",
                    "internalType": "int64"
                },
                {
                    "name": "serialNumbers",
                    "type": "int64[]",
                    "internalType": "int64[]"
                }
            ],
            "stateMutability": "nonpayable"
        },
        {
            "type": "event",
            "name": "Approval",
            "inputs": [
                {
                    "name": "owner",
                    "type": "address",
                    "indexed": true,
                    "internalType": "address"
                },
                {
                    "name": "spender",
                    "type": "address",
                    "indexed": true,
                    "internalType": "address"
                },
                {
                    "name": "amount",
                    "type": "uint256",
                    "indexed": false,
                    "internalType": "uint256"
                }
            ],
            "anonymous": false
        },
        {
            "type": "event",
            "name": "Associated",
            "inputs": [
                {
                    "name": "account",
                    "type": "address",
                    "indexed": true,
                    "internalType": "address"
                }
            ],
            "anonymous": false
        },
        {
            "type": "event",
            "name": "Dissociated",
            "inputs": [
                {
                    "name": "account",
                    "type": "address",
                    "indexed": true,
                    "internalType": "address"
                }
            ],
            "anonymous": false
        },
        {
            "type": "event",
            "name": "Transfer",
            "inputs": [
                {
                    "name": "from",
                    "type": "address",
                    "indexed": true,
                    "internalType": "address"
                },
                {
                    "name": "to",
                    "type": "address",
                    "indexed": true,
                    "internalType": "address"
                },
                {
                    "name": "amount",
                    "type": "uint256",
                    "indexed": false,
                    "internalType": "uint256"
                }
            ],
            "anonymous": false
        }
    ],
    "bytecode": {
        "object": "0x6080604052348015600f57600080fd5b50611eb18061001f6000396000f3fe608060405234801561001057600080fd5b50600436106100575760003560e01c80631d17f55b146101a55780631f69565f146101ce578063d6910d06146101ef578063e0b490f71461021c578063e0f4059a14610244575b6000366060601c8210156100b25760405162461bcd60e51b815260206004820152601d60248201527f66616c6c6261636b3a206e6f7420656e6f7567682063616c6c6461746100000060448201526064015b60405180910390fd5b60006100c1600482368161149a565b6100ca916114c4565b60e01c905063618dc65e81146101225760405162461bcd60e51b815260206004820152601e60248201527f66616c6c6261636b3a20756e737570706f727465642073656c6563746f72000060448201526064016100a9565b600061013260186004368461149a565b61013b916114fc565b60601c905030811461018f5760405162461bcd60e51b815260206004820152601d60248201527f66616c6c6261636b3a20746f6b656e206973206e6f742063616c6c657200000060448201526064016100a9565b610197610266565b805195506020019350505050f35b6101b86101b336600461154e565b6107fb565b6040516101c591906119da565b60405180910390f35b6101e16101dc36600461154e565b610a21565b6040516101c59291906119ed565b6102026101fd366004611a8e565b610a3f565b60408051600793840b81529190920b6020820152016101c5565b61022f61022a36600461154e565b610b46565b60405163ffffffff90911681526020016101c5565b610257610252366004611b53565b610bc2565b6040516101c593929190611c8f565b60606000610278601c6018368461149a565b610281916114c4565b905063f90221fd60e01b6001600160e01b03198216016102c25760006040516020016102ad9190611cee565b60405160208183030381529060405291505090565b63cec31a9960e01b6001600160e01b03198216016102f1576002546040805160ff9092166020830152016102ad565b63e7e9f22360e01b6001600160e01b031982160161031e576003546040516020016102ad91815260200190565b636a2764bf60e01b6001600160e01b03198216016103485760016040516020016102ad9190611cee565b638f5f7dcf60e01b6001600160e01b031982160161040057603c3610156103b15760405162461bcd60e51b815260206004820152601e60248201527f62616c616e63654f663a204e6f7420656e6f7567682063616c6c64617461000060448201526064016100a9565b60006103c1603c6028368461149a565b6103ca916114fc565b60601c90506103d881610cdc565b6040516020016103ea91815260200190565b6040516020818303038152906040529250505090565b6356fa634560e01b6001600160e01b03198216016104d357605c3610156104695760405162461bcd60e51b815260206004820152601d60248201527f7472616e736665723a204e6f7420656e6f7567682063616c6c6461746100000060448201526064016100a9565b6000610479603c6028368461149a565b610482916114fc565b60601c90506000610497605c603c368461149a565b6104a091611d9c565b9050336104ae818484610cf0565b6040805160016020820152015b60405160208183030381529060405294505050505090565b63dc478d2360e01b6001600160e01b03198216016105cf57607c36101561053c5760405162461bcd60e51b815260206004820152601e60248201527f7472616e73666572463a204e6f7420656e6f7567682063616c6c64617461000060448201526064016100a9565b600061054c603c6028368461149a565b610555916114fc565b60601c9050600061056a605c6048368461149a565b610573916114fc565b60601c90506000610588607c605c368461149a565b61059191611d9c565b90503361059f848284610d9a565b6105aa848484610cf0565b6040805160016020820152016040516020818303038152906040529550505050505090565b63114e896160e11b6001600160e01b03198216016106a757605c3610156106385760405162461bcd60e51b815260206004820152601e60248201527f616c6c6f77616e63653a204e6f7420656e6f7567682063616c6c64617461000060448201526064016100a9565b6000610648603c6028368461149a565b610651916114fc565b60601c90506000610666605c6048368461149a565b61066f916114fc565b60601c905061067e8282610e14565b60405160200161069091815260200190565b604051602081830303815290604052935050505090565b63f6a1584d60e01b6001600160e01b03198216016107b357605c3610156107105760405162461bcd60e51b815260206004820152601c60248201527f617070726f76653a204e6f7420656e6f7567682063616c6c646174610000000060448201526064016100a9565b6000610720603c6028368461149a565b610729916114fc565b60601c9050600061073e605c603c368461149a565b61074791611d9c565b905033610755818484610e2a565b826001600160a01b0316816001600160a01b03167f8c5be1e5ebec7d5bd14f71427d1e84f3dd0314c0f7b2291e5b200ac8c7c3b9258460405161079a91815260200190565b60405180910390a36040805160016020820152016104bb565b60405162461bcd60e51b815260206004820152601f60248201527f7265646972656374466f72546f6b656e3a206e6f7420737570706f727465640060448201526064016100a9565b610803611386565b60408051610260810182526000610240820181815261012083019081528351602080820186528382526101408501919091526101608401839052845180820186528381526101808501526101a084018390526101c084018390526101e08401839052845183815290810190945291928392916102008401919061089c565b61088961143d565b8152602001906001900390816108815790505b5081526040805160608082018352600080835260208084018290528385018290529485019290925293855260035460070b85840152848201819052928401839052608084018390528051838152918201905260a09092019190610935565b6040805160a0810182526000808252602080830182905292820181905260608201819052608082015282526000199092019101816108fa5790505b508152602001600060405190808252806020026020018201604052801561099d57816020015b6040805160c08101825260008082526020808301829052928201819052606082018190526080820181905260a0820152825260001990920191018161095b5790505b5081526020016000604051908082528060200260200182016040528015610a0557816020015b6040805160c08101825260008082526020808301829052928201819052606082018190526080820181905260a082015282526000199092019101816109c35790505b5081526040805160208181019092526000815291015292915050565b6000610a2b611386565b60169150610a38836107fb565b9050915091565b6000803061016714610a635760405162461bcd60e51b81526004016100a990611dbb565b6001600160a01b038516610ab95760405162461bcd60e51b815260206004820152601860248201527f6275726e546f6b656e3a20696e76616c696420746f6b656e000000000000000060448201526064016100a9565b60008460070b13610b0c5760405162461bcd60e51b815260206004820152601960248201527f6275726e546f6b656e3a20696e76616c696420616d6f756e740000000000000060448201526064016100a9565b6000610b17866107fb565b9050610b358160000151604001518667ffffffffffffffff16610eeb565b505060035460169590945092505050565b60003061016714610b695760405162461bcd60e51b81526004016100a990611dbb565b6040805163e0b490f760e01b602082018190526000602483018190526001600160601b0319606087901b16602c84015290929091829101604051602081830303815290604052610bb890611df2565b5495945050505050565b60008060603061016714610be85760405162461bcd60e51b81526004016100a990611dbb565b6001600160a01b038616610c3e5760405162461bcd60e51b815260206004820152601860248201527f6d696e74546f6b656e3a20696e76616c696420746f6b656e000000000000000060448201526064016100a9565b60008560070b13610c915760405162461bcd60e51b815260206004820152601960248201527f6d696e74546f6b656e3a20696e76616c696420616d6f756e740000000000000060448201526064016100a9565b6000610c9c876107fb565b9050610cba8160000151604001518767ffffffffffffffff16610f92565b5050600354604080516000815260208101909152601697919650945092505050565b600080610ce883611035565b549392505050565b6001600160a01b038316610d3c5760405162461bcd60e51b8152602060048201526013602482015272343a399d1034b73b30b634b21039b2b73232b960691b60448201526064016100a9565b6001600160a01b038216610d8a5760405162461bcd60e51b8152602060048201526015602482015274343a399d1034b73b30b634b2103932b1b2b4bb32b960591b60448201526064016100a9565b610d95838383611107565b505050565b6000610da68484610e14565b90506000198114610e0e5781811015610e015760405162461bcd60e51b815260206004820152601d60248201527f5f7370656e64416c6c6f77616e63653a20696e73756666696369656e7400000060448201526064016100a9565b610e0e8484848403610e2a565b50505050565b600080610e218484611237565b54949350505050565b6001600160a01b038316610e805760405162461bcd60e51b815260206004820152601760248201527f5f617070726f76653a20696e76616c6964206f776e657200000000000000000060448201526064016100a9565b6001600160a01b038216610ed65760405162461bcd60e51b815260206004820152601960248201527f5f617070726f76653a20696e76616c6964207370656e6465720000000000000060448201526064016100a9565b6000610ee28484611237565b91909155505050565b6001600160a01b038216610f3a5760405162461bcd60e51b815260206004820152601660248201527517d89d5c9b8e881a5b9d985b1a59081858d8dbdd5b9d60521b60448201526064016100a9565b60008111610f825760405162461bcd60e51b815260206004820152601560248201527417d89d5c9b8e881a5b9d985b1a5908185b5bdd5b9d605a1b60448201526064016100a9565b610f8e82600083611107565b5050565b6001600160a01b038216610fe15760405162461bcd60e51b815260206004820152601660248201527517db5a5b9d0e881a5b9d985b1a59081858d8dbdd5b9d60521b60448201526064016100a9565b600081116110295760405162461bcd60e51b815260206004820152601560248201527417db5a5b9d0e881a5b9d985b1a5908185b5bdd5b9d605a1b60448201526064016100a9565b610f8e60008383611107565b60405163e0b490f760e01b81526001600160a01b03821660048201526000906370a0823160e01b90829081906101679063e0b490f790602401602060405180830381865afa15801561108b573d6000803e3d6000fd5b505050506040513d601f19601f820116820180604052508101906110af9190611e19565b604080516001600160e01b0319808716602083015267ffffffffffffffff1986841b16602483015260e084901b16603c820152919250016040516020818303038152906040526110fe90611df2565b95945050505050565b6001600160a01b0383166111325780600360008282546111279190611e55565b909155506111989050565b600061113d84611035565b8054909150828110156111925760405162461bcd60e51b815260206004820152601f60248201527f5f7472616e736665723a20696e73756666696369656e742062616c616e63650060448201526064016100a9565b82900390555b6001600160a01b0382166111c35780600360008282546111b89190611e68565b909155506111e59050565b60006111ce83611035565b805490915060006111df8483611e55565b90925550505b816001600160a01b0316836001600160a01b03167fddf252ad1be2c89b69c2b068fc378daa952ba7f163c4a11628f55a4df523b3ef8360405161122a91815260200190565b60405180910390a3505050565b60405163e0b490f760e01b81526001600160a01b0383166004820152600090636eb1769f60e11b90829081906101679063e0b490f790602401602060405180830381865afa15801561128d573d6000803e3d6000fd5b505050506040513d601f19601f820116820180604052508101906112b19190611e19565b60405163e0b490f760e01b81526001600160a01b03871660048201529091506000906101679063e0b490f790602401602060405180830381865afa1580156112fd573d6000803e3d6000fd5b505050506040513d601f19601f820116820180604052508101906113219190611e19565b604080516001600160e01b031980881660208301526001600160601b0319606088901b16602483015260e084811b8216603884015286901b16603c8201529192500160405160208183030381529060405261137b90611df2565b979650505050505050565b60408051610240810182526060610120820181815261014083018290526000610160840181905261018084018390526101a084018190526101c084018190526101e0840181905261020084018390528451928301855280835260208301819052938201939093526102208201529081908152602001600060070b8152602001600015158152602001600015158152602001600015158152602001606081526020016060815260200160608152602001606081525090565b6040518060400160405280600081526020016114956040518060a0016040528060001515815260200160006001600160a01b03168152602001606081526020016060815260200160006001600160a01b031681525090565b905290565b600080858511156114aa57600080fd5b838611156114b757600080fd5b5050820193919092039150565b80356001600160e01b031981169060048410156114f5576001600160e01b0319600485900360031b81901b82161691505b5092915050565b80356001600160601b031981169060148410156114f5576001600160601b031960149490940360031b84901b1690921692915050565b80356001600160a01b038116811461154957600080fd5b919050565b60006020828403121561156057600080fd5b61156982611532565b9392505050565b6000815180845260005b818110156115965760208185018101518683018201520161157a565b506000602082860101526020601f19601f83011685010191505092915050565b600082825180855260208501945060208160051b8301016020850160005b8381101561167957848303601f1901885281518051845260209081015160408286018190528151151581870152918101516001600160a01b031660608601529081015160a0608086015261162b60e0860182611570565b90506060820151603f198683030160a08701526116488282611570565b608093909301516001600160a01b031660c096909601959095525060209889019890935091909101906001016115d4565b50909695505050505050565b60008151610160845261169c610160850182611570565b9050602083015184820360208601526116b58282611570565b91505060408301516116d260408601826001600160a01b03169052565b50606083015184820360608601526116ea8282611570565b9150506080830151611700608086018215159052565b5060a083015161171560a086018260070b9052565b5060c083015161172960c086018215159052565b5060e083015184820360e086015261174182826115b6565b91505061010083015161177c6101008601828051600790810b83526020808301516001600160a01b031690840152604091820151900b910152565b509392505050565b600081518084526020840193506020830160005b828110156117f6578151805160070b87526020808201516001600160a01b03908116828a01526040808401511515908a01526060808401511515908a0152608092830151169188019190915260a09096019590910190600101611798565b5093949350505050565b600081518084526020840193506020830160005b828110156117f6578151805160070b8752602081015160070b6020880152604081015160070b6040880152606081015160070b606088015260808101511515608088015260018060a01b0360a08201511660a08801525060c086019550602082019150600181019050611814565b600081518084526020840193506020830160005b828110156117f6578151805160070b8752602081015160070b6020880152604081015160070b604088015260018060a01b03606082015116606088015260808101511515608088015260018060a01b0360a08201511660a08801525060c086019550602082019150600181019050611896565b600081516101208452611920610120850182611685565b90506020830151611936602086018260070b9052565b50604083015161194a604086018215159052565b50606083015161195e606086018215159052565b506080830151611972608086018215159052565b5060a083015184820360a086015261198a8282611784565b91505060c083015184820360c08601526119a48282611800565b91505060e083015184820360e08601526119be8282611882565b9150506101008301518482036101008601526110fe8282611570565b6020815260006115696020830184611909565b8260070b8152604060208201526000611a096040830184611909565b949350505050565b8035600781900b811461154957600080fd5b634e487b7160e01b600052604160045260246000fd5b604051601f8201601f1916810167ffffffffffffffff81118282101715611a6257611a62611a23565b604052919050565b600067ffffffffffffffff821115611a8457611a84611a23565b5060051b60200190565b600080600060608486031215611aa357600080fd5b611aac84611532565b9250611aba60208501611a11565b9150604084013567ffffffffffffffff811115611ad657600080fd5b8401601f81018613611ae757600080fd5b8035611afa611af582611a6a565b611a39565b8082825260208201915060208360051b850101925088831115611b1c57600080fd5b6020840193505b82841015611b4557611b3484611a11565b825260209384019390910190611b23565b809450505050509250925092565b600080600060608486031215611b6857600080fd5b611b7184611532565b9250611b7f60208501611a11565b9150604084013567ffffffffffffffff811115611b9b57600080fd5b8401601f81018613611bac57600080fd5b8035611bba611af582611a6a565b8082825260208201915060208360051b850101925088831115611bdc57600080fd5b602084015b83811015611c8057803567ffffffffffffffff811115611c0057600080fd5b8501603f81018b13611c1157600080fd5b602081013567ffffffffffffffff811115611c2e57611c2e611a23565b611c41601f8201601f1916602001611a39565b8181526040838301018d1015611c5657600080fd5b81604084016020830137600060208383010152808652505050602083019250602081019050611be1565b50809450505050509250925092565b6000606082018560070b83528460070b60208401526060604084015280845180835260808501915060208601925060005b81811015611ce157835160070b835260209384019390920191600101611cc0565b5090979650505050505050565b602081526000808354818160011c90506001821680611d0e57607f821691505b602082108103611d2c57634e487b7160e01b84526022600452602484fd5b6020860182905260408601818015611d4b5760018114611d6157611d8f565b60ff198516825283151560051b82019550611d8f565b60008981526020902060005b85811015611d8957815484820152600190910190602001611d6d565b83019650505b5093979650505050505050565b80356020831015611db557600019602084900360031b1b165b92915050565b60208082526017908201527f68747343616c6c3a2064656c6567617465642063616c6c000000000000000000604082015260600190565b80516020808301519190811015611e13576000198160200360031b1b821691505b50919050565b600060208284031215611e2b57600080fd5b815163ffffffff8116811461156957600080fd5b634e487b7160e01b600052601160045260246000fd5b80820180821115611db557611db5611e3f565b81810381811115611db557611db5611e3f56fea2646970667358221220a5ebde9abd8833871f6ee5dbe48a8c075c7322bbc1803a5d173fd461175e416b64736f6c634300081c0033",
        "linkReferences": {}
    },
    "methodIdentifiers": {
        "_mockTokenInfo(address)": "1d17f55b",
        "burnToken(address,int64,int64[])": "d6910d06",
        "getAccountId(address)": "e0b490f7",
        "getTokenInfo(address)": "1f69565f",
        "mintToken(address,int64,bytes[])": "e0f4059a"
    },
    "storageLayout": {
        "storage": [
            {
                "astId": 39001,
                "contract": "src/HtsSystemContract.sol:HtsSystemContract",
                "label": "name",
                "offset": 0,
                "slot": "0",
                "type": "t_string_storage"
            },
            {
                "astId": 39003,
                "contract": "src/HtsSystemContract.sol:HtsSystemContract",
                "label": "symbol",
                "offset": 0,
                "slot": "1",
                "type": "t_string_storage"
            },
            {
                "astId": 39005,
                "contract": "src/HtsSystemContract.sol:HtsSystemContract",
                "label": "decimals",
                "offset": 0,
                "slot": "2",
                "type": "t_uint8"
            },
            {
                "astId": 39007,
                "contract": "src/HtsSystemContract.sol:HtsSystemContract",
                "label": "totalSupply",
                "offset": 0,
                "slot": "3",
                "type": "t_uint256"
            }
        ],
        "types": {
            "t_string_storage": {
                "encoding": "bytes",
                "label": "string",
                "numberOfBytes": "32"
            },
            "t_uint256": {
                "encoding": "inplace",
                "label": "uint256",
                "numberOfBytes": "32"
            },
            "t_uint8": {
                "encoding": "inplace",
                "label": "uint8",
                "numberOfBytes": "1"
            }
        }
    },
    "id": 23
}