{
  "abi": [
    {
      "type": "fallback",
      "stateMutability": "nonpayable"
    },
    {
      "type": "function",
      "name": "_mockTokenInfo",
      "inputs": [
        {
          "name": "token",
          "type": "address",
          "internalType": "address"
        }
      ],
      "outputs": [
        {
          "name": "tokenInfo",
          "type": "tuple",
          "internalType": "struct IHederaTokenService.TokenInfo",
          "components": [
            {
              "name": "token",
              "type": "tuple",
              "internalType": "struct IHederaTokenService.HederaToken",
              "components": [
                {
                  "name": "name",
                  "type": "string",
                  "internalType": "string"
                },
                {
                  "name": "symbol",
                  "type": "string",
                  "internalType": "string"
                },
                {
                  "name": "treasury",
                  "type": "address",
                  "internalType": "address"
                },
                {
                  "name": "memo",
                  "type": "string",
                  "internalType": "string"
                },
                {
                  "name": "tokenSupplyType",
                  "type": "bool",
                  "internalType": "bool"
                },
                {
                  "name": "maxSupply",
                  "type": "int64",
                  "internalType": "int64"
                },
                {
                  "name": "freezeDefault",
                  "type": "bool",
                  "internalType": "bool"
                },
                {
                  "name": "tokenKeys",
                  "type": "tuple[]",
                  "internalType": "struct IHederaTokenService.TokenKey[]",
                  "components": [
                    {
                      "name": "keyType",
                      "type": "uint256",
                      "internalType": "uint256"
                    },
                    {
                      "name": "key",
                      "type": "tuple",
                      "internalType": "struct IHederaTokenService.KeyValue",
                      "components": [
                        {
                          "name": "inheritAccountKey",
                          "type": "bool",
                          "internalType": "bool"
                        },
                        {
                          "name": "contractId",
                          "type": "address",
                          "internalType": "address"
                        },
                        {
                          "name": "ed25519",
                          "type": "bytes",
                          "internalType": "bytes"
                        },
                        {
                          "name": "ECDSA_secp256k1",
                          "type": "bytes",
                          "internalType": "bytes"
                        },
                        {
                          "name": "delegatableContractId",
                          "type": "address",
                          "internalType": "address"
                        }
                      ]
                    }
                  ]
                },
                {
                  "name": "expiry",
                  "type": "tuple",
                  "internalType": "struct IHederaTokenService.Expiry",
                  "components": [
                    {
                      "name": "second",
                      "type": "int64",
                      "internalType": "int64"
                    },
                    {
                      "name": "autoRenewAccount",
                      "type": "address",
                      "internalType": "address"
                    },
                    {
                      "name": "autoRenewPeriod",
                      "type": "int64",
                      "internalType": "int64"
                    }
                  ]
                }
              ]
            },
            {
              "name": "totalSupply",
              "type": "int64",
              "internalType": "int64"
            },
            {
              "name": "deleted",
              "type": "bool",
              "internalType": "bool"
            },
            {
              "name": "defaultKycStatus",
              "type": "bool",
              "internalType": "bool"
            },
            {
              "name": "pauseStatus",
              "type": "bool",
              "internalType": "bool"
            },
            {
              "name": "fixedFees",
              "type": "tuple[]",
              "internalType": "struct IHederaTokenService.FixedFee[]",
              "components": [
                {
                  "name": "amount",
                  "type": "int64",
                  "internalType": "int64"
                },
                {
                  "name": "tokenId",
                  "type": "address",
                  "internalType": "address"
                },
                {
                  "name": "useHbarsForPayment",
                  "type": "bool",
                  "internalType": "bool"
                },
                {
                  "name": "useCurrentTokenForPayment",
                  "type": "bool",
                  "internalType": "bool"
                },
                {
                  "name": "feeCollector",
                  "type": "address",
                  "internalType": "address"
                }
              ]
            },
            {
              "name": "fractionalFees",
              "type": "tuple[]",
              "internalType": "struct IHederaTokenService.FractionalFee[]",
              "components": [
                {
                  "name": "numerator",
                  "type": "int64",
                  "internalType": "int64"
                },
                {
                  "name": "denominator",
                  "type": "int64",
                  "internalType": "int64"
                },
                {
                  "name": "minimumAmount",
                  "type": "int64",
                  "internalType": "int64"
                },
                {
                  "name": "maximumAmount",
                  "type": "int64",
                  "internalType": "int64"
                },
                {
                  "name": "netOfTransfers",
                  "type": "bool",
                  "internalType": "bool"
                },
                {
                  "name": "feeCollector",
                  "type": "address",
                  "internalType": "address"
                }
              ]
            },
            {
              "name": "royaltyFees",
              "type": "tuple[]",
              "internalType": "struct IHederaTokenService.RoyaltyFee[]",
              "components": [
                {
                  "name": "numerator",
                  "type": "int64",
                  "internalType": "int64"
                },
                {
                  "name": "denominator",
                  "type": "int64",
                  "internalType": "int64"
                },
                {
                  "name": "amount",
                  "type": "int64",
                  "internalType": "int64"
                },
                {
                  "name": "tokenId",
                  "type": "address",
                  "internalType": "address"
                },
                {
                  "name": "useHbarsForPayment",
                  "type": "bool",
                  "internalType": "bool"
                },
                {
                  "name": "feeCollector",
                  "type": "address",
                  "internalType": "address"
                }
              ]
            },
            {
              "name": "ledgerId",
              "type": "string",
              "internalType": "string"
            }
          ]
        }
      ],
      "stateMutability": "view"
    },
    {
      "type": "function",
      "name": "burnToken",
      "inputs": [
        {
          "name": "token",
          "type": "address",
          "internalType": "address"
        },
        {
          "name": "amount",
          "type": "int64",
          "internalType": "int64"
        },
        {
          "name": "serialNumbers",
          "type": "int64[]",
          "internalType": "int64[]"
        }
      ],
      "outputs": [
        {
          "name": "responseCode",
          "type": "int64",
          "internalType": "int64"
        },
        {
          "name": "newTotalSupply",
          "type": "int64",
          "internalType": "int64"
        }
      ],
      "stateMutability": "nonpayable"
    },
    {
      "type": "function",
      "name": "getAccountId",
      "inputs": [
        {
          "name": "account",
          "type": "address",
          "internalType": "address"
        }
      ],
      "outputs": [
        {
          "name": "accountId",
          "type": "uint32",
          "internalType": "uint32"
        }
      ],
      "stateMutability": "view"
    },
    {
      "type": "function",
      "name": "getTokenInfo",
      "inputs": [
        {
          "name": "token",
          "type": "address",
          "internalType": "address"
        }
      ],
      "outputs": [
        {
          "name": "responseCode",
          "type": "int64",
          "internalType": "int64"
        },
        {
          "name": "tokenInfo",
          "type": "tuple",
          "internalType": "struct IHederaTokenService.TokenInfo",
          "components": [
            {
              "name": "token",
              "type": "tuple",
              "internalType": "struct IHederaTokenService.HederaToken",
              "components": [
                {
                  "name": "name",
                  "type": "string",
                  "internalType": "string"
                },
                {
                  "name": "symbol",
                  "type": "string",
                  "internalType": "string"
                },
                {
                  "name": "treasury",
                  "type": "address",
                  "internalType": "address"
                },
                {
                  "name": "memo",
                  "type": "string",
                  "internalType": "string"
                },
                {
                  "name": "tokenSupplyType",
                  "type": "bool",
                  "internalType": "bool"
                },
                {
                  "name": "maxSupply",
                  "type": "int64",
                  "internalType": "int64"
                },
                {
                  "name": "freezeDefault",
                  "type": "bool",
                  "internalType": "bool"
                },
                {
                  "name": "tokenKeys",
                  "type": "tuple[]",
                  "internalType": "struct IHederaTokenService.TokenKey[]",
                  "components": [
                    {
                      "name": "keyType",
                      "type": "uint256",
                      "internalType": "uint256"
                    },
                    {
                      "name": "key",
                      "type": "tuple",
                      "internalType": "struct IHederaTokenService.KeyValue",
                      "components": [
                        {
                          "name": "inheritAccountKey",
                          "type": "bool",
                          "internalType": "bool"
                        },
                        {
                          "name": "contractId",
                          "type": "address",
                          "internalType": "address"
                        },
                        {
                          "name": "ed25519",
                          "type": "bytes",
                          "internalType": "bytes"
                        },
                        {
                          "name": "ECDSA_secp256k1",
                          "type": "bytes",
                          "internalType": "bytes"
                        },
                        {
                          "name": "delegatableContractId",
                          "type": "address",
                          "internalType": "address"
                        }
                      ]
                    }
                  ]
                },
                {
                  "name": "expiry",
                  "type": "tuple",
                  "internalType": "struct IHederaTokenService.Expiry",
                  "components": [
                    {
                      "name": "second",
                      "type": "int64",
                      "internalType": "int64"
                    },
                    {
                      "name": "autoRenewAccount",
                      "type": "address",
                      "internalType": "address"
                    },
                    {
                      "name": "autoRenewPeriod",
                      "type": "int64",
                      "internalType": "int64"
                    }
                  ]
                }
              ]
            },
            {
              "name": "totalSupply",
              "type": "int64",
              "internalType": "int64"
            },
            {
              "name": "deleted",
              "type": "bool",
              "internalType": "bool"
            },
            {
              "name": "defaultKycStatus",
              "type": "bool",
              "internalType": "bool"
            },
            {
              "name": "pauseStatus",
              "type": "bool",
              "internalType": "bool"
            },
            {
              "name": "fixedFees",
              "type": "tuple[]",
              "internalType": "struct IHederaTokenService.FixedFee[]",
              "components": [
                {
                  "name": "amount",
                  "type": "int64",
                  "internalType": "int64"
                },
                {
                  "name": "tokenId",
                  "type": "address",
                  "internalType": "address"
                },
                {
                  "name": "useHbarsForPayment",
                  "type": "bool",
                  "internalType": "bool"
                },
                {
                  "name": "useCurrentTokenForPayment",
                  "type": "bool",
                  "internalType": "bool"
                },
                {
                  "name": "feeCollector",
                  "type": "address",
                  "internalType": "address"
                }
              ]
            },
            {
              "name": "fractionalFees",
              "type": "tuple[]",
              "internalType": "struct IHederaTokenService.FractionalFee[]",
              "components": [
                {
                  "name": "numerator",
                  "type": "int64",
                  "internalType": "int64"
                },
                {
                  "name": "denominator",
                  "type": "int64",
                  "internalType": "int64"
                },
                {
                  "name": "minimumAmount",
                  "type": "int64",
                  "internalType": "int64"
                },
                {
                  "name": "maximumAmount",
                  "type": "int64",
                  "internalType": "int64"
                },
                {
                  "name": "netOfTransfers",
                  "type": "bool",
                  "internalType": "bool"
                },
                {
                  "name": "feeCollector",
                  "type": "address",
                  "internalType": "address"
                }
              ]
            },
            {
              "name": "royaltyFees",
              "type": "tuple[]",
              "internalType": "struct IHederaTokenService.RoyaltyFee[]",
              "components": [
                {
                  "name": "numerator",
                  "type": "int64",
                  "internalType": "int64"
                },
                {
                  "name": "denominator",
                  "type": "int64",
                  "internalType": "int64"
                },
                {
                  "name": "amount",
                  "type": "int64",
                  "internalType": "int64"
                },
                {
                  "name": "tokenId",
                  "type": "address",
                  "internalType": "address"
                },
                {
                  "name": "useHbarsForPayment",
                  "type": "bool",
                  "internalType": "bool"
                },
                {
                  "name": "feeCollector",
                  "type": "address",
                  "internalType": "address"
                }
              ]
            },
            {
              "name": "ledgerId",
              "type": "string",
              "internalType": "string"
            }
          ]
        }
      ],
      "stateMutability": "view"
    },
    {
      "type": "function",
      "name": "mintToken",
      "inputs": [
        {
          "name": "token",
          "type": "address",
          "internalType": "address"
        },
        {
          "name": "amount",
          "type": "int64",
          "internalType": "int64"
        },
        {
          "name": "metadata",
          "type": "bytes[]",
          "internalType": "bytes[]"
        }
      ],
      "outputs": [
        {
          "name": "responseCode",
          "type": "int64",
          "internalType": "int64"
        },
        {
          "name": "newTotalSupply",
          "type": "int64",
          "internalType": "int64"
        },
        {
          "name": "serialNumbers",
          "type": "int64[]",
          "internalType": "int64[]"
        }
      ],
      "stateMutability": "nonpayable"
    },
    {
      "type": "event",
      "name": "Approval",
      "inputs": [
        {
          "name": "owner",
          "type": "address",
          "indexed": true,
          "internalType": "address"
        },
        {
          "name": "spender",
          "type": "address",
          "indexed": true,
          "internalType": "address"
        },
        {
          "name": "amount",
          "type": "uint256",
          "indexed": false,
          "internalType": "uint256"
        }
      ],
      "anonymous": false
    },
    {
      "type": "event",
      "name": "Associated",
      "inputs": [
        {
          "name": "account",
          "type": "address",
          "indexed": true,
          "internalType": "address"
        }
      ],
      "anonymous": false
    },
    {
      "type": "event",
      "name": "Dissociated",
      "inputs": [
        {
          "name": "account",
          "type": "address",
          "indexed": true,
          "internalType": "address"
        }
      ],
      "anonymous": false
    },
    {
      "type": "event",
      "name": "Transfer",
      "inputs": [
        {
          "name": "from",
          "type": "address",
          "indexed": true,
          "internalType": "address"
        },
        {
          "name": "to",
          "type": "address",
          "indexed": true,
          "internalType": "address"
        },
        {
          "name": "amount",
          "type": "uint256",
          "indexed": false,
          "internalType": "uint256"
        }
      ],
      "anonymous": false
    }
  ],
  "bytecode": {
    "object": "0x6080604052348015600f57600080fd5b506120c48061001f6000396000f3fe608060405234801561001057600080fd5b50600436106100575760003560e01c80631d17f55b146101a55780631f69565f146101ce578063d6910d06146101ef578063e0b490f71461021c578063e0f4059a14610244575b6000366060601c8210156100b25760405162461bcd60e51b815260206004820152601d60248201527f66616c6c6261636b3a206e6f7420656e6f7567682063616c6c6461746100000060448201526064015b60405180910390fd5b60006100c160048236816116ad565b6100ca916116d7565b60e01c905063618dc65e81146101225760405162461bcd60e51b815260206004820152601e60248201527f66616c6c6261636b3a20756e737570706f727465642073656c6563746f72000060448201526064016100a9565b60006101326018600436846116ad565b61013b9161170f565b60601c905030811461018f5760405162461bcd60e51b815260206004820152601d60248201527f66616c6c6261636b3a20746f6b656e206973206e6f742063616c6c657200000060448201526064016100a9565b610197610266565b805195506020019350505050f35b6101b86101b3366004611761565b610a0e565b6040516101c59190611bed565b60405180910390f35b6101e16101dc366004611761565b610c34565b6040516101c5929190611c00565b6102026101fd366004611ca1565b610c52565b60408051600793840b81529190920b6020820152016101c5565b61022f61022a366004611761565b610d59565b60405163ffffffff90911681526020016101c5565b610257610252366004611d66565b610dd5565b6040516101c593929190611ea2565b60606000610278601c601836846116ad565b610281916116d7565b905063f90221fd60e01b6001600160e01b03198216016102c25760006040516020016102ad9190611f01565b60405160208183030381529060405291505090565b63cec31a9960e01b6001600160e01b03198216016102f1576002546040805160ff9092166020830152016102ad565b63e7e9f22360e01b6001600160e01b031982160161031e576003546040516020016102ad91815260200190565b636a2764bf60e01b6001600160e01b03198216016103485760016040516020016102ad9190611f01565b638f5f7dcf60e01b6001600160e01b031982160161040057603c3610156103b15760405162461bcd60e51b815260206004820152601e60248201527f62616c616e63654f663a204e6f7420656e6f7567682063616c6c64617461000060448201526064016100a9565b60006103c1603c602836846116ad565b6103ca9161170f565b60601c90506103d881610eef565b6040516020016103ea91815260200190565b6040516020818303038152906040529250505090565b6356fa634560e01b6001600160e01b03198216016104d357605c3610156104695760405162461bcd60e51b815260206004820152601d60248201527f7472616e736665723a204e6f7420656e6f7567682063616c6c6461746100000060448201526064016100a9565b6000610479603c602836846116ad565b6104829161170f565b60601c90506000610497605c603c36846116ad565b6104a091611faf565b9050336104ae818484610f03565b6040805160016020820152015b60405160208183030381529060405294505050505090565b63dc478d2360e01b6001600160e01b03198216016105cf57607c36101561053c5760405162461bcd60e51b815260206004820152601e60248201527f7472616e73666572463a204e6f7420656e6f7567682063616c6c64617461000060448201526064016100a9565b600061054c603c602836846116ad565b6105559161170f565b60601c9050600061056a605c604836846116ad565b6105739161170f565b60601c90506000610588607c605c36846116ad565b61059191611faf565b90503361059f848284610fad565b6105aa848484610f03565b6040805160016020820152016040516020818303038152906040529550505050505090565b63114e896160e11b6001600160e01b03198216016106a757605c3610156106385760405162461bcd60e51b815260206004820152601e60248201527f616c6c6f77616e63653a204e6f7420656e6f7567682063616c6c64617461000060448201526064016100a9565b6000610648603c602836846116ad565b6106519161170f565b60601c90506000610666605c604836846116ad565b61066f9161170f565b60601c905061067e8282611027565b60405160200161069091815260200190565b604051602081830303815290604052935050505090565b63f6a1584d60e01b6001600160e01b03198216016107b357605c3610156107105760405162461bcd60e51b815260206004820152601c60248201527f617070726f76653a204e6f7420656e6f7567682063616c6c646174610000000060448201526064016100a9565b6000610720603c602836846116ad565b6107299161170f565b60601c9050600061073e605c603c36846116ad565b61074791611faf565b90503361075581848461103d565b826001600160a01b0316816001600160a01b03167f8c5be1e5ebec7d5bd14f71427d1e84f3dd0314c0f7b2291e5b200ac8c7c3b9258460405161079a91815260200190565b60405180910390a36040805160016020820152016104bb565b63bf3ef0e760e01b6001600160e01b031982160161087057605c36101561081c5760405162461bcd60e51b815260206004820152601960248201527f6d696e743a204e6f7420656e6f7567682063616c6c646174610000000000000060448201526064016100a9565b600061082c603c602836846116ad565b6108359161170f565b60601c9050600061084a605c603c36846116ad565b61085391611faf565b905061085f82826110fe565b604080516001602082015201610690565b6317ad327360e31b6001600160e01b031982160161090f57603c3610156108d95760405162461bcd60e51b815260206004820152601960248201527f6275726e3a204e6f7420656e6f7567682063616c6c646174610000000000000060448201526064016100a9565b60006108e9603c602836846116ad565b6108f291611faf565b90506108fe33826111a5565b6040805160016020820152016103ea565b630863398760e41b6001600160e01b03198216016109c657605c3610156109785760405162461bcd60e51b815260206004820152601d60248201527f6275726e46726f6d3a204e6f7420656e6f7567682063616c6c6461746100000060448201526064016100a9565b6000610988603c602836846116ad565b6109919161170f565b60601c905060006109a6605c603c36846116ad565b6109af91611faf565b90506109bc823383610fad565b61085f82826111a5565b60405162461bcd60e51b815260206004820152601f60248201527f7265646972656374466f72546f6b656e3a206e6f7420737570706f727465640060448201526064016100a9565b610a16611599565b60408051610260810182526000610240820181815261012083019081528351602080820186528382526101408501919091526101608401839052845180820186528381526101808501526101a084018390526101c084018390526101e084018390528451838152908101909452919283929161020084019190610aaf565b610a9c611650565b815260200190600190039081610a945790505b5081526040805160608082018352600080835260208084018290528385018290529485019290925293855260035460070b85840152848201819052928401839052608084018390528051838152918201905260a09092019190610b48565b6040805160a081018252600080825260208083018290529282018190526060820181905260808201528252600019909201910181610b0d5790505b5081526020016000604051908082528060200260200182016040528015610bb057816020015b6040805160c08101825260008082526020808301829052928201819052606082018190526080820181905260a08201528252600019909201910181610b6e5790505b5081526020016000604051908082528060200260200182016040528015610c1857816020015b6040805160c08101825260008082526020808301829052928201819052606082018190526080820181905260a08201528252600019909201910181610bd65790505b5081526040805160208181019092526000815291015292915050565b6000610c3e611599565b60169150610c4b83610a0e565b9050915091565b6000803061016714610c765760405162461bcd60e51b81526004016100a990611fce565b6001600160a01b038516610ccc5760405162461bcd60e51b815260206004820152601860248201527f6275726e546f6b656e3a20696e76616c696420746f6b656e000000000000000060448201526064016100a9565b60008460070b13610d1f5760405162461bcd60e51b815260206004820152601960248201527f6275726e546f6b656e3a20696e76616c696420616d6f756e740000000000000060448201526064016100a9565b6000610d2a86610a0e565b9050610d488160000151604001518667ffffffffffffffff166111a5565b505060035460169590945092505050565b60003061016714610d7c5760405162461bcd60e51b81526004016100a990611fce565b6040805163e0b490f760e01b602082018190526000602483018190526001600160601b0319606087901b16602c84015290929091829101604051602081830303815290604052610dcb90612005565b5495945050505050565b60008060603061016714610dfb5760405162461bcd60e51b81526004016100a990611fce565b6001600160a01b038616610e515760405162461bcd60e51b815260206004820152601860248201527f6d696e74546f6b656e3a20696e76616c696420746f6b656e000000000000000060448201526064016100a9565b60008560070b13610ea45760405162461bcd60e51b815260206004820152601960248201527f6d696e74546f6b656e3a20696e76616c696420616d6f756e740000000000000060448201526064016100a9565b6000610eaf87610a0e565b9050610ecd8160000151604001518767ffffffffffffffff166110fe565b5050600354604080516000815260208101909152601697919650945092505050565b600080610efb83611248565b549392505050565b6001600160a01b038316610f4f5760405162461bcd60e51b8152602060048201526013602482015272343a399d1034b73b30b634b21039b2b73232b960691b60448201526064016100a9565b6001600160a01b038216610f9d5760405162461bcd60e51b8152602060048201526015602482015274343a399d1034b73b30b634b2103932b1b2b4bb32b960591b60448201526064016100a9565b610fa883838361131a565b505050565b6000610fb98484611027565b9050600019811461102157818110156110145760405162461bcd60e51b815260206004820152601d60248201527f5f7370656e64416c6c6f77616e63653a20696e73756666696369656e7400000060448201526064016100a9565b611021848484840361103d565b50505050565b600080611034848461144a565b54949350505050565b6001600160a01b0383166110935760405162461bcd60e51b815260206004820152601760248201527f5f617070726f76653a20696e76616c6964206f776e657200000000000000000060448201526064016100a9565b6001600160a01b0382166110e95760405162461bcd60e51b815260206004820152601960248201527f5f617070726f76653a20696e76616c6964207370656e6465720000000000000060448201526064016100a9565b60006110f5848461144a565b91909155505050565b6001600160a01b03821661114d5760405162461bcd60e51b815260206004820152601660248201527517db5a5b9d0e881a5b9d985b1a59081858d8dbdd5b9d60521b60448201526064016100a9565b600081116111955760405162461bcd60e51b815260206004820152601560248201527417db5a5b9d0e881a5b9d985b1a5908185b5bdd5b9d605a1b60448201526064016100a9565b6111a16000838361131a565b5050565b6001600160a01b0382166111f45760405162461bcd60e51b815260206004820152601660248201527517d89d5c9b8e881a5b9d985b1a59081858d8dbdd5b9d60521b60448201526064016100a9565b6000811161123c5760405162461bcd60e51b815260206004820152601560248201527417d89d5c9b8e881a5b9d985b1a5908185b5bdd5b9d605a1b60448201526064016100a9565b6111a18260008361131a565b60405163e0b490f760e01b81526001600160a01b03821660048201526000906370a0823160e01b90829081906101679063e0b490f790602401602060405180830381865afa15801561129e573d6000803e3d6000fd5b505050506040513d601f19601f820116820180604052508101906112c2919061202c565b604080516001600160e01b0319808716602083015267ffffffffffffffff1986841b16602483015260e084901b16603c8201529192500160405160208183030381529060405261131190612005565b95945050505050565b6001600160a01b03831661134557806003600082825461133a9190612068565b909155506113ab9050565b600061135084611248565b8054909150828110156113a55760405162461bcd60e51b815260206004820152601f60248201527f5f7472616e736665723a20696e73756666696369656e742062616c616e63650060448201526064016100a9565b82900390555b6001600160a01b0382166113d65780600360008282546113cb919061207b565b909155506113f89050565b60006113e183611248565b805490915060006113f28483612068565b90925550505b816001600160a01b0316836001600160a01b03167fddf252ad1be2c89b69c2b068fc378daa952ba7f163c4a11628f55a4df523b3ef8360405161143d91815260200190565b60405180910390a3505050565b60405163e0b490f760e01b81526001600160a01b0383166004820152600090636eb1769f60e11b90829081906101679063e0b490f790602401602060405180830381865afa1580156114a0573d6000803e3d6000fd5b505050506040513d601f19601f820116820180604052508101906114c4919061202c565b60405163e0b490f760e01b81526001600160a01b03871660048201529091506000906101679063e0b490f790602401602060405180830381865afa158015611510573d6000803e3d6000fd5b505050506040513d601f19601f82011682018060405250810190611534919061202c565b604080516001600160e01b031980881660208301526001600160601b0319606088901b16602483015260e084811b8216603884015286901b16603c8201529192500160405160208183030381529060405261158e90612005565b979650505050505050565b60408051610240810182526060610120820181815261014083018290526000610160840181905261018084018390526101a084018190526101c084018190526101e0840181905261020084018390528451928301855280835260208301819052938201939093526102208201529081908152602001600060070b8152602001600015158152602001600015158152602001600015158152602001606081526020016060815260200160608152602001606081525090565b6040518060400160405280600081526020016116a86040518060a0016040528060001515815260200160006001600160a01b03168152602001606081526020016060815260200160006001600160a01b031681525090565b905290565b600080858511156116bd57600080fd5b838611156116ca57600080fd5b5050820193919092039150565b80356001600160e01b03198116906004841015611708576001600160e01b0319600485900360031b81901b82161691505b5092915050565b80356001600160601b03198116906014841015611708576001600160601b031960149490940360031b84901b1690921692915050565b80356001600160a01b038116811461175c57600080fd5b919050565b60006020828403121561177357600080fd5b61177c82611745565b9392505050565b6000815180845260005b818110156117a95760208185018101518683018201520161178d565b506000602082860101526020601f19601f83011685010191505092915050565b600082825180855260208501945060208160051b8301016020850160005b8381101561188c57848303601f1901885281518051845260209081015160408286018190528151151581870152918101516001600160a01b031660608601529081015160a0608086015261183e60e0860182611783565b90506060820151603f198683030160a087015261185b8282611783565b608093909301516001600160a01b031660c096909601959095525060209889019890935091909101906001016117e7565b50909695505050505050565b6000815161016084526118af610160850182611783565b9050602083015184820360208601526118c88282611783565b91505060408301516118e560408601826001600160a01b03169052565b50606083015184820360608601526118fd8282611783565b9150506080830151611913608086018215159052565b5060a083015161192860a086018260070b9052565b5060c083015161193c60c086018215159052565b5060e083015184820360e086015261195482826117c9565b91505061010083015161198f6101008601828051600790810b83526020808301516001600160a01b031690840152604091820151900b910152565b509392505050565b600081518084526020840193506020830160005b82811015611a09578151805160070b87526020808201516001600160a01b03908116828a01526040808401511515908a01526060808401511515908a0152608092830151169188019190915260a090960195909101906001016119ab565b5093949350505050565b600081518084526020840193506020830160005b82811015611a09578151805160070b8752602081015160070b6020880152604081015160070b6040880152606081015160070b606088015260808101511515608088015260018060a01b0360a08201511660a08801525060c086019550602082019150600181019050611a27565b600081518084526020840193506020830160005b82811015611a09578151805160070b8752602081015160070b6020880152604081015160070b604088015260018060a01b03606082015116606088015260808101511515608088015260018060a01b0360a08201511660a08801525060c086019550602082019150600181019050611aa9565b600081516101208452611b33610120850182611898565b90506020830151611b49602086018260070b9052565b506040830151611b5d604086018215159052565b506060830151611b71606086018215159052565b506080830151611b85608086018215159052565b5060a083015184820360a0860152611b9d8282611997565b91505060c083015184820360c0860152611bb78282611a13565b91505060e083015184820360e0860152611bd18282611a95565b9150506101008301518482036101008601526113118282611783565b60208152600061177c6020830184611b1c565b8260070b8152604060208201526000611c1c6040830184611b1c565b949350505050565b8035600781900b811461175c57600080fd5b634e487b7160e01b600052604160045260246000fd5b604051601f8201601f1916810167ffffffffffffffff81118282101715611c7557611c75611c36565b604052919050565b600067ffffffffffffffff821115611c9757611c97611c36565b5060051b60200190565b600080600060608486031215611cb657600080fd5b611cbf84611745565b9250611ccd60208501611c24565b9150604084013567ffffffffffffffff811115611ce957600080fd5b8401601f81018613611cfa57600080fd5b8035611d0d611d0882611c7d565b611c4c565b8082825260208201915060208360051b850101925088831115611d2f57600080fd5b6020840193505b82841015611d5857611d4784611c24565b825260209384019390910190611d36565b809450505050509250925092565b600080600060608486031215611d7b57600080fd5b611d8484611745565b9250611d9260208501611c24565b9150604084013567ffffffffffffffff811115611dae57600080fd5b8401601f81018613611dbf57600080fd5b8035611dcd611d0882611c7d565b8082825260208201915060208360051b850101925088831115611def57600080fd5b602084015b83811015611e9357803567ffffffffffffffff811115611e1357600080fd5b8501603f81018b13611e2457600080fd5b602081013567ffffffffffffffff811115611e4157611e41611c36565b611e54601f8201601f1916602001611c4c565b8181526040838301018d1015611e6957600080fd5b81604084016020830137600060208383010152808652505050602083019250602081019050611df4565b50809450505050509250925092565b6000606082018560070b83528460070b60208401526060604084015280845180835260808501915060208601925060005b81811015611ef457835160070b835260209384019390920191600101611ed3565b5090979650505050505050565b602081526000808354818160011c90506001821680611f2157607f821691505b602082108103611f3f57634e487b7160e01b84526022600452602484fd5b6020860182905260408601818015611f5e5760018114611f7457611fa2565b60ff198516825283151560051b82019550611fa2565b60008981526020902060005b85811015611f9c57815484820152600190910190602001611f80565b83019650505b5093979650505050505050565b80356020831015611fc857600019602084900360031b1b165b92915050565b60208082526017908201527f68747343616c6c3a2064656c6567617465642063616c6c000000000000000000604082015260600190565b80516020808301519190811015612026576000198160200360031b1b821691505b50919050565b60006020828403121561203e57600080fd5b815163ffffffff8116811461177c57600080fd5b634e487b7160e01b600052601160045260246000fd5b80820180821115611fc857611fc8612052565b81810381811115611fc857611fc861205256fea26469706673582212200c37a53f6278ef33629c3f60d6f0a81aa638f98afcbf58a1f9a4d6075213385664736f6c634300081c0033",
    "linkReferences": {}
  },
  "methodIdentifiers": {
    "_mockTokenInfo(address)": "1d17f55b",
    "burnToken(address,int64,int64[])": "d6910d06",
    "getAccountId(address)": "e0b490f7",
    "getTokenInfo(address)": "1f69565f",
    "mintToken(address,int64,bytes[])": "e0f4059a"
  },
  "storageLayout": {
    "storage": [
      {
        "astId": 39003,
        "contract": "src/HtsSystemContract.sol:HtsSystemContract",
        "label": "name",
        "offset": 0,
        "slot": "0",
        "type": "t_string_storage"
      },
      {
        "astId": 39005,
        "contract": "src/HtsSystemContract.sol:HtsSystemContract",
        "label": "symbol",
        "offset": 0,
        "slot": "1",
        "type": "t_string_storage"
      },
      {
        "astId": 39007,
        "contract": "src/HtsSystemContract.sol:HtsSystemContract",
        "label": "decimals",
        "offset": 0,
        "slot": "2",
        "type": "t_uint8"
      },
      {
        "astId": 39009,
        "contract": "src/HtsSystemContract.sol:HtsSystemContract",
        "label": "totalSupply",
        "offset": 0,
        "slot": "3",
        "type": "t_uint256"
      }
    ],
    "types": {
      "t_string_storage": {
        "encoding": "bytes",
        "label": "string",
        "numberOfBytes": "32"
      },
      "t_uint256": {
        "encoding": "inplace",
        "label": "uint256",
        "numberOfBytes": "32"
      },
      "t_uint8": {
        "encoding": "inplace",
        "label": "uint8",
        "numberOfBytes": "1"
      }
    }
  },
  "id": 23
}