{
    "abi": [
        {
            "type": "fallback",
            "stateMutability": "nonpayable"
        },
        {
            "type": "function",
            "name": "_mockTokenInfo",
            "inputs": [],
            "outputs": [
                {
                    "name": "tokenInfo",
                    "type": "tuple",
                    "internalType": "struct IHederaTokenService.TokenInfo",
                    "components": [
                        {
                            "name": "token",
                            "type": "tuple",
                            "internalType": "struct IHederaTokenService.HederaToken",
                            "components": [
                                {
                                    "name": "name",
                                    "type": "string",
                                    "internalType": "string"
                                },
                                {
                                    "name": "symbol",
                                    "type": "string",
                                    "internalType": "string"
                                },
                                {
                                    "name": "treasury",
                                    "type": "address",
                                    "internalType": "address"
                                },
                                {
                                    "name": "memo",
                                    "type": "string",
                                    "internalType": "string"
                                },
                                {
                                    "name": "tokenSupplyType",
                                    "type": "bool",
                                    "internalType": "bool"
                                },
                                {
                                    "name": "maxSupply",
                                    "type": "int64",
                                    "internalType": "int64"
                                },
                                {
                                    "name": "freezeDefault",
                                    "type": "bool",
                                    "internalType": "bool"
                                },
                                {
                                    "name": "tokenKeys",
                                    "type": "tuple[]",
                                    "internalType": "struct IHederaTokenService.TokenKey[]",
                                    "components": [
                                        {
                                            "name": "keyType",
                                            "type": "uint256",
                                            "internalType": "uint256"
                                        },
                                        {
                                            "name": "key",
                                            "type": "tuple",
                                            "internalType": "struct IHederaTokenService.KeyValue",
                                            "components": [
                                                {
                                                    "name": "inheritAccountKey",
                                                    "type": "bool",
                                                    "internalType": "bool"
                                                },
                                                {
                                                    "name": "contractId",
                                                    "type": "address",
                                                    "internalType": "address"
                                                },
                                                {
                                                    "name": "ed25519",
                                                    "type": "bytes",
                                                    "internalType": "bytes"
                                                },
                                                {
                                                    "name": "ECDSA_secp256k1",
                                                    "type": "bytes",
                                                    "internalType": "bytes"
                                                },
                                                {
                                                    "name": "delegatableContractId",
                                                    "type": "address",
                                                    "internalType": "address"
                                                }
                                            ]
                                        }
                                    ]
                                },
                                {
                                    "name": "expiry",
                                    "type": "tuple",
                                    "internalType": "struct IHederaTokenService.Expiry",
                                    "components": [
                                        {
                                            "name": "second",
                                            "type": "int64",
                                            "internalType": "int64"
                                        },
                                        {
                                            "name": "autoRenewAccount",
                                            "type": "address",
                                            "internalType": "address"
                                        },
                                        {
                                            "name": "autoRenewPeriod",
                                            "type": "int64",
                                            "internalType": "int64"
                                        }
                                    ]
                                }
                            ]
                        },
                        {
                            "name": "totalSupply",
                            "type": "int64",
                            "internalType": "int64"
                        },
                        {
                            "name": "deleted",
                            "type": "bool",
                            "internalType": "bool"
                        },
                        {
                            "name": "defaultKycStatus",
                            "type": "bool",
                            "internalType": "bool"
                        },
                        {
                            "name": "pauseStatus",
                            "type": "bool",
                            "internalType": "bool"
                        },
                        {
                            "name": "fixedFees",
                            "type": "tuple[]",
                            "internalType": "struct IHederaTokenService.FixedFee[]",
                            "components": [
                                {
                                    "name": "amount",
                                    "type": "int64",
                                    "internalType": "int64"
                                },
                                {
                                    "name": "tokenId",
                                    "type": "address",
                                    "internalType": "address"
                                },
                                {
                                    "name": "useHbarsForPayment",
                                    "type": "bool",
                                    "internalType": "bool"
                                },
                                {
                                    "name": "useCurrentTokenForPayment",
                                    "type": "bool",
                                    "internalType": "bool"
                                },
                                {
                                    "name": "feeCollector",
                                    "type": "address",
                                    "internalType": "address"
                                }
                            ]
                        },
                        {
                            "name": "fractionalFees",
                            "type": "tuple[]",
                            "internalType": "struct IHederaTokenService.FractionalFee[]",
                            "components": [
                                {
                                    "name": "numerator",
                                    "type": "int64",
                                    "internalType": "int64"
                                },
                                {
                                    "name": "denominator",
                                    "type": "int64",
                                    "internalType": "int64"
                                },
                                {
                                    "name": "minimumAmount",
                                    "type": "int64",
                                    "internalType": "int64"
                                },
                                {
                                    "name": "maximumAmount",
                                    "type": "int64",
                                    "internalType": "int64"
                                },
                                {
                                    "name": "netOfTransfers",
                                    "type": "bool",
                                    "internalType": "bool"
                                },
                                {
                                    "name": "feeCollector",
                                    "type": "address",
                                    "internalType": "address"
                                }
                            ]
                        },
                        {
                            "name": "royaltyFees",
                            "type": "tuple[]",
                            "internalType": "struct IHederaTokenService.RoyaltyFee[]",
                            "components": [
                                {
                                    "name": "numerator",
                                    "type": "int64",
                                    "internalType": "int64"
                                },
                                {
                                    "name": "denominator",
                                    "type": "int64",
                                    "internalType": "int64"
                                },
                                {
                                    "name": "amount",
                                    "type": "int64",
                                    "internalType": "int64"
                                },
                                {
                                    "name": "tokenId",
                                    "type": "address",
                                    "internalType": "address"
                                },
                                {
                                    "name": "useHbarsForPayment",
                                    "type": "bool",
                                    "internalType": "bool"
                                },
                                {
                                    "name": "feeCollector",
                                    "type": "address",
                                    "internalType": "address"
                                }
                            ]
                        },
                        {
                            "name": "ledgerId",
                            "type": "string",
                            "internalType": "string"
                        }
                    ]
                }
            ],
            "stateMutability": "view"
        },
        {
            "type": "function",
            "name": "burnToken",
            "inputs": [
                {
                    "name": "token",
                    "type": "address",
                    "internalType": "address"
                },
                {
                    "name": "amount",
                    "type": "int64",
                    "internalType": "int64"
                },
                {
                    "name": "serialNumbers",
                    "type": "int64[]",
                    "internalType": "int64[]"
                }
            ],
            "outputs": [
                {
                    "name": "responseCode",
                    "type": "int64",
                    "internalType": "int64"
                },
                {
                    "name": "newTotalSupply",
                    "type": "int64",
                    "internalType": "int64"
                }
            ],
            "stateMutability": "nonpayable"
        },
        {
            "type": "function",
            "name": "getAccountId",
            "inputs": [
                {
                    "name": "account",
                    "type": "address",
                    "internalType": "address"
                }
            ],
            "outputs": [
                {
                    "name": "accountId",
                    "type": "uint32",
                    "internalType": "uint32"
                }
            ],
            "stateMutability": "view"
        },
        {
            "type": "function",
            "name": "mintToken",
            "inputs": [
                {
                    "name": "token",
                    "type": "address",
                    "internalType": "address"
                },
                {
                    "name": "amount",
                    "type": "int64",
                    "internalType": "int64"
                },
                {
                    "name": "metadata",
                    "type": "bytes[]",
                    "internalType": "bytes[]"
                }
            ],
            "outputs": [
                {
                    "name": "responseCode",
                    "type": "int64",
                    "internalType": "int64"
                },
                {
                    "name": "newTotalSupply",
                    "type": "int64",
                    "internalType": "int64"
                },
                {
                    "name": "serialNumbers",
                    "type": "int64[]",
                    "internalType": "int64[]"
                }
            ],
            "stateMutability": "nonpayable"
        },
        {
            "type": "event",
            "name": "Approval",
            "inputs": [
                {
                    "name": "owner",
                    "type": "address",
                    "indexed": true,
                    "internalType": "address"
                },
                {
                    "name": "spender",
                    "type": "address",
                    "indexed": true,
                    "internalType": "address"
                },
                {
                    "name": "amount",
                    "type": "uint256",
                    "indexed": false,
                    "internalType": "uint256"
                }
            ],
            "anonymous": false
        },
        {
            "type": "event",
            "name": "Associated",
            "inputs": [
                {
                    "name": "account",
                    "type": "address",
                    "indexed": true,
                    "internalType": "address"
                }
            ],
            "anonymous": false
        },
        {
            "type": "event",
            "name": "Dissociated",
            "inputs": [
                {
                    "name": "account",
                    "type": "address",
                    "indexed": true,
                    "internalType": "address"
                }
            ],
            "anonymous": false
        },
        {
            "type": "event",
            "name": "Transfer",
            "inputs": [
                {
                    "name": "from",
                    "type": "address",
                    "indexed": true,
                    "internalType": "address"
                },
                {
                    "name": "to",
                    "type": "address",
                    "indexed": true,
                    "internalType": "address"
                },
                {
                    "name": "amount",
                    "type": "uint256",
                    "indexed": false,
                    "internalType": "uint256"
                }
            ],
            "anonymous": false
        }
    ],
    "bytecode": {
        "object": "0x6080604052348015600f57600080fd5b506126f38061001f6000396000f3fe608060405234801561001057600080fd5b506004361061004c5760003560e01c8063d6910d061461019a578063d699a513146101cc578063e0b490f7146101e1578063e0f4059a14610209575b6000366060601c8210156100a75760405162461bcd60e51b815260206004820152601d60248201527f66616c6c6261636b3a206e6f7420656e6f7567682063616c6c6461746100000060448201526064015b60405180910390fd5b60006100b66004823681611507565b6100bf91611531565b60e01c905063618dc65e81146101175760405162461bcd60e51b815260206004820152601e60248201527f66616c6c6261636b3a20756e737570706f727465642073656c6563746f720000604482015260640161009e565b6000610127601860043684611507565b61013091611569565b60601c90503081146101845760405162461bcd60e51b815260206004820152601d60248201527f66616c6c6261636b3a20746f6b656e206973206e6f742063616c6c6572000000604482015260640161009e565b61018c61022b565b805195506020019350505050f35b6101ad6101a83660046116be565b6107c0565b60408051600793840b81529190920b6020820152015b60405180910390f35b6101d46109d0565b6040516101c39190611b2b565b6101f46101ef366004611c02565b610ca7565b60405163ffffffff90911681526020016101c3565b61021c610217366004611c4d565b610d23565b6040516101c393929190611d6c565b6060600061023d601c60183684611507565b61024691611531565b905063f90221fd60e01b6001600160e01b03198216016102875760006040516020016102729190611dcb565b60405160208183030381529060405291505090565b63cec31a9960e01b6001600160e01b03198216016102b6576002546040805160ff909216602083015201610272565b63e7e9f22360e01b6001600160e01b03198216016102e35760035460405160200161027291815260200190565b636a2764bf60e01b6001600160e01b031982160161030d5760016040516020016102729190611dcb565b638f5f7dcf60e01b6001600160e01b03198216016103c557603c3610156103765760405162461bcd60e51b815260206004820152601e60248201527f62616c616e63654f663a204e6f7420656e6f7567682063616c6c646174610000604482015260640161009e565b6000610386603c60283684611507565b61038f91611569565b60601c905061039d81610f4a565b6040516020016103af91815260200190565b6040516020818303038152906040529250505090565b6356fa634560e01b6001600160e01b031982160161049857605c36101561042e5760405162461bcd60e51b815260206004820152601d60248201527f7472616e736665723a204e6f7420656e6f7567682063616c6c64617461000000604482015260640161009e565b600061043e603c60283684611507565b61044791611569565b60601c9050600061045c605c603c3684611507565b61046591611e79565b905033610473818484610f5e565b6040805160016020820152015b60405160208183030381529060405294505050505090565b63dc478d2360e01b6001600160e01b031982160161059457607c3610156105015760405162461bcd60e51b815260206004820152601e60248201527f7472616e73666572463a204e6f7420656e6f7567682063616c6c646174610000604482015260640161009e565b6000610511603c60283684611507565b61051a91611569565b60601c9050600061052f605c60483684611507565b61053891611569565b60601c9050600061054d607c605c3684611507565b61055691611e79565b905033610564848284611055565b61056f848484610f5e565b6040805160016020820152016040516020818303038152906040529550505050505090565b63114e896160e11b6001600160e01b031982160161066c57605c3610156105fd5760405162461bcd60e51b815260206004820152601e60248201527f616c6c6f77616e63653a204e6f7420656e6f7567682063616c6c646174610000604482015260640161009e565b600061060d603c60283684611507565b61061691611569565b60601c9050600061062b605c60483684611507565b61063491611569565b60601c905061064382826110cf565b60405160200161065591815260200190565b604051602081830303815290604052935050505090565b63f6a1584d60e01b6001600160e01b031982160161077857605c3610156106d55760405162461bcd60e51b815260206004820152601c60248201527f617070726f76653a204e6f7420656e6f7567682063616c6c6461746100000000604482015260640161009e565b60006106e5603c60283684611507565b6106ee91611569565b60601c90506000610703605c603c3684611507565b61070c91611e79565b90503361071a8184846110e5565b826001600160a01b0316816001600160a01b03167f8c5be1e5ebec7d5bd14f71427d1e84f3dd0314c0f7b2291e5b200ac8c7c3b9258460405161075f91815260200190565b60405180910390a3604080516001602082015201610480565b60405162461bcd60e51b815260206004820152601f60248201527f7265646972656374466f72546f6b656e3a206e6f7420737570706f7274656400604482015260640161009e565b60008030610167146107e45760405162461bcd60e51b815260040161009e90611e98565b6001600160a01b03851661083a5760405162461bcd60e51b815260206004820152601860248201527f6275726e546f6b656e3a20696e76616c696420746f6b656e0000000000000000604482015260640161009e565b60008460070b1361088d5760405162461bcd60e51b815260206004820152601960248201527f6275726e546f6b656e3a20696e76616c696420616d6f756e7400000000000000604482015260640161009e565b6000306001600160a01b031663d699a5136040518163ffffffff1660e01b8152600401600060405180830381865afa1580156108cd573d6000803e3d6000fd5b505050506040513d6000823e601f3d908101601f191682016040526108f591908101906124d2565b8051604001519091506001600160a01b0381166109545760405162461bcd60e51b815260206004820152601a60248201527f6275726e546f6b656e3a20696e76616c6964206163636f756e74000000000000604482015260640161009e565b610969816000886001600160401b03166111a6565b60169350600354925060008360070b12156109c65760405162461bcd60e51b815260206004820152601f60248201527f6275726e546f6b656e3a20696e76616c696420746f74616c20737570706c7900604482015260640161009e565b5050935093915050565b610a8a60408051610240810182526060610120820181815261014083018290526000610160840181905261018084018390526101a084018190526101c084018190526101e0840181905261020084018390528451928301855280835260208301819052938201939093526102208201529081908152602001600060070b8152602001600015158152602001600015158152602001600015158152602001606081526020016060815260200160608152602001606081525090565b60408051610260810182526000610240820181815261012083019081528351602080820186528382526101408501919091526101608401839052845180820186528381526101808501526101a084018390526101c084018390526101e084018390528451838152908101909452919283929161020084019190610b23565b610b106114aa565b815260200190600190039081610b085790505b5081526040805160608082018352600080835260208084018290528385018290529485019290925293855260035460070b85840152848201819052928401839052608084018390528051838152918201905260a09092019190610bbc565b6040805160a081018252600080825260208083018290529282018190526060820181905260808201528252600019909201910181610b815790505b5081526020016000604051908082528060200260200182016040528015610c2457816020015b6040805160c08101825260008082526020808301829052928201819052606082018190526080820181905260a08201528252600019909201910181610be25790505b5081526020016000604051908082528060200260200182016040528015610c8c57816020015b6040805160c08101825260008082526020808301829052928201819052606082018190526080820181905260a08201528252600019909201910181610c4a5790505b50815260408051602081810190925260008152910152919050565b60003061016714610cca5760405162461bcd60e51b815260040161009e90611e98565b6040805163e0b490f760e01b602082018190526000602483018190526001600160601b0319606087901b16602c84015290929091829101604051602081830303815290604052610d1990612634565b5495945050505050565b60008060603061016714610d495760405162461bcd60e51b815260040161009e90611e98565b6001600160a01b038616610d9f5760405162461bcd60e51b815260206004820152601860248201527f6d696e74546f6b656e3a20696e76616c696420746f6b656e0000000000000000604482015260640161009e565b60008560070b13610df25760405162461bcd60e51b815260206004820152601960248201527f6d696e74546f6b656e3a20696e76616c696420616d6f756e7400000000000000604482015260640161009e565b6000306001600160a01b031663d699a5136040518163ffffffff1660e01b8152600401600060405180830381865afa158015610e32573d6000803e3d6000fd5b505050506040513d6000823e601f3d908101601f19168201604052610e5a91908101906124d2565b8051604001519091506001600160a01b038116610eb95760405162461bcd60e51b815260206004820152601a60248201527f6d696e74546f6b656e3a20696e76616c6964206163636f756e74000000000000604482015260640161009e565b610ece600082896001600160401b03166111a6565b600354604080516000808252602082019092526016975091955050925060008460070b1215610f3f5760405162461bcd60e51b815260206004820152601f60248201527f6d696e74546f6b656e3a20696e76616c696420746f74616c20737570706c7900604482015260640161009e565b505093509350939050565b600080610f5683611289565b549392505050565b6001600160a01b038316610faa5760405162461bcd60e51b8152602060048201526013602482015272343a399d1034b73b30b634b21039b2b73232b960691b604482015260640161009e565b6001600160a01b038216610ff85760405162461bcd60e51b8152602060048201526015602482015274343a399d1034b73b30b634b2103932b1b2b4bb32b960591b604482015260640161009e565b6110038383836111a6565b816001600160a01b0316836001600160a01b03167fddf252ad1be2c89b69c2b068fc378daa952ba7f163c4a11628f55a4df523b3ef8360405161104891815260200190565b60405180910390a3505050565b600061106184846110cf565b905060001981146110c957818110156110bc5760405162461bcd60e51b815260206004820152601d60248201527f5f7370656e64416c6c6f77616e63653a20696e73756666696369656e74000000604482015260640161009e565b6110c984848484036110e5565b50505050565b6000806110dc848461135b565b54949350505050565b6001600160a01b03831661113b5760405162461bcd60e51b815260206004820152601760248201527f5f617070726f76653a20696e76616c6964206f776e6572000000000000000000604482015260640161009e565b6001600160a01b0382166111915760405162461bcd60e51b815260206004820152601960248201527f5f617070726f76653a20696e76616c6964207370656e64657200000000000000604482015260640161009e565b600061119d848461135b565b91909155505050565b6001600160a01b0383166111d15780600360008282546111c69190612671565b909155506112379050565b60006111dc84611289565b8054909150828110156112315760405162461bcd60e51b815260206004820152601f60248201527f5f7472616e736665723a20696e73756666696369656e742062616c616e636500604482015260640161009e565b82900390555b6001600160a01b0382166112625780600360008282546112579190612684565b909155506112849050565b600061126d83611289565b8054909150600061127e8483612671565b90925550505b505050565b60405163e0b490f760e01b81526001600160a01b03821660048201526000906370a0823160e01b90829081906101679063e0b490f790602401602060405180830381865afa1580156112df573d6000803e3d6000fd5b505050506040513d601f19601f820116820180604052508101906113039190612697565b604080516001600160e01b0319808716602083015267ffffffffffffffff1986841b16602483015260e084901b16603c8201529192500160405160208183030381529060405261135290612634565b95945050505050565b60405163e0b490f760e01b81526001600160a01b0383166004820152600090636eb1769f60e11b90829081906101679063e0b490f790602401602060405180830381865afa1580156113b1573d6000803e3d6000fd5b505050506040513d601f19601f820116820180604052508101906113d59190612697565b60405163e0b490f760e01b81526001600160a01b03871660048201529091506000906101679063e0b490f790602401602060405180830381865afa158015611421573d6000803e3d6000fd5b505050506040513d601f19601f820116820180604052508101906114459190612697565b604080516001600160e01b031980881660208301526001600160601b0319606088901b16602483015260e084811b8216603884015286901b16603c8201529192500160405160208183030381529060405261149f90612634565b979650505050505050565b6040518060400160405280600081526020016115026040518060a0016040528060001515815260200160006001600160a01b03168152602001606081526020016060815260200160006001600160a01b031681525090565b905290565b6000808585111561151757600080fd5b8386111561152457600080fd5b5050820193919092039150565b80356001600160e01b03198116906004841015611562576001600160e01b0319600485900360031b81901b82161691505b5092915050565b80356001600160601b03198116906014841015611562576001600160601b031960149490940360031b84901b1690921692915050565b6001600160a01b03811681146115b457600080fd5b50565b8060070b81146115b457600080fd5b634e487b7160e01b600052604160045260246000fd5b604080519081016001600160401b03811182821017156115fe576115fe6115c6565b60405290565b60405160a081016001600160401b03811182821017156115fe576115fe6115c6565b60405161012081016001600160401b03811182821017156115fe576115fe6115c6565b60405160c081016001600160401b03811182821017156115fe576115fe6115c6565b604051601f8201601f191681016001600160401b0381118282101715611693576116936115c6565b604052919050565b60006001600160401b038211156116b4576116b46115c6565b5060051b60200190565b6000806000606084860312156116d357600080fd5b83356116de8161159f565b925060208401356116ee816115b7565b915060408401356001600160401b0381111561170957600080fd5b8401601f8101861361171a57600080fd5b803561172d6117288261169b565b61166b565b8082825260208201915060208360051b85010192508883111561174f57600080fd5b6020840193505b8284101561177a578335611769816115b7565b825260209384019390910190611756565b809450505050509250925092565b60005b838110156117a357818101518382015260200161178b565b50506000910152565b600081518084526117c4816020860160208601611788565b601f01601f19169290920160200192915050565b600082825180855260208501945060208160051b8301016020850160005b8381101561189b57848303601f1901885281518051845260209081015160408286018190528151151581870152918101516001600160a01b031660608601529081015160a0608086015261184d60e08601826117ac565b90506060820151603f198683030160a087015261186a82826117ac565b608093909301516001600160a01b031660c096909601959095525060209889019890935091909101906001016117f6565b50909695505050505050565b6000815161016084526118be6101608501826117ac565b9050602083015184820360208601526118d782826117ac565b91505060408301516118f460408601826001600160a01b03169052565b506060830151848203606086015261190c82826117ac565b9150506080830151611922608086018215159052565b5060a083015161193760a086018260070b9052565b5060c083015161194b60c086018215159052565b5060e083015184820360e086015261196382826117d8565b91505061010083015161199e6101008601828051600790810b83526020808301516001600160a01b031690840152604091820151900b910152565b509392505050565b600081518084526020840193506020830160005b82811015611a18578151805160070b87526020808201516001600160a01b03908116828a01526040808401511515908a01526060808401511515908a0152608092830151169188019190915260a090960195909101906001016119ba565b5093949350505050565b600081518084526020840193506020830160005b82811015611a18578151805160070b8752602081015160070b6020880152604081015160070b6040880152606081015160070b606088015260808101511515608088015260018060a01b0360a08201511660a08801525060c086019550602082019150600181019050611a36565b600081518084526020840193506020830160005b82811015611a18578151805160070b8752602081015160070b6020880152604081015160070b604088015260018060a01b03606082015116606088015260808101511515608088015260018060a01b0360a08201511660a08801525060c086019550602082019150600181019050611ab8565b60208152600082516101206020840152611b496101408401826118a7565b90506020840151611b5f604085018260070b9052565b5060408401518015156060850152506060840151801515608085015250608084015180151560a08501525060a0840151838203601f190160c0850152611ba582826119a6565b91505060c0840151601f198483030160e0850152611bc38282611a22565b91505060e0840151601f1984830301610100850152611be28282611aa4565b915050610100840151601f198483030161012085015261135282826117ac565b600060208284031215611c1457600080fd5b8135611c1f8161159f565b9392505050565b60006001600160401b03821115611c3f57611c3f6115c6565b50601f01601f191660200190565b600080600060608486031215611c6257600080fd5b8335611c6d8161159f565b92506020840135611c7d816115b7565b915060408401356001600160401b03811115611c9857600080fd5b8401601f81018613611ca957600080fd5b8035611cb76117288261169b565b8082825260208201915060208360051b850101925088831115611cd957600080fd5b602084015b83811015611d5d5780356001600160401b03811115611cfc57600080fd5b8501603f81018b13611d0d57600080fd5b6020810135611d1e61172882611c26565b8181526040838301018d1015611d3357600080fd5b81604084016020830137600060208383010152808652505050602083019250602081019050611cde565b50809450505050509250925092565b6000606082018560070b83528460070b60208401526060604084015280845180835260808501915060208601925060005b81811015611dbe57835160070b835260209384019390920191600101611d9d565b5090979650505050505050565b602081526000808354818160011c90506001821680611deb57607f821691505b602082108103611e0957634e487b7160e01b84526022600452602484fd5b6020860182905260408601818015611e285760018114611e3e57611e6c565b60ff198516825283151560051b82019550611e6c565b60008981526020902060005b85811015611e6657815484820152600190910190602001611e4a565b83019650505b5093979650505050505050565b80356020831015611e9257600019602084900360031b1b165b92915050565b60208082526017908201527f68747343616c6c3a2064656c6567617465642063616c6c000000000000000000604082015260600190565b600082601f830112611ee057600080fd5b8151602083016000611ef461172884611c26565b9050828152858383011115611f0857600080fd5b611352836020830184611788565b8051611f218161159f565b919050565b80518015158114611f2157600080fd5b8051611f21816115b7565b600082601f830112611f5257600080fd5b8151611f606117288261169b565b8082825260208201915060208360051b860101925085831115611f8257600080fd5b602085015b838110156120a55780516001600160401b03811115611fa557600080fd5b86016040818903601f19011215611fbb57600080fd5b611fc36115dc565b6020820151815260408201516001600160401b03811115611fe357600080fd5b60208184010192505060a0828a031215611ffc57600080fd5b612004611604565b61200d83611f26565b8152602083015161201d8161159f565b602082015260408301516001600160401b0381111561203b57600080fd5b6120478b828601611ecf565b60408301525060608301516001600160401b0381111561206657600080fd5b6120728b828601611ecf565b606083015250608083015192506120888361159f565b608081019290925260208181019290925284529283019201611f87565b5095945050505050565b6000606082840312156120c157600080fd5b604051606081016001600160401b03811182821017156120e3576120e36115c6565b806040525080915082516120f6816115b7565b815260208301516121068161159f565b60208201526040830151612119816115b7565b6040919091015292915050565b6000610160828403121561213957600080fd5b612141611626565b905081516001600160401b0381111561215957600080fd5b61216584828501611ecf565b82525060208201516001600160401b0381111561218157600080fd5b61218d84828501611ecf565b60208301525061219f60408301611f16565b604082015260608201516001600160401b038111156121bd57600080fd5b6121c984828501611ecf565b6060830152506121db60808301611f26565b60808201526121ec60a08301611f36565b60a08201526121fd60c08301611f26565b60c082015260e08201516001600160401b0381111561221b57600080fd5b61222784828501611f41565b60e08301525061223b8361010084016120af565b61010082015292915050565b600082601f83011261225857600080fd5b81516122666117288261169b565b80828252602082019150602060a0840286010192508583111561228857600080fd5b602085015b838110156120a55760a081880312156122a557600080fd5b6122ad611604565b81516122b8816115b7565b815260208201516122c88161159f565b60208201526122d960408301611f26565b60408201526122ea60608301611f26565b606082015260808201516122fd8161159f565b6080820152835260209092019160a00161228d565b600082601f83011261232357600080fd5b81516123316117288261169b565b80828252602082019150602060c0840286010192508583111561235357600080fd5b602085015b838110156120a55760c0818803121561237057600080fd5b612378611649565b8151612383816115b7565b81526020820151612393816115b7565b602082015260408201516123a6816115b7565b604082015260608201516123b9816115b7565b60608201526123ca60808301611f26565b608082015260a08201516123dd8161159f565b60a0820152835260209092019160c001612358565b600082601f83011261240357600080fd5b81516124116117288261169b565b80828252602082019150602060c0840286010192508583111561243357600080fd5b602085015b838110156120a55760c0818803121561245057600080fd5b612458611649565b8151612463816115b7565b81526020820151612473816115b7565b60208201526040820151612486816115b7565b604082015260608201516124998161159f565b60608201526124aa60808301611f26565b608082015260a08201516124bd8161159f565b60a0820152835260209092019160c001612438565b6000602082840312156124e457600080fd5b81516001600160401b038111156124fa57600080fd5b8201610120818503121561250d57600080fd5b612515611626565b81516001600160401b0381111561252b57600080fd5b61253786828501612126565b82525061254660208301611f36565b602082015261255760408301611f26565b604082015261256860608301611f26565b606082015261257960808301611f26565b608082015260a08201516001600160401b0381111561259757600080fd5b6125a386828501612247565b60a08301525060c08201516001600160401b038111156125c257600080fd5b6125ce86828501612312565b60c08301525060e08201516001600160401b038111156125ed57600080fd5b6125f9868285016123f2565b60e0830152506101008201516001600160401b0381111561261957600080fd5b61262586828501611ecf565b61010083015250949350505050565b80516020808301519190811015612655576000198160200360031b1b821691505b50919050565b634e487b7160e01b600052601160045260246000fd5b80820180821115611e9257611e9261265b565b81810381811115611e9257611e9261265b565b6000602082840312156126a957600080fd5b815163ffffffff81168114611c1f57600080fdfea2646970667358221220707967cb30f864a5b63a9d0ac2c044fd448c8f421f83ec3d890aaa56c2935b5d64736f6c634300081c0033",
        "linkReferences": {}
    },
    "methodIdentifiers": {
        "_mockTokenInfo()": "d699a513",
        "burnToken(address,int64,int64[])": "d6910d06",
        "getAccountId(address)": "e0b490f7",
        "mintToken(address,int64,bytes[])": "e0f4059a"
    },
    "storageLayout": {
        "storage": [
            {
                "astId": 39002,
                "contract": "src/HtsSystemContract.sol:HtsSystemContract",
                "label": "name",
                "offset": 0,
                "slot": "0",
                "type": "t_string_storage"
            },
            {
                "astId": 39004,
                "contract": "src/HtsSystemContract.sol:HtsSystemContract",
                "label": "symbol",
                "offset": 0,
                "slot": "1",
                "type": "t_string_storage"
            },
            {
                "astId": 39006,
                "contract": "src/HtsSystemContract.sol:HtsSystemContract",
                "label": "decimals",
                "offset": 0,
                "slot": "2",
                "type": "t_uint8"
            },
            {
                "astId": 39008,
                "contract": "src/HtsSystemContract.sol:HtsSystemContract",
                "label": "totalSupply",
                "offset": 0,
                "slot": "3",
                "type": "t_uint256"
            }
        ],
        "types": {
            "t_string_storage": {
                "encoding": "bytes",
                "label": "string",
                "numberOfBytes": "32"
            },
            "t_uint256": {
                "encoding": "inplace",
                "label": "uint256",
                "numberOfBytes": "32"
            },
            "t_uint8": {
                "encoding": "inplace",
                "label": "uint8",
                "numberOfBytes": "1"
            }
        }
    },
    "id": 23
}