{
  "abi": [
    {
      "type": "fallback",
      "stateMutability": "nonpayable"
    },
    {
      "type": "function",
      "name": "allowance",
      "inputs": [
        {
          "name": "owner",
          "type": "address",
          "internalType": "address"
        },
        {
          "name": "spender",
          "type": "address",
          "internalType": "address"
        }
      ],
      "outputs": [
        {
          "name": "",
          "type": "uint256",
          "internalType": "uint256"
        }
      ],
      "stateMutability": "view"
    },
    {
      "type": "function",
      "name": "allowancesAmounts",
      "inputs": [
        {
          "name": "",
          "type": "uint256",
          "internalType": "uint256"
        }
      ],
      "outputs": [
        {
          "name": "",
          "type": "uint256",
          "internalType": "uint256"
        }
      ],
      "stateMutability": "view"
    },
    {
      "type": "function",
      "name": "allowancesOwners",
      "inputs": [
        {
          "name": "",
          "type": "uint256",
          "internalType": "uint256"
        }
      ],
      "outputs": [
        {
          "name": "",
          "type": "address",
          "internalType": "address"
        }
      ],
      "stateMutability": "view"
    },
    {
      "type": "function",
      "name": "allowancesSpenders",
      "inputs": [
        {
          "name": "",
          "type": "uint256",
          "internalType": "uint256"
        }
      ],
      "outputs": [
        {
          "name": "",
          "type": "address",
          "internalType": "address"
        }
      ],
      "stateMutability": "view"
    },
    {
      "type": "function",
      "name": "approve",
      "inputs": [
        {
          "name": "spender",
          "type": "address",
          "internalType": "address"
        },
        {
          "name": "amount",
          "type": "uint256",
          "internalType": "uint256"
        }
      ],
      "outputs": [
        {
          "name": "",
          "type": "bool",
          "internalType": "bool"
        }
      ],
      "stateMutability": "nonpayable"
    },
    {
      "type": "function",
      "name": "associate",
      "inputs": [],
      "outputs": [],
      "stateMutability": "nonpayable"
    },
    {
      "type": "function",
      "name": "associatedAccounts",
      "inputs": [
        {
          "name": "",
          "type": "uint256",
          "internalType": "uint256"
        }
      ],
      "outputs": [
        {
          "name": "",
          "type": "address",
          "internalType": "address"
        }
      ],
      "stateMutability": "view"
    },
    {
      "type": "function",
      "name": "balanceOf",
      "inputs": [
        {
          "name": "account",
          "type": "address",
          "internalType": "address"
        }
      ],
      "outputs": [
        {
          "name": "",
          "type": "uint256",
          "internalType": "uint256"
        }
      ],
      "stateMutability": "view"
    },
    {
      "type": "function",
      "name": "balances",
      "inputs": [
        {
          "name": "",
          "type": "uint256",
          "internalType": "uint256"
        }
      ],
      "outputs": [
        {
          "name": "",
          "type": "uint256",
          "internalType": "uint256"
        }
      ],
      "stateMutability": "view"
    },
    {
      "type": "function",
      "name": "dissociate",
      "inputs": [],
      "outputs": [],
      "stateMutability": "nonpayable"
    },
    {
      "type": "function",
      "name": "holders",
      "inputs": [
        {
          "name": "",
          "type": "uint256",
          "internalType": "uint256"
        }
      ],
      "outputs": [
        {
          "name": "",
          "type": "address",
          "internalType": "address"
        }
      ],
      "stateMutability": "view"
    },
    {
      "type": "function",
      "name": "isAssociated",
      "inputs": [
        {
          "name": "account",
          "type": "address",
          "internalType": "address"
        }
      ],
      "outputs": [
        {
          "name": "",
          "type": "bool",
          "internalType": "bool"
        }
      ],
      "stateMutability": "view"
    },
    {
      "type": "function",
      "name": "transfer",
      "inputs": [
        {
          "name": "recipient",
          "type": "address",
          "internalType": "address"
        },
        {
          "name": "amount",
          "type": "uint256",
          "internalType": "uint256"
        }
      ],
      "outputs": [
        {
          "name": "",
          "type": "bool",
          "internalType": "bool"
        }
      ],
      "stateMutability": "nonpayable"
    },
    {
      "type": "function",
      "name": "transferFrom",
      "inputs": [
        {
          "name": "sender",
          "type": "address",
          "internalType": "address"
        },
        {
          "name": "recipient",
          "type": "address",
          "internalType": "address"
        },
        {
          "name": "amount",
          "type": "uint256",
          "internalType": "uint256"
        }
      ],
      "outputs": [
        {
          "name": "",
          "type": "bool",
          "internalType": "bool"
        }
      ],
      "stateMutability": "nonpayable"
    },
    {
      "type": "event",
      "name": "Approval",
      "inputs": [
        {
          "name": "owner",
          "type": "address",
          "indexed": true,
          "internalType": "address"
        },
        {
          "name": "spender",
          "type": "address",
          "indexed": true,
          "internalType": "address"
        },
        {
          "name": "value",
          "type": "uint256",
          "indexed": false,
          "internalType": "uint256"
        }
      ],
      "anonymous": false
    },
    {
      "type": "event",
      "name": "Associated",
      "inputs": [
        {
          "name": "account",
          "type": "address",
          "indexed": true,
          "internalType": "address"
        }
      ],
      "anonymous": false
    },
    {
      "type": "event",
      "name": "Dissociated",
      "inputs": [
        {
          "name": "account",
          "type": "address",
          "indexed": true,
          "internalType": "address"
        }
      ],
      "anonymous": false
    },
    {
      "type": "event",
      "name": "Transfer",
      "inputs": [
        {
          "name": "from",
          "type": "address",
          "indexed": true,
          "internalType": "address"
        },
        {
          "name": "to",
          "type": "address",
          "indexed": true,
          "internalType": "address"
        },
        {
          "name": "value",
          "type": "uint256",
          "indexed": false,
          "internalType": "uint256"
        }
      ],
      "anonymous": false
    }
  ],
  "bytecode": {
    "object": "0x6080604052348015600f57600080fd5b5061142e8061001f6000396000f3fe608060405234801561001057600080fd5b50600436106100ea5760003560e01c80635c9217e01161008c578063a32cfadf11610066578063a32cfadf14610313578063a9059cbb14610326578063d55fe58214610339578063dd62ed3e1461034c576100ea565b80635c9217e0146102e557806370a08231146102ed57806381f6463314610300576100ea565b806323b872dd116100c857806323b872dd1461028b5780632a11ced01461029e5780633e9bf494146102b15780634903b0d1146102c4576100ea565b8063095ea7b31461022e5780630a754de6146102565780631316589a14610260575b6000366060601c82101561013b5760405162461bcd60e51b81526020600482015260136024820152724e6f7420656e6f7567682063616c6c6461746160681b60448201526064015b60405180910390fd5b600061014a600482368161114f565b61015391611179565b60e01c905063618dc65e81146101ab5760405162461bcd60e51b815260206004820152601f60248201527f46616c6c6261636b2073656c6563746f72206e6f7420737570706f72746564006044820152606401610132565b60006101bb60186004368461114f565b6101c4916111b1565b60601c90503081146102185760405162461bcd60e51b815260206004820152601c60248201527f43616c6c6461746120746f6b656e206973206e6f742063616c6c6572000000006044820152606401610132565b61022061035f565b805195506020019350505050f35b61024161023c36600461120d565b61064d565b60405190151581526020015b60405180910390f35b61025e6107a9565b005b61027361026e366004611237565b610862565b6040516001600160a01b03909116815260200161024d565b610241610299366004611250565b61088c565b6102736102ac366004611237565b610bb5565b6102736102bf366004611237565b610bc5565b6102d76102d2366004611237565b610bd5565b60405190815260200161024d565b61025e610bf6565b6102d76102fb36600461128d565b610d96565b6102d761030e366004611237565b610e12565b610273610321366004611237565b610e22565b61024161033436600461120d565b610e32565b61024161034736600461128d565b611021565b6102d761035a3660046112af565b611039565b60606000610371601c6018368461114f565b61037a91611179565b905063f90221fd60e01b6001600160e01b03198216016103bb5760006040516020016103a691906112e2565b60405160208183030381529060405291505090565b63cec31a9960e01b6001600160e01b03198216016103ea576002546040805160ff9092166020830152016103a6565b63e7e9f22360e01b6001600160e01b0319821601610417576003546040516020016103a691815260200190565b636a2764bf60e01b6001600160e01b03198216016104415760016040516020016103a691906112e2565b638f5f7dcf60e01b6001600160e01b03198216016104a8576000610469603c6028368461114f565b610472916111b1565b60601c905061048081610d96565b60405160200161049291815260200190565b6040516020818303038152906040529250505090565b6356fa634560e01b6001600160e01b031982160161052b5760006104d0603c6028368461114f565b6104d9916111b1565b60601c905060006104ee605c603c368461114f565b8101906104fb9190611237565b90506105078282610e32565b60408051911515602083015201604051602081830303815290604052935050505090565b63f6a1584d60e01b6001600160e01b031982160161058a576000610553603c6028368461114f565b61055c916111b1565b60601c90506000610571605c603c368461114f565b81019061057e9190611237565b9050610507828261064d565b63114e896160e11b6001600160e01b03198216016105e85760006105b2603c6028368461114f565b6105bb916111b1565b60601c905060006105d06050603c368461114f565b6105d9916111b1565b60601c9050610507828261064d565b6315500d3f60e11b6001600160e01b0319821601610639576000610610603c6028368461114f565b610619916111b1565b60601c905061062781611021565b60408051911515602083015201610492565b505060408051602081019091526000815290565b60008061065b3360066110f2565b9050600061066a8560076110f2565b9050600019821415801561068057506000198114155b156106aa57836008838154811061069957610699611390565b60009182526020909120015561075b565b6006805460018082019092557ff652222313e28459528d920b65115c16c04f3efc82aaedc97be59f3f377c0d3f018054336001600160a01b031991821617909155600780548084019091557fa66cc928b5edb82af9bd49922954155ab7b0942694bea4ce44661d9a8736c6880180549091166001600160a01b0388161790556008805491820181556000527ff3f7a9fe364faab93b216da50a3214154f22a0a2b415b23a84c8169e8b636ee3018490555b6040518481526001600160a01b0386169033907f8c5be1e5ebec7d5bd14f71427d1e84f3dd0314c0f7b2291e5b200ac8c7c3b925906020015b60405180910390a36001925050505b92915050565b6107b233611021565b156107f45760405162461bcd60e51b8152602060048201526012602482015271105b1c9958591e48185cdcdbd8da585d195960721b6044820152606401610132565b6009805460018101825560009182527f6e1540171b6c0c960b71a7020d9f60077f6af931a8bbf590da0223dacf75c7af0180546001600160a01b0319163390811790915560405190917fda6345b38edaa845627162ea9f0d5b76b9cbfc7f140a8629708200f4640cffa791a2565b6006818154811061087257600080fd5b6000918252602090912001546001600160a01b0316905081565b60008061089a8560046110f2565b905060006108a93360076110f2565b905060001982036108ef5760405162461bcd60e51b815260206004820152601060248201526f14d95b99195c881b9bdd08199bdd5b9960821b6044820152606401610132565b856001600160a01b03166006828154811061090c5761090c611390565b6000918252602090912001546001600160a01b0316146109665760405162461bcd60e51b815260206004820152601560248201527414d95b99195c881b9bdd08185d5d1a1bdc9a5e9959605a1b6044820152606401610132565b836005838154811061097a5761097a611390565b906000526020600020015410156109ca5760405162461bcd60e51b8152602060048201526014602482015273496e73756666696369656e742062616c616e636560601b6044820152606401610132565b83600882815481106109de576109de611390565b90600052602060002001541015610a2c5760405162461bcd60e51b8152602060048201526012602482015271105b1b1bddd85b98d948195e18d95959195960721b6044820152606401610132565b8360058381548110610a4057610a40611390565b906000526020600020016000828254610a5991906113bc565b925050819055508360088281548110610a7457610a74611390565b906000526020600020016000828254610a8d91906113bc565b9091555060009050610aa08660046110f2565b90506000198103610b28576004805460018082019092557f8a35acfbc15ff81a39ae7d344fd709f28e8600b4aa8c65c6b64bfe7fe36bd19b0180546001600160a01b0319166001600160a01b0389161790556005805491820181556000527f036b6384b5eca791c62761152d0c79bb0604c104a5fb6f4eb0703f3154bb3db001859055610b5b565b8460058281548110610b3c57610b3c611390565b906000526020600020016000828254610b5591906113cf565b90915550505b856001600160a01b0316876001600160a01b03167fddf252ad1be2c89b69c2b068fc378daa952ba7f163c4a11628f55a4df523b3ef87604051610ba091815260200190565b60405180910390a35060019695505050505050565b6004818154811061087257600080fd5b6009818154811061087257600080fd5b60058181548110610be557600080fd5b600091825260209091200154905081565b610bff33611021565b610c3c5760405162461bcd60e51b815260206004820152600e60248201526d139bdd08185cdcdbd8da585d195960921b6044820152606401610132565b610c4533610d96565b15610ca25760405162461bcd60e51b815260206004820152602760248201527f43616e6e6f7420646973736f63696174652077697468206e6f6e2d7a65726f2060448201526662616c616e636560c81b6064820152608401610132565b6000610caf3360096110f2565b90506000198114610d685760098054610cca906001906113bc565b81548110610cda57610cda611390565b600091825260209091200154600980546001600160a01b039092169183908110610d0657610d06611390565b9060005260206000200160006101000a8154816001600160a01b0302191690836001600160a01b031602179055506009805480610d4557610d456113e2565b600082815260209020810160001990810180546001600160a01b03191690550190555b60405133907fa4cb7525a89db51eeba2c222d0023bdf55a07d3e2d2f12e33a35c5d1a94f339e90600090a250565b6000805b600454811015610e0957826001600160a01b031660048281548110610dc157610dc1611390565b6000918252602090912001546001600160a01b031603610e015760058181548110610dee57610dee611390565b9060005260206000200154915050919050565b600101610d9a565b50600092915050565b60088181548110610be557600080fd5b6007818154811061087257600080fd5b600080610e403360046110f2565b90506000198103610e865760405162461bcd60e51b815260206004820152601060248201526f14d95b99195c881b9bdd08199bdd5b9960821b6044820152606401610132565b8260058281548110610e9a57610e9a611390565b90600052602060002001541015610eea5760405162461bcd60e51b8152602060048201526014602482015273496e73756666696369656e742062616c616e636560601b6044820152606401610132565b6000610ef78560066110f2565b90506000198103610f7f576004805460018082019092557f8a35acfbc15ff81a39ae7d344fd709f28e8600b4aa8c65c6b64bfe7fe36bd19b0180546001600160a01b0319166001600160a01b0388161790556005805491820181556000527f036b6384b5eca791c62761152d0c79bb0604c104a5fb6f4eb0703f3154bb3db001849055610fb2565b8360058281548110610f9357610f93611390565b906000526020600020016000828254610fac91906113cf565b90915550505b8360058381548110610fc657610fc6611390565b906000526020600020016000828254610fdf91906113bc565b90915550506040518481526001600160a01b0386169033907fddf252ad1be2c89b69c2b068fc378daa952ba7f163c4a11628f55a4df523b3ef90602001610794565b60006000196110318360096110f2565b141592915050565b6000805b6006548110156110e857836001600160a01b03166006828154811061106457611064611390565b6000918252602090912001546001600160a01b03161480156110b55750826001600160a01b03166007828154811061109e5761109e611390565b6000918252602090912001546001600160a01b0316145b156110e057600881815481106110cd576110cd611390565b90600052602060002001549150506107a3565b60010161103d565b5060009392505050565b6000805b825481101561114457836001600160a01b031683828154811061111b5761111b611390565b6000918252602090912001546001600160a01b03160361113c5790506107a3565b6001016110f6565b506000199392505050565b6000808585111561115f57600080fd5b8386111561116c57600080fd5b5050820193919092039150565b80356001600160e01b031981169060048410156111aa576001600160e01b0319600485900360031b81901b82161691505b5092915050565b80356bffffffffffffffffffffffff1981169060148410156111aa576bffffffffffffffffffffffff1960149490940360031b84901b1690921692915050565b80356001600160a01b038116811461120857600080fd5b919050565b6000806040838503121561122057600080fd5b611229836111f1565b946020939093013593505050565b60006020828403121561124957600080fd5b5035919050565b60008060006060848603121561126557600080fd5b61126e846111f1565b925061127c602085016111f1565b929592945050506040919091013590565b60006020828403121561129f57600080fd5b6112a8826111f1565b9392505050565b600080604083850312156112c257600080fd5b6112cb836111f1565b91506112d9602084016111f1565b90509250929050565b602081526000808354818160011c9050600182168061130257607f821691505b60208210810361132057634e487b7160e01b84526022600452602484fd5b602086018290526040860181801561133f576001811461135557611383565b60ff198516825283151560051b82019550611383565b60008981526020902060005b8581101561137d57815484820152600190910190602001611361565b83019650505b5093979650505050505050565b634e487b7160e01b600052603260045260246000fd5b634e487b7160e01b600052601160045260246000fd5b818103818111156107a3576107a36113a6565b808201808211156107a3576107a36113a6565b634e487b7160e01b600052603160045260246000fdfea2646970667358221220d6c0cbd203fe8b637b4be7001492cbcac70623332edd7052a3a38fe27097c5c164736f6c634300081a0033",
    "linkReferences": {}
  },
  "methodIdentifiers": {
    "allowance(address,address)": "dd62ed3e",
    "allowancesAmounts(uint256)": "81f64633",
    "allowancesOwners(uint256)": "1316589a",
    "allowancesSpenders(uint256)": "a32cfadf",
    "approve(address,uint256)": "095ea7b3",
    "associate()": "0a754de6",
    "associatedAccounts(uint256)": "3e9bf494",
    "balanceOf(address)": "70a08231",
    "balances(uint256)": "4903b0d1",
    "dissociate()": "5c9217e0",
    "holders(uint256)": "2a11ced0",
    "isAssociated(address)": "d55fe582",
    "transfer(address,uint256)": "a9059cbb",
    "transferFrom(address,address,uint256)": "23b872dd"
  },
  "storageLayout": {
    "storage": [
      {
        "astId": 38989,
        "contract": "src/HtsSystemContract.sol:HtsSystemContract",
        "label": "name",
        "offset": 0,
        "slot": "0",
        "type": "t_string_storage"
      },
      {
        "astId": 38991,
        "contract": "src/HtsSystemContract.sol:HtsSystemContract",
        "label": "symbol",
        "offset": 0,
        "slot": "1",
        "type": "t_string_storage"
      },
      {
        "astId": 38993,
        "contract": "src/HtsSystemContract.sol:HtsSystemContract",
        "label": "decimals",
        "offset": 0,
        "slot": "2",
        "type": "t_uint8"
      },
      {
        "astId": 38995,
        "contract": "src/HtsSystemContract.sol:HtsSystemContract",
        "label": "totalSupply",
        "offset": 0,
        "slot": "3",
        "type": "t_uint256"
      },
      {
        "astId": 38998,
        "contract": "src/HtsSystemContract.sol:HtsSystemContract",
        "label": "holders",
        "offset": 0,
        "slot": "4",
        "type": "t_array(t_address)dyn_storage"
      },
      {
        "astId": 39001,
        "contract": "src/HtsSystemContract.sol:HtsSystemContract",
        "label": "balances",
        "offset": 0,
        "slot": "5",
        "type": "t_array(t_uint256)dyn_storage"
      },
      {
        "astId": 39004,
        "contract": "src/HtsSystemContract.sol:HtsSystemContract",
        "label": "allowancesOwners",
        "offset": 0,
        "slot": "6",
        "type": "t_array(t_address)dyn_storage"
      },
      {
        "astId": 39007,
        "contract": "src/HtsSystemContract.sol:HtsSystemContract",
        "label": "allowancesSpenders",
        "offset": 0,
        "slot": "7",
        "type": "t_array(t_address)dyn_storage"
      },
      {
        "astId": 39010,
        "contract": "src/HtsSystemContract.sol:HtsSystemContract",
        "label": "allowancesAmounts",
        "offset": 0,
        "slot": "8",
        "type": "t_array(t_uint256)dyn_storage"
      },
      {
        "astId": 39013,
        "contract": "src/HtsSystemContract.sol:HtsSystemContract",
        "label": "associatedAccounts",
        "offset": 0,
        "slot": "9",
        "type": "t_array(t_address)dyn_storage"
      }
    ],
    "types": {
      "t_address": {
        "encoding": "inplace",
        "label": "address",
        "numberOfBytes": "20"
      },
      "t_array(t_address)dyn_storage": {
        "encoding": "dynamic_array",
        "label": "address[]",
        "numberOfBytes": "32",
        "base": "t_address"
      },
      "t_array(t_uint256)dyn_storage": {
        "encoding": "dynamic_array",
        "label": "uint256[]",
        "numberOfBytes": "32",
        "base": "t_uint256"
      },
      "t_string_storage": {
        "encoding": "bytes",
        "label": "string",
        "numberOfBytes": "32"
      },
      "t_uint256": {
        "encoding": "inplace",
        "label": "uint256",
        "numberOfBytes": "32"
      },
      "t_uint8": {
        "encoding": "inplace",
        "label": "uint8",
        "numberOfBytes": "1"
      }
    }
  },
  "id": 23
}