{"abi":[{"type":"fallback","stateMutability":"nonpayable"},{"type":"function","name":"allowance","inputs":[{"name":"owner","type":"address","internalType":"address"},{"name":"spender","type":"address","internalType":"address"}],"outputs":[{"name":"","type":"uint256","internalType":"uint256"}],"stateMutability":"view"},{"type":"function","name":"allowancesAmounts","inputs":[{"name":"","type":"uint256","internalType":"uint256"}],"outputs":[{"name":"","type":"uint256","internalType":"uint256"}],"stateMutability":"view"},{"type":"function","name":"allowancesOwners","inputs":[{"name":"","type":"uint256","internalType":"uint256"}],"outputs":[{"name":"","type":"address","internalType":"address"}],"stateMutability":"view"},{"type":"function","name":"allowancesSpenders","inputs":[{"name":"","type":"uint256","internalType":"uint256"}],"outputs":[{"name":"","type":"address","internalType":"address"}],"stateMutability":"view"},{"type":"function","name":"approvals","inputs":[{"name":"","type":"uint256","internalType":"uint256"}],"outputs":[{"name":"","type":"address","internalType":"address"}],"stateMutability":"view"},{"type":"function","name":"approve","inputs":[{"name":"spender","type":"address","internalType":"address"},{"name":"amountOrTokenType","type":"uint256","internalType":"uint256"}],"outputs":[{"name":"","type":"bool","internalType":"bool"}],"stateMutability":"nonpayable"},{"type":"function","name":"associate","inputs":[],"outputs":[],"stateMutability":"nonpayable"},{"type":"function","name":"associatedAccounts","inputs":[{"name":"","type":"uint256","internalType":"uint256"}],"outputs":[{"name":"","type":"address","internalType":"address"}],"stateMutability":"view"},{"type":"function","name":"balanceOf","inputs":[{"name":"account","type":"address","internalType":"address"}],"outputs":[{"name":"","type":"uint256","internalType":"uint256"}],"stateMutability":"view"},{"type":"function","name":"balances","inputs":[{"name":"","type":"uint256","internalType":"uint256"}],"outputs":[{"name":"","type":"uint256","internalType":"uint256"}],"stateMutability":"view"},{"type":"function","name":"decimals","inputs":[],"outputs":[{"name":"","type":"uint8","internalType":"uint8"}],"stateMutability":"view"},{"type":"function","name":"dissociate","inputs":[],"outputs":[],"stateMutability":"nonpayable"},{"type":"function","name":"getApproved","inputs":[{"name":"tokenId","type":"uint256","internalType":"uint256"}],"outputs":[{"name":"operator","type":"address","internalType":"address"}],"stateMutability":"view"},{"type":"function","name":"holders","inputs":[{"name":"","type":"uint256","internalType":"uint256"}],"outputs":[{"name":"","type":"address","internalType":"address"}],"stateMutability":"view"},{"type":"function","name":"isApprovedForAll","inputs":[{"name":"owner","type":"address","internalType":"address"},{"name":"operator","type":"address","internalType":"address"}],"outputs":[{"name":"","type":"bool","internalType":"bool"}],"stateMutability":"view"},{"type":"function","name":"isAssociated","inputs":[{"name":"account","type":"address","internalType":"address"}],"outputs":[{"name":"","type":"bool","internalType":"bool"}],"stateMutability":"view"},{"type":"function","name":"name","inputs":[],"outputs":[{"name":"","type":"string","internalType":"string"}],"stateMutability":"view"},{"type":"function","name":"operatorAddresses","inputs":[{"name":"","type":"uint256","internalType":"uint256"}],"outputs":[{"name":"","type":"address","internalType":"address"}],"stateMutability":"view"},{"type":"function","name":"operatorApproved","inputs":[{"name":"","type":"uint256","internalType":"uint256"}],"outputs":[{"name":"","type":"bool","internalType":"bool"}],"stateMutability":"view"},{"type":"function","name":"ownerOf","inputs":[{"name":"tokenId","type":"uint256","internalType":"uint256"}],"outputs":[{"name":"owner","type":"address","internalType":"address"}],"stateMutability":"view"},{"type":"function","name":"owners","inputs":[{"name":"","type":"uint256","internalType":"uint256"}],"outputs":[{"name":"","type":"address","internalType":"address"}],"stateMutability":"view"},{"type":"function","name":"safeTransferFrom","inputs":[{"name":"from","type":"address","internalType":"address"},{"name":"to","type":"address","internalType":"address"},{"name":"tokenId","type":"uint256","internalType":"uint256"}],"outputs":[],"stateMutability":"nonpayable"},{"type":"function","name":"setApprovalForAll","inputs":[{"name":"operator","type":"address","internalType":"address"},{"name":"_approved","type":"bool","internalType":"bool"}],"outputs":[],"stateMutability":"nonpayable"},{"type":"function","name":"symbol","inputs":[],"outputs":[{"name":"","type":"string","internalType":"string"}],"stateMutability":"view"},{"type":"function","name":"tokenIds","inputs":[{"name":"","type":"uint256","internalType":"uint256"}],"outputs":[{"name":"","type":"uint256","internalType":"uint256"}],"stateMutability":"view"},{"type":"function","name":"tokenType","inputs":[],"outputs":[{"name":"","type":"string","internalType":"string"}],"stateMutability":"view"},{"type":"function","name":"totalSupply","inputs":[],"outputs":[{"name":"","type":"uint256","internalType":"uint256"}],"stateMutability":"view"},{"type":"function","name":"transfer","inputs":[{"name":"recipient","type":"address","internalType":"address"},{"name":"amountOrTokenId","type":"uint256","internalType":"uint256"}],"outputs":[{"name":"","type":"bool","internalType":"bool"}],"stateMutability":"nonpayable"},{"type":"function","name":"transferFrom","inputs":[{"name":"sender","type":"address","internalType":"address"},{"name":"recipient","type":"address","internalType":"address"},{"name":"amountOrTokenId","type":"uint256","internalType":"uint256"}],"outputs":[{"name":"","type":"bool","internalType":"bool"}],"stateMutability":"nonpayable"},{"type":"event","name":"Approval","inputs":[{"name":"owner","type":"address","indexed":true,"internalType":"address"},{"name":"spender","type":"address","indexed":true,"internalType":"address"},{"name":"valueOrTokenId","type":"uint256","indexed":false,"internalType":"uint256"}],"anonymous":false},{"type":"event","name":"ApprovalForAll","inputs":[{"name":"owner","type":"address","indexed":true,"internalType":"address"},{"name":"operator","type":"address","indexed":true,"internalType":"address"},{"name":"approved","type":"bool","indexed":false,"internalType":"bool"}],"anonymous":false},{"type":"event","name":"Associated","inputs":[{"name":"account","type":"address","indexed":true,"internalType":"address"}],"anonymous":false},{"type":"event","name":"Dissociated","inputs":[{"name":"account","type":"address","indexed":true,"internalType":"address"}],"anonymous":false},{"type":"event","name":"Transfer","inputs":[{"name":"from","type":"address","indexed":true,"internalType":"address"},{"name":"to","type":"address","indexed":true,"internalType":"address"},{"name":"valueOrTokenId","type":"uint256","indexed":false,"internalType":"uint256"}],"anonymous":false}],"bytecode":{"object":"0x6080604052348015600f57600080fd5b506122188061001f6000396000f3fe608060405234801561001057600080fd5b50600436106101cf5760003560e01c80635c9217e011610104578063a1f3e252116100a2578063d55fe58211610071578063d55fe582146104ad578063d58778d6146104c0578063dd62ed3e146104d3578063e985e9c5146104e6576101cf565b8063a1f3e25214610461578063a22cb46514610474578063a32cfadf14610487578063a9059cbb1461049a576101cf565b806370a08231116100de57806370a08231146104205780637792a0351461043357806381f646331461044657806395d89b4114610459576101cf565b80635c9217e0146103f257806363035f66146103fa5780636352211e1461040d576101cf565b806323b872dd11610171578063313ce5671161014b578063313ce5671461039a5780633e9bf494146103b957806342842e0e146103cc5780634903b0d1146103df576101cf565b806323b872dd1461036c5780632a11ced01461037f57806330fa738c14610392576101cf565b8063095ea7b3116101ad578063095ea7b3146103155780630a754de6146103385780631316589a1461034257806318160ddd14610355576101cf565b8063025e7c27146102bd57806306fdde03146102ed578063081812fc14610302575b6000366060826101e26004828581611d4c565b6101eb91611d76565b60e01c90506000610200601860043684611d4c565b61020991611dae565b60601c9050600061021d3660188184611d4c565b8080601f016020809104026020016040519081016040528093929190818152602001838380828437600092019190915250929350505063618dc65e84900390506102755761026b82826104f9565b93505050506102b2565b60405162461bcd60e51b815260206004820152600d60248201526c139bdd081cdd5c1c1bdc9d1959609a1b60448201526064015b60405180910390fd5b915050805190602001f35b6102d06102cb366004611de4565b610875565b6040516001600160a01b0390911681526020015b60405180910390f35b6102f561089f565b6040516102e49190611dfd565b6102d0610310366004611de4565b61092d565b610328610323366004611e67565b61098b565b60405190151581526020016102e4565b610340610c38565b005b6102d0610350366004611de4565b610cf1565b61035e60045481565b6040519081526020016102e4565b61032861037a366004611e91565b610d01565b6102d061038d366004611de4565b6111c4565b6102f56111d4565b6003546103a79060ff1681565b60405160ff90911681526020016102e4565b6102d06103c7366004611de4565b6111e1565b6103406103da366004611e91565b6111f1565b61035e6103ed366004611de4565b611202565b610340611223565b6102d0610408366004611de4565b6113c3565b6102d061041b366004611de4565b6113d3565b61035e61042e366004611ece565b611415565b6102d0610441366004611de4565b61145c565b61035e610454366004611de4565b61146c565b6102f561147c565b61032861046f366004611de4565b611489565b610340610482366004611ee9565b6114bd565b6102d0610495366004611de4565b6115f7565b6103286104a8366004611e67565b611607565b6103286104bb366004611ece565b611a49565b61035e6104ce366004611de4565b611a61565b61035e6104e1366004611f25565b611a71565b6103286104f4366004611f25565b611b2a565b6060600061050b601c60183684611d4c565b61051491611d76565b905063f90221fd60e01b6001600160e01b03198216016105575760016040516020016105409190611f92565b60405160208183030381529060405291505061086f565b63cec31a9960e01b6001600160e01b0319821601610586576003546040805160ff909216602083015201610540565b63e7e9f22360e01b6001600160e01b03198216016105b35760045460405160200161054091815260200190565b636a2764bf60e01b6001600160e01b03198216016105dd5760026040516020016105409190611f92565b6333c1631d60e21b6001600160e01b03198216016106075760006040516020016105409190611f92565b638f5f7dcf60e01b6001600160e01b031982160161067057600061062f603c60283684611d4c565b61063891611dae565b60601c905061064681611415565b60405160200161065891815260200190565b6040516020818303038152906040529250505061086f565b6356fa634560e01b6001600160e01b03198216016106f5576000610698603c60283684611d4c565b6106a191611dae565b60601c905060006106b6605c603c3684611d4c565b8101906106c39190611de4565b90506106cf8282611607565b60408051911515602083015201604051602081830303815290604052935050505061086f565b63f6a1584d60e01b6001600160e01b031982160161075457600061071d603c60283684611d4c565b61072691611dae565b60601c9050600061073b605c603c3684611d4c565b8101906107489190611de4565b90506106cf828261098b565b63114e896160e11b6001600160e01b03198216016107b257600061077c603c60283684611d4c565b61078591611dae565b60601c9050600061079a6050603c3684611d4c565b6107a391611dae565b60601c90506106cf828261098b565b6315500d3f60e11b6001600160e01b03198216016108035760006107da603c60283684611d4c565b6107e391611dae565b60601c90506107f181611a49565b60408051911515602083015201610658565b634e56ef7160e11b6001600160e01b031982160161085d57600061082b603c601c3684611d4c565b8101906108389190611de4565b9050610843816113d3565b604080516001600160a01b03909216602083015201610658565b50506040805160208101909152600081525b92915050565b600c818154811061088557600080fd5b6000918252602090912001546001600160a01b0316905081565b600180546108ac90611f58565b80601f01602080910402602001604051908101604052809291908181526020018280546108d890611f58565b80156109255780601f106108fa57610100808354040283529160200191610925565b820191906000526020600020905b81548152906001019060200180831161090857829003601f168201915b505050505081565b60008061093983611ba0565b9050600019810361095c5760405162461bcd60e51b81526004016102a99061201e565b600d818154811061096f5761096f612047565b6000918252602090912001546001600160a01b03169392505050565b6000610995611bea565b15610af35760006109a7336007611c4f565b905060006109b6856008611c4f565b905060001982141580156109cc57506000198114155b156109f65783600983815481106109e5576109e5612047565b600091825260209091200155610aa7565b6007805460018082019092557fa66cc928b5edb82af9bd49922954155ab7b0942694bea4ce44661d9a8736c688018054336001600160a01b031991821617909155600880548084019091557ff3f7a9fe364faab93b216da50a3214154f22a0a2b415b23a84c8169e8b636ee30180549091166001600160a01b0388161790556009805491820181556000527f6e1540171b6c0c960b71a7020d9f60077f6af931a8bbf590da0223dacf75c7af018490555b6040518481526001600160a01b0386169033907f8c5be1e5ebec7d5bd14f71427d1e84f3dd0314c0f7b2291e5b200ac8c7c3b925906020015b60405180910390a360019250505061086f565b610afb611cac565b15610bf0576000610b0b83611ba0565b90506000198103610b2e5760405162461bcd60e51b81526004016102a99061201e565b336001600160a01b0316600c8281548110610b4b57610b4b612047565b6000918252602090912001546001600160a01b031614610b7d5760405162461bcd60e51b81526004016102a99061205d565b83600d8281548110610b9157610b91612047565b60009182526020918290200180546001600160a01b0319166001600160a01b039384161790556040518581529186169133917f8c5be1e5ebec7d5bd14f71427d1e84f3dd0314c0f7b2291e5b200ac8c7c3b925910160405180910390a3505b60405162461bcd60e51b815260206004820152601b60248201527f546f6b656e2074797065206973206e6f7420737570706f72746564000000000060448201526064016102a9565b610c4133611a49565b15610c835760405162461bcd60e51b8152602060048201526012602482015271105b1c9958591e48185cdcdbd8da585d195960721b60448201526064016102a9565b600a805460018101825560009182527fc65a7bb8d6351c1cf70c95a316cc6a92839c986682d98bc35f958f4883f9d2a80180546001600160a01b0319163390811790915560405190917fda6345b38edaa845627162ea9f0d5b76b9cbfc7f140a8629708200f4640cffa791a2565b6007818154811061088557600080fd5b6000610d0b611bea565b15611025576000610d1d856005611c4f565b90506000610d2c336008611c4f565b90506000198203610d725760405162461bcd60e51b815260206004820152601060248201526f14d95b99195c881b9bdd08199bdd5b9960821b60448201526064016102a9565b856001600160a01b031660078281548110610d8f57610d8f612047565b6000918252602090912001546001600160a01b031614610de95760405162461bcd60e51b815260206004820152601560248201527414d95b99195c881b9bdd08185d5d1a1bdc9a5e9959605a1b60448201526064016102a9565b8360068381548110610dfd57610dfd612047565b90600052602060002001541015610e4d5760405162461bcd60e51b8152602060048201526014602482015273496e73756666696369656e742062616c616e636560601b60448201526064016102a9565b8360098281548110610e6157610e61612047565b90600052602060002001541015610eaf5760405162461bcd60e51b8152602060048201526012602482015271105b1b1bddd85b98d948195e18d95959195960721b60448201526064016102a9565b8360068381548110610ec357610ec3612047565b906000526020600020016000828254610edc919061209c565b925050819055508360098281548110610ef757610ef7612047565b906000526020600020016000828254610f10919061209c565b9091555060009050610f23866005611c4f565b90506000198103610fab576005805460018082019092557f036b6384b5eca791c62761152d0c79bb0604c104a5fb6f4eb0703f3154bb3db00180546001600160a01b0319166001600160a01b0389161790556006805491820181556000527ff652222313e28459528d920b65115c16c04f3efc82aaedc97be59f3f377c0d3f01859055610fde565b8460068281548110610fbf57610fbf612047565b906000526020600020016000828254610fd891906120af565b90915550505b856001600160a01b0316876001600160a01b03166000805160206121c38339815191528760405161101191815260200190565b60405180910390a3600193505050506111bd565b61102d611cac565b15610bf057600061103d83611ba0565b905060001981036110605760405162461bcd60e51b81526004016102a99061201e565b336001600160a01b0316600c828154811061107d5761107d612047565b6000918252602090912001546001600160a01b0316146110af5760405162461bcd60e51b81526004016102a99061205d565b600d81815481106110c2576110c2612047565b6000918252602090912001546001600160a01b031633146111145760405162461bcd60e51b815260206004820152600c60248201526b139bdd08185c1c1c9bdd995960a21b60448201526064016102a9565b83600c828154811061112857611128612047565b9060005260206000200160006101000a8154816001600160a01b0302191690836001600160a01b031602179055506000600d828154811061116b5761116b612047565b60009182526020918290200180546001600160a01b0319166001600160a01b03938416179055604051858152868316928816916000805160206121c3833981519152910160405180910390a360019150505b9392505050565b6005818154811061088557600080fd5b600080546108ac90611f58565b600a818154811061088557600080fd5b6111fc838383610d01565b50505050565b6006818154811061121257600080fd5b600091825260209091200154905081565b61122c33611a49565b6112695760405162461bcd60e51b815260206004820152600e60248201526d139bdd08185cdcdbd8da585d195960921b60448201526064016102a9565b61127233611415565b156112cf5760405162461bcd60e51b815260206004820152602760248201527f43616e6e6f7420646973736f63696174652077697468206e6f6e2d7a65726f2060448201526662616c616e636560c81b60648201526084016102a9565b60006112dc33600a611c4f565b9050600019811461139557600a80546112f79060019061209c565b8154811061130757611307612047565b600091825260209091200154600a80546001600160a01b03909216918390811061133357611333612047565b9060005260206000200160006101000a8154816001600160a01b0302191690836001600160a01b03160217905550600a805480611372576113726120c2565b600082815260209020810160001990810180546001600160a01b03191690550190555b60405133907fa4cb7525a89db51eeba2c222d0023bdf55a07d3e2d2f12e33a35c5d1a94f339e90600090a250565b600d818154811061088557600080fd5b6000806113df83611ba0565b905060001981036114025760405162461bcd60e51b81526004016102a99061201e565b600c818154811061096f5761096f612047565b6040516000906370a0823160e01b908290819061143a908490839088906020016120d8565b60405160208183030381529060405261145290612114565b5495945050505050565b600e818154811061088557600080fd5b6009818154811061121257600080fd5b600280546108ac90611f58565b600f818154811061149957600080fd5b9060005260206000209060209182820401919006915054906101000a900460ff1681565b60006114ca83600e611c4f565b9050600019810361157257600e805460018082019092557fbb7b4a454dc3493923482f07822329ed19e8244eff582cc204f8554c3620c3fd0180546001600160a01b0319166001600160a01b038616179055600f805491820181556000527f8d1108e10bcb7c27dddfc02ed9d693a074039d026cf4ea4240b40f7d581ac8026020820401805460ff601f9093166101000a9283021916841515929092029190911790556115b0565b81600f828154811061158657611586612047565b90600052602060002090602091828204019190066101000a81548160ff0219169083151502179055505b60405182151581526001600160a01b0384169033907f17307eab39ab6107e8899845ad3d59bd9653f200f220920489ca2b5937696c319060200160405180910390a3505050565b6008818154811061088557600080fd5b6000611611611bea565b1561183d576000611623336005611c4f565b905060001981036116695760405162461bcd60e51b815260206004820152601060248201526f14d95b99195c881b9bdd08199bdd5b9960821b60448201526064016102a9565b826006828154811061167d5761167d612047565b906000526020600020015410156116cd5760405162461bcd60e51b8152602060048201526014602482015273496e73756666696369656e742062616c616e636560601b60448201526064016102a9565b60006116da856007611c4f565b9050600019810361176c576005805460018082019092557f036b6384b5eca791c62761152d0c79bb0604c104a5fb6f4eb0703f3154bb3db00180546001600160a01b0319166001600160a01b0388161790556006805491820181556000527ff652222313e28459528d920b65115c16c04f3efc82aaedc97be59f3f377c0d3f018490556117678585611d07565b6117c7565b836006828154811061178057611780612047565b90600052602060002001600082825461179991906120af565b925050819055506117c785600683815481106117b7576117b7612047565b9060005260206000200154611d07565b83600683815481106117db576117db612047565b9060005260206000200160008282546117f4919061209c565b9250508190555061181233600684815481106117b7576117b7612047565b6040518481526001600160a01b0386169033906000805160206121c383398151915290602001610ae0565b611845611cac565b15610bf057600061185583611ba0565b905060001981036118785760405162461bcd60e51b81526004016102a99061201e565b336001600160a01b0316600c828154811061189557611895612047565b6000918252602090912001546001600160a01b031614806118dc5750600d81815481106118c4576118c4612047565b6000918252602090912001546001600160a01b031633145b806118ec57506118ec3333611b2a565b6119085760405162461bcd60e51b81526004016102a99061205d565b83600c828154811061191c5761191c612047565b6000918252602082200180546001600160a01b0319166001600160a01b03939093169290921790915580805b600c5481101561199f57336001600160a01b0316600c828154811061196f5761196f612047565b6000918252602090912001546001600160a01b031603611997578261199381612138565b9350505b600101611948565b5060005b600c548110156119fa57866001600160a01b0316600c82815481106119ca576119ca612047565b6000918252602090912001546001600160a01b0316036119f257816119ee81612138565b9250505b6001016119a3565b50611a058682611d07565b611a0f3383611d07565b6040518581526001600160a01b0387169033906000805160206121c38339815191529060200160405180910390a36001935050505061086f565b6000600019611a5983600a611c4f565b141592915050565b600b818154811061121257600080fd5b6000805b600754811015611b2057836001600160a01b031660078281548110611a9c57611a9c612047565b6000918252602090912001546001600160a01b0316148015611aed5750826001600160a01b031660088281548110611ad657611ad6612047565b6000918252602090912001546001600160a01b0316145b15611b185760098181548110611b0557611b05612047565b906000526020600020015491505061086f565b600101611a75565b5060009392505050565b6000826001600160a01b0316826001600160a01b031603611b4d5750600161086f565b6000611b5a83600e611c4f565b90506000198114611b2057600f8181548110611b7857611b78612047565b90600052602060002090602091828204019190069054906101000a900460ff1691505061086f565b6000805b600b54811015611be05782600b8281548110611bc257611bc2612047565b906000526020600020015403611bd85792915050565b600101611ba4565b5060001992915050565b604080518082018252600f81526e232aa723a4a12622afa1a7a6a6a7a760891b602090910152516000907f20081d23699eb901ca16307080f9b35e7967740755a921f749a9e037b0875c7590611c41908390612151565b604051809103902014905090565b6000805b8254811015611ca157836001600160a01b0316838281548110611c7857611c78612047565b6000918252602090912001546001600160a01b031603611c9957905061086f565b600101611c53565b506000199392505050565b60408051808201825260138152724e4f4e5f46554e4749424c455f554e4951554560681b602090910152516000907f6c58a12b113a1ee77f554495d8bd48a419af104bca196099cdecc39fcb8989f090611c41908390612151565b6040516370a0823160e01b906000908190611d2a908490839088906020016120d8565b604051602081830303815290604052611d4290612114565b9390935550505050565b60008085851115611d5c57600080fd5b83861115611d6957600080fd5b5050820193919092039150565b80356001600160e01b03198116906004841015611da7576001600160e01b0319600485900360031b81901b82161691505b5092915050565b80356001600160601b03198116906014841015611da7576001600160601b031960149490940360031b84901b1690921692915050565b600060208284031215611df657600080fd5b5035919050565b602081526000825180602084015260005b81811015611e2b5760208186018101516040868401015201611e0e565b506000604082850101526040601f19601f83011684010191505092915050565b80356001600160a01b0381168114611e6257600080fd5b919050565b60008060408385031215611e7a57600080fd5b611e8383611e4b565b946020939093013593505050565b600080600060608486031215611ea657600080fd5b611eaf84611e4b565b9250611ebd60208501611e4b565b929592945050506040919091013590565b600060208284031215611ee057600080fd5b6111bd82611e4b565b60008060408385031215611efc57600080fd5b611f0583611e4b565b915060208301358015158114611f1a57600080fd5b809150509250929050565b60008060408385031215611f3857600080fd5b611f4183611e4b565b9150611f4f60208401611e4b565b90509250929050565b600181811c90821680611f6c57607f821691505b602082108103611f8c57634e487b7160e01b600052602260045260246000fd5b50919050565b602081526000808354611fa481611f58565b8060208601526001821660008114611fc35760018114611fdf57612013565b60ff1983166040870152604082151560051b8701019350612013565b86600052602060002060005b8381101561200a57815488820160400152600190910190602001611feb565b87016040019450505b509195945050505050565b6020808252600f908201526e151bdad95b881b9bdd08199bdd5b99608a1b604082015260600190565b634e487b7160e01b600052603260045260246000fd5b6020808252600f908201526e2737ba103a37b5b2b71037bbb732b960891b604082015260600190565b634e487b7160e01b600052601160045260246000fd5b8181038181111561086f5761086f612086565b8082018082111561086f5761086f612086565b634e487b7160e01b600052603160045260246000fd5b6001600160e01b031993909316835260c09190911b6001600160c01b031916600483015260601b6001600160601b031916600c82015260200190565b80516020808301519190811015611f8c5760001960209190910360031b1b16919050565b60006001820161214a5761214a612086565b5060010190565b600080835461215f81611f58565b600182168015612176576001811461218b57612013565b60ff1983168652811515820286019350612013565b86600052602060002060005b838110156121b357815488820152600190910190602001612197565b5050509390930194935050505056feddf252ad1be2c89b69c2b068fc378daa952ba7f163c4a11628f55a4df523b3efa2646970667358221220dc6a0c7f9895e5c02655404bc1804cb0a43188c75aaa1cb3488ae23123e1218264736f6c634300081a0033","linkReferences":{}},"methodIdentifiers":{"allowance(address,address)":"dd62ed3e","allowancesAmounts(uint256)":"81f64633","allowancesOwners(uint256)":"1316589a","allowancesSpenders(uint256)":"a32cfadf","approvals(uint256)":"63035f66","approve(address,uint256)":"095ea7b3","associate()":"0a754de6","associatedAccounts(uint256)":"3e9bf494","balanceOf(address)":"70a08231","balances(uint256)":"4903b0d1","decimals()":"313ce567","dissociate()":"5c9217e0","getApproved(uint256)":"081812fc","holders(uint256)":"2a11ced0","isApprovedForAll(address,address)":"e985e9c5","isAssociated(address)":"d55fe582","name()":"06fdde03","operatorAddresses(uint256)":"7792a035","operatorApproved(uint256)":"a1f3e252","ownerOf(uint256)":"6352211e","owners(uint256)":"025e7c27","safeTransferFrom(address,address,uint256)":"42842e0e","setApprovalForAll(address,bool)":"a22cb465","symbol()":"95d89b41","tokenIds(uint256)":"d58778d6","tokenType()":"30fa738c","totalSupply()":"18160ddd","transfer(address,uint256)":"a9059cbb","transferFrom(address,address,uint256)":"23b872dd"},"storageLayout":{"storage":[{"astId":8132,"contract":"src/HtsSystemContract.sol:HtsSystemContract","label":"tokenType","offset":0,"slot":"0","type":"t_string_storage"},{"astId":8134,"contract":"src/HtsSystemContract.sol:HtsSystemContract","label":"name","offset":0,"slot":"1","type":"t_string_storage"},{"astId":8136,"contract":"src/HtsSystemContract.sol:HtsSystemContract","label":"symbol","offset":0,"slot":"2","type":"t_string_storage"},{"astId":8138,"contract":"src/HtsSystemContract.sol:HtsSystemContract","label":"decimals","offset":0,"slot":"3","type":"t_uint8"},{"astId":8140,"contract":"src/HtsSystemContract.sol:HtsSystemContract","label":"totalSupply","offset":0,"slot":"4","type":"t_uint256"},{"astId":8143,"contract":"src/HtsSystemContract.sol:HtsSystemContract","label":"holders","offset":0,"slot":"5","type":"t_array(t_address)dyn_storage"},{"astId":8146,"contract":"src/HtsSystemContract.sol:HtsSystemContract","label":"balances","offset":0,"slot":"6","type":"t_array(t_uint256)dyn_storage"},{"astId":8149,"contract":"src/HtsSystemContract.sol:HtsSystemContract","label":"allowancesOwners","offset":0,"slot":"7","type":"t_array(t_address)dyn_storage"},{"astId":8152,"contract":"src/HtsSystemContract.sol:HtsSystemContract","label":"allowancesSpenders","offset":0,"slot":"8","type":"t_array(t_address)dyn_storage"},{"astId":8155,"contract":"src/HtsSystemContract.sol:HtsSystemContract","label":"allowancesAmounts","offset":0,"slot":"9","type":"t_array(t_uint256)dyn_storage"},{"astId":8158,"contract":"src/HtsSystemContract.sol:HtsSystemContract","label":"associatedAccounts","offset":0,"slot":"10","type":"t_array(t_address)dyn_storage"},{"astId":8161,"contract":"src/HtsSystemContract.sol:HtsSystemContract","label":"tokenIds","offset":0,"slot":"11","type":"t_array(t_uint256)dyn_storage"},{"astId":8164,"contract":"src/HtsSystemContract.sol:HtsSystemContract","label":"owners","offset":0,"slot":"12","type":"t_array(t_address)dyn_storage"},{"astId":8167,"contract":"src/HtsSystemContract.sol:HtsSystemContract","label":"approvals","offset":0,"slot":"13","type":"t_array(t_address)dyn_storage"},{"astId":8170,"contract":"src/HtsSystemContract.sol:HtsSystemContract","label":"operatorAddresses","offset":0,"slot":"14","type":"t_array(t_address)dyn_storage"},{"astId":8173,"contract":"src/HtsSystemContract.sol:HtsSystemContract","label":"operatorApproved","offset":0,"slot":"15","type":"t_array(t_bool)dyn_storage"}],"types":{"t_address":{"encoding":"inplace","label":"address","numberOfBytes":"20"},"t_array(t_address)dyn_storage":{"encoding":"dynamic_array","label":"address[]","numberOfBytes":"32","base":"t_address"},"t_array(t_bool)dyn_storage":{"encoding":"dynamic_array","label":"bool[]","numberOfBytes":"32","base":"t_bool"},"t_array(t_uint256)dyn_storage":{"encoding":"dynamic_array","label":"uint256[]","numberOfBytes":"32","base":"t_uint256"},"t_bool":{"encoding":"inplace","label":"bool","numberOfBytes":"1"},"t_string_storage":{"encoding":"bytes","label":"string","numberOfBytes":"32"},"t_uint256":{"encoding":"inplace","label":"uint256","numberOfBytes":"32"},"t_uint8":{"encoding":"inplace","label":"uint8","numberOfBytes":"1"}}},"id":1}