{
  "abi": [
    {
      "type": "fallback",
      "stateMutability": "nonpayable"
    },
    {
      "type": "function",
      "name": "allowance",
      "inputs": [
        {
          "name": "owner",
          "type": "address",
          "internalType": "address"
        },
        {
          "name": "spender",
          "type": "address",
          "internalType": "address"
        }
      ],
      "outputs": [
        {
          "name": "",
          "type": "uint256",
          "internalType": "uint256"
        }
      ],
      "stateMutability": "view"
    },
    {
      "type": "function",
      "name": "allowancesAmounts",
      "inputs": [
        {
          "name": "",
          "type": "uint256",
          "internalType": "uint256"
        }
      ],
      "outputs": [
        {
          "name": "",
          "type": "uint256",
          "internalType": "uint256"
        }
      ],
      "stateMutability": "view"
    },
    {
      "type": "function",
      "name": "allowancesOwners",
      "inputs": [
        {
          "name": "",
          "type": "uint256",
          "internalType": "uint256"
        }
      ],
      "outputs": [
        {
          "name": "",
          "type": "address",
          "internalType": "address"
        }
      ],
      "stateMutability": "view"
    },
    {
      "type": "function",
      "name": "allowancesSpenders",
      "inputs": [
        {
          "name": "",
          "type": "uint256",
          "internalType": "uint256"
        }
      ],
      "outputs": [
        {
          "name": "",
          "type": "address",
          "internalType": "address"
        }
      ],
      "stateMutability": "view"
    },
    {
      "type": "function",
      "name": "approvals",
      "inputs": [
        {
          "name": "",
          "type": "uint256",
          "internalType": "uint256"
        }
      ],
      "outputs": [
        {
          "name": "",
          "type": "address",
          "internalType": "address"
        }
      ],
      "stateMutability": "view"
    },
    {
      "type": "function",
      "name": "approve",
      "inputs": [
        {
          "name": "spender",
          "type": "address",
          "internalType": "address"
        },
        {
          "name": "amountOrTokenType",
          "type": "uint256",
          "internalType": "uint256"
        }
      ],
      "outputs": [
        {
          "name": "",
          "type": "bool",
          "internalType": "bool"
        }
      ],
      "stateMutability": "nonpayable"
    },
    {
      "type": "function",
      "name": "associate",
      "inputs": [],
      "outputs": [],
      "stateMutability": "nonpayable"
    },
    {
      "type": "function",
      "name": "associatedAccounts",
      "inputs": [
        {
          "name": "",
          "type": "uint256",
          "internalType": "uint256"
        }
      ],
      "outputs": [
        {
          "name": "",
          "type": "address",
          "internalType": "address"
        }
      ],
      "stateMutability": "view"
    },
    {
      "type": "function",
      "name": "balanceOf",
      "inputs": [
        {
          "name": "account",
          "type": "address",
          "internalType": "address"
        }
      ],
      "outputs": [
        {
          "name": "",
          "type": "uint256",
          "internalType": "uint256"
        }
      ],
      "stateMutability": "view"
    },
    {
      "type": "function",
      "name": "balances",
      "inputs": [
        {
          "name": "",
          "type": "uint256",
          "internalType": "uint256"
        }
      ],
      "outputs": [
        {
          "name": "",
          "type": "uint256",
          "internalType": "uint256"
        }
      ],
      "stateMutability": "view"
    },
    {
      "type": "function",
      "name": "decimals",
      "inputs": [],
      "outputs": [
        {
          "name": "",
          "type": "uint8",
          "internalType": "uint8"
        }
      ],
      "stateMutability": "view"
    },
    {
      "type": "function",
      "name": "dissociate",
      "inputs": [],
      "outputs": [],
      "stateMutability": "nonpayable"
    },
    {
      "type": "function",
      "name": "getApproved",
      "inputs": [
        {
          "name": "tokenId",
          "type": "uint256",
          "internalType": "uint256"
        }
      ],
      "outputs": [
        {
          "name": "operator",
          "type": "address",
          "internalType": "address"
        }
      ],
      "stateMutability": "view"
    },
    {
      "type": "function",
      "name": "holders",
      "inputs": [
        {
          "name": "",
          "type": "uint256",
          "internalType": "uint256"
        }
      ],
      "outputs": [
        {
          "name": "",
          "type": "address",
          "internalType": "address"
        }
      ],
      "stateMutability": "view"
    },
    {
      "type": "function",
      "name": "isApprovedForAll",
      "inputs": [
        {
          "name": "owner",
          "type": "address",
          "internalType": "address"
        },
        {
          "name": "operator",
          "type": "address",
          "internalType": "address"
        }
      ],
      "outputs": [
        {
          "name": "",
          "type": "bool",
          "internalType": "bool"
        }
      ],
      "stateMutability": "view"
    },
    {
      "type": "function",
      "name": "isAssociated",
      "inputs": [
        {
          "name": "account",
          "type": "address",
          "internalType": "address"
        }
      ],
      "outputs": [
        {
          "name": "",
          "type": "bool",
          "internalType": "bool"
        }
      ],
      "stateMutability": "view"
    },
    {
      "type": "function",
      "name": "name",
      "inputs": [],
      "outputs": [
        {
          "name": "",
          "type": "string",
          "internalType": "string"
        }
      ],
      "stateMutability": "view"
    },
    {
      "type": "function",
      "name": "operatorAddresses",
      "inputs": [
        {
          "name": "",
          "type": "uint256",
          "internalType": "uint256"
        }
      ],
      "outputs": [
        {
          "name": "",
          "type": "address",
          "internalType": "address"
        }
      ],
      "stateMutability": "view"
    },
    {
      "type": "function",
      "name": "operatorApproved",
      "inputs": [
        {
          "name": "",
          "type": "uint256",
          "internalType": "uint256"
        }
      ],
      "outputs": [
        {
          "name": "",
          "type": "bool",
          "internalType": "bool"
        }
      ],
      "stateMutability": "view"
    },
    {
      "type": "function",
      "name": "ownerOf",
      "inputs": [
        {
          "name": "tokenId",
          "type": "uint256",
          "internalType": "uint256"
        }
      ],
      "outputs": [
        {
          "name": "owner",
          "type": "address",
          "internalType": "address"
        }
      ],
      "stateMutability": "view"
    },
    {
      "type": "function",
      "name": "owners",
      "inputs": [
        {
          "name": "",
          "type": "uint256",
          "internalType": "uint256"
        }
      ],
      "outputs": [
        {
          "name": "",
          "type": "address",
          "internalType": "address"
        }
      ],
      "stateMutability": "view"
    },
    {
      "type": "function",
      "name": "safeTransferFrom",
      "inputs": [
        {
          "name": "from",
          "type": "address",
          "internalType": "address"
        },
        {
          "name": "to",
          "type": "address",
          "internalType": "address"
        },
        {
          "name": "tokenId",
          "type": "uint256",
          "internalType": "uint256"
        }
      ],
      "outputs": [],
      "stateMutability": "nonpayable"
    },
    {
      "type": "function",
      "name": "setApprovalForAll",
      "inputs": [
        {
          "name": "operator",
          "type": "address",
          "internalType": "address"
        },
        {
          "name": "_approved",
          "type": "bool",
          "internalType": "bool"
        }
      ],
      "outputs": [],
      "stateMutability": "nonpayable"
    },
    {
      "type": "function",
      "name": "symbol",
      "inputs": [],
      "outputs": [
        {
          "name": "",
          "type": "string",
          "internalType": "string"
        }
      ],
      "stateMutability": "view"
    },
    {
      "type": "function",
      "name": "tokenIds",
      "inputs": [
        {
          "name": "",
          "type": "uint256",
          "internalType": "uint256"
        }
      ],
      "outputs": [
        {
          "name": "",
          "type": "uint256",
          "internalType": "uint256"
        }
      ],
      "stateMutability": "view"
    },
    {
      "type": "function",
      "name": "tokenType",
      "inputs": [],
      "outputs": [
        {
          "name": "",
          "type": "string",
          "internalType": "string"
        }
      ],
      "stateMutability": "view"
    },
    {
      "type": "function",
      "name": "totalSupply",
      "inputs": [],
      "outputs": [
        {
          "name": "",
          "type": "uint256",
          "internalType": "uint256"
        }
      ],
      "stateMutability": "view"
    },
    {
      "type": "function",
      "name": "transfer",
      "inputs": [
        {
          "name": "recipient",
          "type": "address",
          "internalType": "address"
        },
        {
          "name": "amountOrTokenId",
          "type": "uint256",
          "internalType": "uint256"
        }
      ],
      "outputs": [
        {
          "name": "",
          "type": "bool",
          "internalType": "bool"
        }
      ],
      "stateMutability": "nonpayable"
    },
    {
      "type": "function",
      "name": "transferFrom",
      "inputs": [
        {
          "name": "sender",
          "type": "address",
          "internalType": "address"
        },
        {
          "name": "recipient",
          "type": "address",
          "internalType": "address"
        },
        {
          "name": "amountOrTokenId",
          "type": "uint256",
          "internalType": "uint256"
        }
      ],
      "outputs": [
        {
          "name": "",
          "type": "bool",
          "internalType": "bool"
        }
      ],
      "stateMutability": "nonpayable"
    },
    {
      "type": "event",
      "name": "Approval",
      "inputs": [
        {
          "name": "owner",
          "type": "address",
          "indexed": true,
          "internalType": "address"
        },
        {
          "name": "spender",
          "type": "address",
          "indexed": true,
          "internalType": "address"
        },
        {
          "name": "valueOrTokenId",
          "type": "uint256",
          "indexed": false,
          "internalType": "uint256"
        }
      ],
      "anonymous": false
    },
    {
      "type": "event",
      "name": "ApprovalForAll",
      "inputs": [
        {
          "name": "owner",
          "type": "address",
          "indexed": true,
          "internalType": "address"
        },
        {
          "name": "operator",
          "type": "address",
          "indexed": true,
          "internalType": "address"
        },
        {
          "name": "approved",
          "type": "bool",
          "indexed": false,
          "internalType": "bool"
        }
      ],
      "anonymous": false
    },
    {
      "type": "event",
      "name": "Associated",
      "inputs": [
        {
          "name": "account",
          "type": "address",
          "indexed": true,
          "internalType": "address"
        }
      ],
      "anonymous": false
    },
    {
      "type": "event",
      "name": "Dissociated",
      "inputs": [
        {
          "name": "account",
          "type": "address",
          "indexed": true,
          "internalType": "address"
        }
      ],
      "anonymous": false
    },
    {
      "type": "event",
      "name": "Transfer",
      "inputs": [
        {
          "name": "from",
          "type": "address",
          "indexed": true,
          "internalType": "address"
        },
        {
          "name": "to",
          "type": "address",
          "indexed": true,
          "internalType": "address"
        },
        {
          "name": "valueOrTokenId",
          "type": "uint256",
          "indexed": false,
          "internalType": "uint256"
        }
      ],
      "anonymous": false
    }
  ],
  "bytecode": {
    "object": "0x6080604052348015600f57600080fd5b506121af8061001f6000396000f3fe608060405234801561001057600080fd5b50600436106101cf5760003560e01c80635c9217e011610104578063a1f3e252116100a2578063d55fe58211610071578063d55fe582146104ad578063d58778d6146104c0578063dd62ed3e146104d3578063e985e9c5146104e6576101cf565b8063a1f3e25214610461578063a22cb46514610474578063a32cfadf14610487578063a9059cbb1461049a576101cf565b806370a08231116100de57806370a08231146104205780637792a0351461043357806381f646331461044657806395d89b4114610459576101cf565b80635c9217e0146103f257806363035f66146103fa5780636352211e1461040d576101cf565b806323b872dd11610171578063313ce5671161014b578063313ce5671461039a5780633e9bf494146103b957806342842e0e146103cc5780634903b0d1146103df576101cf565b806323b872dd1461036c5780632a11ced01461037f57806330fa738c14610392576101cf565b8063095ea7b3116101ad578063095ea7b3146103155780630a754de6146103385780631316589a1461034257806318160ddd14610355576101cf565b8063025e7c27146102bd57806306fdde03146102ed578063081812fc14610302575b6000366060826101e26004828581611d3b565b6101eb91611d65565b60e01c90506000610200601860043684611d3b565b61020991611d9b565b60601c9050600061021d3660188184611d3b565b8080601f016020809104026020016040519081016040528093929190818152602001838380828437600092019190915250929350505063618dc65e84900390506102755761026b82826104f9565b93505050506102b2565b60405162461bcd60e51b815260206004820152600d60248201526c139bdd081cdd5c1c1bdc9d1959609a1b60448201526064015b60405180910390fd5b915050805190602001f35b6102d06102cb366004611ddb565b61091a565b6040516001600160a01b0390911681526020015b60405180910390f35b6102f5610944565b6040516102e49190611df4565b6102d0610310366004611ddb565b6109d2565b610328610323366004611e5e565b610a30565b60405190151581526020016102e4565b610340610cdd565b005b6102d0610350366004611ddb565b610d96565b61035e60045481565b6040519081526020016102e4565b61032861037a366004611e88565b610da6565b6102d061038d366004611ddb565b611269565b6102f5611279565b6003546103a79060ff1681565b60405160ff90911681526020016102e4565b6102d06103c7366004611ddb565b611286565b6103406103da366004611e88565b611296565b61035e6103ed366004611ddb565b6112a7565b6103406112c8565b6102d0610408366004611ddb565b611468565b6102d061041b366004611ddb565b611478565b61035e61042e366004611ec5565b6114ba565b6102d0610441366004611ddb565b6115b3565b61035e610454366004611ddb565b6115c3565b6102f56115d3565b61032861046f366004611ddb565b6115e0565b610340610482366004611ee0565b611614565b6102d0610495366004611ddb565b61174e565b6103286104a8366004611e5e565b61175e565b6103286104bb366004611ec5565b611a7d565b61035e6104ce366004611ddb565b611a95565b61035e6104e1366004611f1c565b611aa5565b6103286104f4366004611f1c565b611b5e565b6060600061050b601c60183684611d3b565b61051491611d65565b905063f90221fd60e01b6001600160e01b03198216016105575760016040516020016105409190611f89565b604051602081830303815290604052915050610914565b63cec31a9960e01b6001600160e01b0319821601610586576003546040805160ff909216602083015201610540565b63e7e9f22360e01b6001600160e01b03198216016105b35760045460405160200161054091815260200190565b636a2764bf60e01b6001600160e01b03198216016105dd5760026040516020016105409190611f89565b6333c1631d60e21b6001600160e01b03198216016106075760006040516020016105409190611f89565b638f5f7dcf60e01b6001600160e01b031982160161067057600061062f603c60283684611d3b565b61063891611d9b565b60601c9050610646816114ba565b60405160200161065891815260200190565b60405160208183030381529060405292505050610914565b6356fa634560e01b6001600160e01b03198216016106f5576000610698603c60283684611d3b565b6106a191611d9b565b60601c905060006106b6605c603c3684611d3b565b8101906106c39190611ddb565b90506106cf828261175e565b604080519115156020830152016040516020818303038152906040529350505050610914565b63f6a1584d60e01b6001600160e01b031982160161075457600061071d603c60283684611d3b565b61072691611d9b565b60601c9050600061073b605c603c3684611d3b565b8101906107489190611ddb565b90506106cf8282610a30565b63114e896160e11b6001600160e01b03198216016107b257600061077c603c60283684611d3b565b61078591611d9b565b60601c9050600061079a6050603c3684611d3b565b6107a391611d9b565b60601c90506106cf8282610a30565b6315500d3f60e11b6001600160e01b03198216016108035760006107da603c60283684611d3b565b6107e391611d9b565b60601c90506107f181611a7d565b60408051911515602083015201610658565b63dc478d2360e01b6001600160e01b03198216016108a857600061082b603c60283684611d3b565b61083491611d9b565b60601c905060006108496050603c3684611d3b565b61085291611d9b565b60601c90506000610867607060503684611d3b565b8101906108749190611ddb565b9050610881838383610da6565b60408051911515602083015201604051602081830303815290604052945050505050610914565b634e56ef7160e11b6001600160e01b03198216016109025760006108d0603c601c3684611d3b565b8101906108dd9190611ddb565b90506108e881611478565b604080516001600160a01b03909216602083015201610658565b50506040805160208101909152600081525b92915050565b600c818154811061092a57600080fd5b6000918252602090912001546001600160a01b0316905081565b6001805461095190611f4f565b80601f016020809104026020016040519081016040528092919081815260200182805461097d90611f4f565b80156109ca5780601f1061099f576101008083540402835291602001916109ca565b820191906000526020600020905b8154815290600101906020018083116109ad57829003601f168201915b505050505081565b6000806109de83611bd4565b90506000198103610a015760405162461bcd60e51b81526004016102a990612015565b600d8181548110610a1457610a1461203e565b6000918252602090912001546001600160a01b03169392505050565b6000610a3a611c1e565b15610b98576000610a4c336007611c83565b90506000610a5b856008611c83565b90506000198214158015610a7157506000198114155b15610a9b578360098381548110610a8a57610a8a61203e565b600091825260209091200155610b4c565b6007805460018082019092557fa66cc928b5edb82af9bd49922954155ab7b0942694bea4ce44661d9a8736c688018054336001600160a01b031991821617909155600880548084019091557ff3f7a9fe364faab93b216da50a3214154f22a0a2b415b23a84c8169e8b636ee30180549091166001600160a01b0388161790556009805491820181556000527f6e1540171b6c0c960b71a7020d9f60077f6af931a8bbf590da0223dacf75c7af018490555b6040518481526001600160a01b0386169033907f8c5be1e5ebec7d5bd14f71427d1e84f3dd0314c0f7b2291e5b200ac8c7c3b925906020015b60405180910390a3600192505050610914565b610ba0611ce0565b15610c95576000610bb083611bd4565b90506000198103610bd35760405162461bcd60e51b81526004016102a990612015565b336001600160a01b0316600c8281548110610bf057610bf061203e565b6000918252602090912001546001600160a01b031614610c225760405162461bcd60e51b81526004016102a990612054565b83600d8281548110610c3657610c3661203e565b60009182526020918290200180546001600160a01b0319166001600160a01b039384161790556040518581529186169133917f8c5be1e5ebec7d5bd14f71427d1e84f3dd0314c0f7b2291e5b200ac8c7c3b925910160405180910390a3505b60405162461bcd60e51b815260206004820152601b60248201527f546f6b656e2074797065206973206e6f7420737570706f72746564000000000060448201526064016102a9565b610ce633611a7d565b15610d285760405162461bcd60e51b8152602060048201526012602482015271105b1c9958591e48185cdcdbd8da585d195960721b60448201526064016102a9565b600a805460018101825560009182527fc65a7bb8d6351c1cf70c95a316cc6a92839c986682d98bc35f958f4883f9d2a80180546001600160a01b0319163390811790915560405190917fda6345b38edaa845627162ea9f0d5b76b9cbfc7f140a8629708200f4640cffa791a2565b6007818154811061092a57600080fd5b6000610db0611c1e565b156110ca576000610dc2856005611c83565b90506000610dd1336008611c83565b90506000198203610e175760405162461bcd60e51b815260206004820152601060248201526f14d95b99195c881b9bdd08199bdd5b9960821b60448201526064016102a9565b856001600160a01b031660078281548110610e3457610e3461203e565b6000918252602090912001546001600160a01b031614610e8e5760405162461bcd60e51b815260206004820152601560248201527414d95b99195c881b9bdd08185d5d1a1bdc9a5e9959605a1b60448201526064016102a9565b8360068381548110610ea257610ea261203e565b90600052602060002001541015610ef25760405162461bcd60e51b8152602060048201526014602482015273496e73756666696369656e742062616c616e636560601b60448201526064016102a9565b8360098281548110610f0657610f0661203e565b90600052602060002001541015610f545760405162461bcd60e51b8152602060048201526012602482015271105b1b1bddd85b98d948195e18d95959195960721b60448201526064016102a9565b8360068381548110610f6857610f6861203e565b906000526020600020016000828254610f819190612093565b925050819055508360098281548110610f9c57610f9c61203e565b906000526020600020016000828254610fb59190612093565b9091555060009050610fc8866005611c83565b90506000198103611050576005805460018082019092557f036b6384b5eca791c62761152d0c79bb0604c104a5fb6f4eb0703f3154bb3db00180546001600160a01b0319166001600160a01b0389161790556006805491820181556000527ff652222313e28459528d920b65115c16c04f3efc82aaedc97be59f3f377c0d3f01859055611083565b84600682815481106110645761106461203e565b90600052602060002001600082825461107d91906120a6565b90915550505b856001600160a01b0316876001600160a01b031660008051602061215a833981519152876040516110b691815260200190565b60405180910390a360019350505050611262565b6110d2611ce0565b15610c955760006110e283611bd4565b905060001981036111055760405162461bcd60e51b81526004016102a990612015565b336001600160a01b0316600c82815481106111225761112261203e565b6000918252602090912001546001600160a01b0316146111545760405162461bcd60e51b81526004016102a990612054565b600d81815481106111675761116761203e565b6000918252602090912001546001600160a01b031633146111b95760405162461bcd60e51b815260206004820152600c60248201526b139bdd08185c1c1c9bdd995960a21b60448201526064016102a9565b83600c82815481106111cd576111cd61203e565b9060005260206000200160006101000a8154816001600160a01b0302191690836001600160a01b031602179055506000600d82815481106112105761121061203e565b60009182526020918290200180546001600160a01b0319166001600160a01b039384161790556040518581528683169288169160008051602061215a833981519152910160405180910390a360019150505b9392505050565b6005818154811061092a57600080fd5b6000805461095190611f4f565b600a818154811061092a57600080fd5b6112a1838383610da6565b50505050565b600681815481106112b757600080fd5b600091825260209091200154905081565b6112d133611a7d565b61130e5760405162461bcd60e51b815260206004820152600e60248201526d139bdd08185cdcdbd8da585d195960921b60448201526064016102a9565b611317336114ba565b156113745760405162461bcd60e51b815260206004820152602760248201527f43616e6e6f7420646973736f63696174652077697468206e6f6e2d7a65726f2060448201526662616c616e636560c81b60648201526084016102a9565b600061138133600a611c83565b9050600019811461143a57600a805461139c90600190612093565b815481106113ac576113ac61203e565b600091825260209091200154600a80546001600160a01b0390921691839081106113d8576113d861203e565b9060005260206000200160006101000a8154816001600160a01b0302191690836001600160a01b03160217905550600a805480611417576114176120b9565b600082815260209020810160001990810180546001600160a01b03191690550190555b60405133907fa4cb7525a89db51eeba2c222d0023bdf55a07d3e2d2f12e33a35c5d1a94f339e90600090a250565b600d818154811061092a57600080fd5b60008061148483611bd4565b905060001981036114a75760405162461bcd60e51b81526004016102a990612015565b600c8181548110610a1457610a1461203e565b60006114c4611c1e565b156115445760005b60055481101561153b57826001600160a01b0316600582815481106114f3576114f361203e565b6000918252602090912001546001600160a01b03160361153357600681815481106115205761152061203e565b9060005260206000200154915050919050565b6001016114cc565b50600092915050565b61154c611ce0565b15610c95576000805b600c548110156115ac57836001600160a01b0316600c828154811061157c5761157c61203e565b6000918252602090912001546001600160a01b0316036115a457816115a0816120cf565b9250505b600101611555565b5092915050565b600e818154811061092a57600080fd5b600981815481106112b757600080fd5b6002805461095190611f4f565b600f81815481106115f057600080fd5b9060005260206000209060209182820401919006915054906101000a900460ff1681565b600061162183600e611c83565b905060001981036116c957600e805460018082019092557fbb7b4a454dc3493923482f07822329ed19e8244eff582cc204f8554c3620c3fd0180546001600160a01b0319166001600160a01b038616179055600f805491820181556000527f8d1108e10bcb7c27dddfc02ed9d693a074039d026cf4ea4240b40f7d581ac8026020820401805460ff601f9093166101000a928302191684151592909202919091179055611707565b81600f82815481106116dd576116dd61203e565b90600052602060002090602091828204019190066101000a81548160ff0219169083151502179055505b60405182151581526001600160a01b0384169033907f17307eab39ab6107e8899845ad3d59bd9653f200f220920489ca2b5937696c319060200160405180910390a3505050565b6008818154811061092a57600080fd5b6000611768611c1e565b1561194957600061177a336005611c83565b905060001981036117c05760405162461bcd60e51b815260206004820152601060248201526f14d95b99195c881b9bdd08199bdd5b9960821b60448201526064016102a9565b82600682815481106117d4576117d461203e565b906000526020600020015410156118245760405162461bcd60e51b8152602060048201526014602482015273496e73756666696369656e742062616c616e636560601b60448201526064016102a9565b6000611831856007611c83565b905060001981036118b9576005805460018082019092557f036b6384b5eca791c62761152d0c79bb0604c104a5fb6f4eb0703f3154bb3db00180546001600160a01b0319166001600160a01b0388161790556006805491820181556000527ff652222313e28459528d920b65115c16c04f3efc82aaedc97be59f3f377c0d3f018490556118ec565b83600682815481106118cd576118cd61203e565b9060005260206000200160008282546118e691906120a6565b90915550505b83600683815481106119005761190061203e565b9060005260206000200160008282546119199190612093565b90915550506040518481526001600160a01b03861690339060008051602061215a83398151915290602001610b85565b611951611ce0565b15610c9557600061196183611bd4565b905060001981036119845760405162461bcd60e51b81526004016102a990612015565b336001600160a01b0316600c82815481106119a1576119a161203e565b6000918252602090912001546001600160a01b031614806119e85750600d81815481106119d0576119d061203e565b6000918252602090912001546001600160a01b031633145b806119f857506119f83333611b5e565b611a145760405162461bcd60e51b81526004016102a990612054565b83600c8281548110611a2857611a2861203e565b60009182526020918290200180546001600160a01b0319166001600160a01b0393841617905560405185815291861691339160008051602061215a833981519152910160405180910390a36001915050610914565b6000600019611a8d83600a611c83565b141592915050565b600b81815481106112b757600080fd5b6000805b600754811015611b5457836001600160a01b031660078281548110611ad057611ad061203e565b6000918252602090912001546001600160a01b0316148015611b215750826001600160a01b031660088281548110611b0a57611b0a61203e565b6000918252602090912001546001600160a01b0316145b15611b4c5760098181548110611b3957611b3961203e565b9060005260206000200154915050610914565b600101611aa9565b5060009392505050565b6000826001600160a01b0316826001600160a01b031603611b8157506001610914565b6000611b8e83600e611c83565b90506000198114611b5457600f8181548110611bac57611bac61203e565b90600052602060002090602091828204019190069054906101000a900460ff16915050610914565b6000805b600b54811015611c145782600b8281548110611bf657611bf661203e565b906000526020600020015403611c0c5792915050565b600101611bd8565b5060001992915050565b604080518082018252600f81526e232aa723a4a12622afa1a7a6a6a7a760891b602090910152516000907f20081d23699eb901ca16307080f9b35e7967740755a921f749a9e037b0875c7590611c759083906120e8565b604051809103902014905090565b6000805b8254811015611cd557836001600160a01b0316838281548110611cac57611cac61203e565b6000918252602090912001546001600160a01b031603611ccd579050610914565b600101611c87565b506000199392505050565b60408051808201825260138152724e4f4e5f46554e4749424c455f554e4951554560681b602090910152516000907f6c58a12b113a1ee77f554495d8bd48a419af104bca196099cdecc39fcb8989f090611c759083906120e8565b60008085851115611d4b57600080fd5b83861115611d5857600080fd5b5050820193919092039150565b80356001600160e01b031981169060048410156115ac576001600160e01b031960049490940360031b84901b1690921692915050565b80356bffffffffffffffffffffffff1981169060148410156115ac576bffffffffffffffffffffffff1960149490940360031b84901b1690921692915050565b600060208284031215611ded57600080fd5b5035919050565b602081526000825180602084015260005b81811015611e225760208186018101516040868401015201611e05565b506000604082850101526040601f19601f83011684010191505092915050565b80356001600160a01b0381168114611e5957600080fd5b919050565b60008060408385031215611e7157600080fd5b611e7a83611e42565b946020939093013593505050565b600080600060608486031215611e9d57600080fd5b611ea684611e42565b9250611eb460208501611e42565b929592945050506040919091013590565b600060208284031215611ed757600080fd5b61126282611e42565b60008060408385031215611ef357600080fd5b611efc83611e42565b915060208301358015158114611f1157600080fd5b809150509250929050565b60008060408385031215611f2f57600080fd5b611f3883611e42565b9150611f4660208401611e42565b90509250929050565b600181811c90821680611f6357607f821691505b602082108103611f8357634e487b7160e01b600052602260045260246000fd5b50919050565b602081526000808354611f9b81611f4f565b8060208601526001821660008114611fba5760018114611fd65761200a565b60ff1983166040870152604082151560051b870101935061200a565b86600052602060002060005b8381101561200157815488820160400152600190910190602001611fe2565b87016040019450505b509195945050505050565b6020808252600f908201526e151bdad95b881b9bdd08199bdd5b99608a1b604082015260600190565b634e487b7160e01b600052603260045260246000fd5b6020808252600f908201526e2737ba103a37b5b2b71037bbb732b960891b604082015260600190565b634e487b7160e01b600052601160045260246000fd5b818103818111156109145761091461207d565b808201808211156109145761091461207d565b634e487b7160e01b600052603160045260246000fd5b6000600182016120e1576120e161207d565b5060010190565b60008083546120f681611f4f565b60018216801561210d57600181146121225761200a565b60ff198316865281151582028601935061200a565b86600052602060002060005b8381101561214a5781548882015260019091019060200161212e565b5050509390930194935050505056feddf252ad1be2c89b69c2b068fc378daa952ba7f163c4a11628f55a4df523b3efa2646970667358221220d6502882c76ceedcca7c2698628b13422d5521fed4f64360e159ed24644f898264736f6c634300081a0033",
    "linkReferences": {}
  },
  "methodIdentifiers": {
    "allowance(address,address)": "dd62ed3e",
    "allowancesAmounts(uint256)": "81f64633",
    "allowancesOwners(uint256)": "1316589a",
    "allowancesSpenders(uint256)": "a32cfadf",
    "approvals(uint256)": "63035f66",
    "approve(address,uint256)": "095ea7b3",
    "associate()": "0a754de6",
    "associatedAccounts(uint256)": "3e9bf494",
    "balanceOf(address)": "70a08231",
    "balances(uint256)": "4903b0d1",
    "decimals()": "313ce567",
    "dissociate()": "5c9217e0",
    "getApproved(uint256)": "081812fc",
    "holders(uint256)": "2a11ced0",
    "isApprovedForAll(address,address)": "e985e9c5",
    "isAssociated(address)": "d55fe582",
    "name()": "06fdde03",
    "operatorAddresses(uint256)": "7792a035",
    "operatorApproved(uint256)": "a1f3e252",
    "ownerOf(uint256)": "6352211e",
    "owners(uint256)": "025e7c27",
    "safeTransferFrom(address,address,uint256)": "42842e0e",
    "setApprovalForAll(address,bool)": "a22cb465",
    "symbol()": "95d89b41",
    "tokenIds(uint256)": "d58778d6",
    "tokenType()": "30fa738c",
    "totalSupply()": "18160ddd",
    "transfer(address,uint256)": "a9059cbb",
    "transferFrom(address,address,uint256)": "23b872dd"
  },
  "storageLayout": {
    "storage": [
      {
        "astId": 8132,
        "contract": "src/HtsSystemContract.sol:HtsSystemContract",
        "label": "tokenType",
        "offset": 0,
        "slot": "0",
        "type": "t_string_storage"
      },
      {
        "astId": 8134,
        "contract": "src/HtsSystemContract.sol:HtsSystemContract",
        "label": "name",
        "offset": 0,
        "slot": "1",
        "type": "t_string_storage"
      },
      {
        "astId": 8136,
        "contract": "src/HtsSystemContract.sol:HtsSystemContract",
        "label": "symbol",
        "offset": 0,
        "slot": "2",
        "type": "t_string_storage"
      },
      {
        "astId": 8138,
        "contract": "src/HtsSystemContract.sol:HtsSystemContract",
        "label": "decimals",
        "offset": 0,
        "slot": "3",
        "type": "t_uint8"
      },
      {
        "astId": 8140,
        "contract": "src/HtsSystemContract.sol:HtsSystemContract",
        "label": "totalSupply",
        "offset": 0,
        "slot": "4",
        "type": "t_uint256"
      },
      {
        "astId": 8143,
        "contract": "src/HtsSystemContract.sol:HtsSystemContract",
        "label": "holders",
        "offset": 0,
        "slot": "5",
        "type": "t_array(t_address)dyn_storage"
      },
      {
        "astId": 8146,
        "contract": "src/HtsSystemContract.sol:HtsSystemContract",
        "label": "balances",
        "offset": 0,
        "slot": "6",
        "type": "t_array(t_uint256)dyn_storage"
      },
      {
        "astId": 8149,
        "contract": "src/HtsSystemContract.sol:HtsSystemContract",
        "label": "allowancesOwners",
        "offset": 0,
        "slot": "7",
        "type": "t_array(t_address)dyn_storage"
      },
      {
        "astId": 8152,
        "contract": "src/HtsSystemContract.sol:HtsSystemContract",
        "label": "allowancesSpenders",
        "offset": 0,
        "slot": "8",
        "type": "t_array(t_address)dyn_storage"
      },
      {
        "astId": 8155,
        "contract": "src/HtsSystemContract.sol:HtsSystemContract",
        "label": "allowancesAmounts",
        "offset": 0,
        "slot": "9",
        "type": "t_array(t_uint256)dyn_storage"
      },
      {
        "astId": 8158,
        "contract": "src/HtsSystemContract.sol:HtsSystemContract",
        "label": "associatedAccounts",
        "offset": 0,
        "slot": "10",
        "type": "t_array(t_address)dyn_storage"
      },
      {
        "astId": 8161,
        "contract": "src/HtsSystemContract.sol:HtsSystemContract",
        "label": "tokenIds",
        "offset": 0,
        "slot": "11",
        "type": "t_array(t_uint256)dyn_storage"
      },
      {
        "astId": 8164,
        "contract": "src/HtsSystemContract.sol:HtsSystemContract",
        "label": "owners",
        "offset": 0,
        "slot": "12",
        "type": "t_array(t_address)dyn_storage"
      },
      {
        "astId": 8167,
        "contract": "src/HtsSystemContract.sol:HtsSystemContract",
        "label": "approvals",
        "offset": 0,
        "slot": "13",
        "type": "t_array(t_address)dyn_storage"
      },
      {
        "astId": 8170,
        "contract": "src/HtsSystemContract.sol:HtsSystemContract",
        "label": "operatorAddresses",
        "offset": 0,
        "slot": "14",
        "type": "t_array(t_address)dyn_storage"
      },
      {
        "astId": 8173,
        "contract": "src/HtsSystemContract.sol:HtsSystemContract",
        "label": "operatorApproved",
        "offset": 0,
        "slot": "15",
        "type": "t_array(t_bool)dyn_storage"
      }
    ],
    "types": {
      "t_address": {
        "encoding": "inplace",
        "label": "address",
        "numberOfBytes": "20"
      },
      "t_array(t_address)dyn_storage": {
        "encoding": "dynamic_array",
        "label": "address[]",
        "numberOfBytes": "32",
        "base": "t_address"
      },
      "t_array(t_bool)dyn_storage": {
        "encoding": "dynamic_array",
        "label": "bool[]",
        "numberOfBytes": "32",
        "base": "t_bool"
      },
      "t_array(t_uint256)dyn_storage": {
        "encoding": "dynamic_array",
        "label": "uint256[]",
        "numberOfBytes": "32",
        "base": "t_uint256"
      },
      "t_bool": {
        "encoding": "inplace",
        "label": "bool",
        "numberOfBytes": "1"
      },
      "t_string_storage": {
        "encoding": "bytes",
        "label": "string",
        "numberOfBytes": "32"
      },
      "t_uint256": {
        "encoding": "inplace",
        "label": "uint256",
        "numberOfBytes": "32"
      },
      "t_uint8": {
        "encoding": "inplace",
        "label": "uint8",
        "numberOfBytes": "1"
      }
    }
  },
  "id": 1
}